{
  "abi": [
    {
      "inputs": [
        {
          "internalType": "address",
          "name": "_pool",
          "type": "address"
        },
        {
          "internalType": "address",
          "name": "_usdc",
          "type": "address"
        },
        {
          "internalType": "address",
          "name": "_dai",
          "type": "address"
        }
      ],
      "stateMutability": "nonpayable",
      "type": "constructor"
    },
    {
      "anonymous": false,
      "inputs": [
        {
          "indexed": true,
          "internalType": "address",
          "name": "previousOwner",
          "type": "address"
        },
        {
          "indexed": true,
          "internalType": "address",
          "name": "newOwner",
          "type": "address"
        }
      ],
      "name": "OwnershipTransferred",
      "type": "event"
    },
    {
      "inputs": [],
      "name": "aave_pool",
      "outputs": [
        {
          "internalType": "contract IPool",
          "name": "",
          "type": "address"
        }
      ],
      "stateMutability": "view",
      "type": "function"
    },
    {
      "inputs": [
        {
          "internalType": "uint256",
          "name": "_amount",
          "type": "uint256"
        }
      ],
      "name": "borrowDAI",
      "outputs": [],
      "stateMutability": "nonpayable",
      "type": "function"
    },
    {
      "inputs": [],
      "name": "borrowedAmount",
      "outputs": [
        {
          "internalType": "uint256",
          "name": "",
          "type": "uint256"
        }
      ],
      "stateMutability": "view",
      "type": "function"
    },
    {
      "inputs": [],
      "name": "dai",
      "outputs": [
        {
          "internalType": "contract IERC20",
          "name": "",
          "type": "address"
        }
      ],
      "stateMutability": "view",
      "type": "function"
    },
    {
      "inputs": [
        {
          "internalType": "uint256",
          "name": "_amount",
          "type": "uint256"
        }
      ],
      "name": "depositUSDC",
      "outputs": [],
      "stateMutability": "nonpayable",
      "type": "function"
    },
    {
      "inputs": [],
      "name": "depositedAmount",
      "outputs": [
        {
          "internalType": "uint256",
          "name": "",
          "type": "uint256"
        }
      ],
      "stateMutability": "view",
      "type": "function"
    },
    {
      "inputs": [],
      "name": "owner",
      "outputs": [
        {
          "internalType": "address",
          "name": "",
          "type": "address"
        }
      ],
      "stateMutability": "view",
      "type": "function"
    },
    {
      "inputs": [],
      "name": "renounceOwnership",
      "outputs": [],
      "stateMutability": "nonpayable",
      "type": "function"
    },
    {
      "inputs": [
        {
          "internalType": "uint256",
          "name": "_amount",
          "type": "uint256"
        }
      ],
      "name": "repayDAI",
      "outputs": [],
      "stateMutability": "nonpayable",
      "type": "function"
    },
    {
      "inputs": [
        {
          "internalType": "address",
          "name": "newOwner",
          "type": "address"
        }
      ],
      "name": "transferOwnership",
      "outputs": [],
      "stateMutability": "nonpayable",
      "type": "function"
    },
    {
      "inputs": [],
      "name": "usdc",
      "outputs": [
        {
          "internalType": "contract IERC20",
          "name": "",
          "type": "address"
        }
      ],
      "stateMutability": "view",
      "type": "function"
    },
    {
      "inputs": [
        {
          "internalType": "uint256",
          "name": "_amount",
          "type": "uint256"
        }
      ],
      "name": "withdrawUSDC",
      "outputs": [],
      "stateMutability": "nonpayable",
      "type": "function"
    }
  ],
  "bytecode": "608060405234801561001057600080fd5b50604051610a43380380610a4383398101604081905261002f916100e6565b6100383361007a565b600180546001600160a01b039485166001600160a01b031991821617909155600380549385169382169390931790925560028054919093169116179055610129565b600080546001600160a01b038381166001600160a01b0319831681178455604051919092169283917f8be0079c531659141344cd1fd0a4f28419497f9722a3daafe3b4186f6b6457e09190a35050565b80516001600160a01b03811681146100e157600080fd5b919050565b6000806000606084860312156100fb57600080fd5b610104846100ca565b9250610112602085016100ca565b9150610120604085016100ca565b90509250925092565b61090b806101386000396000f3fe608060405234801561001057600080fd5b50600436106100b45760003560e01c8063c0e96a2d11610071578063c0e96a2d14610137578063db81f99b1461014a578063ecbdcd7f1461015d578063f2fde38b14610170578063f4b9fa7514610183578063f688bcfb1461019657600080fd5b80631afbb7a4146100b95780631d01364c146100d55780633e413bee146100de578063715018a6146101095780638da5cb5b14610113578063bb2fbbbf14610124575b600080fd5b6100c260055481565b6040519081526020015b60405180910390f35b6100c260045481565b6003546100f1906001600160a01b031681565b6040516001600160a01b0390911681526020016100cc565b6101116101a9565b005b6000546001600160a01b03166100f1565b61011161013236600461080f565b6101bd565b6001546100f1906001600160a01b031681565b61011161015836600461080f565b6102ce565b61011161016b36600461080f565b6103b6565b61011161017e366004610828565b610593565b6002546100f1906001600160a01b031681565b6101116101a436600461080f565b61060c565b6101b1610765565b6101bb60006107bf565b565b6101c5610765565b806005546101d3919061086e565b6005556001546002805460405163a415bcad60e01b81526001600160a01b039182166004820152602481018590526044810192909252600060648301523060848301529091169063a415bcad9060a401600060405180830381600087803b15801561023d57600080fd5b505af1158015610251573d6000803e3d6000fd5b505060025460405163a9059cbb60e01b8152336004820152602481018590526001600160a01b03909116925063a9059cbb91506044016020604051808303816000875af11580156102a6573d6000803e3d6000fd5b505050506040513d601f19601f820116820180604052508101906102ca9190610887565b5050565b6102d6610765565b6004548111156103235760405162461bcd60e51b81526020600482015260136024820152724e6f7420656e6f7567682062616c616e63652160681b60448201526064015b60405180910390fd5b8060045461033191906108a9565b6004908155600154600354604051631a4ca37b60e21b81526001600160a01b03918216938101939093526024830184905233604484015216906369328dec906064016020604051808303816000875af1158015610392573d6000803e3d6000fd5b505050506040513d601f19601f820116820180604052508101906102ca91906108bc565b6103be610765565b6005548111156104105760405162461bcd60e51b815260206004820152601e60248201527f54686973206973206d6f7265207468616e20796f7520626f72726f7765640000604482015260640161031a565b8060055461041e91906108a9565b6005556002546040516323b872dd60e01b8152336004820152306024820152604481018390526001600160a01b03909116906323b872dd906064016020604051808303816000875af1158015610478573d6000803e3d6000fd5b505050506040513d601f19601f8201168201806040525081019061049c9190610887565b5060025460015460405163095ea7b360e01b81526001600160a01b0391821660048201526024810184905291169063095ea7b3906044016020604051808303816000875af11580156104f2573d6000803e3d6000fd5b505050506040513d601f19601f820116820180604052508101906105169190610887565b506001546002805460405163573ade8160e01b81526001600160a01b0391821660048201526024810185905260448101929092523060648301529091169063573ade81906084015b600060405180830381600087803b15801561057857600080fd5b505af115801561058c573d6000803e3d6000fd5b5050505050565b61059b610765565b6001600160a01b0381166106005760405162461bcd60e51b815260206004820152602660248201527f4f776e61626c653a206e6577206f776e657220697320746865207a65726f206160448201526564647265737360d01b606482015260840161031a565b610609816107bf565b50565b610614610765565b80600454610622919061086e565b60049081556003546040516323b872dd60e01b81523392810192909252306024830152604482018390526001600160a01b0316906323b872dd906064016020604051808303816000875af115801561067e573d6000803e3d6000fd5b505050506040513d601f19601f820116820180604052508101906106a29190610887565b5060035460015460405163095ea7b360e01b81526001600160a01b0391821660048201526024810184905291169063095ea7b3906044016020604051808303816000875af11580156106f8573d6000803e3d6000fd5b505050506040513d601f19601f8201168201806040525081019061071c9190610887565b5060015460035460405163617ba03760e01b81526001600160a01b039182166004820152602481018490523060448201526000606482015291169063617ba0379060840161055e565b6000546001600160a01b031633146101bb5760405162461bcd60e51b815260206004820181905260248201527f4f776e61626c653a2063616c6c6572206973206e6f7420746865206f776e6572604482015260640161031a565b600080546001600160a01b038381166001600160a01b0319831681178455604051919092169283917f8be0079c531659141344cd1fd0a4f28419497f9722a3daafe3b4186f6b6457e09190a35050565b60006020828403121561082157600080fd5b5035919050565b60006020828403121561083a57600080fd5b81356001600160a01b038116811461085157600080fd5b9392505050565b634e487b7160e01b600052601160045260246000fd5b8082018082111561088157610881610858565b92915050565b60006020828403121561089957600080fd5b8151801515811461085157600080fd5b8181038181111561088157610881610858565b6000602082840312156108ce57600080fd5b505191905056fea2646970667358221220594531e96795025fcc21899261c7e40a60bd85f9852459126879374bfa97e45c64736f6c63430008130033",
  "bytecodeSha1": "d6fe47839c469ad07ec1af2ed94021208ee5409a",
  "compiler": {
    "evm_version": "istanbul",
    "optimizer": {
      "enabled": true,
      "runs": 200
    },
    "version": "0.8.19+commit.7dd6d404"
  },
  "contractName": "AaveUser",
  "language": "Solidity",
  "natspec": {
    "kind": "dev",
    "methods": {
      "owner()": {
        "details": "Returns the address of the current owner."
      },
      "renounceOwnership()": {
        "details": "Leaves the contract without owner. It will not be possible to call `onlyOwner` functions anymore. Can only be called by the current owner. NOTE: Renouncing ownership will leave the contract without an owner, thereby removing any functionality that is only available to the owner."
      },
      "transferOwnership(address)": {
        "details": "Transfers ownership of the contract to a new account (`newOwner`). Can only be called by the current owner."
      }
    },
    "version": 1
  },
  "opcodes": "PUSH1 0x80 PUSH1 0x40 MSTORE CALLVALUE DUP1 ISZERO PUSH2 0x10 JUMPI PUSH1 0x0 DUP1 REVERT JUMPDEST POP PUSH1 0x4 CALLDATASIZE LT PUSH2 0xB4 JUMPI PUSH1 0x0 CALLDATALOAD PUSH1 0xE0 SHR DUP1 PUSH4 0xC0E96A2D GT PUSH2 0x71 JUMPI DUP1 PUSH4 0xC0E96A2D EQ PUSH2 0x137 JUMPI DUP1 PUSH4 0xDB81F99B EQ PUSH2 0x14A JUMPI DUP1 PUSH4 0xECBDCD7F EQ PUSH2 0x15D JUMPI DUP1 PUSH4 0xF2FDE38B EQ PUSH2 0x170 JUMPI DUP1 PUSH4 0xF4B9FA75 EQ PUSH2 0x183 JUMPI DUP1 PUSH4 0xF688BCFB EQ PUSH2 0x196 JUMPI PUSH1 0x0 DUP1 REVERT JUMPDEST DUP1 PUSH4 0x1AFBB7A4 EQ PUSH2 0xB9 JUMPI DUP1 PUSH4 0x1D01364C EQ PUSH2 0xD5 JUMPI DUP1 PUSH4 0x3E413BEE EQ PUSH2 0xDE JUMPI DUP1 PUSH4 0x715018A6 EQ PUSH2 0x109 JUMPI DUP1 PUSH4 0x8DA5CB5B EQ PUSH2 0x113 JUMPI DUP1 PUSH4 0xBB2FBBBF EQ PUSH2 0x124 JUMPI JUMPDEST PUSH1 0x0 DUP1 REVERT JUMPDEST PUSH2 0xC2 PUSH1 0x5 SLOAD DUP2 JUMP JUMPDEST PUSH1 0x40 MLOAD SWAP1 DUP2 MSTORE PUSH1 0x20 ADD JUMPDEST PUSH1 0x40 MLOAD DUP1 SWAP2 SUB SWAP1 RETURN JUMPDEST PUSH2 0xC2 PUSH1 0x4 SLOAD DUP2 JUMP JUMPDEST PUSH1 0x3 SLOAD PUSH2 0xF1 SWAP1 PUSH1 0x1 PUSH1 0x1 PUSH1 0xA0 SHL SUB AND DUP2 JUMP JUMPDEST PUSH1 0x40 MLOAD PUSH1 0x1 PUSH1 0x1 PUSH1 0xA0 SHL SUB SWAP1 SWAP2 AND DUP2 MSTORE PUSH1 0x20 ADD PUSH2 0xCC JUMP JUMPDEST PUSH2 0x111 PUSH2 0x1A9 JUMP JUMPDEST STOP JUMPDEST PUSH1 0x0 SLOAD PUSH1 0x1 PUSH1 0x1 PUSH1 0xA0 SHL SUB AND PUSH2 0xF1 JUMP JUMPDEST PUSH2 0x111 PUSH2 0x132 CALLDATASIZE PUSH1 0x4 PUSH2 0x80F JUMP JUMPDEST PUSH2 0x1BD JUMP JUMPDEST PUSH1 0x1 SLOAD PUSH2 0xF1 SWAP1 PUSH1 0x1 PUSH1 0x1 PUSH1 0xA0 SHL SUB AND DUP2 JUMP JUMPDEST PUSH2 0x111 PUSH2 0x158 CALLDATASIZE PUSH1 0x4 PUSH2 0x80F JUMP JUMPDEST PUSH2 0x2CE JUMP JUMPDEST PUSH2 0x111 PUSH2 0x16B CALLDATASIZE PUSH1 0x4 PUSH2 0x80F JUMP JUMPDEST PUSH2 0x3B6 JUMP JUMPDEST PUSH2 0x111 PUSH2 0x17E CALLDATASIZE PUSH1 0x4 PUSH2 0x828 JUMP JUMPDEST PUSH2 0x593 JUMP JUMPDEST PUSH1 0x2 SLOAD PUSH2 0xF1 SWAP1 PUSH1 0x1 PUSH1 0x1 PUSH1 0xA0 SHL SUB AND DUP2 JUMP JUMPDEST PUSH2 0x111 PUSH2 0x1A4 CALLDATASIZE PUSH1 0x4 PUSH2 0x80F JUMP JUMPDEST PUSH2 0x60C JUMP JUMPDEST PUSH2 0x1B1 PUSH2 0x765 JUMP JUMPDEST PUSH2 0x1BB PUSH1 0x0 PUSH2 0x7BF JUMP JUMPDEST JUMP JUMPDEST PUSH2 0x1C5 PUSH2 0x765 JUMP JUMPDEST DUP1 PUSH1 0x5 SLOAD PUSH2 0x1D3 SWAP2 SWAP1 PUSH2 0x86E JUMP JUMPDEST PUSH1 0x5 SSTORE PUSH1 0x1 SLOAD PUSH1 0x2 DUP1 SLOAD PUSH1 0x40 MLOAD PUSH4 0xA415BCAD PUSH1 0xE0 SHL DUP2 MSTORE PUSH1 0x1 PUSH1 0x1 PUSH1 0xA0 SHL SUB SWAP2 DUP3 AND PUSH1 0x4 DUP3 ADD MSTORE PUSH1 0x24 DUP2 ADD DUP6 SWAP1 MSTORE PUSH1 0x44 DUP2 ADD SWAP3 SWAP1 SWAP3 MSTORE PUSH1 0x0 PUSH1 0x64 DUP4 ADD MSTORE ADDRESS PUSH1 0x84 DUP4 ADD MSTORE SWAP1 SWAP2 AND SWAP1 PUSH4 0xA415BCAD SWAP1 PUSH1 0xA4 ADD PUSH1 0x0 PUSH1 0x40 MLOAD DUP1 DUP4 SUB DUP2 PUSH1 0x0 DUP8 DUP1 EXTCODESIZE ISZERO DUP1 ISZERO PUSH2 0x23D JUMPI PUSH1 0x0 DUP1 REVERT JUMPDEST POP GAS CALL ISZERO DUP1 ISZERO PUSH2 0x251 JUMPI RETURNDATASIZE PUSH1 0x0 DUP1 RETURNDATACOPY RETURNDATASIZE PUSH1 0x0 REVERT JUMPDEST POP POP PUSH1 0x2 SLOAD PUSH1 0x40 MLOAD PUSH4 0xA9059CBB PUSH1 0xE0 SHL DUP2 MSTORE CALLER PUSH1 0x4 DUP3 ADD MSTORE PUSH1 0x24 DUP2 ADD DUP6 SWAP1 MSTORE PUSH1 0x1 PUSH1 0x1 PUSH1 0xA0 SHL SUB SWAP1 SWAP2 AND SWAP3 POP PUSH4 0xA9059CBB SWAP2 POP PUSH1 0x44 ADD PUSH1 0x20 PUSH1 0x40 MLOAD DUP1 DUP4 SUB DUP2 PUSH1 0x0 DUP8 GAS CALL ISZERO DUP1 ISZERO PUSH2 0x2A6 JUMPI RETURNDATASIZE PUSH1 0x0 DUP1 RETURNDATACOPY RETURNDATASIZE PUSH1 0x0 REVERT JUMPDEST POP POP POP POP PUSH1 0x40 MLOAD RETURNDATASIZE PUSH1 0x1F NOT PUSH1 0x1F DUP3 ADD AND DUP3 ADD DUP1 PUSH1 0x40 MSTORE POP DUP2 ADD SWAP1 PUSH2 0x2CA SWAP2 SWAP1 PUSH2 0x887 JUMP JUMPDEST POP POP JUMP JUMPDEST PUSH2 0x2D6 PUSH2 0x765 JUMP JUMPDEST PUSH1 0x4 SLOAD DUP2 GT ISZERO PUSH2 0x323 JUMPI PUSH1 0x40 MLOAD PUSH3 0x461BCD PUSH1 0xE5 SHL DUP2 MSTORE PUSH1 0x20 PUSH1 0x4 DUP3 ADD MSTORE PUSH1 0x13 PUSH1 0x24 DUP3 ADD MSTORE PUSH19 0x4E6F7420656E6F7567682062616C616E636521 PUSH1 0x68 SHL PUSH1 0x44 DUP3 ADD MSTORE PUSH1 0x64 ADD JUMPDEST PUSH1 0x40 MLOAD DUP1 SWAP2 SUB SWAP1 REVERT JUMPDEST DUP1 PUSH1 0x4 SLOAD PUSH2 0x331 SWAP2 SWAP1 PUSH2 0x8A9 JUMP JUMPDEST PUSH1 0x4 SWAP1 DUP2 SSTORE PUSH1 0x1 SLOAD PUSH1 0x3 SLOAD PUSH1 0x40 MLOAD PUSH4 0x1A4CA37B PUSH1 0xE2 SHL DUP2 MSTORE PUSH1 0x1 PUSH1 0x1 PUSH1 0xA0 SHL SUB SWAP2 DUP3 AND SWAP4 DUP2 ADD SWAP4 SWAP1 SWAP4 MSTORE PUSH1 0x24 DUP4 ADD DUP5 SWAP1 MSTORE CALLER PUSH1 0x44 DUP5 ADD MSTORE AND SWAP1 PUSH4 0x69328DEC SWAP1 PUSH1 0x64 ADD PUSH1 0x20 PUSH1 0x40 MLOAD DUP1 DUP4 SUB DUP2 PUSH1 0x0 DUP8 GAS CALL ISZERO DUP1 ISZERO PUSH2 0x392 JUMPI RETURNDATASIZE PUSH1 0x0 DUP1 RETURNDATACOPY RETURNDATASIZE PUSH1 0x0 REVERT JUMPDEST POP POP POP POP PUSH1 0x40 MLOAD RETURNDATASIZE PUSH1 0x1F NOT PUSH1 0x1F DUP3 ADD AND DUP3 ADD DUP1 PUSH1 0x40 MSTORE POP DUP2 ADD SWAP1 PUSH2 0x2CA SWAP2 SWAP1 PUSH2 0x8BC JUMP JUMPDEST PUSH2 0x3BE PUSH2 0x765 JUMP JUMPDEST PUSH1 0x5 SLOAD DUP2 GT ISZERO PUSH2 0x410 JUMPI PUSH1 0x40 MLOAD PUSH3 0x461BCD PUSH1 0xE5 SHL DUP2 MSTORE PUSH1 0x20 PUSH1 0x4 DUP3 ADD MSTORE PUSH1 0x1E PUSH1 0x24 DUP3 ADD MSTORE PUSH32 0x54686973206973206D6F7265207468616E20796F7520626F72726F7765640000 PUSH1 0x44 DUP3 ADD MSTORE PUSH1 0x64 ADD PUSH2 0x31A JUMP JUMPDEST DUP1 PUSH1 0x5 SLOAD PUSH2 0x41E SWAP2 SWAP1 PUSH2 0x8A9 JUMP JUMPDEST PUSH1 0x5 SSTORE PUSH1 0x2 SLOAD PUSH1 0x40 MLOAD PUSH4 0x23B872DD PUSH1 0xE0 SHL DUP2 MSTORE CALLER PUSH1 0x4 DUP3 ADD MSTORE ADDRESS PUSH1 0x24 DUP3 ADD MSTORE PUSH1 0x44 DUP2 ADD DUP4 SWAP1 MSTORE PUSH1 0x1 PUSH1 0x1 PUSH1 0xA0 SHL SUB SWAP1 SWAP2 AND SWAP1 PUSH4 0x23B872DD SWAP1 PUSH1 0x64 ADD PUSH1 0x20 PUSH1 0x40 MLOAD DUP1 DUP4 SUB DUP2 PUSH1 0x0 DUP8 GAS CALL ISZERO DUP1 ISZERO PUSH2 0x478 JUMPI RETURNDATASIZE PUSH1 0x0 DUP1 RETURNDATACOPY RETURNDATASIZE PUSH1 0x0 REVERT JUMPDEST POP POP POP POP PUSH1 0x40 MLOAD RETURNDATASIZE PUSH1 0x1F NOT PUSH1 0x1F DUP3 ADD AND DUP3 ADD DUP1 PUSH1 0x40 MSTORE POP DUP2 ADD SWAP1 PUSH2 0x49C SWAP2 SWAP1 PUSH2 0x887 JUMP JUMPDEST POP PUSH1 0x2 SLOAD PUSH1 0x1 SLOAD PUSH1 0x40 MLOAD PUSH4 0x95EA7B3 PUSH1 0xE0 SHL DUP2 MSTORE PUSH1 0x1 PUSH1 0x1 PUSH1 0xA0 SHL SUB SWAP2 DUP3 AND PUSH1 0x4 DUP3 ADD MSTORE PUSH1 0x24 DUP2 ADD DUP5 SWAP1 MSTORE SWAP2 AND SWAP1 PUSH4 0x95EA7B3 SWAP1 PUSH1 0x44 ADD PUSH1 0x20 PUSH1 0x40 MLOAD DUP1 DUP4 SUB DUP2 PUSH1 0x0 DUP8 GAS CALL ISZERO DUP1 ISZERO PUSH2 0x4F2 JUMPI RETURNDATASIZE PUSH1 0x0 DUP1 RETURNDATACOPY RETURNDATASIZE PUSH1 0x0 REVERT JUMPDEST POP POP POP POP PUSH1 0x40 MLOAD RETURNDATASIZE PUSH1 0x1F NOT PUSH1 0x1F DUP3 ADD AND DUP3 ADD DUP1 PUSH1 0x40 MSTORE POP DUP2 ADD SWAP1 PUSH2 0x516 SWAP2 SWAP1 PUSH2 0x887 JUMP JUMPDEST POP PUSH1 0x1 SLOAD PUSH1 0x2 DUP1 SLOAD PUSH1 0x40 MLOAD PUSH4 0x573ADE81 PUSH1 0xE0 SHL DUP2 MSTORE PUSH1 0x1 PUSH1 0x1 PUSH1 0xA0 SHL SUB SWAP2 DUP3 AND PUSH1 0x4 DUP3 ADD MSTORE PUSH1 0x24 DUP2 ADD DUP6 SWAP1 MSTORE PUSH1 0x44 DUP2 ADD SWAP3 SWAP1 SWAP3 MSTORE ADDRESS PUSH1 0x64 DUP4 ADD MSTORE SWAP1 SWAP2 AND SWAP1 PUSH4 0x573ADE81 SWAP1 PUSH1 0x84 ADD JUMPDEST PUSH1 0x0 PUSH1 0x40 MLOAD DUP1 DUP4 SUB DUP2 PUSH1 0x0 DUP8 DUP1 EXTCODESIZE ISZERO DUP1 ISZERO PUSH2 0x578 JUMPI PUSH1 0x0 DUP1 REVERT JUMPDEST POP GAS CALL ISZERO DUP1 ISZERO PUSH2 0x58C JUMPI RETURNDATASIZE PUSH1 0x0 DUP1 RETURNDATACOPY RETURNDATASIZE PUSH1 0x0 REVERT JUMPDEST POP POP POP POP POP JUMP JUMPDEST PUSH2 0x59B PUSH2 0x765 JUMP JUMPDEST PUSH1 0x1 PUSH1 0x1 PUSH1 0xA0 SHL SUB DUP2 AND PUSH2 0x600 JUMPI PUSH1 0x40 MLOAD PUSH3 0x461BCD PUSH1 0xE5 SHL DUP2 MSTORE PUSH1 0x20 PUSH1 0x4 DUP3 ADD MSTORE PUSH1 0x26 PUSH1 0x24 DUP3 ADD MSTORE PUSH32 0x4F776E61626C653A206E6577206F776E657220697320746865207A65726F2061 PUSH1 0x44 DUP3 ADD MSTORE PUSH6 0x646472657373 PUSH1 0xD0 SHL PUSH1 0x64 DUP3 ADD MSTORE PUSH1 0x84 ADD PUSH2 0x31A JUMP JUMPDEST PUSH2 0x609 DUP2 PUSH2 0x7BF JUMP JUMPDEST POP JUMP JUMPDEST PUSH2 0x614 PUSH2 0x765 JUMP JUMPDEST DUP1 PUSH1 0x4 SLOAD PUSH2 0x622 SWAP2 SWAP1 PUSH2 0x86E JUMP JUMPDEST PUSH1 0x4 SWAP1 DUP2 SSTORE PUSH1 0x3 SLOAD PUSH1 0x40 MLOAD PUSH4 0x23B872DD PUSH1 0xE0 SHL DUP2 MSTORE CALLER SWAP3 DUP2 ADD SWAP3 SWAP1 SWAP3 MSTORE ADDRESS PUSH1 0x24 DUP4 ADD MSTORE PUSH1 0x44 DUP3 ADD DUP4 SWAP1 MSTORE PUSH1 0x1 PUSH1 0x1 PUSH1 0xA0 SHL SUB AND SWAP1 PUSH4 0x23B872DD SWAP1 PUSH1 0x64 ADD PUSH1 0x20 PUSH1 0x40 MLOAD DUP1 DUP4 SUB DUP2 PUSH1 0x0 DUP8 GAS CALL ISZERO DUP1 ISZERO PUSH2 0x67E JUMPI RETURNDATASIZE PUSH1 0x0 DUP1 RETURNDATACOPY RETURNDATASIZE PUSH1 0x0 REVERT JUMPDEST POP POP POP POP PUSH1 0x40 MLOAD RETURNDATASIZE PUSH1 0x1F NOT PUSH1 0x1F DUP3 ADD AND DUP3 ADD DUP1 PUSH1 0x40 MSTORE POP DUP2 ADD SWAP1 PUSH2 0x6A2 SWAP2 SWAP1 PUSH2 0x887 JUMP JUMPDEST POP PUSH1 0x3 SLOAD PUSH1 0x1 SLOAD PUSH1 0x40 MLOAD PUSH4 0x95EA7B3 PUSH1 0xE0 SHL DUP2 MSTORE PUSH1 0x1 PUSH1 0x1 PUSH1 0xA0 SHL SUB SWAP2 DUP3 AND PUSH1 0x4 DUP3 ADD MSTORE PUSH1 0x24 DUP2 ADD DUP5 SWAP1 MSTORE SWAP2 AND SWAP1 PUSH4 0x95EA7B3 SWAP1 PUSH1 0x44 ADD PUSH1 0x20 PUSH1 0x40 MLOAD DUP1 DUP4 SUB DUP2 PUSH1 0x0 DUP8 GAS CALL ISZERO DUP1 ISZERO PUSH2 0x6F8 JUMPI RETURNDATASIZE PUSH1 0x0 DUP1 RETURNDATACOPY RETURNDATASIZE PUSH1 0x0 REVERT JUMPDEST POP POP POP POP PUSH1 0x40 MLOAD RETURNDATASIZE PUSH1 0x1F NOT PUSH1 0x1F DUP3 ADD AND DUP3 ADD DUP1 PUSH1 0x40 MSTORE POP DUP2 ADD SWAP1 PUSH2 0x71C SWAP2 SWAP1 PUSH2 0x887 JUMP JUMPDEST POP PUSH1 0x1 SLOAD PUSH1 0x3 SLOAD PUSH1 0x40 MLOAD PUSH4 0x617BA037 PUSH1 0xE0 SHL DUP2 MSTORE PUSH1 0x1 PUSH1 0x1 PUSH1 0xA0 SHL SUB SWAP2 DUP3 AND PUSH1 0x4 DUP3 ADD MSTORE PUSH1 0x24 DUP2 ADD DUP5 SWAP1 MSTORE ADDRESS PUSH1 0x44 DUP3 ADD MSTORE PUSH1 0x0 PUSH1 0x64 DUP3 ADD MSTORE SWAP2 AND SWAP1 PUSH4 0x617BA037 SWAP1 PUSH1 0x84 ADD PUSH2 0x55E JUMP JUMPDEST PUSH1 0x0 SLOAD PUSH1 0x1 PUSH1 0x1 PUSH1 0xA0 SHL SUB AND CALLER EQ PUSH2 0x1BB JUMPI PUSH1 0x40 MLOAD PUSH3 0x461BCD PUSH1 0xE5 SHL DUP2 MSTORE PUSH1 0x20 PUSH1 0x4 DUP3 ADD DUP2 SWAP1 MSTORE PUSH1 0x24 DUP3 ADD MSTORE PUSH32 0x4F776E61626C653A2063616C6C6572206973206E6F7420746865206F776E6572 PUSH1 0x44 DUP3 ADD MSTORE PUSH1 0x64 ADD PUSH2 0x31A JUMP JUMPDEST PUSH1 0x0 DUP1 SLOAD PUSH1 0x1 PUSH1 0x1 PUSH1 0xA0 SHL SUB DUP4 DUP2 AND PUSH1 0x1 PUSH1 0x1 PUSH1 0xA0 SHL SUB NOT DUP4 AND DUP2 OR DUP5 SSTORE PUSH1 0x40 MLOAD SWAP2 SWAP1 SWAP3 AND SWAP3 DUP4 SWAP2 PUSH32 0x8BE0079C531659141344CD1FD0A4F28419497F9722A3DAAFE3B4186F6B6457E0 SWAP2 SWAP1 LOG3 POP POP JUMP JUMPDEST PUSH1 0x0 PUSH1 0x20 DUP3 DUP5 SUB SLT ISZERO PUSH2 0x821 JUMPI PUSH1 0x0 DUP1 REVERT JUMPDEST POP CALLDATALOAD SWAP2 SWAP1 POP JUMP JUMPDEST PUSH1 0x0 PUSH1 0x20 DUP3 DUP5 SUB SLT ISZERO PUSH2 0x83A JUMPI PUSH1 0x0 DUP1 REVERT JUMPDEST DUP2 CALLDATALOAD PUSH1 0x1 PUSH1 0x1 PUSH1 0xA0 SHL SUB DUP2 AND DUP2 EQ PUSH2 0x851 JUMPI PUSH1 0x0 DUP1 REVERT JUMPDEST SWAP4 SWAP3 POP POP POP JUMP JUMPDEST PUSH4 0x4E487B71 PUSH1 0xE0 SHL PUSH1 0x0 MSTORE PUSH1 0x11 PUSH1 0x4 MSTORE PUSH1 0x24 PUSH1 0x0 REVERT JUMPDEST DUP1 DUP3 ADD DUP1 DUP3 GT ISZERO PUSH2 0x881 JUMPI PUSH2 0x881 PUSH2 0x858 JUMP JUMPDEST SWAP3 SWAP2 POP POP JUMP JUMPDEST PUSH1 0x0 PUSH1 0x20 DUP3 DUP5 SUB SLT ISZERO PUSH2 0x899 JUMPI PUSH1 0x0 DUP1 REVERT JUMPDEST DUP2 MLOAD DUP1 ISZERO ISZERO DUP2 EQ PUSH2 0x851 JUMPI PUSH1 0x0 DUP1 REVERT JUMPDEST DUP2 DUP2 SUB DUP2 DUP2 GT ISZERO PUSH2 0x881 JUMPI PUSH2 0x881 PUSH2 0x858 JUMP JUMPDEST PUSH1 0x0 PUSH1 0x20 DUP3 DUP5 SUB SLT ISZERO PUSH2 0x8CE JUMPI PUSH1 0x0 DUP1 REVERT JUMPDEST POP MLOAD SWAP2 SWAP1 POP JUMP INVALID LOG2 PUSH5 0x6970667358 0x22 SLT KECCAK256 MSIZE GASLIMIT BALANCE 0xE9 PUSH8 0x95025FCC21899261 0xC7 0xE4 EXP PUSH1 0xBD DUP6 0xF9 DUP6 0x24 MSIZE SLT PUSH9 0x79374BFA97E45C6473 PUSH16 0x6C634300081300330000000000000000 ",
  "sha1": "bdbd3f545cd262fed78e0a45f2962b0593772de3",
  "source": "// SCH Course Copyright Policy (C): DO-NOT-SHARE-WITH-ANYONE\n// https://smartcontractshacking.com/#copyright-policy\npragma solidity ^0.8.13;\n\nimport \"@openzeppelin/contracts/token/ERC20/IERC20.sol\";\nimport \"@openzeppelin/contracts/access/Ownable.sol\";\nimport \"./AaveInterfaces.sol\";\n\ncontract AaveUser is Ownable {\n\n    // TODO: Complete state variables\n    IPool public aave_pool;\n    IERC20 public dai;\n    IERC20 public usdc;\n    uint public depositedAmount;\n    uint public borrowedAmount;\n\n\n    // TODO: Complete the constructor\n    constructor(address _pool, address _usdc, address _dai) {\n        aave_pool = IPool(_pool);\n        \n        usdc = IERC20(_usdc);\n        dai = IERC20(_dai);\n\n    }\n\n    // Deposit USDC in AAVE Pool\n    function depositUSDC(uint256 _amount) external onlyOwner {\n        // TODO: Implement this function\n        // TODO: Update depositedamount state var\n        depositedAmount = depositedAmount + _amount;\n        // TODO: Transfer from the sender the USDC to this contract\n        usdc.transferFrom(msg.sender, address(this), _amount);\n        // TODO: Supply USDC to aavePool Pool\n        usdc.approve(address(aave_pool), _amount);\n        aave_pool.supply(address(usdc), _amount, address(this), 0);\n        \n    }\n\n    // Withdraw USDC\n    function withdrawUSDC(uint256 _amount) external onlyOwner {\n        // TODO: Implement this function\n\n        // TODO: Revert if the user is trying to withdraw more than the deposited amount\n        require(_amount <= depositedAmount, \"Not enough balance!\");\n        // TODO: Update depositedamount state var\n        depositedAmount = depositedAmount - _amount;\n        // TODO: Withdraw the USDC tokens, send them directly to the user\n        aave_pool.withdraw(address(usdc), _amount, msg.sender);\n    }\n\n    // Borrow DAI From aave, send DAI to the user (msg.sender)\n    function borrowDAI(uint256 _amount) external onlyOwner {\n        // TODO: Implement this function\n\n        // TODO: Update borrowedAmmount state var\n        borrowedAmount = borrowedAmount + _amount;\n        // TODO: Borrow the DAI tokens in variable interest mode\n        aave_pool.borrow(address(dai), _amount, 2, 0, address(this));\n        // TODO: Transfer DAI token to the user\n        dai.transfer(msg.sender, _amount);\n\n    }\n\n    // Repay the borrowed DAI to AAVE\n    function repayDAI(uint256 _amount) external onlyOwner {\n        // TODO: Implement this function\n\n        // TODO: Revert if the user is trying to repay more tokens that he borrowed\n        require(_amount <= borrowedAmount, \"This is more than you borrowed\") ;\n        // TODO: Update borrowedAmmount state var\n        borrowedAmount = borrowedAmount - _amount;\n        // TODO: Transfer the DAI tokens from the user to this contract\n        dai.transferFrom(msg.sender, address(this), _amount);\n        // TODO: Approve AAVE Pool to spend the DAI tokens\n        dai.approve(address(aave_pool), _amount);\n        // TODO: Repay the loan\n        aave_pool.repay(address(dai), _amount, 2, address(this));\n        \n    }\n}",
  "sourcePath": "contracts/money-markets-1/AaveUser.sol",
  "type": "contract"
}