{
  "abi": [
    {
      "inputs": [],
      "stateMutability": "payable",
      "type": "constructor"
    },
    {
      "inputs": [],
      "name": "depositETH",
      "outputs": [],
      "stateMutability": "payable",
      "type": "function"
    },
    {
      "inputs": [
        {
          "internalType": "uint256",
          "name": "amount",
          "type": "uint256"
        }
      ],
      "name": "flashLoanETH",
      "outputs": [],
      "stateMutability": "nonpayable",
      "type": "function"
    },
    {
      "inputs": [],
      "name": "withdrawETH",
      "outputs": [],
      "stateMutability": "nonpayable",
      "type": "function"
    }
  ],
  "bytecode": "6080604052610369806100136000396000f3fe6080604052600436106100345760003560e01c80635b1ec4e014610039578063e086e5ec1461005b578063f6326fb314610070575b600080fd5b34801561004557600080fd5b506100596100543660046102f3565b610078565b005b34801561006757600080fd5b5061005961018d565b6100596101af565b47818110156100e55760405162461bcd60e51b815260206004820152602e60248201527f52657175657374656420616d6f756e742069732067726561746572207468616e60448201526d205661756c742062616c616e636560901b60648201526084015b60405180910390fd5b336001600160a01b0316636347f70e836040518263ffffffff1660e01b81526004016000604051808303818588803b15801561012057600080fd5b505af1158015610134573d6000803e3d6000fd5b5050505050804710156101895760405162461bcd60e51b815260206004820152601960248201527f4e65656420746f20706179206261636b20746865206c6f616e0000000000000060448201526064016100dc565b5050565b3360008181526020819052604081208054919055906101ac90826101d5565b50565b33600090815260208190526040812080543492906101ce90849061030c565b9091555050565b804710156102255760405162461bcd60e51b815260206004820152601d60248201527f416464726573733a20696e73756666696369656e742062616c616e636500000060448201526064016100dc565b6000826001600160a01b03168260405160006040518083038185875af1925050503d8060008114610272576040519150601f19603f3d011682016040523d82523d6000602084013e610277565b606091505b50509050806102ee5760405162461bcd60e51b815260206004820152603a60248201527f416464726573733a20756e61626c6520746f2073656e642076616c75652c207260448201527f6563697069656e74206d6179206861766520726576657274656400000000000060648201526084016100dc565b505050565b60006020828403121561030557600080fd5b5035919050565b8082018082111561032d57634e487b7160e01b600052601160045260246000fd5b9291505056fea26469706673582212204a083c672c760412c53ada8390c3fd4194d2b67b3fe5868dbb390fa7100f908264736f6c63430008130033",
  "bytecodeSha1": "d1b826b3bd9de15dcbe0e736f46bc5f0f3e84b15",
  "compiler": {
    "evm_version": "istanbul",
    "optimizer": {
      "enabled": true,
      "runs": 200
    },
    "version": "0.8.19+commit.7dd6d404"
  },
  "contractName": "AdvancedVault",
  "language": "Solidity",
  "natspec": {
    "author": "JohnnyTime (https://smartcontractshacking.com)",
    "kind": "dev",
    "methods": {},
    "title": "AdvancedVault",
    "version": 1
  },
  "opcodes": "PUSH1 0x80 PUSH1 0x40 MSTORE PUSH1 0x4 CALLDATASIZE LT PUSH2 0x34 JUMPI PUSH1 0x0 CALLDATALOAD PUSH1 0xE0 SHR DUP1 PUSH4 0x5B1EC4E0 EQ PUSH2 0x39 JUMPI DUP1 PUSH4 0xE086E5EC EQ PUSH2 0x5B JUMPI DUP1 PUSH4 0xF6326FB3 EQ PUSH2 0x70 JUMPI JUMPDEST PUSH1 0x0 DUP1 REVERT JUMPDEST CALLVALUE DUP1 ISZERO PUSH2 0x45 JUMPI PUSH1 0x0 DUP1 REVERT JUMPDEST POP PUSH2 0x59 PUSH2 0x54 CALLDATASIZE PUSH1 0x4 PUSH2 0x2F3 JUMP JUMPDEST PUSH2 0x78 JUMP JUMPDEST STOP JUMPDEST CALLVALUE DUP1 ISZERO PUSH2 0x67 JUMPI PUSH1 0x0 DUP1 REVERT JUMPDEST POP PUSH2 0x59 PUSH2 0x18D JUMP JUMPDEST PUSH2 0x59 PUSH2 0x1AF JUMP JUMPDEST SELFBALANCE DUP2 DUP2 LT ISZERO PUSH2 0xE5 JUMPI PUSH1 0x40 MLOAD PUSH3 0x461BCD PUSH1 0xE5 SHL DUP2 MSTORE PUSH1 0x20 PUSH1 0x4 DUP3 ADD MSTORE PUSH1 0x2E PUSH1 0x24 DUP3 ADD MSTORE PUSH32 0x52657175657374656420616D6F756E742069732067726561746572207468616E PUSH1 0x44 DUP3 ADD MSTORE PUSH14 0x205661756C742062616C616E6365 PUSH1 0x90 SHL PUSH1 0x64 DUP3 ADD MSTORE PUSH1 0x84 ADD JUMPDEST PUSH1 0x40 MLOAD DUP1 SWAP2 SUB SWAP1 REVERT JUMPDEST CALLER PUSH1 0x1 PUSH1 0x1 PUSH1 0xA0 SHL SUB AND PUSH4 0x6347F70E DUP4 PUSH1 0x40 MLOAD DUP3 PUSH4 0xFFFFFFFF AND PUSH1 0xE0 SHL DUP2 MSTORE PUSH1 0x4 ADD PUSH1 0x0 PUSH1 0x40 MLOAD DUP1 DUP4 SUB DUP2 DUP6 DUP9 DUP1 EXTCODESIZE ISZERO DUP1 ISZERO PUSH2 0x120 JUMPI PUSH1 0x0 DUP1 REVERT JUMPDEST POP GAS CALL ISZERO DUP1 ISZERO PUSH2 0x134 JUMPI RETURNDATASIZE PUSH1 0x0 DUP1 RETURNDATACOPY RETURNDATASIZE PUSH1 0x0 REVERT JUMPDEST POP POP POP POP POP DUP1 SELFBALANCE LT ISZERO PUSH2 0x189 JUMPI PUSH1 0x40 MLOAD PUSH3 0x461BCD PUSH1 0xE5 SHL DUP2 MSTORE PUSH1 0x20 PUSH1 0x4 DUP3 ADD MSTORE PUSH1 0x19 PUSH1 0x24 DUP3 ADD MSTORE PUSH32 0x4E65656420746F20706179206261636B20746865206C6F616E00000000000000 PUSH1 0x44 DUP3 ADD MSTORE PUSH1 0x64 ADD PUSH2 0xDC JUMP JUMPDEST POP POP JUMP JUMPDEST CALLER PUSH1 0x0 DUP2 DUP2 MSTORE PUSH1 0x20 DUP2 SWAP1 MSTORE PUSH1 0x40 DUP2 KECCAK256 DUP1 SLOAD SWAP2 SWAP1 SSTORE SWAP1 PUSH2 0x1AC SWAP1 DUP3 PUSH2 0x1D5 JUMP JUMPDEST POP JUMP JUMPDEST CALLER PUSH1 0x0 SWAP1 DUP2 MSTORE PUSH1 0x20 DUP2 SWAP1 MSTORE PUSH1 0x40 DUP2 KECCAK256 DUP1 SLOAD CALLVALUE SWAP3 SWAP1 PUSH2 0x1CE SWAP1 DUP5 SWAP1 PUSH2 0x30C JUMP JUMPDEST SWAP1 SWAP2 SSTORE POP POP JUMP JUMPDEST DUP1 SELFBALANCE LT ISZERO PUSH2 0x225 JUMPI PUSH1 0x40 MLOAD PUSH3 0x461BCD PUSH1 0xE5 SHL DUP2 MSTORE PUSH1 0x20 PUSH1 0x4 DUP3 ADD MSTORE PUSH1 0x1D PUSH1 0x24 DUP3 ADD MSTORE PUSH32 0x416464726573733A20696E73756666696369656E742062616C616E6365000000 PUSH1 0x44 DUP3 ADD MSTORE PUSH1 0x64 ADD PUSH2 0xDC JUMP JUMPDEST PUSH1 0x0 DUP3 PUSH1 0x1 PUSH1 0x1 PUSH1 0xA0 SHL SUB AND DUP3 PUSH1 0x40 MLOAD PUSH1 0x0 PUSH1 0x40 MLOAD DUP1 DUP4 SUB DUP2 DUP6 DUP8 GAS CALL SWAP3 POP POP POP RETURNDATASIZE DUP1 PUSH1 0x0 DUP2 EQ PUSH2 0x272 JUMPI PUSH1 0x40 MLOAD SWAP2 POP PUSH1 0x1F NOT PUSH1 0x3F RETURNDATASIZE ADD AND DUP3 ADD PUSH1 0x40 MSTORE RETURNDATASIZE DUP3 MSTORE RETURNDATASIZE PUSH1 0x0 PUSH1 0x20 DUP5 ADD RETURNDATACOPY PUSH2 0x277 JUMP JUMPDEST PUSH1 0x60 SWAP2 POP JUMPDEST POP POP SWAP1 POP DUP1 PUSH2 0x2EE JUMPI PUSH1 0x40 MLOAD PUSH3 0x461BCD PUSH1 0xE5 SHL DUP2 MSTORE PUSH1 0x20 PUSH1 0x4 DUP3 ADD MSTORE PUSH1 0x3A PUSH1 0x24 DUP3 ADD MSTORE PUSH32 0x416464726573733A20756E61626C6520746F2073656E642076616C75652C2072 PUSH1 0x44 DUP3 ADD MSTORE PUSH32 0x6563697069656E74206D61792068617665207265766572746564000000000000 PUSH1 0x64 DUP3 ADD MSTORE PUSH1 0x84 ADD PUSH2 0xDC JUMP JUMPDEST POP POP POP JUMP JUMPDEST PUSH1 0x0 PUSH1 0x20 DUP3 DUP5 SUB SLT ISZERO PUSH2 0x305 JUMPI PUSH1 0x0 DUP1 REVERT JUMPDEST POP CALLDATALOAD SWAP2 SWAP1 POP JUMP JUMPDEST DUP1 DUP3 ADD DUP1 DUP3 GT ISZERO PUSH2 0x32D JUMPI PUSH4 0x4E487B71 PUSH1 0xE0 SHL PUSH1 0x0 MSTORE PUSH1 0x11 PUSH1 0x4 MSTORE PUSH1 0x24 PUSH1 0x0 REVERT JUMPDEST SWAP3 SWAP2 POP POP JUMP INVALID LOG2 PUSH5 0x6970667358 0x22 SLT KECCAK256 0x4A ADDMOD EXTCODECOPY PUSH8 0x2C760412C53ADA83 SWAP1 0xC3 REVERT COINBASE SWAP5 0xD2 0xB6 PUSH28 0x3FE5868DBB390FA7100F908264736F6C634300081300330000000000 ",
  "sha1": "d10ebb016ac34b5d8d9a66dfe5ee781601b910ee",
  "source": "// SCH Course Copyright Policy (C): DO-NOT-SHARE-WITH-ANYONE\n// https://smartcontractshacking.com/#copyright-policy\npragma solidity ^0.8.13;\n\nimport \"@openzeppelin/contracts/utils/Address.sol\";\n\ninterface IFlashLoanEtherReceiver {\n    function callBack() external payable;\n}\n\n/**\n * @title AdvancedVault\n * @author JohnnyTime (https://smartcontractshacking.com)\n */\ncontract AdvancedVault {\n\n    using Address for address payable;\n    mapping (address => uint256) private balances;\n    \n    constructor() payable {}\n\n    function depositETH() external payable {\n        balances[msg.sender] += msg.value;\n    }\n\n    function withdrawETH() external {\n        uint256 amount = balances[msg.sender];\n        balances[msg.sender] = 0;\n        payable(msg.sender).sendValue(amount);\n    }\n\n    function flashLoanETH(uint256 amount) external {\n        uint256 balanceBefore = address(this).balance;\n        require(balanceBefore >= amount, \"Requested amount is greater than Vault balance\");\n        IFlashLoanEtherReceiver(msg.sender).callBack{value: amount}();\n        require(address(this).balance >= balanceBefore, \"Need to pay back the loan\");        \n    }\n\n}\n",
  "sourcePath": "contracts/flash-loan-attacks-2/AdvancedVault.sol",
  "type": "contract"
}