{
  "abi": [
    {
      "inputs": [],
      "name": "beforeExecution",
      "outputs": [],
      "stateMutability": "nonpayable",
      "type": "function"
    }
  ],
  "bytecode": "6080604052348015600f57600080fd5b50606580601d6000396000f3fe6080604052348015600f57600080fd5b506004361060285760003560e01c80636e78563514602d575b600080fd5b00fea2646970667358221220e4d88fe7617d51683ce2414ac636ecf4991312b535d53f1aaf40c275d059b31b64736f6c63430008130033",
  "bytecodeSha1": "292e67e7070264b78491d30de712d29ef6176f31",
  "compiler": {
    "evm_version": "istanbul",
    "optimizer": {
      "enabled": true,
      "runs": 200
    },
    "version": "0.8.19+commit.7dd6d404"
  },
  "contractName": "AttackContract",
  "language": "Solidity",
  "natspec": {
    "kind": "dev",
    "methods": {},
    "version": 1
  },
  "opcodes": "PUSH1 0x80 PUSH1 0x40 MSTORE CALLVALUE DUP1 ISZERO PUSH1 0xF JUMPI PUSH1 0x0 DUP1 REVERT JUMPDEST POP PUSH1 0x4 CALLDATASIZE LT PUSH1 0x28 JUMPI PUSH1 0x0 CALLDATALOAD PUSH1 0xE0 SHR DUP1 PUSH4 0x6E785635 EQ PUSH1 0x2D JUMPI JUMPDEST PUSH1 0x0 DUP1 REVERT JUMPDEST STOP INVALID LOG2 PUSH5 0x6970667358 0x22 SLT KECCAK256 0xE4 0xD8 DUP16 0xE7 PUSH2 0x7D51 PUSH9 0x3CE2414AC636ECF499 SGT SLT 0xB5 CALLDATALOAD 0xD5 EXTCODEHASH BYTE 0xAF BLOCKHASH 0xC2 PUSH22 0xD059B31B64736F6C6343000813003300000000000000 ",
  "sha1": "0a5c03e5bc0a5d630a995d723031d48465e36465",
  "source": "// SCH Course Copyright Policy (C): DO-NOT-SHARE-WITH-ANYONE\n// https://smartcontractshacking.com/#copyright-policy\npragma solidity ^0.8.13;\n\nimport \"../interfaces/ICallbackContract.sol\";\n\ncontract AttackContract {\n    function beforeExecution() external {\n        // TODO: Implement your malicious beforeExecution callback\n    }\n}\n",
  "sourcePath": "contracts/AttackContract.sol",
  "type": "contract"
}