{
  "abi": [
    {
      "inputs": [],
      "name": "bid",
      "outputs": [],
      "stateMutability": "payable",
      "type": "function"
    },
    {
      "inputs": [],
      "name": "currentLeader",
      "outputs": [
        {
          "internalType": "address payable",
          "name": "",
          "type": "address"
        }
      ],
      "stateMutability": "view",
      "type": "function"
    },
    {
      "inputs": [],
      "name": "highestBid",
      "outputs": [
        {
          "internalType": "uint256",
          "name": "",
          "type": "uint256"
        }
      ],
      "stateMutability": "view",
      "type": "function"
    }
  ],
  "bytecode": "608060405234801561001057600080fd5b50610126806100206000396000f3fe60806040526004361060305760003560e01c80631998aeef146035578063ac4bd53a14603d578063d57bde79146078575b600080fd5b603b6099565b005b348015604857600080fd5b50600054605b906001600160a01b031681565b6040516001600160a01b0390911681526020015b60405180910390f35b348015608357600080fd5b50608c60015481565b604051908152602001606f565b600154341160a657600080fd5b600080546001546040516001600160a01b039092169281156108fc029290818181858888f1935050505060d857600080fd5b600080546001600160a01b031916331790553460015556fea2646970667358221220d12542d6bcd7b02e33d5d5e2e00daac6d4d83a3a0a429d7d84f57a547edecb7e64736f6c63430008130033",
  "bytecodeSha1": "eaa2bd3725a9230733e3dd8c9a43697a60fa4f57",
  "compiler": {
    "evm_version": "istanbul",
    "optimizer": {
      "enabled": true,
      "runs": 200
    },
    "version": "0.8.19+commit.7dd6d404"
  },
  "contractName": "Auction",
  "language": "Solidity",
  "natspec": {
    "author": "JohnnyTime (https://smartcontractshacking.com)",
    "kind": "dev",
    "methods": {},
    "title": "Auction",
    "version": 1
  },
  "opcodes": "PUSH1 0x80 PUSH1 0x40 MSTORE PUSH1 0x4 CALLDATASIZE LT PUSH1 0x30 JUMPI PUSH1 0x0 CALLDATALOAD PUSH1 0xE0 SHR DUP1 PUSH4 0x1998AEEF EQ PUSH1 0x35 JUMPI DUP1 PUSH4 0xAC4BD53A EQ PUSH1 0x3D JUMPI DUP1 PUSH4 0xD57BDE79 EQ PUSH1 0x78 JUMPI JUMPDEST PUSH1 0x0 DUP1 REVERT JUMPDEST PUSH1 0x3B PUSH1 0x99 JUMP JUMPDEST STOP JUMPDEST CALLVALUE DUP1 ISZERO PUSH1 0x48 JUMPI PUSH1 0x0 DUP1 REVERT JUMPDEST POP PUSH1 0x0 SLOAD PUSH1 0x5B SWAP1 PUSH1 0x1 PUSH1 0x1 PUSH1 0xA0 SHL SUB AND DUP2 JUMP JUMPDEST PUSH1 0x40 MLOAD PUSH1 0x1 PUSH1 0x1 PUSH1 0xA0 SHL SUB SWAP1 SWAP2 AND DUP2 MSTORE PUSH1 0x20 ADD JUMPDEST PUSH1 0x40 MLOAD DUP1 SWAP2 SUB SWAP1 RETURN JUMPDEST CALLVALUE DUP1 ISZERO PUSH1 0x83 JUMPI PUSH1 0x0 DUP1 REVERT JUMPDEST POP PUSH1 0x8C PUSH1 0x1 SLOAD DUP2 JUMP JUMPDEST PUSH1 0x40 MLOAD SWAP1 DUP2 MSTORE PUSH1 0x20 ADD PUSH1 0x6F JUMP JUMPDEST PUSH1 0x1 SLOAD CALLVALUE GT PUSH1 0xA6 JUMPI PUSH1 0x0 DUP1 REVERT JUMPDEST PUSH1 0x0 DUP1 SLOAD PUSH1 0x1 SLOAD PUSH1 0x40 MLOAD PUSH1 0x1 PUSH1 0x1 PUSH1 0xA0 SHL SUB SWAP1 SWAP3 AND SWAP3 DUP2 ISZERO PUSH2 0x8FC MUL SWAP3 SWAP1 DUP2 DUP2 DUP2 DUP6 DUP9 DUP9 CALL SWAP4 POP POP POP POP PUSH1 0xD8 JUMPI PUSH1 0x0 DUP1 REVERT JUMPDEST PUSH1 0x0 DUP1 SLOAD PUSH1 0x1 PUSH1 0x1 PUSH1 0xA0 SHL SUB NOT AND CALLER OR SWAP1 SSTORE CALLVALUE PUSH1 0x1 SSTORE JUMP INVALID LOG2 PUSH5 0x6970667358 0x22 SLT KECCAK256 0xD1 0x25 TIMESTAMP 0xD6 0xBC 0xD7 0xB0 0x2E CALLER 0xD5 0xD5 0xE2 0xE0 0xD 0xAA 0xC6 0xD4 0xD8 GASPRICE GASPRICE EXP TIMESTAMP SWAP14 PUSH30 0x84F57A547EDECB7E64736F6C634300081300330000000000000000000000 ",
  "sha1": "ebd846025d8a1610171b9c2990cf495890022d69",
  "source": "// SCH Course Copyright Policy (C): DO-NOT-SHARE-WITH-ANYONE\n// https://smartcontractshacking.com/#copyright-policy\npragma solidity ^0.8.13;\n\n/**\n * @title Auction\n * @author JohnnyTime (https://smartcontractshacking.com)\n */\ncontract Auction {\n\n    address payable public currentLeader;\n    uint256 public highestBid;\n\n    function bid() external payable {\n        require(msg.value > highestBid);\n\n        require(currentLeader.send(highestBid));\n\n        currentLeader = payable(msg.sender);\n        highestBid = msg.value;\n    }\n}",
  "sourcePath": "contracts/dos-2/Auction.sol",
  "type": "contract"
}