{
  "abi": [
    {
      "anonymous": false,
      "inputs": [
        {
          "indexed": false,
          "internalType": "address",
          "name": "caller",
          "type": "address"
        },
        {
          "indexed": false,
          "internalType": "address",
          "name": "destAddress",
          "type": "address"
        },
        {
          "indexed": false,
          "internalType": "bytes",
          "name": "encodedCalldata",
          "type": "bytes"
        },
        {
          "indexed": false,
          "internalType": "uint256",
          "name": "value",
          "type": "uint256"
        },
        {
          "indexed": false,
          "internalType": "bytes",
          "name": "result",
          "type": "bytes"
        }
      ],
      "name": "Executed",
      "type": "event"
    },
    {
      "anonymous": false,
      "inputs": [
        {
          "indexed": false,
          "internalType": "address",
          "name": "operator",
          "type": "address"
        }
      ],
      "name": "NewOperator",
      "type": "event"
    },
    {
      "anonymous": false,
      "inputs": [
        {
          "indexed": false,
          "internalType": "address",
          "name": "operator",
          "type": "address"
        }
      ],
      "name": "OperatorRemoved",
      "type": "event"
    },
    {
      "inputs": [],
      "name": "CALL_OPERATION",
      "outputs": [
        {
          "internalType": "uint8",
          "name": "",
          "type": "uint8"
        }
      ],
      "stateMutability": "view",
      "type": "function"
    },
    {
      "inputs": [],
      "name": "DELEGATECALL_OPERATION",
      "outputs": [
        {
          "internalType": "uint8",
          "name": "",
          "type": "uint8"
        }
      ],
      "stateMutability": "view",
      "type": "function"
    },
    {
      "inputs": [
        {
          "internalType": "address",
          "name": "_address",
          "type": "address"
        }
      ],
      "name": "addOperator",
      "outputs": [],
      "stateMutability": "nonpayable",
      "type": "function"
    },
    {
      "inputs": [
        {
          "internalType": "address",
          "name": "_destAddress",
          "type": "address"
        },
        {
          "internalType": "bytes",
          "name": "_encodedCalldata",
          "type": "bytes"
        },
        {
          "internalType": "uint8",
          "name": "operation",
          "type": "uint8"
        }
      ],
      "name": "execute",
      "outputs": [
        {
          "internalType": "bytes",
          "name": "",
          "type": "bytes"
        }
      ],
      "stateMutability": "nonpayable",
      "type": "function"
    },
    {
      "inputs": [
        {
          "internalType": "address",
          "name": "_destAddress",
          "type": "address"
        },
        {
          "internalType": "bytes",
          "name": "_encodedCalldata",
          "type": "bytes"
        },
        {
          "internalType": "uint256",
          "name": "_value",
          "type": "uint256"
        }
      ],
      "name": "executeWithValue",
      "outputs": [
        {
          "internalType": "bytes",
          "name": "",
          "type": "bytes"
        }
      ],
      "stateMutability": "payable",
      "type": "function"
    },
    {
      "inputs": [
        {
          "internalType": "address[]",
          "name": "_operators",
          "type": "address[]"
        }
      ],
      "name": "initialize",
      "outputs": [],
      "stateMutability": "nonpayable",
      "type": "function"
    },
    {
      "inputs": [],
      "name": "initialized",
      "outputs": [
        {
          "internalType": "bool",
          "name": "",
          "type": "bool"
        }
      ],
      "stateMutability": "view",
      "type": "function"
    },
    {
      "inputs": [
        {
          "internalType": "address",
          "name": "",
          "type": "address"
        },
        {
          "internalType": "address",
          "name": "",
          "type": "address"
        },
        {
          "internalType": "uint256[]",
          "name": "",
          "type": "uint256[]"
        },
        {
          "internalType": "uint256[]",
          "name": "",
          "type": "uint256[]"
        },
        {
          "internalType": "bytes",
          "name": "",
          "type": "bytes"
        }
      ],
      "name": "onERC1155BatchReceived",
      "outputs": [
        {
          "internalType": "bytes4",
          "name": "",
          "type": "bytes4"
        }
      ],
      "stateMutability": "nonpayable",
      "type": "function"
    },
    {
      "inputs": [
        {
          "internalType": "address",
          "name": "",
          "type": "address"
        },
        {
          "internalType": "address",
          "name": "",
          "type": "address"
        },
        {
          "internalType": "uint256",
          "name": "",
          "type": "uint256"
        },
        {
          "internalType": "uint256",
          "name": "",
          "type": "uint256"
        },
        {
          "internalType": "bytes",
          "name": "",
          "type": "bytes"
        }
      ],
      "name": "onERC1155Received",
      "outputs": [
        {
          "internalType": "bytes4",
          "name": "",
          "type": "bytes4"
        }
      ],
      "stateMutability": "nonpayable",
      "type": "function"
    },
    {
      "inputs": [
        {
          "internalType": "address",
          "name": "",
          "type": "address"
        },
        {
          "internalType": "address",
          "name": "",
          "type": "address"
        },
        {
          "internalType": "uint256",
          "name": "",
          "type": "uint256"
        },
        {
          "internalType": "bytes",
          "name": "",
          "type": "bytes"
        }
      ],
      "name": "onERC721Received",
      "outputs": [
        {
          "internalType": "bytes4",
          "name": "",
          "type": "bytes4"
        }
      ],
      "stateMutability": "nonpayable",
      "type": "function"
    },
    {
      "inputs": [
        {
          "internalType": "address",
          "name": "",
          "type": "address"
        }
      ],
      "name": "operators",
      "outputs": [
        {
          "internalType": "bool",
          "name": "",
          "type": "bool"
        }
      ],
      "stateMutability": "view",
      "type": "function"
    },
    {
      "inputs": [
        {
          "internalType": "address",
          "name": "_address",
          "type": "address"
        }
      ],
      "name": "removeOperator",
      "outputs": [],
      "stateMutability": "nonpayable",
      "type": "function"
    },
    {
      "inputs": [
        {
          "internalType": "bytes4",
          "name": "interfaceId",
          "type": "bytes4"
        }
      ],
      "name": "supportsInterface",
      "outputs": [
        {
          "internalType": "bool",
          "name": "",
          "type": "bool"
        }
      ],
      "stateMutability": "view",
      "type": "function"
    },
    {
      "stateMutability": "payable",
      "type": "receive"
    }
  ],
  "bytecode": "60806040526001805460ff1916905534801561001a57600080fd5b506001600055610fd98061002f6000396000f3fe6080604052600436106100c65760003560e01c8063a224cee71161007f578063bc197c8111610059578063bc197c811461024b578063d3f43c781461026b578063f23a6e6114610280578063fa4bb79d146102ac57600080fd5b8063a224cee7146101de578063a22b6e8b146101fe578063ac8a584a1461022b57600080fd5b806301ffc9a7146100d257806313e7c9d814610107578063150b7a0214610137578063158ef93e1461017b57806348f33103146101955780639870d7fe146101bc57600080fd5b366100cd57005b600080fd5b3480156100de57600080fd5b506100f26100ed366004610945565b6102bf565b60405190151581526020015b60405180910390f35b34801561011357600080fd5b506100f2610122366004610992565b60026020526000908152604090205460ff1681565b34801561014357600080fd5b50610162610152366004610a72565b630a85bd0160e11b949350505050565b6040516001600160e01b031990911681526020016100fe565b34801561018757600080fd5b506001546100f29060ff1681565b3480156101a157600080fd5b506101aa600281565b60405160ff90911681526020016100fe565b3480156101c857600080fd5b506101dc6101d7366004610992565b6102ea565b005b3480156101ea57600080fd5b506101dc6101f9366004610ada565b61037e565b34801561020a57600080fd5b5061021e610219366004610b98565b610522565b6040516100fe9190610c54565b34801561023757600080fd5b506101dc610246366004610992565b6105b0565b34801561025757600080fd5b50610162610266366004610ce7565b610630565b34801561027757600080fd5b506101aa600181565b34801561028c57600080fd5b5061016261029b366004610d91565b63f23a6e6160e01b95945050505050565b61021e6102ba366004610df6565b610642565b60006001600160e01b0319821663cebe984560e01b14806102e457506102e4826106c6565b92915050565b3360008181526002602052604090205460ff166103225760405162461bcd60e51b815260040161031990610e50565b60405180910390fd5b6001600160a01b038216600081815260026020908152604091829020805460ff1916600117905590519182527fda12ee837e6978172aaf54b16145ffe08414fd8710092ef033c71b8eb6ec189a91015b60405180910390a15050565b60015460ff16156103d15760405162461bcd60e51b815260206004820152601c60248201527f43616e206e6f7420626520696e697469616c697a6564207477696365000000006044820152606401610319565b6001805460ff191681179055600a81111561043f5760405162461bcd60e51b815260206004820152602860248201527f43616e277420736574206d6f7265207468616e203130206f70657261746f7273604482015267206174206f6e636560c01b6064820152608401610319565b60005b60ff811682111561051d5760016002600085858560ff1681811061046857610468610e79565b905060200201602081019061047d9190610992565b6001600160a01b031681526020810191909152604001600020805460ff19169115159190911790557fda12ee837e6978172aaf54b16145ffe08414fd8710092ef033c71b8eb6ec189a838360ff84168181106104db576104db610e79565b90506020020160208101906104f09190610992565b6040516001600160a01b03909116815260200160405180910390a18061051581610e8f565b915050610442565b505050565b60015460609060ff166105695760405162461bcd60e51b815260206004820152600f60248201526e139bdd081a5b9a5d1a585b1a5e9959608a1b6044820152606401610319565b3360008181526002602052604090205460ff166105985760405162461bcd60e51b815260040161031990610e50565b6105a68686866000876106fb565b9695505050505050565b3360008181526002602052604090205460ff166105df5760405162461bcd60e51b815260040161031990610e50565b6001600160a01b038216600081815260026020908152604091829020805460ff1916905590519182527f80c0b871b97b595b16a7741c1b06fed0c6f6f558639f18ccbce50724325dc40d9101610372565b63bc197c8160e01b5b95945050505050565b60015460609060ff166106895760405162461bcd60e51b815260206004820152600f60248201526e139bdd081a5b9a5d1a585b1a5e9959608a1b6044820152606401610319565b3360008181526002602052604090205460ff166106b85760405162461bcd60e51b815260040161031990610e50565b6105a68686868660016106fb565b60006001600160e01b03198216630271189760e51b14806102e457506301ffc9a760e01b6001600160e01b03198316146102e4565b606061070561088d565b6000606060001960ff85160161077d57876001600160a01b0316858888604051610730929190610ebc565b60006040518083038185875af1925050503d806000811461076d576040519150601f19603f3d011682016040523d82523d6000602084013e610772565b606091505b509092509050610818565b60011960ff8516016107de57876001600160a01b031687876040516107a3929190610ebc565b600060405180830381855af49150503d806000811461076d576040519150601f19603f3d011682016040523d82523d6000602084013e610772565b60405162461bcd60e51b815260206004820152600f60248201526e2bb937b7339037b832b930ba34b7b760891b6044820152606401610319565b8161083f57610826816108e6565b60405162461bcd60e51b81526004016103199190610c54565b7f4e2058815a1087a94d8a92ecdce2f91d1370aa8c270ef97b0f28e0a3c6f68a8733898989898660405161087896959493929190610ecc565b60405180910390a19150506106396001600055565b6002600054036108df5760405162461bcd60e51b815260206004820152601f60248201527f5265656e7472616e637947756172643a207265656e7472616e742063616c6c006044820152606401610319565b6002600055565b606060448251101561092b57505060408051808201909152601d81527f5472616e73616374696f6e2072657665727465642073696c656e746c79000000602082015290565b600482019150818060200190518101906102e49190610f35565b60006020828403121561095757600080fd5b81356001600160e01b03198116811461096f57600080fd5b9392505050565b80356001600160a01b038116811461098d57600080fd5b919050565b6000602082840312156109a457600080fd5b61096f82610976565b634e487b7160e01b600052604160045260246000fd5b604051601f8201601f1916810167ffffffffffffffff811182821017156109ec576109ec6109ad565b604052919050565b600067ffffffffffffffff821115610a0e57610a0e6109ad565b50601f01601f191660200190565b600082601f830112610a2d57600080fd5b8135610a40610a3b826109f4565b6109c3565b818152846020838601011115610a5557600080fd5b816020850160208301376000918101602001919091529392505050565b60008060008060808587031215610a8857600080fd5b610a9185610976565b9350610a9f60208601610976565b925060408501359150606085013567ffffffffffffffff811115610ac257600080fd5b610ace87828801610a1c565b91505092959194509250565b60008060208385031215610aed57600080fd5b823567ffffffffffffffff80821115610b0557600080fd5b818501915085601f830112610b1957600080fd5b813581811115610b2857600080fd5b8660208260051b8501011115610b3d57600080fd5b60209290920196919550909350505050565b60008083601f840112610b6157600080fd5b50813567ffffffffffffffff811115610b7957600080fd5b602083019150836020828501011115610b9157600080fd5b9250929050565b60008060008060608587031215610bae57600080fd5b610bb785610976565b9350602085013567ffffffffffffffff811115610bd357600080fd5b610bdf87828801610b4f565b909450925050604085013560ff81168114610bf957600080fd5b939692955090935050565b60005b83811015610c1f578181015183820152602001610c07565b50506000910152565b60008151808452610c40816020860160208601610c04565b601f01601f19169290920160200192915050565b60208152600061096f6020830184610c28565b600082601f830112610c7857600080fd5b8135602067ffffffffffffffff821115610c9457610c946109ad565b8160051b610ca38282016109c3565b9283528481018201928281019087851115610cbd57600080fd5b83870192505b84831015610cdc57823582529183019190830190610cc3565b979650505050505050565b600080600080600060a08688031215610cff57600080fd5b610d0886610976565b9450610d1660208701610976565b9350604086013567ffffffffffffffff80821115610d3357600080fd5b610d3f89838a01610c67565b94506060880135915080821115610d5557600080fd5b610d6189838a01610c67565b93506080880135915080821115610d7757600080fd5b50610d8488828901610a1c565b9150509295509295909350565b600080600080600060a08688031215610da957600080fd5b610db286610976565b9450610dc060208701610976565b93506040860135925060608601359150608086013567ffffffffffffffff811115610dea57600080fd5b610d8488828901610a1c565b60008060008060608587031215610e0c57600080fd5b610e1585610976565b9350602085013567ffffffffffffffff811115610e3157600080fd5b610e3d87828801610b4f565b9598909750949560400135949350505050565b6020808252600f908201526e2737ba1030b71037b832b930ba37b960891b604082015260600190565b634e487b7160e01b600052603260045260246000fd5b600060ff821660ff8103610eb357634e487b7160e01b600052601160045260246000fd5b60010192915050565b8183823760009101908152919050565b6001600160a01b0387811682528616602082015260a06040820181905281018490526000848660c0840137600060c08684010152601f19601f860116820184606084015260c0838203016080840152610f2860c0820185610c28565b9998505050505050505050565b600060208284031215610f4757600080fd5b815167ffffffffffffffff811115610f5e57600080fd5b8201601f81018413610f6f57600080fd5b8051610f7d610a3b826109f4565b818152856020838501011115610f9257600080fd5b610639826020830160208601610c0456fea2646970667358221220e158024e7e3b6cae30aaaeacd543c4a4b4f0d1b3a56c5a31a113dffcb1ffbe7a64736f6c63430008130033",
  "bytecodeSha1": "5473044bfc674bb8ac1e070a83b97b1d357032e8",
  "compiler": {
    "evm_version": "istanbul",
    "optimizer": {
      "enabled": true,
      "runs": 200
    },
    "version": "0.8.19+commit.7dd6d404"
  },
  "contractName": "BlockSafe",
  "language": "Solidity",
  "natspec": {
    "kind": "dev",
    "methods": {
      "onERC721Received(address,address,uint256,bytes)": {
        "details": "See {IERC721Receiver-onERC721Received}. Always returns `IERC721Receiver.onERC721Received.selector`."
      }
    },
    "version": 1
  },
  "opcodes": "PUSH1 0x80 PUSH1 0x40 MSTORE PUSH1 0x4 CALLDATASIZE LT PUSH2 0xC6 JUMPI PUSH1 0x0 CALLDATALOAD PUSH1 0xE0 SHR DUP1 PUSH4 0xA224CEE7 GT PUSH2 0x7F JUMPI DUP1 PUSH4 0xBC197C81 GT PUSH2 0x59 JUMPI DUP1 PUSH4 0xBC197C81 EQ PUSH2 0x24B JUMPI DUP1 PUSH4 0xD3F43C78 EQ PUSH2 0x26B JUMPI DUP1 PUSH4 0xF23A6E61 EQ PUSH2 0x280 JUMPI DUP1 PUSH4 0xFA4BB79D EQ PUSH2 0x2AC JUMPI PUSH1 0x0 DUP1 REVERT JUMPDEST DUP1 PUSH4 0xA224CEE7 EQ PUSH2 0x1DE JUMPI DUP1 PUSH4 0xA22B6E8B EQ PUSH2 0x1FE JUMPI DUP1 PUSH4 0xAC8A584A EQ PUSH2 0x22B JUMPI PUSH1 0x0 DUP1 REVERT JUMPDEST DUP1 PUSH4 0x1FFC9A7 EQ PUSH2 0xD2 JUMPI DUP1 PUSH4 0x13E7C9D8 EQ PUSH2 0x107 JUMPI DUP1 PUSH4 0x150B7A02 EQ PUSH2 0x137 JUMPI DUP1 PUSH4 0x158EF93E EQ PUSH2 0x17B JUMPI DUP1 PUSH4 0x48F33103 EQ PUSH2 0x195 JUMPI DUP1 PUSH4 0x9870D7FE EQ PUSH2 0x1BC JUMPI PUSH1 0x0 DUP1 REVERT JUMPDEST CALLDATASIZE PUSH2 0xCD JUMPI STOP JUMPDEST PUSH1 0x0 DUP1 REVERT JUMPDEST CALLVALUE DUP1 ISZERO PUSH2 0xDE JUMPI PUSH1 0x0 DUP1 REVERT JUMPDEST POP PUSH2 0xF2 PUSH2 0xED CALLDATASIZE PUSH1 0x4 PUSH2 0x945 JUMP JUMPDEST PUSH2 0x2BF JUMP JUMPDEST PUSH1 0x40 MLOAD SWAP1 ISZERO ISZERO DUP2 MSTORE PUSH1 0x20 ADD JUMPDEST PUSH1 0x40 MLOAD DUP1 SWAP2 SUB SWAP1 RETURN JUMPDEST CALLVALUE DUP1 ISZERO PUSH2 0x113 JUMPI PUSH1 0x0 DUP1 REVERT JUMPDEST POP PUSH2 0xF2 PUSH2 0x122 CALLDATASIZE PUSH1 0x4 PUSH2 0x992 JUMP JUMPDEST PUSH1 0x2 PUSH1 0x20 MSTORE PUSH1 0x0 SWAP1 DUP2 MSTORE PUSH1 0x40 SWAP1 KECCAK256 SLOAD PUSH1 0xFF AND DUP2 JUMP JUMPDEST CALLVALUE DUP1 ISZERO PUSH2 0x143 JUMPI PUSH1 0x0 DUP1 REVERT JUMPDEST POP PUSH2 0x162 PUSH2 0x152 CALLDATASIZE PUSH1 0x4 PUSH2 0xA72 JUMP JUMPDEST PUSH4 0xA85BD01 PUSH1 0xE1 SHL SWAP5 SWAP4 POP POP POP POP JUMP JUMPDEST PUSH1 0x40 MLOAD PUSH1 0x1 PUSH1 0x1 PUSH1 0xE0 SHL SUB NOT SWAP1 SWAP2 AND DUP2 MSTORE PUSH1 0x20 ADD PUSH2 0xFE JUMP JUMPDEST CALLVALUE DUP1 ISZERO PUSH2 0x187 JUMPI PUSH1 0x0 DUP1 REVERT JUMPDEST POP PUSH1 0x1 SLOAD PUSH2 0xF2 SWAP1 PUSH1 0xFF AND DUP2 JUMP JUMPDEST CALLVALUE DUP1 ISZERO PUSH2 0x1A1 JUMPI PUSH1 0x0 DUP1 REVERT JUMPDEST POP PUSH2 0x1AA PUSH1 0x2 DUP2 JUMP JUMPDEST PUSH1 0x40 MLOAD PUSH1 0xFF SWAP1 SWAP2 AND DUP2 MSTORE PUSH1 0x20 ADD PUSH2 0xFE JUMP JUMPDEST CALLVALUE DUP1 ISZERO PUSH2 0x1C8 JUMPI PUSH1 0x0 DUP1 REVERT JUMPDEST POP PUSH2 0x1DC PUSH2 0x1D7 CALLDATASIZE PUSH1 0x4 PUSH2 0x992 JUMP JUMPDEST PUSH2 0x2EA JUMP JUMPDEST STOP JUMPDEST CALLVALUE DUP1 ISZERO PUSH2 0x1EA JUMPI PUSH1 0x0 DUP1 REVERT JUMPDEST POP PUSH2 0x1DC PUSH2 0x1F9 CALLDATASIZE PUSH1 0x4 PUSH2 0xADA JUMP JUMPDEST PUSH2 0x37E JUMP JUMPDEST CALLVALUE DUP1 ISZERO PUSH2 0x20A JUMPI PUSH1 0x0 DUP1 REVERT JUMPDEST POP PUSH2 0x21E PUSH2 0x219 CALLDATASIZE PUSH1 0x4 PUSH2 0xB98 JUMP JUMPDEST PUSH2 0x522 JUMP JUMPDEST PUSH1 0x40 MLOAD PUSH2 0xFE SWAP2 SWAP1 PUSH2 0xC54 JUMP JUMPDEST CALLVALUE DUP1 ISZERO PUSH2 0x237 JUMPI PUSH1 0x0 DUP1 REVERT JUMPDEST POP PUSH2 0x1DC PUSH2 0x246 CALLDATASIZE PUSH1 0x4 PUSH2 0x992 JUMP JUMPDEST PUSH2 0x5B0 JUMP JUMPDEST CALLVALUE DUP1 ISZERO PUSH2 0x257 JUMPI PUSH1 0x0 DUP1 REVERT JUMPDEST POP PUSH2 0x162 PUSH2 0x266 CALLDATASIZE PUSH1 0x4 PUSH2 0xCE7 JUMP JUMPDEST PUSH2 0x630 JUMP JUMPDEST CALLVALUE DUP1 ISZERO PUSH2 0x277 JUMPI PUSH1 0x0 DUP1 REVERT JUMPDEST POP PUSH2 0x1AA PUSH1 0x1 DUP2 JUMP JUMPDEST CALLVALUE DUP1 ISZERO PUSH2 0x28C JUMPI PUSH1 0x0 DUP1 REVERT JUMPDEST POP PUSH2 0x162 PUSH2 0x29B CALLDATASIZE PUSH1 0x4 PUSH2 0xD91 JUMP JUMPDEST PUSH4 0xF23A6E61 PUSH1 0xE0 SHL SWAP6 SWAP5 POP POP POP POP POP JUMP JUMPDEST PUSH2 0x21E PUSH2 0x2BA CALLDATASIZE PUSH1 0x4 PUSH2 0xDF6 JUMP JUMPDEST PUSH2 0x642 JUMP JUMPDEST PUSH1 0x0 PUSH1 0x1 PUSH1 0x1 PUSH1 0xE0 SHL SUB NOT DUP3 AND PUSH4 0xCEBE9845 PUSH1 0xE0 SHL EQ DUP1 PUSH2 0x2E4 JUMPI POP PUSH2 0x2E4 DUP3 PUSH2 0x6C6 JUMP JUMPDEST SWAP3 SWAP2 POP POP JUMP JUMPDEST CALLER PUSH1 0x0 DUP2 DUP2 MSTORE PUSH1 0x2 PUSH1 0x20 MSTORE PUSH1 0x40 SWAP1 KECCAK256 SLOAD PUSH1 0xFF AND PUSH2 0x322 JUMPI PUSH1 0x40 MLOAD PUSH3 0x461BCD PUSH1 0xE5 SHL DUP2 MSTORE PUSH1 0x4 ADD PUSH2 0x319 SWAP1 PUSH2 0xE50 JUMP JUMPDEST PUSH1 0x40 MLOAD DUP1 SWAP2 SUB SWAP1 REVERT JUMPDEST PUSH1 0x1 PUSH1 0x1 PUSH1 0xA0 SHL SUB DUP3 AND PUSH1 0x0 DUP2 DUP2 MSTORE PUSH1 0x2 PUSH1 0x20 SWAP1 DUP2 MSTORE PUSH1 0x40 SWAP2 DUP3 SWAP1 KECCAK256 DUP1 SLOAD PUSH1 0xFF NOT AND PUSH1 0x1 OR SWAP1 SSTORE SWAP1 MLOAD SWAP2 DUP3 MSTORE PUSH32 0xDA12EE837E6978172AAF54B16145FFE08414FD8710092EF033C71B8EB6EC189A SWAP2 ADD JUMPDEST PUSH1 0x40 MLOAD DUP1 SWAP2 SUB SWAP1 LOG1 POP POP JUMP JUMPDEST PUSH1 0x1 SLOAD PUSH1 0xFF AND ISZERO PUSH2 0x3D1 JUMPI PUSH1 0x40 MLOAD PUSH3 0x461BCD PUSH1 0xE5 SHL DUP2 MSTORE PUSH1 0x20 PUSH1 0x4 DUP3 ADD MSTORE PUSH1 0x1C PUSH1 0x24 DUP3 ADD MSTORE PUSH32 0x43616E206E6F7420626520696E697469616C697A656420747769636500000000 PUSH1 0x44 DUP3 ADD MSTORE PUSH1 0x64 ADD PUSH2 0x319 JUMP JUMPDEST PUSH1 0x1 DUP1 SLOAD PUSH1 0xFF NOT AND DUP2 OR SWAP1 SSTORE PUSH1 0xA DUP2 GT ISZERO PUSH2 0x43F JUMPI PUSH1 0x40 MLOAD PUSH3 0x461BCD PUSH1 0xE5 SHL DUP2 MSTORE PUSH1 0x20 PUSH1 0x4 DUP3 ADD MSTORE PUSH1 0x28 PUSH1 0x24 DUP3 ADD MSTORE PUSH32 0x43616E277420736574206D6F7265207468616E203130206F70657261746F7273 PUSH1 0x44 DUP3 ADD MSTORE PUSH8 0x206174206F6E6365 PUSH1 0xC0 SHL PUSH1 0x64 DUP3 ADD MSTORE PUSH1 0x84 ADD PUSH2 0x319 JUMP JUMPDEST PUSH1 0x0 JUMPDEST PUSH1 0xFF DUP2 AND DUP3 GT ISZERO PUSH2 0x51D JUMPI PUSH1 0x1 PUSH1 0x2 PUSH1 0x0 DUP6 DUP6 DUP6 PUSH1 0xFF AND DUP2 DUP2 LT PUSH2 0x468 JUMPI PUSH2 0x468 PUSH2 0xE79 JUMP JUMPDEST SWAP1 POP PUSH1 0x20 MUL ADD PUSH1 0x20 DUP2 ADD SWAP1 PUSH2 0x47D SWAP2 SWAP1 PUSH2 0x992 JUMP JUMPDEST PUSH1 0x1 PUSH1 0x1 PUSH1 0xA0 SHL SUB AND DUP2 MSTORE PUSH1 0x20 DUP2 ADD SWAP2 SWAP1 SWAP2 MSTORE PUSH1 0x40 ADD PUSH1 0x0 KECCAK256 DUP1 SLOAD PUSH1 0xFF NOT AND SWAP2 ISZERO ISZERO SWAP2 SWAP1 SWAP2 OR SWAP1 SSTORE PUSH32 0xDA12EE837E6978172AAF54B16145FFE08414FD8710092EF033C71B8EB6EC189A DUP4 DUP4 PUSH1 0xFF DUP5 AND DUP2 DUP2 LT PUSH2 0x4DB JUMPI PUSH2 0x4DB PUSH2 0xE79 JUMP JUMPDEST SWAP1 POP PUSH1 0x20 MUL ADD PUSH1 0x20 DUP2 ADD SWAP1 PUSH2 0x4F0 SWAP2 SWAP1 PUSH2 0x992 JUMP JUMPDEST PUSH1 0x40 MLOAD PUSH1 0x1 PUSH1 0x1 PUSH1 0xA0 SHL SUB SWAP1 SWAP2 AND DUP2 MSTORE PUSH1 0x20 ADD PUSH1 0x40 MLOAD DUP1 SWAP2 SUB SWAP1 LOG1 DUP1 PUSH2 0x515 DUP2 PUSH2 0xE8F JUMP JUMPDEST SWAP2 POP POP PUSH2 0x442 JUMP JUMPDEST POP POP POP JUMP JUMPDEST PUSH1 0x1 SLOAD PUSH1 0x60 SWAP1 PUSH1 0xFF AND PUSH2 0x569 JUMPI PUSH1 0x40 MLOAD PUSH3 0x461BCD PUSH1 0xE5 SHL DUP2 MSTORE PUSH1 0x20 PUSH1 0x4 DUP3 ADD MSTORE PUSH1 0xF PUSH1 0x24 DUP3 ADD MSTORE PUSH15 0x139BDD081A5B9A5D1A585B1A5E9959 PUSH1 0x8A SHL PUSH1 0x44 DUP3 ADD MSTORE PUSH1 0x64 ADD PUSH2 0x319 JUMP JUMPDEST CALLER PUSH1 0x0 DUP2 DUP2 MSTORE PUSH1 0x2 PUSH1 0x20 MSTORE PUSH1 0x40 SWAP1 KECCAK256 SLOAD PUSH1 0xFF AND PUSH2 0x598 JUMPI PUSH1 0x40 MLOAD PUSH3 0x461BCD PUSH1 0xE5 SHL DUP2 MSTORE PUSH1 0x4 ADD PUSH2 0x319 SWAP1 PUSH2 0xE50 JUMP JUMPDEST PUSH2 0x5A6 DUP7 DUP7 DUP7 PUSH1 0x0 DUP8 PUSH2 0x6FB JUMP JUMPDEST SWAP7 SWAP6 POP POP POP POP POP POP JUMP JUMPDEST CALLER PUSH1 0x0 DUP2 DUP2 MSTORE PUSH1 0x2 PUSH1 0x20 MSTORE PUSH1 0x40 SWAP1 KECCAK256 SLOAD PUSH1 0xFF AND PUSH2 0x5DF JUMPI PUSH1 0x40 MLOAD PUSH3 0x461BCD PUSH1 0xE5 SHL DUP2 MSTORE PUSH1 0x4 ADD PUSH2 0x319 SWAP1 PUSH2 0xE50 JUMP JUMPDEST PUSH1 0x1 PUSH1 0x1 PUSH1 0xA0 SHL SUB DUP3 AND PUSH1 0x0 DUP2 DUP2 MSTORE PUSH1 0x2 PUSH1 0x20 SWAP1 DUP2 MSTORE PUSH1 0x40 SWAP2 DUP3 SWAP1 KECCAK256 DUP1 SLOAD PUSH1 0xFF NOT AND SWAP1 SSTORE SWAP1 MLOAD SWAP2 DUP3 MSTORE PUSH32 0x80C0B871B97B595B16A7741C1B06FED0C6F6F558639F18CCBCE50724325DC40D SWAP2 ADD PUSH2 0x372 JUMP JUMPDEST PUSH4 0xBC197C81 PUSH1 0xE0 SHL JUMPDEST SWAP6 SWAP5 POP POP POP POP POP JUMP JUMPDEST PUSH1 0x1 SLOAD PUSH1 0x60 SWAP1 PUSH1 0xFF AND PUSH2 0x689 JUMPI PUSH1 0x40 MLOAD PUSH3 0x461BCD PUSH1 0xE5 SHL DUP2 MSTORE PUSH1 0x20 PUSH1 0x4 DUP3 ADD MSTORE PUSH1 0xF PUSH1 0x24 DUP3 ADD MSTORE PUSH15 0x139BDD081A5B9A5D1A585B1A5E9959 PUSH1 0x8A SHL PUSH1 0x44 DUP3 ADD MSTORE PUSH1 0x64 ADD PUSH2 0x319 JUMP JUMPDEST CALLER PUSH1 0x0 DUP2 DUP2 MSTORE PUSH1 0x2 PUSH1 0x20 MSTORE PUSH1 0x40 SWAP1 KECCAK256 SLOAD PUSH1 0xFF AND PUSH2 0x6B8 JUMPI PUSH1 0x40 MLOAD PUSH3 0x461BCD PUSH1 0xE5 SHL DUP2 MSTORE PUSH1 0x4 ADD PUSH2 0x319 SWAP1 PUSH2 0xE50 JUMP JUMPDEST PUSH2 0x5A6 DUP7 DUP7 DUP7 DUP7 PUSH1 0x1 PUSH2 0x6FB JUMP JUMPDEST PUSH1 0x0 PUSH1 0x1 PUSH1 0x1 PUSH1 0xE0 SHL SUB NOT DUP3 AND PUSH4 0x2711897 PUSH1 0xE5 SHL EQ DUP1 PUSH2 0x2E4 JUMPI POP PUSH4 0x1FFC9A7 PUSH1 0xE0 SHL PUSH1 0x1 PUSH1 0x1 PUSH1 0xE0 SHL SUB NOT DUP4 AND EQ PUSH2 0x2E4 JUMP JUMPDEST PUSH1 0x60 PUSH2 0x705 PUSH2 0x88D JUMP JUMPDEST PUSH1 0x0 PUSH1 0x60 PUSH1 0x0 NOT PUSH1 0xFF DUP6 AND ADD PUSH2 0x77D JUMPI DUP8 PUSH1 0x1 PUSH1 0x1 PUSH1 0xA0 SHL SUB AND DUP6 DUP9 DUP9 PUSH1 0x40 MLOAD PUSH2 0x730 SWAP3 SWAP2 SWAP1 PUSH2 0xEBC JUMP JUMPDEST PUSH1 0x0 PUSH1 0x40 MLOAD DUP1 DUP4 SUB DUP2 DUP6 DUP8 GAS CALL SWAP3 POP POP POP RETURNDATASIZE DUP1 PUSH1 0x0 DUP2 EQ PUSH2 0x76D JUMPI PUSH1 0x40 MLOAD SWAP2 POP PUSH1 0x1F NOT PUSH1 0x3F RETURNDATASIZE ADD AND DUP3 ADD PUSH1 0x40 MSTORE RETURNDATASIZE DUP3 MSTORE RETURNDATASIZE PUSH1 0x0 PUSH1 0x20 DUP5 ADD RETURNDATACOPY PUSH2 0x772 JUMP JUMPDEST PUSH1 0x60 SWAP2 POP JUMPDEST POP SWAP1 SWAP3 POP SWAP1 POP PUSH2 0x818 JUMP JUMPDEST PUSH1 0x1 NOT PUSH1 0xFF DUP6 AND ADD PUSH2 0x7DE JUMPI DUP8 PUSH1 0x1 PUSH1 0x1 PUSH1 0xA0 SHL SUB AND DUP8 DUP8 PUSH1 0x40 MLOAD PUSH2 0x7A3 SWAP3 SWAP2 SWAP1 PUSH2 0xEBC JUMP JUMPDEST PUSH1 0x0 PUSH1 0x40 MLOAD DUP1 DUP4 SUB DUP2 DUP6 GAS DELEGATECALL SWAP2 POP POP RETURNDATASIZE DUP1 PUSH1 0x0 DUP2 EQ PUSH2 0x76D JUMPI PUSH1 0x40 MLOAD SWAP2 POP PUSH1 0x1F NOT PUSH1 0x3F RETURNDATASIZE ADD AND DUP3 ADD PUSH1 0x40 MSTORE RETURNDATASIZE DUP3 MSTORE RETURNDATASIZE PUSH1 0x0 PUSH1 0x20 DUP5 ADD RETURNDATACOPY PUSH2 0x772 JUMP JUMPDEST PUSH1 0x40 MLOAD PUSH3 0x461BCD PUSH1 0xE5 SHL DUP2 MSTORE PUSH1 0x20 PUSH1 0x4 DUP3 ADD MSTORE PUSH1 0xF PUSH1 0x24 DUP3 ADD MSTORE PUSH15 0x2BB937B7339037B832B930BA34B7B7 PUSH1 0x89 SHL PUSH1 0x44 DUP3 ADD MSTORE PUSH1 0x64 ADD PUSH2 0x319 JUMP JUMPDEST DUP2 PUSH2 0x83F JUMPI PUSH2 0x826 DUP2 PUSH2 0x8E6 JUMP JUMPDEST PUSH1 0x40 MLOAD PUSH3 0x461BCD PUSH1 0xE5 SHL DUP2 MSTORE PUSH1 0x4 ADD PUSH2 0x319 SWAP2 SWAP1 PUSH2 0xC54 JUMP JUMPDEST PUSH32 0x4E2058815A1087A94D8A92ECDCE2F91D1370AA8C270EF97B0F28E0A3C6F68A87 CALLER DUP10 DUP10 DUP10 DUP10 DUP7 PUSH1 0x40 MLOAD PUSH2 0x878 SWAP7 SWAP6 SWAP5 SWAP4 SWAP3 SWAP2 SWAP1 PUSH2 0xECC JUMP JUMPDEST PUSH1 0x40 MLOAD DUP1 SWAP2 SUB SWAP1 LOG1 SWAP2 POP POP PUSH2 0x639 PUSH1 0x1 PUSH1 0x0 SSTORE JUMP JUMPDEST PUSH1 0x2 PUSH1 0x0 SLOAD SUB PUSH2 0x8DF JUMPI PUSH1 0x40 MLOAD PUSH3 0x461BCD PUSH1 0xE5 SHL DUP2 MSTORE PUSH1 0x20 PUSH1 0x4 DUP3 ADD MSTORE PUSH1 0x1F PUSH1 0x24 DUP3 ADD MSTORE PUSH32 0x5265656E7472616E637947756172643A207265656E7472616E742063616C6C00 PUSH1 0x44 DUP3 ADD MSTORE PUSH1 0x64 ADD PUSH2 0x319 JUMP JUMPDEST PUSH1 0x2 PUSH1 0x0 SSTORE JUMP JUMPDEST PUSH1 0x60 PUSH1 0x44 DUP3 MLOAD LT ISZERO PUSH2 0x92B JUMPI POP POP PUSH1 0x40 DUP1 MLOAD DUP1 DUP3 ADD SWAP1 SWAP2 MSTORE PUSH1 0x1D DUP2 MSTORE PUSH32 0x5472616E73616374696F6E2072657665727465642073696C656E746C79000000 PUSH1 0x20 DUP3 ADD MSTORE SWAP1 JUMP JUMPDEST PUSH1 0x4 DUP3 ADD SWAP2 POP DUP2 DUP1 PUSH1 0x20 ADD SWAP1 MLOAD DUP2 ADD SWAP1 PUSH2 0x2E4 SWAP2 SWAP1 PUSH2 0xF35 JUMP JUMPDEST PUSH1 0x0 PUSH1 0x20 DUP3 DUP5 SUB SLT ISZERO PUSH2 0x957 JUMPI PUSH1 0x0 DUP1 REVERT JUMPDEST DUP2 CALLDATALOAD PUSH1 0x1 PUSH1 0x1 PUSH1 0xE0 SHL SUB NOT DUP2 AND DUP2 EQ PUSH2 0x96F JUMPI PUSH1 0x0 DUP1 REVERT JUMPDEST SWAP4 SWAP3 POP POP POP JUMP JUMPDEST DUP1 CALLDATALOAD PUSH1 0x1 PUSH1 0x1 PUSH1 0xA0 SHL SUB DUP2 AND DUP2 EQ PUSH2 0x98D JUMPI PUSH1 0x0 DUP1 REVERT JUMPDEST SWAP2 SWAP1 POP JUMP JUMPDEST PUSH1 0x0 PUSH1 0x20 DUP3 DUP5 SUB SLT ISZERO PUSH2 0x9A4 JUMPI PUSH1 0x0 DUP1 REVERT JUMPDEST PUSH2 0x96F DUP3 PUSH2 0x976 JUMP JUMPDEST PUSH4 0x4E487B71 PUSH1 0xE0 SHL PUSH1 0x0 MSTORE PUSH1 0x41 PUSH1 0x4 MSTORE PUSH1 0x24 PUSH1 0x0 REVERT JUMPDEST PUSH1 0x40 MLOAD PUSH1 0x1F DUP3 ADD PUSH1 0x1F NOT AND DUP2 ADD PUSH8 0xFFFFFFFFFFFFFFFF DUP2 GT DUP3 DUP3 LT OR ISZERO PUSH2 0x9EC JUMPI PUSH2 0x9EC PUSH2 0x9AD JUMP JUMPDEST PUSH1 0x40 MSTORE SWAP2 SWAP1 POP JUMP JUMPDEST PUSH1 0x0 PUSH8 0xFFFFFFFFFFFFFFFF DUP3 GT ISZERO PUSH2 0xA0E JUMPI PUSH2 0xA0E PUSH2 0x9AD JUMP JUMPDEST POP PUSH1 0x1F ADD PUSH1 0x1F NOT AND PUSH1 0x20 ADD SWAP1 JUMP JUMPDEST PUSH1 0x0 DUP3 PUSH1 0x1F DUP4 ADD SLT PUSH2 0xA2D JUMPI PUSH1 0x0 DUP1 REVERT JUMPDEST DUP2 CALLDATALOAD PUSH2 0xA40 PUSH2 0xA3B DUP3 PUSH2 0x9F4 JUMP JUMPDEST PUSH2 0x9C3 JUMP JUMPDEST DUP2 DUP2 MSTORE DUP5 PUSH1 0x20 DUP4 DUP7 ADD ADD GT ISZERO PUSH2 0xA55 JUMPI PUSH1 0x0 DUP1 REVERT JUMPDEST DUP2 PUSH1 0x20 DUP6 ADD PUSH1 0x20 DUP4 ADD CALLDATACOPY PUSH1 0x0 SWAP2 DUP2 ADD PUSH1 0x20 ADD SWAP2 SWAP1 SWAP2 MSTORE SWAP4 SWAP3 POP POP POP JUMP JUMPDEST PUSH1 0x0 DUP1 PUSH1 0x0 DUP1 PUSH1 0x80 DUP6 DUP8 SUB SLT ISZERO PUSH2 0xA88 JUMPI PUSH1 0x0 DUP1 REVERT JUMPDEST PUSH2 0xA91 DUP6 PUSH2 0x976 JUMP JUMPDEST SWAP4 POP PUSH2 0xA9F PUSH1 0x20 DUP7 ADD PUSH2 0x976 JUMP JUMPDEST SWAP3 POP PUSH1 0x40 DUP6 ADD CALLDATALOAD SWAP2 POP PUSH1 0x60 DUP6 ADD CALLDATALOAD PUSH8 0xFFFFFFFFFFFFFFFF DUP2 GT ISZERO PUSH2 0xAC2 JUMPI PUSH1 0x0 DUP1 REVERT JUMPDEST PUSH2 0xACE DUP8 DUP3 DUP9 ADD PUSH2 0xA1C JUMP JUMPDEST SWAP2 POP POP SWAP3 SWAP6 SWAP2 SWAP5 POP SWAP3 POP JUMP JUMPDEST PUSH1 0x0 DUP1 PUSH1 0x20 DUP4 DUP6 SUB SLT ISZERO PUSH2 0xAED JUMPI PUSH1 0x0 DUP1 REVERT JUMPDEST DUP3 CALLDATALOAD PUSH8 0xFFFFFFFFFFFFFFFF DUP1 DUP3 GT ISZERO PUSH2 0xB05 JUMPI PUSH1 0x0 DUP1 REVERT JUMPDEST DUP2 DUP6 ADD SWAP2 POP DUP6 PUSH1 0x1F DUP4 ADD SLT PUSH2 0xB19 JUMPI PUSH1 0x0 DUP1 REVERT JUMPDEST DUP2 CALLDATALOAD DUP2 DUP2 GT ISZERO PUSH2 0xB28 JUMPI PUSH1 0x0 DUP1 REVERT JUMPDEST DUP7 PUSH1 0x20 DUP3 PUSH1 0x5 SHL DUP6 ADD ADD GT ISZERO PUSH2 0xB3D JUMPI PUSH1 0x0 DUP1 REVERT JUMPDEST PUSH1 0x20 SWAP3 SWAP1 SWAP3 ADD SWAP7 SWAP2 SWAP6 POP SWAP1 SWAP4 POP POP POP POP JUMP JUMPDEST PUSH1 0x0 DUP1 DUP4 PUSH1 0x1F DUP5 ADD SLT PUSH2 0xB61 JUMPI PUSH1 0x0 DUP1 REVERT JUMPDEST POP DUP2 CALLDATALOAD PUSH8 0xFFFFFFFFFFFFFFFF DUP2 GT ISZERO PUSH2 0xB79 JUMPI PUSH1 0x0 DUP1 REVERT JUMPDEST PUSH1 0x20 DUP4 ADD SWAP2 POP DUP4 PUSH1 0x20 DUP3 DUP6 ADD ADD GT ISZERO PUSH2 0xB91 JUMPI PUSH1 0x0 DUP1 REVERT JUMPDEST SWAP3 POP SWAP3 SWAP1 POP JUMP JUMPDEST PUSH1 0x0 DUP1 PUSH1 0x0 DUP1 PUSH1 0x60 DUP6 DUP8 SUB SLT ISZERO PUSH2 0xBAE JUMPI PUSH1 0x0 DUP1 REVERT JUMPDEST PUSH2 0xBB7 DUP6 PUSH2 0x976 JUMP JUMPDEST SWAP4 POP PUSH1 0x20 DUP6 ADD CALLDATALOAD PUSH8 0xFFFFFFFFFFFFFFFF DUP2 GT ISZERO PUSH2 0xBD3 JUMPI PUSH1 0x0 DUP1 REVERT JUMPDEST PUSH2 0xBDF DUP8 DUP3 DUP9 ADD PUSH2 0xB4F JUMP JUMPDEST SWAP1 SWAP5 POP SWAP3 POP POP PUSH1 0x40 DUP6 ADD CALLDATALOAD PUSH1 0xFF DUP2 AND DUP2 EQ PUSH2 0xBF9 JUMPI PUSH1 0x0 DUP1 REVERT JUMPDEST SWAP4 SWAP7 SWAP3 SWAP6 POP SWAP1 SWAP4 POP POP JUMP JUMPDEST PUSH1 0x0 JUMPDEST DUP4 DUP2 LT ISZERO PUSH2 0xC1F JUMPI DUP2 DUP2 ADD MLOAD DUP4 DUP3 ADD MSTORE PUSH1 0x20 ADD PUSH2 0xC07 JUMP JUMPDEST POP POP PUSH1 0x0 SWAP2 ADD MSTORE JUMP JUMPDEST PUSH1 0x0 DUP2 MLOAD DUP1 DUP5 MSTORE PUSH2 0xC40 DUP2 PUSH1 0x20 DUP7 ADD PUSH1 0x20 DUP7 ADD PUSH2 0xC04 JUMP JUMPDEST PUSH1 0x1F ADD PUSH1 0x1F NOT AND SWAP3 SWAP1 SWAP3 ADD PUSH1 0x20 ADD SWAP3 SWAP2 POP POP JUMP JUMPDEST PUSH1 0x20 DUP2 MSTORE PUSH1 0x0 PUSH2 0x96F PUSH1 0x20 DUP4 ADD DUP5 PUSH2 0xC28 JUMP JUMPDEST PUSH1 0x0 DUP3 PUSH1 0x1F DUP4 ADD SLT PUSH2 0xC78 JUMPI PUSH1 0x0 DUP1 REVERT JUMPDEST DUP2 CALLDATALOAD PUSH1 0x20 PUSH8 0xFFFFFFFFFFFFFFFF DUP3 GT ISZERO PUSH2 0xC94 JUMPI PUSH2 0xC94 PUSH2 0x9AD JUMP JUMPDEST DUP2 PUSH1 0x5 SHL PUSH2 0xCA3 DUP3 DUP3 ADD PUSH2 0x9C3 JUMP JUMPDEST SWAP3 DUP4 MSTORE DUP5 DUP2 ADD DUP3 ADD SWAP3 DUP3 DUP2 ADD SWAP1 DUP8 DUP6 GT ISZERO PUSH2 0xCBD JUMPI PUSH1 0x0 DUP1 REVERT JUMPDEST DUP4 DUP8 ADD SWAP3 POP JUMPDEST DUP5 DUP4 LT ISZERO PUSH2 0xCDC JUMPI DUP3 CALLDATALOAD DUP3 MSTORE SWAP2 DUP4 ADD SWAP2 SWAP1 DUP4 ADD SWAP1 PUSH2 0xCC3 JUMP JUMPDEST SWAP8 SWAP7 POP POP POP POP POP POP POP JUMP JUMPDEST PUSH1 0x0 DUP1 PUSH1 0x0 DUP1 PUSH1 0x0 PUSH1 0xA0 DUP7 DUP9 SUB SLT ISZERO PUSH2 0xCFF JUMPI PUSH1 0x0 DUP1 REVERT JUMPDEST PUSH2 0xD08 DUP7 PUSH2 0x976 JUMP JUMPDEST SWAP5 POP PUSH2 0xD16 PUSH1 0x20 DUP8 ADD PUSH2 0x976 JUMP JUMPDEST SWAP4 POP PUSH1 0x40 DUP7 ADD CALLDATALOAD PUSH8 0xFFFFFFFFFFFFFFFF DUP1 DUP3 GT ISZERO PUSH2 0xD33 JUMPI PUSH1 0x0 DUP1 REVERT JUMPDEST PUSH2 0xD3F DUP10 DUP4 DUP11 ADD PUSH2 0xC67 JUMP JUMPDEST SWAP5 POP PUSH1 0x60 DUP9 ADD CALLDATALOAD SWAP2 POP DUP1 DUP3 GT ISZERO PUSH2 0xD55 JUMPI PUSH1 0x0 DUP1 REVERT JUMPDEST PUSH2 0xD61 DUP10 DUP4 DUP11 ADD PUSH2 0xC67 JUMP JUMPDEST SWAP4 POP PUSH1 0x80 DUP9 ADD CALLDATALOAD SWAP2 POP DUP1 DUP3 GT ISZERO PUSH2 0xD77 JUMPI PUSH1 0x0 DUP1 REVERT JUMPDEST POP PUSH2 0xD84 DUP9 DUP3 DUP10 ADD PUSH2 0xA1C JUMP JUMPDEST SWAP2 POP POP SWAP3 SWAP6 POP SWAP3 SWAP6 SWAP1 SWAP4 POP JUMP JUMPDEST PUSH1 0x0 DUP1 PUSH1 0x0 DUP1 PUSH1 0x0 PUSH1 0xA0 DUP7 DUP9 SUB SLT ISZERO PUSH2 0xDA9 JUMPI PUSH1 0x0 DUP1 REVERT JUMPDEST PUSH2 0xDB2 DUP7 PUSH2 0x976 JUMP JUMPDEST SWAP5 POP PUSH2 0xDC0 PUSH1 0x20 DUP8 ADD PUSH2 0x976 JUMP JUMPDEST SWAP4 POP PUSH1 0x40 DUP7 ADD CALLDATALOAD SWAP3 POP PUSH1 0x60 DUP7 ADD CALLDATALOAD SWAP2 POP PUSH1 0x80 DUP7 ADD CALLDATALOAD PUSH8 0xFFFFFFFFFFFFFFFF DUP2 GT ISZERO PUSH2 0xDEA JUMPI PUSH1 0x0 DUP1 REVERT JUMPDEST PUSH2 0xD84 DUP9 DUP3 DUP10 ADD PUSH2 0xA1C JUMP JUMPDEST PUSH1 0x0 DUP1 PUSH1 0x0 DUP1 PUSH1 0x60 DUP6 DUP8 SUB SLT ISZERO PUSH2 0xE0C JUMPI PUSH1 0x0 DUP1 REVERT JUMPDEST PUSH2 0xE15 DUP6 PUSH2 0x976 JUMP JUMPDEST SWAP4 POP PUSH1 0x20 DUP6 ADD CALLDATALOAD PUSH8 0xFFFFFFFFFFFFFFFF DUP2 GT ISZERO PUSH2 0xE31 JUMPI PUSH1 0x0 DUP1 REVERT JUMPDEST PUSH2 0xE3D DUP8 DUP3 DUP9 ADD PUSH2 0xB4F JUMP JUMPDEST SWAP6 SWAP9 SWAP1 SWAP8 POP SWAP5 SWAP6 PUSH1 0x40 ADD CALLDATALOAD SWAP5 SWAP4 POP POP POP POP JUMP JUMPDEST PUSH1 0x20 DUP1 DUP3 MSTORE PUSH1 0xF SWAP1 DUP3 ADD MSTORE PUSH15 0x2737BA1030B71037B832B930BA37B9 PUSH1 0x89 SHL PUSH1 0x40 DUP3 ADD MSTORE PUSH1 0x60 ADD SWAP1 JUMP JUMPDEST PUSH4 0x4E487B71 PUSH1 0xE0 SHL PUSH1 0x0 MSTORE PUSH1 0x32 PUSH1 0x4 MSTORE PUSH1 0x24 PUSH1 0x0 REVERT JUMPDEST PUSH1 0x0 PUSH1 0xFF DUP3 AND PUSH1 0xFF DUP2 SUB PUSH2 0xEB3 JUMPI PUSH4 0x4E487B71 PUSH1 0xE0 SHL PUSH1 0x0 MSTORE PUSH1 0x11 PUSH1 0x4 MSTORE PUSH1 0x24 PUSH1 0x0 REVERT JUMPDEST PUSH1 0x1 ADD SWAP3 SWAP2 POP POP JUMP JUMPDEST DUP2 DUP4 DUP3 CALLDATACOPY PUSH1 0x0 SWAP2 ADD SWAP1 DUP2 MSTORE SWAP2 SWAP1 POP JUMP JUMPDEST PUSH1 0x1 PUSH1 0x1 PUSH1 0xA0 SHL SUB DUP8 DUP2 AND DUP3 MSTORE DUP7 AND PUSH1 0x20 DUP3 ADD MSTORE PUSH1 0xA0 PUSH1 0x40 DUP3 ADD DUP2 SWAP1 MSTORE DUP2 ADD DUP5 SWAP1 MSTORE PUSH1 0x0 DUP5 DUP7 PUSH1 0xC0 DUP5 ADD CALLDATACOPY PUSH1 0x0 PUSH1 0xC0 DUP7 DUP5 ADD ADD MSTORE PUSH1 0x1F NOT PUSH1 0x1F DUP7 ADD AND DUP3 ADD DUP5 PUSH1 0x60 DUP5 ADD MSTORE PUSH1 0xC0 DUP4 DUP3 SUB ADD PUSH1 0x80 DUP5 ADD MSTORE PUSH2 0xF28 PUSH1 0xC0 DUP3 ADD DUP6 PUSH2 0xC28 JUMP JUMPDEST SWAP10 SWAP9 POP POP POP POP POP POP POP POP POP JUMP JUMPDEST PUSH1 0x0 PUSH1 0x20 DUP3 DUP5 SUB SLT ISZERO PUSH2 0xF47 JUMPI PUSH1 0x0 DUP1 REVERT JUMPDEST DUP2 MLOAD PUSH8 0xFFFFFFFFFFFFFFFF DUP2 GT ISZERO PUSH2 0xF5E JUMPI PUSH1 0x0 DUP1 REVERT JUMPDEST DUP3 ADD PUSH1 0x1F DUP2 ADD DUP5 SGT PUSH2 0xF6F JUMPI PUSH1 0x0 DUP1 REVERT JUMPDEST DUP1 MLOAD PUSH2 0xF7D PUSH2 0xA3B DUP3 PUSH2 0x9F4 JUMP JUMPDEST DUP2 DUP2 MSTORE DUP6 PUSH1 0x20 DUP4 DUP6 ADD ADD GT ISZERO PUSH2 0xF92 JUMPI PUSH1 0x0 DUP1 REVERT JUMPDEST PUSH2 0x639 DUP3 PUSH1 0x20 DUP4 ADD PUSH1 0x20 DUP7 ADD PUSH2 0xC04 JUMP INVALID LOG2 PUSH5 0x6970667358 0x22 SLT KECCAK256 0xE1 PC MUL 0x4E PUSH31 0x3B6CAE30AAAEACD543C4A4B4F0D1B3A56C5A31A113DFFCB1FFBE7A64736F6C PUSH4 0x43000813 STOP CALLER ",
  "sha1": "f73ef5e8d51bf5e6afc950d1f19a7fe6bda58d61",
  "source": "// SCH Course Copyright Policy (C): DO-NOT-SHARE-WITH-ANYONE\n// https://smartcontractshacking.com/#copyright-policy\npragma solidity ^0.8.13;\n\nimport \"@openzeppelin/contracts/security/ReentrancyGuard.sol\";\nimport \"@openzeppelin/contracts/utils/introspection/ERC165.sol\";\nimport \"@openzeppelin/contracts/token/ERC721/utils/ERC721Holder.sol\";\nimport \"@openzeppelin/contracts/token/ERC1155/utils/ERC1155Holder.sol\";\nimport \"./IBlockSafe.sol\";\n\nlibrary CallHelpers2 {\n    function getRevertMsg(\n        bytes memory _returnData\n    ) internal pure returns (string memory) {\n        if (_returnData.length < 68) return \"Transaction reverted silently\";\n\n        assembly {\n            _returnData := add(_returnData, 0x04)\n        }\n        return abi.decode(_returnData, (string));\n    }\n}\n\ncontract BlockSafe is\n    IBlockSafe,\n    ERC165,\n    ERC721Holder,\n    ERC1155Holder,\n    ReentrancyGuard\n{\n    using CallHelpers2 for bytes;\n\n    uint8 constant public CALL_OPERATION = 1;\n    uint8 constant public DELEGATECALL_OPERATION = 2;\n\n    event Executed(\n        address caller,\n        address destAddress,\n        bytes encodedCalldata,\n        uint256 value,\n        bytes result\n    );\n    event NewOperator(address operator);\n    event OperatorRemoved(address operator);\n\n    bool public initialized = false;\n    mapping(address => bool) public operators;\n\n    modifier isInitialized() {\n        require(initialized, \"Not initialized\");\n        _;\n    }\n\n    modifier onlyOperator(address _account) {\n        require(operators[_account], \"Not an operator\");\n        _;\n    }\n\n    function initialize(address[] calldata _operators) external {\n\n        require(!initialized, \"Can not be initialized twice\");\n        \n        initialized = true;\n\n        require(\n            _operators.length <= 10,\n            \"Can't set more than 10 operators at once\"\n        );\n\n        for (uint8 i = 0; i < _operators.length; i++) {\n            operators[_operators[i]] = true;\n            emit NewOperator(_operators[i]);\n        }\n    }\n\n    function execute(\n        address _destAddress,\n        bytes calldata _encodedCalldata,\n        uint8 operation\n    ) \n        external isInitialized onlyOperator(msg.sender) returns (bytes memory) {\n        return _execute(_destAddress, _encodedCalldata, 0, operation);\n    }\n\n    function executeWithValue(\n        address _destAddress,\n        bytes calldata _encodedCalldata,\n        uint256 _value\n    )\n        external payable isInitialized onlyOperator(msg.sender) returns (bytes memory)\n    {\n        return _execute(_destAddress, _encodedCalldata, _value, CALL_OPERATION);\n    }\n\n    function _execute(\n        address _destAddress,\n        bytes calldata _encodedCalldata,\n        uint256 _value,\n        uint8 operation\n    ) private nonReentrant returns (bytes memory) {\n\n        bool success;\n        bytes memory result;\n\n        if(operation == CALL_OPERATION) {\n            (success, result) = _destAddress.call{value: _value}(\n                _encodedCalldata\n            );\n        } else if (operation == DELEGATECALL_OPERATION) {\n            (success, result) = _destAddress.delegatecall(_encodedCalldata);\n        } else {\n            revert(\"Wrong operation\");\n        }\n\n        if (!success) {\n            revert(result.getRevertMsg());\n        }\n\n        emit Executed(\n            msg.sender,\n            _destAddress,\n            _encodedCalldata,\n            _value,\n            result\n        );\n\n        return result;\n    }\n\n    function addOperator(address _address) external onlyOperator(msg.sender) {\n        operators[_address] = true;\n        emit NewOperator(_address);\n    }\n\n    function removeOperator(address _address) external onlyOperator(msg.sender) {\n        operators[_address] = false;\n        emit OperatorRemoved(_address);\n    }\n\n    function supportsInterface(bytes4 interfaceId)\n        public\n        view\n        virtual\n        override(ERC165, ERC1155Receiver)\n        returns (bool)\n    {\n        return\n            interfaceId == type(IBlockSafe).interfaceId ||\n            super.supportsInterface(interfaceId);\n    }\n    receive() external payable {}\n}\n",
  "sourcePath": "contracts/call-attacks-4/BlockSafe.sol",
  "type": "contract"
}