{
  "abi": [
    {
      "inputs": [
        {
          "internalType": "uint256",
          "name": "_initialMint",
          "type": "uint256"
        }
      ],
      "stateMutability": "nonpayable",
      "type": "constructor"
    },
    {
      "anonymous": false,
      "inputs": [
        {
          "indexed": true,
          "internalType": "address",
          "name": "owner",
          "type": "address"
        },
        {
          "indexed": true,
          "internalType": "address",
          "name": "spender",
          "type": "address"
        },
        {
          "indexed": false,
          "internalType": "uint256",
          "name": "value",
          "type": "uint256"
        }
      ],
      "name": "Approval",
      "type": "event"
    },
    {
      "anonymous": false,
      "inputs": [
        {
          "indexed": true,
          "internalType": "address",
          "name": "previousOwner",
          "type": "address"
        },
        {
          "indexed": true,
          "internalType": "address",
          "name": "newOwner",
          "type": "address"
        }
      ],
      "name": "OwnershipTransferred",
      "type": "event"
    },
    {
      "anonymous": false,
      "inputs": [
        {
          "indexed": true,
          "internalType": "address",
          "name": "from",
          "type": "address"
        },
        {
          "indexed": true,
          "internalType": "address",
          "name": "to",
          "type": "address"
        },
        {
          "indexed": false,
          "internalType": "uint256",
          "name": "value",
          "type": "uint256"
        }
      ],
      "name": "Transfer",
      "type": "event"
    },
    {
      "inputs": [
        {
          "internalType": "uint256",
          "name": "_tokenAmount",
          "type": "uint256"
        }
      ],
      "name": "addChocolateLiquidity",
      "outputs": [],
      "stateMutability": "payable",
      "type": "function"
    },
    {
      "inputs": [
        {
          "internalType": "address",
          "name": "owner",
          "type": "address"
        },
        {
          "internalType": "address",
          "name": "spender",
          "type": "address"
        }
      ],
      "name": "allowance",
      "outputs": [
        {
          "internalType": "uint256",
          "name": "",
          "type": "uint256"
        }
      ],
      "stateMutability": "view",
      "type": "function"
    },
    {
      "inputs": [
        {
          "internalType": "address",
          "name": "spender",
          "type": "address"
        },
        {
          "internalType": "uint256",
          "name": "amount",
          "type": "uint256"
        }
      ],
      "name": "approve",
      "outputs": [
        {
          "internalType": "bool",
          "name": "",
          "type": "bool"
        }
      ],
      "stateMutability": "nonpayable",
      "type": "function"
    },
    {
      "inputs": [
        {
          "internalType": "address",
          "name": "account",
          "type": "address"
        }
      ],
      "name": "balanceOf",
      "outputs": [
        {
          "internalType": "uint256",
          "name": "",
          "type": "uint256"
        }
      ],
      "stateMutability": "view",
      "type": "function"
    },
    {
      "inputs": [],
      "name": "decimals",
      "outputs": [
        {
          "internalType": "uint8",
          "name": "",
          "type": "uint8"
        }
      ],
      "stateMutability": "view",
      "type": "function"
    },
    {
      "inputs": [
        {
          "internalType": "address",
          "name": "spender",
          "type": "address"
        },
        {
          "internalType": "uint256",
          "name": "subtractedValue",
          "type": "uint256"
        }
      ],
      "name": "decreaseAllowance",
      "outputs": [
        {
          "internalType": "bool",
          "name": "",
          "type": "bool"
        }
      ],
      "stateMutability": "nonpayable",
      "type": "function"
    },
    {
      "inputs": [
        {
          "internalType": "address",
          "name": "spender",
          "type": "address"
        },
        {
          "internalType": "uint256",
          "name": "addedValue",
          "type": "uint256"
        }
      ],
      "name": "increaseAllowance",
      "outputs": [
        {
          "internalType": "bool",
          "name": "",
          "type": "bool"
        }
      ],
      "stateMutability": "nonpayable",
      "type": "function"
    },
    {
      "inputs": [],
      "name": "name",
      "outputs": [
        {
          "internalType": "string",
          "name": "",
          "type": "string"
        }
      ],
      "stateMutability": "view",
      "type": "function"
    },
    {
      "inputs": [],
      "name": "owner",
      "outputs": [
        {
          "internalType": "address",
          "name": "",
          "type": "address"
        }
      ],
      "stateMutability": "view",
      "type": "function"
    },
    {
      "inputs": [
        {
          "internalType": "uint256",
          "name": "_lpTokensToRemove",
          "type": "uint256"
        }
      ],
      "name": "removeChocolateLiquidity",
      "outputs": [],
      "stateMutability": "nonpayable",
      "type": "function"
    },
    {
      "inputs": [],
      "name": "renounceOwnership",
      "outputs": [],
      "stateMutability": "nonpayable",
      "type": "function"
    },
    {
      "inputs": [
        {
          "internalType": "address",
          "name": "_tokenIn",
          "type": "address"
        },
        {
          "internalType": "uint256",
          "name": "_amountIn",
          "type": "uint256"
        }
      ],
      "name": "swapChocolates",
      "outputs": [],
      "stateMutability": "payable",
      "type": "function"
    },
    {
      "inputs": [],
      "name": "symbol",
      "outputs": [
        {
          "internalType": "string",
          "name": "",
          "type": "string"
        }
      ],
      "stateMutability": "view",
      "type": "function"
    },
    {
      "inputs": [],
      "name": "totalSupply",
      "outputs": [
        {
          "internalType": "uint256",
          "name": "",
          "type": "uint256"
        }
      ],
      "stateMutability": "view",
      "type": "function"
    },
    {
      "inputs": [
        {
          "internalType": "address",
          "name": "to",
          "type": "address"
        },
        {
          "internalType": "uint256",
          "name": "amount",
          "type": "uint256"
        }
      ],
      "name": "transfer",
      "outputs": [
        {
          "internalType": "bool",
          "name": "",
          "type": "bool"
        }
      ],
      "stateMutability": "nonpayable",
      "type": "function"
    },
    {
      "inputs": [
        {
          "internalType": "address",
          "name": "from",
          "type": "address"
        },
        {
          "internalType": "address",
          "name": "to",
          "type": "address"
        },
        {
          "internalType": "uint256",
          "name": "amount",
          "type": "uint256"
        }
      ],
      "name": "transferFrom",
      "outputs": [
        {
          "internalType": "bool",
          "name": "",
          "type": "bool"
        }
      ],
      "stateMutability": "nonpayable",
      "type": "function"
    },
    {
      "inputs": [
        {
          "internalType": "address",
          "name": "newOwner",
          "type": "address"
        }
      ],
      "name": "transferOwnership",
      "outputs": [],
      "stateMutability": "nonpayable",
      "type": "function"
    },
    {
      "inputs": [],
      "name": "uniswapV2Pair",
      "outputs": [
        {
          "internalType": "address",
          "name": "",
          "type": "address"
        }
      ],
      "stateMutability": "view",
      "type": "function"
    },
    {
      "inputs": [],
      "name": "uniswapV2Router",
      "outputs": [
        {
          "internalType": "contract IUniswapV2Router02",
          "name": "",
          "type": "address"
        }
      ],
      "stateMutability": "view",
      "type": "function"
    },
    {
      "inputs": [],
      "name": "weth",
      "outputs": [
        {
          "internalType": "address",
          "name": "",
          "type": "address"
        }
      ],
      "stateMutability": "view",
      "type": "function"
    }
  ],
  "bytecode": "60c06040523480156200001157600080fd5b5060405162001c5338038062001c53833981016040819052620000349162000390565b6040518060400160405280600f81526020016e21b437b1b7b630ba32902a37b5b2b760891b8152506040518060400160405280600481526020016343686f6360e01b81525081600390816200008a91906200044e565b5060046200009982826200044e565b505050620000b6620000b06200026f60201b60201c565b62000273565b620000d4620000cd6005546001600160a01b031690565b82620002c5565b737a250d5630b4cf539739df2c5dacb4c659f2488d6080819052604080516315ab88c960e31b8152905163ad5c4648916004808201926020929091908290030181865afa1580156200012a573d6000803e3d6000fd5b505050506040513d601f19601f820116820180604052508101906200015091906200051a565b6001600160a01b031660a0816001600160a01b0316815250506080516001600160a01b031663c45a01556040518163ffffffff1660e01b8152600401602060405180830381865afa158015620001aa573d6000803e3d6000fd5b505050506040513d601f19601f82011682018060405250810190620001d091906200051a565b60a0516040516364e329cb60e11b81523060048201526001600160a01b03918216602482015291169063c9c65396906044016020604051808303816000875af115801562000222573d6000803e3d6000fd5b505050506040513d601f19601f820116820180604052508101906200024891906200051a565b600680546001600160a01b0319166001600160a01b03929092169190911790555062000574565b3390565b600580546001600160a01b038381166001600160a01b0319831681179093556040519116919082907f8be0079c531659141344cd1fd0a4f28419497f9722a3daafe3b4186f6b6457e090600090a35050565b6001600160a01b038216620003205760405162461bcd60e51b815260206004820152601f60248201527f45524332303a206d696e7420746f20746865207a65726f206164647265737300604482015260640160405180910390fd5b80600260008282546200033491906200054c565b90915550506001600160a01b038216600081815260208181526040808320805486019055518481527fddf252ad1be2c89b69c2b068fc378daa952ba7f163c4a11628f55a4df523b3ef910160405180910390a35050565b505050565b600060208284031215620003a357600080fd5b5051919050565b634e487b7160e01b600052604160045260246000fd5b600181811c90821680620003d557607f821691505b602082108103620003f657634e487b7160e01b600052602260045260246000fd5b50919050565b601f8211156200038b57600081815260208120601f850160051c81016020861015620004255750805b601f850160051c820191505b81811015620004465782815560010162000431565b505050505050565b81516001600160401b038111156200046a576200046a620003aa565b62000482816200047b8454620003c0565b84620003fc565b602080601f831160018114620004ba5760008415620004a15750858301515b600019600386901b1c1916600185901b17855562000446565b600085815260208120601f198616915b82811015620004eb57888601518255948401946001909101908401620004ca565b50858210156200050a5787850151600019600388901b60f8161c191681555b5050505050600190811b01905550565b6000602082840312156200052d57600080fd5b81516001600160a01b03811681146200054557600080fd5b9392505050565b808201808211156200056e57634e487b7160e01b600052601160045260246000fd5b92915050565b60805160a0516116426200061160003960008181610258015281816104e70152818161059b0152818161066a015281816108a301528181610adc01528181610b6b01528181610ba401528181610c180152610cd10152600081816101910152818161056d015281816106130152818161063a015281816107f30152818161087301528181610b3f01528181610ca30152610d9301526116426000f3fe60806040526004361061011f5760003560e01c806370a08231116100a0578063a457c2d711610064578063a457c2d71461034d578063a9059cbb1461036d578063b6c839541461038d578063dd62ed3e146103a0578063f2fde38b146103c057600080fd5b806370a08231146102af578063715018a6146102e55780638da5cb5b146102fa578063909290621461031857806395d89b411461033857600080fd5b8063313ce567116100e7578063313ce5671461020a57806339509351146102265780633fc8cef31461024657806349bd5a5e1461027a578063536a60761461029a57600080fd5b806306fdde0314610124578063095ea7b31461014f5780631694505e1461017f57806318160ddd146101cb57806323b872dd146101ea575b600080fd5b34801561013057600080fd5b506101396103e0565b60405161014691906112a4565b60405180910390f35b34801561015b57600080fd5b5061016f61016a36600461130e565b610472565b6040519015158152602001610146565b34801561018b57600080fd5b506101b37f000000000000000000000000000000000000000000000000000000000000000081565b6040516001600160a01b039091168152602001610146565b3480156101d757600080fd5b506002545b604051908152602001610146565b3480156101f657600080fd5b5061016f610205366004611338565b61048c565b34801561021657600080fd5b5060405160128152602001610146565b34801561023257600080fd5b5061016f61024136600461130e565b6104b0565b34801561025257600080fd5b506101b37f000000000000000000000000000000000000000000000000000000000000000081565b34801561028657600080fd5b506006546101b3906001600160a01b031681565b6102ad6102a8366004611374565b6104d2565b005b3480156102bb57600080fd5b506101dc6102ca36600461138d565b6001600160a01b031660009081526020819052604090205490565b3480156102f157600080fd5b506102ad610741565b34801561030657600080fd5b506005546001600160a01b03166101b3565b34801561032457600080fd5b506102ad610333366004611374565b610755565b34801561034457600080fd5b50610139610971565b34801561035957600080fd5b5061016f61036836600461130e565b610980565b34801561037957600080fd5b5061016f61038836600461130e565b610a00565b6102ad61039b36600461130e565b610a0e565b3480156103ac57600080fd5b506101dc6103bb3660046113af565b610e18565b3480156103cc57600080fd5b506102ad6103db36600461138d565b610e43565b6060600380546103ef906113e2565b80601f016020809104026020016040519081016040528092919081815260200182805461041b906113e2565b80156104685780601f1061043d57610100808354040283529160200191610468565b820191906000526020600020905b81548152906001019060200180831161044b57829003601f168201915b5050505050905090565b600033610480818585610ebc565b60019150505b92915050565b60003361049a858285610fe0565b6104a5858585611054565b506001949350505050565b6000336104808185856104c38383610e18565b6104cd919061141c565b610ebc565b6104da6111f8565b6104e5333083611054565b7f00000000000000000000000000000000000000000000000000000000000000006001600160a01b031663d0e30db0346040518263ffffffff1660e01b81526004016000604051808303818588803b15801561054057600080fd5b505af1158015610554573d6000803e3d6000fd5b505060405163095ea7b360e01b81526001600160a01b037f0000000000000000000000000000000000000000000000000000000000000000811660048301523460248301527f000000000000000000000000000000000000000000000000000000000000000016935063095ea7b3925060440190506020604051808303816000875af11580156105e8573d6000803e3d6000fd5b505050506040513d601f19601f8201168201806040525081019061060c919061143d565b50610638307f000000000000000000000000000000000000000000000000000000000000000083610ebc565b7f00000000000000000000000000000000000000000000000000000000000000006001600160a01b031663e8e33700307f000000000000000000000000000000000000000000000000000000000000000084346001806106a06005546001600160a01b031690565b60405160e089901b6001600160e01b03191681526001600160a01b039788166004820152958716602487015260448601949094526064850192909252608484015260a483015290911660c48201524260e4820152610104016060604051808303816000875af1158015610717573d6000803e3d6000fd5b505050506040513d601f19601f8201168201806040525081019061073b919061145f565b50505050565b6107496111f8565b6107536000611252565b565b61075d6111f8565b6006546040516323b872dd60e01b8152336004820152306024820152604481018390526001600160a01b03909116906323b872dd906064016020604051808303816000875af11580156107b4573d6000803e3d6000fd5b505050506040513d601f19601f820116820180604052508101906107d8919061143d565b5060065460405163095ea7b360e01b81526001600160a01b037f000000000000000000000000000000000000000000000000000000000000000081166004830152602482018490529091169063095ea7b3906044016020604051808303816000875af115801561084c573d6000803e3d6000fd5b505050506040513d601f19601f82011682018060405250810190610870919061143d565b507f00000000000000000000000000000000000000000000000000000000000000006001600160a01b031663baa2abde307f0000000000000000000000000000000000000000000000000000000000000000846001806108d86005546001600160a01b031690565b60405160e088901b6001600160e01b03191681526001600160a01b039687166004820152948616602486015260448501939093526064840191909152608483015290911660a48201524260c482015260e40160408051808303816000875af1158015610948573d6000803e3d6000fd5b505050506040513d601f19601f8201168201806040525081019061096c919061148d565b505050565b6060600480546103ef906113e2565b6000338161098e8286610e18565b9050838110156109f35760405162461bcd60e51b815260206004820152602560248201527f45524332303a2064656372656173656420616c6c6f77616e63652062656c6f77604482015264207a65726f60d81b60648201526084015b60405180910390fd5b6104a58286868403610ebc565b600033610480818585611054565b604080516002808252606082018352600092602083019080368337019050509050306001600160a01b03841603610b69573415610aa65760405162461bcd60e51b815260206004820152603060248201527f796f752073686f756c646e27742073656e6420455448207768696c652073776160448201526f7070696e672063686f636f6c6174657360801b60648201526084016109ea565b3081600081518110610aba57610aba6114c7565b60200260200101906001600160a01b031690816001600160a01b0316815250507f000000000000000000000000000000000000000000000000000000000000000081600181518110610b0e57610b0e6114c7565b60200260200101906001600160a01b031690816001600160a01b031681525050610b39333084611054565b610b64307f000000000000000000000000000000000000000000000000000000000000000084610ebc565b610d7c565b7f00000000000000000000000000000000000000000000000000000000000000006001600160a01b0316836001600160a01b031603610d46577f00000000000000000000000000000000000000000000000000000000000000006001600160a01b031663d0e30db0346040518263ffffffff1660e01b81526004016000604051808303818588803b158015610bfd57600080fd5b505af1158015610c11573d6000803e3d6000fd5b50505050507f000000000000000000000000000000000000000000000000000000000000000081600081518110610c4a57610c4a6114c7565b60200260200101906001600160a01b031690816001600160a01b0316815250503081600181518110610c7e57610c7e6114c7565b6001600160a01b03928316602091820292909201015260405163095ea7b360e01b81527f0000000000000000000000000000000000000000000000000000000000000000821660048201523460248201527f00000000000000000000000000000000000000000000000000000000000000009091169063095ea7b3906044016020604051808303816000875af1158015610d1c573d6000803e3d6000fd5b505050506040513d601f19601f82011682018060405250810190610d40919061143d565b50610d7c565b60405162461bcd60e51b815260206004820152600b60248201526a3bb937b733903a37b5b2b760a91b60448201526064016109ea565b6040516338ed173960e01b81526001600160a01b037f000000000000000000000000000000000000000000000000000000000000000016906338ed173990610dd19085906000908690339042906004016114dd565b6000604051808303816000875af1158015610df0573d6000803e3d6000fd5b505050506040513d6000823e601f3d908101601f1916820160405261073b919081019061154e565b6001600160a01b03918216600090815260016020908152604080832093909416825291909152205490565b610e4b6111f8565b6001600160a01b038116610eb05760405162461bcd60e51b815260206004820152602660248201527f4f776e61626c653a206e6577206f776e657220697320746865207a65726f206160448201526564647265737360d01b60648201526084016109ea565b610eb981611252565b50565b6001600160a01b038316610f1e5760405162461bcd60e51b8152602060048201526024808201527f45524332303a20617070726f76652066726f6d20746865207a65726f206164646044820152637265737360e01b60648201526084016109ea565b6001600160a01b038216610f7f5760405162461bcd60e51b815260206004820152602260248201527f45524332303a20617070726f766520746f20746865207a65726f206164647265604482015261737360f01b60648201526084016109ea565b6001600160a01b0383811660008181526001602090815260408083209487168084529482529182902085905590518481527f8c5be1e5ebec7d5bd14f71427d1e84f3dd0314c0f7b2291e5b200ac8c7c3b925910160405180910390a3505050565b6000610fec8484610e18565b9050600019811461073b57818110156110475760405162461bcd60e51b815260206004820152601d60248201527f45524332303a20696e73756666696369656e7420616c6c6f77616e636500000060448201526064016109ea565b61073b8484848403610ebc565b6001600160a01b0383166110b85760405162461bcd60e51b815260206004820152602560248201527f45524332303a207472616e736665722066726f6d20746865207a65726f206164604482015264647265737360d81b60648201526084016109ea565b6001600160a01b03821661111a5760405162461bcd60e51b815260206004820152602360248201527f45524332303a207472616e7366657220746f20746865207a65726f206164647260448201526265737360e81b60648201526084016109ea565b6001600160a01b038316600090815260208190526040902054818110156111925760405162461bcd60e51b815260206004820152602660248201527f45524332303a207472616e7366657220616d6f756e7420657863656564732062604482015265616c616e636560d01b60648201526084016109ea565b6001600160a01b03848116600081815260208181526040808320878703905593871680835291849020805487019055925185815290927fddf252ad1be2c89b69c2b068fc378daa952ba7f163c4a11628f55a4df523b3ef910160405180910390a361073b565b6005546001600160a01b031633146107535760405162461bcd60e51b815260206004820181905260248201527f4f776e61626c653a2063616c6c6572206973206e6f7420746865206f776e657260448201526064016109ea565b600580546001600160a01b038381166001600160a01b0319831681179093556040519116919082907f8be0079c531659141344cd1fd0a4f28419497f9722a3daafe3b4186f6b6457e090600090a35050565b600060208083528351808285015260005b818110156112d1578581018301518582016040015282016112b5565b506000604082860101526040601f19601f8301168501019250505092915050565b80356001600160a01b038116811461130957600080fd5b919050565b6000806040838503121561132157600080fd5b61132a836112f2565b946020939093013593505050565b60008060006060848603121561134d57600080fd5b611356846112f2565b9250611364602085016112f2565b9150604084013590509250925092565b60006020828403121561138657600080fd5b5035919050565b60006020828403121561139f57600080fd5b6113a8826112f2565b9392505050565b600080604083850312156113c257600080fd5b6113cb836112f2565b91506113d9602084016112f2565b90509250929050565b600181811c908216806113f657607f821691505b60208210810361141657634e487b7160e01b600052602260045260246000fd5b50919050565b8082018082111561048657634e487b7160e01b600052601160045260246000fd5b60006020828403121561144f57600080fd5b815180151581146113a857600080fd5b60008060006060848603121561147457600080fd5b8351925060208401519150604084015190509250925092565b600080604083850312156114a057600080fd5b505080516020909101519092909150565b634e487b7160e01b600052604160045260246000fd5b634e487b7160e01b600052603260045260246000fd5b600060a082018783526020878185015260a0604085015281875180845260c086019150828901935060005b8181101561152d5784516001600160a01b031683529383019391830191600101611508565b50506001600160a01b03969096166060850152505050608001529392505050565b6000602080838503121561156157600080fd5b825167ffffffffffffffff8082111561157957600080fd5b818501915085601f83011261158d57600080fd5b81518181111561159f5761159f6114b1565b8060051b604051601f19603f830116810181811085821117156115c4576115c46114b1565b6040529182528482019250838101850191888311156115e257600080fd5b938501935b82851015611600578451845293850193928501926115e7565b9897505050505050505056fea26469706673582212209d72192404eba2b32b8d7e247f08124af2ded71ef999ec9902d3bd87cf793ab864736f6c63430008130033",
  "bytecodeSha1": "1b54291310db5557af774f620be91ae8e3e60f84",
  "compiler": {
    "evm_version": "istanbul",
    "optimizer": {
      "enabled": true,
      "runs": 200
    },
    "version": "0.8.19+commit.7dd6d404"
  },
  "contractName": "Chocolate",
  "language": "Solidity",
  "natspec": {
    "author": "JohnnyTime (https://smartcontractshacking.com)",
    "kind": "dev",
    "methods": {
      "allowance(address,address)": {
        "details": "See {IERC20-allowance}."
      },
      "approve(address,uint256)": {
        "details": "See {IERC20-approve}. NOTE: If `amount` is the maximum `uint256`, the allowance is not updated on `transferFrom`. This is semantically equivalent to an infinite approval. Requirements: - `spender` cannot be the zero address."
      },
      "balanceOf(address)": {
        "details": "See {IERC20-balanceOf}."
      },
      "decimals()": {
        "details": "Returns the number of decimals used to get its user representation. For example, if `decimals` equals `2`, a balance of `505` tokens should be displayed to a user as `5.05` (`505 / 10 ** 2`). Tokens usually opt for a value of 18, imitating the relationship between Ether and Wei. This is the value {ERC20} uses, unless this function is overridden; NOTE: This information is only used for _display_ purposes: it in no way affects any of the arithmetic of the contract, including {IERC20-balanceOf} and {IERC20-transfer}."
      },
      "decreaseAllowance(address,uint256)": {
        "details": "Atomically decreases the allowance granted to `spender` by the caller. This is an alternative to {approve} that can be used as a mitigation for problems described in {IERC20-approve}. Emits an {Approval} event indicating the updated allowance. Requirements: - `spender` cannot be the zero address. - `spender` must have allowance for the caller of at least `subtractedValue`."
      },
      "increaseAllowance(address,uint256)": {
        "details": "Atomically increases the allowance granted to `spender` by the caller. This is an alternative to {approve} that can be used as a mitigation for problems described in {IERC20-approve}. Emits an {Approval} event indicating the updated allowance. Requirements: - `spender` cannot be the zero address."
      },
      "name()": {
        "details": "Returns the name of the token."
      },
      "owner()": {
        "details": "Returns the address of the current owner."
      },
      "renounceOwnership()": {
        "details": "Leaves the contract without owner. It will not be possible to call `onlyOwner` functions anymore. Can only be called by the current owner. NOTE: Renouncing ownership will leave the contract without an owner, thereby removing any functionality that is only available to the owner."
      },
      "symbol()": {
        "details": "Returns the symbol of the token, usually a shorter version of the name."
      },
      "totalSupply()": {
        "details": "See {IERC20-totalSupply}."
      },
      "transfer(address,uint256)": {
        "details": "See {IERC20-transfer}. Requirements: - `to` cannot be the zero address. - the caller must have a balance of at least `amount`."
      },
      "transferFrom(address,address,uint256)": {
        "details": "See {IERC20-transferFrom}. Emits an {Approval} event indicating the updated allowance. This is not required by the EIP. See the note at the beginning of {ERC20}. NOTE: Does not update the allowance if the current allowance is the maximum `uint256`. Requirements: - `from` and `to` cannot be the zero address. - `from` must have a balance of at least `amount`. - the caller must have allowance for ``from``'s tokens of at least `amount`."
      },
      "transferOwnership(address)": {
        "details": "Transfers ownership of the contract to a new account (`newOwner`). Can only be called by the current owner."
      }
    },
    "title": "Chocolate",
    "version": 1
  },
  "opcodes": "PUSH1 0x80 PUSH1 0x40 MSTORE PUSH1 0x4 CALLDATASIZE LT PUSH2 0x11F JUMPI PUSH1 0x0 CALLDATALOAD PUSH1 0xE0 SHR DUP1 PUSH4 0x70A08231 GT PUSH2 0xA0 JUMPI DUP1 PUSH4 0xA457C2D7 GT PUSH2 0x64 JUMPI DUP1 PUSH4 0xA457C2D7 EQ PUSH2 0x34D JUMPI DUP1 PUSH4 0xA9059CBB EQ PUSH2 0x36D JUMPI DUP1 PUSH4 0xB6C83954 EQ PUSH2 0x38D JUMPI DUP1 PUSH4 0xDD62ED3E EQ PUSH2 0x3A0 JUMPI DUP1 PUSH4 0xF2FDE38B EQ PUSH2 0x3C0 JUMPI PUSH1 0x0 DUP1 REVERT JUMPDEST DUP1 PUSH4 0x70A08231 EQ PUSH2 0x2AF JUMPI DUP1 PUSH4 0x715018A6 EQ PUSH2 0x2E5 JUMPI DUP1 PUSH4 0x8DA5CB5B EQ PUSH2 0x2FA JUMPI DUP1 PUSH4 0x90929062 EQ PUSH2 0x318 JUMPI DUP1 PUSH4 0x95D89B41 EQ PUSH2 0x338 JUMPI PUSH1 0x0 DUP1 REVERT JUMPDEST DUP1 PUSH4 0x313CE567 GT PUSH2 0xE7 JUMPI DUP1 PUSH4 0x313CE567 EQ PUSH2 0x20A JUMPI DUP1 PUSH4 0x39509351 EQ PUSH2 0x226 JUMPI DUP1 PUSH4 0x3FC8CEF3 EQ PUSH2 0x246 JUMPI DUP1 PUSH4 0x49BD5A5E EQ PUSH2 0x27A JUMPI DUP1 PUSH4 0x536A6076 EQ PUSH2 0x29A JUMPI PUSH1 0x0 DUP1 REVERT JUMPDEST DUP1 PUSH4 0x6FDDE03 EQ PUSH2 0x124 JUMPI DUP1 PUSH4 0x95EA7B3 EQ PUSH2 0x14F JUMPI DUP1 PUSH4 0x1694505E EQ PUSH2 0x17F JUMPI DUP1 PUSH4 0x18160DDD EQ PUSH2 0x1CB JUMPI DUP1 PUSH4 0x23B872DD EQ PUSH2 0x1EA JUMPI JUMPDEST PUSH1 0x0 DUP1 REVERT JUMPDEST CALLVALUE DUP1 ISZERO PUSH2 0x130 JUMPI PUSH1 0x0 DUP1 REVERT JUMPDEST POP PUSH2 0x139 PUSH2 0x3E0 JUMP JUMPDEST PUSH1 0x40 MLOAD PUSH2 0x146 SWAP2 SWAP1 PUSH2 0x12A4 JUMP JUMPDEST PUSH1 0x40 MLOAD DUP1 SWAP2 SUB SWAP1 RETURN JUMPDEST CALLVALUE DUP1 ISZERO PUSH2 0x15B JUMPI PUSH1 0x0 DUP1 REVERT JUMPDEST POP PUSH2 0x16F PUSH2 0x16A CALLDATASIZE PUSH1 0x4 PUSH2 0x130E JUMP JUMPDEST PUSH2 0x472 JUMP JUMPDEST PUSH1 0x40 MLOAD SWAP1 ISZERO ISZERO DUP2 MSTORE PUSH1 0x20 ADD PUSH2 0x146 JUMP JUMPDEST CALLVALUE DUP1 ISZERO PUSH2 0x18B JUMPI PUSH1 0x0 DUP1 REVERT JUMPDEST POP PUSH2 0x1B3 PUSH32 0x0 DUP2 JUMP JUMPDEST PUSH1 0x40 MLOAD PUSH1 0x1 PUSH1 0x1 PUSH1 0xA0 SHL SUB SWAP1 SWAP2 AND DUP2 MSTORE PUSH1 0x20 ADD PUSH2 0x146 JUMP JUMPDEST CALLVALUE DUP1 ISZERO PUSH2 0x1D7 JUMPI PUSH1 0x0 DUP1 REVERT JUMPDEST POP PUSH1 0x2 SLOAD JUMPDEST PUSH1 0x40 MLOAD SWAP1 DUP2 MSTORE PUSH1 0x20 ADD PUSH2 0x146 JUMP JUMPDEST CALLVALUE DUP1 ISZERO PUSH2 0x1F6 JUMPI PUSH1 0x0 DUP1 REVERT JUMPDEST POP PUSH2 0x16F PUSH2 0x205 CALLDATASIZE PUSH1 0x4 PUSH2 0x1338 JUMP JUMPDEST PUSH2 0x48C JUMP JUMPDEST CALLVALUE DUP1 ISZERO PUSH2 0x216 JUMPI PUSH1 0x0 DUP1 REVERT JUMPDEST POP PUSH1 0x40 MLOAD PUSH1 0x12 DUP2 MSTORE PUSH1 0x20 ADD PUSH2 0x146 JUMP JUMPDEST CALLVALUE DUP1 ISZERO PUSH2 0x232 JUMPI PUSH1 0x0 DUP1 REVERT JUMPDEST POP PUSH2 0x16F PUSH2 0x241 CALLDATASIZE PUSH1 0x4 PUSH2 0x130E JUMP JUMPDEST PUSH2 0x4B0 JUMP JUMPDEST CALLVALUE DUP1 ISZERO PUSH2 0x252 JUMPI PUSH1 0x0 DUP1 REVERT JUMPDEST POP PUSH2 0x1B3 PUSH32 0x0 DUP2 JUMP JUMPDEST CALLVALUE DUP1 ISZERO PUSH2 0x286 JUMPI PUSH1 0x0 DUP1 REVERT JUMPDEST POP PUSH1 0x6 SLOAD PUSH2 0x1B3 SWAP1 PUSH1 0x1 PUSH1 0x1 PUSH1 0xA0 SHL SUB AND DUP2 JUMP JUMPDEST PUSH2 0x2AD PUSH2 0x2A8 CALLDATASIZE PUSH1 0x4 PUSH2 0x1374 JUMP JUMPDEST PUSH2 0x4D2 JUMP JUMPDEST STOP JUMPDEST CALLVALUE DUP1 ISZERO PUSH2 0x2BB JUMPI PUSH1 0x0 DUP1 REVERT JUMPDEST POP PUSH2 0x1DC PUSH2 0x2CA CALLDATASIZE PUSH1 0x4 PUSH2 0x138D JUMP JUMPDEST PUSH1 0x1 PUSH1 0x1 PUSH1 0xA0 SHL SUB AND PUSH1 0x0 SWAP1 DUP2 MSTORE PUSH1 0x20 DUP2 SWAP1 MSTORE PUSH1 0x40 SWAP1 KECCAK256 SLOAD SWAP1 JUMP JUMPDEST CALLVALUE DUP1 ISZERO PUSH2 0x2F1 JUMPI PUSH1 0x0 DUP1 REVERT JUMPDEST POP PUSH2 0x2AD PUSH2 0x741 JUMP JUMPDEST CALLVALUE DUP1 ISZERO PUSH2 0x306 JUMPI PUSH1 0x0 DUP1 REVERT JUMPDEST POP PUSH1 0x5 SLOAD PUSH1 0x1 PUSH1 0x1 PUSH1 0xA0 SHL SUB AND PUSH2 0x1B3 JUMP JUMPDEST CALLVALUE DUP1 ISZERO PUSH2 0x324 JUMPI PUSH1 0x0 DUP1 REVERT JUMPDEST POP PUSH2 0x2AD PUSH2 0x333 CALLDATASIZE PUSH1 0x4 PUSH2 0x1374 JUMP JUMPDEST PUSH2 0x755 JUMP JUMPDEST CALLVALUE DUP1 ISZERO PUSH2 0x344 JUMPI PUSH1 0x0 DUP1 REVERT JUMPDEST POP PUSH2 0x139 PUSH2 0x971 JUMP JUMPDEST CALLVALUE DUP1 ISZERO PUSH2 0x359 JUMPI PUSH1 0x0 DUP1 REVERT JUMPDEST POP PUSH2 0x16F PUSH2 0x368 CALLDATASIZE PUSH1 0x4 PUSH2 0x130E JUMP JUMPDEST PUSH2 0x980 JUMP JUMPDEST CALLVALUE DUP1 ISZERO PUSH2 0x379 JUMPI PUSH1 0x0 DUP1 REVERT JUMPDEST POP PUSH2 0x16F PUSH2 0x388 CALLDATASIZE PUSH1 0x4 PUSH2 0x130E JUMP JUMPDEST PUSH2 0xA00 JUMP JUMPDEST PUSH2 0x2AD PUSH2 0x39B CALLDATASIZE PUSH1 0x4 PUSH2 0x130E JUMP JUMPDEST PUSH2 0xA0E JUMP JUMPDEST CALLVALUE DUP1 ISZERO PUSH2 0x3AC JUMPI PUSH1 0x0 DUP1 REVERT JUMPDEST POP PUSH2 0x1DC PUSH2 0x3BB CALLDATASIZE PUSH1 0x4 PUSH2 0x13AF JUMP JUMPDEST PUSH2 0xE18 JUMP JUMPDEST CALLVALUE DUP1 ISZERO PUSH2 0x3CC JUMPI PUSH1 0x0 DUP1 REVERT JUMPDEST POP PUSH2 0x2AD PUSH2 0x3DB CALLDATASIZE PUSH1 0x4 PUSH2 0x138D JUMP JUMPDEST PUSH2 0xE43 JUMP JUMPDEST PUSH1 0x60 PUSH1 0x3 DUP1 SLOAD PUSH2 0x3EF SWAP1 PUSH2 0x13E2 JUMP JUMPDEST DUP1 PUSH1 0x1F ADD PUSH1 0x20 DUP1 SWAP2 DIV MUL PUSH1 0x20 ADD PUSH1 0x40 MLOAD SWAP1 DUP2 ADD PUSH1 0x40 MSTORE DUP1 SWAP3 SWAP2 SWAP1 DUP2 DUP2 MSTORE PUSH1 0x20 ADD DUP3 DUP1 SLOAD PUSH2 0x41B SWAP1 PUSH2 0x13E2 JUMP JUMPDEST DUP1 ISZERO PUSH2 0x468 JUMPI DUP1 PUSH1 0x1F LT PUSH2 0x43D JUMPI PUSH2 0x100 DUP1 DUP4 SLOAD DIV MUL DUP4 MSTORE SWAP2 PUSH1 0x20 ADD SWAP2 PUSH2 0x468 JUMP JUMPDEST DUP3 ADD SWAP2 SWAP1 PUSH1 0x0 MSTORE PUSH1 0x20 PUSH1 0x0 KECCAK256 SWAP1 JUMPDEST DUP2 SLOAD DUP2 MSTORE SWAP1 PUSH1 0x1 ADD SWAP1 PUSH1 0x20 ADD DUP1 DUP4 GT PUSH2 0x44B JUMPI DUP3 SWAP1 SUB PUSH1 0x1F AND DUP3 ADD SWAP2 JUMPDEST POP POP POP POP POP SWAP1 POP SWAP1 JUMP JUMPDEST PUSH1 0x0 CALLER PUSH2 0x480 DUP2 DUP6 DUP6 PUSH2 0xEBC JUMP JUMPDEST PUSH1 0x1 SWAP2 POP POP JUMPDEST SWAP3 SWAP2 POP POP JUMP JUMPDEST PUSH1 0x0 CALLER PUSH2 0x49A DUP6 DUP3 DUP6 PUSH2 0xFE0 JUMP JUMPDEST PUSH2 0x4A5 DUP6 DUP6 DUP6 PUSH2 0x1054 JUMP JUMPDEST POP PUSH1 0x1 SWAP5 SWAP4 POP POP POP POP JUMP JUMPDEST PUSH1 0x0 CALLER PUSH2 0x480 DUP2 DUP6 DUP6 PUSH2 0x4C3 DUP4 DUP4 PUSH2 0xE18 JUMP JUMPDEST PUSH2 0x4CD SWAP2 SWAP1 PUSH2 0x141C JUMP JUMPDEST PUSH2 0xEBC JUMP JUMPDEST PUSH2 0x4DA PUSH2 0x11F8 JUMP JUMPDEST PUSH2 0x4E5 CALLER ADDRESS DUP4 PUSH2 0x1054 JUMP JUMPDEST PUSH32 0x0 PUSH1 0x1 PUSH1 0x1 PUSH1 0xA0 SHL SUB AND PUSH4 0xD0E30DB0 CALLVALUE PUSH1 0x40 MLOAD DUP3 PUSH4 0xFFFFFFFF AND PUSH1 0xE0 SHL DUP2 MSTORE PUSH1 0x4 ADD PUSH1 0x0 PUSH1 0x40 MLOAD DUP1 DUP4 SUB DUP2 DUP6 DUP9 DUP1 EXTCODESIZE ISZERO DUP1 ISZERO PUSH2 0x540 JUMPI PUSH1 0x0 DUP1 REVERT JUMPDEST POP GAS CALL ISZERO DUP1 ISZERO PUSH2 0x554 JUMPI RETURNDATASIZE PUSH1 0x0 DUP1 RETURNDATACOPY RETURNDATASIZE PUSH1 0x0 REVERT JUMPDEST POP POP PUSH1 0x40 MLOAD PUSH4 0x95EA7B3 PUSH1 0xE0 SHL DUP2 MSTORE PUSH1 0x1 PUSH1 0x1 PUSH1 0xA0 SHL SUB PUSH32 0x0 DUP2 AND PUSH1 0x4 DUP4 ADD MSTORE CALLVALUE PUSH1 0x24 DUP4 ADD MSTORE PUSH32 0x0 AND SWAP4 POP PUSH4 0x95EA7B3 SWAP3 POP PUSH1 0x44 ADD SWAP1 POP PUSH1 0x20 PUSH1 0x40 MLOAD DUP1 DUP4 SUB DUP2 PUSH1 0x0 DUP8 GAS CALL ISZERO DUP1 ISZERO PUSH2 0x5E8 JUMPI RETURNDATASIZE PUSH1 0x0 DUP1 RETURNDATACOPY RETURNDATASIZE PUSH1 0x0 REVERT JUMPDEST POP POP POP POP PUSH1 0x40 MLOAD RETURNDATASIZE PUSH1 0x1F NOT PUSH1 0x1F DUP3 ADD AND DUP3 ADD DUP1 PUSH1 0x40 MSTORE POP DUP2 ADD SWAP1 PUSH2 0x60C SWAP2 SWAP1 PUSH2 0x143D JUMP JUMPDEST POP PUSH2 0x638 ADDRESS PUSH32 0x0 DUP4 PUSH2 0xEBC JUMP JUMPDEST PUSH32 0x0 PUSH1 0x1 PUSH1 0x1 PUSH1 0xA0 SHL SUB AND PUSH4 0xE8E33700 ADDRESS PUSH32 0x0 DUP5 CALLVALUE PUSH1 0x1 DUP1 PUSH2 0x6A0 PUSH1 0x5 SLOAD PUSH1 0x1 PUSH1 0x1 PUSH1 0xA0 SHL SUB AND SWAP1 JUMP JUMPDEST PUSH1 0x40 MLOAD PUSH1 0xE0 DUP10 SWAP1 SHL PUSH1 0x1 PUSH1 0x1 PUSH1 0xE0 SHL SUB NOT AND DUP2 MSTORE PUSH1 0x1 PUSH1 0x1 PUSH1 0xA0 SHL SUB SWAP8 DUP9 AND PUSH1 0x4 DUP3 ADD MSTORE SWAP6 DUP8 AND PUSH1 0x24 DUP8 ADD MSTORE PUSH1 0x44 DUP7 ADD SWAP5 SWAP1 SWAP5 MSTORE PUSH1 0x64 DUP6 ADD SWAP3 SWAP1 SWAP3 MSTORE PUSH1 0x84 DUP5 ADD MSTORE PUSH1 0xA4 DUP4 ADD MSTORE SWAP1 SWAP2 AND PUSH1 0xC4 DUP3 ADD MSTORE TIMESTAMP PUSH1 0xE4 DUP3 ADD MSTORE PUSH2 0x104 ADD PUSH1 0x60 PUSH1 0x40 MLOAD DUP1 DUP4 SUB DUP2 PUSH1 0x0 DUP8 GAS CALL ISZERO DUP1 ISZERO PUSH2 0x717 JUMPI RETURNDATASIZE PUSH1 0x0 DUP1 RETURNDATACOPY RETURNDATASIZE PUSH1 0x0 REVERT JUMPDEST POP POP POP POP PUSH1 0x40 MLOAD RETURNDATASIZE PUSH1 0x1F NOT PUSH1 0x1F DUP3 ADD AND DUP3 ADD DUP1 PUSH1 0x40 MSTORE POP DUP2 ADD SWAP1 PUSH2 0x73B SWAP2 SWAP1 PUSH2 0x145F JUMP JUMPDEST POP POP POP POP JUMP JUMPDEST PUSH2 0x749 PUSH2 0x11F8 JUMP JUMPDEST PUSH2 0x753 PUSH1 0x0 PUSH2 0x1252 JUMP JUMPDEST JUMP JUMPDEST PUSH2 0x75D PUSH2 0x11F8 JUMP JUMPDEST PUSH1 0x6 SLOAD PUSH1 0x40 MLOAD PUSH4 0x23B872DD PUSH1 0xE0 SHL DUP2 MSTORE CALLER PUSH1 0x4 DUP3 ADD MSTORE ADDRESS PUSH1 0x24 DUP3 ADD MSTORE PUSH1 0x44 DUP2 ADD DUP4 SWAP1 MSTORE PUSH1 0x1 PUSH1 0x1 PUSH1 0xA0 SHL SUB SWAP1 SWAP2 AND SWAP1 PUSH4 0x23B872DD SWAP1 PUSH1 0x64 ADD PUSH1 0x20 PUSH1 0x40 MLOAD DUP1 DUP4 SUB DUP2 PUSH1 0x0 DUP8 GAS CALL ISZERO DUP1 ISZERO PUSH2 0x7B4 JUMPI RETURNDATASIZE PUSH1 0x0 DUP1 RETURNDATACOPY RETURNDATASIZE PUSH1 0x0 REVERT JUMPDEST POP POP POP POP PUSH1 0x40 MLOAD RETURNDATASIZE PUSH1 0x1F NOT PUSH1 0x1F DUP3 ADD AND DUP3 ADD DUP1 PUSH1 0x40 MSTORE POP DUP2 ADD SWAP1 PUSH2 0x7D8 SWAP2 SWAP1 PUSH2 0x143D JUMP JUMPDEST POP PUSH1 0x6 SLOAD PUSH1 0x40 MLOAD PUSH4 0x95EA7B3 PUSH1 0xE0 SHL DUP2 MSTORE PUSH1 0x1 PUSH1 0x1 PUSH1 0xA0 SHL SUB PUSH32 0x0 DUP2 AND PUSH1 0x4 DUP4 ADD MSTORE PUSH1 0x24 DUP3 ADD DUP5 SWAP1 MSTORE SWAP1 SWAP2 AND SWAP1 PUSH4 0x95EA7B3 SWAP1 PUSH1 0x44 ADD PUSH1 0x20 PUSH1 0x40 MLOAD DUP1 DUP4 SUB DUP2 PUSH1 0x0 DUP8 GAS CALL ISZERO DUP1 ISZERO PUSH2 0x84C JUMPI RETURNDATASIZE PUSH1 0x0 DUP1 RETURNDATACOPY RETURNDATASIZE PUSH1 0x0 REVERT JUMPDEST POP POP POP POP PUSH1 0x40 MLOAD RETURNDATASIZE PUSH1 0x1F NOT PUSH1 0x1F DUP3 ADD AND DUP3 ADD DUP1 PUSH1 0x40 MSTORE POP DUP2 ADD SWAP1 PUSH2 0x870 SWAP2 SWAP1 PUSH2 0x143D JUMP JUMPDEST POP PUSH32 0x0 PUSH1 0x1 PUSH1 0x1 PUSH1 0xA0 SHL SUB AND PUSH4 0xBAA2ABDE ADDRESS PUSH32 0x0 DUP5 PUSH1 0x1 DUP1 PUSH2 0x8D8 PUSH1 0x5 SLOAD PUSH1 0x1 PUSH1 0x1 PUSH1 0xA0 SHL SUB AND SWAP1 JUMP JUMPDEST PUSH1 0x40 MLOAD PUSH1 0xE0 DUP9 SWAP1 SHL PUSH1 0x1 PUSH1 0x1 PUSH1 0xE0 SHL SUB NOT AND DUP2 MSTORE PUSH1 0x1 PUSH1 0x1 PUSH1 0xA0 SHL SUB SWAP7 DUP8 AND PUSH1 0x4 DUP3 ADD MSTORE SWAP5 DUP7 AND PUSH1 0x24 DUP7 ADD MSTORE PUSH1 0x44 DUP6 ADD SWAP4 SWAP1 SWAP4 MSTORE PUSH1 0x64 DUP5 ADD SWAP2 SWAP1 SWAP2 MSTORE PUSH1 0x84 DUP4 ADD MSTORE SWAP1 SWAP2 AND PUSH1 0xA4 DUP3 ADD MSTORE TIMESTAMP PUSH1 0xC4 DUP3 ADD MSTORE PUSH1 0xE4 ADD PUSH1 0x40 DUP1 MLOAD DUP1 DUP4 SUB DUP2 PUSH1 0x0 DUP8 GAS CALL ISZERO DUP1 ISZERO PUSH2 0x948 JUMPI RETURNDATASIZE PUSH1 0x0 DUP1 RETURNDATACOPY RETURNDATASIZE PUSH1 0x0 REVERT JUMPDEST POP POP POP POP PUSH1 0x40 MLOAD RETURNDATASIZE PUSH1 0x1F NOT PUSH1 0x1F DUP3 ADD AND DUP3 ADD DUP1 PUSH1 0x40 MSTORE POP DUP2 ADD SWAP1 PUSH2 0x96C SWAP2 SWAP1 PUSH2 0x148D JUMP JUMPDEST POP POP POP JUMP JUMPDEST PUSH1 0x60 PUSH1 0x4 DUP1 SLOAD PUSH2 0x3EF SWAP1 PUSH2 0x13E2 JUMP JUMPDEST PUSH1 0x0 CALLER DUP2 PUSH2 0x98E DUP3 DUP7 PUSH2 0xE18 JUMP JUMPDEST SWAP1 POP DUP4 DUP2 LT ISZERO PUSH2 0x9F3 JUMPI PUSH1 0x40 MLOAD PUSH3 0x461BCD PUSH1 0xE5 SHL DUP2 MSTORE PUSH1 0x20 PUSH1 0x4 DUP3 ADD MSTORE PUSH1 0x25 PUSH1 0x24 DUP3 ADD MSTORE PUSH32 0x45524332303A2064656372656173656420616C6C6F77616E63652062656C6F77 PUSH1 0x44 DUP3 ADD MSTORE PUSH5 0x207A65726F PUSH1 0xD8 SHL PUSH1 0x64 DUP3 ADD MSTORE PUSH1 0x84 ADD JUMPDEST PUSH1 0x40 MLOAD DUP1 SWAP2 SUB SWAP1 REVERT JUMPDEST PUSH2 0x4A5 DUP3 DUP7 DUP7 DUP5 SUB PUSH2 0xEBC JUMP JUMPDEST PUSH1 0x0 CALLER PUSH2 0x480 DUP2 DUP6 DUP6 PUSH2 0x1054 JUMP JUMPDEST PUSH1 0x40 DUP1 MLOAD PUSH1 0x2 DUP1 DUP3 MSTORE PUSH1 0x60 DUP3 ADD DUP4 MSTORE PUSH1 0x0 SWAP3 PUSH1 0x20 DUP4 ADD SWAP1 DUP1 CALLDATASIZE DUP4 CALLDATACOPY ADD SWAP1 POP POP SWAP1 POP ADDRESS PUSH1 0x1 PUSH1 0x1 PUSH1 0xA0 SHL SUB DUP5 AND SUB PUSH2 0xB69 JUMPI CALLVALUE ISZERO PUSH2 0xAA6 JUMPI PUSH1 0x40 MLOAD PUSH3 0x461BCD PUSH1 0xE5 SHL DUP2 MSTORE PUSH1 0x20 PUSH1 0x4 DUP3 ADD MSTORE PUSH1 0x30 PUSH1 0x24 DUP3 ADD MSTORE PUSH32 0x796F752073686F756C646E27742073656E6420455448207768696C6520737761 PUSH1 0x44 DUP3 ADD MSTORE PUSH16 0x7070696E672063686F636F6C61746573 PUSH1 0x80 SHL PUSH1 0x64 DUP3 ADD MSTORE PUSH1 0x84 ADD PUSH2 0x9EA JUMP JUMPDEST ADDRESS DUP2 PUSH1 0x0 DUP2 MLOAD DUP2 LT PUSH2 0xABA JUMPI PUSH2 0xABA PUSH2 0x14C7 JUMP JUMPDEST PUSH1 0x20 MUL PUSH1 0x20 ADD ADD SWAP1 PUSH1 0x1 PUSH1 0x1 PUSH1 0xA0 SHL SUB AND SWAP1 DUP2 PUSH1 0x1 PUSH1 0x1 PUSH1 0xA0 SHL SUB AND DUP2 MSTORE POP POP PUSH32 0x0 DUP2 PUSH1 0x1 DUP2 MLOAD DUP2 LT PUSH2 0xB0E JUMPI PUSH2 0xB0E PUSH2 0x14C7 JUMP JUMPDEST PUSH1 0x20 MUL PUSH1 0x20 ADD ADD SWAP1 PUSH1 0x1 PUSH1 0x1 PUSH1 0xA0 SHL SUB AND SWAP1 DUP2 PUSH1 0x1 PUSH1 0x1 PUSH1 0xA0 SHL SUB AND DUP2 MSTORE POP POP PUSH2 0xB39 CALLER ADDRESS DUP5 PUSH2 0x1054 JUMP JUMPDEST PUSH2 0xB64 ADDRESS PUSH32 0x0 DUP5 PUSH2 0xEBC JUMP JUMPDEST PUSH2 0xD7C JUMP JUMPDEST PUSH32 0x0 PUSH1 0x1 PUSH1 0x1 PUSH1 0xA0 SHL SUB AND DUP4 PUSH1 0x1 PUSH1 0x1 PUSH1 0xA0 SHL SUB AND SUB PUSH2 0xD46 JUMPI PUSH32 0x0 PUSH1 0x1 PUSH1 0x1 PUSH1 0xA0 SHL SUB AND PUSH4 0xD0E30DB0 CALLVALUE PUSH1 0x40 MLOAD DUP3 PUSH4 0xFFFFFFFF AND PUSH1 0xE0 SHL DUP2 MSTORE PUSH1 0x4 ADD PUSH1 0x0 PUSH1 0x40 MLOAD DUP1 DUP4 SUB DUP2 DUP6 DUP9 DUP1 EXTCODESIZE ISZERO DUP1 ISZERO PUSH2 0xBFD JUMPI PUSH1 0x0 DUP1 REVERT JUMPDEST POP GAS CALL ISZERO DUP1 ISZERO PUSH2 0xC11 JUMPI RETURNDATASIZE PUSH1 0x0 DUP1 RETURNDATACOPY RETURNDATASIZE PUSH1 0x0 REVERT JUMPDEST POP POP POP POP POP PUSH32 0x0 DUP2 PUSH1 0x0 DUP2 MLOAD DUP2 LT PUSH2 0xC4A JUMPI PUSH2 0xC4A PUSH2 0x14C7 JUMP JUMPDEST PUSH1 0x20 MUL PUSH1 0x20 ADD ADD SWAP1 PUSH1 0x1 PUSH1 0x1 PUSH1 0xA0 SHL SUB AND SWAP1 DUP2 PUSH1 0x1 PUSH1 0x1 PUSH1 0xA0 SHL SUB AND DUP2 MSTORE POP POP ADDRESS DUP2 PUSH1 0x1 DUP2 MLOAD DUP2 LT PUSH2 0xC7E JUMPI PUSH2 0xC7E PUSH2 0x14C7 JUMP JUMPDEST PUSH1 0x1 PUSH1 0x1 PUSH1 0xA0 SHL SUB SWAP3 DUP4 AND PUSH1 0x20 SWAP2 DUP3 MUL SWAP3 SWAP1 SWAP3 ADD ADD MSTORE PUSH1 0x40 MLOAD PUSH4 0x95EA7B3 PUSH1 0xE0 SHL DUP2 MSTORE PUSH32 0x0 DUP3 AND PUSH1 0x4 DUP3 ADD MSTORE CALLVALUE PUSH1 0x24 DUP3 ADD MSTORE PUSH32 0x0 SWAP1 SWAP2 AND SWAP1 PUSH4 0x95EA7B3 SWAP1 PUSH1 0x44 ADD PUSH1 0x20 PUSH1 0x40 MLOAD DUP1 DUP4 SUB DUP2 PUSH1 0x0 DUP8 GAS CALL ISZERO DUP1 ISZERO PUSH2 0xD1C JUMPI RETURNDATASIZE PUSH1 0x0 DUP1 RETURNDATACOPY RETURNDATASIZE PUSH1 0x0 REVERT JUMPDEST POP POP POP POP PUSH1 0x40 MLOAD RETURNDATASIZE PUSH1 0x1F NOT PUSH1 0x1F DUP3 ADD AND DUP3 ADD DUP1 PUSH1 0x40 MSTORE POP DUP2 ADD SWAP1 PUSH2 0xD40 SWAP2 SWAP1 PUSH2 0x143D JUMP JUMPDEST POP PUSH2 0xD7C JUMP JUMPDEST PUSH1 0x40 MLOAD PUSH3 0x461BCD PUSH1 0xE5 SHL DUP2 MSTORE PUSH1 0x20 PUSH1 0x4 DUP3 ADD MSTORE PUSH1 0xB PUSH1 0x24 DUP3 ADD MSTORE PUSH11 0x3BB937B733903A37B5B2B7 PUSH1 0xA9 SHL PUSH1 0x44 DUP3 ADD MSTORE PUSH1 0x64 ADD PUSH2 0x9EA JUMP JUMPDEST PUSH1 0x40 MLOAD PUSH4 0x38ED1739 PUSH1 0xE0 SHL DUP2 MSTORE PUSH1 0x1 PUSH1 0x1 PUSH1 0xA0 SHL SUB PUSH32 0x0 AND SWAP1 PUSH4 0x38ED1739 SWAP1 PUSH2 0xDD1 SWAP1 DUP6 SWAP1 PUSH1 0x0 SWAP1 DUP7 SWAP1 CALLER SWAP1 TIMESTAMP SWAP1 PUSH1 0x4 ADD PUSH2 0x14DD JUMP JUMPDEST PUSH1 0x0 PUSH1 0x40 MLOAD DUP1 DUP4 SUB DUP2 PUSH1 0x0 DUP8 GAS CALL ISZERO DUP1 ISZERO PUSH2 0xDF0 JUMPI RETURNDATASIZE PUSH1 0x0 DUP1 RETURNDATACOPY RETURNDATASIZE PUSH1 0x0 REVERT JUMPDEST POP POP POP POP PUSH1 0x40 MLOAD RETURNDATASIZE PUSH1 0x0 DUP3 RETURNDATACOPY PUSH1 0x1F RETURNDATASIZE SWAP1 DUP2 ADD PUSH1 0x1F NOT AND DUP3 ADD PUSH1 0x40 MSTORE PUSH2 0x73B SWAP2 SWAP1 DUP2 ADD SWAP1 PUSH2 0x154E JUMP JUMPDEST PUSH1 0x1 PUSH1 0x1 PUSH1 0xA0 SHL SUB SWAP2 DUP3 AND PUSH1 0x0 SWAP1 DUP2 MSTORE PUSH1 0x1 PUSH1 0x20 SWAP1 DUP2 MSTORE PUSH1 0x40 DUP1 DUP4 KECCAK256 SWAP4 SWAP1 SWAP5 AND DUP3 MSTORE SWAP2 SWAP1 SWAP2 MSTORE KECCAK256 SLOAD SWAP1 JUMP JUMPDEST PUSH2 0xE4B PUSH2 0x11F8 JUMP JUMPDEST PUSH1 0x1 PUSH1 0x1 PUSH1 0xA0 SHL SUB DUP2 AND PUSH2 0xEB0 JUMPI PUSH1 0x40 MLOAD PUSH3 0x461BCD PUSH1 0xE5 SHL DUP2 MSTORE PUSH1 0x20 PUSH1 0x4 DUP3 ADD MSTORE PUSH1 0x26 PUSH1 0x24 DUP3 ADD MSTORE PUSH32 0x4F776E61626C653A206E6577206F776E657220697320746865207A65726F2061 PUSH1 0x44 DUP3 ADD MSTORE PUSH6 0x646472657373 PUSH1 0xD0 SHL PUSH1 0x64 DUP3 ADD MSTORE PUSH1 0x84 ADD PUSH2 0x9EA JUMP JUMPDEST PUSH2 0xEB9 DUP2 PUSH2 0x1252 JUMP JUMPDEST POP JUMP JUMPDEST PUSH1 0x1 PUSH1 0x1 PUSH1 0xA0 SHL SUB DUP4 AND PUSH2 0xF1E JUMPI PUSH1 0x40 MLOAD PUSH3 0x461BCD PUSH1 0xE5 SHL DUP2 MSTORE PUSH1 0x20 PUSH1 0x4 DUP3 ADD MSTORE PUSH1 0x24 DUP1 DUP3 ADD MSTORE PUSH32 0x45524332303A20617070726F76652066726F6D20746865207A65726F20616464 PUSH1 0x44 DUP3 ADD MSTORE PUSH4 0x72657373 PUSH1 0xE0 SHL PUSH1 0x64 DUP3 ADD MSTORE PUSH1 0x84 ADD PUSH2 0x9EA JUMP JUMPDEST PUSH1 0x1 PUSH1 0x1 PUSH1 0xA0 SHL SUB DUP3 AND PUSH2 0xF7F JUMPI PUSH1 0x40 MLOAD PUSH3 0x461BCD PUSH1 0xE5 SHL DUP2 MSTORE PUSH1 0x20 PUSH1 0x4 DUP3 ADD MSTORE PUSH1 0x22 PUSH1 0x24 DUP3 ADD MSTORE PUSH32 0x45524332303A20617070726F766520746F20746865207A65726F206164647265 PUSH1 0x44 DUP3 ADD MSTORE PUSH2 0x7373 PUSH1 0xF0 SHL PUSH1 0x64 DUP3 ADD MSTORE PUSH1 0x84 ADD PUSH2 0x9EA JUMP JUMPDEST PUSH1 0x1 PUSH1 0x1 PUSH1 0xA0 SHL SUB DUP4 DUP2 AND PUSH1 0x0 DUP2 DUP2 MSTORE PUSH1 0x1 PUSH1 0x20 SWAP1 DUP2 MSTORE PUSH1 0x40 DUP1 DUP4 KECCAK256 SWAP5 DUP8 AND DUP1 DUP5 MSTORE SWAP5 DUP3 MSTORE SWAP2 DUP3 SWAP1 KECCAK256 DUP6 SWAP1 SSTORE SWAP1 MLOAD DUP5 DUP2 MSTORE PUSH32 0x8C5BE1E5EBEC7D5BD14F71427D1E84F3DD0314C0F7B2291E5B200AC8C7C3B925 SWAP2 ADD PUSH1 0x40 MLOAD DUP1 SWAP2 SUB SWAP1 LOG3 POP POP POP JUMP JUMPDEST PUSH1 0x0 PUSH2 0xFEC DUP5 DUP5 PUSH2 0xE18 JUMP JUMPDEST SWAP1 POP PUSH1 0x0 NOT DUP2 EQ PUSH2 0x73B JUMPI DUP2 DUP2 LT ISZERO PUSH2 0x1047 JUMPI PUSH1 0x40 MLOAD PUSH3 0x461BCD PUSH1 0xE5 SHL DUP2 MSTORE PUSH1 0x20 PUSH1 0x4 DUP3 ADD MSTORE PUSH1 0x1D PUSH1 0x24 DUP3 ADD MSTORE PUSH32 0x45524332303A20696E73756666696369656E7420616C6C6F77616E6365000000 PUSH1 0x44 DUP3 ADD MSTORE PUSH1 0x64 ADD PUSH2 0x9EA JUMP JUMPDEST PUSH2 0x73B DUP5 DUP5 DUP5 DUP5 SUB PUSH2 0xEBC JUMP JUMPDEST PUSH1 0x1 PUSH1 0x1 PUSH1 0xA0 SHL SUB DUP4 AND PUSH2 0x10B8 JUMPI PUSH1 0x40 MLOAD PUSH3 0x461BCD PUSH1 0xE5 SHL DUP2 MSTORE PUSH1 0x20 PUSH1 0x4 DUP3 ADD MSTORE PUSH1 0x25 PUSH1 0x24 DUP3 ADD MSTORE PUSH32 0x45524332303A207472616E736665722066726F6D20746865207A65726F206164 PUSH1 0x44 DUP3 ADD MSTORE PUSH5 0x6472657373 PUSH1 0xD8 SHL PUSH1 0x64 DUP3 ADD MSTORE PUSH1 0x84 ADD PUSH2 0x9EA JUMP JUMPDEST PUSH1 0x1 PUSH1 0x1 PUSH1 0xA0 SHL SUB DUP3 AND PUSH2 0x111A JUMPI PUSH1 0x40 MLOAD PUSH3 0x461BCD PUSH1 0xE5 SHL DUP2 MSTORE PUSH1 0x20 PUSH1 0x4 DUP3 ADD MSTORE PUSH1 0x23 PUSH1 0x24 DUP3 ADD MSTORE PUSH32 0x45524332303A207472616E7366657220746F20746865207A65726F2061646472 PUSH1 0x44 DUP3 ADD MSTORE PUSH3 0x657373 PUSH1 0xE8 SHL PUSH1 0x64 DUP3 ADD MSTORE PUSH1 0x84 ADD PUSH2 0x9EA JUMP JUMPDEST PUSH1 0x1 PUSH1 0x1 PUSH1 0xA0 SHL SUB DUP4 AND PUSH1 0x0 SWAP1 DUP2 MSTORE PUSH1 0x20 DUP2 SWAP1 MSTORE PUSH1 0x40 SWAP1 KECCAK256 SLOAD DUP2 DUP2 LT ISZERO PUSH2 0x1192 JUMPI PUSH1 0x40 MLOAD PUSH3 0x461BCD PUSH1 0xE5 SHL DUP2 MSTORE PUSH1 0x20 PUSH1 0x4 DUP3 ADD MSTORE PUSH1 0x26 PUSH1 0x24 DUP3 ADD MSTORE PUSH32 0x45524332303A207472616E7366657220616D6F756E7420657863656564732062 PUSH1 0x44 DUP3 ADD MSTORE PUSH6 0x616C616E6365 PUSH1 0xD0 SHL PUSH1 0x64 DUP3 ADD MSTORE PUSH1 0x84 ADD PUSH2 0x9EA JUMP JUMPDEST PUSH1 0x1 PUSH1 0x1 PUSH1 0xA0 SHL SUB DUP5 DUP2 AND PUSH1 0x0 DUP2 DUP2 MSTORE PUSH1 0x20 DUP2 DUP2 MSTORE PUSH1 0x40 DUP1 DUP4 KECCAK256 DUP8 DUP8 SUB SWAP1 SSTORE SWAP4 DUP8 AND DUP1 DUP4 MSTORE SWAP2 DUP5 SWAP1 KECCAK256 DUP1 SLOAD DUP8 ADD SWAP1 SSTORE SWAP3 MLOAD DUP6 DUP2 MSTORE SWAP1 SWAP3 PUSH32 0xDDF252AD1BE2C89B69C2B068FC378DAA952BA7F163C4A11628F55A4DF523B3EF SWAP2 ADD PUSH1 0x40 MLOAD DUP1 SWAP2 SUB SWAP1 LOG3 PUSH2 0x73B JUMP JUMPDEST PUSH1 0x5 SLOAD PUSH1 0x1 PUSH1 0x1 PUSH1 0xA0 SHL SUB AND CALLER EQ PUSH2 0x753 JUMPI PUSH1 0x40 MLOAD PUSH3 0x461BCD PUSH1 0xE5 SHL DUP2 MSTORE PUSH1 0x20 PUSH1 0x4 DUP3 ADD DUP2 SWAP1 MSTORE PUSH1 0x24 DUP3 ADD MSTORE PUSH32 0x4F776E61626C653A2063616C6C6572206973206E6F7420746865206F776E6572 PUSH1 0x44 DUP3 ADD MSTORE PUSH1 0x64 ADD PUSH2 0x9EA JUMP JUMPDEST PUSH1 0x5 DUP1 SLOAD PUSH1 0x1 PUSH1 0x1 PUSH1 0xA0 SHL SUB DUP4 DUP2 AND PUSH1 0x1 PUSH1 0x1 PUSH1 0xA0 SHL SUB NOT DUP4 AND DUP2 OR SWAP1 SWAP4 SSTORE PUSH1 0x40 MLOAD SWAP2 AND SWAP2 SWAP1 DUP3 SWAP1 PUSH32 0x8BE0079C531659141344CD1FD0A4F28419497F9722A3DAAFE3B4186F6B6457E0 SWAP1 PUSH1 0x0 SWAP1 LOG3 POP POP JUMP JUMPDEST PUSH1 0x0 PUSH1 0x20 DUP1 DUP4 MSTORE DUP4 MLOAD DUP1 DUP3 DUP6 ADD MSTORE PUSH1 0x0 JUMPDEST DUP2 DUP2 LT ISZERO PUSH2 0x12D1 JUMPI DUP6 DUP2 ADD DUP4 ADD MLOAD DUP6 DUP3 ADD PUSH1 0x40 ADD MSTORE DUP3 ADD PUSH2 0x12B5 JUMP JUMPDEST POP PUSH1 0x0 PUSH1 0x40 DUP3 DUP7 ADD ADD MSTORE PUSH1 0x40 PUSH1 0x1F NOT PUSH1 0x1F DUP4 ADD AND DUP6 ADD ADD SWAP3 POP POP POP SWAP3 SWAP2 POP POP JUMP JUMPDEST DUP1 CALLDATALOAD PUSH1 0x1 PUSH1 0x1 PUSH1 0xA0 SHL SUB DUP2 AND DUP2 EQ PUSH2 0x1309 JUMPI PUSH1 0x0 DUP1 REVERT JUMPDEST SWAP2 SWAP1 POP JUMP JUMPDEST PUSH1 0x0 DUP1 PUSH1 0x40 DUP4 DUP6 SUB SLT ISZERO PUSH2 0x1321 JUMPI PUSH1 0x0 DUP1 REVERT JUMPDEST PUSH2 0x132A DUP4 PUSH2 0x12F2 JUMP JUMPDEST SWAP5 PUSH1 0x20 SWAP4 SWAP1 SWAP4 ADD CALLDATALOAD SWAP4 POP POP POP JUMP JUMPDEST PUSH1 0x0 DUP1 PUSH1 0x0 PUSH1 0x60 DUP5 DUP7 SUB SLT ISZERO PUSH2 0x134D JUMPI PUSH1 0x0 DUP1 REVERT JUMPDEST PUSH2 0x1356 DUP5 PUSH2 0x12F2 JUMP JUMPDEST SWAP3 POP PUSH2 0x1364 PUSH1 0x20 DUP6 ADD PUSH2 0x12F2 JUMP JUMPDEST SWAP2 POP PUSH1 0x40 DUP5 ADD CALLDATALOAD SWAP1 POP SWAP3 POP SWAP3 POP SWAP3 JUMP JUMPDEST PUSH1 0x0 PUSH1 0x20 DUP3 DUP5 SUB SLT ISZERO PUSH2 0x1386 JUMPI PUSH1 0x0 DUP1 REVERT JUMPDEST POP CALLDATALOAD SWAP2 SWAP1 POP JUMP JUMPDEST PUSH1 0x0 PUSH1 0x20 DUP3 DUP5 SUB SLT ISZERO PUSH2 0x139F JUMPI PUSH1 0x0 DUP1 REVERT JUMPDEST PUSH2 0x13A8 DUP3 PUSH2 0x12F2 JUMP JUMPDEST SWAP4 SWAP3 POP POP POP JUMP JUMPDEST PUSH1 0x0 DUP1 PUSH1 0x40 DUP4 DUP6 SUB SLT ISZERO PUSH2 0x13C2 JUMPI PUSH1 0x0 DUP1 REVERT JUMPDEST PUSH2 0x13CB DUP4 PUSH2 0x12F2 JUMP JUMPDEST SWAP2 POP PUSH2 0x13D9 PUSH1 0x20 DUP5 ADD PUSH2 0x12F2 JUMP JUMPDEST SWAP1 POP SWAP3 POP SWAP3 SWAP1 POP JUMP JUMPDEST PUSH1 0x1 DUP2 DUP2 SHR SWAP1 DUP3 AND DUP1 PUSH2 0x13F6 JUMPI PUSH1 0x7F DUP3 AND SWAP2 POP JUMPDEST PUSH1 0x20 DUP3 LT DUP2 SUB PUSH2 0x1416 JUMPI PUSH4 0x4E487B71 PUSH1 0xE0 SHL PUSH1 0x0 MSTORE PUSH1 0x22 PUSH1 0x4 MSTORE PUSH1 0x24 PUSH1 0x0 REVERT JUMPDEST POP SWAP2 SWAP1 POP JUMP JUMPDEST DUP1 DUP3 ADD DUP1 DUP3 GT ISZERO PUSH2 0x486 JUMPI PUSH4 0x4E487B71 PUSH1 0xE0 SHL PUSH1 0x0 MSTORE PUSH1 0x11 PUSH1 0x4 MSTORE PUSH1 0x24 PUSH1 0x0 REVERT JUMPDEST PUSH1 0x0 PUSH1 0x20 DUP3 DUP5 SUB SLT ISZERO PUSH2 0x144F JUMPI PUSH1 0x0 DUP1 REVERT JUMPDEST DUP2 MLOAD DUP1 ISZERO ISZERO DUP2 EQ PUSH2 0x13A8 JUMPI PUSH1 0x0 DUP1 REVERT JUMPDEST PUSH1 0x0 DUP1 PUSH1 0x0 PUSH1 0x60 DUP5 DUP7 SUB SLT ISZERO PUSH2 0x1474 JUMPI PUSH1 0x0 DUP1 REVERT JUMPDEST DUP4 MLOAD SWAP3 POP PUSH1 0x20 DUP5 ADD MLOAD SWAP2 POP PUSH1 0x40 DUP5 ADD MLOAD SWAP1 POP SWAP3 POP SWAP3 POP SWAP3 JUMP JUMPDEST PUSH1 0x0 DUP1 PUSH1 0x40 DUP4 DUP6 SUB SLT ISZERO PUSH2 0x14A0 JUMPI PUSH1 0x0 DUP1 REVERT JUMPDEST POP POP DUP1 MLOAD PUSH1 0x20 SWAP1 SWAP2 ADD MLOAD SWAP1 SWAP3 SWAP1 SWAP2 POP JUMP JUMPDEST PUSH4 0x4E487B71 PUSH1 0xE0 SHL PUSH1 0x0 MSTORE PUSH1 0x41 PUSH1 0x4 MSTORE PUSH1 0x24 PUSH1 0x0 REVERT JUMPDEST PUSH4 0x4E487B71 PUSH1 0xE0 SHL PUSH1 0x0 MSTORE PUSH1 0x32 PUSH1 0x4 MSTORE PUSH1 0x24 PUSH1 0x0 REVERT JUMPDEST PUSH1 0x0 PUSH1 0xA0 DUP3 ADD DUP8 DUP4 MSTORE PUSH1 0x20 DUP8 DUP2 DUP6 ADD MSTORE PUSH1 0xA0 PUSH1 0x40 DUP6 ADD MSTORE DUP2 DUP8 MLOAD DUP1 DUP5 MSTORE PUSH1 0xC0 DUP7 ADD SWAP2 POP DUP3 DUP10 ADD SWAP4 POP PUSH1 0x0 JUMPDEST DUP2 DUP2 LT ISZERO PUSH2 0x152D JUMPI DUP5 MLOAD PUSH1 0x1 PUSH1 0x1 PUSH1 0xA0 SHL SUB AND DUP4 MSTORE SWAP4 DUP4 ADD SWAP4 SWAP2 DUP4 ADD SWAP2 PUSH1 0x1 ADD PUSH2 0x1508 JUMP JUMPDEST POP POP PUSH1 0x1 PUSH1 0x1 PUSH1 0xA0 SHL SUB SWAP7 SWAP1 SWAP7 AND PUSH1 0x60 DUP6 ADD MSTORE POP POP POP PUSH1 0x80 ADD MSTORE SWAP4 SWAP3 POP POP POP JUMP JUMPDEST PUSH1 0x0 PUSH1 0x20 DUP1 DUP4 DUP6 SUB SLT ISZERO PUSH2 0x1561 JUMPI PUSH1 0x0 DUP1 REVERT JUMPDEST DUP3 MLOAD PUSH8 0xFFFFFFFFFFFFFFFF DUP1 DUP3 GT ISZERO PUSH2 0x1579 JUMPI PUSH1 0x0 DUP1 REVERT JUMPDEST DUP2 DUP6 ADD SWAP2 POP DUP6 PUSH1 0x1F DUP4 ADD SLT PUSH2 0x158D JUMPI PUSH1 0x0 DUP1 REVERT JUMPDEST DUP2 MLOAD DUP2 DUP2 GT ISZERO PUSH2 0x159F JUMPI PUSH2 0x159F PUSH2 0x14B1 JUMP JUMPDEST DUP1 PUSH1 0x5 SHL PUSH1 0x40 MLOAD PUSH1 0x1F NOT PUSH1 0x3F DUP4 ADD AND DUP2 ADD DUP2 DUP2 LT DUP6 DUP3 GT OR ISZERO PUSH2 0x15C4 JUMPI PUSH2 0x15C4 PUSH2 0x14B1 JUMP JUMPDEST PUSH1 0x40 MSTORE SWAP2 DUP3 MSTORE DUP5 DUP3 ADD SWAP3 POP DUP4 DUP2 ADD DUP6 ADD SWAP2 DUP9 DUP4 GT ISZERO PUSH2 0x15E2 JUMPI PUSH1 0x0 DUP1 REVERT JUMPDEST SWAP4 DUP6 ADD SWAP4 JUMPDEST DUP3 DUP6 LT ISZERO PUSH2 0x1600 JUMPI DUP5 MLOAD DUP5 MSTORE SWAP4 DUP6 ADD SWAP4 SWAP3 DUP6 ADD SWAP3 PUSH2 0x15E7 JUMP JUMPDEST SWAP9 SWAP8 POP POP POP POP POP POP POP POP JUMP INVALID LOG2 PUSH5 0x6970667358 0x22 SLT KECCAK256 SWAP14 PUSH19 0x192404EBA2B32B8D7E247F08124AF2DED71EF9 SWAP10 0xEC SWAP10 MUL 0xD3 0xBD DUP8 0xCF PUSH26 0x3AB864736F6C6343000813003300000000000000000000000000 ",
  "sha1": "9445de326dbe5385dc51066e0beb49cccf37e388",
  "source": "// SCH Course Copyright Policy (C): DO-NOT-SHARE-WITH-ANYONE\n// https://smartcontractshacking.com/#copyright-policy\npragma solidity ^0.8.13;\n\nimport \"@openzeppelin/contracts/utils/Address.sol\";\nimport \"@openzeppelin/contracts/token/ERC20/IERC20.sol\";\nimport \"@openzeppelin/contracts/token/ERC20/ERC20.sol\";\nimport \"@openzeppelin/contracts/access/Ownable.sol\";\n\nimport \"../interfaces/IUniswapV2.sol\";\ninterface IWETH is IERC20 {\n    function deposit() external payable;\n    function transfer(address to, uint value) external returns (bool);\n    function withdraw(uint) external;\n}\n\n/**\n * @title Chocolate\n * @author JohnnyTime (https://smartcontractshacking.com)\n */\ncontract Chocolate is ERC20, Ownable {\n\n    using Address for address payable;\n\n    IUniswapV2Router02 public immutable uniswapV2Router;\n\n    address public immutable weth;\n    address public uniswapV2Pair;\n    \n    constructor(uint256 _initialMint) ERC20(\"Chocolate Token\", \"Choc\") {\n\n        // TODO: Mint tokens to owner\n        _mint(owner(), _initialMint);\n        \n        // TODO: SET Uniswap Router Contract\n        uniswapV2Router = IUniswapV2Router02(0x7a250d5630B4cF539739dF2C5dAcb4c659F2488D);\n\n        // TODO: Set WETH (get it from the router)\n        weth = uniswapV2Router.WETH();\n\n        // TODO: Create a uniswap Pair with WETH, and store it in the contract\n        uniswapV2Pair = IUniswapV2Factory(uniswapV2Router.factory()).createPair(address(this), weth);\n    }\n\n    /*\n        @dev An admin function to add liquidity of chocolate with WETH \n        @dev payable, received Native ETH and converts it to WETH\n        @dev lp tokens are sent to contract owner\n    */\n    function addChocolateLiquidity(uint256 _tokenAmount) external payable onlyOwner {\n\n        // TODO: Transfer the tokens from the sender to the contract\n        // Sender should approve the contract spending the chocolate tokens\n        _transfer(msg.sender, address(this), _tokenAmount);\n        \n        // TODO: Convert ETH to WETH\n        IWETH(weth).deposit{value: msg.value}();\n\n        // TODO: Approve the router to spend the tokens\n        IWETH(weth).approve(address(uniswapV2Router), msg.value);\n        _approve(address(this), address(uniswapV2Router), _tokenAmount);\n\n        // TODO: Add the liquidity, using the router, send lp tokens to the contract owner\n        uniswapV2Router.addLiquidity(\n            address(this),\n            weth,\n            _tokenAmount,\n            msg.value,\n            1,\n            1,\n            owner(),\n            block.timestamp\n        );\n    }\n    \n    /*\n        @dev An admin function to remove liquidity of chocolate with WETH \n        @dev received `_lpTokensToRemove`, removes the liquidity\n        @dev and sends the tokens to the contract owner\n    */\n    function removeChocolateLiquidity(uint256 _lpTokensToRemove) external onlyOwner {\n        \n        // TODO: Transfer the lp tokens from the sender to the contract\n        // Sender should approve token spending for the contract\n        IERC20(uniswapV2Pair).transferFrom(msg.sender, address(this), _lpTokensToRemove);\n\n        // TODO: Approve the router to spend the tokens\n        IERC20(uniswapV2Pair).approve(address(uniswapV2Router), _lpTokensToRemove);\n    \n        // TODO: Remove the liquiduity using the router, send tokens to the owner\n        uniswapV2Router.removeLiquidity(\n            address(this),\n            weth,\n            _lpTokensToRemove,\n            1,\n            1,\n            owner(),\n            block.timestamp\n        );\n    }\n\n    /*\n        @dev User facing helper function to swap chocolate to WETH and ETH to chocolate\n        @dev received `_lpTokensToRemove`, removes the liquidity\n        @dev and sends the tokens to the contract user that swapped\n    */\n    function swapChocolates(address _tokenIn, uint256 _amountIn) public payable {\n\n        // TODO: Implement a dynamic function to swap Chocolate to ETH or ETH to Chocolate\n        address[] memory path = new address[](2);\n        \n        if(_tokenIn == address(this)) {\n            // TODO: Revert if the user sent ETH\n            require(msg.value == 0, \"you shouldn't send ETH while swapping chocolates\");\n            \n            // TODO: Set the path array\n            path[0] = address(this);\n            path[1] = weth;\n            \n            // TODO: Transfer the chocolate tokens from the sender to this contract\n            _transfer(msg.sender, address(this), _amountIn);\n\n            // TODO: Approve the router to spend the chocolate tokens\n            _approve(address(this), address(uniswapV2Router), _amountIn);\n            \n        } else if(_tokenIn == weth) {\n            // TODO: Convert ETH to WETH\n            IWETH(weth).deposit{value: msg.value}();\n            \n            // TODO: Set the path array\n            path[0] = weth;\n            path[1] = address(this);\n            \n            // TODO: Approve the router to spend the WETH\n            IWETH(weth).approve(address(uniswapV2Router), msg.value);\n        } else {\n            revert(\"wrong token\");\n        }\n\n        // TODO: Execute the swap, send the tokens (chocolate / weth) directly to the user (msg.sender)\n        uniswapV2Router.swapExactTokensForTokens(\n            _amountIn,\n            0,\n            path,\n            msg.sender,\n            block.timestamp\n        );\n    }\n}",
  "sourcePath": "contracts/dex-1/Chocolate.sol",
  "type": "contract"
}