{
  "abi": [
    {
      "inputs": [
        {
          "internalType": "address",
          "name": "_comptroller",
          "type": "address"
        },
        {
          "internalType": "address",
          "name": "_cUsdc",
          "type": "address"
        },
        {
          "internalType": "address",
          "name": "_cDai",
          "type": "address"
        }
      ],
      "stateMutability": "nonpayable",
      "type": "constructor"
    },
    {
      "anonymous": false,
      "inputs": [
        {
          "indexed": true,
          "internalType": "address",
          "name": "previousOwner",
          "type": "address"
        },
        {
          "indexed": true,
          "internalType": "address",
          "name": "newOwner",
          "type": "address"
        }
      ],
      "name": "OwnershipTransferred",
      "type": "event"
    },
    {
      "inputs": [],
      "name": "allowUSDCAsCollateral",
      "outputs": [],
      "stateMutability": "nonpayable",
      "type": "function"
    },
    {
      "inputs": [
        {
          "internalType": "uint256",
          "name": "_amount",
          "type": "uint256"
        }
      ],
      "name": "borrow",
      "outputs": [],
      "stateMutability": "nonpayable",
      "type": "function"
    },
    {
      "inputs": [],
      "name": "borrowedAmount",
      "outputs": [
        {
          "internalType": "uint256",
          "name": "",
          "type": "uint256"
        }
      ],
      "stateMutability": "view",
      "type": "function"
    },
    {
      "inputs": [
        {
          "internalType": "uint256",
          "name": "_amount",
          "type": "uint256"
        }
      ],
      "name": "deposit",
      "outputs": [],
      "stateMutability": "nonpayable",
      "type": "function"
    },
    {
      "inputs": [],
      "name": "depositedAmount",
      "outputs": [
        {
          "internalType": "uint256",
          "name": "",
          "type": "uint256"
        }
      ],
      "stateMutability": "view",
      "type": "function"
    },
    {
      "inputs": [],
      "name": "owner",
      "outputs": [
        {
          "internalType": "address",
          "name": "",
          "type": "address"
        }
      ],
      "stateMutability": "view",
      "type": "function"
    },
    {
      "inputs": [],
      "name": "renounceOwnership",
      "outputs": [],
      "stateMutability": "nonpayable",
      "type": "function"
    },
    {
      "inputs": [
        {
          "internalType": "uint256",
          "name": "_amount",
          "type": "uint256"
        }
      ],
      "name": "repay",
      "outputs": [],
      "stateMutability": "nonpayable",
      "type": "function"
    },
    {
      "inputs": [
        {
          "internalType": "address",
          "name": "newOwner",
          "type": "address"
        }
      ],
      "name": "transferOwnership",
      "outputs": [],
      "stateMutability": "nonpayable",
      "type": "function"
    },
    {
      "inputs": [
        {
          "internalType": "uint256",
          "name": "_amount",
          "type": "uint256"
        }
      ],
      "name": "withdraw",
      "outputs": [],
      "stateMutability": "nonpayable",
      "type": "function"
    }
  ],
  "bytecode": "608060405234801561001057600080fd5b5060405162000cfe38038062000cfe833981016040819052610031916101ec565b61003a33610180565b600180546001600160a01b038086166001600160a01b031992831617909255600480548584169083168117825560058054948616949093169390931790915560408051636f307dc360e01b81529051636f307dc3928281019260209291908290030181865afa1580156100b1573d6000803e3d6000fd5b505050506040513d601f19601f820116820180604052508101906100d5919061022f565b600280546001600160a01b0319166001600160a01b0392831617905560055460408051636f307dc360e01b815290519190921691636f307dc39160048083019260209291908290030181865afa158015610133573d6000803e3d6000fd5b505050506040513d601f19601f82011682018060405250810190610157919061022f565b600380546001600160a01b0319166001600160a01b039290921691909117905550610251915050565b600080546001600160a01b038381166001600160a01b0319831681178455604051919092169283917f8be0079c531659141344cd1fd0a4f28419497f9722a3daafe3b4186f6b6457e09190a35050565b80516001600160a01b03811681146101e757600080fd5b919050565b60008060006060848603121561020157600080fd5b61020a846101d0565b9250610218602085016101d0565b9150610226604085016101d0565b90509250925092565b60006020828403121561024157600080fd5b61024a826101d0565b9392505050565b610a9d80620002616000396000f3fe608060405234801561001057600080fd5b506004361061009e5760003560e01c80638da5cb5b116100665780638da5cb5b146100f8578063a9c6684c14610113578063b6b55f251461011b578063c5ebeaec1461012e578063f2fde38b1461014157600080fd5b80631afbb7a4146100a35780631d01364c146100bf5780632e1a7d4d146100c8578063371fd8e6146100dd578063715018a6146100f0575b600080fd5b6100ac60075481565b6040519081526020015b60405180910390f35b6100ac60065481565b6100db6100d636600461086a565b610154565b005b6100db6100eb36600461086a565b6102ac565b6100db61046b565b6000546040516001600160a01b0390911681526020016100b6565b6100db61047f565b6100db61012936600461086a565b61054d565b6100db61013c36600461086a565b61068f565b6100db61014f366004610883565b610747565b61015c6107c0565b8060065410156101b35760405162461bcd60e51b815260206004820152601760248201527f4e6f742065656e6f75676874206465706f73697465642100000000000000000060448201526064015b60405180910390fd5b806006546101c191906108c9565b6006556004805460405163852a12e360e01b81529182018390526001600160a01b03169063852a12e3906024016020604051808303816000875af115801561020d573d6000803e3d6000fd5b505050506040513d601f19601f8201168201806040525081019061023191906108e2565b5060025460405163a9059cbb60e01b8152336004820152602481018390526001600160a01b039091169063a9059cbb906044015b6020604051808303816000875af1158015610284573d6000803e3d6000fd5b505050506040513d601f19601f820116820180604052508101906102a891906108fb565b5050565b6102b46107c0565b6007548111156102f45760405162461bcd60e51b815260206004820152600b60248201526a4f766572706179696e672160a81b60448201526064016101aa565b8060075461030291906108c9565b6007556003546040516323b872dd60e01b8152336004820152306024820152604481018390526001600160a01b03909116906323b872dd906064016020604051808303816000875af115801561035c573d6000803e3d6000fd5b505050506040513d601f19601f8201168201806040525081019061038091906108fb565b5060035460055460405163095ea7b360e01b81526001600160a01b0391821660048201526024810184905291169063095ea7b3906044016020604051808303816000875af11580156103d6573d6000803e3d6000fd5b505050506040513d601f19601f820116820180604052508101906103fa91906108fb565b5060055460405163073a938160e11b8152600481018390526001600160a01b0390911690630e752702906024015b6020604051808303816000875af1158015610447573d6000803e3d6000fd5b505050506040513d601f19601f820116820180604052508101906102a891906108e2565b6104736107c0565b61047d600061081a565b565b6104876107c0565b60408051600180825281830190925260009160208083019080368337505060045482519293506001600160a01b0316918391506000906104c9576104c9610933565b6001600160a01b039283166020918202929092010152600154604051631853304760e31b815291169063c299823890610506908490600401610949565b6000604051808303816000875af1158015610525573d6000803e3d6000fd5b505050506040513d6000823e601f3d908101601f191682016040526102a89190810190610996565b6105556107c0565b806006546105639190610a54565b6006556002546040516323b872dd60e01b8152336004820152306024820152604481018390526001600160a01b03909116906323b872dd906064016020604051808303816000875af11580156105bd573d6000803e3d6000fd5b505050506040513d601f19601f820116820180604052508101906105e191906108fb565b506002546004805460405163095ea7b360e01b81526001600160a01b0391821692810192909252602482018490529091169063095ea7b3906044016020604051808303816000875af115801561063b573d6000803e3d6000fd5b505050506040513d601f19601f8201168201806040525081019061065f91906108fb565b506004805460405163140e25ad60e31b81529182018390526001600160a01b03169063a0712d6890602401610428565b8060075461069d9190610a54565b60075560055460405163317afabb60e21b8152600481018390526001600160a01b039091169063c5ebeaec906024016020604051808303816000875af11580156106eb573d6000803e3d6000fd5b505050506040513d601f19601f8201168201806040525081019061070f91906108e2565b5060035460405163a9059cbb60e01b8152336004820152602481018390526001600160a01b039091169063a9059cbb90604401610265565b61074f6107c0565b6001600160a01b0381166107b45760405162461bcd60e51b815260206004820152602660248201527f4f776e61626c653a206e6577206f776e657220697320746865207a65726f206160448201526564647265737360d01b60648201526084016101aa565b6107bd8161081a565b50565b6000546001600160a01b0316331461047d5760405162461bcd60e51b815260206004820181905260248201527f4f776e61626c653a2063616c6c6572206973206e6f7420746865206f776e657260448201526064016101aa565b600080546001600160a01b038381166001600160a01b0319831681178455604051919092169283917f8be0079c531659141344cd1fd0a4f28419497f9722a3daafe3b4186f6b6457e09190a35050565b60006020828403121561087c57600080fd5b5035919050565b60006020828403121561089557600080fd5b81356001600160a01b03811681146108ac57600080fd5b9392505050565b634e487b7160e01b600052601160045260246000fd5b818103818111156108dc576108dc6108b3565b92915050565b6000602082840312156108f457600080fd5b5051919050565b60006020828403121561090d57600080fd5b815180151581146108ac57600080fd5b634e487b7160e01b600052604160045260246000fd5b634e487b7160e01b600052603260045260246000fd5b6020808252825182820181905260009190848201906040850190845b8181101561098a5783516001600160a01b031683529284019291840191600101610965565b50909695505050505050565b600060208083850312156109a957600080fd5b825167ffffffffffffffff808211156109c157600080fd5b818501915085601f8301126109d557600080fd5b8151818111156109e7576109e761091d565b8060051b604051601f19603f83011681018181108582111715610a0c57610a0c61091d565b604052918252848201925083810185019188831115610a2a57600080fd5b938501935b82851015610a4857845184529385019392850192610a2f565b98975050505050505050565b808201808211156108dc576108dc6108b356fea2646970667358221220f1e81f3d2e5c1415d8bca188f8e4481e8ec0f7dc92251235f083cae02f858ec164736f6c63430008130033",
  "bytecodeSha1": "8071cef17eae9286219078e4080c808b5472843a",
  "compiler": {
    "evm_version": "istanbul",
    "optimizer": {
      "enabled": true,
      "runs": 200
    },
    "version": "0.8.19+commit.7dd6d404"
  },
  "contractName": "CompoundUser",
  "language": "Solidity",
  "natspec": {
    "kind": "dev",
    "methods": {
      "owner()": {
        "details": "Returns the address of the current owner."
      },
      "renounceOwnership()": {
        "details": "Leaves the contract without owner. It will not be possible to call `onlyOwner` functions anymore. Can only be called by the current owner. NOTE: Renouncing ownership will leave the contract without an owner, thereby removing any functionality that is only available to the owner."
      },
      "transferOwnership(address)": {
        "details": "Transfers ownership of the contract to a new account (`newOwner`). Can only be called by the current owner."
      }
    },
    "version": 1
  },
  "opcodes": "PUSH1 0x80 PUSH1 0x40 MSTORE CALLVALUE DUP1 ISZERO PUSH2 0x10 JUMPI PUSH1 0x0 DUP1 REVERT JUMPDEST POP PUSH1 0x4 CALLDATASIZE LT PUSH2 0x9E JUMPI PUSH1 0x0 CALLDATALOAD PUSH1 0xE0 SHR DUP1 PUSH4 0x8DA5CB5B GT PUSH2 0x66 JUMPI DUP1 PUSH4 0x8DA5CB5B EQ PUSH2 0xF8 JUMPI DUP1 PUSH4 0xA9C6684C EQ PUSH2 0x113 JUMPI DUP1 PUSH4 0xB6B55F25 EQ PUSH2 0x11B JUMPI DUP1 PUSH4 0xC5EBEAEC EQ PUSH2 0x12E JUMPI DUP1 PUSH4 0xF2FDE38B EQ PUSH2 0x141 JUMPI PUSH1 0x0 DUP1 REVERT JUMPDEST DUP1 PUSH4 0x1AFBB7A4 EQ PUSH2 0xA3 JUMPI DUP1 PUSH4 0x1D01364C EQ PUSH2 0xBF JUMPI DUP1 PUSH4 0x2E1A7D4D EQ PUSH2 0xC8 JUMPI DUP1 PUSH4 0x371FD8E6 EQ PUSH2 0xDD JUMPI DUP1 PUSH4 0x715018A6 EQ PUSH2 0xF0 JUMPI JUMPDEST PUSH1 0x0 DUP1 REVERT JUMPDEST PUSH2 0xAC PUSH1 0x7 SLOAD DUP2 JUMP JUMPDEST PUSH1 0x40 MLOAD SWAP1 DUP2 MSTORE PUSH1 0x20 ADD JUMPDEST PUSH1 0x40 MLOAD DUP1 SWAP2 SUB SWAP1 RETURN JUMPDEST PUSH2 0xAC PUSH1 0x6 SLOAD DUP2 JUMP JUMPDEST PUSH2 0xDB PUSH2 0xD6 CALLDATASIZE PUSH1 0x4 PUSH2 0x86A JUMP JUMPDEST PUSH2 0x154 JUMP JUMPDEST STOP JUMPDEST PUSH2 0xDB PUSH2 0xEB CALLDATASIZE PUSH1 0x4 PUSH2 0x86A JUMP JUMPDEST PUSH2 0x2AC JUMP JUMPDEST PUSH2 0xDB PUSH2 0x46B JUMP JUMPDEST PUSH1 0x0 SLOAD PUSH1 0x40 MLOAD PUSH1 0x1 PUSH1 0x1 PUSH1 0xA0 SHL SUB SWAP1 SWAP2 AND DUP2 MSTORE PUSH1 0x20 ADD PUSH2 0xB6 JUMP JUMPDEST PUSH2 0xDB PUSH2 0x47F JUMP JUMPDEST PUSH2 0xDB PUSH2 0x129 CALLDATASIZE PUSH1 0x4 PUSH2 0x86A JUMP JUMPDEST PUSH2 0x54D JUMP JUMPDEST PUSH2 0xDB PUSH2 0x13C CALLDATASIZE PUSH1 0x4 PUSH2 0x86A JUMP JUMPDEST PUSH2 0x68F JUMP JUMPDEST PUSH2 0xDB PUSH2 0x14F CALLDATASIZE PUSH1 0x4 PUSH2 0x883 JUMP JUMPDEST PUSH2 0x747 JUMP JUMPDEST PUSH2 0x15C PUSH2 0x7C0 JUMP JUMPDEST DUP1 PUSH1 0x6 SLOAD LT ISZERO PUSH2 0x1B3 JUMPI PUSH1 0x40 MLOAD PUSH3 0x461BCD PUSH1 0xE5 SHL DUP2 MSTORE PUSH1 0x20 PUSH1 0x4 DUP3 ADD MSTORE PUSH1 0x17 PUSH1 0x24 DUP3 ADD MSTORE PUSH32 0x4E6F742065656E6F75676874206465706F736974656421000000000000000000 PUSH1 0x44 DUP3 ADD MSTORE PUSH1 0x64 ADD JUMPDEST PUSH1 0x40 MLOAD DUP1 SWAP2 SUB SWAP1 REVERT JUMPDEST DUP1 PUSH1 0x6 SLOAD PUSH2 0x1C1 SWAP2 SWAP1 PUSH2 0x8C9 JUMP JUMPDEST PUSH1 0x6 SSTORE PUSH1 0x4 DUP1 SLOAD PUSH1 0x40 MLOAD PUSH4 0x852A12E3 PUSH1 0xE0 SHL DUP2 MSTORE SWAP2 DUP3 ADD DUP4 SWAP1 MSTORE PUSH1 0x1 PUSH1 0x1 PUSH1 0xA0 SHL SUB AND SWAP1 PUSH4 0x852A12E3 SWAP1 PUSH1 0x24 ADD PUSH1 0x20 PUSH1 0x40 MLOAD DUP1 DUP4 SUB DUP2 PUSH1 0x0 DUP8 GAS CALL ISZERO DUP1 ISZERO PUSH2 0x20D JUMPI RETURNDATASIZE PUSH1 0x0 DUP1 RETURNDATACOPY RETURNDATASIZE PUSH1 0x0 REVERT JUMPDEST POP POP POP POP PUSH1 0x40 MLOAD RETURNDATASIZE PUSH1 0x1F NOT PUSH1 0x1F DUP3 ADD AND DUP3 ADD DUP1 PUSH1 0x40 MSTORE POP DUP2 ADD SWAP1 PUSH2 0x231 SWAP2 SWAP1 PUSH2 0x8E2 JUMP JUMPDEST POP PUSH1 0x2 SLOAD PUSH1 0x40 MLOAD PUSH4 0xA9059CBB PUSH1 0xE0 SHL DUP2 MSTORE CALLER PUSH1 0x4 DUP3 ADD MSTORE PUSH1 0x24 DUP2 ADD DUP4 SWAP1 MSTORE PUSH1 0x1 PUSH1 0x1 PUSH1 0xA0 SHL SUB SWAP1 SWAP2 AND SWAP1 PUSH4 0xA9059CBB SWAP1 PUSH1 0x44 ADD JUMPDEST PUSH1 0x20 PUSH1 0x40 MLOAD DUP1 DUP4 SUB DUP2 PUSH1 0x0 DUP8 GAS CALL ISZERO DUP1 ISZERO PUSH2 0x284 JUMPI RETURNDATASIZE PUSH1 0x0 DUP1 RETURNDATACOPY RETURNDATASIZE PUSH1 0x0 REVERT JUMPDEST POP POP POP POP PUSH1 0x40 MLOAD RETURNDATASIZE PUSH1 0x1F NOT PUSH1 0x1F DUP3 ADD AND DUP3 ADD DUP1 PUSH1 0x40 MSTORE POP DUP2 ADD SWAP1 PUSH2 0x2A8 SWAP2 SWAP1 PUSH2 0x8FB JUMP JUMPDEST POP POP JUMP JUMPDEST PUSH2 0x2B4 PUSH2 0x7C0 JUMP JUMPDEST PUSH1 0x7 SLOAD DUP2 GT ISZERO PUSH2 0x2F4 JUMPI PUSH1 0x40 MLOAD PUSH3 0x461BCD PUSH1 0xE5 SHL DUP2 MSTORE PUSH1 0x20 PUSH1 0x4 DUP3 ADD MSTORE PUSH1 0xB PUSH1 0x24 DUP3 ADD MSTORE PUSH11 0x4F766572706179696E6721 PUSH1 0xA8 SHL PUSH1 0x44 DUP3 ADD MSTORE PUSH1 0x64 ADD PUSH2 0x1AA JUMP JUMPDEST DUP1 PUSH1 0x7 SLOAD PUSH2 0x302 SWAP2 SWAP1 PUSH2 0x8C9 JUMP JUMPDEST PUSH1 0x7 SSTORE PUSH1 0x3 SLOAD PUSH1 0x40 MLOAD PUSH4 0x23B872DD PUSH1 0xE0 SHL DUP2 MSTORE CALLER PUSH1 0x4 DUP3 ADD MSTORE ADDRESS PUSH1 0x24 DUP3 ADD MSTORE PUSH1 0x44 DUP2 ADD DUP4 SWAP1 MSTORE PUSH1 0x1 PUSH1 0x1 PUSH1 0xA0 SHL SUB SWAP1 SWAP2 AND SWAP1 PUSH4 0x23B872DD SWAP1 PUSH1 0x64 ADD PUSH1 0x20 PUSH1 0x40 MLOAD DUP1 DUP4 SUB DUP2 PUSH1 0x0 DUP8 GAS CALL ISZERO DUP1 ISZERO PUSH2 0x35C JUMPI RETURNDATASIZE PUSH1 0x0 DUP1 RETURNDATACOPY RETURNDATASIZE PUSH1 0x0 REVERT JUMPDEST POP POP POP POP PUSH1 0x40 MLOAD RETURNDATASIZE PUSH1 0x1F NOT PUSH1 0x1F DUP3 ADD AND DUP3 ADD DUP1 PUSH1 0x40 MSTORE POP DUP2 ADD SWAP1 PUSH2 0x380 SWAP2 SWAP1 PUSH2 0x8FB JUMP JUMPDEST POP PUSH1 0x3 SLOAD PUSH1 0x5 SLOAD PUSH1 0x40 MLOAD PUSH4 0x95EA7B3 PUSH1 0xE0 SHL DUP2 MSTORE PUSH1 0x1 PUSH1 0x1 PUSH1 0xA0 SHL SUB SWAP2 DUP3 AND PUSH1 0x4 DUP3 ADD MSTORE PUSH1 0x24 DUP2 ADD DUP5 SWAP1 MSTORE SWAP2 AND SWAP1 PUSH4 0x95EA7B3 SWAP1 PUSH1 0x44 ADD PUSH1 0x20 PUSH1 0x40 MLOAD DUP1 DUP4 SUB DUP2 PUSH1 0x0 DUP8 GAS CALL ISZERO DUP1 ISZERO PUSH2 0x3D6 JUMPI RETURNDATASIZE PUSH1 0x0 DUP1 RETURNDATACOPY RETURNDATASIZE PUSH1 0x0 REVERT JUMPDEST POP POP POP POP PUSH1 0x40 MLOAD RETURNDATASIZE PUSH1 0x1F NOT PUSH1 0x1F DUP3 ADD AND DUP3 ADD DUP1 PUSH1 0x40 MSTORE POP DUP2 ADD SWAP1 PUSH2 0x3FA SWAP2 SWAP1 PUSH2 0x8FB JUMP JUMPDEST POP PUSH1 0x5 SLOAD PUSH1 0x40 MLOAD PUSH4 0x73A9381 PUSH1 0xE1 SHL DUP2 MSTORE PUSH1 0x4 DUP2 ADD DUP4 SWAP1 MSTORE PUSH1 0x1 PUSH1 0x1 PUSH1 0xA0 SHL SUB SWAP1 SWAP2 AND SWAP1 PUSH4 0xE752702 SWAP1 PUSH1 0x24 ADD JUMPDEST PUSH1 0x20 PUSH1 0x40 MLOAD DUP1 DUP4 SUB DUP2 PUSH1 0x0 DUP8 GAS CALL ISZERO DUP1 ISZERO PUSH2 0x447 JUMPI RETURNDATASIZE PUSH1 0x0 DUP1 RETURNDATACOPY RETURNDATASIZE PUSH1 0x0 REVERT JUMPDEST POP POP POP POP PUSH1 0x40 MLOAD RETURNDATASIZE PUSH1 0x1F NOT PUSH1 0x1F DUP3 ADD AND DUP3 ADD DUP1 PUSH1 0x40 MSTORE POP DUP2 ADD SWAP1 PUSH2 0x2A8 SWAP2 SWAP1 PUSH2 0x8E2 JUMP JUMPDEST PUSH2 0x473 PUSH2 0x7C0 JUMP JUMPDEST PUSH2 0x47D PUSH1 0x0 PUSH2 0x81A JUMP JUMPDEST JUMP JUMPDEST PUSH2 0x487 PUSH2 0x7C0 JUMP JUMPDEST PUSH1 0x40 DUP1 MLOAD PUSH1 0x1 DUP1 DUP3 MSTORE DUP2 DUP4 ADD SWAP1 SWAP3 MSTORE PUSH1 0x0 SWAP2 PUSH1 0x20 DUP1 DUP4 ADD SWAP1 DUP1 CALLDATASIZE DUP4 CALLDATACOPY POP POP PUSH1 0x4 SLOAD DUP3 MLOAD SWAP3 SWAP4 POP PUSH1 0x1 PUSH1 0x1 PUSH1 0xA0 SHL SUB AND SWAP2 DUP4 SWAP2 POP PUSH1 0x0 SWAP1 PUSH2 0x4C9 JUMPI PUSH2 0x4C9 PUSH2 0x933 JUMP JUMPDEST PUSH1 0x1 PUSH1 0x1 PUSH1 0xA0 SHL SUB SWAP3 DUP4 AND PUSH1 0x20 SWAP2 DUP3 MUL SWAP3 SWAP1 SWAP3 ADD ADD MSTORE PUSH1 0x1 SLOAD PUSH1 0x40 MLOAD PUSH4 0x18533047 PUSH1 0xE3 SHL DUP2 MSTORE SWAP2 AND SWAP1 PUSH4 0xC2998238 SWAP1 PUSH2 0x506 SWAP1 DUP5 SWAP1 PUSH1 0x4 ADD PUSH2 0x949 JUMP JUMPDEST PUSH1 0x0 PUSH1 0x40 MLOAD DUP1 DUP4 SUB DUP2 PUSH1 0x0 DUP8 GAS CALL ISZERO DUP1 ISZERO PUSH2 0x525 JUMPI RETURNDATASIZE PUSH1 0x0 DUP1 RETURNDATACOPY RETURNDATASIZE PUSH1 0x0 REVERT JUMPDEST POP POP POP POP PUSH1 0x40 MLOAD RETURNDATASIZE PUSH1 0x0 DUP3 RETURNDATACOPY PUSH1 0x1F RETURNDATASIZE SWAP1 DUP2 ADD PUSH1 0x1F NOT AND DUP3 ADD PUSH1 0x40 MSTORE PUSH2 0x2A8 SWAP2 SWAP1 DUP2 ADD SWAP1 PUSH2 0x996 JUMP JUMPDEST PUSH2 0x555 PUSH2 0x7C0 JUMP JUMPDEST DUP1 PUSH1 0x6 SLOAD PUSH2 0x563 SWAP2 SWAP1 PUSH2 0xA54 JUMP JUMPDEST PUSH1 0x6 SSTORE PUSH1 0x2 SLOAD PUSH1 0x40 MLOAD PUSH4 0x23B872DD PUSH1 0xE0 SHL DUP2 MSTORE CALLER PUSH1 0x4 DUP3 ADD MSTORE ADDRESS PUSH1 0x24 DUP3 ADD MSTORE PUSH1 0x44 DUP2 ADD DUP4 SWAP1 MSTORE PUSH1 0x1 PUSH1 0x1 PUSH1 0xA0 SHL SUB SWAP1 SWAP2 AND SWAP1 PUSH4 0x23B872DD SWAP1 PUSH1 0x64 ADD PUSH1 0x20 PUSH1 0x40 MLOAD DUP1 DUP4 SUB DUP2 PUSH1 0x0 DUP8 GAS CALL ISZERO DUP1 ISZERO PUSH2 0x5BD JUMPI RETURNDATASIZE PUSH1 0x0 DUP1 RETURNDATACOPY RETURNDATASIZE PUSH1 0x0 REVERT JUMPDEST POP POP POP POP PUSH1 0x40 MLOAD RETURNDATASIZE PUSH1 0x1F NOT PUSH1 0x1F DUP3 ADD AND DUP3 ADD DUP1 PUSH1 0x40 MSTORE POP DUP2 ADD SWAP1 PUSH2 0x5E1 SWAP2 SWAP1 PUSH2 0x8FB JUMP JUMPDEST POP PUSH1 0x2 SLOAD PUSH1 0x4 DUP1 SLOAD PUSH1 0x40 MLOAD PUSH4 0x95EA7B3 PUSH1 0xE0 SHL DUP2 MSTORE PUSH1 0x1 PUSH1 0x1 PUSH1 0xA0 SHL SUB SWAP2 DUP3 AND SWAP3 DUP2 ADD SWAP3 SWAP1 SWAP3 MSTORE PUSH1 0x24 DUP3 ADD DUP5 SWAP1 MSTORE SWAP1 SWAP2 AND SWAP1 PUSH4 0x95EA7B3 SWAP1 PUSH1 0x44 ADD PUSH1 0x20 PUSH1 0x40 MLOAD DUP1 DUP4 SUB DUP2 PUSH1 0x0 DUP8 GAS CALL ISZERO DUP1 ISZERO PUSH2 0x63B JUMPI RETURNDATASIZE PUSH1 0x0 DUP1 RETURNDATACOPY RETURNDATASIZE PUSH1 0x0 REVERT JUMPDEST POP POP POP POP PUSH1 0x40 MLOAD RETURNDATASIZE PUSH1 0x1F NOT PUSH1 0x1F DUP3 ADD AND DUP3 ADD DUP1 PUSH1 0x40 MSTORE POP DUP2 ADD SWAP1 PUSH2 0x65F SWAP2 SWAP1 PUSH2 0x8FB JUMP JUMPDEST POP PUSH1 0x4 DUP1 SLOAD PUSH1 0x40 MLOAD PUSH4 0x140E25AD PUSH1 0xE3 SHL DUP2 MSTORE SWAP2 DUP3 ADD DUP4 SWAP1 MSTORE PUSH1 0x1 PUSH1 0x1 PUSH1 0xA0 SHL SUB AND SWAP1 PUSH4 0xA0712D68 SWAP1 PUSH1 0x24 ADD PUSH2 0x428 JUMP JUMPDEST DUP1 PUSH1 0x7 SLOAD PUSH2 0x69D SWAP2 SWAP1 PUSH2 0xA54 JUMP JUMPDEST PUSH1 0x7 SSTORE PUSH1 0x5 SLOAD PUSH1 0x40 MLOAD PUSH4 0x317AFABB PUSH1 0xE2 SHL DUP2 MSTORE PUSH1 0x4 DUP2 ADD DUP4 SWAP1 MSTORE PUSH1 0x1 PUSH1 0x1 PUSH1 0xA0 SHL SUB SWAP1 SWAP2 AND SWAP1 PUSH4 0xC5EBEAEC SWAP1 PUSH1 0x24 ADD PUSH1 0x20 PUSH1 0x40 MLOAD DUP1 DUP4 SUB DUP2 PUSH1 0x0 DUP8 GAS CALL ISZERO DUP1 ISZERO PUSH2 0x6EB JUMPI RETURNDATASIZE PUSH1 0x0 DUP1 RETURNDATACOPY RETURNDATASIZE PUSH1 0x0 REVERT JUMPDEST POP POP POP POP PUSH1 0x40 MLOAD RETURNDATASIZE PUSH1 0x1F NOT PUSH1 0x1F DUP3 ADD AND DUP3 ADD DUP1 PUSH1 0x40 MSTORE POP DUP2 ADD SWAP1 PUSH2 0x70F SWAP2 SWAP1 PUSH2 0x8E2 JUMP JUMPDEST POP PUSH1 0x3 SLOAD PUSH1 0x40 MLOAD PUSH4 0xA9059CBB PUSH1 0xE0 SHL DUP2 MSTORE CALLER PUSH1 0x4 DUP3 ADD MSTORE PUSH1 0x24 DUP2 ADD DUP4 SWAP1 MSTORE PUSH1 0x1 PUSH1 0x1 PUSH1 0xA0 SHL SUB SWAP1 SWAP2 AND SWAP1 PUSH4 0xA9059CBB SWAP1 PUSH1 0x44 ADD PUSH2 0x265 JUMP JUMPDEST PUSH2 0x74F PUSH2 0x7C0 JUMP JUMPDEST PUSH1 0x1 PUSH1 0x1 PUSH1 0xA0 SHL SUB DUP2 AND PUSH2 0x7B4 JUMPI PUSH1 0x40 MLOAD PUSH3 0x461BCD PUSH1 0xE5 SHL DUP2 MSTORE PUSH1 0x20 PUSH1 0x4 DUP3 ADD MSTORE PUSH1 0x26 PUSH1 0x24 DUP3 ADD MSTORE PUSH32 0x4F776E61626C653A206E6577206F776E657220697320746865207A65726F2061 PUSH1 0x44 DUP3 ADD MSTORE PUSH6 0x646472657373 PUSH1 0xD0 SHL PUSH1 0x64 DUP3 ADD MSTORE PUSH1 0x84 ADD PUSH2 0x1AA JUMP JUMPDEST PUSH2 0x7BD DUP2 PUSH2 0x81A JUMP JUMPDEST POP JUMP JUMPDEST PUSH1 0x0 SLOAD PUSH1 0x1 PUSH1 0x1 PUSH1 0xA0 SHL SUB AND CALLER EQ PUSH2 0x47D JUMPI PUSH1 0x40 MLOAD PUSH3 0x461BCD PUSH1 0xE5 SHL DUP2 MSTORE PUSH1 0x20 PUSH1 0x4 DUP3 ADD DUP2 SWAP1 MSTORE PUSH1 0x24 DUP3 ADD MSTORE PUSH32 0x4F776E61626C653A2063616C6C6572206973206E6F7420746865206F776E6572 PUSH1 0x44 DUP3 ADD MSTORE PUSH1 0x64 ADD PUSH2 0x1AA JUMP JUMPDEST PUSH1 0x0 DUP1 SLOAD PUSH1 0x1 PUSH1 0x1 PUSH1 0xA0 SHL SUB DUP4 DUP2 AND PUSH1 0x1 PUSH1 0x1 PUSH1 0xA0 SHL SUB NOT DUP4 AND DUP2 OR DUP5 SSTORE PUSH1 0x40 MLOAD SWAP2 SWAP1 SWAP3 AND SWAP3 DUP4 SWAP2 PUSH32 0x8BE0079C531659141344CD1FD0A4F28419497F9722A3DAAFE3B4186F6B6457E0 SWAP2 SWAP1 LOG3 POP POP JUMP JUMPDEST PUSH1 0x0 PUSH1 0x20 DUP3 DUP5 SUB SLT ISZERO PUSH2 0x87C JUMPI PUSH1 0x0 DUP1 REVERT JUMPDEST POP CALLDATALOAD SWAP2 SWAP1 POP JUMP JUMPDEST PUSH1 0x0 PUSH1 0x20 DUP3 DUP5 SUB SLT ISZERO PUSH2 0x895 JUMPI PUSH1 0x0 DUP1 REVERT JUMPDEST DUP2 CALLDATALOAD PUSH1 0x1 PUSH1 0x1 PUSH1 0xA0 SHL SUB DUP2 AND DUP2 EQ PUSH2 0x8AC JUMPI PUSH1 0x0 DUP1 REVERT JUMPDEST SWAP4 SWAP3 POP POP POP JUMP JUMPDEST PUSH4 0x4E487B71 PUSH1 0xE0 SHL PUSH1 0x0 MSTORE PUSH1 0x11 PUSH1 0x4 MSTORE PUSH1 0x24 PUSH1 0x0 REVERT JUMPDEST DUP2 DUP2 SUB DUP2 DUP2 GT ISZERO PUSH2 0x8DC JUMPI PUSH2 0x8DC PUSH2 0x8B3 JUMP JUMPDEST SWAP3 SWAP2 POP POP JUMP JUMPDEST PUSH1 0x0 PUSH1 0x20 DUP3 DUP5 SUB SLT ISZERO PUSH2 0x8F4 JUMPI PUSH1 0x0 DUP1 REVERT JUMPDEST POP MLOAD SWAP2 SWAP1 POP JUMP JUMPDEST PUSH1 0x0 PUSH1 0x20 DUP3 DUP5 SUB SLT ISZERO PUSH2 0x90D JUMPI PUSH1 0x0 DUP1 REVERT JUMPDEST DUP2 MLOAD DUP1 ISZERO ISZERO DUP2 EQ PUSH2 0x8AC JUMPI PUSH1 0x0 DUP1 REVERT JUMPDEST PUSH4 0x4E487B71 PUSH1 0xE0 SHL PUSH1 0x0 MSTORE PUSH1 0x41 PUSH1 0x4 MSTORE PUSH1 0x24 PUSH1 0x0 REVERT JUMPDEST PUSH4 0x4E487B71 PUSH1 0xE0 SHL PUSH1 0x0 MSTORE PUSH1 0x32 PUSH1 0x4 MSTORE PUSH1 0x24 PUSH1 0x0 REVERT JUMPDEST PUSH1 0x20 DUP1 DUP3 MSTORE DUP3 MLOAD DUP3 DUP3 ADD DUP2 SWAP1 MSTORE PUSH1 0x0 SWAP2 SWAP1 DUP5 DUP3 ADD SWAP1 PUSH1 0x40 DUP6 ADD SWAP1 DUP5 JUMPDEST DUP2 DUP2 LT ISZERO PUSH2 0x98A JUMPI DUP4 MLOAD PUSH1 0x1 PUSH1 0x1 PUSH1 0xA0 SHL SUB AND DUP4 MSTORE SWAP3 DUP5 ADD SWAP3 SWAP2 DUP5 ADD SWAP2 PUSH1 0x1 ADD PUSH2 0x965 JUMP JUMPDEST POP SWAP1 SWAP7 SWAP6 POP POP POP POP POP POP JUMP JUMPDEST PUSH1 0x0 PUSH1 0x20 DUP1 DUP4 DUP6 SUB SLT ISZERO PUSH2 0x9A9 JUMPI PUSH1 0x0 DUP1 REVERT JUMPDEST DUP3 MLOAD PUSH8 0xFFFFFFFFFFFFFFFF DUP1 DUP3 GT ISZERO PUSH2 0x9C1 JUMPI PUSH1 0x0 DUP1 REVERT JUMPDEST DUP2 DUP6 ADD SWAP2 POP DUP6 PUSH1 0x1F DUP4 ADD SLT PUSH2 0x9D5 JUMPI PUSH1 0x0 DUP1 REVERT JUMPDEST DUP2 MLOAD DUP2 DUP2 GT ISZERO PUSH2 0x9E7 JUMPI PUSH2 0x9E7 PUSH2 0x91D JUMP JUMPDEST DUP1 PUSH1 0x5 SHL PUSH1 0x40 MLOAD PUSH1 0x1F NOT PUSH1 0x3F DUP4 ADD AND DUP2 ADD DUP2 DUP2 LT DUP6 DUP3 GT OR ISZERO PUSH2 0xA0C JUMPI PUSH2 0xA0C PUSH2 0x91D JUMP JUMPDEST PUSH1 0x40 MSTORE SWAP2 DUP3 MSTORE DUP5 DUP3 ADD SWAP3 POP DUP4 DUP2 ADD DUP6 ADD SWAP2 DUP9 DUP4 GT ISZERO PUSH2 0xA2A JUMPI PUSH1 0x0 DUP1 REVERT JUMPDEST SWAP4 DUP6 ADD SWAP4 JUMPDEST DUP3 DUP6 LT ISZERO PUSH2 0xA48 JUMPI DUP5 MLOAD DUP5 MSTORE SWAP4 DUP6 ADD SWAP4 SWAP3 DUP6 ADD SWAP3 PUSH2 0xA2F JUMP JUMPDEST SWAP9 SWAP8 POP POP POP POP POP POP POP POP JUMP JUMPDEST DUP1 DUP3 ADD DUP1 DUP3 GT ISZERO PUSH2 0x8DC JUMPI PUSH2 0x8DC PUSH2 0x8B3 JUMP INVALID LOG2 PUSH5 0x6970667358 0x22 SLT KECCAK256 CALL 0xE8 0x1F RETURNDATASIZE 0x2E 0x5C EQ ISZERO 0xD8 0xBC LOG1 DUP9 0xF8 0xE4 BASEFEE 0x1E DUP15 0xC0 0xF7 0xDC SWAP3 0x25 SLT CALLDATALOAD CREATE DUP4 0xCA 0xE0 0x2F DUP6 DUP15 0xC1 PUSH5 0x736F6C6343 STOP ADDMOD SGT STOP CALLER ",
  "sha1": "2d79f1df3c5755cee75af4f4e9d2b7a1d8549c2c",
  "source": "// SCH Course Copyright Policy (C): DO-NOT-SHARE-WITH-ANYONE\n// https://smartcontractshacking.com/#copyright-policy\npragma solidity ^0.8.13;\n\nimport \"@openzeppelin/contracts/access/Ownable.sol\";\nimport \"./CompoundInterfaces.sol\";\n\ncontract CompoundUser is Ownable {\n\n    IComptroller private comptroller;\n\n    IERC20 private usdc;\n    IERC20 private dai;\n\n    cERC20 private cUsdc;\n    cERC20 private cDai;\n    \n    uint256 public depositedAmount; // In USDC\n    uint256 public borrowedAmount; // In DAI\n\n    // TODO: Implement the constructor\n    constructor(address _comptroller, address _cUsdc, address _cDai) {\n\n        // TODO: Set the comptroller, cUsdc, and cDai contracts\n        comptroller = IComptroller(_comptroller);\n        cUsdc = cERC20(_cUsdc);\n        cDai = cERC20(_cDai);\n        // TODO: Set the usdc, and dai contract (retrieve from cToken contracts)\n        usdc = IERC20(cUsdc.underlying());\n        dai = IERC20(cDai.underlying());\n\n\n    }\n\n    // Deposit USDC to Compound\n    function deposit(uint256 _amount) external onlyOwner {\n        // TODO: Implement this function\n\n        // TODO: Update depositedAmount state var\n        depositedAmount = depositedAmount + _amount;\n        // TODO: Transfer the USDC from the user to this smart contract\n        usdc.transferFrom(msg.sender, address(this), _amount);\n        // TODO: Approve the cUsdc contract to spend our USDC tokens\n        usdc.approve(address(cUsdc), _amount);\n        // TODO: Deposit USDC tokens (mint cUSDC tokens)\n        cUsdc.mint(_amount);\n\n    }\n\n    // Allow the deposited USDC to be used as collateral, interact with the Comptroller contract\n    function allowUSDCAsCollateral() external onlyOwner {\n        // TODO: Implement this function\n\n        // TODO: Use the comptroller `enterMarkets` function to set the usdc as collateral\n        //cERC20[] memory cTokens = new ICERC20[](1);\n        address[] memory cTokens = new address[](1);\n        cTokens[0] = address(cUsdc);\n        comptroller.enterMarkets(cTokens);\n    }\n\n    // Withdraw deposited USDC from Compound\n    function withdraw(uint256 _amount) external onlyOwner {\n        // TODO: Implement this function\n\n        // TODO: Revert if the user is trying to withdraw more than he deposited\n        require(depositedAmount >= _amount, \"Not eenought deposited!\");\n        // TODO: Update depositedAmount amount state var\n        depositedAmount = depositedAmount - _amount;\n        // TODO: Withdraw the USDC tokens\n        cUsdc.redeemUnderlying(_amount);\n        // TODO: Transfer USDC token to the user\n        usdc.transfer(msg.sender, _amount);\n\n    }\n\n    // Borrow DAI from Compound\n    function borrow(uint256 _amount) external {\n        // TODO: Implement this function\n        \n        // TODO: Update borrowedAmount state var\n        borrowedAmount = borrowedAmount + _amount;\n        // TODO: Borrow DAI\n        cDai.borrow(_amount);\n        // TODO: Send DAI to the user\n        dai.transfer(msg.sender, _amount);\n    }\n\n    // Repay the borrowed DAI\n    function repay(uint256 _amount) external onlyOwner {\n        // TODO: Implement this function\n\n        // TODO: Revert if the user is trying to repay more tokens than he borrowed\n        require(_amount <= borrowedAmount, \"Overpaying!\");\n        // TODO: Update borrowedAmount state var\n        borrowedAmount = borrowedAmount - _amount;\n        // TODO: Transfer the DAI tokens from the user to this contract\n        dai.transferFrom(msg.sender, address(this), _amount);\n        // TODO: Approve Compound cToken contract to spend the DAI tokens\n        dai.approve(address(cDai), _amount);\n        // TODO: Repay the loan\n        cDai.repayBorrow(_amount);\n\n    }\n}",
  "sourcePath": "contracts/money-markets-2/CompoundUser.sol",
  "type": "contract"
}