{
  "abi": [
    {
      "inputs": [
        {
          "internalType": "address",
          "name": "_owner",
          "type": "address"
        },
        {
          "internalType": "address",
          "name": "_templateAddress",
          "type": "address"
        }
      ],
      "stateMutability": "nonpayable",
      "type": "constructor"
    },
    {
      "anonymous": false,
      "inputs": [
        {
          "indexed": false,
          "internalType": "address",
          "name": "_cryptoKeeperAddress",
          "type": "address"
        }
      ],
      "name": "CryptoKeeperCreated",
      "type": "event"
    },
    {
      "anonymous": false,
      "inputs": [
        {
          "indexed": true,
          "internalType": "address",
          "name": "previousOwner",
          "type": "address"
        },
        {
          "indexed": true,
          "internalType": "address",
          "name": "newOwner",
          "type": "address"
        }
      ],
      "name": "OwnershipTransferred",
      "type": "event"
    },
    {
      "anonymous": false,
      "inputs": [
        {
          "indexed": false,
          "internalType": "address",
          "name": "_previousAddress",
          "type": "address"
        },
        {
          "indexed": false,
          "internalType": "address",
          "name": "_newAddress",
          "type": "address"
        }
      ],
      "name": "TemplateChanged",
      "type": "event"
    },
    {
      "inputs": [
        {
          "internalType": "bytes32",
          "name": "_salt",
          "type": "bytes32"
        },
        {
          "internalType": "address[]",
          "name": "_operators",
          "type": "address[]"
        }
      ],
      "name": "createCryptoKeeper",
      "outputs": [
        {
          "internalType": "address",
          "name": "",
          "type": "address"
        }
      ],
      "stateMutability": "nonpayable",
      "type": "function"
    },
    {
      "inputs": [],
      "name": "owner",
      "outputs": [
        {
          "internalType": "address",
          "name": "",
          "type": "address"
        }
      ],
      "stateMutability": "view",
      "type": "function"
    },
    {
      "inputs": [
        {
          "internalType": "bytes32",
          "name": "_salt",
          "type": "bytes32"
        }
      ],
      "name": "predictCryptoKeeperAddress",
      "outputs": [
        {
          "internalType": "address",
          "name": "",
          "type": "address"
        }
      ],
      "stateMutability": "view",
      "type": "function"
    },
    {
      "inputs": [],
      "name": "renounceOwnership",
      "outputs": [],
      "stateMutability": "nonpayable",
      "type": "function"
    },
    {
      "inputs": [
        {
          "internalType": "address",
          "name": "_templateAddress",
          "type": "address"
        }
      ],
      "name": "setTemplateAddress",
      "outputs": [],
      "stateMutability": "nonpayable",
      "type": "function"
    },
    {
      "inputs": [],
      "name": "templateAddress",
      "outputs": [
        {
          "internalType": "address",
          "name": "",
          "type": "address"
        }
      ],
      "stateMutability": "view",
      "type": "function"
    },
    {
      "inputs": [
        {
          "internalType": "address",
          "name": "newOwner",
          "type": "address"
        }
      ],
      "name": "transferOwnership",
      "outputs": [],
      "stateMutability": "nonpayable",
      "type": "function"
    }
  ],
  "bytecode": "608060405234801561001057600080fd5b5060405162000a3438038062000a34833981016040819052610031916102d9565b61003a33610066565b6001600160a01b03811661004d57600080fd5b610056816100b6565b61005f82610066565b505061030c565b600080546001600160a01b038381166001600160a01b0319831681178455604051919092169283917f8be0079c531659141344cd1fd0a4f28419497f9722a3daafe3b4186f6b6457e09190a35050565b6100be610181565b6100cf8163cebe984560e01b6101dd565b6101205760405162461bcd60e51b815260206004820152601760248201527f496e74657266616365206e6f7420737570706f7274656400000000000000000060448201526064015b60405180910390fd5b600180546001600160a01b038381166001600160a01b031983168117909355604080519190921680825260208201939093527f2b12be9fa6bedeff30cb15ba65624af638a4ba58bf9445d9e29fa9abeb10c4da910160405180910390a15050565b6000546001600160a01b031633146101db5760405162461bcd60e51b815260206004820181905260248201527f4f776e61626c653a2063616c6c6572206973206e6f7420746865206f776e65726044820152606401610117565b565b60006101e883610200565b80156101f957506101f98383610234565b9392505050565b6000610213826301ffc9a760e01b610234565b801561022e575061022c826001600160e01b0319610234565b155b92915050565b604080516001600160e01b03198316602480830191909152825180830390910181526044909101909152602080820180516001600160e01b03166301ffc9a760e01b178152825160009392849283928392918391908a617530fa92503d915060005190508280156102a6575060208210155b80156102b25750600081115b979650505050505050565b80516001600160a01b03811681146102d457600080fd5b919050565b600080604083850312156102ec57600080fd5b6102f5836102bd565b9150610303602084016102bd565b90509250929050565b610718806200031c6000396000f3fe608060405234801561001057600080fd5b506004361061007d5760003560e01c806374356d7f1161005b57806374356d7f146100ce5780638da5cb5b146100e1578063b9628541146100f2578063f2fde38b1461010557600080fd5b80630c5a6f2f146100825780636f929d00146100b1578063715018a6146100c4575b600080fd5b600154610095906001600160a01b031681565b6040516001600160a01b03909116815260200160405180910390f35b6100956100bf3660046105c7565b610118565b6100cc6101db565b005b6100956100dc366004610646565b6101ef565b6000546001600160a01b0316610095565b6100cc61010036600461067b565b61025d565b6100cc61011336600461067b565b610328565b6001546000908190610133906001600160a01b0316866103a1565b60405163a224cee760e01b81529091506001600160a01b0382169063a224cee7906101649087908790600401610696565b600060405180830381600087803b15801561017e57600080fd5b505af1158015610192573d6000803e3d6000fd5b50506040516001600160a01b03841681527f86f093fa2994a72c3664d9e9fee967bbe589ca12915066510919a9e0395159619250602001905060405180910390a1949350505050565b6101e361043e565b6101ed6000610498565b565b6001546040513060388201526f5af43d82803e903d91602b57fd5bf3ff60248201526001600160a01b039091166014820152733d602d80600a3d3981f3363d3d373d3d3d363d738152605881018290526037600c820120607882015260556043909101206000905b92915050565b61026561043e565b6102768163cebe984560e01b6104e8565b6102c75760405162461bcd60e51b815260206004820152601760248201527f496e74657266616365206e6f7420737570706f7274656400000000000000000060448201526064015b60405180910390fd5b600180546001600160a01b038381166001600160a01b031983168117909355604080519190921680825260208201939093527f2b12be9fa6bedeff30cb15ba65624af638a4ba58bf9445d9e29fa9abeb10c4da910160405180910390a15050565b61033061043e565b6001600160a01b0381166103955760405162461bcd60e51b815260206004820152602660248201527f4f776e61626c653a206e6577206f776e657220697320746865207a65726f206160448201526564647265737360d01b60648201526084016102be565b61039e81610498565b50565b6000763d602d80600a3d3981f3363d3d373d3d3d363d730000008360601b60e81c176000526e5af43d82803e903d91602b57fd5bf38360781b1760205281603760096000f590506001600160a01b0381166102575760405162461bcd60e51b815260206004820152601760248201527f455243313136373a2063726561746532206661696c656400000000000000000060448201526064016102be565b6000546001600160a01b031633146101ed5760405162461bcd60e51b815260206004820181905260248201527f4f776e61626c653a2063616c6c6572206973206e6f7420746865206f776e657260448201526064016102be565b600080546001600160a01b038381166001600160a01b0319831681178455604051919092169283917f8be0079c531659141344cd1fd0a4f28419497f9722a3daafe3b4186f6b6457e09190a35050565b60006104f38361050b565b80156105045750610504838361053e565b9392505050565b600061051e826301ffc9a760e01b61053e565b80156102575750610537826001600160e01b031961053e565b1592915050565b604080516001600160e01b03198316602480830191909152825180830390910181526044909101909152602080820180516001600160e01b03166301ffc9a760e01b178152825160009392849283928392918391908a617530fa92503d915060005190508280156105b0575060208210155b80156105bc5750600081115b979650505050505050565b6000806000604084860312156105dc57600080fd5b83359250602084013567ffffffffffffffff808211156105fb57600080fd5b818601915086601f83011261060f57600080fd5b81358181111561061e57600080fd5b8760208260051b850101111561063357600080fd5b6020830194508093505050509250925092565b60006020828403121561065857600080fd5b5035919050565b80356001600160a01b038116811461067657600080fd5b919050565b60006020828403121561068d57600080fd5b6105048261065f565b60208082528181018390526000908460408401835b868110156106d7576001600160a01b036106c48461065f565b16825291830191908301906001016106ab565b50969550505050505056fea26469706673582212209d3de44163a85ce5e4f9f160314e228debd1c48bcc79c7dd0373f83308f9d8b464736f6c63430008130033",
  "bytecodeSha1": "2d6a353d081a23491b26c0dfd4cd44e4d4555fbb",
  "compiler": {
    "evm_version": "istanbul",
    "optimizer": {
      "enabled": true,
      "runs": 200
    },
    "version": "0.8.19+commit.7dd6d404"
  },
  "contractName": "CryptoKeeperFactory",
  "language": "Solidity",
  "natspec": {
    "kind": "dev",
    "methods": {
      "owner()": {
        "details": "Returns the address of the current owner."
      },
      "renounceOwnership()": {
        "details": "Leaves the contract without owner. It will not be possible to call `onlyOwner` functions anymore. Can only be called by the current owner. NOTE: Renouncing ownership will leave the contract without an owner, thereby removing any functionality that is only available to the owner."
      },
      "transferOwnership(address)": {
        "details": "Transfers ownership of the contract to a new account (`newOwner`). Can only be called by the current owner."
      }
    },
    "version": 1
  },
  "opcodes": "PUSH1 0x80 PUSH1 0x40 MSTORE CALLVALUE DUP1 ISZERO PUSH2 0x10 JUMPI PUSH1 0x0 DUP1 REVERT JUMPDEST POP PUSH1 0x4 CALLDATASIZE LT PUSH2 0x7D JUMPI PUSH1 0x0 CALLDATALOAD PUSH1 0xE0 SHR DUP1 PUSH4 0x74356D7F GT PUSH2 0x5B JUMPI DUP1 PUSH4 0x74356D7F EQ PUSH2 0xCE JUMPI DUP1 PUSH4 0x8DA5CB5B EQ PUSH2 0xE1 JUMPI DUP1 PUSH4 0xB9628541 EQ PUSH2 0xF2 JUMPI DUP1 PUSH4 0xF2FDE38B EQ PUSH2 0x105 JUMPI PUSH1 0x0 DUP1 REVERT JUMPDEST DUP1 PUSH4 0xC5A6F2F EQ PUSH2 0x82 JUMPI DUP1 PUSH4 0x6F929D00 EQ PUSH2 0xB1 JUMPI DUP1 PUSH4 0x715018A6 EQ PUSH2 0xC4 JUMPI JUMPDEST PUSH1 0x0 DUP1 REVERT JUMPDEST PUSH1 0x1 SLOAD PUSH2 0x95 SWAP1 PUSH1 0x1 PUSH1 0x1 PUSH1 0xA0 SHL SUB AND DUP2 JUMP JUMPDEST PUSH1 0x40 MLOAD PUSH1 0x1 PUSH1 0x1 PUSH1 0xA0 SHL SUB SWAP1 SWAP2 AND DUP2 MSTORE PUSH1 0x20 ADD PUSH1 0x40 MLOAD DUP1 SWAP2 SUB SWAP1 RETURN JUMPDEST PUSH2 0x95 PUSH2 0xBF CALLDATASIZE PUSH1 0x4 PUSH2 0x5C7 JUMP JUMPDEST PUSH2 0x118 JUMP JUMPDEST PUSH2 0xCC PUSH2 0x1DB JUMP JUMPDEST STOP JUMPDEST PUSH2 0x95 PUSH2 0xDC CALLDATASIZE PUSH1 0x4 PUSH2 0x646 JUMP JUMPDEST PUSH2 0x1EF JUMP JUMPDEST PUSH1 0x0 SLOAD PUSH1 0x1 PUSH1 0x1 PUSH1 0xA0 SHL SUB AND PUSH2 0x95 JUMP JUMPDEST PUSH2 0xCC PUSH2 0x100 CALLDATASIZE PUSH1 0x4 PUSH2 0x67B JUMP JUMPDEST PUSH2 0x25D JUMP JUMPDEST PUSH2 0xCC PUSH2 0x113 CALLDATASIZE PUSH1 0x4 PUSH2 0x67B JUMP JUMPDEST PUSH2 0x328 JUMP JUMPDEST PUSH1 0x1 SLOAD PUSH1 0x0 SWAP1 DUP2 SWAP1 PUSH2 0x133 SWAP1 PUSH1 0x1 PUSH1 0x1 PUSH1 0xA0 SHL SUB AND DUP7 PUSH2 0x3A1 JUMP JUMPDEST PUSH1 0x40 MLOAD PUSH4 0xA224CEE7 PUSH1 0xE0 SHL DUP2 MSTORE SWAP1 SWAP2 POP PUSH1 0x1 PUSH1 0x1 PUSH1 0xA0 SHL SUB DUP3 AND SWAP1 PUSH4 0xA224CEE7 SWAP1 PUSH2 0x164 SWAP1 DUP8 SWAP1 DUP8 SWAP1 PUSH1 0x4 ADD PUSH2 0x696 JUMP JUMPDEST PUSH1 0x0 PUSH1 0x40 MLOAD DUP1 DUP4 SUB DUP2 PUSH1 0x0 DUP8 DUP1 EXTCODESIZE ISZERO DUP1 ISZERO PUSH2 0x17E JUMPI PUSH1 0x0 DUP1 REVERT JUMPDEST POP GAS CALL ISZERO DUP1 ISZERO PUSH2 0x192 JUMPI RETURNDATASIZE PUSH1 0x0 DUP1 RETURNDATACOPY RETURNDATASIZE PUSH1 0x0 REVERT JUMPDEST POP POP PUSH1 0x40 MLOAD PUSH1 0x1 PUSH1 0x1 PUSH1 0xA0 SHL SUB DUP5 AND DUP2 MSTORE PUSH32 0x86F093FA2994A72C3664D9E9FEE967BBE589CA12915066510919A9E039515961 SWAP3 POP PUSH1 0x20 ADD SWAP1 POP PUSH1 0x40 MLOAD DUP1 SWAP2 SUB SWAP1 LOG1 SWAP5 SWAP4 POP POP POP POP JUMP JUMPDEST PUSH2 0x1E3 PUSH2 0x43E JUMP JUMPDEST PUSH2 0x1ED PUSH1 0x0 PUSH2 0x498 JUMP JUMPDEST JUMP JUMPDEST PUSH1 0x1 SLOAD PUSH1 0x40 MLOAD ADDRESS PUSH1 0x38 DUP3 ADD MSTORE PUSH16 0x5AF43D82803E903D91602B57FD5BF3FF PUSH1 0x24 DUP3 ADD MSTORE PUSH1 0x1 PUSH1 0x1 PUSH1 0xA0 SHL SUB SWAP1 SWAP2 AND PUSH1 0x14 DUP3 ADD MSTORE PUSH20 0x3D602D80600A3D3981F3363D3D373D3D3D363D73 DUP2 MSTORE PUSH1 0x58 DUP2 ADD DUP3 SWAP1 MSTORE PUSH1 0x37 PUSH1 0xC DUP3 ADD KECCAK256 PUSH1 0x78 DUP3 ADD MSTORE PUSH1 0x55 PUSH1 0x43 SWAP1 SWAP2 ADD KECCAK256 PUSH1 0x0 SWAP1 JUMPDEST SWAP3 SWAP2 POP POP JUMP JUMPDEST PUSH2 0x265 PUSH2 0x43E JUMP JUMPDEST PUSH2 0x276 DUP2 PUSH4 0xCEBE9845 PUSH1 0xE0 SHL PUSH2 0x4E8 JUMP JUMPDEST PUSH2 0x2C7 JUMPI PUSH1 0x40 MLOAD PUSH3 0x461BCD PUSH1 0xE5 SHL DUP2 MSTORE PUSH1 0x20 PUSH1 0x4 DUP3 ADD MSTORE PUSH1 0x17 PUSH1 0x24 DUP3 ADD MSTORE PUSH32 0x496E74657266616365206E6F7420737570706F72746564000000000000000000 PUSH1 0x44 DUP3 ADD MSTORE PUSH1 0x64 ADD JUMPDEST PUSH1 0x40 MLOAD DUP1 SWAP2 SUB SWAP1 REVERT JUMPDEST PUSH1 0x1 DUP1 SLOAD PUSH1 0x1 PUSH1 0x1 PUSH1 0xA0 SHL SUB DUP4 DUP2 AND PUSH1 0x1 PUSH1 0x1 PUSH1 0xA0 SHL SUB NOT DUP4 AND DUP2 OR SWAP1 SWAP4 SSTORE PUSH1 0x40 DUP1 MLOAD SWAP2 SWAP1 SWAP3 AND DUP1 DUP3 MSTORE PUSH1 0x20 DUP3 ADD SWAP4 SWAP1 SWAP4 MSTORE PUSH32 0x2B12BE9FA6BEDEFF30CB15BA65624AF638A4BA58BF9445D9E29FA9ABEB10C4DA SWAP2 ADD PUSH1 0x40 MLOAD DUP1 SWAP2 SUB SWAP1 LOG1 POP POP JUMP JUMPDEST PUSH2 0x330 PUSH2 0x43E JUMP JUMPDEST PUSH1 0x1 PUSH1 0x1 PUSH1 0xA0 SHL SUB DUP2 AND PUSH2 0x395 JUMPI PUSH1 0x40 MLOAD PUSH3 0x461BCD PUSH1 0xE5 SHL DUP2 MSTORE PUSH1 0x20 PUSH1 0x4 DUP3 ADD MSTORE PUSH1 0x26 PUSH1 0x24 DUP3 ADD MSTORE PUSH32 0x4F776E61626C653A206E6577206F776E657220697320746865207A65726F2061 PUSH1 0x44 DUP3 ADD MSTORE PUSH6 0x646472657373 PUSH1 0xD0 SHL PUSH1 0x64 DUP3 ADD MSTORE PUSH1 0x84 ADD PUSH2 0x2BE JUMP JUMPDEST PUSH2 0x39E DUP2 PUSH2 0x498 JUMP JUMPDEST POP JUMP JUMPDEST PUSH1 0x0 PUSH23 0x3D602D80600A3D3981F3363D3D373D3D3D363D73000000 DUP4 PUSH1 0x60 SHL PUSH1 0xE8 SHR OR PUSH1 0x0 MSTORE PUSH15 0x5AF43D82803E903D91602B57FD5BF3 DUP4 PUSH1 0x78 SHL OR PUSH1 0x20 MSTORE DUP2 PUSH1 0x37 PUSH1 0x9 PUSH1 0x0 CREATE2 SWAP1 POP PUSH1 0x1 PUSH1 0x1 PUSH1 0xA0 SHL SUB DUP2 AND PUSH2 0x257 JUMPI PUSH1 0x40 MLOAD PUSH3 0x461BCD PUSH1 0xE5 SHL DUP2 MSTORE PUSH1 0x20 PUSH1 0x4 DUP3 ADD MSTORE PUSH1 0x17 PUSH1 0x24 DUP3 ADD MSTORE PUSH32 0x455243313136373A2063726561746532206661696C6564000000000000000000 PUSH1 0x44 DUP3 ADD MSTORE PUSH1 0x64 ADD PUSH2 0x2BE JUMP JUMPDEST PUSH1 0x0 SLOAD PUSH1 0x1 PUSH1 0x1 PUSH1 0xA0 SHL SUB AND CALLER EQ PUSH2 0x1ED JUMPI PUSH1 0x40 MLOAD PUSH3 0x461BCD PUSH1 0xE5 SHL DUP2 MSTORE PUSH1 0x20 PUSH1 0x4 DUP3 ADD DUP2 SWAP1 MSTORE PUSH1 0x24 DUP3 ADD MSTORE PUSH32 0x4F776E61626C653A2063616C6C6572206973206E6F7420746865206F776E6572 PUSH1 0x44 DUP3 ADD MSTORE PUSH1 0x64 ADD PUSH2 0x2BE JUMP JUMPDEST PUSH1 0x0 DUP1 SLOAD PUSH1 0x1 PUSH1 0x1 PUSH1 0xA0 SHL SUB DUP4 DUP2 AND PUSH1 0x1 PUSH1 0x1 PUSH1 0xA0 SHL SUB NOT DUP4 AND DUP2 OR DUP5 SSTORE PUSH1 0x40 MLOAD SWAP2 SWAP1 SWAP3 AND SWAP3 DUP4 SWAP2 PUSH32 0x8BE0079C531659141344CD1FD0A4F28419497F9722A3DAAFE3B4186F6B6457E0 SWAP2 SWAP1 LOG3 POP POP JUMP JUMPDEST PUSH1 0x0 PUSH2 0x4F3 DUP4 PUSH2 0x50B JUMP JUMPDEST DUP1 ISZERO PUSH2 0x504 JUMPI POP PUSH2 0x504 DUP4 DUP4 PUSH2 0x53E JUMP JUMPDEST SWAP4 SWAP3 POP POP POP JUMP JUMPDEST PUSH1 0x0 PUSH2 0x51E DUP3 PUSH4 0x1FFC9A7 PUSH1 0xE0 SHL PUSH2 0x53E JUMP JUMPDEST DUP1 ISZERO PUSH2 0x257 JUMPI POP PUSH2 0x537 DUP3 PUSH1 0x1 PUSH1 0x1 PUSH1 0xE0 SHL SUB NOT PUSH2 0x53E JUMP JUMPDEST ISZERO SWAP3 SWAP2 POP POP JUMP JUMPDEST PUSH1 0x40 DUP1 MLOAD PUSH1 0x1 PUSH1 0x1 PUSH1 0xE0 SHL SUB NOT DUP4 AND PUSH1 0x24 DUP1 DUP4 ADD SWAP2 SWAP1 SWAP2 MSTORE DUP3 MLOAD DUP1 DUP4 SUB SWAP1 SWAP2 ADD DUP2 MSTORE PUSH1 0x44 SWAP1 SWAP2 ADD SWAP1 SWAP2 MSTORE PUSH1 0x20 DUP1 DUP3 ADD DUP1 MLOAD PUSH1 0x1 PUSH1 0x1 PUSH1 0xE0 SHL SUB AND PUSH4 0x1FFC9A7 PUSH1 0xE0 SHL OR DUP2 MSTORE DUP3 MLOAD PUSH1 0x0 SWAP4 SWAP3 DUP5 SWAP3 DUP4 SWAP3 DUP4 SWAP3 SWAP2 DUP4 SWAP2 SWAP1 DUP11 PUSH2 0x7530 STATICCALL SWAP3 POP RETURNDATASIZE SWAP2 POP PUSH1 0x0 MLOAD SWAP1 POP DUP3 DUP1 ISZERO PUSH2 0x5B0 JUMPI POP PUSH1 0x20 DUP3 LT ISZERO JUMPDEST DUP1 ISZERO PUSH2 0x5BC JUMPI POP PUSH1 0x0 DUP2 GT JUMPDEST SWAP8 SWAP7 POP POP POP POP POP POP POP JUMP JUMPDEST PUSH1 0x0 DUP1 PUSH1 0x0 PUSH1 0x40 DUP5 DUP7 SUB SLT ISZERO PUSH2 0x5DC JUMPI PUSH1 0x0 DUP1 REVERT JUMPDEST DUP4 CALLDATALOAD SWAP3 POP PUSH1 0x20 DUP5 ADD CALLDATALOAD PUSH8 0xFFFFFFFFFFFFFFFF DUP1 DUP3 GT ISZERO PUSH2 0x5FB JUMPI PUSH1 0x0 DUP1 REVERT JUMPDEST DUP2 DUP7 ADD SWAP2 POP DUP7 PUSH1 0x1F DUP4 ADD SLT PUSH2 0x60F JUMPI PUSH1 0x0 DUP1 REVERT JUMPDEST DUP2 CALLDATALOAD DUP2 DUP2 GT ISZERO PUSH2 0x61E JUMPI PUSH1 0x0 DUP1 REVERT JUMPDEST DUP8 PUSH1 0x20 DUP3 PUSH1 0x5 SHL DUP6 ADD ADD GT ISZERO PUSH2 0x633 JUMPI PUSH1 0x0 DUP1 REVERT JUMPDEST PUSH1 0x20 DUP4 ADD SWAP5 POP DUP1 SWAP4 POP POP POP POP SWAP3 POP SWAP3 POP SWAP3 JUMP JUMPDEST PUSH1 0x0 PUSH1 0x20 DUP3 DUP5 SUB SLT ISZERO PUSH2 0x658 JUMPI PUSH1 0x0 DUP1 REVERT JUMPDEST POP CALLDATALOAD SWAP2 SWAP1 POP JUMP JUMPDEST DUP1 CALLDATALOAD PUSH1 0x1 PUSH1 0x1 PUSH1 0xA0 SHL SUB DUP2 AND DUP2 EQ PUSH2 0x676 JUMPI PUSH1 0x0 DUP1 REVERT JUMPDEST SWAP2 SWAP1 POP JUMP JUMPDEST PUSH1 0x0 PUSH1 0x20 DUP3 DUP5 SUB SLT ISZERO PUSH2 0x68D JUMPI PUSH1 0x0 DUP1 REVERT JUMPDEST PUSH2 0x504 DUP3 PUSH2 0x65F JUMP JUMPDEST PUSH1 0x20 DUP1 DUP3 MSTORE DUP2 DUP2 ADD DUP4 SWAP1 MSTORE PUSH1 0x0 SWAP1 DUP5 PUSH1 0x40 DUP5 ADD DUP4 JUMPDEST DUP7 DUP2 LT ISZERO PUSH2 0x6D7 JUMPI PUSH1 0x1 PUSH1 0x1 PUSH1 0xA0 SHL SUB PUSH2 0x6C4 DUP5 PUSH2 0x65F JUMP JUMPDEST AND DUP3 MSTORE SWAP2 DUP4 ADD SWAP2 SWAP1 DUP4 ADD SWAP1 PUSH1 0x1 ADD PUSH2 0x6AB JUMP JUMPDEST POP SWAP7 SWAP6 POP POP POP POP POP POP JUMP INVALID LOG2 PUSH5 0x6970667358 0x22 SLT KECCAK256 SWAP14 RETURNDATASIZE 0xE4 COINBASE PUSH4 0xA85CE5E4 0xF9 CALL PUSH1 0x31 0x4E 0x22 DUP14 0xEB 0xD1 0xC4 DUP12 0xCC PUSH26 0xC7DD0373F83308F9D8B464736F6C634300081300330000000000 ",
  "sha1": "bfd1e76560b4d5b0d34ed722e4d8b1fecf7bdfce",
  "source": "// SCH Course Copyright Policy (C): DO-NOT-SHARE-WITH-ANYONE\n// https://smartcontractshacking.com/#copyright-policy\npragma solidity ^0.8.13;\n\nimport \"@openzeppelin/contracts/proxy/Clones.sol\";\nimport \"@openzeppelin/contracts/utils/introspection/ERC165Checker.sol\";\nimport \"@openzeppelin/contracts/access/Ownable.sol\";\nimport \"./ICryptoKeeper.sol\";\n\ncontract CryptoKeeperFactory is Ownable\n{\n    using Clones for address;\n\n    event CryptoKeeperCreated(address _cryptoKeeperAddress);\n    event TemplateChanged(address _previousAddress, address _newAddress);\n\n    address public templateAddress;\n\n    constructor(address _owner, address _templateAddress) {\n        require(_templateAddress != address(0));\n        setTemplateAddress(_templateAddress);\n        _transferOwnership(_owner);\n    }\n\n    function setTemplateAddress(address _templateAddress) public onlyOwner {\n        require(\n            ERC165Checker.supportsInterface(\n                _templateAddress,\n                type(ICryptoKeeper).interfaceId\n            ),\n            \"Interface not supported\"\n        );\n        address previousAddress = templateAddress;\n        templateAddress = _templateAddress;\n        emit TemplateChanged(previousAddress, _templateAddress);\n    }\n\n    function createCryptoKeeper(\n        bytes32 _salt,\n        address[] calldata _operators\n    )\n        external\n        returns (address)\n    {\n        address cryptoKeeperAddress = templateAddress.cloneDeterministic(_salt);\n\n        ICryptoKeeper(cryptoKeeperAddress).initialize(_operators);\n\n        emit CryptoKeeperCreated(cryptoKeeperAddress);\n        return cryptoKeeperAddress;\n    }\n\n    function predictCryptoKeeperAddress(bytes32 _salt)\n        public\n        view\n        returns (address)\n    {\n        return\n            templateAddress.predictDeterministicAddress(_salt, address(this));\n    }\n}",
  "sourcePath": "contracts/call-attacks-3/CryptoFactory.sol",
  "type": "contract"
}