{
  "abi": [
    {
      "inputs": [],
      "stateMutability": "nonpayable",
      "type": "constructor"
    },
    {
      "inputs": [
        {
          "internalType": "uint256",
          "name": "_donationId",
          "type": "uint256"
        }
      ],
      "name": "donate",
      "outputs": [],
      "stateMutability": "payable",
      "type": "function"
    },
    {
      "inputs": [
        {
          "internalType": "uint256",
          "name": "",
          "type": "uint256"
        }
      ],
      "name": "donations",
      "outputs": [
        {
          "internalType": "uint256",
          "name": "id",
          "type": "uint256"
        },
        {
          "internalType": "address",
          "name": "to",
          "type": "address"
        },
        {
          "internalType": "uint256",
          "name": "goal",
          "type": "uint256"
        },
        {
          "internalType": "uint256",
          "name": "donated",
          "type": "uint256"
        }
      ],
      "stateMutability": "view",
      "type": "function"
    },
    {
      "inputs": [],
      "name": "donationsNo",
      "outputs": [
        {
          "internalType": "uint256",
          "name": "",
          "type": "uint256"
        }
      ],
      "stateMutability": "view",
      "type": "function"
    },
    {
      "inputs": [
        {
          "internalType": "address",
          "name": "_to",
          "type": "address"
        },
        {
          "internalType": "uint256",
          "name": "goal",
          "type": "uint256"
        }
      ],
      "name": "newDonation",
      "outputs": [],
      "stateMutability": "nonpayable",
      "type": "function"
    }
  ],
  "bytecode": "6080604052600160005534801561001557600080fd5b50610487806100256000396000f3fe60806040526004361061003f5760003560e01c80632990aa8514610044578063392d8e5d14610066578063f14faf6f1461008f578063f8626af8146100a2575b600080fd5b34801561005057600080fd5b5061006461005f3660046103d9565b610117565b005b34801561007257600080fd5b5061007c60005481565b6040519081526020015b60405180910390f35b61006461009d366004610411565b6101e6565b3480156100ae57600080fd5b506100ef6100bd366004610411565b600160208190526000918252604090912080549181015460028201546003909201546001600160a01b03909116919084565b604080519485526001600160a01b039093166020850152918301526060820152608001610086565b6001600160a01b03821661015e5760405162461bcd60e51b815260206004820152600960248201526857726f6e67205f746f60b81b60448201526064015b60405180910390fd5b60408051608081018252600080548083526001600160a01b0386811660208086019182528587018881526060870186815294865260019182905296852086518155915182820180546001600160a01b0319169190941617909255945160028601559051600390940193909355805491929181906101dc90849061042a565b9091555050505050565b60005481106102305760405162461bcd60e51b8152602060048201526016602482015275111bdb985d1a5bdb88191bd95cdb89dd08195e1a5cdd60521b6044820152606401610155565b600081815260016020818152604092839020835160808101855281548152928101546001600160a01b03169183019190915260028101549282018390526003015460608201819052909190610285903461042a565b11156102d35760405162461bcd60e51b815260206004820181905260248201527f476f616c20726561636865642c20646f6e6174696f6e20697320636c6f7365646044820152606401610155565b34816060018181516102e5919061042a565b9052506000828152600160208181526040808420855181559185015192820180546001600160a01b0319166001600160a01b03909416938417905584810151600283015560608501516003909201919091555134908381818185875af1925050503d8060008114610372576040519150601f19603f3d011682016040523d82523d6000602084013e610377565b606091505b50509050806103d45760405162461bcd60e51b815260206004820152602360248201527f446f6e6174696f6e206661696c65642c206661696c656420746f2073656e642060448201526208aa8960eb1b6064820152608401610155565b505050565b600080604083850312156103ec57600080fd5b82356001600160a01b038116811461040357600080fd5b946020939093013593505050565b60006020828403121561042357600080fd5b5035919050565b8082018082111561044b57634e487b7160e01b600052601160045260246000fd5b9291505056fea2646970667358221220afa9761a0970c02d7e7bcc4b1d5d0ebac87dd1f9b9a3236274db5916ea83d8d464736f6c63430008130033",
  "bytecodeSha1": "5c24d8168730e1a2366f673f6866990b5555a3f9",
  "compiler": {
    "evm_version": "istanbul",
    "optimizer": {
      "enabled": true,
      "runs": 200
    },
    "version": "0.8.19+commit.7dd6d404"
  },
  "contractName": "DonationMaster",
  "language": "Solidity",
  "natspec": {
    "author": "JohnnyTime (https://smartcontractshacking.com)",
    "kind": "dev",
    "methods": {},
    "title": "DonationMaster",
    "version": 1
  },
  "opcodes": "PUSH1 0x80 PUSH1 0x40 MSTORE PUSH1 0x4 CALLDATASIZE LT PUSH2 0x3F JUMPI PUSH1 0x0 CALLDATALOAD PUSH1 0xE0 SHR DUP1 PUSH4 0x2990AA85 EQ PUSH2 0x44 JUMPI DUP1 PUSH4 0x392D8E5D EQ PUSH2 0x66 JUMPI DUP1 PUSH4 0xF14FAF6F EQ PUSH2 0x8F JUMPI DUP1 PUSH4 0xF8626AF8 EQ PUSH2 0xA2 JUMPI JUMPDEST PUSH1 0x0 DUP1 REVERT JUMPDEST CALLVALUE DUP1 ISZERO PUSH2 0x50 JUMPI PUSH1 0x0 DUP1 REVERT JUMPDEST POP PUSH2 0x64 PUSH2 0x5F CALLDATASIZE PUSH1 0x4 PUSH2 0x3D9 JUMP JUMPDEST PUSH2 0x117 JUMP JUMPDEST STOP JUMPDEST CALLVALUE DUP1 ISZERO PUSH2 0x72 JUMPI PUSH1 0x0 DUP1 REVERT JUMPDEST POP PUSH2 0x7C PUSH1 0x0 SLOAD DUP2 JUMP JUMPDEST PUSH1 0x40 MLOAD SWAP1 DUP2 MSTORE PUSH1 0x20 ADD JUMPDEST PUSH1 0x40 MLOAD DUP1 SWAP2 SUB SWAP1 RETURN JUMPDEST PUSH2 0x64 PUSH2 0x9D CALLDATASIZE PUSH1 0x4 PUSH2 0x411 JUMP JUMPDEST PUSH2 0x1E6 JUMP JUMPDEST CALLVALUE DUP1 ISZERO PUSH2 0xAE JUMPI PUSH1 0x0 DUP1 REVERT JUMPDEST POP PUSH2 0xEF PUSH2 0xBD CALLDATASIZE PUSH1 0x4 PUSH2 0x411 JUMP JUMPDEST PUSH1 0x1 PUSH1 0x20 DUP2 SWAP1 MSTORE PUSH1 0x0 SWAP2 DUP3 MSTORE PUSH1 0x40 SWAP1 SWAP2 KECCAK256 DUP1 SLOAD SWAP2 DUP2 ADD SLOAD PUSH1 0x2 DUP3 ADD SLOAD PUSH1 0x3 SWAP1 SWAP3 ADD SLOAD PUSH1 0x1 PUSH1 0x1 PUSH1 0xA0 SHL SUB SWAP1 SWAP2 AND SWAP2 SWAP1 DUP5 JUMP JUMPDEST PUSH1 0x40 DUP1 MLOAD SWAP5 DUP6 MSTORE PUSH1 0x1 PUSH1 0x1 PUSH1 0xA0 SHL SUB SWAP1 SWAP4 AND PUSH1 0x20 DUP6 ADD MSTORE SWAP2 DUP4 ADD MSTORE PUSH1 0x60 DUP3 ADD MSTORE PUSH1 0x80 ADD PUSH2 0x86 JUMP JUMPDEST PUSH1 0x1 PUSH1 0x1 PUSH1 0xA0 SHL SUB DUP3 AND PUSH2 0x15E JUMPI PUSH1 0x40 MLOAD PUSH3 0x461BCD PUSH1 0xE5 SHL DUP2 MSTORE PUSH1 0x20 PUSH1 0x4 DUP3 ADD MSTORE PUSH1 0x9 PUSH1 0x24 DUP3 ADD MSTORE PUSH9 0x57726F6E67205F746F PUSH1 0xB8 SHL PUSH1 0x44 DUP3 ADD MSTORE PUSH1 0x64 ADD JUMPDEST PUSH1 0x40 MLOAD DUP1 SWAP2 SUB SWAP1 REVERT JUMPDEST PUSH1 0x40 DUP1 MLOAD PUSH1 0x80 DUP2 ADD DUP3 MSTORE PUSH1 0x0 DUP1 SLOAD DUP1 DUP4 MSTORE PUSH1 0x1 PUSH1 0x1 PUSH1 0xA0 SHL SUB DUP7 DUP2 AND PUSH1 0x20 DUP1 DUP7 ADD SWAP2 DUP3 MSTORE DUP6 DUP8 ADD DUP9 DUP2 MSTORE PUSH1 0x60 DUP8 ADD DUP7 DUP2 MSTORE SWAP5 DUP7 MSTORE PUSH1 0x1 SWAP2 DUP3 SWAP1 MSTORE SWAP7 DUP6 KECCAK256 DUP7 MLOAD DUP2 SSTORE SWAP2 MLOAD DUP3 DUP3 ADD DUP1 SLOAD PUSH1 0x1 PUSH1 0x1 PUSH1 0xA0 SHL SUB NOT AND SWAP2 SWAP1 SWAP5 AND OR SWAP1 SWAP3 SSTORE SWAP5 MLOAD PUSH1 0x2 DUP7 ADD SSTORE SWAP1 MLOAD PUSH1 0x3 SWAP1 SWAP5 ADD SWAP4 SWAP1 SWAP4 SSTORE DUP1 SLOAD SWAP2 SWAP3 SWAP2 DUP2 SWAP1 PUSH2 0x1DC SWAP1 DUP5 SWAP1 PUSH2 0x42A JUMP JUMPDEST SWAP1 SWAP2 SSTORE POP POP POP POP POP JUMP JUMPDEST PUSH1 0x0 SLOAD DUP2 LT PUSH2 0x230 JUMPI PUSH1 0x40 MLOAD PUSH3 0x461BCD PUSH1 0xE5 SHL DUP2 MSTORE PUSH1 0x20 PUSH1 0x4 DUP3 ADD MSTORE PUSH1 0x16 PUSH1 0x24 DUP3 ADD MSTORE PUSH22 0x111BDB985D1A5BDB88191BD95CDB89DD08195E1A5CDD PUSH1 0x52 SHL PUSH1 0x44 DUP3 ADD MSTORE PUSH1 0x64 ADD PUSH2 0x155 JUMP JUMPDEST PUSH1 0x0 DUP2 DUP2 MSTORE PUSH1 0x1 PUSH1 0x20 DUP2 DUP2 MSTORE PUSH1 0x40 SWAP3 DUP4 SWAP1 KECCAK256 DUP4 MLOAD PUSH1 0x80 DUP2 ADD DUP6 MSTORE DUP2 SLOAD DUP2 MSTORE SWAP3 DUP2 ADD SLOAD PUSH1 0x1 PUSH1 0x1 PUSH1 0xA0 SHL SUB AND SWAP2 DUP4 ADD SWAP2 SWAP1 SWAP2 MSTORE PUSH1 0x2 DUP2 ADD SLOAD SWAP3 DUP3 ADD DUP4 SWAP1 MSTORE PUSH1 0x3 ADD SLOAD PUSH1 0x60 DUP3 ADD DUP2 SWAP1 MSTORE SWAP1 SWAP2 SWAP1 PUSH2 0x285 SWAP1 CALLVALUE PUSH2 0x42A JUMP JUMPDEST GT ISZERO PUSH2 0x2D3 JUMPI PUSH1 0x40 MLOAD PUSH3 0x461BCD PUSH1 0xE5 SHL DUP2 MSTORE PUSH1 0x20 PUSH1 0x4 DUP3 ADD DUP2 SWAP1 MSTORE PUSH1 0x24 DUP3 ADD MSTORE PUSH32 0x476F616C20726561636865642C20646F6E6174696F6E20697320636C6F736564 PUSH1 0x44 DUP3 ADD MSTORE PUSH1 0x64 ADD PUSH2 0x155 JUMP JUMPDEST CALLVALUE DUP2 PUSH1 0x60 ADD DUP2 DUP2 MLOAD PUSH2 0x2E5 SWAP2 SWAP1 PUSH2 0x42A JUMP JUMPDEST SWAP1 MSTORE POP PUSH1 0x0 DUP3 DUP2 MSTORE PUSH1 0x1 PUSH1 0x20 DUP2 DUP2 MSTORE PUSH1 0x40 DUP1 DUP5 KECCAK256 DUP6 MLOAD DUP2 SSTORE SWAP2 DUP6 ADD MLOAD SWAP3 DUP3 ADD DUP1 SLOAD PUSH1 0x1 PUSH1 0x1 PUSH1 0xA0 SHL SUB NOT AND PUSH1 0x1 PUSH1 0x1 PUSH1 0xA0 SHL SUB SWAP1 SWAP5 AND SWAP4 DUP5 OR SWAP1 SSTORE DUP5 DUP2 ADD MLOAD PUSH1 0x2 DUP4 ADD SSTORE PUSH1 0x60 DUP6 ADD MLOAD PUSH1 0x3 SWAP1 SWAP3 ADD SWAP2 SWAP1 SWAP2 SSTORE MLOAD CALLVALUE SWAP1 DUP4 DUP2 DUP2 DUP2 DUP6 DUP8 GAS CALL SWAP3 POP POP POP RETURNDATASIZE DUP1 PUSH1 0x0 DUP2 EQ PUSH2 0x372 JUMPI PUSH1 0x40 MLOAD SWAP2 POP PUSH1 0x1F NOT PUSH1 0x3F RETURNDATASIZE ADD AND DUP3 ADD PUSH1 0x40 MSTORE RETURNDATASIZE DUP3 MSTORE RETURNDATASIZE PUSH1 0x0 PUSH1 0x20 DUP5 ADD RETURNDATACOPY PUSH2 0x377 JUMP JUMPDEST PUSH1 0x60 SWAP2 POP JUMPDEST POP POP SWAP1 POP DUP1 PUSH2 0x3D4 JUMPI PUSH1 0x40 MLOAD PUSH3 0x461BCD PUSH1 0xE5 SHL DUP2 MSTORE PUSH1 0x20 PUSH1 0x4 DUP3 ADD MSTORE PUSH1 0x23 PUSH1 0x24 DUP3 ADD MSTORE PUSH32 0x446F6E6174696F6E206661696C65642C206661696C656420746F2073656E6420 PUSH1 0x44 DUP3 ADD MSTORE PUSH3 0x8AA89 PUSH1 0xEB SHL PUSH1 0x64 DUP3 ADD MSTORE PUSH1 0x84 ADD PUSH2 0x155 JUMP JUMPDEST POP POP POP JUMP JUMPDEST PUSH1 0x0 DUP1 PUSH1 0x40 DUP4 DUP6 SUB SLT ISZERO PUSH2 0x3EC JUMPI PUSH1 0x0 DUP1 REVERT JUMPDEST DUP3 CALLDATALOAD PUSH1 0x1 PUSH1 0x1 PUSH1 0xA0 SHL SUB DUP2 AND DUP2 EQ PUSH2 0x403 JUMPI PUSH1 0x0 DUP1 REVERT JUMPDEST SWAP5 PUSH1 0x20 SWAP4 SWAP1 SWAP4 ADD CALLDATALOAD SWAP4 POP POP POP JUMP JUMPDEST PUSH1 0x0 PUSH1 0x20 DUP3 DUP5 SUB SLT ISZERO PUSH2 0x423 JUMPI PUSH1 0x0 DUP1 REVERT JUMPDEST POP CALLDATALOAD SWAP2 SWAP1 POP JUMP JUMPDEST DUP1 DUP3 ADD DUP1 DUP3 GT ISZERO PUSH2 0x44B JUMPI PUSH4 0x4E487B71 PUSH1 0xE0 SHL PUSH1 0x0 MSTORE PUSH1 0x11 PUSH1 0x4 MSTORE PUSH1 0x24 PUSH1 0x0 REVERT JUMPDEST SWAP3 SWAP2 POP POP JUMP INVALID LOG2 PUSH5 0x6970667358 0x22 SLT KECCAK256 0xAF 0xA9 PUSH23 0x1A0970C02D7E7BCC4B1D5D0EBAC87DD1F9B9A3236274DB MSIZE AND 0xEA DUP4 0xD8 0xD4 PUSH5 0x736F6C6343 STOP ADDMOD SGT STOP CALLER ",
  "sha1": "4b83446db21c48bf5904d9e11b93a6cf8e917585",
  "source": "// SCH Course Copyright Policy (C): DO-NOT-SHARE-WITH-ANYONE\n// https://smartcontractshacking.com/#copyright-policy\npragma solidity ^0.8.13;\n\n/**\n * @title DonationMaster\n * @author JohnnyTime (https://smartcontractshacking.com)\n */\ncontract DonationMaster { \n\n    uint public donationsNo = 1;\n\n    struct Donation {\n        uint id;\n        address to;\n        uint goal;\n        uint donated;\n    }\n\n    mapping (uint => Donation) public donations;\n\n    constructor() {}\n    \n    function newDonation(address _to, uint goal) external {\n        \n        require(_to != address(0), \"Wrong _to\");\n        require(goal >= 0, \"Wrong _goal\");\n        \n        Donation memory donation = Donation(donationsNo, _to, goal, 0);\n        donations[donationsNo] = donation;\n        donationsNo += 1;\n    }\n\n    function donate(uint _donationId) external payable {\n        \n        require(_donationId < donationsNo, \"Donation doesn't exist\");\n\n        Donation memory donation = donations[_donationId];\n        require(msg.value + donation.donated <= donation.goal, \"Goal reached, donation is closed\");\n\n        donation.donated += msg.value;\n        donations[_donationId] = donation;\n        \n        //switching from send to call to avoid gas limit\n        (bool sent,) = payable(donation.to).call{value: msg.value}(\"\");\n        require(sent, \"Donation failed, failed to send ETH\");\n    }\n\n}",
  "sourcePath": "contracts/unchecked-returns-1/DonationMaster.sol",
  "type": "contract"
}