{
  "abi": [
    {
      "inputs": [
        {
          "internalType": "address",
          "name": "_escrowNftAddress",
          "type": "address"
        }
      ],
      "stateMutability": "nonpayable",
      "type": "constructor"
    },
    {
      "anonymous": false,
      "inputs": [
        {
          "indexed": false,
          "internalType": "address",
          "name": "from",
          "type": "address"
        },
        {
          "indexed": false,
          "internalType": "address",
          "name": "recipient",
          "type": "address"
        },
        {
          "indexed": false,
          "internalType": "uint256",
          "name": "amount",
          "type": "uint256"
        },
        {
          "indexed": false,
          "internalType": "uint256",
          "name": "duration",
          "type": "uint256"
        }
      ],
      "name": "Deposited",
      "type": "event"
    },
    {
      "anonymous": false,
      "inputs": [
        {
          "indexed": true,
          "internalType": "address",
          "name": "previousOwner",
          "type": "address"
        },
        {
          "indexed": true,
          "internalType": "address",
          "name": "newOwner",
          "type": "address"
        }
      ],
      "name": "OwnershipTransferred",
      "type": "event"
    },
    {
      "anonymous": false,
      "inputs": [
        {
          "indexed": false,
          "internalType": "address",
          "name": "from",
          "type": "address"
        },
        {
          "indexed": false,
          "internalType": "address",
          "name": "recipient",
          "type": "address"
        },
        {
          "indexed": false,
          "internalType": "uint256",
          "name": "amount",
          "type": "uint256"
        },
        {
          "indexed": false,
          "internalType": "uint256",
          "name": "duration",
          "type": "uint256"
        }
      ],
      "name": "Redeemed",
      "type": "event"
    },
    {
      "inputs": [
        {
          "internalType": "address",
          "name": "_recipient",
          "type": "address"
        },
        {
          "internalType": "uint256",
          "name": "_duration",
          "type": "uint256"
        }
      ],
      "name": "escrowEth",
      "outputs": [],
      "stateMutability": "payable",
      "type": "function"
    },
    {
      "inputs": [],
      "name": "escrowNFT",
      "outputs": [
        {
          "internalType": "address",
          "name": "",
          "type": "address"
        }
      ],
      "stateMutability": "view",
      "type": "function"
    },
    {
      "inputs": [],
      "name": "owner",
      "outputs": [
        {
          "internalType": "address",
          "name": "",
          "type": "address"
        }
      ],
      "stateMutability": "view",
      "type": "function"
    },
    {
      "inputs": [
        {
          "internalType": "uint256",
          "name": "_tokenId",
          "type": "uint256"
        }
      ],
      "name": "redeemEthFromEscrow",
      "outputs": [],
      "stateMutability": "nonpayable",
      "type": "function"
    },
    {
      "inputs": [],
      "name": "renounceOwnership",
      "outputs": [],
      "stateMutability": "nonpayable",
      "type": "function"
    },
    {
      "inputs": [
        {
          "internalType": "address",
          "name": "newOwner",
          "type": "address"
        }
      ],
      "name": "transferOwnership",
      "outputs": [],
      "stateMutability": "nonpayable",
      "type": "function"
    }
  ],
  "bytecode": "608060405234801561001057600080fd5b506040516108c33803806108c383398101604081905261002f916100ad565b6100383361005d565b600180546001600160a01b0319166001600160a01b03929092169190911790556100dd565b600080546001600160a01b038381166001600160a01b0319831681178455604051919092169283917f8be0079c531659141344cd1fd0a4f28419497f9722a3daafe3b4186f6b6457e09190a35050565b6000602082840312156100bf57600080fd5b81516001600160a01b03811681146100d657600080fd5b9392505050565b6107d7806100ec6000396000f3fe6080604052600436106100555760003560e01c806341293f241461005a5780636dea48bb1461007c578063715018a6146100b85780638da5cb5b146100cd578063c219afee146100eb578063f2fde38b146100fe575b600080fd5b34801561006657600080fd5b5061007a6100753660046106a2565b61011e565b005b34801561008857600080fd5b5060015461009c906001600160a01b031681565b6040516001600160a01b03909116815260200160405180910390f35b3480156100c457600080fd5b5061007a6103f3565b3480156100d957600080fd5b506000546001600160a01b031661009c565b61007a6100f93660046106d0565b610407565b34801561010a57600080fd5b5061007a6101193660046106fc565b61057f565b6001546040516331a9108f60e11b81526004810183905233916001600160a01b031690636352211e90602401602060405180830381865afa158015610167573d6000803e3d6000fd5b505050506040513d601f19601f8201168201806040525081019061018b9190610720565b6001600160a01b0316146101f55760405162461bcd60e51b815260206004820152602660248201527f4d757374206f776e20746f6b656e20746f20636c61696d20756e6465726c79696044820152650dcce408aa8960d31b60648201526084015b60405180910390fd5b60015460405163fc314e3160e01b81526004810183905260009182916001600160a01b039091169063fc314e31906024016040805180830381865afa158015610242573d6000803e3d6000fd5b505050506040513d601f19601f82011682018060405250810190610266919061073d565b91509150428111156102ba5760405162461bcd60e51b815260206004820152601a60248201527f457363726f7720706572696f64206e6f7420657870697265642e00000000000060448201526064016101ec565b600154604051630852cd8d60e31b8152600481018590526001600160a01b03909116906342966c6890602401600060405180830381600087803b15801561030057600080fd5b505af1158015610314573d6000803e3d6000fd5b50506040516000925033915084908381818185875af1925050503d806000811461035a576040519150601f19603f3d011682016040523d82523d6000602084013e61035f565b606091505b50509050806103a55760405162461bcd60e51b815260206004820152601260248201527108cc2d2d8cac840e8de40e6cadcc8408aa8960731b60448201526064016101ec565b60408051338082526020820152908101849052606081018390527f5cdf07ad0fc222442720b108e3ed4c4640f0fadc2ab2253e66f259a0fea83480906080015b60405180910390a150505050565b6103fb6105f8565b6104056000610652565b565b6001600160a01b03821661045d5760405162461bcd60e51b815260206004820152601e60248201527f43616e6e6f7420657363726f7720746f207a65726f20616464726573732e000060448201526064016101ec565b600034116104a45760405162461bcd60e51b815260206004820152601460248201527321b0b73737ba1032b9b1b937bb90181022aa241760611b60448201526064016101ec565b3460006104b18342610761565b600154604051630ab714fb60e11b81526001600160a01b038781166004830152602482018690526044820184905292935091169063156e29f6906064016020604051808303816000875af115801561050d573d6000803e3d6000fd5b505050506040513d601f19601f820116820180604052508101906105319190610788565b50604080513381526001600160a01b0386166020820152908101839052606081018290527ff5681f9d0db1b911ac18ee83d515a1cf1051853a9eae418316a2fdf7dea427c5906080016103e5565b6105876105f8565b6001600160a01b0381166105ec5760405162461bcd60e51b815260206004820152602660248201527f4f776e61626c653a206e6577206f776e657220697320746865207a65726f206160448201526564647265737360d01b60648201526084016101ec565b6105f581610652565b50565b6000546001600160a01b031633146104055760405162461bcd60e51b815260206004820181905260248201527f4f776e61626c653a2063616c6c6572206973206e6f7420746865206f776e657260448201526064016101ec565b600080546001600160a01b038381166001600160a01b0319831681178455604051919092169283917f8be0079c531659141344cd1fd0a4f28419497f9722a3daafe3b4186f6b6457e09190a35050565b6000602082840312156106b457600080fd5b5035919050565b6001600160a01b03811681146105f557600080fd5b600080604083850312156106e357600080fd5b82356106ee816106bb565b946020939093013593505050565b60006020828403121561070e57600080fd5b8135610719816106bb565b9392505050565b60006020828403121561073257600080fd5b8151610719816106bb565b6000806040838503121561075057600080fd5b505080516020909101519092909150565b8082018082111561078257634e487b7160e01b600052601160045260246000fd5b92915050565b60006020828403121561079a57600080fd5b505191905056fea2646970667358221220c190e69b55fff11d6dc228e488602eb2575321f70ee783e601d8ccee543805dc64736f6c63430008130033",
  "bytecodeSha1": "4c44881c89065519c3fc022dd9acbae57939ebbb",
  "compiler": {
    "evm_version": "istanbul",
    "optimizer": {
      "enabled": true,
      "runs": 200
    },
    "version": "0.8.19+commit.7dd6d404"
  },
  "contractName": "EscrowSecured",
  "language": "Solidity",
  "natspec": {
    "author": "JohnnyTime (https://smartcontractshacking.com)",
    "kind": "dev",
    "methods": {
      "owner()": {
        "details": "Returns the address of the current owner."
      },
      "renounceOwnership()": {
        "details": "Leaves the contract without owner. It will not be possible to call `onlyOwner` functions anymore. Can only be called by the current owner. NOTE: Renouncing ownership will leave the contract without an owner, thereby removing any functionality that is only available to the owner."
      },
      "transferOwnership(address)": {
        "details": "Transfers ownership of the contract to a new account (`newOwner`). Can only be called by the current owner."
      }
    },
    "title": "EscrowSecured",
    "version": 1
  },
  "opcodes": "PUSH1 0x80 PUSH1 0x40 MSTORE PUSH1 0x4 CALLDATASIZE LT PUSH2 0x55 JUMPI PUSH1 0x0 CALLDATALOAD PUSH1 0xE0 SHR DUP1 PUSH4 0x41293F24 EQ PUSH2 0x5A JUMPI DUP1 PUSH4 0x6DEA48BB EQ PUSH2 0x7C JUMPI DUP1 PUSH4 0x715018A6 EQ PUSH2 0xB8 JUMPI DUP1 PUSH4 0x8DA5CB5B EQ PUSH2 0xCD JUMPI DUP1 PUSH4 0xC219AFEE EQ PUSH2 0xEB JUMPI DUP1 PUSH4 0xF2FDE38B EQ PUSH2 0xFE JUMPI JUMPDEST PUSH1 0x0 DUP1 REVERT JUMPDEST CALLVALUE DUP1 ISZERO PUSH2 0x66 JUMPI PUSH1 0x0 DUP1 REVERT JUMPDEST POP PUSH2 0x7A PUSH2 0x75 CALLDATASIZE PUSH1 0x4 PUSH2 0x6A2 JUMP JUMPDEST PUSH2 0x11E JUMP JUMPDEST STOP JUMPDEST CALLVALUE DUP1 ISZERO PUSH2 0x88 JUMPI PUSH1 0x0 DUP1 REVERT JUMPDEST POP PUSH1 0x1 SLOAD PUSH2 0x9C SWAP1 PUSH1 0x1 PUSH1 0x1 PUSH1 0xA0 SHL SUB AND DUP2 JUMP JUMPDEST PUSH1 0x40 MLOAD PUSH1 0x1 PUSH1 0x1 PUSH1 0xA0 SHL SUB SWAP1 SWAP2 AND DUP2 MSTORE PUSH1 0x20 ADD PUSH1 0x40 MLOAD DUP1 SWAP2 SUB SWAP1 RETURN JUMPDEST CALLVALUE DUP1 ISZERO PUSH2 0xC4 JUMPI PUSH1 0x0 DUP1 REVERT JUMPDEST POP PUSH2 0x7A PUSH2 0x3F3 JUMP JUMPDEST CALLVALUE DUP1 ISZERO PUSH2 0xD9 JUMPI PUSH1 0x0 DUP1 REVERT JUMPDEST POP PUSH1 0x0 SLOAD PUSH1 0x1 PUSH1 0x1 PUSH1 0xA0 SHL SUB AND PUSH2 0x9C JUMP JUMPDEST PUSH2 0x7A PUSH2 0xF9 CALLDATASIZE PUSH1 0x4 PUSH2 0x6D0 JUMP JUMPDEST PUSH2 0x407 JUMP JUMPDEST CALLVALUE DUP1 ISZERO PUSH2 0x10A JUMPI PUSH1 0x0 DUP1 REVERT JUMPDEST POP PUSH2 0x7A PUSH2 0x119 CALLDATASIZE PUSH1 0x4 PUSH2 0x6FC JUMP JUMPDEST PUSH2 0x57F JUMP JUMPDEST PUSH1 0x1 SLOAD PUSH1 0x40 MLOAD PUSH4 0x31A9108F PUSH1 0xE1 SHL DUP2 MSTORE PUSH1 0x4 DUP2 ADD DUP4 SWAP1 MSTORE CALLER SWAP2 PUSH1 0x1 PUSH1 0x1 PUSH1 0xA0 SHL SUB AND SWAP1 PUSH4 0x6352211E SWAP1 PUSH1 0x24 ADD PUSH1 0x20 PUSH1 0x40 MLOAD DUP1 DUP4 SUB DUP2 DUP7 GAS STATICCALL ISZERO DUP1 ISZERO PUSH2 0x167 JUMPI RETURNDATASIZE PUSH1 0x0 DUP1 RETURNDATACOPY RETURNDATASIZE PUSH1 0x0 REVERT JUMPDEST POP POP POP POP PUSH1 0x40 MLOAD RETURNDATASIZE PUSH1 0x1F NOT PUSH1 0x1F DUP3 ADD AND DUP3 ADD DUP1 PUSH1 0x40 MSTORE POP DUP2 ADD SWAP1 PUSH2 0x18B SWAP2 SWAP1 PUSH2 0x720 JUMP JUMPDEST PUSH1 0x1 PUSH1 0x1 PUSH1 0xA0 SHL SUB AND EQ PUSH2 0x1F5 JUMPI PUSH1 0x40 MLOAD PUSH3 0x461BCD PUSH1 0xE5 SHL DUP2 MSTORE PUSH1 0x20 PUSH1 0x4 DUP3 ADD MSTORE PUSH1 0x26 PUSH1 0x24 DUP3 ADD MSTORE PUSH32 0x4D757374206F776E20746F6B656E20746F20636C61696D20756E6465726C7969 PUSH1 0x44 DUP3 ADD MSTORE PUSH6 0xDCCE408AA89 PUSH1 0xD3 SHL PUSH1 0x64 DUP3 ADD MSTORE PUSH1 0x84 ADD JUMPDEST PUSH1 0x40 MLOAD DUP1 SWAP2 SUB SWAP1 REVERT JUMPDEST PUSH1 0x1 SLOAD PUSH1 0x40 MLOAD PUSH4 0xFC314E31 PUSH1 0xE0 SHL DUP2 MSTORE PUSH1 0x4 DUP2 ADD DUP4 SWAP1 MSTORE PUSH1 0x0 SWAP2 DUP3 SWAP2 PUSH1 0x1 PUSH1 0x1 PUSH1 0xA0 SHL SUB SWAP1 SWAP2 AND SWAP1 PUSH4 0xFC314E31 SWAP1 PUSH1 0x24 ADD PUSH1 0x40 DUP1 MLOAD DUP1 DUP4 SUB DUP2 DUP7 GAS STATICCALL ISZERO DUP1 ISZERO PUSH2 0x242 JUMPI RETURNDATASIZE PUSH1 0x0 DUP1 RETURNDATACOPY RETURNDATASIZE PUSH1 0x0 REVERT JUMPDEST POP POP POP POP PUSH1 0x40 MLOAD RETURNDATASIZE PUSH1 0x1F NOT PUSH1 0x1F DUP3 ADD AND DUP3 ADD DUP1 PUSH1 0x40 MSTORE POP DUP2 ADD SWAP1 PUSH2 0x266 SWAP2 SWAP1 PUSH2 0x73D JUMP JUMPDEST SWAP2 POP SWAP2 POP TIMESTAMP DUP2 GT ISZERO PUSH2 0x2BA JUMPI PUSH1 0x40 MLOAD PUSH3 0x461BCD PUSH1 0xE5 SHL DUP2 MSTORE PUSH1 0x20 PUSH1 0x4 DUP3 ADD MSTORE PUSH1 0x1A PUSH1 0x24 DUP3 ADD MSTORE PUSH32 0x457363726F7720706572696F64206E6F7420657870697265642E000000000000 PUSH1 0x44 DUP3 ADD MSTORE PUSH1 0x64 ADD PUSH2 0x1EC JUMP JUMPDEST PUSH1 0x1 SLOAD PUSH1 0x40 MLOAD PUSH4 0x852CD8D PUSH1 0xE3 SHL DUP2 MSTORE PUSH1 0x4 DUP2 ADD DUP6 SWAP1 MSTORE PUSH1 0x1 PUSH1 0x1 PUSH1 0xA0 SHL SUB SWAP1 SWAP2 AND SWAP1 PUSH4 0x42966C68 SWAP1 PUSH1 0x24 ADD PUSH1 0x0 PUSH1 0x40 MLOAD DUP1 DUP4 SUB DUP2 PUSH1 0x0 DUP8 DUP1 EXTCODESIZE ISZERO DUP1 ISZERO PUSH2 0x300 JUMPI PUSH1 0x0 DUP1 REVERT JUMPDEST POP GAS CALL ISZERO DUP1 ISZERO PUSH2 0x314 JUMPI RETURNDATASIZE PUSH1 0x0 DUP1 RETURNDATACOPY RETURNDATASIZE PUSH1 0x0 REVERT JUMPDEST POP POP PUSH1 0x40 MLOAD PUSH1 0x0 SWAP3 POP CALLER SWAP2 POP DUP5 SWAP1 DUP4 DUP2 DUP2 DUP2 DUP6 DUP8 GAS CALL SWAP3 POP POP POP RETURNDATASIZE DUP1 PUSH1 0x0 DUP2 EQ PUSH2 0x35A JUMPI PUSH1 0x40 MLOAD SWAP2 POP PUSH1 0x1F NOT PUSH1 0x3F RETURNDATASIZE ADD AND DUP3 ADD PUSH1 0x40 MSTORE RETURNDATASIZE DUP3 MSTORE RETURNDATASIZE PUSH1 0x0 PUSH1 0x20 DUP5 ADD RETURNDATACOPY PUSH2 0x35F JUMP JUMPDEST PUSH1 0x60 SWAP2 POP JUMPDEST POP POP SWAP1 POP DUP1 PUSH2 0x3A5 JUMPI PUSH1 0x40 MLOAD PUSH3 0x461BCD PUSH1 0xE5 SHL DUP2 MSTORE PUSH1 0x20 PUSH1 0x4 DUP3 ADD MSTORE PUSH1 0x12 PUSH1 0x24 DUP3 ADD MSTORE PUSH18 0x8CC2D2D8CAC840E8DE40E6CADCC8408AA89 PUSH1 0x73 SHL PUSH1 0x44 DUP3 ADD MSTORE PUSH1 0x64 ADD PUSH2 0x1EC JUMP JUMPDEST PUSH1 0x40 DUP1 MLOAD CALLER DUP1 DUP3 MSTORE PUSH1 0x20 DUP3 ADD MSTORE SWAP1 DUP2 ADD DUP5 SWAP1 MSTORE PUSH1 0x60 DUP2 ADD DUP4 SWAP1 MSTORE PUSH32 0x5CDF07AD0FC222442720B108E3ED4C4640F0FADC2AB2253E66F259A0FEA83480 SWAP1 PUSH1 0x80 ADD JUMPDEST PUSH1 0x40 MLOAD DUP1 SWAP2 SUB SWAP1 LOG1 POP POP POP POP JUMP JUMPDEST PUSH2 0x3FB PUSH2 0x5F8 JUMP JUMPDEST PUSH2 0x405 PUSH1 0x0 PUSH2 0x652 JUMP JUMPDEST JUMP JUMPDEST PUSH1 0x1 PUSH1 0x1 PUSH1 0xA0 SHL SUB DUP3 AND PUSH2 0x45D JUMPI PUSH1 0x40 MLOAD PUSH3 0x461BCD PUSH1 0xE5 SHL DUP2 MSTORE PUSH1 0x20 PUSH1 0x4 DUP3 ADD MSTORE PUSH1 0x1E PUSH1 0x24 DUP3 ADD MSTORE PUSH32 0x43616E6E6F7420657363726F7720746F207A65726F20616464726573732E0000 PUSH1 0x44 DUP3 ADD MSTORE PUSH1 0x64 ADD PUSH2 0x1EC JUMP JUMPDEST PUSH1 0x0 CALLVALUE GT PUSH2 0x4A4 JUMPI PUSH1 0x40 MLOAD PUSH3 0x461BCD PUSH1 0xE5 SHL DUP2 MSTORE PUSH1 0x20 PUSH1 0x4 DUP3 ADD MSTORE PUSH1 0x14 PUSH1 0x24 DUP3 ADD MSTORE PUSH20 0x21B0B73737BA1032B9B1B937BB90181022AA2417 PUSH1 0x61 SHL PUSH1 0x44 DUP3 ADD MSTORE PUSH1 0x64 ADD PUSH2 0x1EC JUMP JUMPDEST CALLVALUE PUSH1 0x0 PUSH2 0x4B1 DUP4 TIMESTAMP PUSH2 0x761 JUMP JUMPDEST PUSH1 0x1 SLOAD PUSH1 0x40 MLOAD PUSH4 0xAB714FB PUSH1 0xE1 SHL DUP2 MSTORE PUSH1 0x1 PUSH1 0x1 PUSH1 0xA0 SHL SUB DUP8 DUP2 AND PUSH1 0x4 DUP4 ADD MSTORE PUSH1 0x24 DUP3 ADD DUP7 SWAP1 MSTORE PUSH1 0x44 DUP3 ADD DUP5 SWAP1 MSTORE SWAP3 SWAP4 POP SWAP2 AND SWAP1 PUSH4 0x156E29F6 SWAP1 PUSH1 0x64 ADD PUSH1 0x20 PUSH1 0x40 MLOAD DUP1 DUP4 SUB DUP2 PUSH1 0x0 DUP8 GAS CALL ISZERO DUP1 ISZERO PUSH2 0x50D JUMPI RETURNDATASIZE PUSH1 0x0 DUP1 RETURNDATACOPY RETURNDATASIZE PUSH1 0x0 REVERT JUMPDEST POP POP POP POP PUSH1 0x40 MLOAD RETURNDATASIZE PUSH1 0x1F NOT PUSH1 0x1F DUP3 ADD AND DUP3 ADD DUP1 PUSH1 0x40 MSTORE POP DUP2 ADD SWAP1 PUSH2 0x531 SWAP2 SWAP1 PUSH2 0x788 JUMP JUMPDEST POP PUSH1 0x40 DUP1 MLOAD CALLER DUP2 MSTORE PUSH1 0x1 PUSH1 0x1 PUSH1 0xA0 SHL SUB DUP7 AND PUSH1 0x20 DUP3 ADD MSTORE SWAP1 DUP2 ADD DUP4 SWAP1 MSTORE PUSH1 0x60 DUP2 ADD DUP3 SWAP1 MSTORE PUSH32 0xF5681F9D0DB1B911AC18EE83D515A1CF1051853A9EAE418316A2FDF7DEA427C5 SWAP1 PUSH1 0x80 ADD PUSH2 0x3E5 JUMP JUMPDEST PUSH2 0x587 PUSH2 0x5F8 JUMP JUMPDEST PUSH1 0x1 PUSH1 0x1 PUSH1 0xA0 SHL SUB DUP2 AND PUSH2 0x5EC JUMPI PUSH1 0x40 MLOAD PUSH3 0x461BCD PUSH1 0xE5 SHL DUP2 MSTORE PUSH1 0x20 PUSH1 0x4 DUP3 ADD MSTORE PUSH1 0x26 PUSH1 0x24 DUP3 ADD MSTORE PUSH32 0x4F776E61626C653A206E6577206F776E657220697320746865207A65726F2061 PUSH1 0x44 DUP3 ADD MSTORE PUSH6 0x646472657373 PUSH1 0xD0 SHL PUSH1 0x64 DUP3 ADD MSTORE PUSH1 0x84 ADD PUSH2 0x1EC JUMP JUMPDEST PUSH2 0x5F5 DUP2 PUSH2 0x652 JUMP JUMPDEST POP JUMP JUMPDEST PUSH1 0x0 SLOAD PUSH1 0x1 PUSH1 0x1 PUSH1 0xA0 SHL SUB AND CALLER EQ PUSH2 0x405 JUMPI PUSH1 0x40 MLOAD PUSH3 0x461BCD PUSH1 0xE5 SHL DUP2 MSTORE PUSH1 0x20 PUSH1 0x4 DUP3 ADD DUP2 SWAP1 MSTORE PUSH1 0x24 DUP3 ADD MSTORE PUSH32 0x4F776E61626C653A2063616C6C6572206973206E6F7420746865206F776E6572 PUSH1 0x44 DUP3 ADD MSTORE PUSH1 0x64 ADD PUSH2 0x1EC JUMP JUMPDEST PUSH1 0x0 DUP1 SLOAD PUSH1 0x1 PUSH1 0x1 PUSH1 0xA0 SHL SUB DUP4 DUP2 AND PUSH1 0x1 PUSH1 0x1 PUSH1 0xA0 SHL SUB NOT DUP4 AND DUP2 OR DUP5 SSTORE PUSH1 0x40 MLOAD SWAP2 SWAP1 SWAP3 AND SWAP3 DUP4 SWAP2 PUSH32 0x8BE0079C531659141344CD1FD0A4F28419497F9722A3DAAFE3B4186F6B6457E0 SWAP2 SWAP1 LOG3 POP POP JUMP JUMPDEST PUSH1 0x0 PUSH1 0x20 DUP3 DUP5 SUB SLT ISZERO PUSH2 0x6B4 JUMPI PUSH1 0x0 DUP1 REVERT JUMPDEST POP CALLDATALOAD SWAP2 SWAP1 POP JUMP JUMPDEST PUSH1 0x1 PUSH1 0x1 PUSH1 0xA0 SHL SUB DUP2 AND DUP2 EQ PUSH2 0x5F5 JUMPI PUSH1 0x0 DUP1 REVERT JUMPDEST PUSH1 0x0 DUP1 PUSH1 0x40 DUP4 DUP6 SUB SLT ISZERO PUSH2 0x6E3 JUMPI PUSH1 0x0 DUP1 REVERT JUMPDEST DUP3 CALLDATALOAD PUSH2 0x6EE DUP2 PUSH2 0x6BB JUMP JUMPDEST SWAP5 PUSH1 0x20 SWAP4 SWAP1 SWAP4 ADD CALLDATALOAD SWAP4 POP POP POP JUMP JUMPDEST PUSH1 0x0 PUSH1 0x20 DUP3 DUP5 SUB SLT ISZERO PUSH2 0x70E JUMPI PUSH1 0x0 DUP1 REVERT JUMPDEST DUP2 CALLDATALOAD PUSH2 0x719 DUP2 PUSH2 0x6BB JUMP JUMPDEST SWAP4 SWAP3 POP POP POP JUMP JUMPDEST PUSH1 0x0 PUSH1 0x20 DUP3 DUP5 SUB SLT ISZERO PUSH2 0x732 JUMPI PUSH1 0x0 DUP1 REVERT JUMPDEST DUP2 MLOAD PUSH2 0x719 DUP2 PUSH2 0x6BB JUMP JUMPDEST PUSH1 0x0 DUP1 PUSH1 0x40 DUP4 DUP6 SUB SLT ISZERO PUSH2 0x750 JUMPI PUSH1 0x0 DUP1 REVERT JUMPDEST POP POP DUP1 MLOAD PUSH1 0x20 SWAP1 SWAP2 ADD MLOAD SWAP1 SWAP3 SWAP1 SWAP2 POP JUMP JUMPDEST DUP1 DUP3 ADD DUP1 DUP3 GT ISZERO PUSH2 0x782 JUMPI PUSH4 0x4E487B71 PUSH1 0xE0 SHL PUSH1 0x0 MSTORE PUSH1 0x11 PUSH1 0x4 MSTORE PUSH1 0x24 PUSH1 0x0 REVERT JUMPDEST SWAP3 SWAP2 POP POP JUMP JUMPDEST PUSH1 0x0 PUSH1 0x20 DUP3 DUP5 SUB SLT ISZERO PUSH2 0x79A JUMPI PUSH1 0x0 DUP1 REVERT JUMPDEST POP MLOAD SWAP2 SWAP1 POP JUMP INVALID LOG2 PUSH5 0x6970667358 0x22 SLT KECCAK256 0xC1 SWAP1 0xE6 SWAP12 SSTORE SELFDESTRUCT CALL SAR PUSH14 0xC228E488602EB2575321F70EE783 0xE6 ADD 0xD8 0xCC 0xEE SLOAD CODESIZE SDIV 0xDC PUSH5 0x736F6C6343 STOP ADDMOD SGT STOP CALLER ",
  "sha1": "2537ed20430b95dca7d8dc27c0758efc15b5d612",
  "source": "// SCH Course Copyright Policy (C): DO-NOT-SHARE-WITH-ANYONE\n// https://smartcontractshacking.com/#copyright-policy\npragma solidity ^0.8.13;\n\nimport \"@openzeppelin/contracts/access/Ownable.sol\";\nimport \"@openzeppelin/contracts/token/ERC721/IERC721.sol\";\n\ninterface IEscrowNFT is IERC721 {\n    function tokenDetails(uint256) external view returns (uint256, uint256);\n    function mint(address _recipient, uint256 _amount, uint256 _matureTime) external returns (uint256);\n    function burn(uint256 tokenId) external;\n}\n\n/**\n * @title EscrowSecured\n * @author JohnnyTime (https://smartcontractshacking.com)\n */\ncontract EscrowSecured is Ownable {\n\n    event Deposited(address from, address recipient, uint256 amount, uint256 duration);\n    event Redeemed(address from, address recipient, uint256 amount, uint256 duration);\n\n    address public escrowNFT;\n    constructor(address _escrowNftAddress) {\n        escrowNFT = _escrowNftAddress;\n    }\n\n    function escrowEth(address _recipient, uint256 _duration) external payable {\n        require(_recipient != address(0), \"Cannot escrow to zero address.\");\n        require(msg.value > 0, \"Cannot escrow 0 ETH.\");\n\n        uint256 amount = msg.value;\n        uint256 matureTime = block.timestamp + _duration;\n\n        // Option 1\n        IEscrowNFT(escrowNFT).mint(_recipient, amount, matureTime);\n\n        // Option 2\n        // (bool succeded, ) = escrowNFT.call(\n        //     abi.encodeWithSignature(\"mint(address,uint256,uint256)\", \n        //     _recipient, amount, matureTime));\n        // require(succeded, \"couldn't mint NFT\");\n\n        emit Deposited(msg.sender, _recipient, amount, matureTime);\n    }\n\n    function redeemEthFromEscrow(uint256 _tokenId) external {\n        \n        require(IEscrowNFT(escrowNFT).ownerOf(_tokenId) == msg.sender, \"Must own token to claim underlying ETH\");\n\n        (uint256 amount, uint256 matureTime) = IEscrowNFT(escrowNFT).tokenDetails(_tokenId);\n        require(matureTime <= block.timestamp, \"Escrow period not expired.\");\n\n        // Option 1\n        IEscrowNFT(escrowNFT).burn(_tokenId);\n\n        // Option 2\n        // (bool succeded, ) = escrowNFT.call(abi.encodeWithSignature(\"burn(uint256)\", _tokenId));\n        // require(succeded, \"Failed to burn NFT\");\n\n        (bool succeded2, ) = payable(msg.sender).call{value: amount}(\"\");\n        require(succeded2, \"Failed to send ETH\");\n\n        emit Redeemed(msg.sender, msg.sender, amount, matureTime);\n    }\n}",
  "sourcePath": "contracts/unchecked-returns-2/EscrowSecured.sol",
  "type": "contract"
}