{
  "abi": [
    {
      "inputs": [],
      "stateMutability": "payable",
      "type": "constructor"
    },
    {
      "inputs": [
        {
          "internalType": "string",
          "name": "solution",
          "type": "string"
        }
      ],
      "name": "claim",
      "outputs": [],
      "stateMutability": "nonpayable",
      "type": "function"
    },
    {
      "inputs": [],
      "name": "complicateFunction",
      "outputs": [
        {
          "internalType": "string",
          "name": "",
          "type": "string"
        }
      ],
      "stateMutability": "pure",
      "type": "function"
    },
    {
      "inputs": [],
      "name": "funnyFunction",
      "outputs": [
        {
          "internalType": "string",
          "name": "",
          "type": "string"
        }
      ],
      "stateMutability": "pure",
      "type": "function"
    },
    {
      "inputs": [],
      "name": "getBalance",
      "outputs": [
        {
          "internalType": "uint256",
          "name": "",
          "type": "uint256"
        }
      ],
      "stateMutability": "view",
      "type": "function"
    },
    {
      "inputs": [],
      "name": "hash",
      "outputs": [
        {
          "internalType": "bytes32",
          "name": "",
          "type": "bytes32"
        }
      ],
      "stateMutability": "view",
      "type": "function"
    }
  ],
  "bytecode": "60806040526104ed806100136000396000f3fe608060405234801561001057600080fd5b50600436106100575760003560e01c806309bd5a601461005c57806312065fe0146100965780636f6b460a1461009c578063e78e3000146100b1578063f3fe12c9146100b9575b600080fd5b6100837f564ccaf7594d66b1eaaea24fe01f0585bf52ee70852af4eac0cc4b04711cd0e281565b6040519081526020015b60405180910390f35b47610083565b6100a46100ce565b60405161008d91906102d1565b6100a4610115565b6100cc6100c736600461031a565b610135565b005b606060005b60648110156100f657603281146100f657806100ee816103cb565b9150506100d3565b5060405180608001604052806056815260200161040f60569139905090565b606060405180608001604052806053815260200161046560539139905090565b8060405160200161014691906103f2565b604051602081830303815290604052805190602001207f564ccaf7594d66b1eaaea24fe01f0585bf52ee70852af4eac0cc4b04711cd0e260001b146101c75760405162461bcd60e51b8152602060048201526012602482015271496e636f727265637420726573706f6e736560701b60448201526064015b60405180910390fd5b678ac7230489e800004710156102125760405162461bcd60e51b815260206004820152601060248201526f2737ba1032b737bab3b41032ba3432b960811b60448201526064016101be565b6040516000903390678ac7230489e80000908381818185875af1925050503d806000811461025c576040519150601f19603f3d011682016040523d82523d6000602084013e610261565b606091505b50509050806102a95760405162461bcd60e51b81526020600482015260146024820152732330b4b632b2103a379039b2b7321022ba3432b960611b60448201526064016101be565b5050565b60005b838110156102c85781810151838201526020016102b0565b50506000910152565b60208152600082518060208401526102f08160408501602087016102ad565b601f01601f19169190910160400192915050565b634e487b7160e01b600052604160045260246000fd5b60006020828403121561032c57600080fd5b813567ffffffffffffffff8082111561034457600080fd5b818401915084601f83011261035857600080fd5b81358181111561036a5761036a610304565b604051601f8201601f19908116603f0116810190838211818310171561039257610392610304565b816040528281528760208487010111156103ab57600080fd5b826020860160208301376000928101602001929092525095945050505050565b6000600182016103eb57634e487b7160e01b600052601160045260246000fd5b5060010190565b600082516104048184602087016102ad565b919091019291505056fe4920616d206120636f6d706c69636174652066756e6374696f6e2c204920616d206e6f74207573656420666f7220616e797468696e672c204920616d206a757374206865726520746f206d616b6520796f75206372794920616d20612066756e6e792066756e6374696f6e2c204920616d206e6f74207573656420666f7220616e797468696e672c204920616d206a757374206865726520746f206d616b6520796f75206c61756768a2646970667358221220f941ae6541b6d333d6a0767e4b2406e857a4dc9741cc816aae08b46da0ed209564736f6c63430008130033",
  "bytecodeSha1": "026d1eb3ac5558d790065d89597dd4b3e7771b92",
  "compiler": {
    "evm_version": "istanbul",
    "optimizer": {
      "enabled": true,
      "runs": 200
    },
    "version": "0.8.19+commit.7dd6d404"
  },
  "contractName": "FindMe",
  "language": "Solidity",
  "natspec": {
    "author": "JohnnyTime (https://smartcontractshacking.com)",
    "kind": "dev",
    "methods": {},
    "title": "FindMe",
    "version": 1
  },
  "opcodes": "PUSH1 0x80 PUSH1 0x40 MSTORE CALLVALUE DUP1 ISZERO PUSH2 0x10 JUMPI PUSH1 0x0 DUP1 REVERT JUMPDEST POP PUSH1 0x4 CALLDATASIZE LT PUSH2 0x57 JUMPI PUSH1 0x0 CALLDATALOAD PUSH1 0xE0 SHR DUP1 PUSH4 0x9BD5A60 EQ PUSH2 0x5C JUMPI DUP1 PUSH4 0x12065FE0 EQ PUSH2 0x96 JUMPI DUP1 PUSH4 0x6F6B460A EQ PUSH2 0x9C JUMPI DUP1 PUSH4 0xE78E3000 EQ PUSH2 0xB1 JUMPI DUP1 PUSH4 0xF3FE12C9 EQ PUSH2 0xB9 JUMPI JUMPDEST PUSH1 0x0 DUP1 REVERT JUMPDEST PUSH2 0x83 PUSH32 0x564CCAF7594D66B1EAAEA24FE01F0585BF52EE70852AF4EAC0CC4B04711CD0E2 DUP2 JUMP JUMPDEST PUSH1 0x40 MLOAD SWAP1 DUP2 MSTORE PUSH1 0x20 ADD JUMPDEST PUSH1 0x40 MLOAD DUP1 SWAP2 SUB SWAP1 RETURN JUMPDEST SELFBALANCE PUSH2 0x83 JUMP JUMPDEST PUSH2 0xA4 PUSH2 0xCE JUMP JUMPDEST PUSH1 0x40 MLOAD PUSH2 0x8D SWAP2 SWAP1 PUSH2 0x2D1 JUMP JUMPDEST PUSH2 0xA4 PUSH2 0x115 JUMP JUMPDEST PUSH2 0xCC PUSH2 0xC7 CALLDATASIZE PUSH1 0x4 PUSH2 0x31A JUMP JUMPDEST PUSH2 0x135 JUMP JUMPDEST STOP JUMPDEST PUSH1 0x60 PUSH1 0x0 JUMPDEST PUSH1 0x64 DUP2 LT ISZERO PUSH2 0xF6 JUMPI PUSH1 0x32 DUP2 EQ PUSH2 0xF6 JUMPI DUP1 PUSH2 0xEE DUP2 PUSH2 0x3CB JUMP JUMPDEST SWAP2 POP POP PUSH2 0xD3 JUMP JUMPDEST POP PUSH1 0x40 MLOAD DUP1 PUSH1 0x80 ADD PUSH1 0x40 MSTORE DUP1 PUSH1 0x56 DUP2 MSTORE PUSH1 0x20 ADD PUSH2 0x40F PUSH1 0x56 SWAP2 CODECOPY SWAP1 POP SWAP1 JUMP JUMPDEST PUSH1 0x60 PUSH1 0x40 MLOAD DUP1 PUSH1 0x80 ADD PUSH1 0x40 MSTORE DUP1 PUSH1 0x53 DUP2 MSTORE PUSH1 0x20 ADD PUSH2 0x465 PUSH1 0x53 SWAP2 CODECOPY SWAP1 POP SWAP1 JUMP JUMPDEST DUP1 PUSH1 0x40 MLOAD PUSH1 0x20 ADD PUSH2 0x146 SWAP2 SWAP1 PUSH2 0x3F2 JUMP JUMPDEST PUSH1 0x40 MLOAD PUSH1 0x20 DUP2 DUP4 SUB SUB DUP2 MSTORE SWAP1 PUSH1 0x40 MSTORE DUP1 MLOAD SWAP1 PUSH1 0x20 ADD KECCAK256 PUSH32 0x564CCAF7594D66B1EAAEA24FE01F0585BF52EE70852AF4EAC0CC4B04711CD0E2 PUSH1 0x0 SHL EQ PUSH2 0x1C7 JUMPI PUSH1 0x40 MLOAD PUSH3 0x461BCD PUSH1 0xE5 SHL DUP2 MSTORE PUSH1 0x20 PUSH1 0x4 DUP3 ADD MSTORE PUSH1 0x12 PUSH1 0x24 DUP3 ADD MSTORE PUSH18 0x496E636F727265637420726573706F6E7365 PUSH1 0x70 SHL PUSH1 0x44 DUP3 ADD MSTORE PUSH1 0x64 ADD JUMPDEST PUSH1 0x40 MLOAD DUP1 SWAP2 SUB SWAP1 REVERT JUMPDEST PUSH8 0x8AC7230489E80000 SELFBALANCE LT ISZERO PUSH2 0x212 JUMPI PUSH1 0x40 MLOAD PUSH3 0x461BCD PUSH1 0xE5 SHL DUP2 MSTORE PUSH1 0x20 PUSH1 0x4 DUP3 ADD MSTORE PUSH1 0x10 PUSH1 0x24 DUP3 ADD MSTORE PUSH16 0x2737BA1032B737BAB3B41032BA3432B9 PUSH1 0x81 SHL PUSH1 0x44 DUP3 ADD MSTORE PUSH1 0x64 ADD PUSH2 0x1BE JUMP JUMPDEST PUSH1 0x40 MLOAD PUSH1 0x0 SWAP1 CALLER SWAP1 PUSH8 0x8AC7230489E80000 SWAP1 DUP4 DUP2 DUP2 DUP2 DUP6 DUP8 GAS CALL SWAP3 POP POP POP RETURNDATASIZE DUP1 PUSH1 0x0 DUP2 EQ PUSH2 0x25C JUMPI PUSH1 0x40 MLOAD SWAP2 POP PUSH1 0x1F NOT PUSH1 0x3F RETURNDATASIZE ADD AND DUP3 ADD PUSH1 0x40 MSTORE RETURNDATASIZE DUP3 MSTORE RETURNDATASIZE PUSH1 0x0 PUSH1 0x20 DUP5 ADD RETURNDATACOPY PUSH2 0x261 JUMP JUMPDEST PUSH1 0x60 SWAP2 POP JUMPDEST POP POP SWAP1 POP DUP1 PUSH2 0x2A9 JUMPI PUSH1 0x40 MLOAD PUSH3 0x461BCD PUSH1 0xE5 SHL DUP2 MSTORE PUSH1 0x20 PUSH1 0x4 DUP3 ADD MSTORE PUSH1 0x14 PUSH1 0x24 DUP3 ADD MSTORE PUSH20 0x2330B4B632B2103A379039B2B7321022BA3432B9 PUSH1 0x61 SHL PUSH1 0x44 DUP3 ADD MSTORE PUSH1 0x64 ADD PUSH2 0x1BE JUMP JUMPDEST POP POP JUMP JUMPDEST PUSH1 0x0 JUMPDEST DUP4 DUP2 LT ISZERO PUSH2 0x2C8 JUMPI DUP2 DUP2 ADD MLOAD DUP4 DUP3 ADD MSTORE PUSH1 0x20 ADD PUSH2 0x2B0 JUMP JUMPDEST POP POP PUSH1 0x0 SWAP2 ADD MSTORE JUMP JUMPDEST PUSH1 0x20 DUP2 MSTORE PUSH1 0x0 DUP3 MLOAD DUP1 PUSH1 0x20 DUP5 ADD MSTORE PUSH2 0x2F0 DUP2 PUSH1 0x40 DUP6 ADD PUSH1 0x20 DUP8 ADD PUSH2 0x2AD JUMP JUMPDEST PUSH1 0x1F ADD PUSH1 0x1F NOT AND SWAP2 SWAP1 SWAP2 ADD PUSH1 0x40 ADD SWAP3 SWAP2 POP POP JUMP JUMPDEST PUSH4 0x4E487B71 PUSH1 0xE0 SHL PUSH1 0x0 MSTORE PUSH1 0x41 PUSH1 0x4 MSTORE PUSH1 0x24 PUSH1 0x0 REVERT JUMPDEST PUSH1 0x0 PUSH1 0x20 DUP3 DUP5 SUB SLT ISZERO PUSH2 0x32C JUMPI PUSH1 0x0 DUP1 REVERT JUMPDEST DUP2 CALLDATALOAD PUSH8 0xFFFFFFFFFFFFFFFF DUP1 DUP3 GT ISZERO PUSH2 0x344 JUMPI PUSH1 0x0 DUP1 REVERT JUMPDEST DUP2 DUP5 ADD SWAP2 POP DUP5 PUSH1 0x1F DUP4 ADD SLT PUSH2 0x358 JUMPI PUSH1 0x0 DUP1 REVERT JUMPDEST DUP2 CALLDATALOAD DUP2 DUP2 GT ISZERO PUSH2 0x36A JUMPI PUSH2 0x36A PUSH2 0x304 JUMP JUMPDEST PUSH1 0x40 MLOAD PUSH1 0x1F DUP3 ADD PUSH1 0x1F NOT SWAP1 DUP2 AND PUSH1 0x3F ADD AND DUP2 ADD SWAP1 DUP4 DUP3 GT DUP2 DUP4 LT OR ISZERO PUSH2 0x392 JUMPI PUSH2 0x392 PUSH2 0x304 JUMP JUMPDEST DUP2 PUSH1 0x40 MSTORE DUP3 DUP2 MSTORE DUP8 PUSH1 0x20 DUP5 DUP8 ADD ADD GT ISZERO PUSH2 0x3AB JUMPI PUSH1 0x0 DUP1 REVERT JUMPDEST DUP3 PUSH1 0x20 DUP7 ADD PUSH1 0x20 DUP4 ADD CALLDATACOPY PUSH1 0x0 SWAP3 DUP2 ADD PUSH1 0x20 ADD SWAP3 SWAP1 SWAP3 MSTORE POP SWAP6 SWAP5 POP POP POP POP POP JUMP JUMPDEST PUSH1 0x0 PUSH1 0x1 DUP3 ADD PUSH2 0x3EB JUMPI PUSH4 0x4E487B71 PUSH1 0xE0 SHL PUSH1 0x0 MSTORE PUSH1 0x11 PUSH1 0x4 MSTORE PUSH1 0x24 PUSH1 0x0 REVERT JUMPDEST POP PUSH1 0x1 ADD SWAP1 JUMP JUMPDEST PUSH1 0x0 DUP3 MLOAD PUSH2 0x404 DUP2 DUP5 PUSH1 0x20 DUP8 ADD PUSH2 0x2AD JUMP JUMPDEST SWAP2 SWAP1 SWAP2 ADD SWAP3 SWAP2 POP POP JUMP INVALID 0x49 KECCAK256 PUSH2 0x6D20 PUSH2 0x2063 PUSH16 0x6D706C69636174652066756E6374696F PUSH15 0x2C204920616D206E6F742075736564 KECCAK256 PUSH7 0x6F7220616E7974 PUSH9 0x696E672C204920616D KECCAK256 PUSH11 0x757374206865726520746F KECCAK256 PUSH14 0x616B6520796F7520637279492061 PUSH14 0x20612066756E6E792066756E6374 PUSH10 0x6F6E2C204920616D206E PUSH16 0x74207573656420666F7220616E797468 PUSH10 0x6E672C204920616D206A PUSH22 0x7374206865726520746F206D616B6520796F75206C61 PUSH22 0x6768A2646970667358221220F941AE6541B6D333D6A0 PUSH23 0x7E4B2406E857A4DC9741CC816AAE08B46DA0ED20956473 PUSH16 0x6C634300081300330000000000000000 ",
  "sha1": "d299d29c8dac9cf72f93c330628419081a866109",
  "source": "// SCH Course Copyright Policy (C): DO-NOT-SHARE-WITH-ANYONE\n// https://smartcontractshacking.com/#copyright-policy\npragma solidity ^0.8.13;\n\n/**\n * @title FindMe\n * @author JohnnyTime (https://smartcontractshacking.com)\n */\ncontract FindMe {\n    bytes32 public constant hash =\n        0x564ccaf7594d66b1eaaea24fe01f0585bf52ee70852af4eac0cc4b04711cd0e2;\n\n    constructor() payable {}\n\n    function claim(string memory solution) public {\n        require(\n            hash == keccak256(abi.encodePacked(solution)),\n            \"Incorrect response\"\n        );\n        require(address(this).balance >= 10 ether, \"Not enough ether\");\n        (bool sent, ) = msg.sender.call{value: 10 ether}(\"\");\n\n        require(sent, \"Failed to send Ether\");\n    }\n\n    function funnyFunction() public pure returns (string memory) {\n        return\n            \"I am a funny function, I am not used for anything, I am just here to make you laugh\";\n    }\n\n    function complicateFunction() public pure returns (string memory) {\n        for (uint256 i = 0; i < 100; i++) {\n            if (i == 50) {\n                break;\n            }\n        }\n\n        return\n            \"I am a complicate function, I am not used for anything, I am just here to make you cry\";\n    }\n\n    function getBalance() public view returns (uint256) {\n        return address(this).balance;\n    }\n}\n",
  "sourcePath": "contracts/frontrunning-1/FindMe.sol",
  "type": "contract"
}