{
  "abi": [
    {
      "inputs": [
        {
          "internalType": "address",
          "name": "_pool",
          "type": "address"
        }
      ],
      "stateMutability": "nonpayable",
      "type": "constructor"
    },
    {
      "inputs": [
        {
          "internalType": "address[]",
          "name": "assets",
          "type": "address[]"
        },
        {
          "internalType": "uint256[]",
          "name": "amounts",
          "type": "uint256[]"
        },
        {
          "internalType": "uint256[]",
          "name": "premiums",
          "type": "uint256[]"
        },
        {
          "internalType": "address",
          "name": "initiator",
          "type": "address"
        },
        {
          "internalType": "bytes",
          "name": "params",
          "type": "bytes"
        }
      ],
      "name": "executeOperation",
      "outputs": [
        {
          "internalType": "bool",
          "name": "",
          "type": "bool"
        }
      ],
      "stateMutability": "nonpayable",
      "type": "function"
    },
    {
      "inputs": [
        {
          "internalType": "address",
          "name": "token",
          "type": "address"
        },
        {
          "internalType": "uint256",
          "name": "amount",
          "type": "uint256"
        }
      ],
      "name": "getFlashLoan",
      "outputs": [],
      "stateMutability": "nonpayable",
      "type": "function"
    }
  ],
  "bytecode": "608060405234801561001057600080fd5b506040516103eb3803806103eb83398101604081905261002f91610054565b600080546001600160a01b0319166001600160a01b0392909216919091179055610084565b60006020828403121561006657600080fd5b81516001600160a01b038116811461007d57600080fd5b9392505050565b610358806100936000396000f3fe608060405234801561001057600080fd5b50600436106100365760003560e01c8063920f5c841461003b5780639b2f3e3914610068575b600080fd5b6100546100493660046101de565b600095945050505050565b604051901515815260200160405180910390f35b61007a6100763660046102f8565b5050565b005b634e487b7160e01b600052604160045260246000fd5b604051601f8201601f1916810167ffffffffffffffff811182821017156100bb576100bb61007c565b604052919050565b600067ffffffffffffffff8211156100dd576100dd61007c565b5060051b60200190565b80356001600160a01b03811681146100fe57600080fd5b919050565b600082601f83011261011457600080fd5b81356020610129610124836100c3565b610092565b82815260059290921b8401810191818101908684111561014857600080fd5b8286015b84811015610163578035835291830191830161014c565b509695505050505050565b600082601f83011261017f57600080fd5b813567ffffffffffffffff8111156101995761019961007c565b6101ac601f8201601f1916602001610092565b8181528460208386010111156101c157600080fd5b816020850160208301376000918101602001919091529392505050565b600080600080600060a086880312156101f657600080fd5b853567ffffffffffffffff8082111561020e57600080fd5b818801915088601f83011261022257600080fd5b81356020610232610124836100c3565b82815260059290921b8401810191818101908c84111561025157600080fd5b948201945b8386101561027657610267866100e7565b82529482019490820190610256565b9950508901359250508082111561028c57600080fd5b61029889838a01610103565b955060408801359150808211156102ae57600080fd5b6102ba89838a01610103565b94506102c8606089016100e7565b935060808801359150808211156102de57600080fd5b506102eb8882890161016e565b9150509295509295909350565b6000806040838503121561030b57600080fd5b610314836100e7565b94602093909301359350505056fea2646970667358221220e96552bcc6eb1cb7a66f72806e55319821c1db7fe5c934bbb0b0b1ab787666d364736f6c63430008130033",
  "bytecodeSha1": "728c9edb72880dbb01b387d6d4e7425e2f9c011f",
  "compiler": {
    "evm_version": "istanbul",
    "optimizer": {
      "enabled": true,
      "runs": 200
    },
    "version": "0.8.19+commit.7dd6d404"
  },
  "contractName": "FlashLoan",
  "language": "Solidity",
  "natspec": {
    "author": "JohnnyTime (https://smartcontractshacking.com)",
    "kind": "dev",
    "methods": {},
    "title": "FlashLoan",
    "version": 1
  },
  "opcodes": "PUSH1 0x80 PUSH1 0x40 MSTORE CALLVALUE DUP1 ISZERO PUSH2 0x10 JUMPI PUSH1 0x0 DUP1 REVERT JUMPDEST POP PUSH1 0x4 CALLDATASIZE LT PUSH2 0x36 JUMPI PUSH1 0x0 CALLDATALOAD PUSH1 0xE0 SHR DUP1 PUSH4 0x920F5C84 EQ PUSH2 0x3B JUMPI DUP1 PUSH4 0x9B2F3E39 EQ PUSH2 0x68 JUMPI JUMPDEST PUSH1 0x0 DUP1 REVERT JUMPDEST PUSH2 0x54 PUSH2 0x49 CALLDATASIZE PUSH1 0x4 PUSH2 0x1DE JUMP JUMPDEST PUSH1 0x0 SWAP6 SWAP5 POP POP POP POP POP JUMP JUMPDEST PUSH1 0x40 MLOAD SWAP1 ISZERO ISZERO DUP2 MSTORE PUSH1 0x20 ADD PUSH1 0x40 MLOAD DUP1 SWAP2 SUB SWAP1 RETURN JUMPDEST PUSH2 0x7A PUSH2 0x76 CALLDATASIZE PUSH1 0x4 PUSH2 0x2F8 JUMP JUMPDEST POP POP JUMP JUMPDEST STOP JUMPDEST PUSH4 0x4E487B71 PUSH1 0xE0 SHL PUSH1 0x0 MSTORE PUSH1 0x41 PUSH1 0x4 MSTORE PUSH1 0x24 PUSH1 0x0 REVERT JUMPDEST PUSH1 0x40 MLOAD PUSH1 0x1F DUP3 ADD PUSH1 0x1F NOT AND DUP2 ADD PUSH8 0xFFFFFFFFFFFFFFFF DUP2 GT DUP3 DUP3 LT OR ISZERO PUSH2 0xBB JUMPI PUSH2 0xBB PUSH2 0x7C JUMP JUMPDEST PUSH1 0x40 MSTORE SWAP2 SWAP1 POP JUMP JUMPDEST PUSH1 0x0 PUSH8 0xFFFFFFFFFFFFFFFF DUP3 GT ISZERO PUSH2 0xDD JUMPI PUSH2 0xDD PUSH2 0x7C JUMP JUMPDEST POP PUSH1 0x5 SHL PUSH1 0x20 ADD SWAP1 JUMP JUMPDEST DUP1 CALLDATALOAD PUSH1 0x1 PUSH1 0x1 PUSH1 0xA0 SHL SUB DUP2 AND DUP2 EQ PUSH2 0xFE JUMPI PUSH1 0x0 DUP1 REVERT JUMPDEST SWAP2 SWAP1 POP JUMP JUMPDEST PUSH1 0x0 DUP3 PUSH1 0x1F DUP4 ADD SLT PUSH2 0x114 JUMPI PUSH1 0x0 DUP1 REVERT JUMPDEST DUP2 CALLDATALOAD PUSH1 0x20 PUSH2 0x129 PUSH2 0x124 DUP4 PUSH2 0xC3 JUMP JUMPDEST PUSH2 0x92 JUMP JUMPDEST DUP3 DUP2 MSTORE PUSH1 0x5 SWAP3 SWAP1 SWAP3 SHL DUP5 ADD DUP2 ADD SWAP2 DUP2 DUP2 ADD SWAP1 DUP7 DUP5 GT ISZERO PUSH2 0x148 JUMPI PUSH1 0x0 DUP1 REVERT JUMPDEST DUP3 DUP7 ADD JUMPDEST DUP5 DUP2 LT ISZERO PUSH2 0x163 JUMPI DUP1 CALLDATALOAD DUP4 MSTORE SWAP2 DUP4 ADD SWAP2 DUP4 ADD PUSH2 0x14C JUMP JUMPDEST POP SWAP7 SWAP6 POP POP POP POP POP POP JUMP JUMPDEST PUSH1 0x0 DUP3 PUSH1 0x1F DUP4 ADD SLT PUSH2 0x17F JUMPI PUSH1 0x0 DUP1 REVERT JUMPDEST DUP2 CALLDATALOAD PUSH8 0xFFFFFFFFFFFFFFFF DUP2 GT ISZERO PUSH2 0x199 JUMPI PUSH2 0x199 PUSH2 0x7C JUMP JUMPDEST PUSH2 0x1AC PUSH1 0x1F DUP3 ADD PUSH1 0x1F NOT AND PUSH1 0x20 ADD PUSH2 0x92 JUMP JUMPDEST DUP2 DUP2 MSTORE DUP5 PUSH1 0x20 DUP4 DUP7 ADD ADD GT ISZERO PUSH2 0x1C1 JUMPI PUSH1 0x0 DUP1 REVERT JUMPDEST DUP2 PUSH1 0x20 DUP6 ADD PUSH1 0x20 DUP4 ADD CALLDATACOPY PUSH1 0x0 SWAP2 DUP2 ADD PUSH1 0x20 ADD SWAP2 SWAP1 SWAP2 MSTORE SWAP4 SWAP3 POP POP POP JUMP JUMPDEST PUSH1 0x0 DUP1 PUSH1 0x0 DUP1 PUSH1 0x0 PUSH1 0xA0 DUP7 DUP9 SUB SLT ISZERO PUSH2 0x1F6 JUMPI PUSH1 0x0 DUP1 REVERT JUMPDEST DUP6 CALLDATALOAD PUSH8 0xFFFFFFFFFFFFFFFF DUP1 DUP3 GT ISZERO PUSH2 0x20E JUMPI PUSH1 0x0 DUP1 REVERT JUMPDEST DUP2 DUP9 ADD SWAP2 POP DUP9 PUSH1 0x1F DUP4 ADD SLT PUSH2 0x222 JUMPI PUSH1 0x0 DUP1 REVERT JUMPDEST DUP2 CALLDATALOAD PUSH1 0x20 PUSH2 0x232 PUSH2 0x124 DUP4 PUSH2 0xC3 JUMP JUMPDEST DUP3 DUP2 MSTORE PUSH1 0x5 SWAP3 SWAP1 SWAP3 SHL DUP5 ADD DUP2 ADD SWAP2 DUP2 DUP2 ADD SWAP1 DUP13 DUP5 GT ISZERO PUSH2 0x251 JUMPI PUSH1 0x0 DUP1 REVERT JUMPDEST SWAP5 DUP3 ADD SWAP5 JUMPDEST DUP4 DUP7 LT ISZERO PUSH2 0x276 JUMPI PUSH2 0x267 DUP7 PUSH2 0xE7 JUMP JUMPDEST DUP3 MSTORE SWAP5 DUP3 ADD SWAP5 SWAP1 DUP3 ADD SWAP1 PUSH2 0x256 JUMP JUMPDEST SWAP10 POP POP DUP10 ADD CALLDATALOAD SWAP3 POP POP DUP1 DUP3 GT ISZERO PUSH2 0x28C JUMPI PUSH1 0x0 DUP1 REVERT JUMPDEST PUSH2 0x298 DUP10 DUP4 DUP11 ADD PUSH2 0x103 JUMP JUMPDEST SWAP6 POP PUSH1 0x40 DUP9 ADD CALLDATALOAD SWAP2 POP DUP1 DUP3 GT ISZERO PUSH2 0x2AE JUMPI PUSH1 0x0 DUP1 REVERT JUMPDEST PUSH2 0x2BA DUP10 DUP4 DUP11 ADD PUSH2 0x103 JUMP JUMPDEST SWAP5 POP PUSH2 0x2C8 PUSH1 0x60 DUP10 ADD PUSH2 0xE7 JUMP JUMPDEST SWAP4 POP PUSH1 0x80 DUP9 ADD CALLDATALOAD SWAP2 POP DUP1 DUP3 GT ISZERO PUSH2 0x2DE JUMPI PUSH1 0x0 DUP1 REVERT JUMPDEST POP PUSH2 0x2EB DUP9 DUP3 DUP10 ADD PUSH2 0x16E JUMP JUMPDEST SWAP2 POP POP SWAP3 SWAP6 POP SWAP3 SWAP6 SWAP1 SWAP4 POP JUMP JUMPDEST PUSH1 0x0 DUP1 PUSH1 0x40 DUP4 DUP6 SUB SLT ISZERO PUSH2 0x30B JUMPI PUSH1 0x0 DUP1 REVERT JUMPDEST PUSH2 0x314 DUP4 PUSH2 0xE7 JUMP JUMPDEST SWAP5 PUSH1 0x20 SWAP4 SWAP1 SWAP4 ADD CALLDATALOAD SWAP4 POP POP POP JUMP INVALID LOG2 PUSH5 0x6970667358 0x22 SLT KECCAK256 0xE9 PUSH6 0x52BCC6EB1CB7 0xA6 PUSH16 0x72806E55319821C1DB7FE5C934BBB0B0 0xB1 0xAB PUSH25 0x7666D364736F6C634300081300330000000000000000000000 ",
  "sha1": "a961d044be2137a65c4e293df66372dbd275922b",
  "source": "// SCH Course Copyright Policy (C): DO-NOT-SHARE-WITH-ANYONE\n// https://smartcontractshacking.com/#copyright-policy\npragma solidity ^0.8.13;\n\nimport \"../interfaces/ILendingPool.sol\";\nimport \"@openzeppelin/contracts/token/ERC20/IERC20.sol\";\nimport \"hardhat/console.sol\";\n\n/**\n * @title FlashLoan\n * @author JohnnyTime (https://smartcontractshacking.com)\n */\ncontract FlashLoan {\n\n    ILendingPool pool;\n\n    constructor(address _pool) {\n        pool = ILendingPool(_pool);\n    }\n\n    // TODO: Implement this function\n    function getFlashLoan(address token, uint amount) external {\n\n    }\n\n    // TODO: Implement this function\n    function executeOperation(\n        address[] memory assets,\n        uint256[] memory amounts,\n        uint256[] memory premiums,\n        address initiator,\n        bytes memory params\n    ) public returns (bool) {\n\n    }\n}",
  "sourcePath": "contracts/flash-loans-2/FlashLoan.sol",
  "type": "contract"
}