{
  "abi": [
    {
      "inputs": [
        {
          "internalType": "address[]",
          "name": "_sources",
          "type": "address[]"
        },
        {
          "internalType": "uint256[]",
          "name": "_prices",
          "type": "uint256[]"
        }
      ],
      "stateMutability": "nonpayable",
      "type": "constructor"
    },
    {
      "anonymous": false,
      "inputs": [
        {
          "indexed": true,
          "internalType": "address",
          "name": "source",
          "type": "address"
        },
        {
          "indexed": false,
          "internalType": "uint256",
          "name": "oldPrice",
          "type": "uint256"
        },
        {
          "indexed": false,
          "internalType": "uint256",
          "name": "newPrice",
          "type": "uint256"
        }
      ],
      "name": "PriceUpdated",
      "type": "event"
    },
    {
      "inputs": [],
      "name": "getAllSourcesPrices",
      "outputs": [
        {
          "internalType": "uint256[]",
          "name": "",
          "type": "uint256[]"
        }
      ],
      "stateMutability": "view",
      "type": "function"
    },
    {
      "inputs": [],
      "name": "getNumberOfSources",
      "outputs": [
        {
          "internalType": "uint256",
          "name": "",
          "type": "uint256"
        }
      ],
      "stateMutability": "view",
      "type": "function"
    },
    {
      "inputs": [],
      "name": "getPrice",
      "outputs": [
        {
          "internalType": "uint256",
          "name": "",
          "type": "uint256"
        }
      ],
      "stateMutability": "view",
      "type": "function"
    },
    {
      "inputs": [
        {
          "internalType": "address",
          "name": "",
          "type": "address"
        }
      ],
      "name": "getPriceBySource",
      "outputs": [
        {
          "internalType": "uint256",
          "name": "",
          "type": "uint256"
        }
      ],
      "stateMutability": "view",
      "type": "function"
    },
    {
      "inputs": [
        {
          "internalType": "uint256",
          "name": "newPrice",
          "type": "uint256"
        }
      ],
      "name": "postPrice",
      "outputs": [],
      "stateMutability": "nonpayable",
      "type": "function"
    }
  ],
  "bytecode": "60806040523480156200001157600080fd5b50604051620009eb380380620009eb8339810160408190526200003491620002b6565b60008251116200008b5760405162461bcd60e51b815260206004820152601460248201527f4174206c65617374206f6e6520736f757263652e00000000000000000000000060448201526064015b60405180910390fd5b8051825114620000f25760405162461bcd60e51b815260206004820152602b60248201527f736f7572636520616e6420707269636573206172726179206c656e677468207360448201526a0d0deead8c840dac2e8c6d60ab1b606482015260840162000082565b60005b8251811015620001cb57600083828151811062000116576200011662000394565b60209081029190910181015182546001810184556000938452919092200180546001600160a01b0319166001600160a01b03909216919091179055815182908290811062000168576200016862000394565b60200260200101516001600085848151811062000189576200018962000394565b60200260200101516001600160a01b03166001600160a01b03168152602001908152602001600020819055508080620001c290620003aa565b915050620000f5565b505050620003d2565b634e487b7160e01b600052604160045260246000fd5b604051601f8201601f191681016001600160401b0381118282101715620002155762000215620001d4565b604052919050565b60006001600160401b03821115620002395762000239620001d4565b5060051b60200190565b600082601f8301126200025557600080fd5b815160206200026e62000268836200021d565b620001ea565b82815260059290921b840181019181810190868411156200028e57600080fd5b8286015b84811015620002ab578051835291830191830162000292565b509695505050505050565b60008060408385031215620002ca57600080fd5b82516001600160401b0380821115620002e257600080fd5b818501915085601f830112620002f757600080fd5b815160206200030a62000268836200021d565b82815260059290921b840181019181810190898411156200032a57600080fd5b948201945b83861015620003615785516001600160a01b0381168114620003515760008081fd5b825294820194908201906200032f565b918801519196509093505050808211156200037b57600080fd5b506200038a8582860162000243565b9150509250929050565b634e487b7160e01b600052603260045260246000fd5b600060018201620003cb57634e487b7160e01b600052601160045260246000fd5b5060010190565b61060980620003e26000396000f3fe608060405234801561001057600080fd5b50600436106100575760003560e01c806341edc3e11461005c57806351c454db1461007a57806398d5fdca1461008c578063b0e3b4d514610094578063ebf9405d146100b4575b600080fd5b6100646100c9565b6040516100719190610481565b60405180910390f35b6000545b604051908152602001610071565b61007e610194565b61007e6100a23660046104c5565b60016020526000908152604090205481565b6100c76100c23660046104f5565b6101a3565b005b600080546060919067ffffffffffffffff8111156100e9576100e961050e565b604051908082528060200260200182016040528015610112578160200160208202803683370190505b50905060005b60005481101561018e576001600080838154811061013857610138610524565b60009182526020808320909101546001600160a01b03168352820192909252604001902054825183908390811061017157610171610524565b60209081029190910101528061018681610550565b915050610118565b50919050565b600061019e610245565b905090565b6000805b6000548110156101f657600081815481106101c4576101c4610524565b6000918252602090912001546001600160a01b031633036101e457600191505b806101ee81610550565b9150506101a7565b50806102375760405162461bcd60e51b815260206004820152600c60248201526b4e6f74206120736f7572636560a01b604482015260640160405180910390fd5b610241338361031e565b5050565b6000806102586102536100c9565b61037d565b905060028151610268919061057f565b6000036102f1576000816001600284516102829190610593565b61028c91906105a7565b8151811061029c5761029c610524565b60200260200101519050600082600284516102b79190610593565b815181106102c7576102c7610524565b60200260200101519050600281836102df91906105c0565b6102e99190610593565b935050505090565b80600282516103009190610593565b8151811061031057610310610524565b602002602001015191505090565b6001600160a01b038216600081815260016020908152604091829020805490859055825181815291820185905292917fb556fac599c3c70efb9ab1fa725ecace6c81cc48d1455f886607def065f3e0c0910160405180910390a2505050565b606060005b825181101561047a5760006103988260016105c0565b90505b8351811015610467578381815181106103b6576103b6610524565b60200260200101518483815181106103d0576103d0610524565b602002602001015111156104555760008483815181106103f2576103f2610524565b6020026020010151905084828151811061040e5761040e610524565b602002602001015185848151811061042857610428610524565b6020026020010181815250508085838151811061044757610447610524565b602002602001018181525050505b8061045f81610550565b91505061039b565b508061047281610550565b915050610382565b5090919050565b6020808252825182820181905260009190848201906040850190845b818110156104b95783518352928401929184019160010161049d565b50909695505050505050565b6000602082840312156104d757600080fd5b81356001600160a01b03811681146104ee57600080fd5b9392505050565b60006020828403121561050757600080fd5b5035919050565b634e487b7160e01b600052604160045260246000fd5b634e487b7160e01b600052603260045260246000fd5b634e487b7160e01b600052601160045260246000fd5b6000600182016105625761056261053a565b5060010190565b634e487b7160e01b600052601260045260246000fd5b60008261058e5761058e610569565b500690565b6000826105a2576105a2610569565b500490565b818103818111156105ba576105ba61053a565b92915050565b808201808211156105ba576105ba61053a56fea26469706673582212207b71fd0b7fc5f45f59aad7c5c9233012c03a876b63903bbc9cd643f567fcf05c64736f6c63430008130033",
  "bytecodeSha1": "efed3af83cdca6137f91619dae2b1bf773ceecd2",
  "compiler": {
    "evm_version": "istanbul",
    "optimizer": {
      "enabled": true,
      "runs": 200
    },
    "version": "0.8.19+commit.7dd6d404"
  },
  "contractName": "GoldOracle",
  "language": "Solidity",
  "natspec": {
    "author": "JohnnyTime (https://smartcontractshacking.com)",
    "kind": "dev",
    "methods": {},
    "title": "GoldOracle",
    "version": 1
  },
  "opcodes": "PUSH1 0x80 PUSH1 0x40 MSTORE CALLVALUE DUP1 ISZERO PUSH2 0x10 JUMPI PUSH1 0x0 DUP1 REVERT JUMPDEST POP PUSH1 0x4 CALLDATASIZE LT PUSH2 0x57 JUMPI PUSH1 0x0 CALLDATALOAD PUSH1 0xE0 SHR DUP1 PUSH4 0x41EDC3E1 EQ PUSH2 0x5C JUMPI DUP1 PUSH4 0x51C454DB EQ PUSH2 0x7A JUMPI DUP1 PUSH4 0x98D5FDCA EQ PUSH2 0x8C JUMPI DUP1 PUSH4 0xB0E3B4D5 EQ PUSH2 0x94 JUMPI DUP1 PUSH4 0xEBF9405D EQ PUSH2 0xB4 JUMPI JUMPDEST PUSH1 0x0 DUP1 REVERT JUMPDEST PUSH2 0x64 PUSH2 0xC9 JUMP JUMPDEST PUSH1 0x40 MLOAD PUSH2 0x71 SWAP2 SWAP1 PUSH2 0x481 JUMP JUMPDEST PUSH1 0x40 MLOAD DUP1 SWAP2 SUB SWAP1 RETURN JUMPDEST PUSH1 0x0 SLOAD JUMPDEST PUSH1 0x40 MLOAD SWAP1 DUP2 MSTORE PUSH1 0x20 ADD PUSH2 0x71 JUMP JUMPDEST PUSH2 0x7E PUSH2 0x194 JUMP JUMPDEST PUSH2 0x7E PUSH2 0xA2 CALLDATASIZE PUSH1 0x4 PUSH2 0x4C5 JUMP JUMPDEST PUSH1 0x1 PUSH1 0x20 MSTORE PUSH1 0x0 SWAP1 DUP2 MSTORE PUSH1 0x40 SWAP1 KECCAK256 SLOAD DUP2 JUMP JUMPDEST PUSH2 0xC7 PUSH2 0xC2 CALLDATASIZE PUSH1 0x4 PUSH2 0x4F5 JUMP JUMPDEST PUSH2 0x1A3 JUMP JUMPDEST STOP JUMPDEST PUSH1 0x0 DUP1 SLOAD PUSH1 0x60 SWAP2 SWAP1 PUSH8 0xFFFFFFFFFFFFFFFF DUP2 GT ISZERO PUSH2 0xE9 JUMPI PUSH2 0xE9 PUSH2 0x50E JUMP JUMPDEST PUSH1 0x40 MLOAD SWAP1 DUP1 DUP3 MSTORE DUP1 PUSH1 0x20 MUL PUSH1 0x20 ADD DUP3 ADD PUSH1 0x40 MSTORE DUP1 ISZERO PUSH2 0x112 JUMPI DUP2 PUSH1 0x20 ADD PUSH1 0x20 DUP3 MUL DUP1 CALLDATASIZE DUP4 CALLDATACOPY ADD SWAP1 POP JUMPDEST POP SWAP1 POP PUSH1 0x0 JUMPDEST PUSH1 0x0 SLOAD DUP2 LT ISZERO PUSH2 0x18E JUMPI PUSH1 0x1 PUSH1 0x0 DUP1 DUP4 DUP2 SLOAD DUP2 LT PUSH2 0x138 JUMPI PUSH2 0x138 PUSH2 0x524 JUMP JUMPDEST PUSH1 0x0 SWAP2 DUP3 MSTORE PUSH1 0x20 DUP1 DUP4 KECCAK256 SWAP1 SWAP2 ADD SLOAD PUSH1 0x1 PUSH1 0x1 PUSH1 0xA0 SHL SUB AND DUP4 MSTORE DUP3 ADD SWAP3 SWAP1 SWAP3 MSTORE PUSH1 0x40 ADD SWAP1 KECCAK256 SLOAD DUP3 MLOAD DUP4 SWAP1 DUP4 SWAP1 DUP2 LT PUSH2 0x171 JUMPI PUSH2 0x171 PUSH2 0x524 JUMP JUMPDEST PUSH1 0x20 SWAP1 DUP2 MUL SWAP2 SWAP1 SWAP2 ADD ADD MSTORE DUP1 PUSH2 0x186 DUP2 PUSH2 0x550 JUMP JUMPDEST SWAP2 POP POP PUSH2 0x118 JUMP JUMPDEST POP SWAP2 SWAP1 POP JUMP JUMPDEST PUSH1 0x0 PUSH2 0x19E PUSH2 0x245 JUMP JUMPDEST SWAP1 POP SWAP1 JUMP JUMPDEST PUSH1 0x0 DUP1 JUMPDEST PUSH1 0x0 SLOAD DUP2 LT ISZERO PUSH2 0x1F6 JUMPI PUSH1 0x0 DUP2 DUP2 SLOAD DUP2 LT PUSH2 0x1C4 JUMPI PUSH2 0x1C4 PUSH2 0x524 JUMP JUMPDEST PUSH1 0x0 SWAP2 DUP3 MSTORE PUSH1 0x20 SWAP1 SWAP2 KECCAK256 ADD SLOAD PUSH1 0x1 PUSH1 0x1 PUSH1 0xA0 SHL SUB AND CALLER SUB PUSH2 0x1E4 JUMPI PUSH1 0x1 SWAP2 POP JUMPDEST DUP1 PUSH2 0x1EE DUP2 PUSH2 0x550 JUMP JUMPDEST SWAP2 POP POP PUSH2 0x1A7 JUMP JUMPDEST POP DUP1 PUSH2 0x237 JUMPI PUSH1 0x40 MLOAD PUSH3 0x461BCD PUSH1 0xE5 SHL DUP2 MSTORE PUSH1 0x20 PUSH1 0x4 DUP3 ADD MSTORE PUSH1 0xC PUSH1 0x24 DUP3 ADD MSTORE PUSH12 0x4E6F74206120736F75726365 PUSH1 0xA0 SHL PUSH1 0x44 DUP3 ADD MSTORE PUSH1 0x64 ADD PUSH1 0x40 MLOAD DUP1 SWAP2 SUB SWAP1 REVERT JUMPDEST PUSH2 0x241 CALLER DUP4 PUSH2 0x31E JUMP JUMPDEST POP POP JUMP JUMPDEST PUSH1 0x0 DUP1 PUSH2 0x258 PUSH2 0x253 PUSH2 0xC9 JUMP JUMPDEST PUSH2 0x37D JUMP JUMPDEST SWAP1 POP PUSH1 0x2 DUP2 MLOAD PUSH2 0x268 SWAP2 SWAP1 PUSH2 0x57F JUMP JUMPDEST PUSH1 0x0 SUB PUSH2 0x2F1 JUMPI PUSH1 0x0 DUP2 PUSH1 0x1 PUSH1 0x2 DUP5 MLOAD PUSH2 0x282 SWAP2 SWAP1 PUSH2 0x593 JUMP JUMPDEST PUSH2 0x28C SWAP2 SWAP1 PUSH2 0x5A7 JUMP JUMPDEST DUP2 MLOAD DUP2 LT PUSH2 0x29C JUMPI PUSH2 0x29C PUSH2 0x524 JUMP JUMPDEST PUSH1 0x20 MUL PUSH1 0x20 ADD ADD MLOAD SWAP1 POP PUSH1 0x0 DUP3 PUSH1 0x2 DUP5 MLOAD PUSH2 0x2B7 SWAP2 SWAP1 PUSH2 0x593 JUMP JUMPDEST DUP2 MLOAD DUP2 LT PUSH2 0x2C7 JUMPI PUSH2 0x2C7 PUSH2 0x524 JUMP JUMPDEST PUSH1 0x20 MUL PUSH1 0x20 ADD ADD MLOAD SWAP1 POP PUSH1 0x2 DUP2 DUP4 PUSH2 0x2DF SWAP2 SWAP1 PUSH2 0x5C0 JUMP JUMPDEST PUSH2 0x2E9 SWAP2 SWAP1 PUSH2 0x593 JUMP JUMPDEST SWAP4 POP POP POP POP SWAP1 JUMP JUMPDEST DUP1 PUSH1 0x2 DUP3 MLOAD PUSH2 0x300 SWAP2 SWAP1 PUSH2 0x593 JUMP JUMPDEST DUP2 MLOAD DUP2 LT PUSH2 0x310 JUMPI PUSH2 0x310 PUSH2 0x524 JUMP JUMPDEST PUSH1 0x20 MUL PUSH1 0x20 ADD ADD MLOAD SWAP2 POP POP SWAP1 JUMP JUMPDEST PUSH1 0x1 PUSH1 0x1 PUSH1 0xA0 SHL SUB DUP3 AND PUSH1 0x0 DUP2 DUP2 MSTORE PUSH1 0x1 PUSH1 0x20 SWAP1 DUP2 MSTORE PUSH1 0x40 SWAP2 DUP3 SWAP1 KECCAK256 DUP1 SLOAD SWAP1 DUP6 SWAP1 SSTORE DUP3 MLOAD DUP2 DUP2 MSTORE SWAP2 DUP3 ADD DUP6 SWAP1 MSTORE SWAP3 SWAP2 PUSH32 0xB556FAC599C3C70EFB9AB1FA725ECACE6C81CC48D1455F886607DEF065F3E0C0 SWAP2 ADD PUSH1 0x40 MLOAD DUP1 SWAP2 SUB SWAP1 LOG2 POP POP POP JUMP JUMPDEST PUSH1 0x60 PUSH1 0x0 JUMPDEST DUP3 MLOAD DUP2 LT ISZERO PUSH2 0x47A JUMPI PUSH1 0x0 PUSH2 0x398 DUP3 PUSH1 0x1 PUSH2 0x5C0 JUMP JUMPDEST SWAP1 POP JUMPDEST DUP4 MLOAD DUP2 LT ISZERO PUSH2 0x467 JUMPI DUP4 DUP2 DUP2 MLOAD DUP2 LT PUSH2 0x3B6 JUMPI PUSH2 0x3B6 PUSH2 0x524 JUMP JUMPDEST PUSH1 0x20 MUL PUSH1 0x20 ADD ADD MLOAD DUP5 DUP4 DUP2 MLOAD DUP2 LT PUSH2 0x3D0 JUMPI PUSH2 0x3D0 PUSH2 0x524 JUMP JUMPDEST PUSH1 0x20 MUL PUSH1 0x20 ADD ADD MLOAD GT ISZERO PUSH2 0x455 JUMPI PUSH1 0x0 DUP5 DUP4 DUP2 MLOAD DUP2 LT PUSH2 0x3F2 JUMPI PUSH2 0x3F2 PUSH2 0x524 JUMP JUMPDEST PUSH1 0x20 MUL PUSH1 0x20 ADD ADD MLOAD SWAP1 POP DUP5 DUP3 DUP2 MLOAD DUP2 LT PUSH2 0x40E JUMPI PUSH2 0x40E PUSH2 0x524 JUMP JUMPDEST PUSH1 0x20 MUL PUSH1 0x20 ADD ADD MLOAD DUP6 DUP5 DUP2 MLOAD DUP2 LT PUSH2 0x428 JUMPI PUSH2 0x428 PUSH2 0x524 JUMP JUMPDEST PUSH1 0x20 MUL PUSH1 0x20 ADD ADD DUP2 DUP2 MSTORE POP POP DUP1 DUP6 DUP4 DUP2 MLOAD DUP2 LT PUSH2 0x447 JUMPI PUSH2 0x447 PUSH2 0x524 JUMP JUMPDEST PUSH1 0x20 MUL PUSH1 0x20 ADD ADD DUP2 DUP2 MSTORE POP POP POP JUMPDEST DUP1 PUSH2 0x45F DUP2 PUSH2 0x550 JUMP JUMPDEST SWAP2 POP POP PUSH2 0x39B JUMP JUMPDEST POP DUP1 PUSH2 0x472 DUP2 PUSH2 0x550 JUMP JUMPDEST SWAP2 POP POP PUSH2 0x382 JUMP JUMPDEST POP SWAP1 SWAP2 SWAP1 POP JUMP JUMPDEST PUSH1 0x20 DUP1 DUP3 MSTORE DUP3 MLOAD DUP3 DUP3 ADD DUP2 SWAP1 MSTORE PUSH1 0x0 SWAP2 SWAP1 DUP5 DUP3 ADD SWAP1 PUSH1 0x40 DUP6 ADD SWAP1 DUP5 JUMPDEST DUP2 DUP2 LT ISZERO PUSH2 0x4B9 JUMPI DUP4 MLOAD DUP4 MSTORE SWAP3 DUP5 ADD SWAP3 SWAP2 DUP5 ADD SWAP2 PUSH1 0x1 ADD PUSH2 0x49D JUMP JUMPDEST POP SWAP1 SWAP7 SWAP6 POP POP POP POP POP POP JUMP JUMPDEST PUSH1 0x0 PUSH1 0x20 DUP3 DUP5 SUB SLT ISZERO PUSH2 0x4D7 JUMPI PUSH1 0x0 DUP1 REVERT JUMPDEST DUP2 CALLDATALOAD PUSH1 0x1 PUSH1 0x1 PUSH1 0xA0 SHL SUB DUP2 AND DUP2 EQ PUSH2 0x4EE JUMPI PUSH1 0x0 DUP1 REVERT JUMPDEST SWAP4 SWAP3 POP POP POP JUMP JUMPDEST PUSH1 0x0 PUSH1 0x20 DUP3 DUP5 SUB SLT ISZERO PUSH2 0x507 JUMPI PUSH1 0x0 DUP1 REVERT JUMPDEST POP CALLDATALOAD SWAP2 SWAP1 POP JUMP JUMPDEST PUSH4 0x4E487B71 PUSH1 0xE0 SHL PUSH1 0x0 MSTORE PUSH1 0x41 PUSH1 0x4 MSTORE PUSH1 0x24 PUSH1 0x0 REVERT JUMPDEST PUSH4 0x4E487B71 PUSH1 0xE0 SHL PUSH1 0x0 MSTORE PUSH1 0x32 PUSH1 0x4 MSTORE PUSH1 0x24 PUSH1 0x0 REVERT JUMPDEST PUSH4 0x4E487B71 PUSH1 0xE0 SHL PUSH1 0x0 MSTORE PUSH1 0x11 PUSH1 0x4 MSTORE PUSH1 0x24 PUSH1 0x0 REVERT JUMPDEST PUSH1 0x0 PUSH1 0x1 DUP3 ADD PUSH2 0x562 JUMPI PUSH2 0x562 PUSH2 0x53A JUMP JUMPDEST POP PUSH1 0x1 ADD SWAP1 JUMP JUMPDEST PUSH4 0x4E487B71 PUSH1 0xE0 SHL PUSH1 0x0 MSTORE PUSH1 0x12 PUSH1 0x4 MSTORE PUSH1 0x24 PUSH1 0x0 REVERT JUMPDEST PUSH1 0x0 DUP3 PUSH2 0x58E JUMPI PUSH2 0x58E PUSH2 0x569 JUMP JUMPDEST POP MOD SWAP1 JUMP JUMPDEST PUSH1 0x0 DUP3 PUSH2 0x5A2 JUMPI PUSH2 0x5A2 PUSH2 0x569 JUMP JUMPDEST POP DIV SWAP1 JUMP JUMPDEST DUP2 DUP2 SUB DUP2 DUP2 GT ISZERO PUSH2 0x5BA JUMPI PUSH2 0x5BA PUSH2 0x53A JUMP JUMPDEST SWAP3 SWAP2 POP POP JUMP JUMPDEST DUP1 DUP3 ADD DUP1 DUP3 GT ISZERO PUSH2 0x5BA JUMPI PUSH2 0x5BA PUSH2 0x53A JUMP INVALID LOG2 PUSH5 0x6970667358 0x22 SLT KECCAK256 PUSH28 0x71FD0B7FC5F45F59AAD7C5C9233012C03A876B63903BBC9CD643F567 0xFC CREATE 0x5C PUSH5 0x736F6C6343 STOP ADDMOD SGT STOP CALLER ",
  "sha1": "ebb4d3b116dc3dbe34e6c811ee25251ebd95944e",
  "source": "// SCH Course Copyright Policy (C): DO-NOT-SHARE-WITH-ANYONE\n// https://smartcontractshacking.com/#copyright-policy\npragma solidity ^0.8.13;\n\n/**\n * @title GoldOracle\n * @author JohnnyTime (https://smartcontractshacking.com)\n */\ncontract GoldOracle {\n\n    address[] sources;\n    mapping(address =>  uint256) public getPriceBySource;\n\n    modifier onlySource() {\n\n        bool isSource = false;\n        for(uint i = 0; i < sources.length; i++) {\n            if(msg.sender == sources[i]) {\n                isSource = true;\n            }\n        }\n        require(isSource, \"Not a source\");\n        _;\n    }\n\n    event PriceUpdated(\n        address indexed source,\n        uint256 oldPrice,\n        uint256 newPrice\n    );\n\n    constructor(address[] memory _sources, uint[] memory _prices) {\n\n        require(_sources.length > 0, \"At least one source.\");\n        require(_sources.length == _prices.length, \"source and prices array length should match\");\n\n        for(uint256 i = 0; i < _sources.length; i++) {\n            sources.push(_sources[i]);\n            getPriceBySource[_sources[i]] = _prices[i];\n        }\n    }\n\n    function postPrice(uint256 newPrice) external onlySource {\n        _setPrice(msg.sender, newPrice);\n    }\n\n    function getPrice() external view returns (uint256) {\n        return _computePrice();\n    }\n\n    function getAllSourcesPrices() public view returns (uint256[] memory) {\n\n        uint256[] memory prices = new uint256[](sources.length);\n\n        for (uint256 i = 0; i < sources.length; i++) {\n            prices[i] = getPriceBySource[sources[i]];\n        }\n\n        return prices;\n    }\n\n    function getNumberOfSources() public view returns (uint256) {\n        return sources.length;\n    }\n\n    function _setPrice(address source, uint256 newPrice) private {\n        uint256 oldPrice = getPriceBySource[source];\n        getPriceBySource[source] = newPrice;\n        emit PriceUpdated(source, oldPrice, newPrice);\n    }\n\n    function _computePrice() private view returns (uint256) {\n        uint256[] memory prices = _sort(getAllSourcesPrices());\n\n        if (prices.length % 2 == 0) {\n            uint256 leftPrice = prices[(prices.length / 2) - 1];\n            uint256 rightPrice = prices[prices.length / 2];\n            return (leftPrice + rightPrice) / 2;\n        } else {\n            return prices[prices.length / 2];\n        }\n    }\n\n    function _sort(uint256[] memory arrayOfNumbers) private pure returns (uint256[] memory) {\n        for (uint256 i = 0; i < arrayOfNumbers.length; i++) {\n            for (uint256 j = i + 1; j < arrayOfNumbers.length; j++) {\n                if (arrayOfNumbers[i] > arrayOfNumbers[j]) {\n                    uint256 tmp = arrayOfNumbers[i];\n                    arrayOfNumbers[i] = arrayOfNumbers[j];\n                    arrayOfNumbers[j] = tmp;\n                }\n            }\n        }        \n        return arrayOfNumbers;\n    }\n}",
  "sourcePath": "contracts/oracle-manipulation-1/GoldOracle.sol",
  "type": "contract"
}