{
  "abi": [
    {
      "inputs": [
        {
          "internalType": "address",
          "name": "_tokenAddress",
          "type": "address"
        },
        {
          "internalType": "address",
          "name": "_treasuryAddress",
          "type": "address"
        }
      ],
      "stateMutability": "nonpayable",
      "type": "constructor"
    },
    {
      "anonymous": false,
      "inputs": [
        {
          "indexed": false,
          "internalType": "uint256",
          "name": "investmentId",
          "type": "uint256"
        },
        {
          "indexed": true,
          "internalType": "address",
          "name": "executer",
          "type": "address"
        }
      ],
      "name": "InvestmentExecuted",
      "type": "event"
    },
    {
      "anonymous": false,
      "inputs": [
        {
          "indexed": false,
          "internalType": "uint256",
          "name": "investmentId",
          "type": "uint256"
        },
        {
          "indexed": true,
          "internalType": "address",
          "name": "executer",
          "type": "address"
        }
      ],
      "name": "InvestmentRejected",
      "type": "event"
    },
    {
      "anonymous": false,
      "inputs": [
        {
          "indexed": false,
          "internalType": "uint256",
          "name": "investmentId",
          "type": "uint256"
        },
        {
          "indexed": true,
          "internalType": "address",
          "name": "proposer",
          "type": "address"
        }
      ],
      "name": "InvestmentWasSuggested",
      "type": "event"
    },
    {
      "inputs": [
        {
          "internalType": "uint256",
          "name": "investmentId",
          "type": "uint256"
        }
      ],
      "name": "executeInvestment",
      "outputs": [],
      "stateMutability": "nonpayable",
      "type": "function"
    },
    {
      "inputs": [
        {
          "internalType": "uint256",
          "name": "",
          "type": "uint256"
        }
      ],
      "name": "investments",
      "outputs": [
        {
          "internalType": "uint256",
          "name": "proposedAt",
          "type": "uint256"
        },
        {
          "internalType": "uint256",
          "name": "snapshotID",
          "type": "uint256"
        },
        {
          "internalType": "address",
          "name": "startup",
          "type": "address"
        },
        {
          "internalType": "uint256",
          "name": "amount",
          "type": "uint256"
        },
        {
          "internalType": "uint256",
          "name": "votes",
          "type": "uint256"
        },
        {
          "internalType": "bool",
          "name": "processed",
          "type": "bool"
        }
      ],
      "stateMutability": "view",
      "type": "function"
    },
    {
      "inputs": [
        {
          "internalType": "address",
          "name": "_startup",
          "type": "address"
        },
        {
          "internalType": "uint256",
          "name": "_amount",
          "type": "uint256"
        }
      ],
      "name": "suggestInvestment",
      "outputs": [
        {
          "internalType": "uint256",
          "name": "",
          "type": "uint256"
        }
      ],
      "stateMutability": "nonpayable",
      "type": "function"
    },
    {
      "inputs": [],
      "name": "token",
      "outputs": [
        {
          "internalType": "contract IDAOToken",
          "name": "",
          "type": "address"
        }
      ],
      "stateMutability": "view",
      "type": "function"
    },
    {
      "inputs": [],
      "name": "treasury",
      "outputs": [
        {
          "internalType": "contract ITreasury",
          "name": "",
          "type": "address"
        }
      ],
      "stateMutability": "view",
      "type": "function"
    },
    {
      "inputs": [
        {
          "internalType": "uint256",
          "name": "investmentId",
          "type": "uint256"
        }
      ],
      "name": "voteForInvestment",
      "outputs": [],
      "stateMutability": "nonpayable",
      "type": "function"
    },
    {
      "inputs": [
        {
          "internalType": "uint256",
          "name": "",
          "type": "uint256"
        },
        {
          "internalType": "address",
          "name": "",
          "type": "address"
        }
      ],
      "name": "voted",
      "outputs": [
        {
          "internalType": "bool",
          "name": "",
          "type": "bool"
        }
      ],
      "stateMutability": "view",
      "type": "function"
    }
  ],
  "bytecode": "60a06040526203f48060805234801561001757600080fd5b50604051610c13380380610c1383398101604081905261003691610137565b6001600160a01b0382166100915760405162461bcd60e51b815260206004820152601860248201527f7a65726f2061646472657373206e6f7420616c6c6f776564000000000000000060448201526064015b60405180910390fd5b6001600160a01b0381166100e75760405162461bcd60e51b815260206004820152601860248201527f7a65726f2061646472657373206e6f7420616c6c6f77656400000000000000006044820152606401610088565b600080546001600160a01b039384166001600160a01b0319918216179091556001805492909316911617815560045561016a565b80516001600160a01b038116811461013257600080fd5b919050565b6000806040838503121561014a57600080fd5b6101538361011b565b91506101616020840161011b565b90509250929050565b608051610a8e61018560003960006103f00152610a8e6000f3fe608060405234801561001057600080fd5b506004361061007d5760003560e01c8063acea4c581161005b578063acea4c5814610105578063d1cf4f4514610126578063fc0c546a14610139578063fd345c8a1461014c57600080fd5b80635277b4ae1461008257806361d027b3146100c557806369d9479c146100f0575b600080fd5b6100b0610090366004610966565b600360209081526000928352604080842090915290825290205460ff1681565b60405190151581526020015b60405180910390f35b6001546100d8906001600160a01b031681565b6040516001600160a01b0390911681526020016100bc565b6101036100fe366004610992565b6101db565b005b6101186101133660046109ab565b6104b2565b6040519081526020016100bc565b610103610134366004610992565b61077c565b6000546100d8906001600160a01b031681565b61019e61015a366004610992565b60026020819052600091825260409091208054600182015492820154600383015460048401546005909401549294936001600160a01b039092169290919060ff1686565b6040805196875260208701959095526001600160a01b039093169385019390935260608401526080830191909152151560a082015260c0016100bc565b6000818152600260208190526040909120908101546001600160a01b03166102465760405162461bcd60e51b8152602060048201526019602482015278125b9d995cdd1b595b9d08191bd95cc81b9bdd08195e1a5cdd603a1b60448201526064015b60405180910390fd5b600581015460ff161561029b5760405162461bcd60e51b815260206004820152601c60248201527f496e766573746d656e7420616c72656164792070726f63657373656400000000604482015260640161023d565b600080546001830154604051631029d37360e31b81526004926001600160a01b03169163814e9b98916102d49190850190815260200190565b602060405180830381865afa1580156102f1573d6000803e3d6000fd5b505050506040513d601f19601f8201168201806040525081019061031591906109d5565b61031f9190610a04565b905080826004015411156103e85760058201805460ff19166001908117909155546002830154600384015460405163126be98360e31b81526001600160a01b039283166004820152602481019190915291169063935f4c1890604401600060405180830381600087803b15801561039557600080fd5b505af11580156103a9573d6000803e3d6000fd5b50506040518581523392507f8455ce696ebcc4879d79a7a38eb25fbf392863727271bdfc136bb2ddc6d7390591506020015b60405180910390a2505050565b8154610415907f000000000000000000000000000000000000000000000000000000000000000090610a26565b421061045e5760058201805460ff1916600117905560405133907f7d3463b91414b54dabe95df8d063851e2d5c596cdf08a76b1eb2da22a7f98554906103db9086815260200190565b60405162461bcd60e51b8152602060048201526024808201527f4e6f7420656e6f75676820766f7465732c20766f74696e67206973206e6f742060448201526337bb32b960e11b606482015260840161023d565b600080546040516370a0823160e01b815233600482018190529183916001600160a01b03909116906370a08231906024016020604051808303816000875af1158015610502573d6000803e3d6000fd5b505050506040513d601f19601f8201168201806040525081019061052691906109d5565b90506000811161056c5760405162461bcd60e51b815260206004820152601160248201527063616e277420706172746963697061746560781b604482015260640161023d565b6001600160a01b0385163014158061058c57506001600160a01b03851615155b6105c95760405162461bcd60e51b815260206004820152600e60248201526d2bb937b733903932b1b2b4bb32b960911b604482015260640161023d565b600480546000805460408051634b88b8ad60e11b81529051939492936001600160a01b0390921692639711715a928282019260209290829003018187875af1158015610619573d6000803e3d6000fd5b505050506040513d601f19601f8201168201806040525081019061063d91906109d5565b60008381526002602081905260408083204281556001810185905591820180546001600160a01b0319166001600160a01b038d811691909117909155600383018b90559254905163abc49d6f60e01b815233600482015260248101859052939450909291169063abc49d6f90604401602060405180830381865afa1580156106c9573d6000803e3d6000fd5b505050506040513d601f19601f820116820180604052508101906106ed91906109d5565b60048083019190915560058201805460ff199081169091556000858152600360209081526040808320338452909152812080549092166001179091558154919061073683610a3f565b909155505060405183815233907f3d52629cb66957b95835cd3788c1c009b878f64712009d3cd22f61a92a14ea439060200160405180910390a250909695505050505050565b6000818152600260208190526040909120908101546001600160a01b03166107e25760405162461bcd60e51b8152602060048201526019602482015278125b9d995cdd1b595b9d08191bd95cc81b9bdd08195e1a5cdd603a1b604482015260640161023d565b600581015460ff16156108375760405162461bcd60e51b815260206004820152601c60248201527f496e766573746d656e7420616c72656164792070726f63657373656400000000604482015260640161023d565b600082815260036020908152604080832033845290915290205460ff16156108915760405162461bcd60e51b815260206004820152600d60248201526c105b1c9958591e481d9bdd1959609a1b604482015260640161023d565b6000828152600360209081526040808320338085529252808320805460ff19166001908117909155925492840154905163abc49d6f60e01b8152600481019290925260248201526001600160a01b039091169063abc49d6f90604401602060405180830381865afa15801561090a573d6000803e3d6000fd5b505050506040513d601f19601f8201168201806040525081019061092e91906109d5565b8160040160008282546109419190610a26565b90915550505050565b80356001600160a01b038116811461096157600080fd5b919050565b6000806040838503121561097957600080fd5b823591506109896020840161094a565b90509250929050565b6000602082840312156109a457600080fd5b5035919050565b600080604083850312156109be57600080fd5b6109c78361094a565b946020939093013593505050565b6000602082840312156109e757600080fd5b5051919050565b634e487b7160e01b600052601160045260246000fd5b600082610a2157634e487b7160e01b600052601260045260246000fd5b500490565b80820180821115610a3957610a396109ee565b92915050565b600060018201610a5157610a516109ee565b506001019056fea264697066735822122048e0cd495325495eb391574e645a18b28d2063cf60970e714af92f9cbade66c964736f6c63430008130033",
  "bytecodeSha1": "fce41df8d8628950a90514208135b7d47285f445",
  "compiler": {
    "evm_version": "istanbul",
    "optimizer": {
      "enabled": true,
      "runs": 200
    },
    "version": "0.8.19+commit.7dd6d404"
  },
  "contractName": "Governance",
  "language": "Solidity",
  "natspec": {
    "author": "JohnnyTime (https://smartcontractshacking.com)",
    "kind": "dev",
    "methods": {},
    "title": "Governance",
    "version": 1
  },
  "opcodes": "PUSH1 0x80 PUSH1 0x40 MSTORE CALLVALUE DUP1 ISZERO PUSH2 0x10 JUMPI PUSH1 0x0 DUP1 REVERT JUMPDEST POP PUSH1 0x4 CALLDATASIZE LT PUSH2 0x7D JUMPI PUSH1 0x0 CALLDATALOAD PUSH1 0xE0 SHR DUP1 PUSH4 0xACEA4C58 GT PUSH2 0x5B JUMPI DUP1 PUSH4 0xACEA4C58 EQ PUSH2 0x105 JUMPI DUP1 PUSH4 0xD1CF4F45 EQ PUSH2 0x126 JUMPI DUP1 PUSH4 0xFC0C546A EQ PUSH2 0x139 JUMPI DUP1 PUSH4 0xFD345C8A EQ PUSH2 0x14C JUMPI PUSH1 0x0 DUP1 REVERT JUMPDEST DUP1 PUSH4 0x5277B4AE EQ PUSH2 0x82 JUMPI DUP1 PUSH4 0x61D027B3 EQ PUSH2 0xC5 JUMPI DUP1 PUSH4 0x69D9479C EQ PUSH2 0xF0 JUMPI JUMPDEST PUSH1 0x0 DUP1 REVERT JUMPDEST PUSH2 0xB0 PUSH2 0x90 CALLDATASIZE PUSH1 0x4 PUSH2 0x966 JUMP JUMPDEST PUSH1 0x3 PUSH1 0x20 SWAP1 DUP2 MSTORE PUSH1 0x0 SWAP3 DUP4 MSTORE PUSH1 0x40 DUP1 DUP5 KECCAK256 SWAP1 SWAP2 MSTORE SWAP1 DUP3 MSTORE SWAP1 KECCAK256 SLOAD PUSH1 0xFF AND DUP2 JUMP JUMPDEST PUSH1 0x40 MLOAD SWAP1 ISZERO ISZERO DUP2 MSTORE PUSH1 0x20 ADD JUMPDEST PUSH1 0x40 MLOAD DUP1 SWAP2 SUB SWAP1 RETURN JUMPDEST PUSH1 0x1 SLOAD PUSH2 0xD8 SWAP1 PUSH1 0x1 PUSH1 0x1 PUSH1 0xA0 SHL SUB AND DUP2 JUMP JUMPDEST PUSH1 0x40 MLOAD PUSH1 0x1 PUSH1 0x1 PUSH1 0xA0 SHL SUB SWAP1 SWAP2 AND DUP2 MSTORE PUSH1 0x20 ADD PUSH2 0xBC JUMP JUMPDEST PUSH2 0x103 PUSH2 0xFE CALLDATASIZE PUSH1 0x4 PUSH2 0x992 JUMP JUMPDEST PUSH2 0x1DB JUMP JUMPDEST STOP JUMPDEST PUSH2 0x118 PUSH2 0x113 CALLDATASIZE PUSH1 0x4 PUSH2 0x9AB JUMP JUMPDEST PUSH2 0x4B2 JUMP JUMPDEST PUSH1 0x40 MLOAD SWAP1 DUP2 MSTORE PUSH1 0x20 ADD PUSH2 0xBC JUMP JUMPDEST PUSH2 0x103 PUSH2 0x134 CALLDATASIZE PUSH1 0x4 PUSH2 0x992 JUMP JUMPDEST PUSH2 0x77C JUMP JUMPDEST PUSH1 0x0 SLOAD PUSH2 0xD8 SWAP1 PUSH1 0x1 PUSH1 0x1 PUSH1 0xA0 SHL SUB AND DUP2 JUMP JUMPDEST PUSH2 0x19E PUSH2 0x15A CALLDATASIZE PUSH1 0x4 PUSH2 0x992 JUMP JUMPDEST PUSH1 0x2 PUSH1 0x20 DUP2 SWAP1 MSTORE PUSH1 0x0 SWAP2 DUP3 MSTORE PUSH1 0x40 SWAP1 SWAP2 KECCAK256 DUP1 SLOAD PUSH1 0x1 DUP3 ADD SLOAD SWAP3 DUP3 ADD SLOAD PUSH1 0x3 DUP4 ADD SLOAD PUSH1 0x4 DUP5 ADD SLOAD PUSH1 0x5 SWAP1 SWAP5 ADD SLOAD SWAP3 SWAP5 SWAP4 PUSH1 0x1 PUSH1 0x1 PUSH1 0xA0 SHL SUB SWAP1 SWAP3 AND SWAP3 SWAP1 SWAP2 SWAP1 PUSH1 0xFF AND DUP7 JUMP JUMPDEST PUSH1 0x40 DUP1 MLOAD SWAP7 DUP8 MSTORE PUSH1 0x20 DUP8 ADD SWAP6 SWAP1 SWAP6 MSTORE PUSH1 0x1 PUSH1 0x1 PUSH1 0xA0 SHL SUB SWAP1 SWAP4 AND SWAP4 DUP6 ADD SWAP4 SWAP1 SWAP4 MSTORE PUSH1 0x60 DUP5 ADD MSTORE PUSH1 0x80 DUP4 ADD SWAP2 SWAP1 SWAP2 MSTORE ISZERO ISZERO PUSH1 0xA0 DUP3 ADD MSTORE PUSH1 0xC0 ADD PUSH2 0xBC JUMP JUMPDEST PUSH1 0x0 DUP2 DUP2 MSTORE PUSH1 0x2 PUSH1 0x20 DUP2 SWAP1 MSTORE PUSH1 0x40 SWAP1 SWAP2 KECCAK256 SWAP1 DUP2 ADD SLOAD PUSH1 0x1 PUSH1 0x1 PUSH1 0xA0 SHL SUB AND PUSH2 0x246 JUMPI PUSH1 0x40 MLOAD PUSH3 0x461BCD PUSH1 0xE5 SHL DUP2 MSTORE PUSH1 0x20 PUSH1 0x4 DUP3 ADD MSTORE PUSH1 0x19 PUSH1 0x24 DUP3 ADD MSTORE PUSH25 0x125B9D995CDD1B595B9D08191BD95CC81B9BDD08195E1A5CDD PUSH1 0x3A SHL PUSH1 0x44 DUP3 ADD MSTORE PUSH1 0x64 ADD JUMPDEST PUSH1 0x40 MLOAD DUP1 SWAP2 SUB SWAP1 REVERT JUMPDEST PUSH1 0x5 DUP2 ADD SLOAD PUSH1 0xFF AND ISZERO PUSH2 0x29B JUMPI PUSH1 0x40 MLOAD PUSH3 0x461BCD PUSH1 0xE5 SHL DUP2 MSTORE PUSH1 0x20 PUSH1 0x4 DUP3 ADD MSTORE PUSH1 0x1C PUSH1 0x24 DUP3 ADD MSTORE PUSH32 0x496E766573746D656E7420616C72656164792070726F63657373656400000000 PUSH1 0x44 DUP3 ADD MSTORE PUSH1 0x64 ADD PUSH2 0x23D JUMP JUMPDEST PUSH1 0x0 DUP1 SLOAD PUSH1 0x1 DUP4 ADD SLOAD PUSH1 0x40 MLOAD PUSH4 0x1029D373 PUSH1 0xE3 SHL DUP2 MSTORE PUSH1 0x4 SWAP3 PUSH1 0x1 PUSH1 0x1 PUSH1 0xA0 SHL SUB AND SWAP2 PUSH4 0x814E9B98 SWAP2 PUSH2 0x2D4 SWAP2 SWAP1 DUP6 ADD SWAP1 DUP2 MSTORE PUSH1 0x20 ADD SWAP1 JUMP JUMPDEST PUSH1 0x20 PUSH1 0x40 MLOAD DUP1 DUP4 SUB DUP2 DUP7 GAS STATICCALL ISZERO DUP1 ISZERO PUSH2 0x2F1 JUMPI RETURNDATASIZE PUSH1 0x0 DUP1 RETURNDATACOPY RETURNDATASIZE PUSH1 0x0 REVERT JUMPDEST POP POP POP POP PUSH1 0x40 MLOAD RETURNDATASIZE PUSH1 0x1F NOT PUSH1 0x1F DUP3 ADD AND DUP3 ADD DUP1 PUSH1 0x40 MSTORE POP DUP2 ADD SWAP1 PUSH2 0x315 SWAP2 SWAP1 PUSH2 0x9D5 JUMP JUMPDEST PUSH2 0x31F SWAP2 SWAP1 PUSH2 0xA04 JUMP JUMPDEST SWAP1 POP DUP1 DUP3 PUSH1 0x4 ADD SLOAD GT ISZERO PUSH2 0x3E8 JUMPI PUSH1 0x5 DUP3 ADD DUP1 SLOAD PUSH1 0xFF NOT AND PUSH1 0x1 SWAP1 DUP2 OR SWAP1 SWAP2 SSTORE SLOAD PUSH1 0x2 DUP4 ADD SLOAD PUSH1 0x3 DUP5 ADD SLOAD PUSH1 0x40 MLOAD PUSH4 0x126BE983 PUSH1 0xE3 SHL DUP2 MSTORE PUSH1 0x1 PUSH1 0x1 PUSH1 0xA0 SHL SUB SWAP3 DUP4 AND PUSH1 0x4 DUP3 ADD MSTORE PUSH1 0x24 DUP2 ADD SWAP2 SWAP1 SWAP2 MSTORE SWAP2 AND SWAP1 PUSH4 0x935F4C18 SWAP1 PUSH1 0x44 ADD PUSH1 0x0 PUSH1 0x40 MLOAD DUP1 DUP4 SUB DUP2 PUSH1 0x0 DUP8 DUP1 EXTCODESIZE ISZERO DUP1 ISZERO PUSH2 0x395 JUMPI PUSH1 0x0 DUP1 REVERT JUMPDEST POP GAS CALL ISZERO DUP1 ISZERO PUSH2 0x3A9 JUMPI RETURNDATASIZE PUSH1 0x0 DUP1 RETURNDATACOPY RETURNDATASIZE PUSH1 0x0 REVERT JUMPDEST POP POP PUSH1 0x40 MLOAD DUP6 DUP2 MSTORE CALLER SWAP3 POP PUSH32 0x8455CE696EBCC4879D79A7A38EB25FBF392863727271BDFC136BB2DDC6D73905 SWAP2 POP PUSH1 0x20 ADD JUMPDEST PUSH1 0x40 MLOAD DUP1 SWAP2 SUB SWAP1 LOG2 POP POP POP JUMP JUMPDEST DUP2 SLOAD PUSH2 0x415 SWAP1 PUSH32 0x0 SWAP1 PUSH2 0xA26 JUMP JUMPDEST TIMESTAMP LT PUSH2 0x45E JUMPI PUSH1 0x5 DUP3 ADD DUP1 SLOAD PUSH1 0xFF NOT AND PUSH1 0x1 OR SWAP1 SSTORE PUSH1 0x40 MLOAD CALLER SWAP1 PUSH32 0x7D3463B91414B54DABE95DF8D063851E2D5C596CDF08A76B1EB2DA22A7F98554 SWAP1 PUSH2 0x3DB SWAP1 DUP7 DUP2 MSTORE PUSH1 0x20 ADD SWAP1 JUMP JUMPDEST PUSH1 0x40 MLOAD PUSH3 0x461BCD PUSH1 0xE5 SHL DUP2 MSTORE PUSH1 0x20 PUSH1 0x4 DUP3 ADD MSTORE PUSH1 0x24 DUP1 DUP3 ADD MSTORE PUSH32 0x4E6F7420656E6F75676820766F7465732C20766F74696E67206973206E6F7420 PUSH1 0x44 DUP3 ADD MSTORE PUSH4 0x37BB32B9 PUSH1 0xE1 SHL PUSH1 0x64 DUP3 ADD MSTORE PUSH1 0x84 ADD PUSH2 0x23D JUMP JUMPDEST PUSH1 0x0 DUP1 SLOAD PUSH1 0x40 MLOAD PUSH4 0x70A08231 PUSH1 0xE0 SHL DUP2 MSTORE CALLER PUSH1 0x4 DUP3 ADD DUP2 SWAP1 MSTORE SWAP2 DUP4 SWAP2 PUSH1 0x1 PUSH1 0x1 PUSH1 0xA0 SHL SUB SWAP1 SWAP2 AND SWAP1 PUSH4 0x70A08231 SWAP1 PUSH1 0x24 ADD PUSH1 0x20 PUSH1 0x40 MLOAD DUP1 DUP4 SUB DUP2 PUSH1 0x0 DUP8 GAS CALL ISZERO DUP1 ISZERO PUSH2 0x502 JUMPI RETURNDATASIZE PUSH1 0x0 DUP1 RETURNDATACOPY RETURNDATASIZE PUSH1 0x0 REVERT JUMPDEST POP POP POP POP PUSH1 0x40 MLOAD RETURNDATASIZE PUSH1 0x1F NOT PUSH1 0x1F DUP3 ADD AND DUP3 ADD DUP1 PUSH1 0x40 MSTORE POP DUP2 ADD SWAP1 PUSH2 0x526 SWAP2 SWAP1 PUSH2 0x9D5 JUMP JUMPDEST SWAP1 POP PUSH1 0x0 DUP2 GT PUSH2 0x56C JUMPI PUSH1 0x40 MLOAD PUSH3 0x461BCD PUSH1 0xE5 SHL DUP2 MSTORE PUSH1 0x20 PUSH1 0x4 DUP3 ADD MSTORE PUSH1 0x11 PUSH1 0x24 DUP3 ADD MSTORE PUSH17 0x63616E2774207061727469636970617465 PUSH1 0x78 SHL PUSH1 0x44 DUP3 ADD MSTORE PUSH1 0x64 ADD PUSH2 0x23D JUMP JUMPDEST PUSH1 0x1 PUSH1 0x1 PUSH1 0xA0 SHL SUB DUP6 AND ADDRESS EQ ISZERO DUP1 PUSH2 0x58C JUMPI POP PUSH1 0x1 PUSH1 0x1 PUSH1 0xA0 SHL SUB DUP6 AND ISZERO ISZERO JUMPDEST PUSH2 0x5C9 JUMPI PUSH1 0x40 MLOAD PUSH3 0x461BCD PUSH1 0xE5 SHL DUP2 MSTORE PUSH1 0x20 PUSH1 0x4 DUP3 ADD MSTORE PUSH1 0xE PUSH1 0x24 DUP3 ADD MSTORE PUSH14 0x2BB937B733903932B1B2B4BB32B9 PUSH1 0x91 SHL PUSH1 0x44 DUP3 ADD MSTORE PUSH1 0x64 ADD PUSH2 0x23D JUMP JUMPDEST PUSH1 0x4 DUP1 SLOAD PUSH1 0x0 DUP1 SLOAD PUSH1 0x40 DUP1 MLOAD PUSH4 0x4B88B8AD PUSH1 0xE1 SHL DUP2 MSTORE SWAP1 MLOAD SWAP4 SWAP5 SWAP3 SWAP4 PUSH1 0x1 PUSH1 0x1 PUSH1 0xA0 SHL SUB SWAP1 SWAP3 AND SWAP3 PUSH4 0x9711715A SWAP3 DUP3 DUP3 ADD SWAP3 PUSH1 0x20 SWAP3 SWAP1 DUP3 SWAP1 SUB ADD DUP2 DUP8 DUP8 GAS CALL ISZERO DUP1 ISZERO PUSH2 0x619 JUMPI RETURNDATASIZE PUSH1 0x0 DUP1 RETURNDATACOPY RETURNDATASIZE PUSH1 0x0 REVERT JUMPDEST POP POP POP POP PUSH1 0x40 MLOAD RETURNDATASIZE PUSH1 0x1F NOT PUSH1 0x1F DUP3 ADD AND DUP3 ADD DUP1 PUSH1 0x40 MSTORE POP DUP2 ADD SWAP1 PUSH2 0x63D SWAP2 SWAP1 PUSH2 0x9D5 JUMP JUMPDEST PUSH1 0x0 DUP4 DUP2 MSTORE PUSH1 0x2 PUSH1 0x20 DUP2 SWAP1 MSTORE PUSH1 0x40 DUP1 DUP4 KECCAK256 TIMESTAMP DUP2 SSTORE PUSH1 0x1 DUP2 ADD DUP6 SWAP1 SSTORE SWAP2 DUP3 ADD DUP1 SLOAD PUSH1 0x1 PUSH1 0x1 PUSH1 0xA0 SHL SUB NOT AND PUSH1 0x1 PUSH1 0x1 PUSH1 0xA0 SHL SUB DUP14 DUP2 AND SWAP2 SWAP1 SWAP2 OR SWAP1 SWAP2 SSTORE PUSH1 0x3 DUP4 ADD DUP12 SWAP1 SSTORE SWAP3 SLOAD SWAP1 MLOAD PUSH4 0xABC49D6F PUSH1 0xE0 SHL DUP2 MSTORE CALLER PUSH1 0x4 DUP3 ADD MSTORE PUSH1 0x24 DUP2 ADD DUP6 SWAP1 MSTORE SWAP4 SWAP5 POP SWAP1 SWAP3 SWAP2 AND SWAP1 PUSH4 0xABC49D6F SWAP1 PUSH1 0x44 ADD PUSH1 0x20 PUSH1 0x40 MLOAD DUP1 DUP4 SUB DUP2 DUP7 GAS STATICCALL ISZERO DUP1 ISZERO PUSH2 0x6C9 JUMPI RETURNDATASIZE PUSH1 0x0 DUP1 RETURNDATACOPY RETURNDATASIZE PUSH1 0x0 REVERT JUMPDEST POP POP POP POP PUSH1 0x40 MLOAD RETURNDATASIZE PUSH1 0x1F NOT PUSH1 0x1F DUP3 ADD AND DUP3 ADD DUP1 PUSH1 0x40 MSTORE POP DUP2 ADD SWAP1 PUSH2 0x6ED SWAP2 SWAP1 PUSH2 0x9D5 JUMP JUMPDEST PUSH1 0x4 DUP1 DUP4 ADD SWAP2 SWAP1 SWAP2 SSTORE PUSH1 0x5 DUP3 ADD DUP1 SLOAD PUSH1 0xFF NOT SWAP1 DUP2 AND SWAP1 SWAP2 SSTORE PUSH1 0x0 DUP6 DUP2 MSTORE PUSH1 0x3 PUSH1 0x20 SWAP1 DUP2 MSTORE PUSH1 0x40 DUP1 DUP4 KECCAK256 CALLER DUP5 MSTORE SWAP1 SWAP2 MSTORE DUP2 KECCAK256 DUP1 SLOAD SWAP1 SWAP3 AND PUSH1 0x1 OR SWAP1 SWAP2 SSTORE DUP2 SLOAD SWAP2 SWAP1 PUSH2 0x736 DUP4 PUSH2 0xA3F JUMP JUMPDEST SWAP1 SWAP2 SSTORE POP POP PUSH1 0x40 MLOAD DUP4 DUP2 MSTORE CALLER SWAP1 PUSH32 0x3D52629CB66957B95835CD3788C1C009B878F64712009D3CD22F61A92A14EA43 SWAP1 PUSH1 0x20 ADD PUSH1 0x40 MLOAD DUP1 SWAP2 SUB SWAP1 LOG2 POP SWAP1 SWAP7 SWAP6 POP POP POP POP POP POP JUMP JUMPDEST PUSH1 0x0 DUP2 DUP2 MSTORE PUSH1 0x2 PUSH1 0x20 DUP2 SWAP1 MSTORE PUSH1 0x40 SWAP1 SWAP2 KECCAK256 SWAP1 DUP2 ADD SLOAD PUSH1 0x1 PUSH1 0x1 PUSH1 0xA0 SHL SUB AND PUSH2 0x7E2 JUMPI PUSH1 0x40 MLOAD PUSH3 0x461BCD PUSH1 0xE5 SHL DUP2 MSTORE PUSH1 0x20 PUSH1 0x4 DUP3 ADD MSTORE PUSH1 0x19 PUSH1 0x24 DUP3 ADD MSTORE PUSH25 0x125B9D995CDD1B595B9D08191BD95CC81B9BDD08195E1A5CDD PUSH1 0x3A SHL PUSH1 0x44 DUP3 ADD MSTORE PUSH1 0x64 ADD PUSH2 0x23D JUMP JUMPDEST PUSH1 0x5 DUP2 ADD SLOAD PUSH1 0xFF AND ISZERO PUSH2 0x837 JUMPI PUSH1 0x40 MLOAD PUSH3 0x461BCD PUSH1 0xE5 SHL DUP2 MSTORE PUSH1 0x20 PUSH1 0x4 DUP3 ADD MSTORE PUSH1 0x1C PUSH1 0x24 DUP3 ADD MSTORE PUSH32 0x496E766573746D656E7420616C72656164792070726F63657373656400000000 PUSH1 0x44 DUP3 ADD MSTORE PUSH1 0x64 ADD PUSH2 0x23D JUMP JUMPDEST PUSH1 0x0 DUP3 DUP2 MSTORE PUSH1 0x3 PUSH1 0x20 SWAP1 DUP2 MSTORE PUSH1 0x40 DUP1 DUP4 KECCAK256 CALLER DUP5 MSTORE SWAP1 SWAP2 MSTORE SWAP1 KECCAK256 SLOAD PUSH1 0xFF AND ISZERO PUSH2 0x891 JUMPI PUSH1 0x40 MLOAD PUSH3 0x461BCD PUSH1 0xE5 SHL DUP2 MSTORE PUSH1 0x20 PUSH1 0x4 DUP3 ADD MSTORE PUSH1 0xD PUSH1 0x24 DUP3 ADD MSTORE PUSH13 0x105B1C9958591E481D9BDD1959 PUSH1 0x9A SHL PUSH1 0x44 DUP3 ADD MSTORE PUSH1 0x64 ADD PUSH2 0x23D JUMP JUMPDEST PUSH1 0x0 DUP3 DUP2 MSTORE PUSH1 0x3 PUSH1 0x20 SWAP1 DUP2 MSTORE PUSH1 0x40 DUP1 DUP4 KECCAK256 CALLER DUP1 DUP6 MSTORE SWAP3 MSTORE DUP1 DUP4 KECCAK256 DUP1 SLOAD PUSH1 0xFF NOT AND PUSH1 0x1 SWAP1 DUP2 OR SWAP1 SWAP2 SSTORE SWAP3 SLOAD SWAP3 DUP5 ADD SLOAD SWAP1 MLOAD PUSH4 0xABC49D6F PUSH1 0xE0 SHL DUP2 MSTORE PUSH1 0x4 DUP2 ADD SWAP3 SWAP1 SWAP3 MSTORE PUSH1 0x24 DUP3 ADD MSTORE PUSH1 0x1 PUSH1 0x1 PUSH1 0xA0 SHL SUB SWAP1 SWAP2 AND SWAP1 PUSH4 0xABC49D6F SWAP1 PUSH1 0x44 ADD PUSH1 0x20 PUSH1 0x40 MLOAD DUP1 DUP4 SUB DUP2 DUP7 GAS STATICCALL ISZERO DUP1 ISZERO PUSH2 0x90A JUMPI RETURNDATASIZE PUSH1 0x0 DUP1 RETURNDATACOPY RETURNDATASIZE PUSH1 0x0 REVERT JUMPDEST POP POP POP POP PUSH1 0x40 MLOAD RETURNDATASIZE PUSH1 0x1F NOT PUSH1 0x1F DUP3 ADD AND DUP3 ADD DUP1 PUSH1 0x40 MSTORE POP DUP2 ADD SWAP1 PUSH2 0x92E SWAP2 SWAP1 PUSH2 0x9D5 JUMP JUMPDEST DUP2 PUSH1 0x4 ADD PUSH1 0x0 DUP3 DUP3 SLOAD PUSH2 0x941 SWAP2 SWAP1 PUSH2 0xA26 JUMP JUMPDEST SWAP1 SWAP2 SSTORE POP POP POP POP JUMP JUMPDEST DUP1 CALLDATALOAD PUSH1 0x1 PUSH1 0x1 PUSH1 0xA0 SHL SUB DUP2 AND DUP2 EQ PUSH2 0x961 JUMPI PUSH1 0x0 DUP1 REVERT JUMPDEST SWAP2 SWAP1 POP JUMP JUMPDEST PUSH1 0x0 DUP1 PUSH1 0x40 DUP4 DUP6 SUB SLT ISZERO PUSH2 0x979 JUMPI PUSH1 0x0 DUP1 REVERT JUMPDEST DUP3 CALLDATALOAD SWAP2 POP PUSH2 0x989 PUSH1 0x20 DUP5 ADD PUSH2 0x94A JUMP JUMPDEST SWAP1 POP SWAP3 POP SWAP3 SWAP1 POP JUMP JUMPDEST PUSH1 0x0 PUSH1 0x20 DUP3 DUP5 SUB SLT ISZERO PUSH2 0x9A4 JUMPI PUSH1 0x0 DUP1 REVERT JUMPDEST POP CALLDATALOAD SWAP2 SWAP1 POP JUMP JUMPDEST PUSH1 0x0 DUP1 PUSH1 0x40 DUP4 DUP6 SUB SLT ISZERO PUSH2 0x9BE JUMPI PUSH1 0x0 DUP1 REVERT JUMPDEST PUSH2 0x9C7 DUP4 PUSH2 0x94A JUMP JUMPDEST SWAP5 PUSH1 0x20 SWAP4 SWAP1 SWAP4 ADD CALLDATALOAD SWAP4 POP POP POP JUMP JUMPDEST PUSH1 0x0 PUSH1 0x20 DUP3 DUP5 SUB SLT ISZERO PUSH2 0x9E7 JUMPI PUSH1 0x0 DUP1 REVERT JUMPDEST POP MLOAD SWAP2 SWAP1 POP JUMP JUMPDEST PUSH4 0x4E487B71 PUSH1 0xE0 SHL PUSH1 0x0 MSTORE PUSH1 0x11 PUSH1 0x4 MSTORE PUSH1 0x24 PUSH1 0x0 REVERT JUMPDEST PUSH1 0x0 DUP3 PUSH2 0xA21 JUMPI PUSH4 0x4E487B71 PUSH1 0xE0 SHL PUSH1 0x0 MSTORE PUSH1 0x12 PUSH1 0x4 MSTORE PUSH1 0x24 PUSH1 0x0 REVERT JUMPDEST POP DIV SWAP1 JUMP JUMPDEST DUP1 DUP3 ADD DUP1 DUP3 GT ISZERO PUSH2 0xA39 JUMPI PUSH2 0xA39 PUSH2 0x9EE JUMP JUMPDEST SWAP3 SWAP2 POP POP JUMP JUMPDEST PUSH1 0x0 PUSH1 0x1 DUP3 ADD PUSH2 0xA51 JUMPI PUSH2 0xA51 PUSH2 0x9EE JUMP JUMPDEST POP PUSH1 0x1 ADD SWAP1 JUMP INVALID LOG2 PUSH5 0x6970667358 0x22 SLT KECCAK256 BASEFEE 0xE0 0xCD 0x49 MSTORE8 0x25 0x49 0x5E 0xB3 SWAP2 JUMPI 0x4E PUSH5 0x5A18B28D20 PUSH4 0xCF60970E PUSH18 0x4AF92F9CBADE66C964736F6C634300081300 CALLER ",
  "sha1": "0c2fa33dcdc31f785e1d04288f008c81b7b686fd",
  "source": "// SPDX-License-Identifier: MIT\n// SCH Course Copyright Policy (C): DO-NOT-SHARE-WITH-ANYONE\n// https://smartcontractshacking.com/#copyright-policy\npragma solidity ^0.8.13;\n\nimport \"@openzeppelin/contracts/utils/Address.sol\";\n\ninterface ITreasury{\n    function sendPayment(address receiver, uint amount) external;\n}\n\ninterface IDAOToken {\n    function balanceOf(address account) external returns(uint);\n    function totalSupply() external returns(uint);\n    function snapshot() external returns (uint256 lastSnapshotId);\n    function getBalanceAtSnapshot(address account, uint256 snapshotID) external view returns (uint256);\n    function getTotalSupplyAtSnapshot(uint256 snapshotID) external view returns (uint256);\n}\n\n/**\n * @title Governance\n * @author JohnnyTime (https://smartcontractshacking.com)\n */\ncontract Governance {\n\n    using Address for address;\n    \n    struct Investment {\n        uint256 proposedAt;\n        uint256 snapshotID;\n        address startup;\n        uint256 amount;\n        uint256 votes;\n        bool processed;\n    }\n    \n    uint256 private immutable VOTING_PERIOD = 3 days;\n    \n    IDAOToken public token;\n    ITreasury public treasury;\n\n    mapping(uint256 => Investment) public investments;\n    \n    // Payment ID => Voter => Voted?\n    mapping(uint256 => mapping(address => bool)) public voted;\n    uint256 private investmentsCounter;\n\n    event InvestmentWasSuggested(uint256 investmentId, address indexed proposer);\n    event InvestmentExecuted(uint256 investmentId, address indexed executer);\n    event InvestmentRejected(uint256 investmentId, address indexed executer);\n\n    modifier isAllowed(address account) {\n        uint256 balance = token.balanceOf(account);\n        require(balance > 0, \"can't participate\");\n        _;\n    }\n\n    constructor(address _tokenAddress, address _treasuryAddress) {\n        require(_tokenAddress != address(0), \"zero address not allowed\");\n        require(_treasuryAddress != address(0), \"zero address not allowed\");\n        token = IDAOToken(_tokenAddress);\n        treasury = ITreasury(_treasuryAddress);\n        investmentsCounter = 1;\n    }\n    \n    function suggestInvestment(address _startup, uint256 _amount) external isAllowed(msg.sender) returns (uint256) {\n        require(_startup != address(this) || _startup != address(0), \"Wrong receiver\");\n\n        uint256 investmentId = investmentsCounter;\n        uint256 snapshotID = token.snapshot();\n\n        Investment storage investmentToQueue = investments[investmentId];\n        investmentToQueue.proposedAt = block.timestamp;\n        investmentToQueue.snapshotID = snapshotID;\n        investmentToQueue.startup = _startup;\n        investmentToQueue.amount = _amount;\n        investmentToQueue.votes = token.getBalanceAtSnapshot(msg.sender, snapshotID);\n        investmentToQueue.processed = false;\n\n        // Mark voted for the one who suggested this investment\n        voted[investmentId][msg.sender] = true;\n\n        investmentsCounter++;\n\n        emit InvestmentWasSuggested(investmentId, msg.sender);\n        return investmentId;\n    }\n\n    function voteForInvestment(uint investmentId) external {\n        Investment storage investment = investments[investmentId];\n\n        require(investment.startup != address(0), \"Investment does not exist\");\n        require(!investment.processed, \"Investment already processed\");\n        require(!voted[investmentId][msg.sender], \"Already voted\");\n\n        voted[investmentId][msg.sender] = true;\n        investment.votes += token.getBalanceAtSnapshot(msg.sender, investment.snapshotID);\n    }\n\n    function executeInvestment(uint256 investmentId) external {\n        Investment storage investment = investments[investmentId];\n\n        // Checks\n        require(investment.startup != address(0), \"Investment does not exist\");\n        require(!investment.processed, \"Investment already processed\");\n\n        uint quarterTotalSupply = token.getTotalSupplyAtSnapshot(investment.snapshotID) / 4;\n\n        // Enough votes\n        if(investment.votes > quarterTotalSupply){\n            investment.processed = true;\n            treasury.sendPayment(investment.startup, investment.amount);\n            emit InvestmentExecuted(investmentId, msg.sender);\n        } else {\n            // Voting time is over, didn't get enough votes\n            if(block.timestamp >= investment.proposedAt + VOTING_PERIOD) {\n                investment.processed = true;\n                emit InvestmentRejected(investmentId, msg.sender);\n            } else {\n                revert(\"Not enough votes, voting is not over\");\n            }\n        }\n    }\n}\n",
  "sourcePath": "contracts/dao-attack-3/Governance.sol",
  "type": "contract"
}