{
  "abi": [
    {
      "inputs": [
        {
          "internalType": "address",
          "name": "_poolAddress",
          "type": "address"
        }
      ],
      "stateMutability": "nonpayable",
      "type": "constructor"
    },
    {
      "inputs": [
        {
          "internalType": "uint256",
          "name": "amount",
          "type": "uint256"
        }
      ],
      "name": "flashLoan",
      "outputs": [],
      "stateMutability": "nonpayable",
      "type": "function"
    },
    {
      "inputs": [],
      "name": "getETH",
      "outputs": [],
      "stateMutability": "payable",
      "type": "function"
    }
  ],
  "bytecode": "608060405234801561001057600080fd5b5060405161018338038061018383398101604081905261002f91610054565b600080546001600160a01b0319166001600160a01b0392909216919091179055610084565b60006020828403121561006657600080fd5b81516001600160a01b038116811461007d57600080fd5b9392505050565b60f1806100926000396000f3fe60806040526004361060265760003560e01c806314f6c3be14602b5780639ab603b914602d575b600080fd5b005b348015603857600080fd5b50602b604436600460a3565b600054604051639ab603b960e01b8152600481018390526001600160a01b0390911690639ab603b990602401600060405180830381600087803b158015608957600080fd5b505af1158015609c573d6000803e3d6000fd5b5050505050565b60006020828403121560b457600080fd5b503591905056fea2646970667358221220d26fa7ddd3f0d1da049bc3300f1a6a182591a298b9769971d1b3902fad1ae7a064736f6c63430008130033",
  "bytecodeSha1": "1294f5f07a9ed053b10b204683617ef93d55a1d6",
  "compiler": {
    "evm_version": "istanbul",
    "optimizer": {
      "enabled": true,
      "runs": 200
    },
    "version": "0.8.19+commit.7dd6d404"
  },
  "contractName": "GreedyReceiver",
  "language": "Solidity",
  "natspec": {
    "author": "JohnnyTime (https://smartcontractshacking.com)",
    "kind": "dev",
    "methods": {},
    "title": "GreedyReceiver",
    "version": 1
  },
  "opcodes": "PUSH1 0x80 PUSH1 0x40 MSTORE PUSH1 0x4 CALLDATASIZE LT PUSH1 0x26 JUMPI PUSH1 0x0 CALLDATALOAD PUSH1 0xE0 SHR DUP1 PUSH4 0x14F6C3BE EQ PUSH1 0x2B JUMPI DUP1 PUSH4 0x9AB603B9 EQ PUSH1 0x2D JUMPI JUMPDEST PUSH1 0x0 DUP1 REVERT JUMPDEST STOP JUMPDEST CALLVALUE DUP1 ISZERO PUSH1 0x38 JUMPI PUSH1 0x0 DUP1 REVERT JUMPDEST POP PUSH1 0x2B PUSH1 0x44 CALLDATASIZE PUSH1 0x4 PUSH1 0xA3 JUMP JUMPDEST PUSH1 0x0 SLOAD PUSH1 0x40 MLOAD PUSH4 0x9AB603B9 PUSH1 0xE0 SHL DUP2 MSTORE PUSH1 0x4 DUP2 ADD DUP4 SWAP1 MSTORE PUSH1 0x1 PUSH1 0x1 PUSH1 0xA0 SHL SUB SWAP1 SWAP2 AND SWAP1 PUSH4 0x9AB603B9 SWAP1 PUSH1 0x24 ADD PUSH1 0x0 PUSH1 0x40 MLOAD DUP1 DUP4 SUB DUP2 PUSH1 0x0 DUP8 DUP1 EXTCODESIZE ISZERO DUP1 ISZERO PUSH1 0x89 JUMPI PUSH1 0x0 DUP1 REVERT JUMPDEST POP GAS CALL ISZERO DUP1 ISZERO PUSH1 0x9C JUMPI RETURNDATASIZE PUSH1 0x0 DUP1 RETURNDATACOPY RETURNDATASIZE PUSH1 0x0 REVERT JUMPDEST POP POP POP POP POP JUMP JUMPDEST PUSH1 0x0 PUSH1 0x20 DUP3 DUP5 SUB SLT ISZERO PUSH1 0xB4 JUMPI PUSH1 0x0 DUP1 REVERT JUMPDEST POP CALLDATALOAD SWAP2 SWAP1 POP JUMP INVALID LOG2 PUSH5 0x6970667358 0x22 SLT KECCAK256 0xD2 PUSH16 0xA7DDD3F0D1DA049BC3300F1A6A182591 LOG2 SWAP9 0xB9 PUSH23 0x9971D1B3902FAD1AE7A064736F6C634300081300330000 ",
  "sha1": "0955569af748ae48b0c5915a55e601d5e161e3fa",
  "source": "// SCH Course Copyright Policy (C): DO-NOT-SHARE-WITH-ANYONE\n// https://smartcontractshacking.com/#copyright-policy\npragma solidity ^0.8.13;\n\ninterface IPool {\n    function flashLoan(uint256 amount) external;\n}\n\n/**\n * @title GreedyReceiver\n * @author JohnnyTime (https://smartcontractshacking.com)\n */\ncontract GreedyReceiver {\n\n    // TODO: Implement Greedy Receiver Logic (Not paying back the loan)\n    IPool pool;\n\n    constructor(address _poolAddress) {\n        pool = IPool(_poolAddress);\n    }\n\n    // TODO: Complete this function\n    function flashLoan(uint256 amount) external {\n        pool.flashLoan(amount);\n    }\n\n    // TODO: Complete this function\n    function getETH() external payable {}\n}",
  "sourcePath": "contracts/flash-loans-1/GreedyReceiver.sol",
  "type": "contract"
}