{
  "abi": [
    {
      "inputs": [
        {
          "internalType": "address",
          "name": "tokenAddress",
          "type": "address"
        }
      ],
      "stateMutability": "nonpayable",
      "type": "constructor"
    },
    {
      "inputs": [
        {
          "internalType": "uint256",
          "name": "borrowAmount",
          "type": "uint256"
        }
      ],
      "name": "flashLoan",
      "outputs": [],
      "stateMutability": "nonpayable",
      "type": "function"
    },
    {
      "inputs": [],
      "name": "token",
      "outputs": [
        {
          "internalType": "contract IDAOToken",
          "name": "",
          "type": "address"
        }
      ],
      "stateMutability": "view",
      "type": "function"
    }
  ],
  "bytecode": "608060405234801561001057600080fd5b5060405161046638038061046683398101604081905261002f91610059565b6001600081905580546001600160a01b0319166001600160a01b0392909216919091179055610089565b60006020828403121561006b57600080fd5b81516001600160a01b038116811461008257600080fd5b9392505050565b6103ce806100986000396000f3fe608060405234801561001057600080fd5b50600436106100365760003560e01c80639ab603b91461003b578063fc0c546a14610050575b600080fd5b61004e610049366004610366565b61007f565b005b600154610063906001600160a01b031681565b6040516001600160a01b03909116815260200160405180910390f35b61008761030d565b333b6100cf5760405162461bcd60e51b8152602060048201526012602482015271135d5cdd08189948184818dbdb9d1c9858dd60721b60448201526064015b60405180910390fd5b6001546040516370a0823160e01b81523060048201526000916001600160a01b0316906370a08231906024016020604051808303816000875af115801561011a573d6000803e3d6000fd5b505050506040513d601f19601f8201168201806040525081019061013e919061037f565b9050818110156101875760405162461bcd60e51b81526020600482015260146024820152734e6f7420656e6f756768206c697175696469747960601b60448201526064016100c6565b60015460405163a9059cbb60e01b8152336004820152602481018490526001600160a01b039091169063a9059cbb90604401600060405180830381600087803b1580156101d357600080fd5b505af11580156101e7573d6000803e3d6000fd5b50506040516209a62960e71b8152600481018590523392506304d314809150602401600060405180830381600087803b15801561022357600080fd5b505af1158015610237573d6000803e3d6000fd5b50506001546040516370a0823160e01b8152306004820152600093506001600160a01b0390911691506370a08231906024016020604051808303816000875af1158015610288573d6000803e3d6000fd5b505050506040513d601f19601f820116820180604052508101906102ac919061037f565b9050818110156102fe5760405162461bcd60e51b815260206004820152601960248201527f4e65656420746f2070617920746865206c6f616e206261636b0000000000000060448201526064016100c6565b505061030a6001600055565b50565b60026000540361035f5760405162461bcd60e51b815260206004820152601f60248201527f5265656e7472616e637947756172643a207265656e7472616e742063616c6c0060448201526064016100c6565b6002600055565b60006020828403121561037857600080fd5b5035919050565b60006020828403121561039157600080fd5b505191905056fea26469706673582212202992b31f87ad10e62fbd763483aa2113e5e6d36f31c8f4b8285c41016e3efeaa64736f6c63430008130033",
  "bytecodeSha1": "c5c1ea01ee29fd395a4065780fcda20800a0a947",
  "compiler": {
    "evm_version": "istanbul",
    "optimizer": {
      "enabled": true,
      "runs": 200
    },
    "version": "0.8.19+commit.7dd6d404"
  },
  "contractName": "LendingPool",
  "language": "Solidity",
  "natspec": {
    "author": "JohnnyTime (https://smartcontractshacking.com)",
    "kind": "dev",
    "methods": {},
    "title": "LendingPool",
    "version": 1
  },
  "opcodes": "PUSH1 0x80 PUSH1 0x40 MSTORE CALLVALUE DUP1 ISZERO PUSH2 0x10 JUMPI PUSH1 0x0 DUP1 REVERT JUMPDEST POP PUSH1 0x4 CALLDATASIZE LT PUSH2 0x36 JUMPI PUSH1 0x0 CALLDATALOAD PUSH1 0xE0 SHR DUP1 PUSH4 0x9AB603B9 EQ PUSH2 0x3B JUMPI DUP1 PUSH4 0xFC0C546A EQ PUSH2 0x50 JUMPI JUMPDEST PUSH1 0x0 DUP1 REVERT JUMPDEST PUSH2 0x4E PUSH2 0x49 CALLDATASIZE PUSH1 0x4 PUSH2 0x366 JUMP JUMPDEST PUSH2 0x7F JUMP JUMPDEST STOP JUMPDEST PUSH1 0x1 SLOAD PUSH2 0x63 SWAP1 PUSH1 0x1 PUSH1 0x1 PUSH1 0xA0 SHL SUB AND DUP2 JUMP JUMPDEST PUSH1 0x40 MLOAD PUSH1 0x1 PUSH1 0x1 PUSH1 0xA0 SHL SUB SWAP1 SWAP2 AND DUP2 MSTORE PUSH1 0x20 ADD PUSH1 0x40 MLOAD DUP1 SWAP2 SUB SWAP1 RETURN JUMPDEST PUSH2 0x87 PUSH2 0x30D JUMP JUMPDEST CALLER EXTCODESIZE PUSH2 0xCF JUMPI PUSH1 0x40 MLOAD PUSH3 0x461BCD PUSH1 0xE5 SHL DUP2 MSTORE PUSH1 0x20 PUSH1 0x4 DUP3 ADD MSTORE PUSH1 0x12 PUSH1 0x24 DUP3 ADD MSTORE PUSH18 0x135D5CDD08189948184818DBDB9D1C9858DD PUSH1 0x72 SHL PUSH1 0x44 DUP3 ADD MSTORE PUSH1 0x64 ADD JUMPDEST PUSH1 0x40 MLOAD DUP1 SWAP2 SUB SWAP1 REVERT JUMPDEST PUSH1 0x1 SLOAD PUSH1 0x40 MLOAD PUSH4 0x70A08231 PUSH1 0xE0 SHL DUP2 MSTORE ADDRESS PUSH1 0x4 DUP3 ADD MSTORE PUSH1 0x0 SWAP2 PUSH1 0x1 PUSH1 0x1 PUSH1 0xA0 SHL SUB AND SWAP1 PUSH4 0x70A08231 SWAP1 PUSH1 0x24 ADD PUSH1 0x20 PUSH1 0x40 MLOAD DUP1 DUP4 SUB DUP2 PUSH1 0x0 DUP8 GAS CALL ISZERO DUP1 ISZERO PUSH2 0x11A JUMPI RETURNDATASIZE PUSH1 0x0 DUP1 RETURNDATACOPY RETURNDATASIZE PUSH1 0x0 REVERT JUMPDEST POP POP POP POP PUSH1 0x40 MLOAD RETURNDATASIZE PUSH1 0x1F NOT PUSH1 0x1F DUP3 ADD AND DUP3 ADD DUP1 PUSH1 0x40 MSTORE POP DUP2 ADD SWAP1 PUSH2 0x13E SWAP2 SWAP1 PUSH2 0x37F JUMP JUMPDEST SWAP1 POP DUP2 DUP2 LT ISZERO PUSH2 0x187 JUMPI PUSH1 0x40 MLOAD PUSH3 0x461BCD PUSH1 0xE5 SHL DUP2 MSTORE PUSH1 0x20 PUSH1 0x4 DUP3 ADD MSTORE PUSH1 0x14 PUSH1 0x24 DUP3 ADD MSTORE PUSH20 0x4E6F7420656E6F756768206C6971756964697479 PUSH1 0x60 SHL PUSH1 0x44 DUP3 ADD MSTORE PUSH1 0x64 ADD PUSH2 0xC6 JUMP JUMPDEST PUSH1 0x1 SLOAD PUSH1 0x40 MLOAD PUSH4 0xA9059CBB PUSH1 0xE0 SHL DUP2 MSTORE CALLER PUSH1 0x4 DUP3 ADD MSTORE PUSH1 0x24 DUP2 ADD DUP5 SWAP1 MSTORE PUSH1 0x1 PUSH1 0x1 PUSH1 0xA0 SHL SUB SWAP1 SWAP2 AND SWAP1 PUSH4 0xA9059CBB SWAP1 PUSH1 0x44 ADD PUSH1 0x0 PUSH1 0x40 MLOAD DUP1 DUP4 SUB DUP2 PUSH1 0x0 DUP8 DUP1 EXTCODESIZE ISZERO DUP1 ISZERO PUSH2 0x1D3 JUMPI PUSH1 0x0 DUP1 REVERT JUMPDEST POP GAS CALL ISZERO DUP1 ISZERO PUSH2 0x1E7 JUMPI RETURNDATASIZE PUSH1 0x0 DUP1 RETURNDATACOPY RETURNDATASIZE PUSH1 0x0 REVERT JUMPDEST POP POP PUSH1 0x40 MLOAD PUSH3 0x9A629 PUSH1 0xE7 SHL DUP2 MSTORE PUSH1 0x4 DUP2 ADD DUP6 SWAP1 MSTORE CALLER SWAP3 POP PUSH4 0x4D31480 SWAP2 POP PUSH1 0x24 ADD PUSH1 0x0 PUSH1 0x40 MLOAD DUP1 DUP4 SUB DUP2 PUSH1 0x0 DUP8 DUP1 EXTCODESIZE ISZERO DUP1 ISZERO PUSH2 0x223 JUMPI PUSH1 0x0 DUP1 REVERT JUMPDEST POP GAS CALL ISZERO DUP1 ISZERO PUSH2 0x237 JUMPI RETURNDATASIZE PUSH1 0x0 DUP1 RETURNDATACOPY RETURNDATASIZE PUSH1 0x0 REVERT JUMPDEST POP POP PUSH1 0x1 SLOAD PUSH1 0x40 MLOAD PUSH4 0x70A08231 PUSH1 0xE0 SHL DUP2 MSTORE ADDRESS PUSH1 0x4 DUP3 ADD MSTORE PUSH1 0x0 SWAP4 POP PUSH1 0x1 PUSH1 0x1 PUSH1 0xA0 SHL SUB SWAP1 SWAP2 AND SWAP2 POP PUSH4 0x70A08231 SWAP1 PUSH1 0x24 ADD PUSH1 0x20 PUSH1 0x40 MLOAD DUP1 DUP4 SUB DUP2 PUSH1 0x0 DUP8 GAS CALL ISZERO DUP1 ISZERO PUSH2 0x288 JUMPI RETURNDATASIZE PUSH1 0x0 DUP1 RETURNDATACOPY RETURNDATASIZE PUSH1 0x0 REVERT JUMPDEST POP POP POP POP PUSH1 0x40 MLOAD RETURNDATASIZE PUSH1 0x1F NOT PUSH1 0x1F DUP3 ADD AND DUP3 ADD DUP1 PUSH1 0x40 MSTORE POP DUP2 ADD SWAP1 PUSH2 0x2AC SWAP2 SWAP1 PUSH2 0x37F JUMP JUMPDEST SWAP1 POP DUP2 DUP2 LT ISZERO PUSH2 0x2FE JUMPI PUSH1 0x40 MLOAD PUSH3 0x461BCD PUSH1 0xE5 SHL DUP2 MSTORE PUSH1 0x20 PUSH1 0x4 DUP3 ADD MSTORE PUSH1 0x19 PUSH1 0x24 DUP3 ADD MSTORE PUSH32 0x4E65656420746F2070617920746865206C6F616E206261636B00000000000000 PUSH1 0x44 DUP3 ADD MSTORE PUSH1 0x64 ADD PUSH2 0xC6 JUMP JUMPDEST POP POP PUSH2 0x30A PUSH1 0x1 PUSH1 0x0 SSTORE JUMP JUMPDEST POP JUMP JUMPDEST PUSH1 0x2 PUSH1 0x0 SLOAD SUB PUSH2 0x35F JUMPI PUSH1 0x40 MLOAD PUSH3 0x461BCD PUSH1 0xE5 SHL DUP2 MSTORE PUSH1 0x20 PUSH1 0x4 DUP3 ADD MSTORE PUSH1 0x1F PUSH1 0x24 DUP3 ADD MSTORE PUSH32 0x5265656E7472616E637947756172643A207265656E7472616E742063616C6C00 PUSH1 0x44 DUP3 ADD MSTORE PUSH1 0x64 ADD PUSH2 0xC6 JUMP JUMPDEST PUSH1 0x2 PUSH1 0x0 SSTORE JUMP JUMPDEST PUSH1 0x0 PUSH1 0x20 DUP3 DUP5 SUB SLT ISZERO PUSH2 0x378 JUMPI PUSH1 0x0 DUP1 REVERT JUMPDEST POP CALLDATALOAD SWAP2 SWAP1 POP JUMP JUMPDEST PUSH1 0x0 PUSH1 0x20 DUP3 DUP5 SUB SLT ISZERO PUSH2 0x391 JUMPI PUSH1 0x0 DUP1 REVERT JUMPDEST POP MLOAD SWAP2 SWAP1 POP JUMP INVALID LOG2 PUSH5 0x6970667358 0x22 SLT KECCAK256 0x29 SWAP3 0xB3 0x1F DUP8 0xAD LT 0xE6 0x2F 0xBD PUSH23 0x3483AA2113E5E6D36F31C8F4B8285C41016E3EFEAA6473 PUSH16 0x6C634300081300330000000000000000 ",
  "sha1": "ca1659ca7c0efaa9d2c6a9477245906af2fbbe87",
  "source": "// SCH Course Copyright Policy (C): DO-NOT-SHARE-WITH-ANYONE\n// https://smartcontractshacking.com/#copyright-policy\n// SPDX-License-Identifier: MIT\npragma solidity ^0.8.13;\n\nimport \"@openzeppelin/contracts/utils/Address.sol\";\nimport \"@openzeppelin/contracts/security/ReentrancyGuard.sol\";\n\ninterface IDAOToken {\n    function balanceOf(address account) external returns(uint);\n    function transfer(address to, uint amount) external;\n}\n\ninterface IFlashLoanReceiver {\n    function callBack(uint borrowAmount) external;\n}\n\n/**\n * @title LendingPool\n * @author JohnnyTime (https://smartcontractshacking.com)\n */\ncontract LendingPool is ReentrancyGuard {\n\n    using Address for address;\n\n    IDAOToken public token;\n\n    constructor(address tokenAddress) {\n        token = IDAOToken(tokenAddress);\n    }\n\n    function flashLoan(uint256 borrowAmount) external nonReentrant {\n\n        // Before checks\n        require(msg.sender.isContract(), \"Must be a contract\");\n        uint256 balanceBefore = token.balanceOf(address(this));\n        require(balanceBefore >= borrowAmount, \"Not enough liquidity\");\n\n        token.transfer(msg.sender, borrowAmount);\n        IFlashLoanReceiver(msg.sender).callBack(borrowAmount);\n\n        // After checks\n        uint256 balanceAfter = token.balanceOf(address(this));\n        require(balanceAfter >= balanceBefore, \"Need to pay the loan back\");\n    }\n}\n",
  "sourcePath": "contracts/dao-attack-3/LendingPool.sol",
  "type": "contract"
}