{
  "abi": [
    {
      "inputs": [
        {
          "internalType": "address[2]",
          "name": "_signatories",
          "type": "address[2]"
        }
      ],
      "stateMutability": "nonpayable",
      "type": "constructor"
    },
    {
      "inputs": [
        {
          "internalType": "uint256",
          "name": "",
          "type": "uint256"
        }
      ],
      "name": "signatories",
      "outputs": [
        {
          "internalType": "address",
          "name": "",
          "type": "address"
        }
      ],
      "stateMutability": "view",
      "type": "function"
    },
    {
      "inputs": [
        {
          "internalType": "address",
          "name": "to",
          "type": "address"
        },
        {
          "internalType": "uint256",
          "name": "amount",
          "type": "uint256"
        },
        {
          "components": [
            {
              "internalType": "uint8",
              "name": "v",
              "type": "uint8"
            },
            {
              "internalType": "bytes32",
              "name": "r",
              "type": "bytes32"
            },
            {
              "internalType": "bytes32",
              "name": "s",
              "type": "bytes32"
            }
          ],
          "internalType": "struct MultiSignatureWallet.Signature[2]",
          "name": "signatures",
          "type": "tuple[2]"
        }
      ],
      "name": "transfer",
      "outputs": [],
      "stateMutability": "nonpayable",
      "type": "function"
    },
    {
      "stateMutability": "payable",
      "type": "receive"
    }
  ],
  "bytecode": "608060405234801561001057600080fd5b506040516106d03803806106d083398101604081905261002f916100cc565b61003c6000826002610043565b5050610160565b826002810192821561008b579160200282015b8281111561008b57825182546001600160a01b0319166001600160a01b03909116178255602090920191600190910190610056565b5061009792915061009b565b5090565b5b80821115610097576000815560010161009c565b80516001600160a01b03811681146100c757600080fd5b919050565b6000604082840312156100de57600080fd5b82601f8301126100ed57600080fd5b604080519081016001600160401b038111828210171561011d57634e487b7160e01b600052604160045260246000fd5b806040525080604084018581111561013457600080fd5b845b8181101561015557610147816100b0565b835260209283019201610136565b509195945050505050565b6105618061016f6000396000f3fe60806040526004361061002d5760003560e01c80630dad969314610039578063cdb9df6b1461005b57600080fd5b3661003457005b600080fd5b34801561004557600080fd5b506100596100543660046103f9565b610097565b005b34801561006757600080fd5b5061007b6100763660046104c3565b610185565b6040516001600160a01b03909116815260200160405180910390f35b60008001546001600160a01b03166100b884848460005b60200201516101a5565b6001600160a01b0316146101075760405162461bcd60e51b81526020600482015260116024820152701058d8d95cdcc81c995cdd1c9a58dd1959607a1b60448201526064015b60405180910390fd5b6000600101546001600160a01b031661012384848460016100ae565b6001600160a01b03161461016d5760405162461bcd60e51b81526020600482015260116024820152701058d8d95cdcc81c995cdd1c9a58dd1959607a1b60448201526064016100fe565b6101806001600160a01b0384168361027e565b505050565b6000816002811061019557600080fd5b01546001600160a01b0316905081565b6000806040518060400160405280601c81526020017f19457468657265756d205369676e6564204d6573736167653a0a353200000000815250905060008186866040516020016101f7939291906104dc565b60408051601f198184030181528282528051602091820120875188830151898501516000875293860180865283905260ff9091169385019390935260608401929092526080830152915060019060a0016020604051602081039080840390855afa158015610269573d6000803e3d6000fd5b5050604051601f190151979650505050505050565b804710156102ce5760405162461bcd60e51b815260206004820152601d60248201527f416464726573733a20696e73756666696369656e742062616c616e636500000060448201526064016100fe565b6000826001600160a01b03168260405160006040518083038185875af1925050503d806000811461031b576040519150601f19603f3d011682016040523d82523d6000602084013e610320565b606091505b50509050806101805760405162461bcd60e51b815260206004820152603a60248201527f416464726573733a20756e61626c6520746f2073656e642076616c75652c207260448201527f6563697069656e74206d6179206861766520726576657274656400000000000060648201526084016100fe565b634e487b7160e01b600052604160045260246000fd5b6040805190810167ffffffffffffffff811182821017156103d0576103d0610397565b60405290565b6040516060810167ffffffffffffffff811182821017156103d0576103d0610397565b600080600061010080858703121561041057600080fd5b84356001600160a01b038116811461042757600080fd5b935060208581013593506040605f8701881361044257600080fd5b61044a6103ad565b92870192808985111561045c57600080fd5b8289015b858110156104b3576060818c0312156104795760008081fd5b6104816103d6565b813560ff811681146104935760008081fd5b815281860135868201528482013585820152835291840191606001610460565b5080955050505050509250925092565b6000602082840312156104d557600080fd5b5035919050565b6000845160005b818110156104fd57602081880181015185830152016104e3565b5060609490941b6bffffffffffffffffffffffff19169190930190815260148101919091526034019291505056fea264697066735822122031fe95636257826c20f212b512fa781a9f7d47fdb866a4b6d6e169a54104fd2a64736f6c63430008130033",
  "bytecodeSha1": "24204aa6cd49e80bfcb25ffd65e3f0f1cdc2ee6f",
  "compiler": {
    "evm_version": "istanbul",
    "optimizer": {
      "enabled": true,
      "runs": 200
    },
    "version": "0.8.19+commit.7dd6d404"
  },
  "contractName": "MultiSignatureWallet",
  "language": "Solidity",
  "natspec": {
    "author": "JohnnyTime (https://smartcontractshacking.com)",
    "kind": "dev",
    "methods": {},
    "title": "MultiSignatureWallet",
    "version": 1
  },
  "opcodes": "PUSH1 0x80 PUSH1 0x40 MSTORE PUSH1 0x4 CALLDATASIZE LT PUSH2 0x2D JUMPI PUSH1 0x0 CALLDATALOAD PUSH1 0xE0 SHR DUP1 PUSH4 0xDAD9693 EQ PUSH2 0x39 JUMPI DUP1 PUSH4 0xCDB9DF6B EQ PUSH2 0x5B JUMPI PUSH1 0x0 DUP1 REVERT JUMPDEST CALLDATASIZE PUSH2 0x34 JUMPI STOP JUMPDEST PUSH1 0x0 DUP1 REVERT JUMPDEST CALLVALUE DUP1 ISZERO PUSH2 0x45 JUMPI PUSH1 0x0 DUP1 REVERT JUMPDEST POP PUSH2 0x59 PUSH2 0x54 CALLDATASIZE PUSH1 0x4 PUSH2 0x3F9 JUMP JUMPDEST PUSH2 0x97 JUMP JUMPDEST STOP JUMPDEST CALLVALUE DUP1 ISZERO PUSH2 0x67 JUMPI PUSH1 0x0 DUP1 REVERT JUMPDEST POP PUSH2 0x7B PUSH2 0x76 CALLDATASIZE PUSH1 0x4 PUSH2 0x4C3 JUMP JUMPDEST PUSH2 0x185 JUMP JUMPDEST PUSH1 0x40 MLOAD PUSH1 0x1 PUSH1 0x1 PUSH1 0xA0 SHL SUB SWAP1 SWAP2 AND DUP2 MSTORE PUSH1 0x20 ADD PUSH1 0x40 MLOAD DUP1 SWAP2 SUB SWAP1 RETURN JUMPDEST PUSH1 0x0 DUP1 ADD SLOAD PUSH1 0x1 PUSH1 0x1 PUSH1 0xA0 SHL SUB AND PUSH2 0xB8 DUP5 DUP5 DUP5 PUSH1 0x0 JUMPDEST PUSH1 0x20 MUL ADD MLOAD PUSH2 0x1A5 JUMP JUMPDEST PUSH1 0x1 PUSH1 0x1 PUSH1 0xA0 SHL SUB AND EQ PUSH2 0x107 JUMPI PUSH1 0x40 MLOAD PUSH3 0x461BCD PUSH1 0xE5 SHL DUP2 MSTORE PUSH1 0x20 PUSH1 0x4 DUP3 ADD MSTORE PUSH1 0x11 PUSH1 0x24 DUP3 ADD MSTORE PUSH17 0x1058D8D95CDCC81C995CDD1C9A58DD1959 PUSH1 0x7A SHL PUSH1 0x44 DUP3 ADD MSTORE PUSH1 0x64 ADD JUMPDEST PUSH1 0x40 MLOAD DUP1 SWAP2 SUB SWAP1 REVERT JUMPDEST PUSH1 0x0 PUSH1 0x1 ADD SLOAD PUSH1 0x1 PUSH1 0x1 PUSH1 0xA0 SHL SUB AND PUSH2 0x123 DUP5 DUP5 DUP5 PUSH1 0x1 PUSH2 0xAE JUMP JUMPDEST PUSH1 0x1 PUSH1 0x1 PUSH1 0xA0 SHL SUB AND EQ PUSH2 0x16D JUMPI PUSH1 0x40 MLOAD PUSH3 0x461BCD PUSH1 0xE5 SHL DUP2 MSTORE PUSH1 0x20 PUSH1 0x4 DUP3 ADD MSTORE PUSH1 0x11 PUSH1 0x24 DUP3 ADD MSTORE PUSH17 0x1058D8D95CDCC81C995CDD1C9A58DD1959 PUSH1 0x7A SHL PUSH1 0x44 DUP3 ADD MSTORE PUSH1 0x64 ADD PUSH2 0xFE JUMP JUMPDEST PUSH2 0x180 PUSH1 0x1 PUSH1 0x1 PUSH1 0xA0 SHL SUB DUP5 AND DUP4 PUSH2 0x27E JUMP JUMPDEST POP POP POP JUMP JUMPDEST PUSH1 0x0 DUP2 PUSH1 0x2 DUP2 LT PUSH2 0x195 JUMPI PUSH1 0x0 DUP1 REVERT JUMPDEST ADD SLOAD PUSH1 0x1 PUSH1 0x1 PUSH1 0xA0 SHL SUB AND SWAP1 POP DUP2 JUMP JUMPDEST PUSH1 0x0 DUP1 PUSH1 0x40 MLOAD DUP1 PUSH1 0x40 ADD PUSH1 0x40 MSTORE DUP1 PUSH1 0x1C DUP2 MSTORE PUSH1 0x20 ADD PUSH32 0x19457468657265756D205369676E6564204D6573736167653A0A353200000000 DUP2 MSTORE POP SWAP1 POP PUSH1 0x0 DUP2 DUP7 DUP7 PUSH1 0x40 MLOAD PUSH1 0x20 ADD PUSH2 0x1F7 SWAP4 SWAP3 SWAP2 SWAP1 PUSH2 0x4DC JUMP JUMPDEST PUSH1 0x40 DUP1 MLOAD PUSH1 0x1F NOT DUP2 DUP5 SUB ADD DUP2 MSTORE DUP3 DUP3 MSTORE DUP1 MLOAD PUSH1 0x20 SWAP2 DUP3 ADD KECCAK256 DUP8 MLOAD DUP9 DUP4 ADD MLOAD DUP10 DUP6 ADD MLOAD PUSH1 0x0 DUP8 MSTORE SWAP4 DUP7 ADD DUP1 DUP7 MSTORE DUP4 SWAP1 MSTORE PUSH1 0xFF SWAP1 SWAP2 AND SWAP4 DUP6 ADD SWAP4 SWAP1 SWAP4 MSTORE PUSH1 0x60 DUP5 ADD SWAP3 SWAP1 SWAP3 MSTORE PUSH1 0x80 DUP4 ADD MSTORE SWAP2 POP PUSH1 0x1 SWAP1 PUSH1 0xA0 ADD PUSH1 0x20 PUSH1 0x40 MLOAD PUSH1 0x20 DUP2 SUB SWAP1 DUP1 DUP5 SUB SWAP1 DUP6 GAS STATICCALL ISZERO DUP1 ISZERO PUSH2 0x269 JUMPI RETURNDATASIZE PUSH1 0x0 DUP1 RETURNDATACOPY RETURNDATASIZE PUSH1 0x0 REVERT JUMPDEST POP POP PUSH1 0x40 MLOAD PUSH1 0x1F NOT ADD MLOAD SWAP8 SWAP7 POP POP POP POP POP POP POP JUMP JUMPDEST DUP1 SELFBALANCE LT ISZERO PUSH2 0x2CE JUMPI PUSH1 0x40 MLOAD PUSH3 0x461BCD PUSH1 0xE5 SHL DUP2 MSTORE PUSH1 0x20 PUSH1 0x4 DUP3 ADD MSTORE PUSH1 0x1D PUSH1 0x24 DUP3 ADD MSTORE PUSH32 0x416464726573733A20696E73756666696369656E742062616C616E6365000000 PUSH1 0x44 DUP3 ADD MSTORE PUSH1 0x64 ADD PUSH2 0xFE JUMP JUMPDEST PUSH1 0x0 DUP3 PUSH1 0x1 PUSH1 0x1 PUSH1 0xA0 SHL SUB AND DUP3 PUSH1 0x40 MLOAD PUSH1 0x0 PUSH1 0x40 MLOAD DUP1 DUP4 SUB DUP2 DUP6 DUP8 GAS CALL SWAP3 POP POP POP RETURNDATASIZE DUP1 PUSH1 0x0 DUP2 EQ PUSH2 0x31B JUMPI PUSH1 0x40 MLOAD SWAP2 POP PUSH1 0x1F NOT PUSH1 0x3F RETURNDATASIZE ADD AND DUP3 ADD PUSH1 0x40 MSTORE RETURNDATASIZE DUP3 MSTORE RETURNDATASIZE PUSH1 0x0 PUSH1 0x20 DUP5 ADD RETURNDATACOPY PUSH2 0x320 JUMP JUMPDEST PUSH1 0x60 SWAP2 POP JUMPDEST POP POP SWAP1 POP DUP1 PUSH2 0x180 JUMPI PUSH1 0x40 MLOAD PUSH3 0x461BCD PUSH1 0xE5 SHL DUP2 MSTORE PUSH1 0x20 PUSH1 0x4 DUP3 ADD MSTORE PUSH1 0x3A PUSH1 0x24 DUP3 ADD MSTORE PUSH32 0x416464726573733A20756E61626C6520746F2073656E642076616C75652C2072 PUSH1 0x44 DUP3 ADD MSTORE PUSH32 0x6563697069656E74206D61792068617665207265766572746564000000000000 PUSH1 0x64 DUP3 ADD MSTORE PUSH1 0x84 ADD PUSH2 0xFE JUMP JUMPDEST PUSH4 0x4E487B71 PUSH1 0xE0 SHL PUSH1 0x0 MSTORE PUSH1 0x41 PUSH1 0x4 MSTORE PUSH1 0x24 PUSH1 0x0 REVERT JUMPDEST PUSH1 0x40 DUP1 MLOAD SWAP1 DUP2 ADD PUSH8 0xFFFFFFFFFFFFFFFF DUP2 GT DUP3 DUP3 LT OR ISZERO PUSH2 0x3D0 JUMPI PUSH2 0x3D0 PUSH2 0x397 JUMP JUMPDEST PUSH1 0x40 MSTORE SWAP1 JUMP JUMPDEST PUSH1 0x40 MLOAD PUSH1 0x60 DUP2 ADD PUSH8 0xFFFFFFFFFFFFFFFF DUP2 GT DUP3 DUP3 LT OR ISZERO PUSH2 0x3D0 JUMPI PUSH2 0x3D0 PUSH2 0x397 JUMP JUMPDEST PUSH1 0x0 DUP1 PUSH1 0x0 PUSH2 0x100 DUP1 DUP6 DUP8 SUB SLT ISZERO PUSH2 0x410 JUMPI PUSH1 0x0 DUP1 REVERT JUMPDEST DUP5 CALLDATALOAD PUSH1 0x1 PUSH1 0x1 PUSH1 0xA0 SHL SUB DUP2 AND DUP2 EQ PUSH2 0x427 JUMPI PUSH1 0x0 DUP1 REVERT JUMPDEST SWAP4 POP PUSH1 0x20 DUP6 DUP2 ADD CALLDATALOAD SWAP4 POP PUSH1 0x40 PUSH1 0x5F DUP8 ADD DUP9 SGT PUSH2 0x442 JUMPI PUSH1 0x0 DUP1 REVERT JUMPDEST PUSH2 0x44A PUSH2 0x3AD JUMP JUMPDEST SWAP3 DUP8 ADD SWAP3 DUP1 DUP10 DUP6 GT ISZERO PUSH2 0x45C JUMPI PUSH1 0x0 DUP1 REVERT JUMPDEST DUP3 DUP10 ADD JUMPDEST DUP6 DUP2 LT ISZERO PUSH2 0x4B3 JUMPI PUSH1 0x60 DUP2 DUP13 SUB SLT ISZERO PUSH2 0x479 JUMPI PUSH1 0x0 DUP1 DUP2 REVERT JUMPDEST PUSH2 0x481 PUSH2 0x3D6 JUMP JUMPDEST DUP2 CALLDATALOAD PUSH1 0xFF DUP2 AND DUP2 EQ PUSH2 0x493 JUMPI PUSH1 0x0 DUP1 DUP2 REVERT JUMPDEST DUP2 MSTORE DUP2 DUP7 ADD CALLDATALOAD DUP7 DUP3 ADD MSTORE DUP5 DUP3 ADD CALLDATALOAD DUP6 DUP3 ADD MSTORE DUP4 MSTORE SWAP2 DUP5 ADD SWAP2 PUSH1 0x60 ADD PUSH2 0x460 JUMP JUMPDEST POP DUP1 SWAP6 POP POP POP POP POP POP SWAP3 POP SWAP3 POP SWAP3 JUMP JUMPDEST PUSH1 0x0 PUSH1 0x20 DUP3 DUP5 SUB SLT ISZERO PUSH2 0x4D5 JUMPI PUSH1 0x0 DUP1 REVERT JUMPDEST POP CALLDATALOAD SWAP2 SWAP1 POP JUMP JUMPDEST PUSH1 0x0 DUP5 MLOAD PUSH1 0x0 JUMPDEST DUP2 DUP2 LT ISZERO PUSH2 0x4FD JUMPI PUSH1 0x20 DUP2 DUP9 ADD DUP2 ADD MLOAD DUP6 DUP4 ADD MSTORE ADD PUSH2 0x4E3 JUMP JUMPDEST POP PUSH1 0x60 SWAP5 SWAP1 SWAP5 SHL PUSH12 0xFFFFFFFFFFFFFFFFFFFFFFFF NOT AND SWAP2 SWAP1 SWAP4 ADD SWAP1 DUP2 MSTORE PUSH1 0x14 DUP2 ADD SWAP2 SWAP1 SWAP2 MSTORE PUSH1 0x34 ADD SWAP3 SWAP2 POP POP JUMP INVALID LOG2 PUSH5 0x6970667358 0x22 SLT KECCAK256 BALANCE INVALID SWAP6 PUSH4 0x6257826C KECCAK256 CALLCODE SLT 0xB5 SLT STATICCALL PUSH25 0x1A9F7D47FDB866A4B6D6E169A54104FD2A64736F6C63430008 SGT STOP CALLER ",
  "sha1": "58eeb5db1a0a5eb02d412a235959ba8d4ad49f50",
  "source": "// SCH Course Copyright Policy (C): DO-NOT-SHARE-WITH-ANYONE\n// https://smartcontractshacking.com/#copyright-policy\npragma solidity ^0.8.13;\n\nimport \"@openzeppelin/contracts/utils/Address.sol\";\n\n/**\n * @title MultiSignatureWallet\n * @author JohnnyTime (https://smartcontractshacking.com)\n */\ncontract MultiSignatureWallet {\n\n  using Address for address payable;\n  address[2] public signatories;\n\n  struct Signature {\n    uint8 v;\n    bytes32 r;\n    bytes32 s;\n  }\n\n  constructor(address[2] memory _signatories) {\n    signatories = _signatories;\n  }\n\n  function transfer(\n    address to,\n    uint256 amount,\n    Signature[2] memory signatures\n  ) external {\n\n    // Authenticity check\n    require(_verifySignature(to, amount, signatures[0]) == signatories[0], \"Access restricted\");\n    require(_verifySignature(to, amount, signatures[1]) == signatories[1], \"Access restricted\");\n\n    payable(to).sendValue(amount);\n  }\n\n  function _verifySignature(\n    address to,\n    uint256 amount,\n    Signature memory signature\n  ) internal view returns (address signer) {\n    // 52 = message byte length\n    string memory header = \"\\x19Ethereum Signed Message:\\n52\";\n\n    bytes32 messageHash = keccak256(abi.encodePacked(header, to, amount));\n\n    // Perform the elliptic curve recover operation\n    return ecrecover(messageHash, signature.v, signature.r, signature.s);\n  }\n\n  receive() external payable {}\n}",
  "sourcePath": "contracts/replay-attack-1/MultiSignatureWallet.sol",
  "type": "contract"
}