{
  "abi": [
    {
      "inputs": [
        {
          "internalType": "address[]",
          "name": "_signers",
          "type": "address[]"
        },
        {
          "internalType": "uint8",
          "name": "_requiredApprovals",
          "type": "uint8"
        }
      ],
      "stateMutability": "nonpayable",
      "type": "constructor"
    },
    {
      "inputs": [],
      "name": "requiredApprovals",
      "outputs": [
        {
          "internalType": "uint8",
          "name": "",
          "type": "uint8"
        }
      ],
      "stateMutability": "view",
      "type": "function"
    },
    {
      "inputs": [
        {
          "internalType": "uint256",
          "name": "",
          "type": "uint256"
        }
      ],
      "name": "signers",
      "outputs": [
        {
          "internalType": "address",
          "name": "",
          "type": "address"
        }
      ],
      "stateMutability": "view",
      "type": "function"
    },
    {
      "inputs": [
        {
          "internalType": "address",
          "name": "_to",
          "type": "address"
        },
        {
          "internalType": "uint256",
          "name": "_amount",
          "type": "uint256"
        }
      ],
      "name": "withdrawETH",
      "outputs": [],
      "stateMutability": "nonpayable",
      "type": "function"
    },
    {
      "inputs": [
        {
          "internalType": "address",
          "name": "",
          "type": "address"
        },
        {
          "internalType": "uint256",
          "name": "",
          "type": "uint256"
        }
      ],
      "name": "withdrawRequests",
      "outputs": [
        {
          "internalType": "uint256",
          "name": "",
          "type": "uint256"
        }
      ],
      "stateMutability": "view",
      "type": "function"
    },
    {
      "stateMutability": "payable",
      "type": "receive"
    }
  ],
  "bytecode": "608060405234801561001057600080fd5b5060405161051638038061051683398101604081905261002f916100f6565b6001805460ff191660ff831617905560005b82518110156100ab57600083828151811061005e5761005e6101cc565b60209081029190910181015182546001810184556000938452919092200180546001600160a01b0319166001600160a01b03909216919091179055806100a3816101e2565b915050610041565b505050610209565b634e487b7160e01b600052604160045260246000fd5b80516001600160a01b03811681146100e057600080fd5b919050565b805160ff811681146100e057600080fd5b6000806040838503121561010957600080fd5b82516001600160401b038082111561012057600080fd5b818501915085601f83011261013457600080fd5b8151602082821115610148576101486100b3565b8160051b604051601f19603f8301168101818110868211171561016d5761016d6100b3565b60405292835281830193508481018201928984111561018b57600080fd5b948201945b838610156101b0576101a1866100c9565b85529482019493820193610190565b96506101bf90508782016100e5565b9450505050509250929050565b634e487b7160e01b600052603260045260246000fd5b60006001820161020257634e487b7160e01b600052601160045260246000fd5b5060010190565b6102fe806102186000396000f3fe6080604052600436106100435760003560e01c80632079fb9a1461004f5780634782f7791461008c5780636d6ca319146100ae57806399c1aadc146100f457600080fd5b3661004a57005b600080fd5b34801561005b57600080fd5b5061006f61006a366004610277565b610120565b6040516001600160a01b0390911681526020015b60405180910390f35b34801561009857600080fd5b506100ac6100a7366004610290565b61014a565b005b3480156100ba57600080fd5b506100e66100c9366004610290565b600260209081526000928352604080842090915290825290205481565b604051908152602001610083565b34801561010057600080fd5b5060015461010e9060ff1681565b60405160ff9091168152602001610083565b6000818154811061013057600080fd5b6000918252602090912001546001600160a01b0316905081565b6001600160a01b038216600090815260026020908152604080832084845290915290205460015460ff168110156101bf5760405162461bcd60e51b81526020600482015260146024820152734e6f7420656e6f75676820617070726f76616c7360601b60448201526064015b60405180910390fd5b6001600160a01b03831660008181526002602090815260408083208684529091528082208290555190919084908381818185875af1925050503d8060008114610224576040519150601f19603f3d011682016040523d82523d6000602084013e610229565b606091505b50509050806102715760405162461bcd60e51b81526020600482015260146024820152734661696c656420746f2073656e6420455448203160601b60448201526064016101b6565b50505050565b60006020828403121561028957600080fd5b5035919050565b600080604083850312156102a357600080fd5b82356001600160a01b03811681146102ba57600080fd5b94602093909301359350505056fea2646970667358221220d7c20c9df9b6c036d075690fd8838c17a00866dfe945319295387c4fb404b52964736f6c63430008130033",
  "bytecodeSha1": "a5952beb0fb1f360a26fab90d502182166e85330",
  "compiler": {
    "evm_version": "istanbul",
    "optimizer": {
      "enabled": true,
      "runs": 200
    },
    "version": "0.8.19+commit.7dd6d404"
  },
  "contractName": "MultiSigSafe",
  "language": "Solidity",
  "natspec": {
    "author": "JohnnyTime (https://smartcontractshacking.com)",
    "kind": "dev",
    "methods": {},
    "title": "MultiSigSafe",
    "version": 1
  },
  "opcodes": "PUSH1 0x80 PUSH1 0x40 MSTORE PUSH1 0x4 CALLDATASIZE LT PUSH2 0x43 JUMPI PUSH1 0x0 CALLDATALOAD PUSH1 0xE0 SHR DUP1 PUSH4 0x2079FB9A EQ PUSH2 0x4F JUMPI DUP1 PUSH4 0x4782F779 EQ PUSH2 0x8C JUMPI DUP1 PUSH4 0x6D6CA319 EQ PUSH2 0xAE JUMPI DUP1 PUSH4 0x99C1AADC EQ PUSH2 0xF4 JUMPI PUSH1 0x0 DUP1 REVERT JUMPDEST CALLDATASIZE PUSH2 0x4A JUMPI STOP JUMPDEST PUSH1 0x0 DUP1 REVERT JUMPDEST CALLVALUE DUP1 ISZERO PUSH2 0x5B JUMPI PUSH1 0x0 DUP1 REVERT JUMPDEST POP PUSH2 0x6F PUSH2 0x6A CALLDATASIZE PUSH1 0x4 PUSH2 0x277 JUMP JUMPDEST PUSH2 0x120 JUMP JUMPDEST PUSH1 0x40 MLOAD PUSH1 0x1 PUSH1 0x1 PUSH1 0xA0 SHL SUB SWAP1 SWAP2 AND DUP2 MSTORE PUSH1 0x20 ADD JUMPDEST PUSH1 0x40 MLOAD DUP1 SWAP2 SUB SWAP1 RETURN JUMPDEST CALLVALUE DUP1 ISZERO PUSH2 0x98 JUMPI PUSH1 0x0 DUP1 REVERT JUMPDEST POP PUSH2 0xAC PUSH2 0xA7 CALLDATASIZE PUSH1 0x4 PUSH2 0x290 JUMP JUMPDEST PUSH2 0x14A JUMP JUMPDEST STOP JUMPDEST CALLVALUE DUP1 ISZERO PUSH2 0xBA JUMPI PUSH1 0x0 DUP1 REVERT JUMPDEST POP PUSH2 0xE6 PUSH2 0xC9 CALLDATASIZE PUSH1 0x4 PUSH2 0x290 JUMP JUMPDEST PUSH1 0x2 PUSH1 0x20 SWAP1 DUP2 MSTORE PUSH1 0x0 SWAP3 DUP4 MSTORE PUSH1 0x40 DUP1 DUP5 KECCAK256 SWAP1 SWAP2 MSTORE SWAP1 DUP3 MSTORE SWAP1 KECCAK256 SLOAD DUP2 JUMP JUMPDEST PUSH1 0x40 MLOAD SWAP1 DUP2 MSTORE PUSH1 0x20 ADD PUSH2 0x83 JUMP JUMPDEST CALLVALUE DUP1 ISZERO PUSH2 0x100 JUMPI PUSH1 0x0 DUP1 REVERT JUMPDEST POP PUSH1 0x1 SLOAD PUSH2 0x10E SWAP1 PUSH1 0xFF AND DUP2 JUMP JUMPDEST PUSH1 0x40 MLOAD PUSH1 0xFF SWAP1 SWAP2 AND DUP2 MSTORE PUSH1 0x20 ADD PUSH2 0x83 JUMP JUMPDEST PUSH1 0x0 DUP2 DUP2 SLOAD DUP2 LT PUSH2 0x130 JUMPI PUSH1 0x0 DUP1 REVERT JUMPDEST PUSH1 0x0 SWAP2 DUP3 MSTORE PUSH1 0x20 SWAP1 SWAP2 KECCAK256 ADD SLOAD PUSH1 0x1 PUSH1 0x1 PUSH1 0xA0 SHL SUB AND SWAP1 POP DUP2 JUMP JUMPDEST PUSH1 0x1 PUSH1 0x1 PUSH1 0xA0 SHL SUB DUP3 AND PUSH1 0x0 SWAP1 DUP2 MSTORE PUSH1 0x2 PUSH1 0x20 SWAP1 DUP2 MSTORE PUSH1 0x40 DUP1 DUP4 KECCAK256 DUP5 DUP5 MSTORE SWAP1 SWAP2 MSTORE SWAP1 KECCAK256 SLOAD PUSH1 0x1 SLOAD PUSH1 0xFF AND DUP2 LT ISZERO PUSH2 0x1BF JUMPI PUSH1 0x40 MLOAD PUSH3 0x461BCD PUSH1 0xE5 SHL DUP2 MSTORE PUSH1 0x20 PUSH1 0x4 DUP3 ADD MSTORE PUSH1 0x14 PUSH1 0x24 DUP3 ADD MSTORE PUSH20 0x4E6F7420656E6F75676820617070726F76616C73 PUSH1 0x60 SHL PUSH1 0x44 DUP3 ADD MSTORE PUSH1 0x64 ADD JUMPDEST PUSH1 0x40 MLOAD DUP1 SWAP2 SUB SWAP1 REVERT JUMPDEST PUSH1 0x1 PUSH1 0x1 PUSH1 0xA0 SHL SUB DUP4 AND PUSH1 0x0 DUP2 DUP2 MSTORE PUSH1 0x2 PUSH1 0x20 SWAP1 DUP2 MSTORE PUSH1 0x40 DUP1 DUP4 KECCAK256 DUP7 DUP5 MSTORE SWAP1 SWAP2 MSTORE DUP1 DUP3 KECCAK256 DUP3 SWAP1 SSTORE MLOAD SWAP1 SWAP2 SWAP1 DUP5 SWAP1 DUP4 DUP2 DUP2 DUP2 DUP6 DUP8 GAS CALL SWAP3 POP POP POP RETURNDATASIZE DUP1 PUSH1 0x0 DUP2 EQ PUSH2 0x224 JUMPI PUSH1 0x40 MLOAD SWAP2 POP PUSH1 0x1F NOT PUSH1 0x3F RETURNDATASIZE ADD AND DUP3 ADD PUSH1 0x40 MSTORE RETURNDATASIZE DUP3 MSTORE RETURNDATASIZE PUSH1 0x0 PUSH1 0x20 DUP5 ADD RETURNDATACOPY PUSH2 0x229 JUMP JUMPDEST PUSH1 0x60 SWAP2 POP JUMPDEST POP POP SWAP1 POP DUP1 PUSH2 0x271 JUMPI PUSH1 0x40 MLOAD PUSH3 0x461BCD PUSH1 0xE5 SHL DUP2 MSTORE PUSH1 0x20 PUSH1 0x4 DUP3 ADD MSTORE PUSH1 0x14 PUSH1 0x24 DUP3 ADD MSTORE PUSH20 0x4661696C656420746F2073656E64204554482031 PUSH1 0x60 SHL PUSH1 0x44 DUP3 ADD MSTORE PUSH1 0x64 ADD PUSH2 0x1B6 JUMP JUMPDEST POP POP POP POP JUMP JUMPDEST PUSH1 0x0 PUSH1 0x20 DUP3 DUP5 SUB SLT ISZERO PUSH2 0x289 JUMPI PUSH1 0x0 DUP1 REVERT JUMPDEST POP CALLDATALOAD SWAP2 SWAP1 POP JUMP JUMPDEST PUSH1 0x0 DUP1 PUSH1 0x40 DUP4 DUP6 SUB SLT ISZERO PUSH2 0x2A3 JUMPI PUSH1 0x0 DUP1 REVERT JUMPDEST DUP3 CALLDATALOAD PUSH1 0x1 PUSH1 0x1 PUSH1 0xA0 SHL SUB DUP2 AND DUP2 EQ PUSH2 0x2BA JUMPI PUSH1 0x0 DUP1 REVERT JUMPDEST SWAP5 PUSH1 0x20 SWAP4 SWAP1 SWAP4 ADD CALLDATALOAD SWAP4 POP POP POP JUMP INVALID LOG2 PUSH5 0x6970667358 0x22 SLT KECCAK256 0xD7 0xC2 0xC SWAP14 0xF9 0xB6 0xC0 CALLDATASIZE 0xD0 PUSH22 0x690FD8838C17A00866DFE945319295387C4FB404B529 PUSH5 0x736F6C6343 STOP ADDMOD SGT STOP CALLER ",
  "sha1": "62444159b3dd984b6513f329e368fcd89934c63b",
  "source": "// SCH Course Copyright Policy (C): DO-NOT-SHARE-WITH-ANYONE\n// https://smartcontractshacking.com/#copyright-policy\npragma solidity ^0.8.13;\n\n/**\n * @title MultiSigSafe\n * @author JohnnyTime (https://smartcontractshacking.com)\n */\ncontract MultiSigSafe { \n\n    address[] public signers;\n    uint8 public requiredApprovals;\n\n    // To -> Amount -> Approvals\n    mapping(address => mapping(uint256 => uint256)) public withdrawRequests;\n\n    constructor(address[] memory _signers, uint8 _requiredApprovals) {\n\n        requiredApprovals = _requiredApprovals;\n        for(uint i = 0; i < _signers.length; i++) {\n            signers.push(_signers[i]);\n        }\n    }\n    \n    function withdrawETH(address _to, uint _amount) external {\n\n        uint approvals = withdrawRequests[_to][_amount];\n        require(approvals >= requiredApprovals, \"Not enough approvals\");\n\n        withdrawRequests[_to][_amount] = 0;\n        (bool sent,) = payable(_to).call{value: _amount}(\"\");\n        require(sent, \"Failed to send ETH 1\");\n    }\n\n    receive() external payable{}\n}",
  "sourcePath": "contracts/unchecked-returns-1/MultiSigSafe.sol",
  "type": "contract"
}