{
  "abi": [
    {
      "inputs": [],
      "stateMutability": "nonpayable",
      "type": "constructor"
    },
    {
      "inputs": [],
      "name": "InvalidFee",
      "type": "error"
    },
    {
      "inputs": [],
      "name": "NotVault",
      "type": "error"
    },
    {
      "anonymous": false,
      "inputs": [
        {
          "indexed": true,
          "internalType": "address",
          "name": "previousOwner",
          "type": "address"
        },
        {
          "indexed": true,
          "internalType": "address",
          "name": "newOwner",
          "type": "address"
        }
      ],
      "name": "OwnershipTransferred",
      "type": "event"
    },
    {
      "inputs": [],
      "name": "harvestFee",
      "outputs": [
        {
          "internalType": "uint256",
          "name": "",
          "type": "uint256"
        }
      ],
      "stateMutability": "view",
      "type": "function"
    },
    {
      "inputs": [],
      "name": "owner",
      "outputs": [
        {
          "internalType": "address",
          "name": "",
          "type": "address"
        }
      ],
      "stateMutability": "view",
      "type": "function"
    },
    {
      "inputs": [],
      "name": "renounceOwnership",
      "outputs": [],
      "stateMutability": "nonpayable",
      "type": "function"
    },
    {
      "inputs": [
        {
          "internalType": "uint256",
          "name": "_newFee",
          "type": "uint256"
        }
      ],
      "name": "setHarvestFee",
      "outputs": [],
      "stateMutability": "nonpayable",
      "type": "function"
    },
    {
      "inputs": [
        {
          "internalType": "address",
          "name": "_vault",
          "type": "address"
        }
      ],
      "name": "setVault",
      "outputs": [],
      "stateMutability": "nonpayable",
      "type": "function"
    },
    {
      "inputs": [
        {
          "internalType": "uint256",
          "name": "_newFee",
          "type": "uint256"
        }
      ],
      "name": "setWithdrawalFee",
      "outputs": [],
      "stateMutability": "nonpayable",
      "type": "function"
    },
    {
      "inputs": [
        {
          "internalType": "address",
          "name": "newOwner",
          "type": "address"
        }
      ],
      "name": "transferOwnership",
      "outputs": [],
      "stateMutability": "nonpayable",
      "type": "function"
    },
    {
      "inputs": [],
      "name": "vault",
      "outputs": [
        {
          "internalType": "address",
          "name": "",
          "type": "address"
        }
      ],
      "stateMutability": "view",
      "type": "function"
    },
    {
      "inputs": [],
      "name": "withdrawalFee",
      "outputs": [
        {
          "internalType": "uint256",
          "name": "",
          "type": "uint256"
        }
      ],
      "stateMutability": "view",
      "type": "function"
    }
  ],
  "bytecode": "608060405234801561001057600080fd5b5061001a33610029565b600f600255600a600355610079565b600080546001600160a01b038381166001600160a01b0319831681178455604051919092169283917f8be0079c531659141344cd1fd0a4f28419497f9722a3daafe3b4186f6b6457e09190a35050565b61038e806100886000396000f3fe608060405234801561001057600080fd5b50600436106100935760003560e01c80638da5cb5b116100665780638da5cb5b146100e4578063ac1e502514610109578063b59629171461011c578063f2fde38b14610125578063fbfa77cf1461013857600080fd5b80636817031b14610098578063715018a6146100ad578063792b55b6146100b55780638bc7e8c4146100c8575b600080fd5b6100ab6100a636600461030f565b61014b565b005b6100ab610175565b6100ab6100c336600461033f565b610189565b6100d160035481565b6040519081526020015b60405180910390f35b6000546001600160a01b03165b6040516001600160a01b0390911681526020016100db565b6100ab61011736600461033f565b6101b8565b6100d160025481565b6100ab61013336600461030f565b6101e7565b6001546100f1906001600160a01b031681565b610153610265565b600180546001600160a01b0319166001600160a01b0392909216919091179055565b61017d610265565b61018760006102bf565b565b610191610265565b601e8111156101b3576040516358d620b360e01b815260040160405180910390fd5b600255565b6101c0610265565b60148111156101e2576040516358d620b360e01b815260040160405180910390fd5b600355565b6101ef610265565b6001600160a01b0381166102595760405162461bcd60e51b815260206004820152602660248201527f4f776e61626c653a206e6577206f776e657220697320746865207a65726f206160448201526564647265737360d01b60648201526084015b60405180910390fd5b610262816102bf565b50565b6000546001600160a01b031633146101875760405162461bcd60e51b815260206004820181905260248201527f4f776e61626c653a2063616c6c6572206973206e6f7420746865206f776e65726044820152606401610250565b600080546001600160a01b038381166001600160a01b0319831681178455604051919092169283917f8be0079c531659141344cd1fd0a4f28419497f9722a3daafe3b4186f6b6457e09190a35050565b60006020828403121561032157600080fd5b81356001600160a01b038116811461033857600080fd5b9392505050565b60006020828403121561035157600080fd5b503591905056fea26469706673582212204cbfb5de4dedf99a903b85766e80c12329beca0be098378543b12fd0cfe3806864736f6c63430008130033",
  "bytecodeSha1": "581ef79c525832ca217bd84ab46c13022ec155ee",
  "compiler": {
    "evm_version": "istanbul",
    "optimizer": {
      "enabled": true,
      "runs": 200
    },
    "version": "0.8.19+commit.7dd6d404"
  },
  "contractName": "OptimizerStrategyManager",
  "language": "Solidity",
  "natspec": {
    "kind": "dev",
    "methods": {
      "constructor": {
        "details": "Initializes a base strategy."
      },
      "owner()": {
        "details": "Returns the address of the current owner."
      },
      "renounceOwnership()": {
        "details": "Leaves the contract without owner. It will not be possible to call `onlyOwner` functions anymore. Can only be called by the current owner. NOTE: Renouncing ownership will leave the contract without an owner, thereby removing any functionality that is only available to the owner."
      },
      "setHarvestFee(uint256)": {
        "details": "Updates the harvest fee.",
        "params": {
          "_newFee": "new fee amount."
        }
      },
      "setVault(address)": {
        "details": "Updates parent vault.",
        "params": {
          "_vault": "new vault address."
        }
      },
      "setWithdrawalFee(uint256)": {
        "details": "Updates the withdrawal fee.",
        "params": {
          "_newFee": "new fee amount."
        }
      },
      "transferOwnership(address)": {
        "details": "Transfers ownership of the contract to a new account (`newOwner`). Can only be called by the current owner."
      }
    },
    "version": 1
  },
  "opcodes": "PUSH1 0x80 PUSH1 0x40 MSTORE CALLVALUE DUP1 ISZERO PUSH2 0x10 JUMPI PUSH1 0x0 DUP1 REVERT JUMPDEST POP PUSH1 0x4 CALLDATASIZE LT PUSH2 0x93 JUMPI PUSH1 0x0 CALLDATALOAD PUSH1 0xE0 SHR DUP1 PUSH4 0x8DA5CB5B GT PUSH2 0x66 JUMPI DUP1 PUSH4 0x8DA5CB5B EQ PUSH2 0xE4 JUMPI DUP1 PUSH4 0xAC1E5025 EQ PUSH2 0x109 JUMPI DUP1 PUSH4 0xB5962917 EQ PUSH2 0x11C JUMPI DUP1 PUSH4 0xF2FDE38B EQ PUSH2 0x125 JUMPI DUP1 PUSH4 0xFBFA77CF EQ PUSH2 0x138 JUMPI PUSH1 0x0 DUP1 REVERT JUMPDEST DUP1 PUSH4 0x6817031B EQ PUSH2 0x98 JUMPI DUP1 PUSH4 0x715018A6 EQ PUSH2 0xAD JUMPI DUP1 PUSH4 0x792B55B6 EQ PUSH2 0xB5 JUMPI DUP1 PUSH4 0x8BC7E8C4 EQ PUSH2 0xC8 JUMPI JUMPDEST PUSH1 0x0 DUP1 REVERT JUMPDEST PUSH2 0xAB PUSH2 0xA6 CALLDATASIZE PUSH1 0x4 PUSH2 0x30F JUMP JUMPDEST PUSH2 0x14B JUMP JUMPDEST STOP JUMPDEST PUSH2 0xAB PUSH2 0x175 JUMP JUMPDEST PUSH2 0xAB PUSH2 0xC3 CALLDATASIZE PUSH1 0x4 PUSH2 0x33F JUMP JUMPDEST PUSH2 0x189 JUMP JUMPDEST PUSH2 0xD1 PUSH1 0x3 SLOAD DUP2 JUMP JUMPDEST PUSH1 0x40 MLOAD SWAP1 DUP2 MSTORE PUSH1 0x20 ADD JUMPDEST PUSH1 0x40 MLOAD DUP1 SWAP2 SUB SWAP1 RETURN JUMPDEST PUSH1 0x0 SLOAD PUSH1 0x1 PUSH1 0x1 PUSH1 0xA0 SHL SUB AND JUMPDEST PUSH1 0x40 MLOAD PUSH1 0x1 PUSH1 0x1 PUSH1 0xA0 SHL SUB SWAP1 SWAP2 AND DUP2 MSTORE PUSH1 0x20 ADD PUSH2 0xDB JUMP JUMPDEST PUSH2 0xAB PUSH2 0x117 CALLDATASIZE PUSH1 0x4 PUSH2 0x33F JUMP JUMPDEST PUSH2 0x1B8 JUMP JUMPDEST PUSH2 0xD1 PUSH1 0x2 SLOAD DUP2 JUMP JUMPDEST PUSH2 0xAB PUSH2 0x133 CALLDATASIZE PUSH1 0x4 PUSH2 0x30F JUMP JUMPDEST PUSH2 0x1E7 JUMP JUMPDEST PUSH1 0x1 SLOAD PUSH2 0xF1 SWAP1 PUSH1 0x1 PUSH1 0x1 PUSH1 0xA0 SHL SUB AND DUP2 JUMP JUMPDEST PUSH2 0x153 PUSH2 0x265 JUMP JUMPDEST PUSH1 0x1 DUP1 SLOAD PUSH1 0x1 PUSH1 0x1 PUSH1 0xA0 SHL SUB NOT AND PUSH1 0x1 PUSH1 0x1 PUSH1 0xA0 SHL SUB SWAP3 SWAP1 SWAP3 AND SWAP2 SWAP1 SWAP2 OR SWAP1 SSTORE JUMP JUMPDEST PUSH2 0x17D PUSH2 0x265 JUMP JUMPDEST PUSH2 0x187 PUSH1 0x0 PUSH2 0x2BF JUMP JUMPDEST JUMP JUMPDEST PUSH2 0x191 PUSH2 0x265 JUMP JUMPDEST PUSH1 0x1E DUP2 GT ISZERO PUSH2 0x1B3 JUMPI PUSH1 0x40 MLOAD PUSH4 0x58D620B3 PUSH1 0xE0 SHL DUP2 MSTORE PUSH1 0x4 ADD PUSH1 0x40 MLOAD DUP1 SWAP2 SUB SWAP1 REVERT JUMPDEST PUSH1 0x2 SSTORE JUMP JUMPDEST PUSH2 0x1C0 PUSH2 0x265 JUMP JUMPDEST PUSH1 0x14 DUP2 GT ISZERO PUSH2 0x1E2 JUMPI PUSH1 0x40 MLOAD PUSH4 0x58D620B3 PUSH1 0xE0 SHL DUP2 MSTORE PUSH1 0x4 ADD PUSH1 0x40 MLOAD DUP1 SWAP2 SUB SWAP1 REVERT JUMPDEST PUSH1 0x3 SSTORE JUMP JUMPDEST PUSH2 0x1EF PUSH2 0x265 JUMP JUMPDEST PUSH1 0x1 PUSH1 0x1 PUSH1 0xA0 SHL SUB DUP2 AND PUSH2 0x259 JUMPI PUSH1 0x40 MLOAD PUSH3 0x461BCD PUSH1 0xE5 SHL DUP2 MSTORE PUSH1 0x20 PUSH1 0x4 DUP3 ADD MSTORE PUSH1 0x26 PUSH1 0x24 DUP3 ADD MSTORE PUSH32 0x4F776E61626C653A206E6577206F776E657220697320746865207A65726F2061 PUSH1 0x44 DUP3 ADD MSTORE PUSH6 0x646472657373 PUSH1 0xD0 SHL PUSH1 0x64 DUP3 ADD MSTORE PUSH1 0x84 ADD JUMPDEST PUSH1 0x40 MLOAD DUP1 SWAP2 SUB SWAP1 REVERT JUMPDEST PUSH2 0x262 DUP2 PUSH2 0x2BF JUMP JUMPDEST POP JUMP JUMPDEST PUSH1 0x0 SLOAD PUSH1 0x1 PUSH1 0x1 PUSH1 0xA0 SHL SUB AND CALLER EQ PUSH2 0x187 JUMPI PUSH1 0x40 MLOAD PUSH3 0x461BCD PUSH1 0xE5 SHL DUP2 MSTORE PUSH1 0x20 PUSH1 0x4 DUP3 ADD DUP2 SWAP1 MSTORE PUSH1 0x24 DUP3 ADD MSTORE PUSH32 0x4F776E61626C653A2063616C6C6572206973206E6F7420746865206F776E6572 PUSH1 0x44 DUP3 ADD MSTORE PUSH1 0x64 ADD PUSH2 0x250 JUMP JUMPDEST PUSH1 0x0 DUP1 SLOAD PUSH1 0x1 PUSH1 0x1 PUSH1 0xA0 SHL SUB DUP4 DUP2 AND PUSH1 0x1 PUSH1 0x1 PUSH1 0xA0 SHL SUB NOT DUP4 AND DUP2 OR DUP5 SSTORE PUSH1 0x40 MLOAD SWAP2 SWAP1 SWAP3 AND SWAP3 DUP4 SWAP2 PUSH32 0x8BE0079C531659141344CD1FD0A4F28419497F9722A3DAAFE3B4186F6B6457E0 SWAP2 SWAP1 LOG3 POP POP JUMP JUMPDEST PUSH1 0x0 PUSH1 0x20 DUP3 DUP5 SUB SLT ISZERO PUSH2 0x321 JUMPI PUSH1 0x0 DUP1 REVERT JUMPDEST DUP2 CALLDATALOAD PUSH1 0x1 PUSH1 0x1 PUSH1 0xA0 SHL SUB DUP2 AND DUP2 EQ PUSH2 0x338 JUMPI PUSH1 0x0 DUP1 REVERT JUMPDEST SWAP4 SWAP3 POP POP POP JUMP JUMPDEST PUSH1 0x0 PUSH1 0x20 DUP3 DUP5 SUB SLT ISZERO PUSH2 0x351 JUMPI PUSH1 0x0 DUP1 REVERT JUMPDEST POP CALLDATALOAD SWAP2 SWAP1 POP JUMP INVALID LOG2 PUSH5 0x6970667358 0x22 SLT KECCAK256 0x4C 0xBF 0xB5 0xDE 0x4D 0xED 0xF9 SWAP11 SWAP1 EXTCODESIZE DUP6 PUSH23 0x6E80C12329BECA0BE098378543B12FD0CFE3806864736F PUSH13 0x63430008130033000000000000 ",
  "sha1": "32f83ab369412ca428d75e4fbf520559c0735af1",
  "source": "// SCH Course Copyright Policy (C): DO-NOT-SHARE-WITH-ANYONE\n// https://smartcontractshacking.com/#copyright-policy\npragma solidity ^0.8.13;\n\nimport \"@openzeppelin/contracts/access/Ownable.sol\";\n\ncontract OptimizerStrategyManager is Ownable {\n\n    uint256 constant FEE_DIVISOR = 1000;\n    uint256 constant HARVEST_FEE_CAP = 30; // 3% cap on the harvest fee\n    uint256 constant WITHDRAWAL_FEE_CAP = 20; // 2% cap on the withdrawal fee\n\n    // The currently appointed vault for this strategy\n    address public vault;\n    uint256 public harvestFee;\n    uint256 public withdrawalFee;\n\n    error NotVault();\n    error InvalidFee();\n\n    /**\n     * @dev Initializes a base strategy.\n     */\n    constructor() public {\n        harvestFee = 15; // Initial fee of 1.5%\n        withdrawalFee = 10; // Initial fee of 1%\n    }\n\n    // checks that caller is the appointed vault contract.\n    modifier onlyVault() {\n        if (msg.sender != vault) revert NotVault();\n        _;\n    }\n\n    /**\n     * @dev Updates parent vault.\n     * @param _vault new vault address.\n     */\n    function setVault(address _vault) external onlyOwner {\n        vault = _vault;\n    }\n\n    /**\n     * @dev Updates the harvest fee.\n     * @param _newFee new fee amount.\n     */\n    function setHarvestFee(uint256 _newFee) external onlyOwner {\n        if (_newFee > HARVEST_FEE_CAP) revert InvalidFee();\n        harvestFee = _newFee;\n    }\n\n    /**\n     * @dev Updates the withdrawal fee.\n     * @param _newFee new fee amount.\n     */\n    function setWithdrawalFee(uint256 _newFee) external onlyOwner {\n        if (_newFee > WITHDRAWAL_FEE_CAP) revert InvalidFee();\n        withdrawalFee = _newFee;\n    }\n    \n}",
  "sourcePath": "contracts/optimizer-vaults-1/OptimizerStrategyManager.sol",
  "type": "contract"
}