{
  "abi": [
    {
      "inputs": [],
      "stateMutability": "payable",
      "type": "constructor"
    },
    {
      "inputs": [
        {
          "internalType": "uint256",
          "name": "amount",
          "type": "uint256"
        }
      ],
      "name": "flashLoan",
      "outputs": [],
      "stateMutability": "nonpayable",
      "type": "function"
    },
    {
      "stateMutability": "payable",
      "type": "receive"
    }
  ],
  "bytecode": "608060405261018e806100136000396000f3fe6080604052600436106100225760003560e01c80639ab603b91461002e57600080fd5b3661002957005b600080fd5b34801561003a57600080fd5b5061004e61004936600461013f565b610050565b005b478181101561009d5760405162461bcd60e51b81526020600482015260146024820152736e6f7420656e6f756768206c697175696469747960601b60448201526064015b60405180910390fd5b336001600160a01b03166314f6c3be836040518263ffffffff1660e01b81526004016000604051808303818588803b1580156100d857600080fd5b505af11580156100ec573d6000803e3d6000fd5b504793505050508181101561013a5760405162461bcd60e51b8152602060048201526014602482015273455448207761736e27742070616964206261636b60601b6044820152606401610094565b505050565b60006020828403121561015157600080fd5b503591905056fea2646970667358221220a16c5d7fcdca9eab694657630504d04a5c2ad9d8d3111c1a246fded6001ccfd664736f6c63430008130033",
  "bytecodeSha1": "1f42b0696ea60b8d04e2ac97d56f68390ce870c1",
  "compiler": {
    "evm_version": "istanbul",
    "optimizer": {
      "enabled": true,
      "runs": 200
    },
    "version": "0.8.19+commit.7dd6d404"
  },
  "contractName": "Pool2",
  "language": "Solidity",
  "natspec": {
    "author": "JohnnyTime (https://smartcontractshacking.com)",
    "kind": "dev",
    "methods": {},
    "title": "Pool",
    "version": 1
  },
  "opcodes": "PUSH1 0x80 PUSH1 0x40 MSTORE PUSH1 0x4 CALLDATASIZE LT PUSH2 0x22 JUMPI PUSH1 0x0 CALLDATALOAD PUSH1 0xE0 SHR DUP1 PUSH4 0x9AB603B9 EQ PUSH2 0x2E JUMPI PUSH1 0x0 DUP1 REVERT JUMPDEST CALLDATASIZE PUSH2 0x29 JUMPI STOP JUMPDEST PUSH1 0x0 DUP1 REVERT JUMPDEST CALLVALUE DUP1 ISZERO PUSH2 0x3A JUMPI PUSH1 0x0 DUP1 REVERT JUMPDEST POP PUSH2 0x4E PUSH2 0x49 CALLDATASIZE PUSH1 0x4 PUSH2 0x13F JUMP JUMPDEST PUSH2 0x50 JUMP JUMPDEST STOP JUMPDEST SELFBALANCE DUP2 DUP2 LT ISZERO PUSH2 0x9D JUMPI PUSH1 0x40 MLOAD PUSH3 0x461BCD PUSH1 0xE5 SHL DUP2 MSTORE PUSH1 0x20 PUSH1 0x4 DUP3 ADD MSTORE PUSH1 0x14 PUSH1 0x24 DUP3 ADD MSTORE PUSH20 0x6E6F7420656E6F756768206C6971756964697479 PUSH1 0x60 SHL PUSH1 0x44 DUP3 ADD MSTORE PUSH1 0x64 ADD JUMPDEST PUSH1 0x40 MLOAD DUP1 SWAP2 SUB SWAP1 REVERT JUMPDEST CALLER PUSH1 0x1 PUSH1 0x1 PUSH1 0xA0 SHL SUB AND PUSH4 0x14F6C3BE DUP4 PUSH1 0x40 MLOAD DUP3 PUSH4 0xFFFFFFFF AND PUSH1 0xE0 SHL DUP2 MSTORE PUSH1 0x4 ADD PUSH1 0x0 PUSH1 0x40 MLOAD DUP1 DUP4 SUB DUP2 DUP6 DUP9 DUP1 EXTCODESIZE ISZERO DUP1 ISZERO PUSH2 0xD8 JUMPI PUSH1 0x0 DUP1 REVERT JUMPDEST POP GAS CALL ISZERO DUP1 ISZERO PUSH2 0xEC JUMPI RETURNDATASIZE PUSH1 0x0 DUP1 RETURNDATACOPY RETURNDATASIZE PUSH1 0x0 REVERT JUMPDEST POP SELFBALANCE SWAP4 POP POP POP POP DUP2 DUP2 LT ISZERO PUSH2 0x13A JUMPI PUSH1 0x40 MLOAD PUSH3 0x461BCD PUSH1 0xE5 SHL DUP2 MSTORE PUSH1 0x20 PUSH1 0x4 DUP3 ADD MSTORE PUSH1 0x14 PUSH1 0x24 DUP3 ADD MSTORE PUSH20 0x455448207761736E27742070616964206261636B PUSH1 0x60 SHL PUSH1 0x44 DUP3 ADD MSTORE PUSH1 0x64 ADD PUSH2 0x94 JUMP JUMPDEST POP POP POP JUMP JUMPDEST PUSH1 0x0 PUSH1 0x20 DUP3 DUP5 SUB SLT ISZERO PUSH2 0x151 JUMPI PUSH1 0x0 DUP1 REVERT JUMPDEST POP CALLDATALOAD SWAP2 SWAP1 POP JUMP INVALID LOG2 PUSH5 0x6970667358 0x22 SLT KECCAK256 LOG1 PUSH13 0x5D7FCDCA9EAB694657630504D0 0x4A 0x5C 0x2A 0xD9 0xD8 0xD3 GT SHR BYTE 0x24 PUSH16 0xDED6001CCFD664736F6C634300081300 CALLER ",
  "sha1": "9c6da2ecc94b45ffbd2c1fbd4b0d0d681f4d094d",
  "source": "// SCH Course Copyright Policy (C): DO-NOT-SHARE-WITH-ANYONE\n// https://smartcontractshacking.com/#copyright-policy\npragma solidity ^0.8.13;\n\ninterface IReceiver {\n    function getETH() external payable;\n}\n\n/**\n * @title Pool\n * @author JohnnyTime (https://smartcontractshacking.com)\n */\ncontract Pool2 {\n    \n    constructor() payable {}\n\n    // TODO: Complete this function\n    function flashLoan(uint256 amount) external {\n\n        uint256 poolBalance = address(this).balance;\n        require(poolBalance >= amount, \"not enough liquidity\");\n\n        IReceiver(msg.sender).getETH{value: amount}();\n\n        uint256 balanceAfterCallback = address(this).balance;\n        require(balanceAfterCallback >= poolBalance, \"ETH wasn't paid back\");\n    }\n\n    receive() external payable {}\n}\n",
  "sourcePath": "contracts/flash-loans-1/Pool.sol",
  "type": "contract"
}