{
  "abi": [
    {
      "inputs": [],
      "stateMutability": "nonpayable",
      "type": "constructor"
    },
    {
      "anonymous": false,
      "inputs": [
        {
          "indexed": true,
          "internalType": "address",
          "name": "previousOwner",
          "type": "address"
        },
        {
          "indexed": true,
          "internalType": "address",
          "name": "newOwner",
          "type": "address"
        }
      ],
      "name": "OwnershipTransferred",
      "type": "event"
    },
    {
      "inputs": [],
      "name": "INITAL_SHARE_PRICE",
      "outputs": [
        {
          "internalType": "uint256",
          "name": "",
          "type": "uint256"
        }
      ],
      "stateMutability": "view",
      "type": "function"
    },
    {
      "inputs": [],
      "name": "SHARE_PRICE_TYPEHASH",
      "outputs": [
        {
          "internalType": "bytes32",
          "name": "",
          "type": "bytes32"
        }
      ],
      "stateMutability": "view",
      "type": "function"
    },
    {
      "inputs": [],
      "name": "buy",
      "outputs": [],
      "stateMutability": "payable",
      "type": "function"
    },
    {
      "inputs": [
        {
          "components": [
            {
              "internalType": "uint256",
              "name": "expires",
              "type": "uint256"
            },
            {
              "internalType": "uint256",
              "name": "price",
              "type": "uint256"
            }
          ],
          "internalType": "struct RealtySaleEIP712.SharePrice",
          "name": "sharePrice",
          "type": "tuple"
        },
        {
          "components": [
            {
              "internalType": "uint8",
              "name": "v",
              "type": "uint8"
            },
            {
              "internalType": "bytes32",
              "name": "r",
              "type": "bytes32"
            },
            {
              "internalType": "bytes32",
              "name": "s",
              "type": "bytes32"
            }
          ],
          "internalType": "struct RealtySaleEIP712.Signature",
          "name": "signature",
          "type": "tuple"
        }
      ],
      "name": "buyWithOracle",
      "outputs": [],
      "stateMutability": "payable",
      "type": "function"
    },
    {
      "inputs": [],
      "name": "getTokenContract",
      "outputs": [
        {
          "internalType": "address",
          "name": "token",
          "type": "address"
        }
      ],
      "stateMutability": "view",
      "type": "function"
    },
    {
      "inputs": [],
      "name": "owner",
      "outputs": [
        {
          "internalType": "address",
          "name": "",
          "type": "address"
        }
      ],
      "stateMutability": "view",
      "type": "function"
    },
    {
      "inputs": [],
      "name": "renounceOwnership",
      "outputs": [],
      "stateMutability": "nonpayable",
      "type": "function"
    },
    {
      "inputs": [
        {
          "internalType": "address",
          "name": "_oracle",
          "type": "address"
        }
      ],
      "name": "setOracle",
      "outputs": [],
      "stateMutability": "nonpayable",
      "type": "function"
    },
    {
      "inputs": [],
      "name": "shareToken",
      "outputs": [
        {
          "internalType": "contract RealtyToken",
          "name": "",
          "type": "address"
        }
      ],
      "stateMutability": "view",
      "type": "function"
    },
    {
      "inputs": [
        {
          "internalType": "address",
          "name": "newOwner",
          "type": "address"
        }
      ],
      "name": "transferOwnership",
      "outputs": [],
      "stateMutability": "nonpayable",
      "type": "function"
    },
    {
      "inputs": [],
      "name": "withdraw",
      "outputs": [],
      "stateMutability": "nonpayable",
      "type": "function"
    }
  ],
  "bytecode": "61016060405234801561001157600080fd5b506040518060400160405280600a8152602001695265616c747953616c6560b01b81525060405180604001604052806003815260200162302e3160e81b81525061006761006261013460201b60201c565b610138565b815160208084019190912082518383012060e08290526101008190524660a0818152604080517f8b73c3c69bb8fe3d512ecc4cf759cc79239f7b179b0ffacaa9a75d522b39400f81880181905281830187905260608201869052608082019490945230818401528151808203909301835260c00190528051940193909320919290916080523060c05261012052505060405161010592509050610188565b604051809103906000f080158015610121573d6000803e3d6000fd5b506001600160a01b031661014052610195565b3390565b600080546001600160a01b038381166001600160a01b0319831681178455604051919092169283917f8be0079c531659141344cd1fd0a4f28419497f9722a3daafe3b4186f6b6457e09190a35050565b6117e980610b8883390190565b60805160a05160c05160e05161010051610120516101405161098c6101fc6000396000818160c50152818161016b0152610506015260006107c401526000610813015260006107ee01526000610747015260006107710152600061079b015261098c6000f3fe60806040526004361061009c5760003560e01c8063715018a611610064578063715018a61461018d5780637adbf973146101a25780638da5cb5b146101c2578063a6f2ae3a146101e0578063e7c4c895146101e8578063f2fde38b1461020457600080fd5b80632824b7c6146100a157806328b7bede146100b65780633ccfd60b14610102578063487aaf6e146101175780636c9fa59e14610159575b600080fd5b6100b46100af366004610861565b610224565b005b3480156100c257600080fd5b507f00000000000000000000000000000000000000000000000000000000000000005b6040516001600160a01b0390911681526020015b60405180910390f35b34801561010e57600080fd5b506100b4610240565b34801561012357600080fd5b5061014b7fb25318ee69db96f9b49d9c895b04d14d31758ba305abbeccc4ec4d31875fba0381565b6040519081526020016100f9565b34801561016557600080fd5b506100e57f000000000000000000000000000000000000000000000000000000000000000081565b34801561019957600080fd5b506100b46102fa565b3480156101ae57600080fd5b506100b46101bd3660046108a6565b61030e565b3480156101ce57600080fd5b506000546001600160a01b03166100e5565b6100b4610338565b3480156101f457600080fd5b5061014b670de0b6b3a764000081565b34801561021057600080fd5b506100b461021f3660046108a6565b61034a565b61022e82826103c3565b61023c3383602001356104a7565b5050565b610248610566565b60008061025d6000546001600160a01b031690565b6001600160a01b03164760405160006040518083038185875af1925050503d80600081146102a7576040519150601f19603f3d011682016040523d82523d6000602084013e6102ac565b606091505b50915091508161023c5760405162461bcd60e51b81526020600482015260146024820152732330b4b632b2103a379039b2b7321022ba3432b960611b60448201526064015b60405180910390fd5b610302610566565b61030c60006105c0565b565b610316610566565b600180546001600160a01b0319166001600160a01b0392909216919091179055565b61030c33670de0b6b3a76400006104a7565b610352610566565b6001600160a01b0381166103b75760405162461bcd60e51b815260206004820152602660248201527f4f776e61626c653a206e6577206f776e657220697320746865207a65726f206160448201526564647265737360d01b60648201526084016102f1565b6103c0816105c0565b50565b428235116104045760405162461bcd60e51b815260206004820152600e60248201526d707269636520746f6f206f6c642160901b60448201526064016102f1565b600061041d610418368590038501856108d6565b610610565b90506000610441826104326020860186610933565b85602001358660400135610684565b6001549091506001600160a01b038083169116146104a15760405162461bcd60e51b815260206004820152601b60248201527f4f6e6c79206f7261636c652063616e207369676e20707269636573000000000060448201526064016102f1565b50505050565b8034146104e75760405162461bcd60e51b815260206004820152600e60248201526d0dcdee840cadcdeeaced0408aa8960931b60448201526064016102f1565b6040516335313c2160e11b81526001600160a01b0383811660048301527f00000000000000000000000000000000000000000000000000000000000000001690636a62784290602401600060405180830381600087803b15801561054a57600080fd5b505af115801561055e573d6000803e3d6000fd5b505050505050565b6000546001600160a01b0316331461030c5760405162461bcd60e51b815260206004820181905260248201527f4f776e61626c653a2063616c6c6572206973206e6f7420746865206f776e657260448201526064016102f1565b600080546001600160a01b038381166001600160a01b0319831681178455604051919092169283917f8be0079c531659141344cd1fd0a4f28419497f9722a3daafe3b4186f6b6457e09190a35050565b600061067e7fb25318ee69db96f9b49d9c895b04d14d31758ba305abbeccc4ec4d31875fba0383600001518460200151604051602001610663939291909283526020830191909152604082015260600190565b604051602081830303815290604052805190602001206106ec565b92915050565b6040805160008082526020820180845287905260ff861692820192909252606081018490526080810183905260019060a0016020604051602081039080840390855afa1580156106d8573d6000803e3d6000fd5b5050604051601f1901519695505050505050565b600061067e6106f961073a565b8360405161190160f01b6020820152602281018390526042810182905260009060620160405160208183030381529060405280519060200120905092915050565b6000306001600160a01b037f00000000000000000000000000000000000000000000000000000000000000001614801561079357507f000000000000000000000000000000000000000000000000000000000000000046145b156107bd57507f000000000000000000000000000000000000000000000000000000000000000090565b50604080517f00000000000000000000000000000000000000000000000000000000000000006020808301919091527f0000000000000000000000000000000000000000000000000000000000000000828401527f000000000000000000000000000000000000000000000000000000000000000060608301524660808301523060a0808401919091528351808403909101815260c0909201909252805191012090565b60008082840360a081121561087557600080fd5b604081121561088357600080fd5b8392506060603f198201121561089857600080fd5b506040830190509250929050565b6000602082840312156108b857600080fd5b81356001600160a01b03811681146108cf57600080fd5b9392505050565b6000604082840312156108e857600080fd5b6040516040810181811067ffffffffffffffff8211171561091957634e487b7160e01b600052604160045260246000fd5b604052823581526020928301359281019290925250919050565b60006020828403121561094557600080fd5b813560ff811681146108cf57600080fdfea264697066735822122001922e4ea4b071890bf17b5f51b9a010400cadf2f856c51baace162ae9419c2664736f6c634300080d00336080604052600060075560646008553480156200001b57600080fd5b506040518060400160405280600c81526020016b2932b0b63a3c902a37b5b2b760a11b81525060405180604001604052806004815260200163524c545960e01b8152506200007862000072620000ac60201b60201c565b620000b0565b81516200008d90600190602085019062000100565b508051620000a390600290602084019062000100565b505050620001e2565b3390565b600080546001600160a01b038381166001600160a01b0319831681178455604051919092169283917f8be0079c531659141344cd1fd0a4f28419497f9722a3daafe3b4186f6b6457e09190a35050565b8280546200010e90620001a6565b90600052602060002090601f0160209004810192826200013257600085556200017d565b82601f106200014d57805160ff19168380011785556200017d565b828001600101855582156200017d579182015b828111156200017d57825182559160200191906001019062000160565b506200018b9291506200018f565b5090565b5b808211156200018b576000815560010162000190565b600181811c90821680620001bb57607f821691505b602082108103620001dc57634e487b7160e01b600052602260045260246000fd5b50919050565b6115f780620001f26000396000f3fe608060405234801561001057600080fd5b50600436106101215760003560e01c806370a08231116100ad578063b88d4fde11610071578063b88d4fde1461024d578063c87b56dd14610260578063d5abeb0114610273578063e985e9c51461027c578063f2fde38b146102b857600080fd5b806370a0823114610206578063715018a6146102195780638da5cb5b1461022157806395d89b4114610232578063a22cb4651461023a57600080fd5b806323b872dd116100f457806323b872dd146101a35780633521bd7e146101b657806342842e0e146101cd5780636352211e146101e05780636a627842146101f357600080fd5b806301ffc9a71461012657806306fdde031461014e578063081812fc14610163578063095ea7b31461018e575b600080fd5b610139610134366004611136565b6102cb565b60405190151581526020015b60405180910390f35b61015661031d565b60405161014591906111ab565b6101766101713660046111be565b6103af565b6040516001600160a01b039091168152602001610145565b6101a161019c3660046111f3565b6103d6565b005b6101a16101b136600461121d565b6104f0565b6101bf60075481565b604051908152602001610145565b6101a16101db36600461121d565b610521565b6101766101ee3660046111be565b61053c565b6101a1610201366004611259565b61059c565b6101bf610214366004611259565b610605565b6101a161068b565b6000546001600160a01b0316610176565b61015661069f565b6101a1610248366004611274565b6106ae565b6101a161025b3660046112c6565b6106b9565b61015661026e3660046111be565b6106f1565b6101bf60085481565b61013961028a3660046113a2565b6001600160a01b03918216600090815260066020908152604080832093909416825291909152205460ff1690565b6101a16102c6366004611259565b610765565b60006001600160e01b031982166380ac58cd60e01b14806102fc57506001600160e01b03198216635b5e139f60e01b145b8061031757506301ffc9a760e01b6001600160e01b03198316145b92915050565b60606001805461032c906113d5565b80601f0160208091040260200160405190810160405280929190818152602001828054610358906113d5565b80156103a55780601f1061037a576101008083540402835291602001916103a5565b820191906000526020600020905b81548152906001019060200180831161038857829003601f168201915b5050505050905090565b60006103ba826107de565b506000908152600560205260409020546001600160a01b031690565b60006103e18261053c565b9050806001600160a01b0316836001600160a01b0316036104535760405162461bcd60e51b815260206004820152602160248201527f4552433732313a20617070726f76616c20746f2063757272656e74206f776e656044820152603960f91b60648201526084015b60405180910390fd5b336001600160a01b038216148061046f575061046f813361028a565b6104e15760405162461bcd60e51b815260206004820152603d60248201527f4552433732313a20617070726f76652063616c6c6572206973206e6f7420746f60448201527f6b656e206f776e6572206f7220617070726f76656420666f7220616c6c000000606482015260840161044a565b6104eb838361083d565b505050565b6104fa33826108ab565b6105165760405162461bcd60e51b815260040161044a9061140f565b6104eb83838361092a565b6104eb838383604051806020016040528060008152506106b9565b6000818152600360205260408120546001600160a01b0316806103175760405162461bcd60e51b8152602060048201526018602482015277115490cdcc8c4e881a5b9d985b1a59081d1bdad95b88125160421b604482015260640161044a565b6105a4610a9b565b600854600754106105ec5760405162461bcd60e51b815260206004820152601260248201527113585e0814dd5c1c1b1e4814995858da195960721b604482015260640161044a565b60078054600101908190556106018282610af5565b5050565b60006001600160a01b03821661066f5760405162461bcd60e51b815260206004820152602960248201527f4552433732313a2061646472657373207a65726f206973206e6f7420612076616044820152683634b21037bbb732b960b91b606482015260840161044a565b506001600160a01b031660009081526004602052604090205490565b610693610a9b565b61069d6000610b0f565b565b60606002805461032c906113d5565b610601338383610b5f565b6106c333836108ab565b6106df5760405162461bcd60e51b815260040161044a9061140f565b6106eb84848484610c2d565b50505050565b60606106fc826107de565b600061071360408051602081019091526000815290565b90506000815111610733576040518060200160405280600081525061075e565b8061073d84610c60565b60405160200161074e92919061145c565b6040516020818303038152906040525b9392505050565b61076d610a9b565b6001600160a01b0381166107d25760405162461bcd60e51b815260206004820152602660248201527f4f776e61626c653a206e6577206f776e657220697320746865207a65726f206160448201526564647265737360d01b606482015260840161044a565b6107db81610b0f565b50565b6000818152600360205260409020546001600160a01b03166107db5760405162461bcd60e51b8152602060048201526018602482015277115490cdcc8c4e881a5b9d985b1a59081d1bdad95b88125160421b604482015260640161044a565b600081815260056020526040902080546001600160a01b0319166001600160a01b03841690811790915581906108728261053c565b6001600160a01b03167f8c5be1e5ebec7d5bd14f71427d1e84f3dd0314c0f7b2291e5b200ac8c7c3b92560405160405180910390a45050565b6000806108b78361053c565b9050806001600160a01b0316846001600160a01b031614806108fe57506001600160a01b0380821660009081526006602090815260408083209388168352929052205460ff165b806109225750836001600160a01b0316610917846103af565b6001600160a01b0316145b949350505050565b826001600160a01b031661093d8261053c565b6001600160a01b0316146109635760405162461bcd60e51b815260040161044a9061148b565b6001600160a01b0382166109c55760405162461bcd60e51b8152602060048201526024808201527f4552433732313a207472616e7366657220746f20746865207a65726f206164646044820152637265737360e01b606482015260840161044a565b6109d28383836001610cf3565b826001600160a01b03166109e58261053c565b6001600160a01b031614610a0b5760405162461bcd60e51b815260040161044a9061148b565b600081815260056020908152604080832080546001600160a01b03199081169091556001600160a01b0387811680865260048552838620805460001901905590871680865283862080546001019055868652600390945282852080549092168417909155905184937fddf252ad1be2c89b69c2b068fc378daa952ba7f163c4a11628f55a4df523b3ef91a4505050565b6000546001600160a01b0316331461069d5760405162461bcd60e51b815260206004820181905260248201527f4f776e61626c653a2063616c6c6572206973206e6f7420746865206f776e6572604482015260640161044a565b610601828260405180602001604052806000815250610d7b565b600080546001600160a01b038381166001600160a01b0319831681178455604051919092169283917f8be0079c531659141344cd1fd0a4f28419497f9722a3daafe3b4186f6b6457e09190a35050565b816001600160a01b0316836001600160a01b031603610bc05760405162461bcd60e51b815260206004820152601960248201527f4552433732313a20617070726f766520746f2063616c6c657200000000000000604482015260640161044a565b6001600160a01b03838116600081815260066020908152604080832094871680845294825291829020805460ff191686151590811790915591519182527f17307eab39ab6107e8899845ad3d59bd9653f200f220920489ca2b5937696c31910160405180910390a3505050565b610c3884848461092a565b610c4484848484610dae565b6106eb5760405162461bcd60e51b815260040161044a906114d0565b60606000610c6d83610eaf565b600101905060008167ffffffffffffffff811115610c8d57610c8d6112b0565b6040519080825280601f01601f191660200182016040528015610cb7576020820181803683370190505b5090508181016020015b600019016f181899199a1a9b1b9c1cb0b131b232b360811b600a86061a8153600a8504945084610cc157509392505050565b60018111156106eb576001600160a01b03841615610d39576001600160a01b03841660009081526004602052604081208054839290610d33908490611538565b90915550505b6001600160a01b038316156106eb576001600160a01b03831660009081526004602052604081208054839290610d7090849061154f565b909155505050505050565b610d858383610f87565b610d926000848484610dae565b6104eb5760405162461bcd60e51b815260040161044a906114d0565b60006001600160a01b0384163b15610ea457604051630a85bd0160e11b81526001600160a01b0385169063150b7a0290610df2903390899088908890600401611567565b6020604051808303816000875af1925050508015610e2d575060408051601f3d908101601f19168201909252610e2a918101906115a4565b60015b610e8a573d808015610e5b576040519150601f19603f3d011682016040523d82523d6000602084013e610e60565b606091505b508051600003610e825760405162461bcd60e51b815260040161044a906114d0565b805181602001fd5b6001600160e01b031916630a85bd0160e11b149050610922565b506001949350505050565b60008072184f03e93ff9f4daa797ed6e38ed64bf6a1f0160401b8310610eee5772184f03e93ff9f4daa797ed6e38ed64bf6a1f0160401b830492506040015b6d04ee2d6d415b85acef81000000008310610f1a576d04ee2d6d415b85acef8100000000830492506020015b662386f26fc100008310610f3857662386f26fc10000830492506010015b6305f5e1008310610f50576305f5e100830492506008015b6127108310610f6457612710830492506004015b60648310610f76576064830492506002015b600a83106103175760010192915050565b6001600160a01b038216610fdd5760405162461bcd60e51b815260206004820181905260248201527f4552433732313a206d696e7420746f20746865207a65726f2061646472657373604482015260640161044a565b6000818152600360205260409020546001600160a01b0316156110425760405162461bcd60e51b815260206004820152601c60248201527f4552433732313a20746f6b656e20616c7265616479206d696e74656400000000604482015260640161044a565b611050600083836001610cf3565b6000818152600360205260409020546001600160a01b0316156110b55760405162461bcd60e51b815260206004820152601c60248201527f4552433732313a20746f6b656e20616c7265616479206d696e74656400000000604482015260640161044a565b6001600160a01b038216600081815260046020908152604080832080546001019055848352600390915280822080546001600160a01b0319168417905551839291907fddf252ad1be2c89b69c2b068fc378daa952ba7f163c4a11628f55a4df523b3ef908290a45050565b6001600160e01b0319811681146107db57600080fd5b60006020828403121561114857600080fd5b813561075e81611120565b60005b8381101561116e578181015183820152602001611156565b838111156106eb5750506000910152565b60008151808452611197816020860160208601611153565b601f01601f19169290920160200192915050565b60208152600061075e602083018461117f565b6000602082840312156111d057600080fd5b5035919050565b80356001600160a01b03811681146111ee57600080fd5b919050565b6000806040838503121561120657600080fd5b61120f836111d7565b946020939093013593505050565b60008060006060848603121561123257600080fd5b61123b846111d7565b9250611249602085016111d7565b9150604084013590509250925092565b60006020828403121561126b57600080fd5b61075e826111d7565b6000806040838503121561128757600080fd5b611290836111d7565b9150602083013580151581146112a557600080fd5b809150509250929050565b634e487b7160e01b600052604160045260246000fd5b600080600080608085870312156112dc57600080fd5b6112e5856111d7565b93506112f3602086016111d7565b925060408501359150606085013567ffffffffffffffff8082111561131757600080fd5b818701915087601f83011261132b57600080fd5b81358181111561133d5761133d6112b0565b604051601f8201601f19908116603f01168101908382118183101715611365576113656112b0565b816040528281528a602084870101111561137e57600080fd5b82602086016020830137600060208483010152809550505050505092959194509250565b600080604083850312156113b557600080fd5b6113be836111d7565b91506113cc602084016111d7565b90509250929050565b600181811c908216806113e957607f821691505b60208210810361140957634e487b7160e01b600052602260045260246000fd5b50919050565b6020808252602d908201527f4552433732313a2063616c6c6572206973206e6f7420746f6b656e206f776e6560408201526c1c881bdc88185c1c1c9bdd9959609a1b606082015260800190565b6000835161146e818460208801611153565b835190830190611482818360208801611153565b01949350505050565b60208082526025908201527f4552433732313a207472616e736665722066726f6d20696e636f72726563742060408201526437bbb732b960d91b606082015260800190565b60208082526032908201527f4552433732313a207472616e7366657220746f206e6f6e20455243373231526560408201527131b2b4bb32b91034b6b83632b6b2b73a32b960711b606082015260800190565b634e487b7160e01b600052601160045260246000fd5b60008282101561154a5761154a611522565b500390565b6000821982111561156257611562611522565b500190565b6001600160a01b038581168252841660208201526040810183905260806060820181905260009061159a9083018461117f565b9695505050505050565b6000602082840312156115b657600080fd5b815161075e8161112056fea264697066735822122071ecd8ec5186e928845cf6f99e058293b60bf919f55e37d2256d24bdd552f7ae64736f6c634300080d0033",
  "bytecodeSha1": "e0704458184e68e69916e374f3f31bfd03fec290",
  "compiler": {
    "evm_version": "istanbul",
    "optimizer": {
      "enabled": true,
      "runs": 200
    },
    "version": "0.8.13+commit.abaa5c0e"
  },
  "contractName": "RealtySale",
  "language": "Solidity",
  "natspec": {
    "kind": "dev",
    "methods": {
      "owner()": {
        "details": "Returns the address of the current owner."
      },
      "renounceOwnership()": {
        "details": "Leaves the contract without owner. It will not be possible to call `onlyOwner` functions anymore. Can only be called by the current owner. NOTE: Renouncing ownership will leave the contract without an owner, thereby removing any functionality that is only available to the owner."
      },
      "transferOwnership(address)": {
        "details": "Transfers ownership of the contract to a new account (`newOwner`). Can only be called by the current owner."
      }
    },
    "version": 1
  },
  "opcodes": "PUSH1 0x80 PUSH1 0x40 MSTORE PUSH1 0x4 CALLDATASIZE LT PUSH2 0x9C JUMPI PUSH1 0x0 CALLDATALOAD PUSH1 0xE0 SHR DUP1 PUSH4 0x715018A6 GT PUSH2 0x64 JUMPI DUP1 PUSH4 0x715018A6 EQ PUSH2 0x18D JUMPI DUP1 PUSH4 0x7ADBF973 EQ PUSH2 0x1A2 JUMPI DUP1 PUSH4 0x8DA5CB5B EQ PUSH2 0x1C2 JUMPI DUP1 PUSH4 0xA6F2AE3A EQ PUSH2 0x1E0 JUMPI DUP1 PUSH4 0xE7C4C895 EQ PUSH2 0x1E8 JUMPI DUP1 PUSH4 0xF2FDE38B EQ PUSH2 0x204 JUMPI PUSH1 0x0 DUP1 REVERT JUMPDEST DUP1 PUSH4 0x2824B7C6 EQ PUSH2 0xA1 JUMPI DUP1 PUSH4 0x28B7BEDE EQ PUSH2 0xB6 JUMPI DUP1 PUSH4 0x3CCFD60B EQ PUSH2 0x102 JUMPI DUP1 PUSH4 0x487AAF6E EQ PUSH2 0x117 JUMPI DUP1 PUSH4 0x6C9FA59E EQ PUSH2 0x159 JUMPI JUMPDEST PUSH1 0x0 DUP1 REVERT JUMPDEST PUSH2 0xB4 PUSH2 0xAF CALLDATASIZE PUSH1 0x4 PUSH2 0x861 JUMP JUMPDEST PUSH2 0x224 JUMP JUMPDEST STOP JUMPDEST CALLVALUE DUP1 ISZERO PUSH2 0xC2 JUMPI PUSH1 0x0 DUP1 REVERT JUMPDEST POP PUSH32 0x0 JUMPDEST PUSH1 0x40 MLOAD PUSH1 0x1 PUSH1 0x1 PUSH1 0xA0 SHL SUB SWAP1 SWAP2 AND DUP2 MSTORE PUSH1 0x20 ADD JUMPDEST PUSH1 0x40 MLOAD DUP1 SWAP2 SUB SWAP1 RETURN JUMPDEST CALLVALUE DUP1 ISZERO PUSH2 0x10E JUMPI PUSH1 0x0 DUP1 REVERT JUMPDEST POP PUSH2 0xB4 PUSH2 0x240 JUMP JUMPDEST CALLVALUE DUP1 ISZERO PUSH2 0x123 JUMPI PUSH1 0x0 DUP1 REVERT JUMPDEST POP PUSH2 0x14B PUSH32 0xB25318EE69DB96F9B49D9C895B04D14D31758BA305ABBECCC4EC4D31875FBA03 DUP2 JUMP JUMPDEST PUSH1 0x40 MLOAD SWAP1 DUP2 MSTORE PUSH1 0x20 ADD PUSH2 0xF9 JUMP JUMPDEST CALLVALUE DUP1 ISZERO PUSH2 0x165 JUMPI PUSH1 0x0 DUP1 REVERT JUMPDEST POP PUSH2 0xE5 PUSH32 0x0 DUP2 JUMP JUMPDEST CALLVALUE DUP1 ISZERO PUSH2 0x199 JUMPI PUSH1 0x0 DUP1 REVERT JUMPDEST POP PUSH2 0xB4 PUSH2 0x2FA JUMP JUMPDEST CALLVALUE DUP1 ISZERO PUSH2 0x1AE JUMPI PUSH1 0x0 DUP1 REVERT JUMPDEST POP PUSH2 0xB4 PUSH2 0x1BD CALLDATASIZE PUSH1 0x4 PUSH2 0x8A6 JUMP JUMPDEST PUSH2 0x30E JUMP JUMPDEST CALLVALUE DUP1 ISZERO PUSH2 0x1CE JUMPI PUSH1 0x0 DUP1 REVERT JUMPDEST POP PUSH1 0x0 SLOAD PUSH1 0x1 PUSH1 0x1 PUSH1 0xA0 SHL SUB AND PUSH2 0xE5 JUMP JUMPDEST PUSH2 0xB4 PUSH2 0x338 JUMP JUMPDEST CALLVALUE DUP1 ISZERO PUSH2 0x1F4 JUMPI PUSH1 0x0 DUP1 REVERT JUMPDEST POP PUSH2 0x14B PUSH8 0xDE0B6B3A7640000 DUP2 JUMP JUMPDEST CALLVALUE DUP1 ISZERO PUSH2 0x210 JUMPI PUSH1 0x0 DUP1 REVERT JUMPDEST POP PUSH2 0xB4 PUSH2 0x21F CALLDATASIZE PUSH1 0x4 PUSH2 0x8A6 JUMP JUMPDEST PUSH2 0x34A JUMP JUMPDEST PUSH2 0x22E DUP3 DUP3 PUSH2 0x3C3 JUMP JUMPDEST PUSH2 0x23C CALLER DUP4 PUSH1 0x20 ADD CALLDATALOAD PUSH2 0x4A7 JUMP JUMPDEST POP POP JUMP JUMPDEST PUSH2 0x248 PUSH2 0x566 JUMP JUMPDEST PUSH1 0x0 DUP1 PUSH2 0x25D PUSH1 0x0 SLOAD PUSH1 0x1 PUSH1 0x1 PUSH1 0xA0 SHL SUB AND SWAP1 JUMP JUMPDEST PUSH1 0x1 PUSH1 0x1 PUSH1 0xA0 SHL SUB AND SELFBALANCE PUSH1 0x40 MLOAD PUSH1 0x0 PUSH1 0x40 MLOAD DUP1 DUP4 SUB DUP2 DUP6 DUP8 GAS CALL SWAP3 POP POP POP RETURNDATASIZE DUP1 PUSH1 0x0 DUP2 EQ PUSH2 0x2A7 JUMPI PUSH1 0x40 MLOAD SWAP2 POP PUSH1 0x1F NOT PUSH1 0x3F RETURNDATASIZE ADD AND DUP3 ADD PUSH1 0x40 MSTORE RETURNDATASIZE DUP3 MSTORE RETURNDATASIZE PUSH1 0x0 PUSH1 0x20 DUP5 ADD RETURNDATACOPY PUSH2 0x2AC JUMP JUMPDEST PUSH1 0x60 SWAP2 POP JUMPDEST POP SWAP2 POP SWAP2 POP DUP2 PUSH2 0x23C JUMPI PUSH1 0x40 MLOAD PUSH3 0x461BCD PUSH1 0xE5 SHL DUP2 MSTORE PUSH1 0x20 PUSH1 0x4 DUP3 ADD MSTORE PUSH1 0x14 PUSH1 0x24 DUP3 ADD MSTORE PUSH20 0x2330B4B632B2103A379039B2B7321022BA3432B9 PUSH1 0x61 SHL PUSH1 0x44 DUP3 ADD MSTORE PUSH1 0x64 ADD JUMPDEST PUSH1 0x40 MLOAD DUP1 SWAP2 SUB SWAP1 REVERT JUMPDEST PUSH2 0x302 PUSH2 0x566 JUMP JUMPDEST PUSH2 0x30C PUSH1 0x0 PUSH2 0x5C0 JUMP JUMPDEST JUMP JUMPDEST PUSH2 0x316 PUSH2 0x566 JUMP JUMPDEST PUSH1 0x1 DUP1 SLOAD PUSH1 0x1 PUSH1 0x1 PUSH1 0xA0 SHL SUB NOT AND PUSH1 0x1 PUSH1 0x1 PUSH1 0xA0 SHL SUB SWAP3 SWAP1 SWAP3 AND SWAP2 SWAP1 SWAP2 OR SWAP1 SSTORE JUMP JUMPDEST PUSH2 0x30C CALLER PUSH8 0xDE0B6B3A7640000 PUSH2 0x4A7 JUMP JUMPDEST PUSH2 0x352 PUSH2 0x566 JUMP JUMPDEST PUSH1 0x1 PUSH1 0x1 PUSH1 0xA0 SHL SUB DUP2 AND PUSH2 0x3B7 JUMPI PUSH1 0x40 MLOAD PUSH3 0x461BCD PUSH1 0xE5 SHL DUP2 MSTORE PUSH1 0x20 PUSH1 0x4 DUP3 ADD MSTORE PUSH1 0x26 PUSH1 0x24 DUP3 ADD MSTORE PUSH32 0x4F776E61626C653A206E6577206F776E657220697320746865207A65726F2061 PUSH1 0x44 DUP3 ADD MSTORE PUSH6 0x646472657373 PUSH1 0xD0 SHL PUSH1 0x64 DUP3 ADD MSTORE PUSH1 0x84 ADD PUSH2 0x2F1 JUMP JUMPDEST PUSH2 0x3C0 DUP2 PUSH2 0x5C0 JUMP JUMPDEST POP JUMP JUMPDEST TIMESTAMP DUP3 CALLDATALOAD GT PUSH2 0x404 JUMPI PUSH1 0x40 MLOAD PUSH3 0x461BCD PUSH1 0xE5 SHL DUP2 MSTORE PUSH1 0x20 PUSH1 0x4 DUP3 ADD MSTORE PUSH1 0xE PUSH1 0x24 DUP3 ADD MSTORE PUSH14 0x707269636520746F6F206F6C6421 PUSH1 0x90 SHL PUSH1 0x44 DUP3 ADD MSTORE PUSH1 0x64 ADD PUSH2 0x2F1 JUMP JUMPDEST PUSH1 0x0 PUSH2 0x41D PUSH2 0x418 CALLDATASIZE DUP6 SWAP1 SUB DUP6 ADD DUP6 PUSH2 0x8D6 JUMP JUMPDEST PUSH2 0x610 JUMP JUMPDEST SWAP1 POP PUSH1 0x0 PUSH2 0x441 DUP3 PUSH2 0x432 PUSH1 0x20 DUP7 ADD DUP7 PUSH2 0x933 JUMP JUMPDEST DUP6 PUSH1 0x20 ADD CALLDATALOAD DUP7 PUSH1 0x40 ADD CALLDATALOAD PUSH2 0x684 JUMP JUMPDEST PUSH1 0x1 SLOAD SWAP1 SWAP2 POP PUSH1 0x1 PUSH1 0x1 PUSH1 0xA0 SHL SUB DUP1 DUP4 AND SWAP2 AND EQ PUSH2 0x4A1 JUMPI PUSH1 0x40 MLOAD PUSH3 0x461BCD PUSH1 0xE5 SHL DUP2 MSTORE PUSH1 0x20 PUSH1 0x4 DUP3 ADD MSTORE PUSH1 0x1B PUSH1 0x24 DUP3 ADD MSTORE PUSH32 0x4F6E6C79206F7261636C652063616E207369676E207072696365730000000000 PUSH1 0x44 DUP3 ADD MSTORE PUSH1 0x64 ADD PUSH2 0x2F1 JUMP JUMPDEST POP POP POP POP JUMP JUMPDEST DUP1 CALLVALUE EQ PUSH2 0x4E7 JUMPI PUSH1 0x40 MLOAD PUSH3 0x461BCD PUSH1 0xE5 SHL DUP2 MSTORE PUSH1 0x20 PUSH1 0x4 DUP3 ADD MSTORE PUSH1 0xE PUSH1 0x24 DUP3 ADD MSTORE PUSH14 0xDCDEE840CADCDEEACED0408AA89 PUSH1 0x93 SHL PUSH1 0x44 DUP3 ADD MSTORE PUSH1 0x64 ADD PUSH2 0x2F1 JUMP JUMPDEST PUSH1 0x40 MLOAD PUSH4 0x35313C21 PUSH1 0xE1 SHL DUP2 MSTORE PUSH1 0x1 PUSH1 0x1 PUSH1 0xA0 SHL SUB DUP4 DUP2 AND PUSH1 0x4 DUP4 ADD MSTORE PUSH32 0x0 AND SWAP1 PUSH4 0x6A627842 SWAP1 PUSH1 0x24 ADD PUSH1 0x0 PUSH1 0x40 MLOAD DUP1 DUP4 SUB DUP2 PUSH1 0x0 DUP8 DUP1 EXTCODESIZE ISZERO DUP1 ISZERO PUSH2 0x54A JUMPI PUSH1 0x0 DUP1 REVERT JUMPDEST POP GAS CALL ISZERO DUP1 ISZERO PUSH2 0x55E JUMPI RETURNDATASIZE PUSH1 0x0 DUP1 RETURNDATACOPY RETURNDATASIZE PUSH1 0x0 REVERT JUMPDEST POP POP POP POP POP POP JUMP JUMPDEST PUSH1 0x0 SLOAD PUSH1 0x1 PUSH1 0x1 PUSH1 0xA0 SHL SUB AND CALLER EQ PUSH2 0x30C JUMPI PUSH1 0x40 MLOAD PUSH3 0x461BCD PUSH1 0xE5 SHL DUP2 MSTORE PUSH1 0x20 PUSH1 0x4 DUP3 ADD DUP2 SWAP1 MSTORE PUSH1 0x24 DUP3 ADD MSTORE PUSH32 0x4F776E61626C653A2063616C6C6572206973206E6F7420746865206F776E6572 PUSH1 0x44 DUP3 ADD MSTORE PUSH1 0x64 ADD PUSH2 0x2F1 JUMP JUMPDEST PUSH1 0x0 DUP1 SLOAD PUSH1 0x1 PUSH1 0x1 PUSH1 0xA0 SHL SUB DUP4 DUP2 AND PUSH1 0x1 PUSH1 0x1 PUSH1 0xA0 SHL SUB NOT DUP4 AND DUP2 OR DUP5 SSTORE PUSH1 0x40 MLOAD SWAP2 SWAP1 SWAP3 AND SWAP3 DUP4 SWAP2 PUSH32 0x8BE0079C531659141344CD1FD0A4F28419497F9722A3DAAFE3B4186F6B6457E0 SWAP2 SWAP1 LOG3 POP POP JUMP JUMPDEST PUSH1 0x0 PUSH2 0x67E PUSH32 0xB25318EE69DB96F9B49D9C895B04D14D31758BA305ABBECCC4EC4D31875FBA03 DUP4 PUSH1 0x0 ADD MLOAD DUP5 PUSH1 0x20 ADD MLOAD PUSH1 0x40 MLOAD PUSH1 0x20 ADD PUSH2 0x663 SWAP4 SWAP3 SWAP2 SWAP1 SWAP3 DUP4 MSTORE PUSH1 0x20 DUP4 ADD SWAP2 SWAP1 SWAP2 MSTORE PUSH1 0x40 DUP3 ADD MSTORE PUSH1 0x60 ADD SWAP1 JUMP JUMPDEST PUSH1 0x40 MLOAD PUSH1 0x20 DUP2 DUP4 SUB SUB DUP2 MSTORE SWAP1 PUSH1 0x40 MSTORE DUP1 MLOAD SWAP1 PUSH1 0x20 ADD KECCAK256 PUSH2 0x6EC JUMP JUMPDEST SWAP3 SWAP2 POP POP JUMP JUMPDEST PUSH1 0x40 DUP1 MLOAD PUSH1 0x0 DUP1 DUP3 MSTORE PUSH1 0x20 DUP3 ADD DUP1 DUP5 MSTORE DUP8 SWAP1 MSTORE PUSH1 0xFF DUP7 AND SWAP3 DUP3 ADD SWAP3 SWAP1 SWAP3 MSTORE PUSH1 0x60 DUP2 ADD DUP5 SWAP1 MSTORE PUSH1 0x80 DUP2 ADD DUP4 SWAP1 MSTORE PUSH1 0x1 SWAP1 PUSH1 0xA0 ADD PUSH1 0x20 PUSH1 0x40 MLOAD PUSH1 0x20 DUP2 SUB SWAP1 DUP1 DUP5 SUB SWAP1 DUP6 GAS STATICCALL ISZERO DUP1 ISZERO PUSH2 0x6D8 JUMPI RETURNDATASIZE PUSH1 0x0 DUP1 RETURNDATACOPY RETURNDATASIZE PUSH1 0x0 REVERT JUMPDEST POP POP PUSH1 0x40 MLOAD PUSH1 0x1F NOT ADD MLOAD SWAP7 SWAP6 POP POP POP POP POP POP JUMP JUMPDEST PUSH1 0x0 PUSH2 0x67E PUSH2 0x6F9 PUSH2 0x73A JUMP JUMPDEST DUP4 PUSH1 0x40 MLOAD PUSH2 0x1901 PUSH1 0xF0 SHL PUSH1 0x20 DUP3 ADD MSTORE PUSH1 0x22 DUP2 ADD DUP4 SWAP1 MSTORE PUSH1 0x42 DUP2 ADD DUP3 SWAP1 MSTORE PUSH1 0x0 SWAP1 PUSH1 0x62 ADD PUSH1 0x40 MLOAD PUSH1 0x20 DUP2 DUP4 SUB SUB DUP2 MSTORE SWAP1 PUSH1 0x40 MSTORE DUP1 MLOAD SWAP1 PUSH1 0x20 ADD KECCAK256 SWAP1 POP SWAP3 SWAP2 POP POP JUMP JUMPDEST PUSH1 0x0 ADDRESS PUSH1 0x1 PUSH1 0x1 PUSH1 0xA0 SHL SUB PUSH32 0x0 AND EQ DUP1 ISZERO PUSH2 0x793 JUMPI POP PUSH32 0x0 CHAINID EQ JUMPDEST ISZERO PUSH2 0x7BD JUMPI POP PUSH32 0x0 SWAP1 JUMP JUMPDEST POP PUSH1 0x40 DUP1 MLOAD PUSH32 0x0 PUSH1 0x20 DUP1 DUP4 ADD SWAP2 SWAP1 SWAP2 MSTORE PUSH32 0x0 DUP3 DUP5 ADD MSTORE PUSH32 0x0 PUSH1 0x60 DUP4 ADD MSTORE CHAINID PUSH1 0x80 DUP4 ADD MSTORE ADDRESS PUSH1 0xA0 DUP1 DUP5 ADD SWAP2 SWAP1 SWAP2 MSTORE DUP4 MLOAD DUP1 DUP5 SUB SWAP1 SWAP2 ADD DUP2 MSTORE PUSH1 0xC0 SWAP1 SWAP3 ADD SWAP1 SWAP3 MSTORE DUP1 MLOAD SWAP2 ADD KECCAK256 SWAP1 JUMP JUMPDEST PUSH1 0x0 DUP1 DUP3 DUP5 SUB PUSH1 0xA0 DUP2 SLT ISZERO PUSH2 0x875 JUMPI PUSH1 0x0 DUP1 REVERT JUMPDEST PUSH1 0x40 DUP2 SLT ISZERO PUSH2 0x883 JUMPI PUSH1 0x0 DUP1 REVERT JUMPDEST DUP4 SWAP3 POP PUSH1 0x60 PUSH1 0x3F NOT DUP3 ADD SLT ISZERO PUSH2 0x898 JUMPI PUSH1 0x0 DUP1 REVERT JUMPDEST POP PUSH1 0x40 DUP4 ADD SWAP1 POP SWAP3 POP SWAP3 SWAP1 POP JUMP JUMPDEST PUSH1 0x0 PUSH1 0x20 DUP3 DUP5 SUB SLT ISZERO PUSH2 0x8B8 JUMPI PUSH1 0x0 DUP1 REVERT JUMPDEST DUP2 CALLDATALOAD PUSH1 0x1 PUSH1 0x1 PUSH1 0xA0 SHL SUB DUP2 AND DUP2 EQ PUSH2 0x8CF JUMPI PUSH1 0x0 DUP1 REVERT JUMPDEST SWAP4 SWAP3 POP POP POP JUMP JUMPDEST PUSH1 0x0 PUSH1 0x40 DUP3 DUP5 SUB SLT ISZERO PUSH2 0x8E8 JUMPI PUSH1 0x0 DUP1 REVERT JUMPDEST PUSH1 0x40 MLOAD PUSH1 0x40 DUP2 ADD DUP2 DUP2 LT PUSH8 0xFFFFFFFFFFFFFFFF DUP3 GT OR ISZERO PUSH2 0x919 JUMPI PUSH4 0x4E487B71 PUSH1 0xE0 SHL PUSH1 0x0 MSTORE PUSH1 0x41 PUSH1 0x4 MSTORE PUSH1 0x24 PUSH1 0x0 REVERT JUMPDEST PUSH1 0x40 MSTORE DUP3 CALLDATALOAD DUP2 MSTORE PUSH1 0x20 SWAP3 DUP4 ADD CALLDATALOAD SWAP3 DUP2 ADD SWAP3 SWAP1 SWAP3 MSTORE POP SWAP2 SWAP1 POP JUMP JUMPDEST PUSH1 0x0 PUSH1 0x20 DUP3 DUP5 SUB SLT ISZERO PUSH2 0x945 JUMPI PUSH1 0x0 DUP1 REVERT JUMPDEST DUP2 CALLDATALOAD PUSH1 0xFF DUP2 AND DUP2 EQ PUSH2 0x8CF JUMPI PUSH1 0x0 DUP1 REVERT INVALID LOG2 PUSH5 0x6970667358 0x22 SLT KECCAK256 ADD SWAP3 0x2E 0x4E LOG4 0xB0 PUSH18 0x890BF17B5F51B9A010400CADF2F856C51BAA 0xCE AND 0x2A 0xE9 COINBASE SWAP13 0x26 PUSH5 0x736F6C6343 STOP ADDMOD 0xD STOP CALLER ",
  "sha1": "b29a7e82ba45524257ff071fc4162721c3f8eb56",
  "source": "// SCH Course Copyright Policy (C): DO-NOT-SHARE-WITH-ANYONE\n// https://smartcontractshacking.com/#copyright-policy\npragma solidity 0.8.13;\n\nimport \"@openzeppelin/contracts/utils/cryptography/EIP712.sol\";\nimport \"@openzeppelin/contracts/access/Ownable.sol\";\nimport \"./RealtyToken.sol\";\n\n/**\n * @title RealtySaleEIP712\n * @author JohnnyTime (https://smartcontractshacking.com)\n */\nabstract contract RealtySaleEIP712 is EIP712 {\n\n    struct SharePrice {\n        uint256 expires; // Time which the price expires\n        uint256 price; // Share Price in ETH\n    }\n\n    struct Signature {\n        uint8 v;\n        bytes32 r;\n        bytes32 s;\n    }\n\n    bytes32 public constant SHARE_PRICE_TYPEHASH = keccak256(\"SharePrice(uint256 expires,uint256 price)\");\n\n    function _hashSharePrice(SharePrice memory sharePrice) internal view returns (bytes32 hash) {\n        return _hashTypedDataV4(\n            keccak256(abi.encode(SHARE_PRICE_TYPEHASH, sharePrice.expires, sharePrice.price))\n        );\n    }\n}\n\ncontract RealtySale is Ownable, RealtySaleEIP712 {\n    \n    RealtyToken public immutable shareToken;\n    uint256 public constant INITAL_SHARE_PRICE = 1 ether;\n    address private oracle;\n    constructor() EIP712(\"RealtySale\", \"0.1\") {\n        shareToken = new RealtyToken();\n    }\n\n    function buy() external payable {\n        _mintShare(msg.sender, INITAL_SHARE_PRICE);\n    }\n\n    function buyWithOracle(SharePrice calldata sharePrice, Signature calldata signature) external payable {\n        _validateSharePrice(sharePrice, signature);\n        _mintShare(msg.sender, sharePrice.price);\n    }\n\n    function _mintShare(address buyer, uint256 price) internal {\n        require(msg.value == price, \"not enough ETH\");\n        shareToken.mint(buyer);\n    }\n\n    function _recover(bytes32 digest, uint8 v, bytes32 r, bytes32 s) internal pure returns (address) {\n        return ecrecover(digest, v, r, s);\n    }\n\n    function getTokenContract() external view returns(address token) {\n        return address(shareToken);\n    }\n\n    function _validateSharePrice(SharePrice calldata sharePrice, Signature calldata signature) internal view {\n        require(sharePrice.expires > block.timestamp, \"price too old!\");\n\n        bytes32 sharePriceHash = _hashSharePrice(sharePrice);\n        address recovered = _recover(sharePriceHash, signature.v, signature.r, signature.s);\n\n        require(recovered == oracle, \"Only oracle can sign prices\");\n    }\n\n    function setOracle(address _oracle) external onlyOwner {\n        oracle = _oracle;\n    }\n\n    function withdraw() external onlyOwner {\n        (bool sent, bytes memory data) = owner().call{value: address(this).balance}(\"\");\n        require(sent, \"Failed to send Ether\");\n    }\n}",
  "sourcePath": "contracts/replay-attack-2/RealtySale.sol",
  "type": "contract"
}