{
  "abi": [
    {
      "inputs": [
        {
          "internalType": "address",
          "name": "_poolAddress",
          "type": "address"
        }
      ],
      "stateMutability": "nonpayable",
      "type": "constructor"
    },
    {
      "inputs": [
        {
          "internalType": "uint256",
          "name": "amount",
          "type": "uint256"
        }
      ],
      "name": "flashLoan",
      "outputs": [],
      "stateMutability": "nonpayable",
      "type": "function"
    },
    {
      "inputs": [],
      "name": "getETH",
      "outputs": [],
      "stateMutability": "payable",
      "type": "function"
    }
  ],
  "bytecode": "608060405234801561001057600080fd5b5060405161022f38038061022f83398101604081905261002f91610054565b600080546001600160a01b0319166001600160a01b0392909216919091179055610084565b60006020828403121561006657600080fd5b81516001600160a01b038116811461007d57600080fd5b9392505050565b61019c806100936000396000f3fe6080604052600436106100295760003560e01c806314f6c3be1461002e5780639ab603b914610038575b600080fd5b610036610058565b005b34801561004457600080fd5b5061003661005336600461014d565b6100ec565b604051600090339034908381818185875af1925050503d806000811461009a576040519150601f19603f3d011682016040523d82523d6000602084013e61009f565b606091505b50509050806100e95760405162461bcd60e51b81526020600482015260126024820152710ccc2d2d8cac840e8de40e6cadcc8408aa8960731b604482015260640160405180910390fd5b50565b600054604051639ab603b960e01b8152600481018390526001600160a01b0390911690639ab603b990602401600060405180830381600087803b15801561013257600080fd5b505af1158015610146573d6000803e3d6000fd5b5050505050565b60006020828403121561015f57600080fd5b503591905056fea2646970667358221220068123692f36f82e08d5394ac4f4c18e310ebd05948f44c8e39c035b55ca98ca64736f6c63430008130033",
  "bytecodeSha1": "1b134f2ffa06c389be744383009e3e3e68215109",
  "compiler": {
    "evm_version": "istanbul",
    "optimizer": {
      "enabled": true,
      "runs": 200
    },
    "version": "0.8.19+commit.7dd6d404"
  },
  "contractName": "Receiver",
  "language": "Solidity",
  "natspec": {
    "author": "JohnnyTime (https://smartcontractshacking.com)",
    "kind": "dev",
    "methods": {},
    "title": "Receiver",
    "version": 1
  },
  "opcodes": "PUSH1 0x80 PUSH1 0x40 MSTORE PUSH1 0x4 CALLDATASIZE LT PUSH2 0x29 JUMPI PUSH1 0x0 CALLDATALOAD PUSH1 0xE0 SHR DUP1 PUSH4 0x14F6C3BE EQ PUSH2 0x2E JUMPI DUP1 PUSH4 0x9AB603B9 EQ PUSH2 0x38 JUMPI JUMPDEST PUSH1 0x0 DUP1 REVERT JUMPDEST PUSH2 0x36 PUSH2 0x58 JUMP JUMPDEST STOP JUMPDEST CALLVALUE DUP1 ISZERO PUSH2 0x44 JUMPI PUSH1 0x0 DUP1 REVERT JUMPDEST POP PUSH2 0x36 PUSH2 0x53 CALLDATASIZE PUSH1 0x4 PUSH2 0x14D JUMP JUMPDEST PUSH2 0xEC JUMP JUMPDEST PUSH1 0x40 MLOAD PUSH1 0x0 SWAP1 CALLER SWAP1 CALLVALUE SWAP1 DUP4 DUP2 DUP2 DUP2 DUP6 DUP8 GAS CALL SWAP3 POP POP POP RETURNDATASIZE DUP1 PUSH1 0x0 DUP2 EQ PUSH2 0x9A JUMPI PUSH1 0x40 MLOAD SWAP2 POP PUSH1 0x1F NOT PUSH1 0x3F RETURNDATASIZE ADD AND DUP3 ADD PUSH1 0x40 MSTORE RETURNDATASIZE DUP3 MSTORE RETURNDATASIZE PUSH1 0x0 PUSH1 0x20 DUP5 ADD RETURNDATACOPY PUSH2 0x9F JUMP JUMPDEST PUSH1 0x60 SWAP2 POP JUMPDEST POP POP SWAP1 POP DUP1 PUSH2 0xE9 JUMPI PUSH1 0x40 MLOAD PUSH3 0x461BCD PUSH1 0xE5 SHL DUP2 MSTORE PUSH1 0x20 PUSH1 0x4 DUP3 ADD MSTORE PUSH1 0x12 PUSH1 0x24 DUP3 ADD MSTORE PUSH18 0xCCC2D2D8CAC840E8DE40E6CADCC8408AA89 PUSH1 0x73 SHL PUSH1 0x44 DUP3 ADD MSTORE PUSH1 0x64 ADD PUSH1 0x40 MLOAD DUP1 SWAP2 SUB SWAP1 REVERT JUMPDEST POP JUMP JUMPDEST PUSH1 0x0 SLOAD PUSH1 0x40 MLOAD PUSH4 0x9AB603B9 PUSH1 0xE0 SHL DUP2 MSTORE PUSH1 0x4 DUP2 ADD DUP4 SWAP1 MSTORE PUSH1 0x1 PUSH1 0x1 PUSH1 0xA0 SHL SUB SWAP1 SWAP2 AND SWAP1 PUSH4 0x9AB603B9 SWAP1 PUSH1 0x24 ADD PUSH1 0x0 PUSH1 0x40 MLOAD DUP1 DUP4 SUB DUP2 PUSH1 0x0 DUP8 DUP1 EXTCODESIZE ISZERO DUP1 ISZERO PUSH2 0x132 JUMPI PUSH1 0x0 DUP1 REVERT JUMPDEST POP GAS CALL ISZERO DUP1 ISZERO PUSH2 0x146 JUMPI RETURNDATASIZE PUSH1 0x0 DUP1 RETURNDATACOPY RETURNDATASIZE PUSH1 0x0 REVERT JUMPDEST POP POP POP POP POP JUMP JUMPDEST PUSH1 0x0 PUSH1 0x20 DUP3 DUP5 SUB SLT ISZERO PUSH2 0x15F JUMPI PUSH1 0x0 DUP1 REVERT JUMPDEST POP CALLDATALOAD SWAP2 SWAP1 POP JUMP INVALID LOG2 PUSH5 0x6970667358 0x22 SLT KECCAK256 MOD DUP2 0x23 PUSH10 0x2F36F82E08D5394AC4F4 0xC1 DUP15 BALANCE 0xE 0xBD SDIV SWAP5 DUP16 DIFFICULTY 0xC8 0xE3 SWAP13 SUB JUMPDEST SSTORE 0xCA SWAP9 0xCA PUSH5 0x736F6C6343 STOP ADDMOD SGT STOP CALLER ",
  "sha1": "bab206bb17d347eb47b3bd995293e91eee73e210",
  "source": "// SCH Course Copyright Policy (C): DO-NOT-SHARE-WITH-ANYONE\n// https://smartcontractshacking.com/#copyright-policy\npragma solidity ^0.8.13;\n\ninterface IPool {\n    function flashLoan(uint256 amount) external;\n}\n\n/**\n * @title Receiver\n * @author JohnnyTime (https://smartcontractshacking.com)\n */\ncontract Receiver {\n\n    IPool pool;\n\n    constructor(address _poolAddress) {\n        pool = IPool(_poolAddress);\n    }\n\n    // TODO: Implement Receiver logic (Receiving a loan and paying it back)\n\n    // TODO: Complete this function\n    function flashLoan(uint256 amount) external {\n        pool.flashLoan(amount);\n    }\n\n    // TODO: Complete this function\n    function getETH() external payable {\n        (bool success, ) = msg.sender.call{value: msg.value}(\"\");\n        require(success, \"failed to send ETH\");\n    }\n\n}",
  "sourcePath": "contracts/flash-loans-1/Receiver.sol",
  "type": "contract"
}