{
  "abi": [
    {
      "anonymous": false,
      "inputs": [
        {
          "indexed": true,
          "internalType": "address",
          "name": "previousOwner",
          "type": "address"
        },
        {
          "indexed": true,
          "internalType": "address",
          "name": "newOwner",
          "type": "address"
        }
      ],
      "name": "OwnershipTransferred",
      "type": "event"
    },
    {
      "anonymous": false,
      "inputs": [
        {
          "indexed": false,
          "internalType": "address",
          "name": "_referrer",
          "type": "address"
        },
        {
          "indexed": false,
          "internalType": "bytes32",
          "name": "_hash",
          "type": "bytes32"
        }
      ],
      "name": "ReferralCreated",
      "type": "event"
    },
    {
      "anonymous": false,
      "inputs": [
        {
          "indexed": false,
          "internalType": "address",
          "name": "_referredTrader",
          "type": "address"
        },
        {
          "indexed": false,
          "internalType": "bytes32",
          "name": "_hash",
          "type": "bytes32"
        }
      ],
      "name": "Referred",
      "type": "event"
    },
    {
      "inputs": [
        {
          "internalType": "bytes32",
          "name": "_hash",
          "type": "bytes32"
        }
      ],
      "name": "createReferralCode",
      "outputs": [],
      "stateMutability": "nonpayable",
      "type": "function"
    },
    {
      "inputs": [
        {
          "internalType": "bytes32",
          "name": "_hash",
          "type": "bytes32"
        }
      ],
      "name": "getReferral",
      "outputs": [
        {
          "internalType": "address",
          "name": "",
          "type": "address"
        }
      ],
      "stateMutability": "view",
      "type": "function"
    },
    {
      "inputs": [
        {
          "internalType": "address",
          "name": "_trader",
          "type": "address"
        }
      ],
      "name": "getReferred",
      "outputs": [
        {
          "internalType": "bytes32",
          "name": "",
          "type": "bytes32"
        }
      ],
      "stateMutability": "view",
      "type": "function"
    },
    {
      "inputs": [
        {
          "internalType": "address[]",
          "name": "_codeOwners",
          "type": "address[]"
        },
        {
          "internalType": "bytes32[]",
          "name": "_ownedCodes",
          "type": "bytes32[]"
        },
        {
          "internalType": "address[]",
          "name": "_referredA",
          "type": "address[]"
        },
        {
          "internalType": "bytes32[]",
          "name": "_referredTo",
          "type": "bytes32[]"
        }
      ],
      "name": "initRefs",
      "outputs": [],
      "stateMutability": "nonpayable",
      "type": "function"
    },
    {
      "inputs": [],
      "name": "owner",
      "outputs": [
        {
          "internalType": "address",
          "name": "",
          "type": "address"
        }
      ],
      "stateMutability": "view",
      "type": "function"
    },
    {
      "inputs": [],
      "name": "protocol",
      "outputs": [
        {
          "internalType": "address",
          "name": "",
          "type": "address"
        }
      ],
      "stateMutability": "view",
      "type": "function"
    },
    {
      "inputs": [],
      "name": "renounceOwnership",
      "outputs": [],
      "stateMutability": "nonpayable",
      "type": "function"
    },
    {
      "inputs": [
        {
          "internalType": "address",
          "name": "_protocol",
          "type": "address"
        }
      ],
      "name": "setProtocol",
      "outputs": [],
      "stateMutability": "nonpayable",
      "type": "function"
    },
    {
      "inputs": [
        {
          "internalType": "address",
          "name": "_referredTrader",
          "type": "address"
        },
        {
          "internalType": "bytes32",
          "name": "_hash",
          "type": "bytes32"
        }
      ],
      "name": "setReferred",
      "outputs": [],
      "stateMutability": "nonpayable",
      "type": "function"
    },
    {
      "inputs": [
        {
          "internalType": "address",
          "name": "newOwner",
          "type": "address"
        }
      ],
      "name": "transferOwnership",
      "outputs": [],
      "stateMutability": "nonpayable",
      "type": "function"
    }
  ],
  "bytecode": "608060405234801561001057600080fd5b5061001a3361001f565b61006f565b600080546001600160a01b038381166001600160a01b0319831681178455604051919092169283917f8be0079c531659141344cd1fd0a4f28419497f9722a3daafe3b4186f6b6457e09190a35050565b6108d98061007e6000396000f3fe608060405234801561001057600080fd5b506004361061009e5760003560e01c80638ce74426116100665780638ce744261461012c5780638da5cb5b1461013f578063d113f04c14610150578063e20c854814610187578063f2fde38b1461019a57600080fd5b80630a9d793d146100a357806330330615146100b8578063715018a6146100cb57806382e58d51146100d3578063888cda9d14610119575b600080fd5b6100b66100b136600461061c565b6101ad565b005b6100b66100c636600461063e565b6101d7565b6100b66102a1565b6100fc6100e136600461063e565b6000908152600260205260409020546001600160a01b031690565b6040516001600160a01b0390911681526020015b60405180910390f35b6100b661012736600461078f565b6102b5565b6001546100fc906001600160a01b031681565b6000546001600160a01b03166100fc565b61017961015e36600461061c565b6001600160a01b031660009081526003602052604090205490565b604051908152602001610110565b6100b661019536600461083c565b6103f7565b6100b66101a836600461061c565b6104dd565b6101b5610556565b600180546001600160a01b0319166001600160a01b0392909216919091179055565b6000818152600260205260409020546001600160a01b0316156102415760405162461bcd60e51b815260206004820152601c60248201527f526566657272616c20636f646520616c7265616479206578697374730000000060448201526064015b60405180910390fd5b60008181526002602090815260409182902080546001600160a01b03191633908117909155825190815290810183905281517f5a56e3c54cb51afda5c8ffe89dae0adf7d78e99319eaeadd2539e2ec00cdf043929181900390910190a150565b6102a9610556565b6102b360006105b0565b565b6102bd610556565b600054600160a01b900460ff16156102d457600080fd5b6000805460ff60a01b1916600160a01b1781558451835190915b828110156103735786818151811061030857610308610866565b60200260200101516002600088848151811061032657610326610866565b6020026020010151815260200190815260200160002060006101000a8154816001600160a01b0302191690836001600160a01b03160217905550808061036b9061087c565b9150506102ee565b5060005b818110156103ee5783818151811061039157610391610866565b6020026020010151600360008784815181106103af576103af610866565b60200260200101516001600160a01b03166001600160a01b031681526020019081526020016000208190555080806103e69061087c565b915050610377565b50505050505050565b6001546001600160a01b0316336001600160a01b0316146104465760405162461bcd60e51b815260206004820152600960248201526808541c9bdd1bd8dbdb60ba1b6044820152606401610238565b6001600160a01b0382166000908152600360205260409020546104d9576000818152600260205260409020546001600160a01b038381169116146104d9576001600160a01b038216600081815260036020908152604091829020849055815192835282018390527f37c9ec64695b190bd0f33ba0a1eba4006268223654349489b4a8b5cb13ffcd89910160405180910390a15b5050565b6104e5610556565b6001600160a01b03811661054a5760405162461bcd60e51b815260206004820152602660248201527f4f776e61626c653a206e6577206f776e657220697320746865207a65726f206160448201526564647265737360d01b6064820152608401610238565b610553816105b0565b50565b6000546001600160a01b031633146102b35760405162461bcd60e51b815260206004820181905260248201527f4f776e61626c653a2063616c6c6572206973206e6f7420746865206f776e65726044820152606401610238565b600080546001600160a01b038381166001600160a01b0319831681178455604051919092169283917f8be0079c531659141344cd1fd0a4f28419497f9722a3daafe3b4186f6b6457e09190a35050565b80356001600160a01b038116811461061757600080fd5b919050565b60006020828403121561062e57600080fd5b61063782610600565b9392505050565b60006020828403121561065057600080fd5b5035919050565b634e487b7160e01b600052604160045260246000fd5b604051601f8201601f1916810167ffffffffffffffff8111828210171561069657610696610657565b604052919050565b600067ffffffffffffffff8211156106b8576106b8610657565b5060051b60200190565b600082601f8301126106d357600080fd5b813560206106e86106e38361069e565b61066d565b82815260059290921b8401810191818101908684111561070757600080fd5b8286015b848110156107295761071c81610600565b835291830191830161070b565b509695505050505050565b600082601f83011261074557600080fd5b813560206107556106e38361069e565b82815260059290921b8401810191818101908684111561077457600080fd5b8286015b848110156107295780358352918301918301610778565b600080600080608085870312156107a557600080fd5b843567ffffffffffffffff808211156107bd57600080fd5b6107c9888389016106c2565b955060208701359150808211156107df57600080fd5b6107eb88838901610734565b9450604087013591508082111561080157600080fd5b61080d888389016106c2565b9350606087013591508082111561082357600080fd5b5061083087828801610734565b91505092959194509250565b6000806040838503121561084f57600080fd5b61085883610600565b946020939093013593505050565b634e487b7160e01b600052603260045260246000fd5b60006001820161089c57634e487b7160e01b600052601160045260246000fd5b506001019056fea2646970667358221220cea3a78c79623a70ee287127180c6ac427ccf4c2fb3bb53311b8dd74eebb908564736f6c63430008130033",
  "bytecodeSha1": "8c0640c476d98afcaf7d9509b7d3754e64da99f6",
  "compiler": {
    "evm_version": "istanbul",
    "optimizer": {
      "enabled": true,
      "runs": 200
    },
    "version": "0.8.19+commit.7dd6d404"
  },
  "contractName": "Referrals",
  "language": "Solidity",
  "natspec": {
    "author": "JohnnyTime (https://smartcontractshacking.com)",
    "kind": "dev",
    "methods": {
      "createReferralCode(bytes32)": {
        "notice": "used by any address to create a ref code",
        "params": {
          "_hash": "hash of the string code"
        }
      },
      "initRefs(address[],bytes32[],address[],bytes32[])": {
        "notice": "deprecated"
      },
      "owner()": {
        "details": "Returns the address of the current owner."
      },
      "renounceOwnership()": {
        "details": "Leaves the contract without owner. It will not be possible to call `onlyOwner` functions anymore. Can only be called by the current owner. NOTE: Renouncing ownership will leave the contract without an owner, thereby removing any functionality that is only available to the owner."
      },
      "setReferred(address,bytes32)": {
        "details": "only callable by trading",
        "notice": "set the ref data",
        "params": {
          "_hash": "ref hash",
          "_referredTrader": "address of the trader"
        }
      },
      "transferOwnership(address)": {
        "details": "Transfers ownership of the contract to a new account (`newOwner`). Can only be called by the current owner."
      }
    },
    "title": "Referrals",
    "version": 1
  },
  "opcodes": "PUSH1 0x80 PUSH1 0x40 MSTORE CALLVALUE DUP1 ISZERO PUSH2 0x10 JUMPI PUSH1 0x0 DUP1 REVERT JUMPDEST POP PUSH1 0x4 CALLDATASIZE LT PUSH2 0x9E JUMPI PUSH1 0x0 CALLDATALOAD PUSH1 0xE0 SHR DUP1 PUSH4 0x8CE74426 GT PUSH2 0x66 JUMPI DUP1 PUSH4 0x8CE74426 EQ PUSH2 0x12C JUMPI DUP1 PUSH4 0x8DA5CB5B EQ PUSH2 0x13F JUMPI DUP1 PUSH4 0xD113F04C EQ PUSH2 0x150 JUMPI DUP1 PUSH4 0xE20C8548 EQ PUSH2 0x187 JUMPI DUP1 PUSH4 0xF2FDE38B EQ PUSH2 0x19A JUMPI PUSH1 0x0 DUP1 REVERT JUMPDEST DUP1 PUSH4 0xA9D793D EQ PUSH2 0xA3 JUMPI DUP1 PUSH4 0x30330615 EQ PUSH2 0xB8 JUMPI DUP1 PUSH4 0x715018A6 EQ PUSH2 0xCB JUMPI DUP1 PUSH4 0x82E58D51 EQ PUSH2 0xD3 JUMPI DUP1 PUSH4 0x888CDA9D EQ PUSH2 0x119 JUMPI JUMPDEST PUSH1 0x0 DUP1 REVERT JUMPDEST PUSH2 0xB6 PUSH2 0xB1 CALLDATASIZE PUSH1 0x4 PUSH2 0x61C JUMP JUMPDEST PUSH2 0x1AD JUMP JUMPDEST STOP JUMPDEST PUSH2 0xB6 PUSH2 0xC6 CALLDATASIZE PUSH1 0x4 PUSH2 0x63E JUMP JUMPDEST PUSH2 0x1D7 JUMP JUMPDEST PUSH2 0xB6 PUSH2 0x2A1 JUMP JUMPDEST PUSH2 0xFC PUSH2 0xE1 CALLDATASIZE PUSH1 0x4 PUSH2 0x63E JUMP JUMPDEST PUSH1 0x0 SWAP1 DUP2 MSTORE PUSH1 0x2 PUSH1 0x20 MSTORE PUSH1 0x40 SWAP1 KECCAK256 SLOAD PUSH1 0x1 PUSH1 0x1 PUSH1 0xA0 SHL SUB AND SWAP1 JUMP JUMPDEST PUSH1 0x40 MLOAD PUSH1 0x1 PUSH1 0x1 PUSH1 0xA0 SHL SUB SWAP1 SWAP2 AND DUP2 MSTORE PUSH1 0x20 ADD JUMPDEST PUSH1 0x40 MLOAD DUP1 SWAP2 SUB SWAP1 RETURN JUMPDEST PUSH2 0xB6 PUSH2 0x127 CALLDATASIZE PUSH1 0x4 PUSH2 0x78F JUMP JUMPDEST PUSH2 0x2B5 JUMP JUMPDEST PUSH1 0x1 SLOAD PUSH2 0xFC SWAP1 PUSH1 0x1 PUSH1 0x1 PUSH1 0xA0 SHL SUB AND DUP2 JUMP JUMPDEST PUSH1 0x0 SLOAD PUSH1 0x1 PUSH1 0x1 PUSH1 0xA0 SHL SUB AND PUSH2 0xFC JUMP JUMPDEST PUSH2 0x179 PUSH2 0x15E CALLDATASIZE PUSH1 0x4 PUSH2 0x61C JUMP JUMPDEST PUSH1 0x1 PUSH1 0x1 PUSH1 0xA0 SHL SUB AND PUSH1 0x0 SWAP1 DUP2 MSTORE PUSH1 0x3 PUSH1 0x20 MSTORE PUSH1 0x40 SWAP1 KECCAK256 SLOAD SWAP1 JUMP JUMPDEST PUSH1 0x40 MLOAD SWAP1 DUP2 MSTORE PUSH1 0x20 ADD PUSH2 0x110 JUMP JUMPDEST PUSH2 0xB6 PUSH2 0x195 CALLDATASIZE PUSH1 0x4 PUSH2 0x83C JUMP JUMPDEST PUSH2 0x3F7 JUMP JUMPDEST PUSH2 0xB6 PUSH2 0x1A8 CALLDATASIZE PUSH1 0x4 PUSH2 0x61C JUMP JUMPDEST PUSH2 0x4DD JUMP JUMPDEST PUSH2 0x1B5 PUSH2 0x556 JUMP JUMPDEST PUSH1 0x1 DUP1 SLOAD PUSH1 0x1 PUSH1 0x1 PUSH1 0xA0 SHL SUB NOT AND PUSH1 0x1 PUSH1 0x1 PUSH1 0xA0 SHL SUB SWAP3 SWAP1 SWAP3 AND SWAP2 SWAP1 SWAP2 OR SWAP1 SSTORE JUMP JUMPDEST PUSH1 0x0 DUP2 DUP2 MSTORE PUSH1 0x2 PUSH1 0x20 MSTORE PUSH1 0x40 SWAP1 KECCAK256 SLOAD PUSH1 0x1 PUSH1 0x1 PUSH1 0xA0 SHL SUB AND ISZERO PUSH2 0x241 JUMPI PUSH1 0x40 MLOAD PUSH3 0x461BCD PUSH1 0xE5 SHL DUP2 MSTORE PUSH1 0x20 PUSH1 0x4 DUP3 ADD MSTORE PUSH1 0x1C PUSH1 0x24 DUP3 ADD MSTORE PUSH32 0x526566657272616C20636F646520616C72656164792065786973747300000000 PUSH1 0x44 DUP3 ADD MSTORE PUSH1 0x64 ADD JUMPDEST PUSH1 0x40 MLOAD DUP1 SWAP2 SUB SWAP1 REVERT JUMPDEST PUSH1 0x0 DUP2 DUP2 MSTORE PUSH1 0x2 PUSH1 0x20 SWAP1 DUP2 MSTORE PUSH1 0x40 SWAP2 DUP3 SWAP1 KECCAK256 DUP1 SLOAD PUSH1 0x1 PUSH1 0x1 PUSH1 0xA0 SHL SUB NOT AND CALLER SWAP1 DUP2 OR SWAP1 SWAP2 SSTORE DUP3 MLOAD SWAP1 DUP2 MSTORE SWAP1 DUP2 ADD DUP4 SWAP1 MSTORE DUP2 MLOAD PUSH32 0x5A56E3C54CB51AFDA5C8FFE89DAE0ADF7D78E99319EAEADD2539E2EC00CDF043 SWAP3 SWAP2 DUP2 SWAP1 SUB SWAP1 SWAP2 ADD SWAP1 LOG1 POP JUMP JUMPDEST PUSH2 0x2A9 PUSH2 0x556 JUMP JUMPDEST PUSH2 0x2B3 PUSH1 0x0 PUSH2 0x5B0 JUMP JUMPDEST JUMP JUMPDEST PUSH2 0x2BD PUSH2 0x556 JUMP JUMPDEST PUSH1 0x0 SLOAD PUSH1 0x1 PUSH1 0xA0 SHL SWAP1 DIV PUSH1 0xFF AND ISZERO PUSH2 0x2D4 JUMPI PUSH1 0x0 DUP1 REVERT JUMPDEST PUSH1 0x0 DUP1 SLOAD PUSH1 0xFF PUSH1 0xA0 SHL NOT AND PUSH1 0x1 PUSH1 0xA0 SHL OR DUP2 SSTORE DUP5 MLOAD DUP4 MLOAD SWAP1 SWAP2 JUMPDEST DUP3 DUP2 LT ISZERO PUSH2 0x373 JUMPI DUP7 DUP2 DUP2 MLOAD DUP2 LT PUSH2 0x308 JUMPI PUSH2 0x308 PUSH2 0x866 JUMP JUMPDEST PUSH1 0x20 MUL PUSH1 0x20 ADD ADD MLOAD PUSH1 0x2 PUSH1 0x0 DUP9 DUP5 DUP2 MLOAD DUP2 LT PUSH2 0x326 JUMPI PUSH2 0x326 PUSH2 0x866 JUMP JUMPDEST PUSH1 0x20 MUL PUSH1 0x20 ADD ADD MLOAD DUP2 MSTORE PUSH1 0x20 ADD SWAP1 DUP2 MSTORE PUSH1 0x20 ADD PUSH1 0x0 KECCAK256 PUSH1 0x0 PUSH2 0x100 EXP DUP2 SLOAD DUP2 PUSH1 0x1 PUSH1 0x1 PUSH1 0xA0 SHL SUB MUL NOT AND SWAP1 DUP4 PUSH1 0x1 PUSH1 0x1 PUSH1 0xA0 SHL SUB AND MUL OR SWAP1 SSTORE POP DUP1 DUP1 PUSH2 0x36B SWAP1 PUSH2 0x87C JUMP JUMPDEST SWAP2 POP POP PUSH2 0x2EE JUMP JUMPDEST POP PUSH1 0x0 JUMPDEST DUP2 DUP2 LT ISZERO PUSH2 0x3EE JUMPI DUP4 DUP2 DUP2 MLOAD DUP2 LT PUSH2 0x391 JUMPI PUSH2 0x391 PUSH2 0x866 JUMP JUMPDEST PUSH1 0x20 MUL PUSH1 0x20 ADD ADD MLOAD PUSH1 0x3 PUSH1 0x0 DUP8 DUP5 DUP2 MLOAD DUP2 LT PUSH2 0x3AF JUMPI PUSH2 0x3AF PUSH2 0x866 JUMP JUMPDEST PUSH1 0x20 MUL PUSH1 0x20 ADD ADD MLOAD PUSH1 0x1 PUSH1 0x1 PUSH1 0xA0 SHL SUB AND PUSH1 0x1 PUSH1 0x1 PUSH1 0xA0 SHL SUB AND DUP2 MSTORE PUSH1 0x20 ADD SWAP1 DUP2 MSTORE PUSH1 0x20 ADD PUSH1 0x0 KECCAK256 DUP2 SWAP1 SSTORE POP DUP1 DUP1 PUSH2 0x3E6 SWAP1 PUSH2 0x87C JUMP JUMPDEST SWAP2 POP POP PUSH2 0x377 JUMP JUMPDEST POP POP POP POP POP POP POP JUMP JUMPDEST PUSH1 0x1 SLOAD PUSH1 0x1 PUSH1 0x1 PUSH1 0xA0 SHL SUB AND CALLER PUSH1 0x1 PUSH1 0x1 PUSH1 0xA0 SHL SUB AND EQ PUSH2 0x446 JUMPI PUSH1 0x40 MLOAD PUSH3 0x461BCD PUSH1 0xE5 SHL DUP2 MSTORE PUSH1 0x20 PUSH1 0x4 DUP3 ADD MSTORE PUSH1 0x9 PUSH1 0x24 DUP3 ADD MSTORE PUSH9 0x8541C9BDD1BD8DBDB PUSH1 0xBA SHL PUSH1 0x44 DUP3 ADD MSTORE PUSH1 0x64 ADD PUSH2 0x238 JUMP JUMPDEST PUSH1 0x1 PUSH1 0x1 PUSH1 0xA0 SHL SUB DUP3 AND PUSH1 0x0 SWAP1 DUP2 MSTORE PUSH1 0x3 PUSH1 0x20 MSTORE PUSH1 0x40 SWAP1 KECCAK256 SLOAD PUSH2 0x4D9 JUMPI PUSH1 0x0 DUP2 DUP2 MSTORE PUSH1 0x2 PUSH1 0x20 MSTORE PUSH1 0x40 SWAP1 KECCAK256 SLOAD PUSH1 0x1 PUSH1 0x1 PUSH1 0xA0 SHL SUB DUP4 DUP2 AND SWAP2 AND EQ PUSH2 0x4D9 JUMPI PUSH1 0x1 PUSH1 0x1 PUSH1 0xA0 SHL SUB DUP3 AND PUSH1 0x0 DUP2 DUP2 MSTORE PUSH1 0x3 PUSH1 0x20 SWAP1 DUP2 MSTORE PUSH1 0x40 SWAP2 DUP3 SWAP1 KECCAK256 DUP5 SWAP1 SSTORE DUP2 MLOAD SWAP3 DUP4 MSTORE DUP3 ADD DUP4 SWAP1 MSTORE PUSH32 0x37C9EC64695B190BD0F33BA0A1EBA4006268223654349489B4A8B5CB13FFCD89 SWAP2 ADD PUSH1 0x40 MLOAD DUP1 SWAP2 SUB SWAP1 LOG1 JUMPDEST POP POP JUMP JUMPDEST PUSH2 0x4E5 PUSH2 0x556 JUMP JUMPDEST PUSH1 0x1 PUSH1 0x1 PUSH1 0xA0 SHL SUB DUP2 AND PUSH2 0x54A JUMPI PUSH1 0x40 MLOAD PUSH3 0x461BCD PUSH1 0xE5 SHL DUP2 MSTORE PUSH1 0x20 PUSH1 0x4 DUP3 ADD MSTORE PUSH1 0x26 PUSH1 0x24 DUP3 ADD MSTORE PUSH32 0x4F776E61626C653A206E6577206F776E657220697320746865207A65726F2061 PUSH1 0x44 DUP3 ADD MSTORE PUSH6 0x646472657373 PUSH1 0xD0 SHL PUSH1 0x64 DUP3 ADD MSTORE PUSH1 0x84 ADD PUSH2 0x238 JUMP JUMPDEST PUSH2 0x553 DUP2 PUSH2 0x5B0 JUMP JUMPDEST POP JUMP JUMPDEST PUSH1 0x0 SLOAD PUSH1 0x1 PUSH1 0x1 PUSH1 0xA0 SHL SUB AND CALLER EQ PUSH2 0x2B3 JUMPI PUSH1 0x40 MLOAD PUSH3 0x461BCD PUSH1 0xE5 SHL DUP2 MSTORE PUSH1 0x20 PUSH1 0x4 DUP3 ADD DUP2 SWAP1 MSTORE PUSH1 0x24 DUP3 ADD MSTORE PUSH32 0x4F776E61626C653A2063616C6C6572206973206E6F7420746865206F776E6572 PUSH1 0x44 DUP3 ADD MSTORE PUSH1 0x64 ADD PUSH2 0x238 JUMP JUMPDEST PUSH1 0x0 DUP1 SLOAD PUSH1 0x1 PUSH1 0x1 PUSH1 0xA0 SHL SUB DUP4 DUP2 AND PUSH1 0x1 PUSH1 0x1 PUSH1 0xA0 SHL SUB NOT DUP4 AND DUP2 OR DUP5 SSTORE PUSH1 0x40 MLOAD SWAP2 SWAP1 SWAP3 AND SWAP3 DUP4 SWAP2 PUSH32 0x8BE0079C531659141344CD1FD0A4F28419497F9722A3DAAFE3B4186F6B6457E0 SWAP2 SWAP1 LOG3 POP POP JUMP JUMPDEST DUP1 CALLDATALOAD PUSH1 0x1 PUSH1 0x1 PUSH1 0xA0 SHL SUB DUP2 AND DUP2 EQ PUSH2 0x617 JUMPI PUSH1 0x0 DUP1 REVERT JUMPDEST SWAP2 SWAP1 POP JUMP JUMPDEST PUSH1 0x0 PUSH1 0x20 DUP3 DUP5 SUB SLT ISZERO PUSH2 0x62E JUMPI PUSH1 0x0 DUP1 REVERT JUMPDEST PUSH2 0x637 DUP3 PUSH2 0x600 JUMP JUMPDEST SWAP4 SWAP3 POP POP POP JUMP JUMPDEST PUSH1 0x0 PUSH1 0x20 DUP3 DUP5 SUB SLT ISZERO PUSH2 0x650 JUMPI PUSH1 0x0 DUP1 REVERT JUMPDEST POP CALLDATALOAD SWAP2 SWAP1 POP JUMP JUMPDEST PUSH4 0x4E487B71 PUSH1 0xE0 SHL PUSH1 0x0 MSTORE PUSH1 0x41 PUSH1 0x4 MSTORE PUSH1 0x24 PUSH1 0x0 REVERT JUMPDEST PUSH1 0x40 MLOAD PUSH1 0x1F DUP3 ADD PUSH1 0x1F NOT AND DUP2 ADD PUSH8 0xFFFFFFFFFFFFFFFF DUP2 GT DUP3 DUP3 LT OR ISZERO PUSH2 0x696 JUMPI PUSH2 0x696 PUSH2 0x657 JUMP JUMPDEST PUSH1 0x40 MSTORE SWAP2 SWAP1 POP JUMP JUMPDEST PUSH1 0x0 PUSH8 0xFFFFFFFFFFFFFFFF DUP3 GT ISZERO PUSH2 0x6B8 JUMPI PUSH2 0x6B8 PUSH2 0x657 JUMP JUMPDEST POP PUSH1 0x5 SHL PUSH1 0x20 ADD SWAP1 JUMP JUMPDEST PUSH1 0x0 DUP3 PUSH1 0x1F DUP4 ADD SLT PUSH2 0x6D3 JUMPI PUSH1 0x0 DUP1 REVERT JUMPDEST DUP2 CALLDATALOAD PUSH1 0x20 PUSH2 0x6E8 PUSH2 0x6E3 DUP4 PUSH2 0x69E JUMP JUMPDEST PUSH2 0x66D JUMP JUMPDEST DUP3 DUP2 MSTORE PUSH1 0x5 SWAP3 SWAP1 SWAP3 SHL DUP5 ADD DUP2 ADD SWAP2 DUP2 DUP2 ADD SWAP1 DUP7 DUP5 GT ISZERO PUSH2 0x707 JUMPI PUSH1 0x0 DUP1 REVERT JUMPDEST DUP3 DUP7 ADD JUMPDEST DUP5 DUP2 LT ISZERO PUSH2 0x729 JUMPI PUSH2 0x71C DUP2 PUSH2 0x600 JUMP JUMPDEST DUP4 MSTORE SWAP2 DUP4 ADD SWAP2 DUP4 ADD PUSH2 0x70B JUMP JUMPDEST POP SWAP7 SWAP6 POP POP POP POP POP POP JUMP JUMPDEST PUSH1 0x0 DUP3 PUSH1 0x1F DUP4 ADD SLT PUSH2 0x745 JUMPI PUSH1 0x0 DUP1 REVERT JUMPDEST DUP2 CALLDATALOAD PUSH1 0x20 PUSH2 0x755 PUSH2 0x6E3 DUP4 PUSH2 0x69E JUMP JUMPDEST DUP3 DUP2 MSTORE PUSH1 0x5 SWAP3 SWAP1 SWAP3 SHL DUP5 ADD DUP2 ADD SWAP2 DUP2 DUP2 ADD SWAP1 DUP7 DUP5 GT ISZERO PUSH2 0x774 JUMPI PUSH1 0x0 DUP1 REVERT JUMPDEST DUP3 DUP7 ADD JUMPDEST DUP5 DUP2 LT ISZERO PUSH2 0x729 JUMPI DUP1 CALLDATALOAD DUP4 MSTORE SWAP2 DUP4 ADD SWAP2 DUP4 ADD PUSH2 0x778 JUMP JUMPDEST PUSH1 0x0 DUP1 PUSH1 0x0 DUP1 PUSH1 0x80 DUP6 DUP8 SUB SLT ISZERO PUSH2 0x7A5 JUMPI PUSH1 0x0 DUP1 REVERT JUMPDEST DUP5 CALLDATALOAD PUSH8 0xFFFFFFFFFFFFFFFF DUP1 DUP3 GT ISZERO PUSH2 0x7BD JUMPI PUSH1 0x0 DUP1 REVERT JUMPDEST PUSH2 0x7C9 DUP9 DUP4 DUP10 ADD PUSH2 0x6C2 JUMP JUMPDEST SWAP6 POP PUSH1 0x20 DUP8 ADD CALLDATALOAD SWAP2 POP DUP1 DUP3 GT ISZERO PUSH2 0x7DF JUMPI PUSH1 0x0 DUP1 REVERT JUMPDEST PUSH2 0x7EB DUP9 DUP4 DUP10 ADD PUSH2 0x734 JUMP JUMPDEST SWAP5 POP PUSH1 0x40 DUP8 ADD CALLDATALOAD SWAP2 POP DUP1 DUP3 GT ISZERO PUSH2 0x801 JUMPI PUSH1 0x0 DUP1 REVERT JUMPDEST PUSH2 0x80D DUP9 DUP4 DUP10 ADD PUSH2 0x6C2 JUMP JUMPDEST SWAP4 POP PUSH1 0x60 DUP8 ADD CALLDATALOAD SWAP2 POP DUP1 DUP3 GT ISZERO PUSH2 0x823 JUMPI PUSH1 0x0 DUP1 REVERT JUMPDEST POP PUSH2 0x830 DUP8 DUP3 DUP9 ADD PUSH2 0x734 JUMP JUMPDEST SWAP2 POP POP SWAP3 SWAP6 SWAP2 SWAP5 POP SWAP3 POP JUMP JUMPDEST PUSH1 0x0 DUP1 PUSH1 0x40 DUP4 DUP6 SUB SLT ISZERO PUSH2 0x84F JUMPI PUSH1 0x0 DUP1 REVERT JUMPDEST PUSH2 0x858 DUP4 PUSH2 0x600 JUMP JUMPDEST SWAP5 PUSH1 0x20 SWAP4 SWAP1 SWAP4 ADD CALLDATALOAD SWAP4 POP POP POP JUMP JUMPDEST PUSH4 0x4E487B71 PUSH1 0xE0 SHL PUSH1 0x0 MSTORE PUSH1 0x32 PUSH1 0x4 MSTORE PUSH1 0x24 PUSH1 0x0 REVERT JUMPDEST PUSH1 0x0 PUSH1 0x1 DUP3 ADD PUSH2 0x89C JUMPI PUSH4 0x4E487B71 PUSH1 0xE0 SHL PUSH1 0x0 MSTORE PUSH1 0x11 PUSH1 0x4 MSTORE PUSH1 0x24 PUSH1 0x0 REVERT JUMPDEST POP PUSH1 0x1 ADD SWAP1 JUMP INVALID LOG2 PUSH5 0x6970667358 0x22 SLT KECCAK256 0xCE LOG3 0xA7 DUP13 PUSH26 0x623A70EE287127180C6AC427CCF4C2FB3BB53311B8DD74EEBB90 DUP6 PUSH5 0x736F6C6343 STOP ADDMOD SGT STOP CALLER ",
  "sha1": "7b6b22e71d93ce373c196fd8be73512d388fb5f6",
  "source": "// SCH Course Copyright Policy (C): DO-NOT-SHARE-WITH-ANYONE\n// https://smartcontractshacking.com/#copyright-policy\npragma solidity ^0.8.13;\n\nimport \"@openzeppelin/contracts/access/Ownable.sol\";\n\n/**\n * @title Referrals\n * @author JohnnyTime (https://smartcontractshacking.com)\n */\ncontract Referrals is Ownable {\n    bool private isInit;\n\n    address public protocol;\n\n    mapping(bytes32 => address) private _referral;\n    mapping(address => bytes32) private _referred;\n\n    /**\n     * @notice used by any address to create a ref code\n     * @param _hash hash of the string code\n     */\n    function createReferralCode(bytes32 _hash) external {\n        require(_referral[_hash] == address(0), \"Referral code already exists\");\n        _referral[_hash] = _msgSender();\n        emit ReferralCreated(_msgSender(), _hash);\n    }\n\n    /**\n     * @notice set the ref data\n     * @dev only callable by trading\n     * @param _referredTrader address of the trader\n     * @param _hash ref hash\n     */\n    function setReferred(address _referredTrader, bytes32 _hash)\n        external\n        onlyProtocol\n    {\n        if (_referred[_referredTrader] != bytes32(0)) {\n            return;\n        }\n        if (_referredTrader == _referral[_hash]) {\n            return;\n        }\n        _referred[_referredTrader] = _hash;\n        emit Referred(_referredTrader, _hash);\n    }\n\n    function getReferred(address _trader) external view returns (bytes32) {\n        return _referred[_trader];\n    }\n\n    function getReferral(bytes32 _hash) external view returns (address) {\n        return _referral[_hash];\n    }\n\n    // Owner\n    function setProtocol(address _protocol) external onlyOwner {\n        protocol = _protocol;\n    }\n\n    /**\n     * @notice deprecated\n     */\n    function initRefs(\n        address[] memory _codeOwners,\n        bytes32[] memory _ownedCodes,\n        address[] memory _referredA,\n        bytes32[] memory _referredTo\n    ) external onlyOwner {\n        require(!isInit);\n        isInit = true;\n        uint256 _codeOwnersL = _codeOwners.length;\n        uint256 _referredAL = _referredA.length;\n        for (uint256 i = 0; i < _codeOwnersL; i++) {\n            _referral[_ownedCodes[i]] = _codeOwners[i];\n        }\n        for (uint256 i = 0; i < _referredAL; i++) {\n            _referred[_referredA[i]] = _referredTo[i];\n        }\n    }\n\n    // Modifiers\n\n    modifier onlyProtocol() {\n        require(_msgSender() == address(protocol), \"!Protocol\");\n        _;\n    }\n\n    event ReferralCreated(address _referrer, bytes32 _hash);\n    event Referred(address _referredTrader, bytes32 _hash);\n}\n",
  "sourcePath": "contracts/frontrunning-2/Referrals.sol",
  "type": "contract"
}