{
  "abi": [
    {
      "inputs": [],
      "name": "currentRenter",
      "outputs": [
        {
          "internalType": "uint256",
          "name": "",
          "type": "uint256"
        }
      ],
      "stateMutability": "view",
      "type": "function"
    },
    {
      "inputs": [
        {
          "internalType": "uint256",
          "name": "_renterId",
          "type": "uint256"
        }
      ],
      "name": "setCurrentRenter",
      "outputs": [],
      "stateMutability": "nonpayable",
      "type": "function"
    }
  ],
  "bytecode": "608060405234801561001057600080fd5b5060b18061001f6000396000f3fe6080604052348015600f57600080fd5b506004361060325760003560e01c8063242f17a91460375780632c69f712146051575b600080fd5b603f60005481565b60405190815260200160405180910390f35b6061605c3660046063565b600055565b005b600060208284031215607457600080fd5b503591905056fea2646970667358221220d7550ed1d54b14c083bb006cc1245bd9fdbb22e78a10093779da2f842c7b868264736f6c634300080d0033",
  "bytecodeSha1": "f54eeec32dcab6b9d3d661e6ec5e8c3a44fea3eb",
  "compiler": {
    "evm_version": "istanbul",
    "optimizer": {
      "enabled": true,
      "runs": 200
    },
    "version": "0.8.13+commit.abaa5c0e"
  },
  "contractName": "RentingLibrary",
  "language": "Solidity",
  "natspec": {
    "kind": "dev",
    "methods": {},
    "version": 1
  },
  "opcodes": "PUSH1 0x80 PUSH1 0x40 MSTORE CALLVALUE DUP1 ISZERO PUSH1 0xF JUMPI PUSH1 0x0 DUP1 REVERT JUMPDEST POP PUSH1 0x4 CALLDATASIZE LT PUSH1 0x32 JUMPI PUSH1 0x0 CALLDATALOAD PUSH1 0xE0 SHR DUP1 PUSH4 0x242F17A9 EQ PUSH1 0x37 JUMPI DUP1 PUSH4 0x2C69F712 EQ PUSH1 0x51 JUMPI JUMPDEST PUSH1 0x0 DUP1 REVERT JUMPDEST PUSH1 0x3F PUSH1 0x0 SLOAD DUP2 JUMP JUMPDEST PUSH1 0x40 MLOAD SWAP1 DUP2 MSTORE PUSH1 0x20 ADD PUSH1 0x40 MLOAD DUP1 SWAP2 SUB SWAP1 RETURN JUMPDEST PUSH1 0x61 PUSH1 0x5C CALLDATASIZE PUSH1 0x4 PUSH1 0x63 JUMP JUMPDEST PUSH1 0x0 SSTORE JUMP JUMPDEST STOP JUMPDEST PUSH1 0x0 PUSH1 0x20 DUP3 DUP5 SUB SLT ISZERO PUSH1 0x74 JUMPI PUSH1 0x0 DUP1 REVERT JUMPDEST POP CALLDATALOAD SWAP2 SWAP1 POP JUMP INVALID LOG2 PUSH5 0x6970667358 0x22 SLT KECCAK256 0xD7 SSTORE 0xE 0xD1 0xD5 0x4B EQ 0xC0 DUP4 0xBB STOP PUSH13 0xC1245BD9FDBB22E78A10093779 0xDA 0x2F DUP5 0x2C PUSH28 0x868264736F6C634300080D0033000000000000000000000000000000 ",
  "sha1": "db9e06698f3e16a53af7b1fed277cbac12f5c666",
  "source": "// SPDX-License-Identifier: MIT\npragma solidity 0.8.13;\n\ncontract RentingLibrary {\n    uint256 public currentRenter;\n\n    function setCurrentRenter(uint256 _renterId) public {\n        currentRenter = _renterId;\n    }\n}",
  "sourcePath": "contracts/call-attacks-2/RentingLibrary.sol",
  "type": "contract"
}