{
  "abi": [
    {
      "inputs": [
        {
          "internalType": "address",
          "name": "_unrestrictedOwnerAddress",
          "type": "address"
        }
      ],
      "stateMutability": "nonpayable",
      "type": "constructor"
    },
    {
      "stateMutability": "nonpayable",
      "type": "fallback"
    },
    {
      "inputs": [],
      "name": "manager",
      "outputs": [
        {
          "internalType": "address",
          "name": "",
          "type": "address"
        }
      ],
      "stateMutability": "view",
      "type": "function"
    },
    {
      "inputs": [],
      "name": "owner",
      "outputs": [
        {
          "internalType": "address",
          "name": "",
          "type": "address"
        }
      ],
      "stateMutability": "view",
      "type": "function"
    },
    {
      "inputs": [],
      "name": "unrestrictedOwnerAddress",
      "outputs": [
        {
          "internalType": "address",
          "name": "",
          "type": "address"
        }
      ],
      "stateMutability": "view",
      "type": "function"
    },
    {
      "inputs": [
        {
          "internalType": "address",
          "name": "_newOwner",
          "type": "address"
        },
        {
          "internalType": "address",
          "name": "_newManager",
          "type": "address"
        }
      ],
      "name": "updateSettings",
      "outputs": [],
      "stateMutability": "nonpayable",
      "type": "function"
    }
  ],
  "bytecode": "608060405234801561001057600080fd5b5060405161030238038061030283398101604081905261002f91610069565b600280546001600160a01b039092166001600160a01b03199283161790556000805482163390811790915560018054909216179055610099565b60006020828403121561007b57600080fd5b81516001600160a01b038116811461009257600080fd5b9392505050565b61025a806100a86000396000f3fe608060405234801561001057600080fd5b506004361061004c5760003560e01c8063481c6a75146100ed5780638da5cb5b1461011c57806394e569db1461012f578063b88947ff14610142575b6002546040516000916001600160a01b03169061006c90839036906101c5565b600060405180830381855af49150503d80600081146100a7576040519150601f19603f3d011682016040523d82523d6000602084013e6100ac565b606091505b50509050806100eb5760405162461bcd60e51b815260206004820152600660248201526519985a5b195960d21b60448201526064015b60405180910390fd5b005b600154610100906001600160a01b031681565b6040516001600160a01b03909116815260200160405180910390f35b600054610100906001600160a01b031681565b600254610100906001600160a01b031681565b6100eb6101503660046101f1565b6000546001600160a01b031633146101975760405162461bcd60e51b815260206004820152600a6024820152694e6f74206f776e65722160b01b60448201526064016100e2565b600080546001600160a01b039384166001600160a01b03199182161790915560018054929093169116179055565b8183823760009101908152919050565b80356001600160a01b03811681146101ec57600080fd5b919050565b6000806040838503121561020457600080fd5b61020d836101d5565b915061021b602084016101d5565b9050925092905056fea2646970667358221220109c0a3bc2cabd8e186b92f978a7ee58b7ed7664fb951af49a16fa445baf244864736f6c63430008130033",
  "bytecodeSha1": "925caf8c113114e08e8ed878c67606583dad2c0a",
  "compiler": {
    "evm_version": "istanbul",
    "optimizer": {
      "enabled": true,
      "runs": 200
    },
    "version": "0.8.19+commit.7dd6d404"
  },
  "contractName": "RestrictedOwner",
  "language": "Solidity",
  "natspec": {
    "author": "JohnnyTime (https://smartcontractshacking.com)",
    "kind": "dev",
    "methods": {},
    "title": "RestrictedOwner",
    "version": 1
  },
  "opcodes": "PUSH1 0x80 PUSH1 0x40 MSTORE CALLVALUE DUP1 ISZERO PUSH2 0x10 JUMPI PUSH1 0x0 DUP1 REVERT JUMPDEST POP PUSH1 0x4 CALLDATASIZE LT PUSH2 0x4C JUMPI PUSH1 0x0 CALLDATALOAD PUSH1 0xE0 SHR DUP1 PUSH4 0x481C6A75 EQ PUSH2 0xED JUMPI DUP1 PUSH4 0x8DA5CB5B EQ PUSH2 0x11C JUMPI DUP1 PUSH4 0x94E569DB EQ PUSH2 0x12F JUMPI DUP1 PUSH4 0xB88947FF EQ PUSH2 0x142 JUMPI JUMPDEST PUSH1 0x2 SLOAD PUSH1 0x40 MLOAD PUSH1 0x0 SWAP2 PUSH1 0x1 PUSH1 0x1 PUSH1 0xA0 SHL SUB AND SWAP1 PUSH2 0x6C SWAP1 DUP4 SWAP1 CALLDATASIZE SWAP1 PUSH2 0x1C5 JUMP JUMPDEST PUSH1 0x0 PUSH1 0x40 MLOAD DUP1 DUP4 SUB DUP2 DUP6 GAS DELEGATECALL SWAP2 POP POP RETURNDATASIZE DUP1 PUSH1 0x0 DUP2 EQ PUSH2 0xA7 JUMPI PUSH1 0x40 MLOAD SWAP2 POP PUSH1 0x1F NOT PUSH1 0x3F RETURNDATASIZE ADD AND DUP3 ADD PUSH1 0x40 MSTORE RETURNDATASIZE DUP3 MSTORE RETURNDATASIZE PUSH1 0x0 PUSH1 0x20 DUP5 ADD RETURNDATACOPY PUSH2 0xAC JUMP JUMPDEST PUSH1 0x60 SWAP2 POP JUMPDEST POP POP SWAP1 POP DUP1 PUSH2 0xEB JUMPI PUSH1 0x40 MLOAD PUSH3 0x461BCD PUSH1 0xE5 SHL DUP2 MSTORE PUSH1 0x20 PUSH1 0x4 DUP3 ADD MSTORE PUSH1 0x6 PUSH1 0x24 DUP3 ADD MSTORE PUSH6 0x19985A5B1959 PUSH1 0xD2 SHL PUSH1 0x44 DUP3 ADD MSTORE PUSH1 0x64 ADD JUMPDEST PUSH1 0x40 MLOAD DUP1 SWAP2 SUB SWAP1 REVERT JUMPDEST STOP JUMPDEST PUSH1 0x1 SLOAD PUSH2 0x100 SWAP1 PUSH1 0x1 PUSH1 0x1 PUSH1 0xA0 SHL SUB AND DUP2 JUMP JUMPDEST PUSH1 0x40 MLOAD PUSH1 0x1 PUSH1 0x1 PUSH1 0xA0 SHL SUB SWAP1 SWAP2 AND DUP2 MSTORE PUSH1 0x20 ADD PUSH1 0x40 MLOAD DUP1 SWAP2 SUB SWAP1 RETURN JUMPDEST PUSH1 0x0 SLOAD PUSH2 0x100 SWAP1 PUSH1 0x1 PUSH1 0x1 PUSH1 0xA0 SHL SUB AND DUP2 JUMP JUMPDEST PUSH1 0x2 SLOAD PUSH2 0x100 SWAP1 PUSH1 0x1 PUSH1 0x1 PUSH1 0xA0 SHL SUB AND DUP2 JUMP JUMPDEST PUSH2 0xEB PUSH2 0x150 CALLDATASIZE PUSH1 0x4 PUSH2 0x1F1 JUMP JUMPDEST PUSH1 0x0 SLOAD PUSH1 0x1 PUSH1 0x1 PUSH1 0xA0 SHL SUB AND CALLER EQ PUSH2 0x197 JUMPI PUSH1 0x40 MLOAD PUSH3 0x461BCD PUSH1 0xE5 SHL DUP2 MSTORE PUSH1 0x20 PUSH1 0x4 DUP3 ADD MSTORE PUSH1 0xA PUSH1 0x24 DUP3 ADD MSTORE PUSH10 0x4E6F74206F776E657221 PUSH1 0xB0 SHL PUSH1 0x44 DUP3 ADD MSTORE PUSH1 0x64 ADD PUSH2 0xE2 JUMP JUMPDEST PUSH1 0x0 DUP1 SLOAD PUSH1 0x1 PUSH1 0x1 PUSH1 0xA0 SHL SUB SWAP4 DUP5 AND PUSH1 0x1 PUSH1 0x1 PUSH1 0xA0 SHL SUB NOT SWAP2 DUP3 AND OR SWAP1 SWAP2 SSTORE PUSH1 0x1 DUP1 SLOAD SWAP3 SWAP1 SWAP4 AND SWAP2 AND OR SWAP1 SSTORE JUMP JUMPDEST DUP2 DUP4 DUP3 CALLDATACOPY PUSH1 0x0 SWAP2 ADD SWAP1 DUP2 MSTORE SWAP2 SWAP1 POP JUMP JUMPDEST DUP1 CALLDATALOAD PUSH1 0x1 PUSH1 0x1 PUSH1 0xA0 SHL SUB DUP2 AND DUP2 EQ PUSH2 0x1EC JUMPI PUSH1 0x0 DUP1 REVERT JUMPDEST SWAP2 SWAP1 POP JUMP JUMPDEST PUSH1 0x0 DUP1 PUSH1 0x40 DUP4 DUP6 SUB SLT ISZERO PUSH2 0x204 JUMPI PUSH1 0x0 DUP1 REVERT JUMPDEST PUSH2 0x20D DUP4 PUSH2 0x1D5 JUMP JUMPDEST SWAP2 POP PUSH2 0x21B PUSH1 0x20 DUP5 ADD PUSH2 0x1D5 JUMP JUMPDEST SWAP1 POP SWAP3 POP SWAP3 SWAP1 POP JUMP INVALID LOG2 PUSH5 0x6970667358 0x22 SLT KECCAK256 LT SWAP13 EXP EXTCODESIZE 0xC2 0xCA 0xBD DUP15 XOR PUSH12 0x92F978A7EE58B7ED7664FB95 BYTE DELEGATECALL SWAP11 AND STATICCALL DIFFICULTY JUMPDEST 0xAF 0x24 BASEFEE PUSH5 0x736F6C6343 STOP ADDMOD SGT STOP CALLER ",
  "sha1": "d827cabdc49ed0b0803bb077edcdbb1e2bf9dad2",
  "source": "// SCH Course Copyright Policy (C): DO-NOT-SHARE-WITH-ANYONE\n// https://smartcontractshacking.com/#copyright-policy\npragma solidity ^0.8.13;\n\n/**\n * @title RestrictedOwner\n * @author JohnnyTime (https://smartcontractshacking.com)\n */\ncontract RestrictedOwner {\n\n  address public owner;\n  address public manager;\n  address public unrestrictedOwnerAddress;\n\n  constructor(address _unrestrictedOwnerAddress) {\n    unrestrictedOwnerAddress = _unrestrictedOwnerAddress;\n    owner = msg.sender;\n    manager = msg.sender;\n  }\n\n  function updateSettings(address _newOwner, address _newManager) public {\n    require(msg.sender == owner, \"Not owner!\");\n    owner = _newOwner;\n    manager = _newManager;\n  }\n\n  fallback() external {\n    (bool result,) = unrestrictedOwnerAddress.delegatecall(msg.data);\n    if (!result) {\n      revert(\"failed\");\n    }\n  }\n\n}",
  "sourcePath": "contracts/call-attacks-1/RestrictedOwner.sol",
  "type": "contract"
}