{
  "abi": [
    {
      "inputs": [
        {
          "internalType": "uint8",
          "name": "_doorNumber",
          "type": "uint8"
        },
        {
          "internalType": "bool",
          "name": "_isLocked",
          "type": "bool"
        },
        {
          "internalType": "bytes32",
          "name": "_doorOwnerName",
          "type": "bytes32"
        },
        {
          "internalType": "bytes32",
          "name": "_secretSpell",
          "type": "bytes32"
        }
      ],
      "stateMutability": "nonpayable",
      "type": "constructor"
    },
    {
      "anonymous": false,
      "inputs": [
        {
          "indexed": true,
          "internalType": "address",
          "name": "previousOwner",
          "type": "address"
        },
        {
          "indexed": true,
          "internalType": "address",
          "name": "newOwner",
          "type": "address"
        }
      ],
      "name": "OwnershipTransferred",
      "type": "event"
    },
    {
      "inputs": [],
      "name": "isLocked",
      "outputs": [
        {
          "internalType": "bool",
          "name": "",
          "type": "bool"
        }
      ],
      "stateMutability": "view",
      "type": "function"
    },
    {
      "inputs": [],
      "name": "owner",
      "outputs": [
        {
          "internalType": "address",
          "name": "",
          "type": "address"
        }
      ],
      "stateMutability": "view",
      "type": "function"
    },
    {
      "inputs": [],
      "name": "renounceOwnership",
      "outputs": [],
      "stateMutability": "nonpayable",
      "type": "function"
    },
    {
      "inputs": [
        {
          "internalType": "address",
          "name": "newOwner",
          "type": "address"
        }
      ],
      "name": "transferOwnership",
      "outputs": [],
      "stateMutability": "nonpayable",
      "type": "function"
    },
    {
      "inputs": [
        {
          "internalType": "bytes32",
          "name": "_secretSpell",
          "type": "bytes32"
        }
      ],
      "name": "unlockDoor",
      "outputs": [
        {
          "internalType": "bool",
          "name": "",
          "type": "bool"
        }
      ],
      "stateMutability": "nonpayable",
      "type": "function"
    }
  ],
  "bytecode": "608060405234801561001057600080fd5b506040516103da3803806103da83398101604081905261002f916100c0565b61003833610070565b600180556002805493151560ff1960ff909616610100029590951661ffff199094169390931793909317909155600355600455610113565b600080546001600160a01b038381166001600160a01b0319831681178455604051919092169283917f8be0079c531659141344cd1fd0a4f28419497f9722a3daafe3b4186f6b6457e09190a35050565b600080600080608085870312156100d657600080fd5b845160ff811681146100e757600080fd5b602086015190945080151581146100fd57600080fd5b6040860151606090960151949790965092505050565b6102b8806101226000396000f3fe608060405234801561001057600080fd5b50600436106100575760003560e01c8063715018a61461005c5780638da5cb5b14610066578063a4e2d63414610086578063c1ce0d43146100a3578063f2fde38b146100b6575b600080fd5b6100646100c9565b005b6000546040516001600160a01b0390911681526020015b60405180910390f35b6002546100939060ff1681565b604051901515815260200161007d565b6100936100b1366004610239565b6100dd565b6100646100c4366004610252565b610111565b6100d161018f565b6100db60006101e9565b565b600081600454036100f7576002805460ff19169055610105565b6002805460ff191660011790555b505060025460ff161590565b61011961018f565b6001600160a01b0381166101835760405162461bcd60e51b815260206004820152602660248201527f4f776e61626c653a206e6577206f776e657220697320746865207a65726f206160448201526564647265737360d01b60648201526084015b60405180910390fd5b61018c816101e9565b50565b6000546001600160a01b031633146100db5760405162461bcd60e51b815260206004820181905260248201527f4f776e61626c653a2063616c6c6572206973206e6f7420746865206f776e6572604482015260640161017a565b600080546001600160a01b038381166001600160a01b0319831681178455604051919092169283917f8be0079c531659141344cd1fd0a4f28419497f9722a3daafe3b4186f6b6457e09190a35050565b60006020828403121561024b57600080fd5b5035919050565b60006020828403121561026457600080fd5b81356001600160a01b038116811461027b57600080fd5b939250505056fea2646970667358221220bd831acb4dff3ea314e6703e1679abe20d5208368139ab8739484df6aabeecf064736f6c63430008130033",
  "bytecodeSha1": "2d23b37bdeaa3cf745847b544a7bc6ced3a9c2c8",
  "compiler": {
    "evm_version": "istanbul",
    "optimizer": {
      "enabled": true,
      "runs": 200
    },
    "version": "0.8.19+commit.7dd6d404"
  },
  "contractName": "SecretDoor",
  "language": "Solidity",
  "natspec": {
    "kind": "dev",
    "methods": {
      "owner()": {
        "details": "Returns the address of the current owner."
      },
      "renounceOwnership()": {
        "details": "Leaves the contract without owner. It will not be possible to call `onlyOwner` functions anymore. Can only be called by the current owner. NOTE: Renouncing ownership will leave the contract without an owner, thereby removing any functionality that is only available to the owner."
      },
      "transferOwnership(address)": {
        "details": "Transfers ownership of the contract to a new account (`newOwner`). Can only be called by the current owner."
      }
    },
    "version": 1
  },
  "opcodes": "PUSH1 0x80 PUSH1 0x40 MSTORE CALLVALUE DUP1 ISZERO PUSH2 0x10 JUMPI PUSH1 0x0 DUP1 REVERT JUMPDEST POP PUSH1 0x4 CALLDATASIZE LT PUSH2 0x57 JUMPI PUSH1 0x0 CALLDATALOAD PUSH1 0xE0 SHR DUP1 PUSH4 0x715018A6 EQ PUSH2 0x5C JUMPI DUP1 PUSH4 0x8DA5CB5B EQ PUSH2 0x66 JUMPI DUP1 PUSH4 0xA4E2D634 EQ PUSH2 0x86 JUMPI DUP1 PUSH4 0xC1CE0D43 EQ PUSH2 0xA3 JUMPI DUP1 PUSH4 0xF2FDE38B EQ PUSH2 0xB6 JUMPI JUMPDEST PUSH1 0x0 DUP1 REVERT JUMPDEST PUSH2 0x64 PUSH2 0xC9 JUMP JUMPDEST STOP JUMPDEST PUSH1 0x0 SLOAD PUSH1 0x40 MLOAD PUSH1 0x1 PUSH1 0x1 PUSH1 0xA0 SHL SUB SWAP1 SWAP2 AND DUP2 MSTORE PUSH1 0x20 ADD JUMPDEST PUSH1 0x40 MLOAD DUP1 SWAP2 SUB SWAP1 RETURN JUMPDEST PUSH1 0x2 SLOAD PUSH2 0x93 SWAP1 PUSH1 0xFF AND DUP2 JUMP JUMPDEST PUSH1 0x40 MLOAD SWAP1 ISZERO ISZERO DUP2 MSTORE PUSH1 0x20 ADD PUSH2 0x7D JUMP JUMPDEST PUSH2 0x93 PUSH2 0xB1 CALLDATASIZE PUSH1 0x4 PUSH2 0x239 JUMP JUMPDEST PUSH2 0xDD JUMP JUMPDEST PUSH2 0x64 PUSH2 0xC4 CALLDATASIZE PUSH1 0x4 PUSH2 0x252 JUMP JUMPDEST PUSH2 0x111 JUMP JUMPDEST PUSH2 0xD1 PUSH2 0x18F JUMP JUMPDEST PUSH2 0xDB PUSH1 0x0 PUSH2 0x1E9 JUMP JUMPDEST JUMP JUMPDEST PUSH1 0x0 DUP2 PUSH1 0x4 SLOAD SUB PUSH2 0xF7 JUMPI PUSH1 0x2 DUP1 SLOAD PUSH1 0xFF NOT AND SWAP1 SSTORE PUSH2 0x105 JUMP JUMPDEST PUSH1 0x2 DUP1 SLOAD PUSH1 0xFF NOT AND PUSH1 0x1 OR SWAP1 SSTORE JUMPDEST POP POP PUSH1 0x2 SLOAD PUSH1 0xFF AND ISZERO SWAP1 JUMP JUMPDEST PUSH2 0x119 PUSH2 0x18F JUMP JUMPDEST PUSH1 0x1 PUSH1 0x1 PUSH1 0xA0 SHL SUB DUP2 AND PUSH2 0x183 JUMPI PUSH1 0x40 MLOAD PUSH3 0x461BCD PUSH1 0xE5 SHL DUP2 MSTORE PUSH1 0x20 PUSH1 0x4 DUP3 ADD MSTORE PUSH1 0x26 PUSH1 0x24 DUP3 ADD MSTORE PUSH32 0x4F776E61626C653A206E6577206F776E657220697320746865207A65726F2061 PUSH1 0x44 DUP3 ADD MSTORE PUSH6 0x646472657373 PUSH1 0xD0 SHL PUSH1 0x64 DUP3 ADD MSTORE PUSH1 0x84 ADD JUMPDEST PUSH1 0x40 MLOAD DUP1 SWAP2 SUB SWAP1 REVERT JUMPDEST PUSH2 0x18C DUP2 PUSH2 0x1E9 JUMP JUMPDEST POP JUMP JUMPDEST PUSH1 0x0 SLOAD PUSH1 0x1 PUSH1 0x1 PUSH1 0xA0 SHL SUB AND CALLER EQ PUSH2 0xDB JUMPI PUSH1 0x40 MLOAD PUSH3 0x461BCD PUSH1 0xE5 SHL DUP2 MSTORE PUSH1 0x20 PUSH1 0x4 DUP3 ADD DUP2 SWAP1 MSTORE PUSH1 0x24 DUP3 ADD MSTORE PUSH32 0x4F776E61626C653A2063616C6C6572206973206E6F7420746865206F776E6572 PUSH1 0x44 DUP3 ADD MSTORE PUSH1 0x64 ADD PUSH2 0x17A JUMP JUMPDEST PUSH1 0x0 DUP1 SLOAD PUSH1 0x1 PUSH1 0x1 PUSH1 0xA0 SHL SUB DUP4 DUP2 AND PUSH1 0x1 PUSH1 0x1 PUSH1 0xA0 SHL SUB NOT DUP4 AND DUP2 OR DUP5 SSTORE PUSH1 0x40 MLOAD SWAP2 SWAP1 SWAP3 AND SWAP3 DUP4 SWAP2 PUSH32 0x8BE0079C531659141344CD1FD0A4F28419497F9722A3DAAFE3B4186F6B6457E0 SWAP2 SWAP1 LOG3 POP POP JUMP JUMPDEST PUSH1 0x0 PUSH1 0x20 DUP3 DUP5 SUB SLT ISZERO PUSH2 0x24B JUMPI PUSH1 0x0 DUP1 REVERT JUMPDEST POP CALLDATALOAD SWAP2 SWAP1 POP JUMP JUMPDEST PUSH1 0x0 PUSH1 0x20 DUP3 DUP5 SUB SLT ISZERO PUSH2 0x264 JUMPI PUSH1 0x0 DUP1 REVERT JUMPDEST DUP2 CALLDATALOAD PUSH1 0x1 PUSH1 0x1 PUSH1 0xA0 SHL SUB DUP2 AND DUP2 EQ PUSH2 0x27B JUMPI PUSH1 0x0 DUP1 REVERT JUMPDEST SWAP4 SWAP3 POP POP POP JUMP INVALID LOG2 PUSH5 0x6970667358 0x22 SLT KECCAK256 0xBD DUP4 BYTE 0xCB 0x4D SELFDESTRUCT RETURNDATACOPY LOG3 EQ 0xE6 PUSH17 0x3E1679ABE20D5208368139AB8739484DF6 0xAA 0xBE 0xEC CREATE PUSH5 0x736F6C6343 STOP ADDMOD SGT STOP CALLER ",
  "sha1": "2b2b5918b68787decbf69a059af0c529799cf6be",
  "source": "// SCH Course Copyright Policy (C): DO-NOT-SHARE-WITH-ANYONE\n// https://smartcontractshacking.com/#copyright-policy\npragma solidity ^0.8.13;\n\nimport \"@openzeppelin/contracts/security/ReentrancyGuard.sol\";\nimport \"@openzeppelin/contracts/access/Ownable.sol\";\n\ncontract SecretDoor is Ownable, ReentrancyGuard {\n\n  bool public isLocked;\n  uint8 private doorNumber;\n  bytes32 private doorOwnerName;\n  bytes32 private secretSpell;\n\n  constructor(\n    uint8 _doorNumber, bool _isLocked,\n    bytes32 _doorOwnerName, bytes32 _secretSpell) {\n\n    doorNumber = _doorNumber;\n    isLocked = _isLocked;\n\n    doorOwnerName = _doorOwnerName;\n    secretSpell = _secretSpell;\n  }\n\n  function unlockDoor(bytes32 _secretSpell) external returns (bool) {\n\n    if (secretSpell == _secretSpell) {\n      isLocked = false;\n    } else {\n      isLocked = true;\n    }\n\n    return !(isLocked);\n  }\n}",
  "sourcePath": "contracts/sensitive-on-chain-data-2/SecretDoor.sol",
  "type": "contract"
}