{
  "abi": [
    {
      "inputs": [],
      "stateMutability": "nonpayable",
      "type": "constructor"
    },
    {
      "anonymous": false,
      "inputs": [
        {
          "indexed": true,
          "internalType": "address",
          "name": "previousOwner",
          "type": "address"
        },
        {
          "indexed": true,
          "internalType": "address",
          "name": "newOwner",
          "type": "address"
        }
      ],
      "name": "OwnershipTransferred",
      "type": "event"
    },
    {
      "inputs": [],
      "name": "UniswapV2Factory",
      "outputs": [
        {
          "internalType": "address",
          "name": "",
          "type": "address"
        }
      ],
      "stateMutability": "view",
      "type": "function"
    },
    {
      "inputs": [],
      "name": "WETH",
      "outputs": [
        {
          "internalType": "address",
          "name": "",
          "type": "address"
        }
      ],
      "stateMutability": "view",
      "type": "function"
    },
    {
      "inputs": [],
      "name": "owner",
      "outputs": [
        {
          "internalType": "address",
          "name": "",
          "type": "address"
        }
      ],
      "stateMutability": "view",
      "type": "function"
    },
    {
      "inputs": [],
      "name": "renounceOwnership",
      "outputs": [],
      "stateMutability": "nonpayable",
      "type": "function"
    },
    {
      "inputs": [
        {
          "internalType": "address",
          "name": "_tokenIn",
          "type": "address"
        },
        {
          "internalType": "address",
          "name": "_tokenOut",
          "type": "address"
        },
        {
          "internalType": "uint256",
          "name": "_amountIn",
          "type": "uint256"
        },
        {
          "internalType": "uint256",
          "name": "_absoluteMinAmountOut",
          "type": "uint256"
        },
        {
          "internalType": "uint8",
          "name": "_maxRetries",
          "type": "uint8"
        }
      ],
      "name": "snipe",
      "outputs": [],
      "stateMutability": "nonpayable",
      "type": "function"
    },
    {
      "inputs": [
        {
          "internalType": "address",
          "name": "newOwner",
          "type": "address"
        }
      ],
      "name": "transferOwnership",
      "outputs": [],
      "stateMutability": "nonpayable",
      "type": "function"
    },
    {
      "inputs": [],
      "name": "uniswapV2Pair",
      "outputs": [
        {
          "internalType": "address",
          "name": "",
          "type": "address"
        }
      ],
      "stateMutability": "view",
      "type": "function"
    }
  ],
  "bytecode": "60a0604052600180546001600160a01b0319908116735c69bee701ef814a2b6a3edd4b1652cb9cc5aa6f179091556002805490911673c02aaa39b223fe8d0a0e5c4f27ead9083c756cc217905534801561005857600080fd5b5061006233610076565b6001546001600160a01b03166080526100c6565b600080546001600160a01b038381166001600160a01b0319831681178455604051919092169283917f8be0079c531659141344cd1fd0a4f28419497f9722a3daafe3b4186f6b6457e09190a35050565b608051610bad6100e1600039600061015e0152610bad6000f3fe608060405234801561001057600080fd5b506004361061007d5760003560e01c80638da5cb5b1161005b5780638da5cb5b146100ce5780639b905146146100df578063ad5c4648146100f2578063f2fde38b1461010557600080fd5b806349bd5a5e14610082578063715018a6146100b157806378cc70b2146100bb575b600080fd5b600354610095906001600160a01b031681565b6040516001600160a01b03909116815260200160405180910390f35b6100b9610118565b005b600154610095906001600160a01b031681565b6000546001600160a01b0316610095565b6100b96100ed366004610912565b61012c565b600254610095906001600160a01b031681565b6100b9610113366004610977565b6104a7565b610120610520565b61012a600061057a565b565b610134610520565b60405163e6a4390560e01b81526001600160a01b03868116600483015285811660248301526000917f00000000000000000000000000000000000000000000000000000000000000009091169063e6a4390590604401602060405180830381865afa1580156101a7573d6000803e3d6000fd5b505050506040513d601f19601f820116820180604052508101906101cb919061099b565b90506001600160a01b0381166102205760405162461bcd60e51b81526020600482015260156024820152745061697220646f6573206e6f74206578697374732160581b60448201526064015b60405180910390fd5b60008061022d88886105ca565b915091506000806000856001600160a01b0316630902f1ac6040518163ffffffff1660e01b8152600401606060405180830381865afa158015610274573d6000803e3d6000fd5b505050506040513d601f19601f8201168201806040525081019061029891906109d4565b506001600160701b031691506001600160701b03169150600080866001600160a01b03168d6001600160a01b0316146102d25782846102d5565b83835b915091506102e48b83836106b8565b60405163a9059cbb60e01b81526001600160a01b038a81166004830152602482018e9052919650908e16945063a9059cbb935060440191506103239050565b6020604051808303816000875af1158015610342573d6000803e3d6000fd5b505050506040513d601f19601f820116820180604052508101906103669190610a24565b50600080846001600160a01b03168b6001600160a01b03161461038b5782600061038f565b6000835b915091506103a18683838a60006107d8565b896001600160a01b031663a9059cbb6103c26000546001600160a01b031690565b6040516370a0823160e01b81523060048201526001600160a01b038e16906370a0823190602401602060405180830381865afa158015610406573d6000803e3d6000fd5b505050506040513d601f19601f8201168201806040525081019061042a9190610a46565b6040516001600160e01b031960e085901b1681526001600160a01b03909216600483015260248201526044016020604051808303816000875af1158015610475573d6000803e3d6000fd5b505050506040513d601f19601f820116820180604052508101906104999190610a24565b505050505050505050505050565b6104af610520565b6001600160a01b0381166105145760405162461bcd60e51b815260206004820152602660248201527f4f776e61626c653a206e6577206f776e657220697320746865207a65726f206160448201526564647265737360d01b6064820152608401610217565b61051d8161057a565b50565b6000546001600160a01b0316331461012a5760405162461bcd60e51b815260206004820181905260248201527f4f776e61626c653a2063616c6c6572206973206e6f7420746865206f776e65726044820152606401610217565b600080546001600160a01b038381166001600160a01b0319831681178455604051919092169283917f8be0079c531659141344cd1fd0a4f28419497f9722a3daafe3b4186f6b6457e09190a35050565b600080826001600160a01b0316846001600160a01b03160361062e5760405162461bcd60e51b815260206004820152601e60248201527f556e697377617056323a204944454e544943414c5f41444452455353455300006044820152606401610217565b600080846001600160a01b0316866001600160a01b031610610651578486610654565b85855b90925090506001600160a01b0382166106af5760405162461bcd60e51b815260206004820152601760248201527f556e697377617056323a205a45524f5f414444524553530000000000000000006044820152606401610217565b50509250929050565b600080841161071d5760405162461bcd60e51b815260206004820152602b60248201527f556e697377617056324c6962726172793a20494e53554646494349454e545f4960448201526a1394155517d05353d5539560aa1b6064820152608401610217565b60008311801561072d5750600082115b61078a5760405162461bcd60e51b815260206004820152602860248201527f556e697377617056324c6962726172793a20494e53554646494349454e545f4c604482015267495155494449545960c01b6064820152608401610217565b6000610798856103e5610a75565b905060006107a68483610a75565b90506000826107b7876103e8610a75565b6107c19190610a94565b90506107cd8183610aac565b979650505050505050565b60008160ff168360ff1610156108205760405162461bcd60e51b815260206004820152600d60248201526c547269656420656e6f7567682160981b6044820152606401610217565b61082e60ff83166003610a75565b61083a906103e8610ace565b90506103e86108498287610a75565b6108539190610aac565b94506103e86108628286610a75565b61086c9190610aac565b6040805160008152602081019182905263022c0d9f60e01b9091529094506001600160a01b0387169063022c0d9f906108ae9088908890309060248101610ae5565b600060405180830381600087803b1580156108c857600080fd5b505af19250505080156108d9575060015b6108f5576108f586868686866108ee81610b58565b97506107d8565b505050505050565b6001600160a01b038116811461051d57600080fd5b600080600080600060a0868803121561092a57600080fd5b8535610935816108fd565b94506020860135610945816108fd565b93506040860135925060608601359150608086013560ff8116811461096957600080fd5b809150509295509295909350565b60006020828403121561098957600080fd5b8135610994816108fd565b9392505050565b6000602082840312156109ad57600080fd5b8151610994816108fd565b80516001600160701b03811681146109cf57600080fd5b919050565b6000806000606084860312156109e957600080fd5b6109f2846109b8565b9250610a00602085016109b8565b9150604084015163ffffffff81168114610a1957600080fd5b809150509250925092565b600060208284031215610a3657600080fd5b8151801515811461099457600080fd5b600060208284031215610a5857600080fd5b5051919050565b634e487b7160e01b600052601160045260246000fd5b6000816000190483118215151615610a8f57610a8f610a5f565b500290565b60008219821115610aa757610aa7610a5f565b500190565b600082610ac957634e487b7160e01b600052601260045260246000fd5b500490565b600082821015610ae057610ae0610a5f565b500390565b84815260006020858184015260018060a01b038516604084015260806060840152835180608085015260005b81811015610b2d5785810183015185820160a001528201610b11565b81811115610b3f57600060a083870101525b50601f01601f19169290920160a0019695505050505050565b600060ff821660ff8103610b6e57610b6e610a5f565b6001019291505056fea2646970667358221220495213d35ef88a2da2676e6093625d1fbc2155ed5516916c55f5f1b44108de7064736f6c634300080d0033",
  "bytecodeSha1": "821cdddcbcabd8be9c7e747898d8328c9bff9fe5",
  "compiler": {
    "evm_version": "istanbul",
    "optimizer": {
      "enabled": true,
      "runs": 200
    },
    "version": "0.8.13+commit.abaa5c0e"
  },
  "contractName": "Sniper",
  "language": "Solidity",
  "natspec": {
    "author": "JohnnyTime (https://smartcontractshacking.com)",
    "kind": "dev",
    "methods": {
      "owner()": {
        "details": "Returns the address of the current owner."
      },
      "renounceOwnership()": {
        "details": "Leaves the contract without owner. It will not be possible to call `onlyOwner` functions anymore. Can only be called by the current owner. NOTE: Renouncing ownership will leave the contract without an owner, thereby removing any functionality that is only available to the owner."
      },
      "snipe(address,address,uint256,uint256,uint8)": {
        "notice": "The main external snipe function that is being called by the contract owner. Checks the the current reserves, determines the expected amountOut. If amountOut >= `_absoluteMinAmountOut`, it will try to swap the tokens `_maxRetries` times using the internal `_swapWithRetries` function.",
        "params": {
          "_absoluteMinAmountOut": "the minimum amount of tokens you want out of the trade",
          "_amountIn": "the amount of tokens you are sending in",
          "_maxRetries": "In case the swap fails, it will try again _maxRetries times (with higher slippage tolerance every time)",
          "_tokenIn": "the token address you want to sell",
          "_tokenOut": "the token address you want to buy"
        }
      },
      "transferOwnership(address)": {
        "details": "Transfers ownership of the contract to a new account (`newOwner`). Can only be called by the current owner."
      }
    },
    "title": "Sniper",
    "version": 1
  },
  "opcodes": "PUSH1 0x80 PUSH1 0x40 MSTORE CALLVALUE DUP1 ISZERO PUSH2 0x10 JUMPI PUSH1 0x0 DUP1 REVERT JUMPDEST POP PUSH1 0x4 CALLDATASIZE LT PUSH2 0x7D JUMPI PUSH1 0x0 CALLDATALOAD PUSH1 0xE0 SHR DUP1 PUSH4 0x8DA5CB5B GT PUSH2 0x5B JUMPI DUP1 PUSH4 0x8DA5CB5B EQ PUSH2 0xCE JUMPI DUP1 PUSH4 0x9B905146 EQ PUSH2 0xDF JUMPI DUP1 PUSH4 0xAD5C4648 EQ PUSH2 0xF2 JUMPI DUP1 PUSH4 0xF2FDE38B EQ PUSH2 0x105 JUMPI PUSH1 0x0 DUP1 REVERT JUMPDEST DUP1 PUSH4 0x49BD5A5E EQ PUSH2 0x82 JUMPI DUP1 PUSH4 0x715018A6 EQ PUSH2 0xB1 JUMPI DUP1 PUSH4 0x78CC70B2 EQ PUSH2 0xBB JUMPI JUMPDEST PUSH1 0x0 DUP1 REVERT JUMPDEST PUSH1 0x3 SLOAD PUSH2 0x95 SWAP1 PUSH1 0x1 PUSH1 0x1 PUSH1 0xA0 SHL SUB AND DUP2 JUMP JUMPDEST PUSH1 0x40 MLOAD PUSH1 0x1 PUSH1 0x1 PUSH1 0xA0 SHL SUB SWAP1 SWAP2 AND DUP2 MSTORE PUSH1 0x20 ADD PUSH1 0x40 MLOAD DUP1 SWAP2 SUB SWAP1 RETURN JUMPDEST PUSH2 0xB9 PUSH2 0x118 JUMP JUMPDEST STOP JUMPDEST PUSH1 0x1 SLOAD PUSH2 0x95 SWAP1 PUSH1 0x1 PUSH1 0x1 PUSH1 0xA0 SHL SUB AND DUP2 JUMP JUMPDEST PUSH1 0x0 SLOAD PUSH1 0x1 PUSH1 0x1 PUSH1 0xA0 SHL SUB AND PUSH2 0x95 JUMP JUMPDEST PUSH2 0xB9 PUSH2 0xED CALLDATASIZE PUSH1 0x4 PUSH2 0x912 JUMP JUMPDEST PUSH2 0x12C JUMP JUMPDEST PUSH1 0x2 SLOAD PUSH2 0x95 SWAP1 PUSH1 0x1 PUSH1 0x1 PUSH1 0xA0 SHL SUB AND DUP2 JUMP JUMPDEST PUSH2 0xB9 PUSH2 0x113 CALLDATASIZE PUSH1 0x4 PUSH2 0x977 JUMP JUMPDEST PUSH2 0x4A7 JUMP JUMPDEST PUSH2 0x120 PUSH2 0x520 JUMP JUMPDEST PUSH2 0x12A PUSH1 0x0 PUSH2 0x57A JUMP JUMPDEST JUMP JUMPDEST PUSH2 0x134 PUSH2 0x520 JUMP JUMPDEST PUSH1 0x40 MLOAD PUSH4 0xE6A43905 PUSH1 0xE0 SHL DUP2 MSTORE PUSH1 0x1 PUSH1 0x1 PUSH1 0xA0 SHL SUB DUP7 DUP2 AND PUSH1 0x4 DUP4 ADD MSTORE DUP6 DUP2 AND PUSH1 0x24 DUP4 ADD MSTORE PUSH1 0x0 SWAP2 PUSH32 0x0 SWAP1 SWAP2 AND SWAP1 PUSH4 0xE6A43905 SWAP1 PUSH1 0x44 ADD PUSH1 0x20 PUSH1 0x40 MLOAD DUP1 DUP4 SUB DUP2 DUP7 GAS STATICCALL ISZERO DUP1 ISZERO PUSH2 0x1A7 JUMPI RETURNDATASIZE PUSH1 0x0 DUP1 RETURNDATACOPY RETURNDATASIZE PUSH1 0x0 REVERT JUMPDEST POP POP POP POP PUSH1 0x40 MLOAD RETURNDATASIZE PUSH1 0x1F NOT PUSH1 0x1F DUP3 ADD AND DUP3 ADD DUP1 PUSH1 0x40 MSTORE POP DUP2 ADD SWAP1 PUSH2 0x1CB SWAP2 SWAP1 PUSH2 0x99B JUMP JUMPDEST SWAP1 POP PUSH1 0x1 PUSH1 0x1 PUSH1 0xA0 SHL SUB DUP2 AND PUSH2 0x220 JUMPI PUSH1 0x40 MLOAD PUSH3 0x461BCD PUSH1 0xE5 SHL DUP2 MSTORE PUSH1 0x20 PUSH1 0x4 DUP3 ADD MSTORE PUSH1 0x15 PUSH1 0x24 DUP3 ADD MSTORE PUSH21 0x5061697220646F6573206E6F742065786973747321 PUSH1 0x58 SHL PUSH1 0x44 DUP3 ADD MSTORE PUSH1 0x64 ADD JUMPDEST PUSH1 0x40 MLOAD DUP1 SWAP2 SUB SWAP1 REVERT JUMPDEST PUSH1 0x0 DUP1 PUSH2 0x22D DUP9 DUP9 PUSH2 0x5CA JUMP JUMPDEST SWAP2 POP SWAP2 POP PUSH1 0x0 DUP1 PUSH1 0x0 DUP6 PUSH1 0x1 PUSH1 0x1 PUSH1 0xA0 SHL SUB AND PUSH4 0x902F1AC PUSH1 0x40 MLOAD DUP2 PUSH4 0xFFFFFFFF AND PUSH1 0xE0 SHL DUP2 MSTORE PUSH1 0x4 ADD PUSH1 0x60 PUSH1 0x40 MLOAD DUP1 DUP4 SUB DUP2 DUP7 GAS STATICCALL ISZERO DUP1 ISZERO PUSH2 0x274 JUMPI RETURNDATASIZE PUSH1 0x0 DUP1 RETURNDATACOPY RETURNDATASIZE PUSH1 0x0 REVERT JUMPDEST POP POP POP POP PUSH1 0x40 MLOAD RETURNDATASIZE PUSH1 0x1F NOT PUSH1 0x1F DUP3 ADD AND DUP3 ADD DUP1 PUSH1 0x40 MSTORE POP DUP2 ADD SWAP1 PUSH2 0x298 SWAP2 SWAP1 PUSH2 0x9D4 JUMP JUMPDEST POP PUSH1 0x1 PUSH1 0x1 PUSH1 0x70 SHL SUB AND SWAP2 POP PUSH1 0x1 PUSH1 0x1 PUSH1 0x70 SHL SUB AND SWAP2 POP PUSH1 0x0 DUP1 DUP7 PUSH1 0x1 PUSH1 0x1 PUSH1 0xA0 SHL SUB AND DUP14 PUSH1 0x1 PUSH1 0x1 PUSH1 0xA0 SHL SUB AND EQ PUSH2 0x2D2 JUMPI DUP3 DUP5 PUSH2 0x2D5 JUMP JUMPDEST DUP4 DUP4 JUMPDEST SWAP2 POP SWAP2 POP PUSH2 0x2E4 DUP12 DUP4 DUP4 PUSH2 0x6B8 JUMP JUMPDEST PUSH1 0x40 MLOAD PUSH4 0xA9059CBB PUSH1 0xE0 SHL DUP2 MSTORE PUSH1 0x1 PUSH1 0x1 PUSH1 0xA0 SHL SUB DUP11 DUP2 AND PUSH1 0x4 DUP4 ADD MSTORE PUSH1 0x24 DUP3 ADD DUP15 SWAP1 MSTORE SWAP2 SWAP7 POP SWAP1 DUP15 AND SWAP5 POP PUSH4 0xA9059CBB SWAP4 POP PUSH1 0x44 ADD SWAP2 POP PUSH2 0x323 SWAP1 POP JUMP JUMPDEST PUSH1 0x20 PUSH1 0x40 MLOAD DUP1 DUP4 SUB DUP2 PUSH1 0x0 DUP8 GAS CALL ISZERO DUP1 ISZERO PUSH2 0x342 JUMPI RETURNDATASIZE PUSH1 0x0 DUP1 RETURNDATACOPY RETURNDATASIZE PUSH1 0x0 REVERT JUMPDEST POP POP POP POP PUSH1 0x40 MLOAD RETURNDATASIZE PUSH1 0x1F NOT PUSH1 0x1F DUP3 ADD AND DUP3 ADD DUP1 PUSH1 0x40 MSTORE POP DUP2 ADD SWAP1 PUSH2 0x366 SWAP2 SWAP1 PUSH2 0xA24 JUMP JUMPDEST POP PUSH1 0x0 DUP1 DUP5 PUSH1 0x1 PUSH1 0x1 PUSH1 0xA0 SHL SUB AND DUP12 PUSH1 0x1 PUSH1 0x1 PUSH1 0xA0 SHL SUB AND EQ PUSH2 0x38B JUMPI DUP3 PUSH1 0x0 PUSH2 0x38F JUMP JUMPDEST PUSH1 0x0 DUP4 JUMPDEST SWAP2 POP SWAP2 POP PUSH2 0x3A1 DUP7 DUP4 DUP4 DUP11 PUSH1 0x0 PUSH2 0x7D8 JUMP JUMPDEST DUP10 PUSH1 0x1 PUSH1 0x1 PUSH1 0xA0 SHL SUB AND PUSH4 0xA9059CBB PUSH2 0x3C2 PUSH1 0x0 SLOAD PUSH1 0x1 PUSH1 0x1 PUSH1 0xA0 SHL SUB AND SWAP1 JUMP JUMPDEST PUSH1 0x40 MLOAD PUSH4 0x70A08231 PUSH1 0xE0 SHL DUP2 MSTORE ADDRESS PUSH1 0x4 DUP3 ADD MSTORE PUSH1 0x1 PUSH1 0x1 PUSH1 0xA0 SHL SUB DUP15 AND SWAP1 PUSH4 0x70A08231 SWAP1 PUSH1 0x24 ADD PUSH1 0x20 PUSH1 0x40 MLOAD DUP1 DUP4 SUB DUP2 DUP7 GAS STATICCALL ISZERO DUP1 ISZERO PUSH2 0x406 JUMPI RETURNDATASIZE PUSH1 0x0 DUP1 RETURNDATACOPY RETURNDATASIZE PUSH1 0x0 REVERT JUMPDEST POP POP POP POP PUSH1 0x40 MLOAD RETURNDATASIZE PUSH1 0x1F NOT PUSH1 0x1F DUP3 ADD AND DUP3 ADD DUP1 PUSH1 0x40 MSTORE POP DUP2 ADD SWAP1 PUSH2 0x42A SWAP2 SWAP1 PUSH2 0xA46 JUMP JUMPDEST PUSH1 0x40 MLOAD PUSH1 0x1 PUSH1 0x1 PUSH1 0xE0 SHL SUB NOT PUSH1 0xE0 DUP6 SWAP1 SHL AND DUP2 MSTORE PUSH1 0x1 PUSH1 0x1 PUSH1 0xA0 SHL SUB SWAP1 SWAP3 AND PUSH1 0x4 DUP4 ADD MSTORE PUSH1 0x24 DUP3 ADD MSTORE PUSH1 0x44 ADD PUSH1 0x20 PUSH1 0x40 MLOAD DUP1 DUP4 SUB DUP2 PUSH1 0x0 DUP8 GAS CALL ISZERO DUP1 ISZERO PUSH2 0x475 JUMPI RETURNDATASIZE PUSH1 0x0 DUP1 RETURNDATACOPY RETURNDATASIZE PUSH1 0x0 REVERT JUMPDEST POP POP POP POP PUSH1 0x40 MLOAD RETURNDATASIZE PUSH1 0x1F NOT PUSH1 0x1F DUP3 ADD AND DUP3 ADD DUP1 PUSH1 0x40 MSTORE POP DUP2 ADD SWAP1 PUSH2 0x499 SWAP2 SWAP1 PUSH2 0xA24 JUMP JUMPDEST POP POP POP POP POP POP POP POP POP POP POP POP JUMP JUMPDEST PUSH2 0x4AF PUSH2 0x520 JUMP JUMPDEST PUSH1 0x1 PUSH1 0x1 PUSH1 0xA0 SHL SUB DUP2 AND PUSH2 0x514 JUMPI PUSH1 0x40 MLOAD PUSH3 0x461BCD PUSH1 0xE5 SHL DUP2 MSTORE PUSH1 0x20 PUSH1 0x4 DUP3 ADD MSTORE PUSH1 0x26 PUSH1 0x24 DUP3 ADD MSTORE PUSH32 0x4F776E61626C653A206E6577206F776E657220697320746865207A65726F2061 PUSH1 0x44 DUP3 ADD MSTORE PUSH6 0x646472657373 PUSH1 0xD0 SHL PUSH1 0x64 DUP3 ADD MSTORE PUSH1 0x84 ADD PUSH2 0x217 JUMP JUMPDEST PUSH2 0x51D DUP2 PUSH2 0x57A JUMP JUMPDEST POP JUMP JUMPDEST PUSH1 0x0 SLOAD PUSH1 0x1 PUSH1 0x1 PUSH1 0xA0 SHL SUB AND CALLER EQ PUSH2 0x12A JUMPI PUSH1 0x40 MLOAD PUSH3 0x461BCD PUSH1 0xE5 SHL DUP2 MSTORE PUSH1 0x20 PUSH1 0x4 DUP3 ADD DUP2 SWAP1 MSTORE PUSH1 0x24 DUP3 ADD MSTORE PUSH32 0x4F776E61626C653A2063616C6C6572206973206E6F7420746865206F776E6572 PUSH1 0x44 DUP3 ADD MSTORE PUSH1 0x64 ADD PUSH2 0x217 JUMP JUMPDEST PUSH1 0x0 DUP1 SLOAD PUSH1 0x1 PUSH1 0x1 PUSH1 0xA0 SHL SUB DUP4 DUP2 AND PUSH1 0x1 PUSH1 0x1 PUSH1 0xA0 SHL SUB NOT DUP4 AND DUP2 OR DUP5 SSTORE PUSH1 0x40 MLOAD SWAP2 SWAP1 SWAP3 AND SWAP3 DUP4 SWAP2 PUSH32 0x8BE0079C531659141344CD1FD0A4F28419497F9722A3DAAFE3B4186F6B6457E0 SWAP2 SWAP1 LOG3 POP POP JUMP JUMPDEST PUSH1 0x0 DUP1 DUP3 PUSH1 0x1 PUSH1 0x1 PUSH1 0xA0 SHL SUB AND DUP5 PUSH1 0x1 PUSH1 0x1 PUSH1 0xA0 SHL SUB AND SUB PUSH2 0x62E JUMPI PUSH1 0x40 MLOAD PUSH3 0x461BCD PUSH1 0xE5 SHL DUP2 MSTORE PUSH1 0x20 PUSH1 0x4 DUP3 ADD MSTORE PUSH1 0x1E PUSH1 0x24 DUP3 ADD MSTORE PUSH32 0x556E697377617056323A204944454E544943414C5F4144445245535345530000 PUSH1 0x44 DUP3 ADD MSTORE PUSH1 0x64 ADD PUSH2 0x217 JUMP JUMPDEST PUSH1 0x0 DUP1 DUP5 PUSH1 0x1 PUSH1 0x1 PUSH1 0xA0 SHL SUB AND DUP7 PUSH1 0x1 PUSH1 0x1 PUSH1 0xA0 SHL SUB AND LT PUSH2 0x651 JUMPI DUP5 DUP7 PUSH2 0x654 JUMP JUMPDEST DUP6 DUP6 JUMPDEST SWAP1 SWAP3 POP SWAP1 POP PUSH1 0x1 PUSH1 0x1 PUSH1 0xA0 SHL SUB DUP3 AND PUSH2 0x6AF JUMPI PUSH1 0x40 MLOAD PUSH3 0x461BCD PUSH1 0xE5 SHL DUP2 MSTORE PUSH1 0x20 PUSH1 0x4 DUP3 ADD MSTORE PUSH1 0x17 PUSH1 0x24 DUP3 ADD MSTORE PUSH32 0x556E697377617056323A205A45524F5F41444452455353000000000000000000 PUSH1 0x44 DUP3 ADD MSTORE PUSH1 0x64 ADD PUSH2 0x217 JUMP JUMPDEST POP POP SWAP3 POP SWAP3 SWAP1 POP JUMP JUMPDEST PUSH1 0x0 DUP1 DUP5 GT PUSH2 0x71D JUMPI PUSH1 0x40 MLOAD PUSH3 0x461BCD PUSH1 0xE5 SHL DUP2 MSTORE PUSH1 0x20 PUSH1 0x4 DUP3 ADD MSTORE PUSH1 0x2B PUSH1 0x24 DUP3 ADD MSTORE PUSH32 0x556E697377617056324C6962726172793A20494E53554646494349454E545F49 PUSH1 0x44 DUP3 ADD MSTORE PUSH11 0x1394155517D05353D55395 PUSH1 0xAA SHL PUSH1 0x64 DUP3 ADD MSTORE PUSH1 0x84 ADD PUSH2 0x217 JUMP JUMPDEST PUSH1 0x0 DUP4 GT DUP1 ISZERO PUSH2 0x72D JUMPI POP PUSH1 0x0 DUP3 GT JUMPDEST PUSH2 0x78A JUMPI PUSH1 0x40 MLOAD PUSH3 0x461BCD PUSH1 0xE5 SHL DUP2 MSTORE PUSH1 0x20 PUSH1 0x4 DUP3 ADD MSTORE PUSH1 0x28 PUSH1 0x24 DUP3 ADD MSTORE PUSH32 0x556E697377617056324C6962726172793A20494E53554646494349454E545F4C PUSH1 0x44 DUP3 ADD MSTORE PUSH8 0x4951554944495459 PUSH1 0xC0 SHL PUSH1 0x64 DUP3 ADD MSTORE PUSH1 0x84 ADD PUSH2 0x217 JUMP JUMPDEST PUSH1 0x0 PUSH2 0x798 DUP6 PUSH2 0x3E5 PUSH2 0xA75 JUMP JUMPDEST SWAP1 POP PUSH1 0x0 PUSH2 0x7A6 DUP5 DUP4 PUSH2 0xA75 JUMP JUMPDEST SWAP1 POP PUSH1 0x0 DUP3 PUSH2 0x7B7 DUP8 PUSH2 0x3E8 PUSH2 0xA75 JUMP JUMPDEST PUSH2 0x7C1 SWAP2 SWAP1 PUSH2 0xA94 JUMP JUMPDEST SWAP1 POP PUSH2 0x7CD DUP2 DUP4 PUSH2 0xAAC JUMP JUMPDEST SWAP8 SWAP7 POP POP POP POP POP POP POP JUMP JUMPDEST PUSH1 0x0 DUP2 PUSH1 0xFF AND DUP4 PUSH1 0xFF AND LT ISZERO PUSH2 0x820 JUMPI PUSH1 0x40 MLOAD PUSH3 0x461BCD PUSH1 0xE5 SHL DUP2 MSTORE PUSH1 0x20 PUSH1 0x4 DUP3 ADD MSTORE PUSH1 0xD PUSH1 0x24 DUP3 ADD MSTORE PUSH13 0x547269656420656E6F75676821 PUSH1 0x98 SHL PUSH1 0x44 DUP3 ADD MSTORE PUSH1 0x64 ADD PUSH2 0x217 JUMP JUMPDEST PUSH2 0x82E PUSH1 0xFF DUP4 AND PUSH1 0x3 PUSH2 0xA75 JUMP JUMPDEST PUSH2 0x83A SWAP1 PUSH2 0x3E8 PUSH2 0xACE JUMP JUMPDEST SWAP1 POP PUSH2 0x3E8 PUSH2 0x849 DUP3 DUP8 PUSH2 0xA75 JUMP JUMPDEST PUSH2 0x853 SWAP2 SWAP1 PUSH2 0xAAC JUMP JUMPDEST SWAP5 POP PUSH2 0x3E8 PUSH2 0x862 DUP3 DUP7 PUSH2 0xA75 JUMP JUMPDEST PUSH2 0x86C SWAP2 SWAP1 PUSH2 0xAAC JUMP JUMPDEST PUSH1 0x40 DUP1 MLOAD PUSH1 0x0 DUP2 MSTORE PUSH1 0x20 DUP2 ADD SWAP2 DUP3 SWAP1 MSTORE PUSH4 0x22C0D9F PUSH1 0xE0 SHL SWAP1 SWAP2 MSTORE SWAP1 SWAP5 POP PUSH1 0x1 PUSH1 0x1 PUSH1 0xA0 SHL SUB DUP8 AND SWAP1 PUSH4 0x22C0D9F SWAP1 PUSH2 0x8AE SWAP1 DUP9 SWAP1 DUP9 SWAP1 ADDRESS SWAP1 PUSH1 0x24 DUP2 ADD PUSH2 0xAE5 JUMP JUMPDEST PUSH1 0x0 PUSH1 0x40 MLOAD DUP1 DUP4 SUB DUP2 PUSH1 0x0 DUP8 DUP1 EXTCODESIZE ISZERO DUP1 ISZERO PUSH2 0x8C8 JUMPI PUSH1 0x0 DUP1 REVERT JUMPDEST POP GAS CALL SWAP3 POP POP POP DUP1 ISZERO PUSH2 0x8D9 JUMPI POP PUSH1 0x1 JUMPDEST PUSH2 0x8F5 JUMPI PUSH2 0x8F5 DUP7 DUP7 DUP7 DUP7 DUP7 PUSH2 0x8EE DUP2 PUSH2 0xB58 JUMP JUMPDEST SWAP8 POP PUSH2 0x7D8 JUMP JUMPDEST POP POP POP POP POP POP JUMP JUMPDEST PUSH1 0x1 PUSH1 0x1 PUSH1 0xA0 SHL SUB DUP2 AND DUP2 EQ PUSH2 0x51D JUMPI PUSH1 0x0 DUP1 REVERT JUMPDEST PUSH1 0x0 DUP1 PUSH1 0x0 DUP1 PUSH1 0x0 PUSH1 0xA0 DUP7 DUP9 SUB SLT ISZERO PUSH2 0x92A JUMPI PUSH1 0x0 DUP1 REVERT JUMPDEST DUP6 CALLDATALOAD PUSH2 0x935 DUP2 PUSH2 0x8FD JUMP JUMPDEST SWAP5 POP PUSH1 0x20 DUP7 ADD CALLDATALOAD PUSH2 0x945 DUP2 PUSH2 0x8FD JUMP JUMPDEST SWAP4 POP PUSH1 0x40 DUP7 ADD CALLDATALOAD SWAP3 POP PUSH1 0x60 DUP7 ADD CALLDATALOAD SWAP2 POP PUSH1 0x80 DUP7 ADD CALLDATALOAD PUSH1 0xFF DUP2 AND DUP2 EQ PUSH2 0x969 JUMPI PUSH1 0x0 DUP1 REVERT JUMPDEST DUP1 SWAP2 POP POP SWAP3 SWAP6 POP SWAP3 SWAP6 SWAP1 SWAP4 POP JUMP JUMPDEST PUSH1 0x0 PUSH1 0x20 DUP3 DUP5 SUB SLT ISZERO PUSH2 0x989 JUMPI PUSH1 0x0 DUP1 REVERT JUMPDEST DUP2 CALLDATALOAD PUSH2 0x994 DUP2 PUSH2 0x8FD JUMP JUMPDEST SWAP4 SWAP3 POP POP POP JUMP JUMPDEST PUSH1 0x0 PUSH1 0x20 DUP3 DUP5 SUB SLT ISZERO PUSH2 0x9AD JUMPI PUSH1 0x0 DUP1 REVERT JUMPDEST DUP2 MLOAD PUSH2 0x994 DUP2 PUSH2 0x8FD JUMP JUMPDEST DUP1 MLOAD PUSH1 0x1 PUSH1 0x1 PUSH1 0x70 SHL SUB DUP2 AND DUP2 EQ PUSH2 0x9CF JUMPI PUSH1 0x0 DUP1 REVERT JUMPDEST SWAP2 SWAP1 POP JUMP JUMPDEST PUSH1 0x0 DUP1 PUSH1 0x0 PUSH1 0x60 DUP5 DUP7 SUB SLT ISZERO PUSH2 0x9E9 JUMPI PUSH1 0x0 DUP1 REVERT JUMPDEST PUSH2 0x9F2 DUP5 PUSH2 0x9B8 JUMP JUMPDEST SWAP3 POP PUSH2 0xA00 PUSH1 0x20 DUP6 ADD PUSH2 0x9B8 JUMP JUMPDEST SWAP2 POP PUSH1 0x40 DUP5 ADD MLOAD PUSH4 0xFFFFFFFF DUP2 AND DUP2 EQ PUSH2 0xA19 JUMPI PUSH1 0x0 DUP1 REVERT JUMPDEST DUP1 SWAP2 POP POP SWAP3 POP SWAP3 POP SWAP3 JUMP JUMPDEST PUSH1 0x0 PUSH1 0x20 DUP3 DUP5 SUB SLT ISZERO PUSH2 0xA36 JUMPI PUSH1 0x0 DUP1 REVERT JUMPDEST DUP2 MLOAD DUP1 ISZERO ISZERO DUP2 EQ PUSH2 0x994 JUMPI PUSH1 0x0 DUP1 REVERT JUMPDEST PUSH1 0x0 PUSH1 0x20 DUP3 DUP5 SUB SLT ISZERO PUSH2 0xA58 JUMPI PUSH1 0x0 DUP1 REVERT JUMPDEST POP MLOAD SWAP2 SWAP1 POP JUMP JUMPDEST PUSH4 0x4E487B71 PUSH1 0xE0 SHL PUSH1 0x0 MSTORE PUSH1 0x11 PUSH1 0x4 MSTORE PUSH1 0x24 PUSH1 0x0 REVERT JUMPDEST PUSH1 0x0 DUP2 PUSH1 0x0 NOT DIV DUP4 GT DUP3 ISZERO ISZERO AND ISZERO PUSH2 0xA8F JUMPI PUSH2 0xA8F PUSH2 0xA5F JUMP JUMPDEST POP MUL SWAP1 JUMP JUMPDEST PUSH1 0x0 DUP3 NOT DUP3 GT ISZERO PUSH2 0xAA7 JUMPI PUSH2 0xAA7 PUSH2 0xA5F JUMP JUMPDEST POP ADD SWAP1 JUMP JUMPDEST PUSH1 0x0 DUP3 PUSH2 0xAC9 JUMPI PUSH4 0x4E487B71 PUSH1 0xE0 SHL PUSH1 0x0 MSTORE PUSH1 0x12 PUSH1 0x4 MSTORE PUSH1 0x24 PUSH1 0x0 REVERT JUMPDEST POP DIV SWAP1 JUMP JUMPDEST PUSH1 0x0 DUP3 DUP3 LT ISZERO PUSH2 0xAE0 JUMPI PUSH2 0xAE0 PUSH2 0xA5F JUMP JUMPDEST POP SUB SWAP1 JUMP JUMPDEST DUP5 DUP2 MSTORE PUSH1 0x0 PUSH1 0x20 DUP6 DUP2 DUP5 ADD MSTORE PUSH1 0x1 DUP1 PUSH1 0xA0 SHL SUB DUP6 AND PUSH1 0x40 DUP5 ADD MSTORE PUSH1 0x80 PUSH1 0x60 DUP5 ADD MSTORE DUP4 MLOAD DUP1 PUSH1 0x80 DUP6 ADD MSTORE PUSH1 0x0 JUMPDEST DUP2 DUP2 LT ISZERO PUSH2 0xB2D JUMPI DUP6 DUP2 ADD DUP4 ADD MLOAD DUP6 DUP3 ADD PUSH1 0xA0 ADD MSTORE DUP3 ADD PUSH2 0xB11 JUMP JUMPDEST DUP2 DUP2 GT ISZERO PUSH2 0xB3F JUMPI PUSH1 0x0 PUSH1 0xA0 DUP4 DUP8 ADD ADD MSTORE JUMPDEST POP PUSH1 0x1F ADD PUSH1 0x1F NOT AND SWAP3 SWAP1 SWAP3 ADD PUSH1 0xA0 ADD SWAP7 SWAP6 POP POP POP POP POP POP JUMP JUMPDEST PUSH1 0x0 PUSH1 0xFF DUP3 AND PUSH1 0xFF DUP2 SUB PUSH2 0xB6E JUMPI PUSH2 0xB6E PUSH2 0xA5F JUMP JUMPDEST PUSH1 0x1 ADD SWAP3 SWAP2 POP POP JUMP INVALID LOG2 PUSH5 0x6970667358 0x22 SLT KECCAK256 0x49 MSTORE SGT 0xD3 0x5E 0xF8 DUP11 0x2D LOG2 PUSH8 0x6E6093625D1FBC21 SSTORE 0xED SSTORE AND SWAP2 PUSH13 0x55F5F1B44108DE7064736F6C63 NUMBER STOP ADDMOD 0xD STOP CALLER ",
  "sha1": "00f4965b04d273f0df59b5b285cbae1899d8033d",
  "source": "// SCH Course Copyright Policy (C): DO-NOT-SHARE-WITH-ANYONE\n// https://smartcontractshacking.com/#copyright-policy\npragma solidity 0.8.13;\n\nimport \"@openzeppelin/contracts/access/Ownable.sol\";\nimport \"@openzeppelin/contracts/interfaces/IERC20.sol\";\n\nimport \"../interfaces/IUniswapV2.sol\";\ninterface IWETH is IERC20 {\n    function deposit() external payable;\n    function transfer(address to, uint value) external returns (bool);\n    function withdraw(uint) external;\n}\n/**\n * @title Sniper\n * @author JohnnyTime (https://smartcontractshacking.com)\n */\ncontract Sniper is Ownable {\n\n  // We are calculating `amountOut = amountOut * slippage / 1000.\n  // So, if we set slippage to 1000, it means no slippage at all, because 1000 / 1000 = 1\n  // Initally we try to purchase without slippage\n  uint private constant INITIAL_SLIPPAGE = 1000; \n  // Every failed attemp we will increase the slippage by 0.3% (3 / 1000)\n  uint private constant SLLIPAGE_INCREMENTS = 3; \n  address public UniswapV2Factory = address(0x5C69bEe701ef814a2B6a3EDD4B1652CB9cc5aA6f);\n  address public WETH = address(0xC02aaA39b223FE8D0A0e5C4F27eAD9083C756Cc2);\n\n  IUniswapV2Factory private immutable factory;\n\n  address public uniswapV2Pair;\n\n/*   constructor(address _factory) {\n    factory = IUniswapV2Factory(_factory);\n  } */\n  constructor() {\n    factory = IUniswapV2Factory(UniswapV2Factory);\n\n  }\n\n  /**\n   * The main external snipe function that is being called by the contract owner.\n   * Checks the the current reserves, determines the expected amountOut.\n   * If amountOut >= `_absoluteMinAmountOut`, it will try to swap the tokens `_maxRetries` times\n   * using the internal `_swapWithRetries` function.\n   * @param _tokenIn the token address you want to sell\n   * @param _tokenOut the token address you want to buy\n   * @param _amountIn the amount of tokens you are sending in\n   * @param _absoluteMinAmountOut the minimum amount of tokens you want out of the trade\n   * @param _maxRetries In case the swap fails, it will try again _maxRetries times (with higher slippage tolerance every time)\n   */\n  function snipe(\n    address _tokenIn, address _tokenOut, uint256 _amountIn,\n    uint256 _absoluteMinAmountOut, uint8 _maxRetries)\n    external onlyOwner {\n    // TODO: Implement this function\n\n    // TODO: Use the Factory to get the pair contract address, revert if pair doesn't exist\n    // Note: might return error - if the pair is not created yet\n    //factory = IUniswapV2Factory(UniswapV2Factory);\n    address pair = factory.getPair(_tokenIn, _tokenOut);\n    require(pair != address(0), \"Pair does not exists!\");\n    //uniswapV2Pair = uniswapV2Factory.createPair(address(this), weth);\n    \n    // TODO: Sort the tokens using the internal `_sortTokens` function\n    (address token0, address token1) = _sortTokens(_tokenIn, _tokenOut);\n\n    uint256 amountOut;\n    // NOTE: We're using block to avoid \"stack too deep\" error\n    {\n      // TODO: Get pair reserves, and match them with _tokenIn and _tokenOut\n      (uint256 reserve0, uint256 reserve1, ) = IUniswapV2Pair(pair).getReserves();\n      (uint256 reserveIn, uint256 reserveOut) = _tokenIn == token0 ? (reserve0, reserve1) : (reserve1, reserve0);\n      \n      // TODO: Get the expected amount out and revert if it's lower than the `_absoluteMinAmountOut`\n      // NOTE: Use the internal _getAmountOut function\n      amountOut = _getAmountOut(_amountIn, reserveIn, reserveOut);\n      \n    }\n\n    // TODO: Transfer the token to the pair contract\n    IERC20(_tokenIn).transfer(address(pair), _amountIn);\n\n    \n\n    // TODO: Set amount0Out and amount1Out, based on token0 & token1\n    // explanation 1- : _tokenIn is the token we want to sell\n    // explanation 2- : So if tokenIn == token0, \n    // explanation 3- : it means we are not looking for amount0Out,\n    // explanation 4- : because we selling this token and not buying\n    // explanation 5- : Therefore Amount0Out must be ZERO if if tokenIn == token0.\n    (uint256 amount0Out, uint256 amount1Out ) = _tokenIn == token0 ? (uint256(0), amountOut) : (amountOut, uint256(0));\n    // TODO: Call internal _swapWithRetries function with the relevant parameters\n    _swapWithRetries(address(pair), amount0Out, amount1Out, _maxRetries, 0);\n    // TODO: Transfer the sniped tokens to the owner\n    IERC20(_tokenOut).transfer(owner(), IERC20(_tokenOut).balanceOf(address(this)));\n\n  }\n\n  /**\n   * Internal function that will try to swap the tokens using the pair contract\n   * In case the swap failed, it will call itself again with higher slippage\n   * and try again until the swap succeded or `_maxRetries`\n   */\n  function _swapWithRetries(\n    address _pair, uint256 _amount0Out, uint256 _amount1Out, uint8 _maxRetries, uint8 _retryNo\n    ) internal {\n    // TODO: Implement this function\n\n    // Our slippage tolerance. Every retry we will be willinig to pay 0.3% more for the tokens\n    // The slippage will be calculated by `amountOut * slippage / 1000`, so\n    // 0.3% = 997, 0.6% = 994, and so on..\n    uint256 slippageTolerance;\n\n    // TODO: Revert if we reached max retries\n    require(_maxRetries >= _retryNo, \"Tried enough!\");\n\n    // TODO: Set the slippage tolerance based on the _retryNo\n    // TODO: Start from INITIAL_SLIPPAGE, then every retry we reduce SLLIPAGE_INCREMENTS\n    // 0.3% = 997, 0.6% = 994, and so on..\n    slippageTolerance = INITIAL_SLIPPAGE - (SLLIPAGE_INCREMENTS * _retryNo);\n    // TODO: Apply the slippage to the amounts\n    _amount0Out =  _amount0Out * slippageTolerance / 1000;\n    _amount1Out = _amount1Out * slippageTolerance / 1000;\n    // TODO: Call the low-level pair swap() function with all the parameters\n    // TODO: In case it failed, call _swapWithRetreis again (don't forget to increment _retryNo)\n    try IUniswapV2Pair(_pair).swap(_amount0Out, _amount1Out, address(this), new bytes(0)) {\n\n    } catch {\n      _swapWithRetries(_pair, _amount0Out, _amount1Out, _maxRetries, _retryNo++);\n    }\n    /*     function _swap(amount0Out, uint amount1Out, address to, bytes calldata data) external; */\n  }\n\n  /**\n   * Internal function to sort the tokens by their addresses\n   * Exact same logic like in the Unsiwap Factory `createPair()` function.\n   */\n  function _sortTokens(address tokenA, address tokenB) internal pure returns (address token0, address token1) {\n    // TODO: Implement tokens sorting functionality as in Uniswap V2 Factory `createPair` function\n        require(tokenA != tokenB, 'UniswapV2: IDENTICAL_ADDRESSES');\n        (address token0, address token1) = tokenA < tokenB ? (tokenA, tokenB) : (tokenB, tokenA);\n        require(token0 != address(0), 'UniswapV2: ZERO_ADDRESS');\n  }\n\n  /**\n   * Internal function to get the expected amount of tokens which we will receive based on given `amountIn` and pair reserves.\n   * Exact same logic like in the Unsiwap Library `_getAmountOut()` function.\n   */\n  function _getAmountOut(uint amountIn, uint reserveIn, uint reserveOut) internal pure returns (uint amountOut) {\n      // TODO: Implement functionality as in Uniswap V2 Library `getAmountOut` function\n        require(amountIn > 0, 'UniswapV2Library: INSUFFICIENT_INPUT_AMOUNT');\n        require(reserveIn > 0 && reserveOut > 0, 'UniswapV2Library: INSUFFICIENT_LIQUIDITY');\n        uint amountInWithFee = amountIn * 997; // Calculating 0.3% of UniSwap fee, to calculate 0.3% you must multiply by 997\n        uint numerator = amountInWithFee * reserveOut;\n        uint denominator = reserveIn * 1000 + amountInWithFee;\n        amountOut = numerator / denominator;\n  }\n  \n}",
  "sourcePath": "contracts/dex-2/Sniper.sol",
  "type": "contract"
}