{
  "abi": [
    {
      "inputs": [],
      "stateMutability": "nonpayable",
      "type": "constructor"
    },
    {
      "anonymous": false,
      "inputs": [
        {
          "indexed": true,
          "internalType": "address",
          "name": "receiver",
          "type": "address"
        },
        {
          "indexed": false,
          "internalType": "uint256",
          "name": "amount",
          "type": "uint256"
        }
      ],
      "name": "PaymentSent",
      "type": "event"
    },
    {
      "inputs": [],
      "name": "deployer",
      "outputs": [
        {
          "internalType": "address",
          "name": "",
          "type": "address"
        }
      ],
      "stateMutability": "view",
      "type": "function"
    },
    {
      "inputs": [],
      "name": "governance",
      "outputs": [
        {
          "internalType": "address",
          "name": "",
          "type": "address"
        }
      ],
      "stateMutability": "view",
      "type": "function"
    },
    {
      "inputs": [
        {
          "internalType": "address",
          "name": "_receiver",
          "type": "address"
        },
        {
          "internalType": "uint256",
          "name": "_amount",
          "type": "uint256"
        }
      ],
      "name": "sendPayment",
      "outputs": [],
      "stateMutability": "nonpayable",
      "type": "function"
    },
    {
      "inputs": [
        {
          "internalType": "address",
          "name": "_governanceAddress",
          "type": "address"
        }
      ],
      "name": "setGovernance",
      "outputs": [],
      "stateMutability": "nonpayable",
      "type": "function"
    },
    {
      "stateMutability": "payable",
      "type": "receive"
    }
  ],
  "bytecode": "608060405234801561001057600080fd5b50600080546001600160a01b03191633179055610412806100326000396000f3fe6080604052600436106100435760003560e01c80635aa6e6751461004f578063935f4c181461008b578063ab033ea9146100ad578063d5f39488146100cd57600080fd5b3661004a57005b600080fd5b34801561005b57600080fd5b5060015461006f906001600160a01b031681565b6040516001600160a01b03909116815260200160405180910390f35b34801561009757600080fd5b506100ab6100a6366004610390565b6100ed565b005b3480156100b957600080fd5b506100ab6100c83660046103ba565b610198565b3480156100d957600080fd5b5060005461006f906001600160a01b031681565b6001546001600160a01b0316331461013e5760405162461bcd60e51b815260206004820152600f60248201526e4f6e6c7920676f7665726e616e636560881b60448201526064015b60405180910390fd5b6101516001600160a01b03831682610256565b816001600160a01b03167f47db2abce6d5fbcd80ffd9b4ba74dcde804a746ef732bc7f8a70fabfc912c5908260405161018c91815260200190565b60405180910390a25050565b6000546001600160a01b031633146101e25760405162461bcd60e51b815260206004820152600d60248201526c27b7363c903232b83637bcb2b960991b6044820152606401610135565b6001546001600160a01b0316156102345760405162461bcd60e51b815260206004820152601660248201527511dbdd995c9b985b98d948185b1c9958591e481cd95d60521b6044820152606401610135565b600180546001600160a01b0319166001600160a01b0392909216919091179055565b804710156102a65760405162461bcd60e51b815260206004820152601d60248201527f416464726573733a20696e73756666696369656e742062616c616e63650000006044820152606401610135565b6000826001600160a01b03168260405160006040518083038185875af1925050503d80600081146102f3576040519150601f19603f3d011682016040523d82523d6000602084013e6102f8565b606091505b505090508061036f5760405162461bcd60e51b815260206004820152603a60248201527f416464726573733a20756e61626c6520746f2073656e642076616c75652c207260448201527f6563697069656e74206d617920686176652072657665727465640000000000006064820152608401610135565b505050565b80356001600160a01b038116811461038b57600080fd5b919050565b600080604083850312156103a357600080fd5b6103ac83610374565b946020939093013593505050565b6000602082840312156103cc57600080fd5b6103d582610374565b939250505056fea264697066735822122092f1b586ccef9359d89afd0d3df814f9114ce41e57ad89ea20b69ca2a4f15fc564736f6c63430008130033",
  "bytecodeSha1": "3d72cb902dee2e547e4228f2ac01d87d1e7e4728",
  "compiler": {
    "evm_version": "istanbul",
    "optimizer": {
      "enabled": true,
      "runs": 200
    },
    "version": "0.8.19+commit.7dd6d404"
  },
  "contractName": "Treasury",
  "language": "Solidity",
  "natspec": {
    "author": "JohnnyTime (https://smartcontractshacking.com)",
    "kind": "dev",
    "methods": {},
    "title": "Treasury",
    "version": 1
  },
  "opcodes": "PUSH1 0x80 PUSH1 0x40 MSTORE PUSH1 0x4 CALLDATASIZE LT PUSH2 0x43 JUMPI PUSH1 0x0 CALLDATALOAD PUSH1 0xE0 SHR DUP1 PUSH4 0x5AA6E675 EQ PUSH2 0x4F JUMPI DUP1 PUSH4 0x935F4C18 EQ PUSH2 0x8B JUMPI DUP1 PUSH4 0xAB033EA9 EQ PUSH2 0xAD JUMPI DUP1 PUSH4 0xD5F39488 EQ PUSH2 0xCD JUMPI PUSH1 0x0 DUP1 REVERT JUMPDEST CALLDATASIZE PUSH2 0x4A JUMPI STOP JUMPDEST PUSH1 0x0 DUP1 REVERT JUMPDEST CALLVALUE DUP1 ISZERO PUSH2 0x5B JUMPI PUSH1 0x0 DUP1 REVERT JUMPDEST POP PUSH1 0x1 SLOAD PUSH2 0x6F SWAP1 PUSH1 0x1 PUSH1 0x1 PUSH1 0xA0 SHL SUB AND DUP2 JUMP JUMPDEST PUSH1 0x40 MLOAD PUSH1 0x1 PUSH1 0x1 PUSH1 0xA0 SHL SUB SWAP1 SWAP2 AND DUP2 MSTORE PUSH1 0x20 ADD PUSH1 0x40 MLOAD DUP1 SWAP2 SUB SWAP1 RETURN JUMPDEST CALLVALUE DUP1 ISZERO PUSH2 0x97 JUMPI PUSH1 0x0 DUP1 REVERT JUMPDEST POP PUSH2 0xAB PUSH2 0xA6 CALLDATASIZE PUSH1 0x4 PUSH2 0x390 JUMP JUMPDEST PUSH2 0xED JUMP JUMPDEST STOP JUMPDEST CALLVALUE DUP1 ISZERO PUSH2 0xB9 JUMPI PUSH1 0x0 DUP1 REVERT JUMPDEST POP PUSH2 0xAB PUSH2 0xC8 CALLDATASIZE PUSH1 0x4 PUSH2 0x3BA JUMP JUMPDEST PUSH2 0x198 JUMP JUMPDEST CALLVALUE DUP1 ISZERO PUSH2 0xD9 JUMPI PUSH1 0x0 DUP1 REVERT JUMPDEST POP PUSH1 0x0 SLOAD PUSH2 0x6F SWAP1 PUSH1 0x1 PUSH1 0x1 PUSH1 0xA0 SHL SUB AND DUP2 JUMP JUMPDEST PUSH1 0x1 SLOAD PUSH1 0x1 PUSH1 0x1 PUSH1 0xA0 SHL SUB AND CALLER EQ PUSH2 0x13E JUMPI PUSH1 0x40 MLOAD PUSH3 0x461BCD PUSH1 0xE5 SHL DUP2 MSTORE PUSH1 0x20 PUSH1 0x4 DUP3 ADD MSTORE PUSH1 0xF PUSH1 0x24 DUP3 ADD MSTORE PUSH15 0x4F6E6C7920676F7665726E616E6365 PUSH1 0x88 SHL PUSH1 0x44 DUP3 ADD MSTORE PUSH1 0x64 ADD JUMPDEST PUSH1 0x40 MLOAD DUP1 SWAP2 SUB SWAP1 REVERT JUMPDEST PUSH2 0x151 PUSH1 0x1 PUSH1 0x1 PUSH1 0xA0 SHL SUB DUP4 AND DUP3 PUSH2 0x256 JUMP JUMPDEST DUP2 PUSH1 0x1 PUSH1 0x1 PUSH1 0xA0 SHL SUB AND PUSH32 0x47DB2ABCE6D5FBCD80FFD9B4BA74DCDE804A746EF732BC7F8A70FABFC912C590 DUP3 PUSH1 0x40 MLOAD PUSH2 0x18C SWAP2 DUP2 MSTORE PUSH1 0x20 ADD SWAP1 JUMP JUMPDEST PUSH1 0x40 MLOAD DUP1 SWAP2 SUB SWAP1 LOG2 POP POP JUMP JUMPDEST PUSH1 0x0 SLOAD PUSH1 0x1 PUSH1 0x1 PUSH1 0xA0 SHL SUB AND CALLER EQ PUSH2 0x1E2 JUMPI PUSH1 0x40 MLOAD PUSH3 0x461BCD PUSH1 0xE5 SHL DUP2 MSTORE PUSH1 0x20 PUSH1 0x4 DUP3 ADD MSTORE PUSH1 0xD PUSH1 0x24 DUP3 ADD MSTORE PUSH13 0x27B7363C903232B83637BCB2B9 PUSH1 0x99 SHL PUSH1 0x44 DUP3 ADD MSTORE PUSH1 0x64 ADD PUSH2 0x135 JUMP JUMPDEST PUSH1 0x1 SLOAD PUSH1 0x1 PUSH1 0x1 PUSH1 0xA0 SHL SUB AND ISZERO PUSH2 0x234 JUMPI PUSH1 0x40 MLOAD PUSH3 0x461BCD PUSH1 0xE5 SHL DUP2 MSTORE PUSH1 0x20 PUSH1 0x4 DUP3 ADD MSTORE PUSH1 0x16 PUSH1 0x24 DUP3 ADD MSTORE PUSH22 0x11DBDD995C9B985B98D948185B1C9958591E481CD95D PUSH1 0x52 SHL PUSH1 0x44 DUP3 ADD MSTORE PUSH1 0x64 ADD PUSH2 0x135 JUMP JUMPDEST PUSH1 0x1 DUP1 SLOAD PUSH1 0x1 PUSH1 0x1 PUSH1 0xA0 SHL SUB NOT AND PUSH1 0x1 PUSH1 0x1 PUSH1 0xA0 SHL SUB SWAP3 SWAP1 SWAP3 AND SWAP2 SWAP1 SWAP2 OR SWAP1 SSTORE JUMP JUMPDEST DUP1 SELFBALANCE LT ISZERO PUSH2 0x2A6 JUMPI PUSH1 0x40 MLOAD PUSH3 0x461BCD PUSH1 0xE5 SHL DUP2 MSTORE PUSH1 0x20 PUSH1 0x4 DUP3 ADD MSTORE PUSH1 0x1D PUSH1 0x24 DUP3 ADD MSTORE PUSH32 0x416464726573733A20696E73756666696369656E742062616C616E6365000000 PUSH1 0x44 DUP3 ADD MSTORE PUSH1 0x64 ADD PUSH2 0x135 JUMP JUMPDEST PUSH1 0x0 DUP3 PUSH1 0x1 PUSH1 0x1 PUSH1 0xA0 SHL SUB AND DUP3 PUSH1 0x40 MLOAD PUSH1 0x0 PUSH1 0x40 MLOAD DUP1 DUP4 SUB DUP2 DUP6 DUP8 GAS CALL SWAP3 POP POP POP RETURNDATASIZE DUP1 PUSH1 0x0 DUP2 EQ PUSH2 0x2F3 JUMPI PUSH1 0x40 MLOAD SWAP2 POP PUSH1 0x1F NOT PUSH1 0x3F RETURNDATASIZE ADD AND DUP3 ADD PUSH1 0x40 MSTORE RETURNDATASIZE DUP3 MSTORE RETURNDATASIZE PUSH1 0x0 PUSH1 0x20 DUP5 ADD RETURNDATACOPY PUSH2 0x2F8 JUMP JUMPDEST PUSH1 0x60 SWAP2 POP JUMPDEST POP POP SWAP1 POP DUP1 PUSH2 0x36F JUMPI PUSH1 0x40 MLOAD PUSH3 0x461BCD PUSH1 0xE5 SHL DUP2 MSTORE PUSH1 0x20 PUSH1 0x4 DUP3 ADD MSTORE PUSH1 0x3A PUSH1 0x24 DUP3 ADD MSTORE PUSH32 0x416464726573733A20756E61626C6520746F2073656E642076616C75652C2072 PUSH1 0x44 DUP3 ADD MSTORE PUSH32 0x6563697069656E74206D61792068617665207265766572746564000000000000 PUSH1 0x64 DUP3 ADD MSTORE PUSH1 0x84 ADD PUSH2 0x135 JUMP JUMPDEST POP POP POP JUMP JUMPDEST DUP1 CALLDATALOAD PUSH1 0x1 PUSH1 0x1 PUSH1 0xA0 SHL SUB DUP2 AND DUP2 EQ PUSH2 0x38B JUMPI PUSH1 0x0 DUP1 REVERT JUMPDEST SWAP2 SWAP1 POP JUMP JUMPDEST PUSH1 0x0 DUP1 PUSH1 0x40 DUP4 DUP6 SUB SLT ISZERO PUSH2 0x3A3 JUMPI PUSH1 0x0 DUP1 REVERT JUMPDEST PUSH2 0x3AC DUP4 PUSH2 0x374 JUMP JUMPDEST SWAP5 PUSH1 0x20 SWAP4 SWAP1 SWAP4 ADD CALLDATALOAD SWAP4 POP POP POP JUMP JUMPDEST PUSH1 0x0 PUSH1 0x20 DUP3 DUP5 SUB SLT ISZERO PUSH2 0x3CC JUMPI PUSH1 0x0 DUP1 REVERT JUMPDEST PUSH2 0x3D5 DUP3 PUSH2 0x374 JUMP JUMPDEST SWAP4 SWAP3 POP POP POP JUMP INVALID LOG2 PUSH5 0x6970667358 0x22 SLT KECCAK256 SWAP3 CALL 0xB5 DUP7 0xCC 0xEF SWAP4 MSIZE 0xD8 SWAP11 REVERT 0xD RETURNDATASIZE 0xF8 EQ 0xF9 GT 0x4C 0xE4 0x1E JUMPI 0xAD DUP10 0xEA KECCAK256 0xB6 SWAP13 LOG2 LOG4 CALL 0x5F 0xC5 PUSH5 0x736F6C6343 STOP ADDMOD SGT STOP CALLER ",
  "sha1": "4a492b3e977b1bf4dde06b9f7b473b4ed5d65c50",
  "source": "// SPDX-License-Identifier: MIT\n// SCH Course Copyright Policy (C): DO-NOT-SHARE-WITH-ANYONE\n// https://smartcontractshacking.com/#copyright-policy\npragma solidity ^0.8.13;\n\nimport \"@openzeppelin/contracts/utils/Address.sol\";\n\n/**\n * @title Treasury\n * @author JohnnyTime (https://smartcontractshacking.com)\n */\ncontract Treasury {\n\n    using Address for address payable;\n    address public deployer;\n    address public governance;\n\n    event PaymentSent(address indexed receiver, uint256 amount);\n\n    modifier onlyGovernance() {\n        require(msg.sender == governance, \"Only governance\");\n        _;\n    }\n\n    modifier onlyDeployer() {\n        require(msg.sender == deployer, \"Only deployer\");\n        _;\n    }\n\n    constructor() {\n        deployer = msg.sender;\n    }\n\n    function setGovernance(address _governanceAddress) external onlyDeployer {\n        require(governance == address(0), \"Governance already set\");\n        governance = _governanceAddress;\n    }\n\n    function sendPayment(address _receiver, uint _amount) external onlyGovernance {\n        payable(_receiver).sendValue(_amount);\n        emit PaymentSent(_receiver, _amount);\n    }\n\n    receive() external payable {}\n}\n",
  "sourcePath": "contracts/dao-attack-3/Treasury.sol",
  "type": "contract"
}