{
  "abi": [
    {
      "inputs": [],
      "stateMutability": "nonpayable",
      "type": "constructor"
    },
    {
      "inputs": [],
      "name": "EmptyOrder",
      "type": "error"
    },
    {
      "inputs": [],
      "name": "InvalidBlockNumber",
      "type": "error"
    },
    {
      "inputs": [],
      "name": "OnlyKeeper",
      "type": "error"
    },
    {
      "anonymous": false,
      "inputs": [
        {
          "indexed": false,
          "internalType": "uint256",
          "name": "id",
          "type": "uint256"
        },
        {
          "indexed": false,
          "internalType": "string",
          "name": "revertMessage",
          "type": "string"
        },
        {
          "indexed": false,
          "internalType": "bytes",
          "name": "revertData",
          "type": "bytes"
        }
      ],
      "name": "CallbackFailed",
      "type": "event"
    },
    {
      "anonymous": false,
      "inputs": [
        {
          "indexed": false,
          "internalType": "string",
          "name": "message",
          "type": "string"
        },
        {
          "indexed": false,
          "internalType": "bytes",
          "name": "data",
          "type": "bytes"
        }
      ],
      "name": "ParsedMessage",
      "type": "event"
    },
    {
      "anonymous": false,
      "inputs": [
        {
          "indexed": false,
          "internalType": "bytes",
          "name": "data",
          "type": "bytes"
        }
      ],
      "name": "RevertMessageUnparsable",
      "type": "event"
    },
    {
      "anonymous": false,
      "inputs": [
        {
          "indexed": false,
          "internalType": "uint256",
          "name": "id",
          "type": "uint256"
        },
        {
          "indexed": false,
          "internalType": "uint256",
          "name": "price",
          "type": "uint256"
        }
      ],
      "name": "SwapOrderExecuted",
      "type": "event"
    },
    {
      "inputs": [
        {
          "internalType": "address[]",
          "name": "_route",
          "type": "address[]"
        },
        {
          "internalType": "uint256",
          "name": "_amountIn",
          "type": "uint256"
        },
        {
          "internalType": "address",
          "name": "_callbackContract",
          "type": "address"
        }
      ],
      "name": "createSwapOrder",
      "outputs": [],
      "stateMutability": "nonpayable",
      "type": "function"
    },
    {
      "inputs": [
        {
          "internalType": "uint256",
          "name": "_id",
          "type": "uint256"
        },
        {
          "components": [
            {
              "internalType": "uint256",
              "name": "price",
              "type": "uint256"
            },
            {
              "internalType": "uint256",
              "name": "blockNumber",
              "type": "uint256"
            }
          ],
          "internalType": "struct TwoStepExchange.PriceParams",
          "name": "params",
          "type": "tuple"
        }
      ],
      "name": "executeSwapOrder",
      "outputs": [],
      "stateMutability": "nonpayable",
      "type": "function"
    }
  ],
  "bytecode": "608060405234801561001057600080fd5b50600280546001600160a01b03191633179055610810806100326000396000f3fe608060405234801561001057600080fd5b50600436106100365760003560e01c80632467c47c1461003b578063d26d7e6114610050575b600080fd5b61004e610049366004610551565b610063565b005b61004e61005e366004610589565b6102e7565b6002546001600160a01b0316331461008e5760405163c60eb33560e01b815260040160405180910390fd5b600082815260208181526040808320815160a08101835281546001600160a01b03168152600182018054845181870281018701909552808552919492938584019390929083018282801561010b57602002820191906000526020600020905b81546001600160a01b031681526001909101906020018083116100ed575b50505091835250506002820154602082015260038201546001600160a01b03908116604083015260049092015460609091015281519192501661016157604051631630779760e01b815260040160405180910390fd5b806080015182602001351461018957604051631391e11b60e21b815260040160405180910390fd5b80606001516001600160a01b0316636e785635621e84806040518263ffffffff1660e01b8152600401600060405180830381600088803b1580156101cc57600080fd5b5087f1935050505080156101de575060015b61025d573d80801561020c576040519150601f19603f3d011682016040523d82523d6000602084013e610211565b606091505b50600061021d826103f7565b90507fbf632020a1c07f4b367ca6ae407917ce61e6b899501cd7dd12053431c249f4b985828460405161025293929190610673565b60405180910390a150505b600083815260208190526040812080546001600160a01b03191681559061028760018301826104b6565b506000600282018190556003820180546001600160a01b031916905560049091015560408051848152833560208201527f8497a12481e78c68d92b598ec252fed7981f6f4db17519f38b30085d27b0693a910160405180910390a1505050565b6040518060a00160405280336001600160a01b031681526020018585808060200260200160405190810160405280939291908181526020018383602002808284376000920182905250938552505050602082018590526001600160a01b038416604083015243606090920191909152600180548291908290610368906106a8565b91829055508152602080820192909252604001600020825181546001600160a01b0319166001600160a01b0390911617815582820151805191926103b4926001850192909101906104d7565b506040820151600282015560608201516003820180546001600160a01b0319166001600160a01b0390921691909117905560809091015160049091015550505050565b6040805160208082019092526000815290820151606091906307b9e43360e51b8101610477576004840193508380602001905181019061043791906106e5565b91507f834f1ff8b471941193150a9823e4caec4e20847eee18456b3782315a53e619e5828560405161046a929190610792565b60405180910390a16104af565b7fab15871cb2fa4db3b815cf4c915f3ea1bbcfabe6094e9b8b2b1a0e973fad673e846040516104a691906107c0565b60405180910390a15b5092915050565b50805460008255906000526020600020908101906104d4919061053c565b50565b82805482825590600052602060002090810192821561052c579160200282015b8281111561052c57825182546001600160a01b0319166001600160a01b039091161782556020909201916001909101906104f7565b5061053892915061053c565b5090565b5b80821115610538576000815560010161053d565b600080828403606081121561056557600080fd5b833592506040601f198201121561057b57600080fd5b506020830190509250929050565b6000806000806060858703121561059f57600080fd5b843567ffffffffffffffff808211156105b757600080fd5b818701915087601f8301126105cb57600080fd5b8135818111156105da57600080fd5b8860208260051b85010111156105ef57600080fd5b60209283019650945050850135915060408501356001600160a01b038116811461061857600080fd5b939692955090935050565b60005b8381101561063e578181015183820152602001610626565b50506000910152565b6000815180845261065f816020860160208601610623565b601f01601f19169290920160200192915050565b83815260606020820152600061068c6060830185610647565b828103604084015261069e8185610647565b9695505050505050565b6000600182016106c857634e487b7160e01b600052601160045260246000fd5b5060010190565b634e487b7160e01b600052604160045260246000fd5b6000602082840312156106f757600080fd5b815167ffffffffffffffff8082111561070f57600080fd5b818401915084601f83011261072357600080fd5b815181811115610735576107356106cf565b604051601f8201601f19908116603f0116810190838211818310171561075d5761075d6106cf565b8160405282815287602084870101111561077657600080fd5b610787836020830160208801610623565b979650505050505050565b6040815260006107a56040830185610647565b82810360208401526107b78185610647565b95945050505050565b6020815260006107d36020830184610647565b939250505056fea26469706673582212204ab97e7c153311d799efb86cbc6bc492e66fce7bb40f29597ee1d0d0a8273bf864736f6c63430008130033",
  "bytecodeSha1": "ed5bd3e706ff5c4bd8dee5af40a5acc28bf4b5ec",
  "compiler": {
    "evm_version": "istanbul",
    "optimizer": {
      "enabled": true,
      "runs": 200
    },
    "version": "0.8.19+commit.7dd6d404"
  },
  "contractName": "TwoStepExchange",
  "language": "Solidity",
  "natspec": {
    "kind": "dev",
    "methods": {},
    "version": 1
  },
  "opcodes": "PUSH1 0x80 PUSH1 0x40 MSTORE CALLVALUE DUP1 ISZERO PUSH2 0x10 JUMPI PUSH1 0x0 DUP1 REVERT JUMPDEST POP PUSH1 0x4 CALLDATASIZE LT PUSH2 0x36 JUMPI PUSH1 0x0 CALLDATALOAD PUSH1 0xE0 SHR DUP1 PUSH4 0x2467C47C EQ PUSH2 0x3B JUMPI DUP1 PUSH4 0xD26D7E61 EQ PUSH2 0x50 JUMPI JUMPDEST PUSH1 0x0 DUP1 REVERT JUMPDEST PUSH2 0x4E PUSH2 0x49 CALLDATASIZE PUSH1 0x4 PUSH2 0x551 JUMP JUMPDEST PUSH2 0x63 JUMP JUMPDEST STOP JUMPDEST PUSH2 0x4E PUSH2 0x5E CALLDATASIZE PUSH1 0x4 PUSH2 0x589 JUMP JUMPDEST PUSH2 0x2E7 JUMP JUMPDEST PUSH1 0x2 SLOAD PUSH1 0x1 PUSH1 0x1 PUSH1 0xA0 SHL SUB AND CALLER EQ PUSH2 0x8E JUMPI PUSH1 0x40 MLOAD PUSH4 0xC60EB335 PUSH1 0xE0 SHL DUP2 MSTORE PUSH1 0x4 ADD PUSH1 0x40 MLOAD DUP1 SWAP2 SUB SWAP1 REVERT JUMPDEST PUSH1 0x0 DUP3 DUP2 MSTORE PUSH1 0x20 DUP2 DUP2 MSTORE PUSH1 0x40 DUP1 DUP4 KECCAK256 DUP2 MLOAD PUSH1 0xA0 DUP2 ADD DUP4 MSTORE DUP2 SLOAD PUSH1 0x1 PUSH1 0x1 PUSH1 0xA0 SHL SUB AND DUP2 MSTORE PUSH1 0x1 DUP3 ADD DUP1 SLOAD DUP5 MLOAD DUP2 DUP8 MUL DUP2 ADD DUP8 ADD SWAP1 SWAP6 MSTORE DUP1 DUP6 MSTORE SWAP2 SWAP5 SWAP3 SWAP4 DUP6 DUP5 ADD SWAP4 SWAP1 SWAP3 SWAP1 DUP4 ADD DUP3 DUP3 DUP1 ISZERO PUSH2 0x10B JUMPI PUSH1 0x20 MUL DUP3 ADD SWAP2 SWAP1 PUSH1 0x0 MSTORE PUSH1 0x20 PUSH1 0x0 KECCAK256 SWAP1 JUMPDEST DUP2 SLOAD PUSH1 0x1 PUSH1 0x1 PUSH1 0xA0 SHL SUB AND DUP2 MSTORE PUSH1 0x1 SWAP1 SWAP2 ADD SWAP1 PUSH1 0x20 ADD DUP1 DUP4 GT PUSH2 0xED JUMPI JUMPDEST POP POP POP SWAP2 DUP4 MSTORE POP POP PUSH1 0x2 DUP3 ADD SLOAD PUSH1 0x20 DUP3 ADD MSTORE PUSH1 0x3 DUP3 ADD SLOAD PUSH1 0x1 PUSH1 0x1 PUSH1 0xA0 SHL SUB SWAP1 DUP2 AND PUSH1 0x40 DUP4 ADD MSTORE PUSH1 0x4 SWAP1 SWAP3 ADD SLOAD PUSH1 0x60 SWAP1 SWAP2 ADD MSTORE DUP2 MLOAD SWAP2 SWAP3 POP AND PUSH2 0x161 JUMPI PUSH1 0x40 MLOAD PUSH4 0x16307797 PUSH1 0xE0 SHL DUP2 MSTORE PUSH1 0x4 ADD PUSH1 0x40 MLOAD DUP1 SWAP2 SUB SWAP1 REVERT JUMPDEST DUP1 PUSH1 0x80 ADD MLOAD DUP3 PUSH1 0x20 ADD CALLDATALOAD EQ PUSH2 0x189 JUMPI PUSH1 0x40 MLOAD PUSH4 0x1391E11B PUSH1 0xE2 SHL DUP2 MSTORE PUSH1 0x4 ADD PUSH1 0x40 MLOAD DUP1 SWAP2 SUB SWAP1 REVERT JUMPDEST DUP1 PUSH1 0x60 ADD MLOAD PUSH1 0x1 PUSH1 0x1 PUSH1 0xA0 SHL SUB AND PUSH4 0x6E785635 PUSH3 0x1E8480 PUSH1 0x40 MLOAD DUP3 PUSH4 0xFFFFFFFF AND PUSH1 0xE0 SHL DUP2 MSTORE PUSH1 0x4 ADD PUSH1 0x0 PUSH1 0x40 MLOAD DUP1 DUP4 SUB DUP2 PUSH1 0x0 DUP9 DUP1 EXTCODESIZE ISZERO DUP1 ISZERO PUSH2 0x1CC JUMPI PUSH1 0x0 DUP1 REVERT JUMPDEST POP DUP8 CALL SWAP4 POP POP POP POP DUP1 ISZERO PUSH2 0x1DE JUMPI POP PUSH1 0x1 JUMPDEST PUSH2 0x25D JUMPI RETURNDATASIZE DUP1 DUP1 ISZERO PUSH2 0x20C JUMPI PUSH1 0x40 MLOAD SWAP2 POP PUSH1 0x1F NOT PUSH1 0x3F RETURNDATASIZE ADD AND DUP3 ADD PUSH1 0x40 MSTORE RETURNDATASIZE DUP3 MSTORE RETURNDATASIZE PUSH1 0x0 PUSH1 0x20 DUP5 ADD RETURNDATACOPY PUSH2 0x211 JUMP JUMPDEST PUSH1 0x60 SWAP2 POP JUMPDEST POP PUSH1 0x0 PUSH2 0x21D DUP3 PUSH2 0x3F7 JUMP JUMPDEST SWAP1 POP PUSH32 0xBF632020A1C07F4B367CA6AE407917CE61E6B899501CD7DD12053431C249F4B9 DUP6 DUP3 DUP5 PUSH1 0x40 MLOAD PUSH2 0x252 SWAP4 SWAP3 SWAP2 SWAP1 PUSH2 0x673 JUMP JUMPDEST PUSH1 0x40 MLOAD DUP1 SWAP2 SUB SWAP1 LOG1 POP POP JUMPDEST PUSH1 0x0 DUP4 DUP2 MSTORE PUSH1 0x20 DUP2 SWAP1 MSTORE PUSH1 0x40 DUP2 KECCAK256 DUP1 SLOAD PUSH1 0x1 PUSH1 0x1 PUSH1 0xA0 SHL SUB NOT AND DUP2 SSTORE SWAP1 PUSH2 0x287 PUSH1 0x1 DUP4 ADD DUP3 PUSH2 0x4B6 JUMP JUMPDEST POP PUSH1 0x0 PUSH1 0x2 DUP3 ADD DUP2 SWAP1 SSTORE PUSH1 0x3 DUP3 ADD DUP1 SLOAD PUSH1 0x1 PUSH1 0x1 PUSH1 0xA0 SHL SUB NOT AND SWAP1 SSTORE PUSH1 0x4 SWAP1 SWAP2 ADD SSTORE PUSH1 0x40 DUP1 MLOAD DUP5 DUP2 MSTORE DUP4 CALLDATALOAD PUSH1 0x20 DUP3 ADD MSTORE PUSH32 0x8497A12481E78C68D92B598EC252FED7981F6F4DB17519F38B30085D27B0693A SWAP2 ADD PUSH1 0x40 MLOAD DUP1 SWAP2 SUB SWAP1 LOG1 POP POP POP JUMP JUMPDEST PUSH1 0x40 MLOAD DUP1 PUSH1 0xA0 ADD PUSH1 0x40 MSTORE DUP1 CALLER PUSH1 0x1 PUSH1 0x1 PUSH1 0xA0 SHL SUB AND DUP2 MSTORE PUSH1 0x20 ADD DUP6 DUP6 DUP1 DUP1 PUSH1 0x20 MUL PUSH1 0x20 ADD PUSH1 0x40 MLOAD SWAP1 DUP2 ADD PUSH1 0x40 MSTORE DUP1 SWAP4 SWAP3 SWAP2 SWAP1 DUP2 DUP2 MSTORE PUSH1 0x20 ADD DUP4 DUP4 PUSH1 0x20 MUL DUP1 DUP3 DUP5 CALLDATACOPY PUSH1 0x0 SWAP3 ADD DUP3 SWAP1 MSTORE POP SWAP4 DUP6 MSTORE POP POP POP PUSH1 0x20 DUP3 ADD DUP6 SWAP1 MSTORE PUSH1 0x1 PUSH1 0x1 PUSH1 0xA0 SHL SUB DUP5 AND PUSH1 0x40 DUP4 ADD MSTORE NUMBER PUSH1 0x60 SWAP1 SWAP3 ADD SWAP2 SWAP1 SWAP2 MSTORE PUSH1 0x1 DUP1 SLOAD DUP3 SWAP2 SWAP1 DUP3 SWAP1 PUSH2 0x368 SWAP1 PUSH2 0x6A8 JUMP JUMPDEST SWAP2 DUP3 SWAP1 SSTORE POP DUP2 MSTORE PUSH1 0x20 DUP1 DUP3 ADD SWAP3 SWAP1 SWAP3 MSTORE PUSH1 0x40 ADD PUSH1 0x0 KECCAK256 DUP3 MLOAD DUP2 SLOAD PUSH1 0x1 PUSH1 0x1 PUSH1 0xA0 SHL SUB NOT AND PUSH1 0x1 PUSH1 0x1 PUSH1 0xA0 SHL SUB SWAP1 SWAP2 AND OR DUP2 SSTORE DUP3 DUP3 ADD MLOAD DUP1 MLOAD SWAP2 SWAP3 PUSH2 0x3B4 SWAP3 PUSH1 0x1 DUP6 ADD SWAP3 SWAP1 SWAP2 ADD SWAP1 PUSH2 0x4D7 JUMP JUMPDEST POP PUSH1 0x40 DUP3 ADD MLOAD PUSH1 0x2 DUP3 ADD SSTORE PUSH1 0x60 DUP3 ADD MLOAD PUSH1 0x3 DUP3 ADD DUP1 SLOAD PUSH1 0x1 PUSH1 0x1 PUSH1 0xA0 SHL SUB NOT AND PUSH1 0x1 PUSH1 0x1 PUSH1 0xA0 SHL SUB SWAP1 SWAP3 AND SWAP2 SWAP1 SWAP2 OR SWAP1 SSTORE PUSH1 0x80 SWAP1 SWAP2 ADD MLOAD PUSH1 0x4 SWAP1 SWAP2 ADD SSTORE POP POP POP POP JUMP JUMPDEST PUSH1 0x40 DUP1 MLOAD PUSH1 0x20 DUP1 DUP3 ADD SWAP1 SWAP3 MSTORE PUSH1 0x0 DUP2 MSTORE SWAP1 DUP3 ADD MLOAD PUSH1 0x60 SWAP2 SWAP1 PUSH4 0x7B9E433 PUSH1 0xE5 SHL DUP2 ADD PUSH2 0x477 JUMPI PUSH1 0x4 DUP5 ADD SWAP4 POP DUP4 DUP1 PUSH1 0x20 ADD SWAP1 MLOAD DUP2 ADD SWAP1 PUSH2 0x437 SWAP2 SWAP1 PUSH2 0x6E5 JUMP JUMPDEST SWAP2 POP PUSH32 0x834F1FF8B471941193150A9823E4CAEC4E20847EEE18456B3782315A53E619E5 DUP3 DUP6 PUSH1 0x40 MLOAD PUSH2 0x46A SWAP3 SWAP2 SWAP1 PUSH2 0x792 JUMP JUMPDEST PUSH1 0x40 MLOAD DUP1 SWAP2 SUB SWAP1 LOG1 PUSH2 0x4AF JUMP JUMPDEST PUSH32 0xAB15871CB2FA4DB3B815CF4C915F3EA1BBCFABE6094E9B8B2B1A0E973FAD673E DUP5 PUSH1 0x40 MLOAD PUSH2 0x4A6 SWAP2 SWAP1 PUSH2 0x7C0 JUMP JUMPDEST PUSH1 0x40 MLOAD DUP1 SWAP2 SUB SWAP1 LOG1 JUMPDEST POP SWAP3 SWAP2 POP POP JUMP JUMPDEST POP DUP1 SLOAD PUSH1 0x0 DUP3 SSTORE SWAP1 PUSH1 0x0 MSTORE PUSH1 0x20 PUSH1 0x0 KECCAK256 SWAP1 DUP2 ADD SWAP1 PUSH2 0x4D4 SWAP2 SWAP1 PUSH2 0x53C JUMP JUMPDEST POP JUMP JUMPDEST DUP3 DUP1 SLOAD DUP3 DUP3 SSTORE SWAP1 PUSH1 0x0 MSTORE PUSH1 0x20 PUSH1 0x0 KECCAK256 SWAP1 DUP2 ADD SWAP3 DUP3 ISZERO PUSH2 0x52C JUMPI SWAP2 PUSH1 0x20 MUL DUP3 ADD JUMPDEST DUP3 DUP2 GT ISZERO PUSH2 0x52C JUMPI DUP3 MLOAD DUP3 SLOAD PUSH1 0x1 PUSH1 0x1 PUSH1 0xA0 SHL SUB NOT AND PUSH1 0x1 PUSH1 0x1 PUSH1 0xA0 SHL SUB SWAP1 SWAP2 AND OR DUP3 SSTORE PUSH1 0x20 SWAP1 SWAP3 ADD SWAP2 PUSH1 0x1 SWAP1 SWAP2 ADD SWAP1 PUSH2 0x4F7 JUMP JUMPDEST POP PUSH2 0x538 SWAP3 SWAP2 POP PUSH2 0x53C JUMP JUMPDEST POP SWAP1 JUMP JUMPDEST JUMPDEST DUP1 DUP3 GT ISZERO PUSH2 0x538 JUMPI PUSH1 0x0 DUP2 SSTORE PUSH1 0x1 ADD PUSH2 0x53D JUMP JUMPDEST PUSH1 0x0 DUP1 DUP3 DUP5 SUB PUSH1 0x60 DUP2 SLT ISZERO PUSH2 0x565 JUMPI PUSH1 0x0 DUP1 REVERT JUMPDEST DUP4 CALLDATALOAD SWAP3 POP PUSH1 0x40 PUSH1 0x1F NOT DUP3 ADD SLT ISZERO PUSH2 0x57B JUMPI PUSH1 0x0 DUP1 REVERT JUMPDEST POP PUSH1 0x20 DUP4 ADD SWAP1 POP SWAP3 POP SWAP3 SWAP1 POP JUMP JUMPDEST PUSH1 0x0 DUP1 PUSH1 0x0 DUP1 PUSH1 0x60 DUP6 DUP8 SUB SLT ISZERO PUSH2 0x59F JUMPI PUSH1 0x0 DUP1 REVERT JUMPDEST DUP5 CALLDATALOAD PUSH8 0xFFFFFFFFFFFFFFFF DUP1 DUP3 GT ISZERO PUSH2 0x5B7 JUMPI PUSH1 0x0 DUP1 REVERT JUMPDEST DUP2 DUP8 ADD SWAP2 POP DUP8 PUSH1 0x1F DUP4 ADD SLT PUSH2 0x5CB JUMPI PUSH1 0x0 DUP1 REVERT JUMPDEST DUP2 CALLDATALOAD DUP2 DUP2 GT ISZERO PUSH2 0x5DA JUMPI PUSH1 0x0 DUP1 REVERT JUMPDEST DUP9 PUSH1 0x20 DUP3 PUSH1 0x5 SHL DUP6 ADD ADD GT ISZERO PUSH2 0x5EF JUMPI PUSH1 0x0 DUP1 REVERT JUMPDEST PUSH1 0x20 SWAP3 DUP4 ADD SWAP7 POP SWAP5 POP POP DUP6 ADD CALLDATALOAD SWAP2 POP PUSH1 0x40 DUP6 ADD CALLDATALOAD PUSH1 0x1 PUSH1 0x1 PUSH1 0xA0 SHL SUB DUP2 AND DUP2 EQ PUSH2 0x618 JUMPI PUSH1 0x0 DUP1 REVERT JUMPDEST SWAP4 SWAP7 SWAP3 SWAP6 POP SWAP1 SWAP4 POP POP JUMP JUMPDEST PUSH1 0x0 JUMPDEST DUP4 DUP2 LT ISZERO PUSH2 0x63E JUMPI DUP2 DUP2 ADD MLOAD DUP4 DUP3 ADD MSTORE PUSH1 0x20 ADD PUSH2 0x626 JUMP JUMPDEST POP POP PUSH1 0x0 SWAP2 ADD MSTORE JUMP JUMPDEST PUSH1 0x0 DUP2 MLOAD DUP1 DUP5 MSTORE PUSH2 0x65F DUP2 PUSH1 0x20 DUP7 ADD PUSH1 0x20 DUP7 ADD PUSH2 0x623 JUMP JUMPDEST PUSH1 0x1F ADD PUSH1 0x1F NOT AND SWAP3 SWAP1 SWAP3 ADD PUSH1 0x20 ADD SWAP3 SWAP2 POP POP JUMP JUMPDEST DUP4 DUP2 MSTORE PUSH1 0x60 PUSH1 0x20 DUP3 ADD MSTORE PUSH1 0x0 PUSH2 0x68C PUSH1 0x60 DUP4 ADD DUP6 PUSH2 0x647 JUMP JUMPDEST DUP3 DUP2 SUB PUSH1 0x40 DUP5 ADD MSTORE PUSH2 0x69E DUP2 DUP6 PUSH2 0x647 JUMP JUMPDEST SWAP7 SWAP6 POP POP POP POP POP POP JUMP JUMPDEST PUSH1 0x0 PUSH1 0x1 DUP3 ADD PUSH2 0x6C8 JUMPI PUSH4 0x4E487B71 PUSH1 0xE0 SHL PUSH1 0x0 MSTORE PUSH1 0x11 PUSH1 0x4 MSTORE PUSH1 0x24 PUSH1 0x0 REVERT JUMPDEST POP PUSH1 0x1 ADD SWAP1 JUMP JUMPDEST PUSH4 0x4E487B71 PUSH1 0xE0 SHL PUSH1 0x0 MSTORE PUSH1 0x41 PUSH1 0x4 MSTORE PUSH1 0x24 PUSH1 0x0 REVERT JUMPDEST PUSH1 0x0 PUSH1 0x20 DUP3 DUP5 SUB SLT ISZERO PUSH2 0x6F7 JUMPI PUSH1 0x0 DUP1 REVERT JUMPDEST DUP2 MLOAD PUSH8 0xFFFFFFFFFFFFFFFF DUP1 DUP3 GT ISZERO PUSH2 0x70F JUMPI PUSH1 0x0 DUP1 REVERT JUMPDEST DUP2 DUP5 ADD SWAP2 POP DUP5 PUSH1 0x1F DUP4 ADD SLT PUSH2 0x723 JUMPI PUSH1 0x0 DUP1 REVERT JUMPDEST DUP2 MLOAD DUP2 DUP2 GT ISZERO PUSH2 0x735 JUMPI PUSH2 0x735 PUSH2 0x6CF JUMP JUMPDEST PUSH1 0x40 MLOAD PUSH1 0x1F DUP3 ADD PUSH1 0x1F NOT SWAP1 DUP2 AND PUSH1 0x3F ADD AND DUP2 ADD SWAP1 DUP4 DUP3 GT DUP2 DUP4 LT OR ISZERO PUSH2 0x75D JUMPI PUSH2 0x75D PUSH2 0x6CF JUMP JUMPDEST DUP2 PUSH1 0x40 MSTORE DUP3 DUP2 MSTORE DUP8 PUSH1 0x20 DUP5 DUP8 ADD ADD GT ISZERO PUSH2 0x776 JUMPI PUSH1 0x0 DUP1 REVERT JUMPDEST PUSH2 0x787 DUP4 PUSH1 0x20 DUP4 ADD PUSH1 0x20 DUP9 ADD PUSH2 0x623 JUMP JUMPDEST SWAP8 SWAP7 POP POP POP POP POP POP POP JUMP JUMPDEST PUSH1 0x40 DUP2 MSTORE PUSH1 0x0 PUSH2 0x7A5 PUSH1 0x40 DUP4 ADD DUP6 PUSH2 0x647 JUMP JUMPDEST DUP3 DUP2 SUB PUSH1 0x20 DUP5 ADD MSTORE PUSH2 0x7B7 DUP2 DUP6 PUSH2 0x647 JUMP JUMPDEST SWAP6 SWAP5 POP POP POP POP POP JUMP JUMPDEST PUSH1 0x20 DUP2 MSTORE PUSH1 0x0 PUSH2 0x7D3 PUSH1 0x20 DUP4 ADD DUP5 PUSH2 0x647 JUMP JUMPDEST SWAP4 SWAP3 POP POP POP JUMP INVALID LOG2 PUSH5 0x6970667358 0x22 SLT KECCAK256 0x4A 0xB9 PUSH31 0x7C153311D799EFB86CBC6BC492E66FCE7BB40F29597EE1D0D0A8273BF86473 PUSH16 0x6C634300081300330000000000000000 ",
  "sha1": "960c05eab5709d746123eafbfd05aab634b95ad3",
  "source": "// SCH Course Copyright Policy (C): DO-NOT-SHARE-WITH-ANYONE\n// https://smartcontractshacking.com/#copyright-policy\npragma solidity ^0.8.13;\n\nimport \"../interfaces/ICallbackContract.sol\";\n\ncontract TwoStepExchange {\n    error OnlyKeeper();\n    error InvalidBlockNumber();\n    error EmptyOrder();\n\n    struct SwapOrder {\n        address account;\n        address[] route;\n        uint256 amountIn;\n        address callbackContract;\n        uint256 blockNumber;\n    }\n\n    struct PriceParams {\n        uint256 price;\n        uint256 blockNumber;\n    }\n\n    mapping(uint256 => SwapOrder) orders;\n    uint256 nonce;\n    address keeper;\n    uint256 constant CALLBACK_GAS_LIMIT = 2_000_000;\n\n    event CallbackFailed(uint256 id, string revertMessage, bytes revertData);\n    event SwapOrderExecuted(uint256 id, uint256 price);\n    event RevertMessageUnparsable(bytes data);\n    event ParsedMessage(string message, bytes data);\n\n    constructor() {\n        keeper = msg.sender;\n    }\n\n    function createSwapOrder(\n        address[] calldata _route,\n        uint256 _amountIn,\n        address _callbackContract\n    ) external {\n        orders[++nonce] = SwapOrder({\n            account: msg.sender,\n            route: _route,\n            amountIn: _amountIn,\n            callbackContract: _callbackContract,\n            blockNumber: block.number\n        });\n    }\n\n    function executeSwapOrder(\n        uint256 _id,\n        PriceParams calldata params\n    ) external {\n        if (msg.sender != keeper) revert OnlyKeeper();\n        SwapOrder memory order = orders[_id];\n\n        if (order.account == address(0)) revert EmptyOrder();\n        if (params.blockNumber != order.blockNumber)\n            revert InvalidBlockNumber();\n\n        try\n            ICallbackContract(order.callbackContract).beforeExecution{\n                gas: CALLBACK_GAS_LIMIT\n            }()\n        {} catch (bytes memory _revertData) {\n            string memory revertMessage = getRevertMessage(_revertData);\n            emit CallbackFailed(_id, revertMessage, _revertData);\n        }\n\n        /** Execute the swap order at the provided price **/\n        /** ... **/\n\n        delete orders[_id];\n\n        emit SwapOrderExecuted(_id, params.price);\n    }\n\n    function getRevertMessage(\n        bytes memory result\n    ) internal returns (string memory) {\n        string memory parsed = \"\";\n        bytes32 errorSelector;\n\n        assembly {\n            errorSelector := mload(add(result, 0x20))\n        }\n\n        if (errorSelector == bytes4(0x08c379a0)) {\n            // Selector for Error(String)\n            assembly {\n                result := add(result, 0x04)\n            }\n\n            parsed = (abi.decode(result, (string)));\n            emit ParsedMessage(parsed, result);\n        } else emit RevertMessageUnparsable(result);\n\n        return parsed;\n    }\n}\n",
  "sourcePath": "contracts/TwoStepExchange.sol",
  "type": "contract"
}