{
  "abi": [
    {
      "constant": true,
      "inputs": [],
      "name": "name",
      "outputs": [
        {
          "name": "",
          "type": "string"
        }
      ],
      "payable": false,
      "stateMutability": "view",
      "type": "function"
    },
    {
      "constant": false,
      "inputs": [
        {
          "name": "_upgradedAddress",
          "type": "address"
        }
      ],
      "name": "deprecate",
      "outputs": [],
      "payable": false,
      "stateMutability": "nonpayable",
      "type": "function"
    },
    {
      "constant": false,
      "inputs": [
        {
          "name": "_spender",
          "type": "address"
        },
        {
          "name": "_value",
          "type": "uint256"
        }
      ],
      "name": "approve",
      "outputs": [],
      "payable": false,
      "stateMutability": "nonpayable",
      "type": "function"
    },
    {
      "constant": true,
      "inputs": [],
      "name": "deprecated",
      "outputs": [
        {
          "name": "",
          "type": "bool"
        }
      ],
      "payable": false,
      "stateMutability": "view",
      "type": "function"
    },
    {
      "constant": false,
      "inputs": [
        {
          "name": "_evilUser",
          "type": "address"
        }
      ],
      "name": "addBlackList",
      "outputs": [],
      "payable": false,
      "stateMutability": "nonpayable",
      "type": "function"
    },
    {
      "constant": true,
      "inputs": [],
      "name": "totalSupply",
      "outputs": [
        {
          "name": "",
          "type": "uint256"
        }
      ],
      "payable": false,
      "stateMutability": "view",
      "type": "function"
    },
    {
      "constant": false,
      "inputs": [
        {
          "name": "_from",
          "type": "address"
        },
        {
          "name": "_to",
          "type": "address"
        },
        {
          "name": "_value",
          "type": "uint256"
        }
      ],
      "name": "transferFrom",
      "outputs": [
        {
          "name": "",
          "type": "bool"
        }
      ],
      "payable": false,
      "stateMutability": "nonpayable",
      "type": "function"
    },
    {
      "constant": true,
      "inputs": [],
      "name": "upgradedAddress",
      "outputs": [
        {
          "name": "",
          "type": "address"
        }
      ],
      "payable": false,
      "stateMutability": "view",
      "type": "function"
    },
    {
      "constant": true,
      "inputs": [
        {
          "name": "",
          "type": "address"
        }
      ],
      "name": "balances",
      "outputs": [
        {
          "name": "",
          "type": "uint256"
        }
      ],
      "payable": false,
      "stateMutability": "view",
      "type": "function"
    },
    {
      "constant": true,
      "inputs": [],
      "name": "decimals",
      "outputs": [
        {
          "name": "",
          "type": "uint256"
        }
      ],
      "payable": false,
      "stateMutability": "view",
      "type": "function"
    },
    {
      "constant": true,
      "inputs": [],
      "name": "maximumFee",
      "outputs": [
        {
          "name": "",
          "type": "uint256"
        }
      ],
      "payable": false,
      "stateMutability": "view",
      "type": "function"
    },
    {
      "constant": true,
      "inputs": [],
      "name": "_totalSupply",
      "outputs": [
        {
          "name": "",
          "type": "uint256"
        }
      ],
      "payable": false,
      "stateMutability": "view",
      "type": "function"
    },
    {
      "constant": false,
      "inputs": [],
      "name": "unpause",
      "outputs": [],
      "payable": false,
      "stateMutability": "nonpayable",
      "type": "function"
    },
    {
      "constant": true,
      "inputs": [
        {
          "name": "_maker",
          "type": "address"
        }
      ],
      "name": "getBlackListStatus",
      "outputs": [
        {
          "name": "",
          "type": "bool"
        }
      ],
      "payable": false,
      "stateMutability": "view",
      "type": "function"
    },
    {
      "constant": true,
      "inputs": [
        {
          "name": "",
          "type": "address"
        },
        {
          "name": "",
          "type": "address"
        }
      ],
      "name": "allowed",
      "outputs": [
        {
          "name": "",
          "type": "uint256"
        }
      ],
      "payable": false,
      "stateMutability": "view",
      "type": "function"
    },
    {
      "constant": true,
      "inputs": [],
      "name": "paused",
      "outputs": [
        {
          "name": "",
          "type": "bool"
        }
      ],
      "payable": false,
      "stateMutability": "view",
      "type": "function"
    },
    {
      "constant": true,
      "inputs": [
        {
          "name": "who",
          "type": "address"
        }
      ],
      "name": "balanceOf",
      "outputs": [
        {
          "name": "",
          "type": "uint256"
        }
      ],
      "payable": false,
      "stateMutability": "view",
      "type": "function"
    },
    {
      "constant": false,
      "inputs": [],
      "name": "pause",
      "outputs": [],
      "payable": false,
      "stateMutability": "nonpayable",
      "type": "function"
    },
    {
      "constant": true,
      "inputs": [],
      "name": "getOwner",
      "outputs": [
        {
          "name": "",
          "type": "address"
        }
      ],
      "payable": false,
      "stateMutability": "view",
      "type": "function"
    },
    {
      "constant": true,
      "inputs": [],
      "name": "owner",
      "outputs": [
        {
          "name": "",
          "type": "address"
        }
      ],
      "payable": false,
      "stateMutability": "view",
      "type": "function"
    },
    {
      "constant": true,
      "inputs": [],
      "name": "symbol",
      "outputs": [
        {
          "name": "",
          "type": "string"
        }
      ],
      "payable": false,
      "stateMutability": "view",
      "type": "function"
    },
    {
      "constant": false,
      "inputs": [
        {
          "name": "_to",
          "type": "address"
        },
        {
          "name": "_value",
          "type": "uint256"
        }
      ],
      "name": "transfer",
      "outputs": [
        {
          "name": "",
          "type": "bool"
        }
      ],
      "payable": false,
      "stateMutability": "nonpayable",
      "type": "function"
    },
    {
      "constant": false,
      "inputs": [
        {
          "name": "newBasisPoints",
          "type": "uint256"
        },
        {
          "name": "newMaxFee",
          "type": "uint256"
        }
      ],
      "name": "setParams",
      "outputs": [],
      "payable": false,
      "stateMutability": "nonpayable",
      "type": "function"
    },
    {
      "constant": false,
      "inputs": [
        {
          "name": "amount",
          "type": "uint256"
        }
      ],
      "name": "issue",
      "outputs": [],
      "payable": false,
      "stateMutability": "nonpayable",
      "type": "function"
    },
    {
      "constant": false,
      "inputs": [
        {
          "name": "amount",
          "type": "uint256"
        }
      ],
      "name": "redeem",
      "outputs": [],
      "payable": false,
      "stateMutability": "nonpayable",
      "type": "function"
    },
    {
      "constant": true,
      "inputs": [
        {
          "name": "_owner",
          "type": "address"
        },
        {
          "name": "_spender",
          "type": "address"
        }
      ],
      "name": "allowance",
      "outputs": [
        {
          "name": "remaining",
          "type": "uint256"
        }
      ],
      "payable": false,
      "stateMutability": "view",
      "type": "function"
    },
    {
      "constant": true,
      "inputs": [],
      "name": "basisPointsRate",
      "outputs": [
        {
          "name": "",
          "type": "uint256"
        }
      ],
      "payable": false,
      "stateMutability": "view",
      "type": "function"
    },
    {
      "constant": true,
      "inputs": [
        {
          "name": "",
          "type": "address"
        }
      ],
      "name": "isBlackListed",
      "outputs": [
        {
          "name": "",
          "type": "bool"
        }
      ],
      "payable": false,
      "stateMutability": "view",
      "type": "function"
    },
    {
      "constant": false,
      "inputs": [
        {
          "name": "_clearedUser",
          "type": "address"
        }
      ],
      "name": "removeBlackList",
      "outputs": [],
      "payable": false,
      "stateMutability": "nonpayable",
      "type": "function"
    },
    {
      "constant": true,
      "inputs": [],
      "name": "MAX_UINT",
      "outputs": [
        {
          "name": "",
          "type": "uint256"
        }
      ],
      "payable": false,
      "stateMutability": "view",
      "type": "function"
    },
    {
      "constant": false,
      "inputs": [
        {
          "name": "newOwner",
          "type": "address"
        }
      ],
      "name": "transferOwnership",
      "outputs": [],
      "payable": false,
      "stateMutability": "nonpayable",
      "type": "function"
    },
    {
      "constant": false,
      "inputs": [
        {
          "name": "_blackListedUser",
          "type": "address"
        }
      ],
      "name": "destroyBlackFunds",
      "outputs": [],
      "payable": false,
      "stateMutability": "nonpayable",
      "type": "function"
    },
    {
      "inputs": [
        {
          "name": "_initialSupply",
          "type": "uint256"
        },
        {
          "name": "_name",
          "type": "string"
        },
        {
          "name": "_symbol",
          "type": "string"
        },
        {
          "name": "_decimals",
          "type": "uint256"
        }
      ],
      "payable": false,
      "stateMutability": "nonpayable",
      "type": "constructor"
    },
    {
      "anonymous": false,
      "inputs": [
        {
          "indexed": false,
          "name": "amount",
          "type": "uint256"
        }
      ],
      "name": "Issue",
      "type": "event"
    },
    {
      "anonymous": false,
      "inputs": [
        {
          "indexed": false,
          "name": "amount",
          "type": "uint256"
        }
      ],
      "name": "Redeem",
      "type": "event"
    },
    {
      "anonymous": false,
      "inputs": [
        {
          "indexed": false,
          "name": "newAddress",
          "type": "address"
        }
      ],
      "name": "Deprecate",
      "type": "event"
    },
    {
      "anonymous": false,
      "inputs": [
        {
          "indexed": false,
          "name": "feeBasisPoints",
          "type": "uint256"
        },
        {
          "indexed": false,
          "name": "maxFee",
          "type": "uint256"
        }
      ],
      "name": "Params",
      "type": "event"
    },
    {
      "anonymous": false,
      "inputs": [
        {
          "indexed": false,
          "name": "_blackListedUser",
          "type": "address"
        },
        {
          "indexed": false,
          "name": "_balance",
          "type": "uint256"
        }
      ],
      "name": "DestroyedBlackFunds",
      "type": "event"
    },
    {
      "anonymous": false,
      "inputs": [
        {
          "indexed": false,
          "name": "_user",
          "type": "address"
        }
      ],
      "name": "AddedBlackList",
      "type": "event"
    },
    {
      "anonymous": false,
      "inputs": [
        {
          "indexed": false,
          "name": "_user",
          "type": "address"
        }
      ],
      "name": "RemovedBlackList",
      "type": "event"
    },
    {
      "anonymous": false,
      "inputs": [
        {
          "indexed": true,
          "name": "owner",
          "type": "address"
        },
        {
          "indexed": true,
          "name": "spender",
          "type": "address"
        },
        {
          "indexed": false,
          "name": "value",
          "type": "uint256"
        }
      ],
      "name": "Approval",
      "type": "event"
    },
    {
      "anonymous": false,
      "inputs": [
        {
          "indexed": true,
          "name": "from",
          "type": "address"
        },
        {
          "indexed": true,
          "name": "to",
          "type": "address"
        },
        {
          "indexed": false,
          "name": "value",
          "type": "uint256"
        }
      ],
      "name": "Transfer",
      "type": "event"
    },
    {
      "anonymous": false,
      "inputs": [],
      "name": "Pause",
      "type": "event"
    },
    {
      "anonymous": false,
      "inputs": [],
      "name": "Unpause",
      "type": "event"
    }
  ],
  "bytecode": "60806040526000805460a060020a60ff021916815560038190556004553480156200002957600080fd5b506040516200172738038062001727833981016040908152815160208084015192840151606085015160008054600160a060020a03191633179055600184905593850180519395909491019290916200008891600791860190620000d3565b5081516200009e906008906020850190620000d3565b50600955505060008054600160a060020a0316815260026020526040902055600a805460a060020a60ff021916905562000178565b828054600181600116156101000203166002900490600052602060002090601f016020900481019282601f106200011657805160ff191683800117855562000146565b8280016001018555821562000146579182015b828111156200014657825182559160200191906001019062000129565b506200015492915062000158565b5090565b6200017591905b808211156200015457600081556001016200015f565b90565b61159f80620001886000396000f3006080604052600436106101955763ffffffff7c010000000000000000000000000000000000000000000000000000000060003504166306fdde03811461019a5780630753c30c14610224578063095ea7b3146102475780630e136b191461026b5780630ecb93c01461029457806318160ddd146102b557806323b872dd146102dc57806326976e3f1461030657806327e235e314610337578063313ce56714610358578063353907141461036d5780633eaaf86b146103825780633f4ba83a1461039757806359bf1abe146103ac5780635c658165146103cd5780635c975abb146103f457806370a08231146104095780638456cb591461042a578063893d20e81461043f5780638da5cb5b1461045457806395d89b4114610469578063a9059cbb1461047e578063c0324c77146104a2578063cc872b66146104bd578063db006a75146104d5578063dd62ed3e146104ed578063dd644f7214610514578063e47d606014610529578063e4997dc51461054a578063e5b5019a1461056b578063f2fde38b14610580578063f3bdc228146105a1575b600080fd5b3480156101a657600080fd5b506101af6105c2565b6040805160208082528351818301528351919283929083019185019080838360005b838110156101e95781810151838201526020016101d1565b50505050905090810190601f1680156102165780820380516001836020036101000a031916815260200191505b509250505060405180910390f35b34801561023057600080fd5b50610245600160a060020a0360043516610650565b005b34801561025357600080fd5b50610245600160a060020a03600435166024356106e8565b34801561027757600080fd5b506102806107aa565b604080519115158252519081900360200190f35b3480156102a057600080fd5b50610245600160a060020a03600435166107ba565b3480156102c157600080fd5b506102ca61082c565b60408051918252519081900360200190f35b3480156102e857600080fd5b50610280600160a060020a03600435811690602435166044356108e8565b34801561031257600080fd5b5061031b610939565b60408051600160a060020a039092168252519081900360200190f35b34801561034357600080fd5b506102ca600160a060020a0360043516610948565b34801561036457600080fd5b506102ca61095a565b34801561037957600080fd5b506102ca610960565b34801561038e57600080fd5b506102ca610966565b3480156103a357600080fd5b5061024561096c565b3480156103b857600080fd5b50610280600160a060020a03600435166109e2565b3480156103d957600080fd5b506102ca600160a060020a0360043581169060243516610a04565b34801561040057600080fd5b50610280610a21565b34801561041557600080fd5b506102ca600160a060020a0360043516610a31565b34801561043657600080fd5b50610245610af1565b34801561044b57600080fd5b5061031b610b6c565b34801561046057600080fd5b5061031b610b7b565b34801561047557600080fd5b506101af610b8a565b34801561048a57600080fd5b50610280600160a060020a0360043516602435610be5565b3480156104ae57600080fd5b50610245600435602435610c2d565b3480156104c957600080fd5b50610245600435610cc2565b3480156104e157600080fd5b50610245600435610d6d565b3480156104f957600080fd5b506102ca600160a060020a0360043581169060243516610e18565b34801561052057600080fd5b506102ca610ee1565b34801561053557600080fd5b50610280600160a060020a0360043516610ee7565b34801561055657600080fd5b50610245600160a060020a0360043516610efc565b34801561057757600080fd5b506102ca610f6b565b34801561058c57600080fd5b50610245600160a060020a0360043516610f71565b3480156105ad57600080fd5b50610245600160a060020a0360043516610fc3565b6007805460408051602060026001851615610100026000190190941693909304601f810184900484028201840190925281815292918301828280156106485780601f1061061d57610100808354040283529160200191610648565b820191906000526020600020905b81548152906001019060200180831161062b57829003601f168201915b505050505081565b600054600160a060020a0316331461066757600080fd5b600a805460a060020a74ff0000000000000000000000000000000000000000199091161773ffffffffffffffffffffffffffffffffffffffff1916600160a060020a03831690811790915560408051918252517fcc358699805e9a8b7f77b522628c7cb9abd07d9efb86b6fb616af1609036a99e916020908290030190a150565b604060443610156106f857600080fd5b600a5460a060020a900460ff161561079b57600a54604080517faee92d33000000000000000000000000000000000000000000000000000000008152336004820152600160a060020a038681166024830152604482018690529151919092169163aee92d3391606480830192600092919082900301818387803b15801561077e57600080fd5b505af1158015610792573d6000803e3d6000fd5b505050506107a5565b6107a5838361106f565b505050565b600a5460a060020a900460ff1681565b600054600160a060020a031633146107d157600080fd5b600160a060020a038116600081815260066020908152604091829020805460ff19166001179055815192835290517f42e160154868087d6bfdc0ca23d96a1c1cfa32f1b72ba9ba27b69b98a0d819dc9281900390910190a150565b600a5460009060a060020a900460ff16156108e057600a60009054906101000a9004600160a060020a0316600160a060020a03166318160ddd6040518163ffffffff167c0100000000000000000000000000000000000000000000000000000000028152600401602060405180830381600087803b1580156108ad57600080fd5b505af11580156108c1573d6000803e3d6000fd5b505050506040513d60208110156108d757600080fd5b505190506108e5565b506001545b90565b6000805460a060020a900460ff161561090057600080fd5b600160a060020a03841660009081526006602052604090205460ff161561092657600080fd5b61093184848461111d565b949350505050565b600a54600160a060020a031681565b60026020526000908152604090205481565b60095481565b60045481565b60015481565b600054600160a060020a0316331461098357600080fd5b60005460a060020a900460ff16151561099b57600080fd5b6000805474ff0000000000000000000000000000000000000000191681556040517f7805862f689e2f13df9f062ff482ad3ad112aca9e0847911ed832e158c525b339190a1565b600160a060020a03811660009081526006602052604090205460ff165b919050565b600560209081526000928352604080842090915290825290205481565b60005460a060020a900460ff1681565b600a5460009060a060020a900460ff1615610ae157600a54604080517f70a08231000000000000000000000000000000000000000000000000000000008152600160a060020a038581166004830152915191909216916370a082319160248083019260209291908290030181600087803b158015610aae57600080fd5b505af1158015610ac2573d6000803e3d6000fd5b505050506040513d6020811015610ad857600080fd5b505190506109ff565b610aea8261132c565b90506109ff565b600054600160a060020a03163314610b0857600080fd5b60005460a060020a900460ff1615610b1f57600080fd5b6000805474ff0000000000000000000000000000000000000000191660a060020a1781556040517f6985a02210a168e66602d3235cb6db0e70f92b3ba4d376a33c0f3d9434bff6259190a1565b600054600160a060020a031690565b600054600160a060020a031681565b6008805460408051602060026001851615610100026000190190941693909304601f810184900484028201840190925281815292918301828280156106485780601f1061061d57610100808354040283529160200191610648565b6000805460a060020a900460ff1615610bfd57600080fd5b3360009081526006602052604090205460ff1615610c1a57600080fd5b610c248383611347565b90505b92915050565b600054600160a060020a03163314610c4457600080fd5b60148210610c5157600080fd5b60328110610c5e57600080fd5b6003829055600954610c7a908290600a0a63ffffffff6114ba16565b600481905560035460408051918252602082019290925281517fb044a1e409eac5c48e5af22d4af52670dd1a99059537a78b31b48c6500a6354e929181900390910190a15050565b600054600160a060020a03163314610cd957600080fd5b60015481810111610ce957600080fd5b60008054600160a060020a031681526002602052604090205481810111610d0f57600080fd5b60008054600160a060020a03168152600260209081526040918290208054840190556001805484019055815183815291517fcb8241adb0c3fdb35b70c24ce35c5eb0c17af7431c99f827d44a445ca624176a9281900390910190a150565b600054600160a060020a03163314610d8457600080fd5b600154811115610d9357600080fd5b60008054600160a060020a0316815260026020526040902054811115610db857600080fd5b60018054829003905560008054600160a060020a031681526002602090815260409182902080548490039055815183815291517f702d5967f45f6513a38ffc42d6ba9bf230bd40e8f53b16363c7eb4fd2deb9a449281900390910190a150565b600a5460009060a060020a900460ff1615610ed057600a54604080517fdd62ed3e000000000000000000000000000000000000000000000000000000008152600160a060020a03868116600483015285811660248301529151919092169163dd62ed3e9160448083019260209291908290030181600087803b158015610e9d57600080fd5b505af1158015610eb1573d6000803e3d6000fd5b505050506040513d6020811015610ec757600080fd5b50519050610c27565b610eda83836114f0565b9050610c27565b60035481565b60066020526000908152604090205460ff1681565b600054600160a060020a03163314610f1357600080fd5b600160a060020a038116600081815260066020908152604091829020805460ff19169055815192835290517fd7e9ec6e6ecd65492dce6bf513cd6867560d49544421d0783ddf06e76c24470c9281900390910190a150565b60001981565b600054600160a060020a03163314610f8857600080fd5b600160a060020a03811615610fc0576000805473ffffffffffffffffffffffffffffffffffffffff1916600160a060020a0383161790555b50565b60008054600160a060020a03163314610fdb57600080fd5b600160a060020a03821660009081526006602052604090205460ff16151561100257600080fd5b61100b82610a31565b600160a060020a0383166000818152600260209081526040808320929092556001805485900390558151928352820183905280519293507f61e6e66b0d6339b2980aecc6ccc0039736791f0ccde9ed512e789a7fbdd698c692918290030190a15050565b6040604436101561107f57600080fd5b81158015906110b05750336000908152600560209081526040808320600160a060020a038716845290915290205415155b156110ba57600080fd5b336000818152600560209081526040808320600160a060020a03881680855290835292819020869055805186815290519293927f8c5be1e5ebec7d5bd14f71427d1e84f3dd0314c0f7b2291e5b200ac8c7c3b925929181900390910190a3505050565b60008080806060606436101561113257600080fd5b600160a060020a03881660009081526005602090815260408083203384529091529020549350838611156111695760009450611321565b611190612710611184600354896114ba90919063ffffffff16565b9063ffffffff61151b16565b92506004548311156111a25760045492505b6000198410156111e1576111bc848763ffffffff61153216565b600160a060020a03891660009081526005602090815260408083203384529091529020555b6111f1868463ffffffff61153216565b600160a060020a03891660009081526002602052604090205490925061121d908763ffffffff61153216565b600160a060020a03808a166000908152600260205260408082209390935590891681522054611252908363ffffffff61154416565b600160a060020a0388166000908152600260205260408120919091558311156112e75760008054600160a060020a031681526002602052604090205461129e908463ffffffff61154416565b60008054600160a060020a0390811682526002602090815260408084209490945591548351878152935190821693918c1692600080516020611554833981519152928290030190a35b86600160a060020a031688600160a060020a0316600080516020611554833981519152846040518082815260200191505060405180910390a35b505050509392505050565b600160a060020a031660009081526002602052604090205490565b600080806040604436101561135b57600080fd5b611376612710611184600354886114ba90919063ffffffff16565b92506004548311156113885760045492505b611398858463ffffffff61153216565b336000908152600260205260409020549092506113bb908663ffffffff61153216565b3360009081526002602052604080822092909255600160a060020a038816815220546113ed908363ffffffff61154416565b600160a060020a0387166000908152600260205260408120919091558311156114805760008054600160a060020a0316815260026020526040902054611439908463ffffffff61154416565b60008054600160a060020a03908116825260026020908152604080842094909455915483518781529351911692339260008051602061155483398151915292918290030190a35b604080518381529051600160a060020a0388169133916000805160206115548339815191529181900360200190a350600195945050505050565b6000808315156114cd57600091506114e9565b508282028284828115156114dd57fe5b04146114e557fe5b8091505b5092915050565b600160a060020a03918216600090815260056020908152604080832093909416825291909152205490565b600080828481151561152957fe5b04949350505050565b60008282111561153e57fe5b50900390565b6000828201838110156114e557fe00ddf252ad1be2c89b69c2b068fc378daa952ba7f163c4a11628f55a4df523b3efa165627a7a72305820861eacb3ee036df4e545609efa6349f39f284c681893acc96a1c38a7aa3bba3a0029",
  "bytecodeSha1": "59e0b6e9f075b10802a080b9c0c76bac4b19598a",
  "compiler": {
    "evm_version": "byzantium",
    "optimizer": {
      "enabled": true,
      "runs": 200
    },
    "version": "0.4.26+commit.4563c3fc"
  },
  "contractName": "UST",
  "language": "Solidity",
  "natspec": {
    "methods": {
      "getBlackListStatus(address)": {
        "notice": "//// Getters to allow the same blacklist to be used also by other contracts (including upgraded Tether) ///////"
      },
      "pause()": {
        "details": "called by the owner to pause, triggers stopped state"
      },
      "transferOwnership(address)": {
        "details": "Allows the current owner to transfer control of the contract to a newOwner.",
        "params": {
          "newOwner": "The address to transfer ownership to."
        }
      },
      "unpause()": {
        "details": "called by the owner to unpause, returns to normal state"
      }
    }
  },
  "opcodes": "PUSH1 0x80 PUSH1 0x40 MSTORE PUSH1 0x4 CALLDATASIZE LT PUSH2 0x195 JUMPI PUSH4 0xFFFFFFFF PUSH29 0x100000000000000000000000000000000000000000000000000000000 PUSH1 0x0 CALLDATALOAD DIV AND PUSH4 0x6FDDE03 DUP2 EQ PUSH2 0x19A JUMPI DUP1 PUSH4 0x753C30C EQ PUSH2 0x224 JUMPI DUP1 PUSH4 0x95EA7B3 EQ PUSH2 0x247 JUMPI DUP1 PUSH4 0xE136B19 EQ PUSH2 0x26B JUMPI DUP1 PUSH4 0xECB93C0 EQ PUSH2 0x294 JUMPI DUP1 PUSH4 0x18160DDD EQ PUSH2 0x2B5 JUMPI DUP1 PUSH4 0x23B872DD EQ PUSH2 0x2DC JUMPI DUP1 PUSH4 0x26976E3F EQ PUSH2 0x306 JUMPI DUP1 PUSH4 0x27E235E3 EQ PUSH2 0x337 JUMPI DUP1 PUSH4 0x313CE567 EQ PUSH2 0x358 JUMPI DUP1 PUSH4 0x35390714 EQ PUSH2 0x36D JUMPI DUP1 PUSH4 0x3EAAF86B EQ PUSH2 0x382 JUMPI DUP1 PUSH4 0x3F4BA83A EQ PUSH2 0x397 JUMPI DUP1 PUSH4 0x59BF1ABE EQ PUSH2 0x3AC JUMPI DUP1 PUSH4 0x5C658165 EQ PUSH2 0x3CD JUMPI DUP1 PUSH4 0x5C975ABB EQ PUSH2 0x3F4 JUMPI DUP1 PUSH4 0x70A08231 EQ PUSH2 0x409 JUMPI DUP1 PUSH4 0x8456CB59 EQ PUSH2 0x42A JUMPI DUP1 PUSH4 0x893D20E8 EQ PUSH2 0x43F JUMPI DUP1 PUSH4 0x8DA5CB5B EQ PUSH2 0x454 JUMPI DUP1 PUSH4 0x95D89B41 EQ PUSH2 0x469 JUMPI DUP1 PUSH4 0xA9059CBB EQ PUSH2 0x47E JUMPI DUP1 PUSH4 0xC0324C77 EQ PUSH2 0x4A2 JUMPI DUP1 PUSH4 0xCC872B66 EQ PUSH2 0x4BD JUMPI DUP1 PUSH4 0xDB006A75 EQ PUSH2 0x4D5 JUMPI DUP1 PUSH4 0xDD62ED3E EQ PUSH2 0x4ED JUMPI DUP1 PUSH4 0xDD644F72 EQ PUSH2 0x514 JUMPI DUP1 PUSH4 0xE47D6060 EQ PUSH2 0x529 JUMPI DUP1 PUSH4 0xE4997DC5 EQ PUSH2 0x54A JUMPI DUP1 PUSH4 0xE5B5019A EQ PUSH2 0x56B JUMPI DUP1 PUSH4 0xF2FDE38B EQ PUSH2 0x580 JUMPI DUP1 PUSH4 0xF3BDC228 EQ PUSH2 0x5A1 JUMPI JUMPDEST PUSH1 0x0 DUP1 REVERT JUMPDEST CALLVALUE DUP1 ISZERO PUSH2 0x1A6 JUMPI PUSH1 0x0 DUP1 REVERT JUMPDEST POP PUSH2 0x1AF PUSH2 0x5C2 JUMP JUMPDEST PUSH1 0x40 DUP1 MLOAD PUSH1 0x20 DUP1 DUP3 MSTORE DUP4 MLOAD DUP2 DUP4 ADD MSTORE DUP4 MLOAD SWAP2 SWAP3 DUP4 SWAP3 SWAP1 DUP4 ADD SWAP2 DUP6 ADD SWAP1 DUP1 DUP4 DUP4 PUSH1 0x0 JUMPDEST DUP4 DUP2 LT ISZERO PUSH2 0x1E9 JUMPI DUP2 DUP2 ADD MLOAD DUP4 DUP3 ADD MSTORE PUSH1 0x20 ADD PUSH2 0x1D1 JUMP JUMPDEST POP POP POP POP SWAP1 POP SWAP1 DUP2 ADD SWAP1 PUSH1 0x1F AND DUP1 ISZERO PUSH2 0x216 JUMPI DUP1 DUP3 SUB DUP1 MLOAD PUSH1 0x1 DUP4 PUSH1 0x20 SUB PUSH2 0x100 EXP SUB NOT AND DUP2 MSTORE PUSH1 0x20 ADD SWAP2 POP JUMPDEST POP SWAP3 POP POP POP PUSH1 0x40 MLOAD DUP1 SWAP2 SUB SWAP1 RETURN JUMPDEST CALLVALUE DUP1 ISZERO PUSH2 0x230 JUMPI PUSH1 0x0 DUP1 REVERT JUMPDEST POP PUSH2 0x245 PUSH1 0x1 PUSH1 0xA0 PUSH1 0x2 EXP SUB PUSH1 0x4 CALLDATALOAD AND PUSH2 0x650 JUMP JUMPDEST STOP JUMPDEST CALLVALUE DUP1 ISZERO PUSH2 0x253 JUMPI PUSH1 0x0 DUP1 REVERT JUMPDEST POP PUSH2 0x245 PUSH1 0x1 PUSH1 0xA0 PUSH1 0x2 EXP SUB PUSH1 0x4 CALLDATALOAD AND PUSH1 0x24 CALLDATALOAD PUSH2 0x6E8 JUMP JUMPDEST CALLVALUE DUP1 ISZERO PUSH2 0x277 JUMPI PUSH1 0x0 DUP1 REVERT JUMPDEST POP PUSH2 0x280 PUSH2 0x7AA JUMP JUMPDEST PUSH1 0x40 DUP1 MLOAD SWAP2 ISZERO ISZERO DUP3 MSTORE MLOAD SWAP1 DUP2 SWAP1 SUB PUSH1 0x20 ADD SWAP1 RETURN JUMPDEST CALLVALUE DUP1 ISZERO PUSH2 0x2A0 JUMPI PUSH1 0x0 DUP1 REVERT JUMPDEST POP PUSH2 0x245 PUSH1 0x1 PUSH1 0xA0 PUSH1 0x2 EXP SUB PUSH1 0x4 CALLDATALOAD AND PUSH2 0x7BA JUMP JUMPDEST CALLVALUE DUP1 ISZERO PUSH2 0x2C1 JUMPI PUSH1 0x0 DUP1 REVERT JUMPDEST POP PUSH2 0x2CA PUSH2 0x82C JUMP JUMPDEST PUSH1 0x40 DUP1 MLOAD SWAP2 DUP3 MSTORE MLOAD SWAP1 DUP2 SWAP1 SUB PUSH1 0x20 ADD SWAP1 RETURN JUMPDEST CALLVALUE DUP1 ISZERO PUSH2 0x2E8 JUMPI PUSH1 0x0 DUP1 REVERT JUMPDEST POP PUSH2 0x280 PUSH1 0x1 PUSH1 0xA0 PUSH1 0x2 EXP SUB PUSH1 0x4 CALLDATALOAD DUP2 AND SWAP1 PUSH1 0x24 CALLDATALOAD AND PUSH1 0x44 CALLDATALOAD PUSH2 0x8E8 JUMP JUMPDEST CALLVALUE DUP1 ISZERO PUSH2 0x312 JUMPI PUSH1 0x0 DUP1 REVERT JUMPDEST POP PUSH2 0x31B PUSH2 0x939 JUMP JUMPDEST PUSH1 0x40 DUP1 MLOAD PUSH1 0x1 PUSH1 0xA0 PUSH1 0x2 EXP SUB SWAP1 SWAP3 AND DUP3 MSTORE MLOAD SWAP1 DUP2 SWAP1 SUB PUSH1 0x20 ADD SWAP1 RETURN JUMPDEST CALLVALUE DUP1 ISZERO PUSH2 0x343 JUMPI PUSH1 0x0 DUP1 REVERT JUMPDEST POP PUSH2 0x2CA PUSH1 0x1 PUSH1 0xA0 PUSH1 0x2 EXP SUB PUSH1 0x4 CALLDATALOAD AND PUSH2 0x948 JUMP JUMPDEST CALLVALUE DUP1 ISZERO PUSH2 0x364 JUMPI PUSH1 0x0 DUP1 REVERT JUMPDEST POP PUSH2 0x2CA PUSH2 0x95A JUMP JUMPDEST CALLVALUE DUP1 ISZERO PUSH2 0x379 JUMPI PUSH1 0x0 DUP1 REVERT JUMPDEST POP PUSH2 0x2CA PUSH2 0x960 JUMP JUMPDEST CALLVALUE DUP1 ISZERO PUSH2 0x38E JUMPI PUSH1 0x0 DUP1 REVERT JUMPDEST POP PUSH2 0x2CA PUSH2 0x966 JUMP JUMPDEST CALLVALUE DUP1 ISZERO PUSH2 0x3A3 JUMPI PUSH1 0x0 DUP1 REVERT JUMPDEST POP PUSH2 0x245 PUSH2 0x96C JUMP JUMPDEST CALLVALUE DUP1 ISZERO PUSH2 0x3B8 JUMPI PUSH1 0x0 DUP1 REVERT JUMPDEST POP PUSH2 0x280 PUSH1 0x1 PUSH1 0xA0 PUSH1 0x2 EXP SUB PUSH1 0x4 CALLDATALOAD AND PUSH2 0x9E2 JUMP JUMPDEST CALLVALUE DUP1 ISZERO PUSH2 0x3D9 JUMPI PUSH1 0x0 DUP1 REVERT JUMPDEST POP PUSH2 0x2CA PUSH1 0x1 PUSH1 0xA0 PUSH1 0x2 EXP SUB PUSH1 0x4 CALLDATALOAD DUP2 AND SWAP1 PUSH1 0x24 CALLDATALOAD AND PUSH2 0xA04 JUMP JUMPDEST CALLVALUE DUP1 ISZERO PUSH2 0x400 JUMPI PUSH1 0x0 DUP1 REVERT JUMPDEST POP PUSH2 0x280 PUSH2 0xA21 JUMP JUMPDEST CALLVALUE DUP1 ISZERO PUSH2 0x415 JUMPI PUSH1 0x0 DUP1 REVERT JUMPDEST POP PUSH2 0x2CA PUSH1 0x1 PUSH1 0xA0 PUSH1 0x2 EXP SUB PUSH1 0x4 CALLDATALOAD AND PUSH2 0xA31 JUMP JUMPDEST CALLVALUE DUP1 ISZERO PUSH2 0x436 JUMPI PUSH1 0x0 DUP1 REVERT JUMPDEST POP PUSH2 0x245 PUSH2 0xAF1 JUMP JUMPDEST CALLVALUE DUP1 ISZERO PUSH2 0x44B JUMPI PUSH1 0x0 DUP1 REVERT JUMPDEST POP PUSH2 0x31B PUSH2 0xB6C JUMP JUMPDEST CALLVALUE DUP1 ISZERO PUSH2 0x460 JUMPI PUSH1 0x0 DUP1 REVERT JUMPDEST POP PUSH2 0x31B PUSH2 0xB7B JUMP JUMPDEST CALLVALUE DUP1 ISZERO PUSH2 0x475 JUMPI PUSH1 0x0 DUP1 REVERT JUMPDEST POP PUSH2 0x1AF PUSH2 0xB8A JUMP JUMPDEST CALLVALUE DUP1 ISZERO PUSH2 0x48A JUMPI PUSH1 0x0 DUP1 REVERT JUMPDEST POP PUSH2 0x280 PUSH1 0x1 PUSH1 0xA0 PUSH1 0x2 EXP SUB PUSH1 0x4 CALLDATALOAD AND PUSH1 0x24 CALLDATALOAD PUSH2 0xBE5 JUMP JUMPDEST CALLVALUE DUP1 ISZERO PUSH2 0x4AE JUMPI PUSH1 0x0 DUP1 REVERT JUMPDEST POP PUSH2 0x245 PUSH1 0x4 CALLDATALOAD PUSH1 0x24 CALLDATALOAD PUSH2 0xC2D JUMP JUMPDEST CALLVALUE DUP1 ISZERO PUSH2 0x4C9 JUMPI PUSH1 0x0 DUP1 REVERT JUMPDEST POP PUSH2 0x245 PUSH1 0x4 CALLDATALOAD PUSH2 0xCC2 JUMP JUMPDEST CALLVALUE DUP1 ISZERO PUSH2 0x4E1 JUMPI PUSH1 0x0 DUP1 REVERT JUMPDEST POP PUSH2 0x245 PUSH1 0x4 CALLDATALOAD PUSH2 0xD6D JUMP JUMPDEST CALLVALUE DUP1 ISZERO PUSH2 0x4F9 JUMPI PUSH1 0x0 DUP1 REVERT JUMPDEST POP PUSH2 0x2CA PUSH1 0x1 PUSH1 0xA0 PUSH1 0x2 EXP SUB PUSH1 0x4 CALLDATALOAD DUP2 AND SWAP1 PUSH1 0x24 CALLDATALOAD AND PUSH2 0xE18 JUMP JUMPDEST CALLVALUE DUP1 ISZERO PUSH2 0x520 JUMPI PUSH1 0x0 DUP1 REVERT JUMPDEST POP PUSH2 0x2CA PUSH2 0xEE1 JUMP JUMPDEST CALLVALUE DUP1 ISZERO PUSH2 0x535 JUMPI PUSH1 0x0 DUP1 REVERT JUMPDEST POP PUSH2 0x280 PUSH1 0x1 PUSH1 0xA0 PUSH1 0x2 EXP SUB PUSH1 0x4 CALLDATALOAD AND PUSH2 0xEE7 JUMP JUMPDEST CALLVALUE DUP1 ISZERO PUSH2 0x556 JUMPI PUSH1 0x0 DUP1 REVERT JUMPDEST POP PUSH2 0x245 PUSH1 0x1 PUSH1 0xA0 PUSH1 0x2 EXP SUB PUSH1 0x4 CALLDATALOAD AND PUSH2 0xEFC JUMP JUMPDEST CALLVALUE DUP1 ISZERO PUSH2 0x577 JUMPI PUSH1 0x0 DUP1 REVERT JUMPDEST POP PUSH2 0x2CA PUSH2 0xF6B JUMP JUMPDEST CALLVALUE DUP1 ISZERO PUSH2 0x58C JUMPI PUSH1 0x0 DUP1 REVERT JUMPDEST POP PUSH2 0x245 PUSH1 0x1 PUSH1 0xA0 PUSH1 0x2 EXP SUB PUSH1 0x4 CALLDATALOAD AND PUSH2 0xF71 JUMP JUMPDEST CALLVALUE DUP1 ISZERO PUSH2 0x5AD JUMPI PUSH1 0x0 DUP1 REVERT JUMPDEST POP PUSH2 0x245 PUSH1 0x1 PUSH1 0xA0 PUSH1 0x2 EXP SUB PUSH1 0x4 CALLDATALOAD AND PUSH2 0xFC3 JUMP JUMPDEST PUSH1 0x7 DUP1 SLOAD PUSH1 0x40 DUP1 MLOAD PUSH1 0x20 PUSH1 0x2 PUSH1 0x1 DUP6 AND ISZERO PUSH2 0x100 MUL PUSH1 0x0 NOT ADD SWAP1 SWAP5 AND SWAP4 SWAP1 SWAP4 DIV PUSH1 0x1F DUP2 ADD DUP5 SWAP1 DIV DUP5 MUL DUP3 ADD DUP5 ADD SWAP1 SWAP3 MSTORE DUP2 DUP2 MSTORE SWAP3 SWAP2 DUP4 ADD DUP3 DUP3 DUP1 ISZERO PUSH2 0x648 JUMPI DUP1 PUSH1 0x1F LT PUSH2 0x61D JUMPI PUSH2 0x100 DUP1 DUP4 SLOAD DIV MUL DUP4 MSTORE SWAP2 PUSH1 0x20 ADD SWAP2 PUSH2 0x648 JUMP JUMPDEST DUP3 ADD SWAP2 SWAP1 PUSH1 0x0 MSTORE PUSH1 0x20 PUSH1 0x0 KECCAK256 SWAP1 JUMPDEST DUP2 SLOAD DUP2 MSTORE SWAP1 PUSH1 0x1 ADD SWAP1 PUSH1 0x20 ADD DUP1 DUP4 GT PUSH2 0x62B JUMPI DUP3 SWAP1 SUB PUSH1 0x1F AND DUP3 ADD SWAP2 JUMPDEST POP POP POP POP POP DUP2 JUMP JUMPDEST PUSH1 0x0 SLOAD PUSH1 0x1 PUSH1 0xA0 PUSH1 0x2 EXP SUB AND CALLER EQ PUSH2 0x667 JUMPI PUSH1 0x0 DUP1 REVERT JUMPDEST PUSH1 0xA DUP1 SLOAD PUSH1 0xA0 PUSH1 0x2 EXP PUSH21 0xFF0000000000000000000000000000000000000000 NOT SWAP1 SWAP2 AND OR PUSH20 0xFFFFFFFFFFFFFFFFFFFFFFFFFFFFFFFFFFFFFFFF NOT AND PUSH1 0x1 PUSH1 0xA0 PUSH1 0x2 EXP SUB DUP4 AND SWAP1 DUP2 OR SWAP1 SWAP2 SSTORE PUSH1 0x40 DUP1 MLOAD SWAP2 DUP3 MSTORE MLOAD PUSH32 0xCC358699805E9A8B7F77B522628C7CB9ABD07D9EFB86B6FB616AF1609036A99E SWAP2 PUSH1 0x20 SWAP1 DUP3 SWAP1 SUB ADD SWAP1 LOG1 POP JUMP JUMPDEST PUSH1 0x40 PUSH1 0x44 CALLDATASIZE LT ISZERO PUSH2 0x6F8 JUMPI PUSH1 0x0 DUP1 REVERT JUMPDEST PUSH1 0xA SLOAD PUSH1 0xA0 PUSH1 0x2 EXP SWAP1 DIV PUSH1 0xFF AND ISZERO PUSH2 0x79B JUMPI PUSH1 0xA SLOAD PUSH1 0x40 DUP1 MLOAD PUSH32 0xAEE92D3300000000000000000000000000000000000000000000000000000000 DUP2 MSTORE CALLER PUSH1 0x4 DUP3 ADD MSTORE PUSH1 0x1 PUSH1 0xA0 PUSH1 0x2 EXP SUB DUP7 DUP2 AND PUSH1 0x24 DUP4 ADD MSTORE PUSH1 0x44 DUP3 ADD DUP7 SWAP1 MSTORE SWAP2 MLOAD SWAP2 SWAP1 SWAP3 AND SWAP2 PUSH4 0xAEE92D33 SWAP2 PUSH1 0x64 DUP1 DUP4 ADD SWAP3 PUSH1 0x0 SWAP3 SWAP2 SWAP1 DUP3 SWAP1 SUB ADD DUP2 DUP4 DUP8 DUP1 EXTCODESIZE ISZERO DUP1 ISZERO PUSH2 0x77E JUMPI PUSH1 0x0 DUP1 REVERT JUMPDEST POP GAS CALL ISZERO DUP1 ISZERO PUSH2 0x792 JUMPI RETURNDATASIZE PUSH1 0x0 DUP1 RETURNDATACOPY RETURNDATASIZE PUSH1 0x0 REVERT JUMPDEST POP POP POP POP PUSH2 0x7A5 JUMP JUMPDEST PUSH2 0x7A5 DUP4 DUP4 PUSH2 0x106F JUMP JUMPDEST POP POP POP JUMP JUMPDEST PUSH1 0xA SLOAD PUSH1 0xA0 PUSH1 0x2 EXP SWAP1 DIV PUSH1 0xFF AND DUP2 JUMP JUMPDEST PUSH1 0x0 SLOAD PUSH1 0x1 PUSH1 0xA0 PUSH1 0x2 EXP SUB AND CALLER EQ PUSH2 0x7D1 JUMPI PUSH1 0x0 DUP1 REVERT JUMPDEST PUSH1 0x1 PUSH1 0xA0 PUSH1 0x2 EXP SUB DUP2 AND PUSH1 0x0 DUP2 DUP2 MSTORE PUSH1 0x6 PUSH1 0x20 SWAP1 DUP2 MSTORE PUSH1 0x40 SWAP2 DUP3 SWAP1 KECCAK256 DUP1 SLOAD PUSH1 0xFF NOT AND PUSH1 0x1 OR SWAP1 SSTORE DUP2 MLOAD SWAP3 DUP4 MSTORE SWAP1 MLOAD PUSH32 0x42E160154868087D6BFDC0CA23D96A1C1CFA32F1B72BA9BA27B69B98A0D819DC SWAP3 DUP2 SWAP1 SUB SWAP1 SWAP2 ADD SWAP1 LOG1 POP JUMP JUMPDEST PUSH1 0xA SLOAD PUSH1 0x0 SWAP1 PUSH1 0xA0 PUSH1 0x2 EXP SWAP1 DIV PUSH1 0xFF AND ISZERO PUSH2 0x8E0 JUMPI PUSH1 0xA PUSH1 0x0 SWAP1 SLOAD SWAP1 PUSH2 0x100 EXP SWAP1 DIV PUSH1 0x1 PUSH1 0xA0 PUSH1 0x2 EXP SUB AND PUSH1 0x1 PUSH1 0xA0 PUSH1 0x2 EXP SUB AND PUSH4 0x18160DDD PUSH1 0x40 MLOAD DUP2 PUSH4 0xFFFFFFFF AND PUSH29 0x100000000000000000000000000000000000000000000000000000000 MUL DUP2 MSTORE PUSH1 0x4 ADD PUSH1 0x20 PUSH1 0x40 MLOAD DUP1 DUP4 SUB DUP2 PUSH1 0x0 DUP8 DUP1 EXTCODESIZE ISZERO DUP1 ISZERO PUSH2 0x8AD JUMPI PUSH1 0x0 DUP1 REVERT JUMPDEST POP GAS CALL ISZERO DUP1 ISZERO PUSH2 0x8C1 JUMPI RETURNDATASIZE PUSH1 0x0 DUP1 RETURNDATACOPY RETURNDATASIZE PUSH1 0x0 REVERT JUMPDEST POP POP POP POP PUSH1 0x40 MLOAD RETURNDATASIZE PUSH1 0x20 DUP2 LT ISZERO PUSH2 0x8D7 JUMPI PUSH1 0x0 DUP1 REVERT JUMPDEST POP MLOAD SWAP1 POP PUSH2 0x8E5 JUMP JUMPDEST POP PUSH1 0x1 SLOAD JUMPDEST SWAP1 JUMP JUMPDEST PUSH1 0x0 DUP1 SLOAD PUSH1 0xA0 PUSH1 0x2 EXP SWAP1 DIV PUSH1 0xFF AND ISZERO PUSH2 0x900 JUMPI PUSH1 0x0 DUP1 REVERT JUMPDEST PUSH1 0x1 PUSH1 0xA0 PUSH1 0x2 EXP SUB DUP5 AND PUSH1 0x0 SWAP1 DUP2 MSTORE PUSH1 0x6 PUSH1 0x20 MSTORE PUSH1 0x40 SWAP1 KECCAK256 SLOAD PUSH1 0xFF AND ISZERO PUSH2 0x926 JUMPI PUSH1 0x0 DUP1 REVERT JUMPDEST PUSH2 0x931 DUP5 DUP5 DUP5 PUSH2 0x111D JUMP JUMPDEST SWAP5 SWAP4 POP POP POP POP JUMP JUMPDEST PUSH1 0xA SLOAD PUSH1 0x1 PUSH1 0xA0 PUSH1 0x2 EXP SUB AND DUP2 JUMP JUMPDEST PUSH1 0x2 PUSH1 0x20 MSTORE PUSH1 0x0 SWAP1 DUP2 MSTORE PUSH1 0x40 SWAP1 KECCAK256 SLOAD DUP2 JUMP JUMPDEST PUSH1 0x9 SLOAD DUP2 JUMP JUMPDEST PUSH1 0x4 SLOAD DUP2 JUMP JUMPDEST PUSH1 0x1 SLOAD DUP2 JUMP JUMPDEST PUSH1 0x0 SLOAD PUSH1 0x1 PUSH1 0xA0 PUSH1 0x2 EXP SUB AND CALLER EQ PUSH2 0x983 JUMPI PUSH1 0x0 DUP1 REVERT JUMPDEST PUSH1 0x0 SLOAD PUSH1 0xA0 PUSH1 0x2 EXP SWAP1 DIV PUSH1 0xFF AND ISZERO ISZERO PUSH2 0x99B JUMPI PUSH1 0x0 DUP1 REVERT JUMPDEST PUSH1 0x0 DUP1 SLOAD PUSH21 0xFF0000000000000000000000000000000000000000 NOT AND DUP2 SSTORE PUSH1 0x40 MLOAD PUSH32 0x7805862F689E2F13DF9F062FF482AD3AD112ACA9E0847911ED832E158C525B33 SWAP2 SWAP1 LOG1 JUMP JUMPDEST PUSH1 0x1 PUSH1 0xA0 PUSH1 0x2 EXP SUB DUP2 AND PUSH1 0x0 SWAP1 DUP2 MSTORE PUSH1 0x6 PUSH1 0x20 MSTORE PUSH1 0x40 SWAP1 KECCAK256 SLOAD PUSH1 0xFF AND JUMPDEST SWAP2 SWAP1 POP JUMP JUMPDEST PUSH1 0x5 PUSH1 0x20 SWAP1 DUP2 MSTORE PUSH1 0x0 SWAP3 DUP4 MSTORE PUSH1 0x40 DUP1 DUP5 KECCAK256 SWAP1 SWAP2 MSTORE SWAP1 DUP3 MSTORE SWAP1 KECCAK256 SLOAD DUP2 JUMP JUMPDEST PUSH1 0x0 SLOAD PUSH1 0xA0 PUSH1 0x2 EXP SWAP1 DIV PUSH1 0xFF AND DUP2 JUMP JUMPDEST PUSH1 0xA SLOAD PUSH1 0x0 SWAP1 PUSH1 0xA0 PUSH1 0x2 EXP SWAP1 DIV PUSH1 0xFF AND ISZERO PUSH2 0xAE1 JUMPI PUSH1 0xA SLOAD PUSH1 0x40 DUP1 MLOAD PUSH32 0x70A0823100000000000000000000000000000000000000000000000000000000 DUP2 MSTORE PUSH1 0x1 PUSH1 0xA0 PUSH1 0x2 EXP SUB DUP6 DUP2 AND PUSH1 0x4 DUP4 ADD MSTORE SWAP2 MLOAD SWAP2 SWAP1 SWAP3 AND SWAP2 PUSH4 0x70A08231 SWAP2 PUSH1 0x24 DUP1 DUP4 ADD SWAP3 PUSH1 0x20 SWAP3 SWAP2 SWAP1 DUP3 SWAP1 SUB ADD DUP2 PUSH1 0x0 DUP8 DUP1 EXTCODESIZE ISZERO DUP1 ISZERO PUSH2 0xAAE JUMPI PUSH1 0x0 DUP1 REVERT JUMPDEST POP GAS CALL ISZERO DUP1 ISZERO PUSH2 0xAC2 JUMPI RETURNDATASIZE PUSH1 0x0 DUP1 RETURNDATACOPY RETURNDATASIZE PUSH1 0x0 REVERT JUMPDEST POP POP POP POP PUSH1 0x40 MLOAD RETURNDATASIZE PUSH1 0x20 DUP2 LT ISZERO PUSH2 0xAD8 JUMPI PUSH1 0x0 DUP1 REVERT JUMPDEST POP MLOAD SWAP1 POP PUSH2 0x9FF JUMP JUMPDEST PUSH2 0xAEA DUP3 PUSH2 0x132C JUMP JUMPDEST SWAP1 POP PUSH2 0x9FF JUMP JUMPDEST PUSH1 0x0 SLOAD PUSH1 0x1 PUSH1 0xA0 PUSH1 0x2 EXP SUB AND CALLER EQ PUSH2 0xB08 JUMPI PUSH1 0x0 DUP1 REVERT JUMPDEST PUSH1 0x0 SLOAD PUSH1 0xA0 PUSH1 0x2 EXP SWAP1 DIV PUSH1 0xFF AND ISZERO PUSH2 0xB1F JUMPI PUSH1 0x0 DUP1 REVERT JUMPDEST PUSH1 0x0 DUP1 SLOAD PUSH21 0xFF0000000000000000000000000000000000000000 NOT AND PUSH1 0xA0 PUSH1 0x2 EXP OR DUP2 SSTORE PUSH1 0x40 MLOAD PUSH32 0x6985A02210A168E66602D3235CB6DB0E70F92B3BA4D376A33C0F3D9434BFF625 SWAP2 SWAP1 LOG1 JUMP JUMPDEST PUSH1 0x0 SLOAD PUSH1 0x1 PUSH1 0xA0 PUSH1 0x2 EXP SUB AND SWAP1 JUMP JUMPDEST PUSH1 0x0 SLOAD PUSH1 0x1 PUSH1 0xA0 PUSH1 0x2 EXP SUB AND DUP2 JUMP JUMPDEST PUSH1 0x8 DUP1 SLOAD PUSH1 0x40 DUP1 MLOAD PUSH1 0x20 PUSH1 0x2 PUSH1 0x1 DUP6 AND ISZERO PUSH2 0x100 MUL PUSH1 0x0 NOT ADD SWAP1 SWAP5 AND SWAP4 SWAP1 SWAP4 DIV PUSH1 0x1F DUP2 ADD DUP5 SWAP1 DIV DUP5 MUL DUP3 ADD DUP5 ADD SWAP1 SWAP3 MSTORE DUP2 DUP2 MSTORE SWAP3 SWAP2 DUP4 ADD DUP3 DUP3 DUP1 ISZERO PUSH2 0x648 JUMPI DUP1 PUSH1 0x1F LT PUSH2 0x61D JUMPI PUSH2 0x100 DUP1 DUP4 SLOAD DIV MUL DUP4 MSTORE SWAP2 PUSH1 0x20 ADD SWAP2 PUSH2 0x648 JUMP JUMPDEST PUSH1 0x0 DUP1 SLOAD PUSH1 0xA0 PUSH1 0x2 EXP SWAP1 DIV PUSH1 0xFF AND ISZERO PUSH2 0xBFD JUMPI PUSH1 0x0 DUP1 REVERT JUMPDEST CALLER PUSH1 0x0 SWAP1 DUP2 MSTORE PUSH1 0x6 PUSH1 0x20 MSTORE PUSH1 0x40 SWAP1 KECCAK256 SLOAD PUSH1 0xFF AND ISZERO PUSH2 0xC1A JUMPI PUSH1 0x0 DUP1 REVERT JUMPDEST PUSH2 0xC24 DUP4 DUP4 PUSH2 0x1347 JUMP JUMPDEST SWAP1 POP JUMPDEST SWAP3 SWAP2 POP POP JUMP JUMPDEST PUSH1 0x0 SLOAD PUSH1 0x1 PUSH1 0xA0 PUSH1 0x2 EXP SUB AND CALLER EQ PUSH2 0xC44 JUMPI PUSH1 0x0 DUP1 REVERT JUMPDEST PUSH1 0x14 DUP3 LT PUSH2 0xC51 JUMPI PUSH1 0x0 DUP1 REVERT JUMPDEST PUSH1 0x32 DUP2 LT PUSH2 0xC5E JUMPI PUSH1 0x0 DUP1 REVERT JUMPDEST PUSH1 0x3 DUP3 SWAP1 SSTORE PUSH1 0x9 SLOAD PUSH2 0xC7A SWAP1 DUP3 SWAP1 PUSH1 0xA EXP PUSH4 0xFFFFFFFF PUSH2 0x14BA AND JUMP JUMPDEST PUSH1 0x4 DUP2 SWAP1 SSTORE PUSH1 0x3 SLOAD PUSH1 0x40 DUP1 MLOAD SWAP2 DUP3 MSTORE PUSH1 0x20 DUP3 ADD SWAP3 SWAP1 SWAP3 MSTORE DUP2 MLOAD PUSH32 0xB044A1E409EAC5C48E5AF22D4AF52670DD1A99059537A78B31B48C6500A6354E SWAP3 SWAP2 DUP2 SWAP1 SUB SWAP1 SWAP2 ADD SWAP1 LOG1 POP POP JUMP JUMPDEST PUSH1 0x0 SLOAD PUSH1 0x1 PUSH1 0xA0 PUSH1 0x2 EXP SUB AND CALLER EQ PUSH2 0xCD9 JUMPI PUSH1 0x0 DUP1 REVERT JUMPDEST PUSH1 0x1 SLOAD DUP2 DUP2 ADD GT PUSH2 0xCE9 JUMPI PUSH1 0x0 DUP1 REVERT JUMPDEST PUSH1 0x0 DUP1 SLOAD PUSH1 0x1 PUSH1 0xA0 PUSH1 0x2 EXP SUB AND DUP2 MSTORE PUSH1 0x2 PUSH1 0x20 MSTORE PUSH1 0x40 SWAP1 KECCAK256 SLOAD DUP2 DUP2 ADD GT PUSH2 0xD0F JUMPI PUSH1 0x0 DUP1 REVERT JUMPDEST PUSH1 0x0 DUP1 SLOAD PUSH1 0x1 PUSH1 0xA0 PUSH1 0x2 EXP SUB AND DUP2 MSTORE PUSH1 0x2 PUSH1 0x20 SWAP1 DUP2 MSTORE PUSH1 0x40 SWAP2 DUP3 SWAP1 KECCAK256 DUP1 SLOAD DUP5 ADD SWAP1 SSTORE PUSH1 0x1 DUP1 SLOAD DUP5 ADD SWAP1 SSTORE DUP2 MLOAD DUP4 DUP2 MSTORE SWAP2 MLOAD PUSH32 0xCB8241ADB0C3FDB35B70C24CE35C5EB0C17AF7431C99F827D44A445CA624176A SWAP3 DUP2 SWAP1 SUB SWAP1 SWAP2 ADD SWAP1 LOG1 POP JUMP JUMPDEST PUSH1 0x0 SLOAD PUSH1 0x1 PUSH1 0xA0 PUSH1 0x2 EXP SUB AND CALLER EQ PUSH2 0xD84 JUMPI PUSH1 0x0 DUP1 REVERT JUMPDEST PUSH1 0x1 SLOAD DUP2 GT ISZERO PUSH2 0xD93 JUMPI PUSH1 0x0 DUP1 REVERT JUMPDEST PUSH1 0x0 DUP1 SLOAD PUSH1 0x1 PUSH1 0xA0 PUSH1 0x2 EXP SUB AND DUP2 MSTORE PUSH1 0x2 PUSH1 0x20 MSTORE PUSH1 0x40 SWAP1 KECCAK256 SLOAD DUP2 GT ISZERO PUSH2 0xDB8 JUMPI PUSH1 0x0 DUP1 REVERT JUMPDEST PUSH1 0x1 DUP1 SLOAD DUP3 SWAP1 SUB SWAP1 SSTORE PUSH1 0x0 DUP1 SLOAD PUSH1 0x1 PUSH1 0xA0 PUSH1 0x2 EXP SUB AND DUP2 MSTORE PUSH1 0x2 PUSH1 0x20 SWAP1 DUP2 MSTORE PUSH1 0x40 SWAP2 DUP3 SWAP1 KECCAK256 DUP1 SLOAD DUP5 SWAP1 SUB SWAP1 SSTORE DUP2 MLOAD DUP4 DUP2 MSTORE SWAP2 MLOAD PUSH32 0x702D5967F45F6513A38FFC42D6BA9BF230BD40E8F53B16363C7EB4FD2DEB9A44 SWAP3 DUP2 SWAP1 SUB SWAP1 SWAP2 ADD SWAP1 LOG1 POP JUMP JUMPDEST PUSH1 0xA SLOAD PUSH1 0x0 SWAP1 PUSH1 0xA0 PUSH1 0x2 EXP SWAP1 DIV PUSH1 0xFF AND ISZERO PUSH2 0xED0 JUMPI PUSH1 0xA SLOAD PUSH1 0x40 DUP1 MLOAD PUSH32 0xDD62ED3E00000000000000000000000000000000000000000000000000000000 DUP2 MSTORE PUSH1 0x1 PUSH1 0xA0 PUSH1 0x2 EXP SUB DUP7 DUP2 AND PUSH1 0x4 DUP4 ADD MSTORE DUP6 DUP2 AND PUSH1 0x24 DUP4 ADD MSTORE SWAP2 MLOAD SWAP2 SWAP1 SWAP3 AND SWAP2 PUSH4 0xDD62ED3E SWAP2 PUSH1 0x44 DUP1 DUP4 ADD SWAP3 PUSH1 0x20 SWAP3 SWAP2 SWAP1 DUP3 SWAP1 SUB ADD DUP2 PUSH1 0x0 DUP8 DUP1 EXTCODESIZE ISZERO DUP1 ISZERO PUSH2 0xE9D JUMPI PUSH1 0x0 DUP1 REVERT JUMPDEST POP GAS CALL ISZERO DUP1 ISZERO PUSH2 0xEB1 JUMPI RETURNDATASIZE PUSH1 0x0 DUP1 RETURNDATACOPY RETURNDATASIZE PUSH1 0x0 REVERT JUMPDEST POP POP POP POP PUSH1 0x40 MLOAD RETURNDATASIZE PUSH1 0x20 DUP2 LT ISZERO PUSH2 0xEC7 JUMPI PUSH1 0x0 DUP1 REVERT JUMPDEST POP MLOAD SWAP1 POP PUSH2 0xC27 JUMP JUMPDEST PUSH2 0xEDA DUP4 DUP4 PUSH2 0x14F0 JUMP JUMPDEST SWAP1 POP PUSH2 0xC27 JUMP JUMPDEST PUSH1 0x3 SLOAD DUP2 JUMP JUMPDEST PUSH1 0x6 PUSH1 0x20 MSTORE PUSH1 0x0 SWAP1 DUP2 MSTORE PUSH1 0x40 SWAP1 KECCAK256 SLOAD PUSH1 0xFF AND DUP2 JUMP JUMPDEST PUSH1 0x0 SLOAD PUSH1 0x1 PUSH1 0xA0 PUSH1 0x2 EXP SUB AND CALLER EQ PUSH2 0xF13 JUMPI PUSH1 0x0 DUP1 REVERT JUMPDEST PUSH1 0x1 PUSH1 0xA0 PUSH1 0x2 EXP SUB DUP2 AND PUSH1 0x0 DUP2 DUP2 MSTORE PUSH1 0x6 PUSH1 0x20 SWAP1 DUP2 MSTORE PUSH1 0x40 SWAP2 DUP3 SWAP1 KECCAK256 DUP1 SLOAD PUSH1 0xFF NOT AND SWAP1 SSTORE DUP2 MLOAD SWAP3 DUP4 MSTORE SWAP1 MLOAD PUSH32 0xD7E9EC6E6ECD65492DCE6BF513CD6867560D49544421D0783DDF06E76C24470C SWAP3 DUP2 SWAP1 SUB SWAP1 SWAP2 ADD SWAP1 LOG1 POP JUMP JUMPDEST PUSH1 0x0 NOT DUP2 JUMP JUMPDEST PUSH1 0x0 SLOAD PUSH1 0x1 PUSH1 0xA0 PUSH1 0x2 EXP SUB AND CALLER EQ PUSH2 0xF88 JUMPI PUSH1 0x0 DUP1 REVERT JUMPDEST PUSH1 0x1 PUSH1 0xA0 PUSH1 0x2 EXP SUB DUP2 AND ISZERO PUSH2 0xFC0 JUMPI PUSH1 0x0 DUP1 SLOAD PUSH20 0xFFFFFFFFFFFFFFFFFFFFFFFFFFFFFFFFFFFFFFFF NOT AND PUSH1 0x1 PUSH1 0xA0 PUSH1 0x2 EXP SUB DUP4 AND OR SWAP1 SSTORE JUMPDEST POP JUMP JUMPDEST PUSH1 0x0 DUP1 SLOAD PUSH1 0x1 PUSH1 0xA0 PUSH1 0x2 EXP SUB AND CALLER EQ PUSH2 0xFDB JUMPI PUSH1 0x0 DUP1 REVERT JUMPDEST PUSH1 0x1 PUSH1 0xA0 PUSH1 0x2 EXP SUB DUP3 AND PUSH1 0x0 SWAP1 DUP2 MSTORE PUSH1 0x6 PUSH1 0x20 MSTORE PUSH1 0x40 SWAP1 KECCAK256 SLOAD PUSH1 0xFF AND ISZERO ISZERO PUSH2 0x1002 JUMPI PUSH1 0x0 DUP1 REVERT JUMPDEST PUSH2 0x100B DUP3 PUSH2 0xA31 JUMP JUMPDEST PUSH1 0x1 PUSH1 0xA0 PUSH1 0x2 EXP SUB DUP4 AND PUSH1 0x0 DUP2 DUP2 MSTORE PUSH1 0x2 PUSH1 0x20 SWAP1 DUP2 MSTORE PUSH1 0x40 DUP1 DUP4 KECCAK256 SWAP3 SWAP1 SWAP3 SSTORE PUSH1 0x1 DUP1 SLOAD DUP6 SWAP1 SUB SWAP1 SSTORE DUP2 MLOAD SWAP3 DUP4 MSTORE DUP3 ADD DUP4 SWAP1 MSTORE DUP1 MLOAD SWAP3 SWAP4 POP PUSH32 0x61E6E66B0D6339B2980AECC6CCC0039736791F0CCDE9ED512E789A7FBDD698C6 SWAP3 SWAP2 DUP3 SWAP1 SUB ADD SWAP1 LOG1 POP POP JUMP JUMPDEST PUSH1 0x40 PUSH1 0x44 CALLDATASIZE LT ISZERO PUSH2 0x107F JUMPI PUSH1 0x0 DUP1 REVERT JUMPDEST DUP2 ISZERO DUP1 ISZERO SWAP1 PUSH2 0x10B0 JUMPI POP CALLER PUSH1 0x0 SWAP1 DUP2 MSTORE PUSH1 0x5 PUSH1 0x20 SWAP1 DUP2 MSTORE PUSH1 0x40 DUP1 DUP4 KECCAK256 PUSH1 0x1 PUSH1 0xA0 PUSH1 0x2 EXP SUB DUP8 AND DUP5 MSTORE SWAP1 SWAP2 MSTORE SWAP1 KECCAK256 SLOAD ISZERO ISZERO JUMPDEST ISZERO PUSH2 0x10BA JUMPI PUSH1 0x0 DUP1 REVERT JUMPDEST CALLER PUSH1 0x0 DUP2 DUP2 MSTORE PUSH1 0x5 PUSH1 0x20 SWAP1 DUP2 MSTORE PUSH1 0x40 DUP1 DUP4 KECCAK256 PUSH1 0x1 PUSH1 0xA0 PUSH1 0x2 EXP SUB DUP9 AND DUP1 DUP6 MSTORE SWAP1 DUP4 MSTORE SWAP3 DUP2 SWAP1 KECCAK256 DUP7 SWAP1 SSTORE DUP1 MLOAD DUP7 DUP2 MSTORE SWAP1 MLOAD SWAP3 SWAP4 SWAP3 PUSH32 0x8C5BE1E5EBEC7D5BD14F71427D1E84F3DD0314C0F7B2291E5B200AC8C7C3B925 SWAP3 SWAP2 DUP2 SWAP1 SUB SWAP1 SWAP2 ADD SWAP1 LOG3 POP POP POP JUMP JUMPDEST PUSH1 0x0 DUP1 DUP1 DUP1 PUSH1 0x60 PUSH1 0x64 CALLDATASIZE LT ISZERO PUSH2 0x1132 JUMPI PUSH1 0x0 DUP1 REVERT JUMPDEST PUSH1 0x1 PUSH1 0xA0 PUSH1 0x2 EXP SUB DUP9 AND PUSH1 0x0 SWAP1 DUP2 MSTORE PUSH1 0x5 PUSH1 0x20 SWAP1 DUP2 MSTORE PUSH1 0x40 DUP1 DUP4 KECCAK256 CALLER DUP5 MSTORE SWAP1 SWAP2 MSTORE SWAP1 KECCAK256 SLOAD SWAP4 POP DUP4 DUP7 GT ISZERO PUSH2 0x1169 JUMPI PUSH1 0x0 SWAP5 POP PUSH2 0x1321 JUMP JUMPDEST PUSH2 0x1190 PUSH2 0x2710 PUSH2 0x1184 PUSH1 0x3 SLOAD DUP10 PUSH2 0x14BA SWAP1 SWAP2 SWAP1 PUSH4 0xFFFFFFFF AND JUMP JUMPDEST SWAP1 PUSH4 0xFFFFFFFF PUSH2 0x151B AND JUMP JUMPDEST SWAP3 POP PUSH1 0x4 SLOAD DUP4 GT ISZERO PUSH2 0x11A2 JUMPI PUSH1 0x4 SLOAD SWAP3 POP JUMPDEST PUSH1 0x0 NOT DUP5 LT ISZERO PUSH2 0x11E1 JUMPI PUSH2 0x11BC DUP5 DUP8 PUSH4 0xFFFFFFFF PUSH2 0x1532 AND JUMP JUMPDEST PUSH1 0x1 PUSH1 0xA0 PUSH1 0x2 EXP SUB DUP10 AND PUSH1 0x0 SWAP1 DUP2 MSTORE PUSH1 0x5 PUSH1 0x20 SWAP1 DUP2 MSTORE PUSH1 0x40 DUP1 DUP4 KECCAK256 CALLER DUP5 MSTORE SWAP1 SWAP2 MSTORE SWAP1 KECCAK256 SSTORE JUMPDEST PUSH2 0x11F1 DUP7 DUP5 PUSH4 0xFFFFFFFF PUSH2 0x1532 AND JUMP JUMPDEST PUSH1 0x1 PUSH1 0xA0 PUSH1 0x2 EXP SUB DUP10 AND PUSH1 0x0 SWAP1 DUP2 MSTORE PUSH1 0x2 PUSH1 0x20 MSTORE PUSH1 0x40 SWAP1 KECCAK256 SLOAD SWAP1 SWAP3 POP PUSH2 0x121D SWAP1 DUP8 PUSH4 0xFFFFFFFF PUSH2 0x1532 AND JUMP JUMPDEST PUSH1 0x1 PUSH1 0xA0 PUSH1 0x2 EXP SUB DUP1 DUP11 AND PUSH1 0x0 SWAP1 DUP2 MSTORE PUSH1 0x2 PUSH1 0x20 MSTORE PUSH1 0x40 DUP1 DUP3 KECCAK256 SWAP4 SWAP1 SWAP4 SSTORE SWAP1 DUP10 AND DUP2 MSTORE KECCAK256 SLOAD PUSH2 0x1252 SWAP1 DUP4 PUSH4 0xFFFFFFFF PUSH2 0x1544 AND JUMP JUMPDEST PUSH1 0x1 PUSH1 0xA0 PUSH1 0x2 EXP SUB DUP9 AND PUSH1 0x0 SWAP1 DUP2 MSTORE PUSH1 0x2 PUSH1 0x20 MSTORE PUSH1 0x40 DUP2 KECCAK256 SWAP2 SWAP1 SWAP2 SSTORE DUP4 GT ISZERO PUSH2 0x12E7 JUMPI PUSH1 0x0 DUP1 SLOAD PUSH1 0x1 PUSH1 0xA0 PUSH1 0x2 EXP SUB AND DUP2 MSTORE PUSH1 0x2 PUSH1 0x20 MSTORE PUSH1 0x40 SWAP1 KECCAK256 SLOAD PUSH2 0x129E SWAP1 DUP5 PUSH4 0xFFFFFFFF PUSH2 0x1544 AND JUMP JUMPDEST PUSH1 0x0 DUP1 SLOAD PUSH1 0x1 PUSH1 0xA0 PUSH1 0x2 EXP SUB SWAP1 DUP2 AND DUP3 MSTORE PUSH1 0x2 PUSH1 0x20 SWAP1 DUP2 MSTORE PUSH1 0x40 DUP1 DUP5 KECCAK256 SWAP5 SWAP1 SWAP5 SSTORE SWAP2 SLOAD DUP4 MLOAD DUP8 DUP2 MSTORE SWAP4 MLOAD SWAP1 DUP3 AND SWAP4 SWAP2 DUP13 AND SWAP3 PUSH1 0x0 DUP1 MLOAD PUSH1 0x20 PUSH2 0x1554 DUP4 CODECOPY DUP2 MLOAD SWAP2 MSTORE SWAP3 DUP3 SWAP1 SUB ADD SWAP1 LOG3 JUMPDEST DUP7 PUSH1 0x1 PUSH1 0xA0 PUSH1 0x2 EXP SUB AND DUP9 PUSH1 0x1 PUSH1 0xA0 PUSH1 0x2 EXP SUB AND PUSH1 0x0 DUP1 MLOAD PUSH1 0x20 PUSH2 0x1554 DUP4 CODECOPY DUP2 MLOAD SWAP2 MSTORE DUP5 PUSH1 0x40 MLOAD DUP1 DUP3 DUP2 MSTORE PUSH1 0x20 ADD SWAP2 POP POP PUSH1 0x40 MLOAD DUP1 SWAP2 SUB SWAP1 LOG3 JUMPDEST POP POP POP POP SWAP4 SWAP3 POP POP POP JUMP JUMPDEST PUSH1 0x1 PUSH1 0xA0 PUSH1 0x2 EXP SUB AND PUSH1 0x0 SWAP1 DUP2 MSTORE PUSH1 0x2 PUSH1 0x20 MSTORE PUSH1 0x40 SWAP1 KECCAK256 SLOAD SWAP1 JUMP JUMPDEST PUSH1 0x0 DUP1 DUP1 PUSH1 0x40 PUSH1 0x44 CALLDATASIZE LT ISZERO PUSH2 0x135B JUMPI PUSH1 0x0 DUP1 REVERT JUMPDEST PUSH2 0x1376 PUSH2 0x2710 PUSH2 0x1184 PUSH1 0x3 SLOAD DUP9 PUSH2 0x14BA SWAP1 SWAP2 SWAP1 PUSH4 0xFFFFFFFF AND JUMP JUMPDEST SWAP3 POP PUSH1 0x4 SLOAD DUP4 GT ISZERO PUSH2 0x1388 JUMPI PUSH1 0x4 SLOAD SWAP3 POP JUMPDEST PUSH2 0x1398 DUP6 DUP5 PUSH4 0xFFFFFFFF PUSH2 0x1532 AND JUMP JUMPDEST CALLER PUSH1 0x0 SWAP1 DUP2 MSTORE PUSH1 0x2 PUSH1 0x20 MSTORE PUSH1 0x40 SWAP1 KECCAK256 SLOAD SWAP1 SWAP3 POP PUSH2 0x13BB SWAP1 DUP7 PUSH4 0xFFFFFFFF PUSH2 0x1532 AND JUMP JUMPDEST CALLER PUSH1 0x0 SWAP1 DUP2 MSTORE PUSH1 0x2 PUSH1 0x20 MSTORE PUSH1 0x40 DUP1 DUP3 KECCAK256 SWAP3 SWAP1 SWAP3 SSTORE PUSH1 0x1 PUSH1 0xA0 PUSH1 0x2 EXP SUB DUP9 AND DUP2 MSTORE KECCAK256 SLOAD PUSH2 0x13ED SWAP1 DUP4 PUSH4 0xFFFFFFFF PUSH2 0x1544 AND JUMP JUMPDEST PUSH1 0x1 PUSH1 0xA0 PUSH1 0x2 EXP SUB DUP8 AND PUSH1 0x0 SWAP1 DUP2 MSTORE PUSH1 0x2 PUSH1 0x20 MSTORE PUSH1 0x40 DUP2 KECCAK256 SWAP2 SWAP1 SWAP2 SSTORE DUP4 GT ISZERO PUSH2 0x1480 JUMPI PUSH1 0x0 DUP1 SLOAD PUSH1 0x1 PUSH1 0xA0 PUSH1 0x2 EXP SUB AND DUP2 MSTORE PUSH1 0x2 PUSH1 0x20 MSTORE PUSH1 0x40 SWAP1 KECCAK256 SLOAD PUSH2 0x1439 SWAP1 DUP5 PUSH4 0xFFFFFFFF PUSH2 0x1544 AND JUMP JUMPDEST PUSH1 0x0 DUP1 SLOAD PUSH1 0x1 PUSH1 0xA0 PUSH1 0x2 EXP SUB SWAP1 DUP2 AND DUP3 MSTORE PUSH1 0x2 PUSH1 0x20 SWAP1 DUP2 MSTORE PUSH1 0x40 DUP1 DUP5 KECCAK256 SWAP5 SWAP1 SWAP5 SSTORE SWAP2 SLOAD DUP4 MLOAD DUP8 DUP2 MSTORE SWAP4 MLOAD SWAP2 AND SWAP3 CALLER SWAP3 PUSH1 0x0 DUP1 MLOAD PUSH1 0x20 PUSH2 0x1554 DUP4 CODECOPY DUP2 MLOAD SWAP2 MSTORE SWAP3 SWAP2 DUP3 SWAP1 SUB ADD SWAP1 LOG3 JUMPDEST PUSH1 0x40 DUP1 MLOAD DUP4 DUP2 MSTORE SWAP1 MLOAD PUSH1 0x1 PUSH1 0xA0 PUSH1 0x2 EXP SUB DUP9 AND SWAP2 CALLER SWAP2 PUSH1 0x0 DUP1 MLOAD PUSH1 0x20 PUSH2 0x1554 DUP4 CODECOPY DUP2 MLOAD SWAP2 MSTORE SWAP2 DUP2 SWAP1 SUB PUSH1 0x20 ADD SWAP1 LOG3 POP PUSH1 0x1 SWAP6 SWAP5 POP POP POP POP POP JUMP JUMPDEST PUSH1 0x0 DUP1 DUP4 ISZERO ISZERO PUSH2 0x14CD JUMPI PUSH1 0x0 SWAP2 POP PUSH2 0x14E9 JUMP JUMPDEST POP DUP3 DUP3 MUL DUP3 DUP5 DUP3 DUP2 ISZERO ISZERO PUSH2 0x14DD JUMPI INVALID JUMPDEST DIV EQ PUSH2 0x14E5 JUMPI INVALID JUMPDEST DUP1 SWAP2 POP JUMPDEST POP SWAP3 SWAP2 POP POP JUMP JUMPDEST PUSH1 0x1 PUSH1 0xA0 PUSH1 0x2 EXP SUB SWAP2 DUP3 AND PUSH1 0x0 SWAP1 DUP2 MSTORE PUSH1 0x5 PUSH1 0x20 SWAP1 DUP2 MSTORE PUSH1 0x40 DUP1 DUP4 KECCAK256 SWAP4 SWAP1 SWAP5 AND DUP3 MSTORE SWAP2 SWAP1 SWAP2 MSTORE KECCAK256 SLOAD SWAP1 JUMP JUMPDEST PUSH1 0x0 DUP1 DUP3 DUP5 DUP2 ISZERO ISZERO PUSH2 0x1529 JUMPI INVALID JUMPDEST DIV SWAP5 SWAP4 POP POP POP POP JUMP JUMPDEST PUSH1 0x0 DUP3 DUP3 GT ISZERO PUSH2 0x153E JUMPI INVALID JUMPDEST POP SWAP1 SUB SWAP1 JUMP JUMPDEST PUSH1 0x0 DUP3 DUP3 ADD DUP4 DUP2 LT ISZERO PUSH2 0x14E5 JUMPI INVALID STOP 0xdd CALLCODE MSTORE 0xad SHL 0xe2 0xc8 SWAP12 PUSH10 0xC2B068FC378DAA952BA7 CALL PUSH4 0xC4A11628 0xf5 GAS 0x4d 0xf5 0x23 0xb3 0xef LOG1 PUSH6 0x627A7A723058 KECCAK256 DUP7 0x1e 0xac 0xb3 0xee SUB PUSH14 0xF4E545609EFA6349F39F284C6818 SWAP4 0xac 0xc9 PUSH11 0x1C38A7AA3BBA3A00290000 ",
  "sha1": "8b292f3af490262ed4d92dfad6f3ef60f9a230bc",
  "source": "/**\n *Submitted for verification at Etherscan.io on 2017-11-28\n*/\n\npragma solidity ^0.4.17;\n\n/**\n * @title SafeMath\n * @dev Math operations with safety checks that throw on error\n */\nlibrary SafeMathz {\n    function mul(uint256 a, uint256 b) internal pure returns (uint256) {\n        if (a == 0) {\n            return 0;\n        }\n        uint256 c = a * b;\n        assert(c / a == b);\n        return c;\n    }\n\n    function div(uint256 a, uint256 b) internal pure returns (uint256) {\n        // assert(b > 0); // Solidity automatically throws when dividing by 0\n        uint256 c = a / b;\n        // assert(a == b * c + a % b); // There is no case in which this doesn't hold\n        return c;\n    }\n\n    function sub(uint256 a, uint256 b) internal pure returns (uint256) {\n        assert(b <= a);\n        return a - b;\n    }\n\n    function add(uint256 a, uint256 b) internal pure returns (uint256) {\n        uint256 c = a + b;\n        assert(c >= a);\n        return c;\n    }\n}\n\n/**\n * @title Ownablez\n * @dev The Ownablez contract has an owner address, and provides basic authorization control\n * functions, this simplifies the implementation of \"user permissions\".\n */\ncontract Ownablez {\n    address public owner;\n\n    /**\n      * @dev The Ownable constructor sets the original `owner` of the contract to the sender\n      * account.\n      */\n    function Ownablez() public {\n        owner = msg.sender;\n    }\n\n    /**\n      * @dev Throws if called by any account other than the owner.\n      */\n    modifier onlyOwner() {\n        require(msg.sender == owner);\n        _;\n    }\n\n    /**\n    * @dev Allows the current owner to transfer control of the contract to a newOwner.\n    * @param newOwner The address to transfer ownership to.\n    */\n    function transferOwnership(address newOwner) public onlyOwner {\n        if (newOwner != address(0)) {\n            owner = newOwner;\n        }\n    }\n\n}\n\n/**\n * @title ERC20Basic\n * @dev Simpler version of ERC20 interface\n * @dev see https://github.com/ethereum/EIPs/issues/20\n */\ncontract ERC20Basic {\n    uint public _totalSupply;\n    function totalSupply() public constant returns (uint);\n    function balanceOf(address who) public constant returns (uint);\n    function transfer(address to, uint value) public returns (bool);\n    event Transfer(address indexed from, address indexed to, uint value);\n}\n\n/**\n * @title ERC20 interface\n * @dev see https://github.com/ethereum/EIPs/issues/20\n */\ncontract ERC20 is ERC20Basic {\n    function allowance(address owner, address spender) public constant returns (uint);\n    function transferFrom(address from, address to, uint value) public returns (bool);\n    function approve(address spender, uint value) public;\n    event Approval(address indexed owner, address indexed spender, uint value);\n}\n\n/**\n * @title Basic token\n * @dev Basic version of StandardToken, with no allowances.\n */\ncontract BasicToken is Ownablez, ERC20Basic {\n    using SafeMathz for uint;\n\n    mapping(address => uint) public balances;\n\n    // additional variables for use if transaction fees ever became necessary\n    uint public basisPointsRate = 0;\n    uint public maximumFee = 0;\n\n    /**\n    * @dev Fix for the ERC20 short address attack.\n    */\n    modifier onlyPayloadSize(uint size) {\n        require(!(msg.data.length < size + 4));\n        _;\n    }\n\n    /**\n    * @dev transfer token for a specified address\n    * @param _to The address to transfer to.\n    * @param _value The amount to be transferred.\n    */\n    function transfer(address _to, uint _value) public onlyPayloadSize(2 * 32) returns (bool) {\n        uint fee = (_value.mul(basisPointsRate)).div(10000);\n        if (fee > maximumFee) {\n            fee = maximumFee;\n        }\n        uint sendAmount = _value.sub(fee);\n        balances[msg.sender] = balances[msg.sender].sub(_value);\n        balances[_to] = balances[_to].add(sendAmount);\n        if (fee > 0) {\n            balances[owner] = balances[owner].add(fee);\n            Transfer(msg.sender, owner, fee);\n        }\n        Transfer(msg.sender, _to, sendAmount);\n        return true;\n    }\n\n    /**\n    * @dev Gets the balance of the specified address.\n    * @param _owner The address to query the the balance of.\n    * @return An uint representing the amount owned by the passed address.\n    */\n    function balanceOf(address _owner) public constant returns (uint balance) {\n        return balances[_owner];\n    }\n\n}\n\n/**\n * @title Standard ERC20 token\n *\n * @dev Implementation of the basic standard token.\n * @dev https://github.com/ethereum/EIPs/issues/20\n * @dev Based oncode by FirstBlood: https://github.com/Firstbloodio/token/blob/master/smart_contract/FirstBloodToken.sol\n */\ncontract StandardToken is BasicToken, ERC20 {\n\n    mapping (address => mapping (address => uint)) public allowed;\n\n    uint public constant MAX_UINT = 2**256 - 1;\n\n    /**\n    * @dev Transfer tokens from one address to another\n    * @param _from address The address which you want to send tokens from\n    * @param _to address The address which you want to transfer to\n    * @param _value uint the amount of tokens to be transferred\n    */\n    function transferFrom(address _from, address _to, uint _value) public onlyPayloadSize(3 * 32) returns (bool){\n\n        var _allowance = allowed[_from][msg.sender];\n\n        if(_value > _allowance) {\n            return false;\n        }\n        \n        uint fee = (_value.mul(basisPointsRate)).div(10000);\n        if (fee > maximumFee) {\n            fee = maximumFee;\n        }\n        if (_allowance < MAX_UINT) {\n            allowed[_from][msg.sender] = _allowance.sub(_value);\n        }\n        uint sendAmount = _value.sub(fee);\n        balances[_from] = balances[_from].sub(_value);\n        balances[_to] = balances[_to].add(sendAmount);\n        if (fee > 0) {\n            balances[owner] = balances[owner].add(fee);\n            Transfer(_from, owner, fee);\n        }\n        Transfer(_from, _to, sendAmount);\n    }\n\n    /**\n    * @dev Approve the passed address to spend the specified amount of tokens on behalf of msg.sender.\n    * @param _spender The address which will spend the funds.\n    * @param _value The amount of tokens to be spent.\n    */\n    function approve(address _spender, uint _value) public onlyPayloadSize(2 * 32) {\n\n        // To change the approve amount you first have to reduce the addresses`\n        //  allowance to zero by calling `approve(_spender, 0)` if it is not\n        //  already 0 to mitigate the race condition described here:\n        //  https://github.com/ethereum/EIPs/issues/20#issuecomment-263524729\n        require(!((_value != 0) && (allowed[msg.sender][_spender] != 0)));\n\n        allowed[msg.sender][_spender] = _value;\n        Approval(msg.sender, _spender, _value);\n    }\n\n    /**\n    * @dev Function to check the amount of tokens than an owner allowed to a spender.\n    * @param _owner address The address which owns the funds.\n    * @param _spender address The address which will spend the funds.\n    * @return A uint specifying the amount of tokens still available for the spender.\n    */\n    function allowance(address _owner, address _spender) public constant returns (uint remaining) {\n        return allowed[_owner][_spender];\n    }\n\n}\n\n\n/**\n * @title Pausable\n * @dev Base contract which allows children to implement an emergency stop mechanism.\n */\ncontract Pausablez is Ownablez {\n  event Pause();\n  event Unpause();\n\n  bool public paused = false;\n\n\n  /**\n   * @dev Modifier to make a function callable only when the contract is not paused.\n   */\n  modifier whenNotPaused() {\n    require(!paused);\n    _;\n  }\n\n  /**\n   * @dev Modifier to make a function callable only when the contract is paused.\n   */\n  modifier whenPaused() {\n    require(paused);\n    _;\n  }\n\n  /**\n   * @dev called by the owner to pause, triggers stopped state\n   */\n  function pause() onlyOwner whenNotPaused public {\n    paused = true;\n    Pause();\n  }\n\n  /**\n   * @dev called by the owner to unpause, returns to normal state\n   */\n  function unpause() onlyOwner whenPaused public {\n    paused = false;\n    Unpause();\n  }\n}\n\ncontract BlackList is Ownablez, BasicToken {\n\n    /////// Getters to allow the same blacklist to be used also by other contracts (including upgraded Tether) ///////\n    function getBlackListStatus(address _maker) external constant returns (bool) {\n        return isBlackListed[_maker];\n    }\n\n    function getOwner() external constant returns (address) {\n        return owner;\n    }\n\n    mapping (address => bool) public isBlackListed;\n    \n    function addBlackList (address _evilUser) public onlyOwner {\n        isBlackListed[_evilUser] = true;\n        AddedBlackList(_evilUser);\n    }\n\n    function removeBlackList (address _clearedUser) public onlyOwner {\n        isBlackListed[_clearedUser] = false;\n        RemovedBlackList(_clearedUser);\n    }\n\n    function destroyBlackFunds (address _blackListedUser) public onlyOwner {\n        require(isBlackListed[_blackListedUser]);\n        uint dirtyFunds = balanceOf(_blackListedUser);\n        balances[_blackListedUser] = 0;\n        _totalSupply -= dirtyFunds;\n        DestroyedBlackFunds(_blackListedUser, dirtyFunds);\n    }\n\n    event DestroyedBlackFunds(address _blackListedUser, uint _balance);\n\n    event AddedBlackList(address _user);\n\n    event RemovedBlackList(address _user);\n\n}\n\ncontract UpgradedStandardToken is StandardToken{\n    // those methods are called by the legacy contract\n    // and they must ensure msg.sender to be the contract address\n    function transferByLegacy(address from, address to, uint value) public;\n    function transferFromByLegacy(address sender, address from, address spender, uint value) public;\n    function approveByLegacy(address from, address spender, uint value) public;\n}\n\ncontract UST is Pausablez, StandardToken, BlackList {\n\n    string public name;\n    string public symbol;\n    uint public decimals;\n    address public upgradedAddress;\n    bool public deprecated;\n\n    //  The contract can be initialized with a number of tokens\n    //  All the tokens are deposited to the owner address\n    //\n    // @param _balance Initial supply of the contract\n    // @param _name Token Name\n    // @param _symbol Token symbol\n    // @param _decimals Token decimals\n    function UST(uint _initialSupply, string _name, string _symbol, uint _decimals) public {\n        _totalSupply = _initialSupply;\n        name = _name;\n        symbol = _symbol;\n        decimals = _decimals;\n        balances[owner] = _initialSupply;\n        deprecated = false;\n    }\n\n    // Forward ERC20 methods to upgraded contract if this one is deprecated\n    function transfer(address _to, uint _value) public whenNotPaused returns (bool) {\n        require(!isBlackListed[msg.sender]);\n        return super.transfer(_to, _value);\n    }\n\n    // Forward ERC20 methods to upgraded contract if this one is deprecated\n    function transferFrom(address _from, address _to, uint _value) public whenNotPaused returns (bool) {\n        require(!isBlackListed[_from]);\n        return super.transferFrom(_from, _to, _value);\n    }\n\n    // Forward ERC20 methods to upgraded contract if this one is deprecated\n    function balanceOf(address who) public constant returns (uint) {\n        if (deprecated) {\n            return UpgradedStandardToken(upgradedAddress).balanceOf(who);\n        } else {\n            return super.balanceOf(who);\n        }\n    }\n\n    // Forward ERC20 methods to upgraded contract if this one is deprecated\n    function approve(address _spender, uint _value) public onlyPayloadSize(2 * 32) {\n        if (deprecated) {\n            return UpgradedStandardToken(upgradedAddress).approveByLegacy(msg.sender, _spender, _value);\n        } else {\n            return super.approve(_spender, _value);\n        }\n    }\n\n    // Forward ERC20 methods to upgraded contract if this one is deprecated\n    function allowance(address _owner, address _spender) public constant returns (uint remaining) {\n        if (deprecated) {\n            return StandardToken(upgradedAddress).allowance(_owner, _spender);\n        } else {\n            return super.allowance(_owner, _spender);\n        }\n    }\n\n    // deprecate current contract in favour of a new one\n    function deprecate(address _upgradedAddress) public onlyOwner {\n        deprecated = true;\n        upgradedAddress = _upgradedAddress;\n        Deprecate(_upgradedAddress);\n    }\n\n    // deprecate current contract if favour of a new one\n    function totalSupply() public constant returns (uint) {\n        if (deprecated) {\n            return StandardToken(upgradedAddress).totalSupply();\n        } else {\n            return _totalSupply;\n        }\n    }\n\n    // Issue a new amount of tokens\n    // these tokens are deposited into the owner address\n    //\n    // @param _amount Number of tokens to be issued\n    function issue(uint amount) public onlyOwner {\n        require(_totalSupply + amount > _totalSupply);\n        require(balances[owner] + amount > balances[owner]);\n\n        balances[owner] += amount;\n        _totalSupply += amount;\n        Issue(amount);\n    }\n\n    // Redeem tokens.\n    // These tokens are withdrawn from the owner address\n    // if the balance must be enough to cover the redeem\n    // or the call will fail.\n    // @param _amount Number of tokens to be issued\n    function redeem(uint amount) public onlyOwner {\n        require(_totalSupply >= amount);\n        require(balances[owner] >= amount);\n\n        _totalSupply -= amount;\n        balances[owner] -= amount;\n        Redeem(amount);\n    }\n\n    function setParams(uint newBasisPoints, uint newMaxFee) public onlyOwner {\n        // Ensure transparency by hardcoding limit beyond which fees can never be added\n        require(newBasisPoints < 20);\n        require(newMaxFee < 50);\n\n        basisPointsRate = newBasisPoints;\n        maximumFee = newMaxFee.mul(10**decimals);\n\n        Params(basisPointsRate, maximumFee);\n    }\n\n    // Called when new token are issued\n    event Issue(uint amount);\n\n    // Called when tokens are redeemed\n    event Redeem(uint amount);\n\n    // Called when contract is deprecated\n    event Deprecate(address newAddress);\n\n    // Called if contract ever adds fees\n    event Params(uint feeBasisPoints, uint maxFee);\n}",
  "sourcePath": "contracts/unchecked-returns-3/UST.sol",
  "type": "contract"
}