{
  "abi": [
    {
      "inputs": [
        {
          "internalType": "address",
          "name": "_underlying",
          "type": "address"
        }
      ],
      "stateMutability": "nonpayable",
      "type": "constructor"
    },
    {
      "anonymous": false,
      "inputs": [
        {
          "indexed": false,
          "internalType": "address",
          "name": "claimer",
          "type": "address"
        }
      ],
      "name": "RewardsClaimed",
      "type": "event"
    },
    {
      "inputs": [
        {
          "internalType": "address",
          "name": "",
          "type": "address"
        }
      ],
      "name": "balanceOf",
      "outputs": [
        {
          "internalType": "uint256",
          "name": "",
          "type": "uint256"
        }
      ],
      "stateMutability": "view",
      "type": "function"
    },
    {
      "inputs": [],
      "name": "claimRewards",
      "outputs": [],
      "stateMutability": "nonpayable",
      "type": "function"
    },
    {
      "inputs": [
        {
          "internalType": "uint256",
          "name": "_amount",
          "type": "uint256"
        }
      ],
      "name": "deposit",
      "outputs": [],
      "stateMutability": "nonpayable",
      "type": "function"
    },
    {
      "inputs": [],
      "name": "underlying",
      "outputs": [
        {
          "internalType": "address",
          "name": "",
          "type": "address"
        }
      ],
      "stateMutability": "view",
      "type": "function"
    },
    {
      "inputs": [
        {
          "internalType": "uint256",
          "name": "_amount",
          "type": "uint256"
        }
      ],
      "name": "withdraw",
      "outputs": [],
      "stateMutability": "nonpayable",
      "type": "function"
    }
  ],
  "bytecode": "608060405234801561001057600080fd5b5060405161069238038061069283398101604081905261002f91610054565b600080546001600160a01b0319166001600160a01b0392909216919091179055610084565b60006020828403121561006657600080fd5b81516001600160a01b038116811461007d57600080fd5b9392505050565b6105ff806100936000396000f3fe608060405234801561001057600080fd5b50600436106100575760003560e01c80632e1a7d4d1461005c578063372500ab146100715780636f307dc31461007957806370a08231146100a9578063b6b55f25146100d7575b600080fd5b61006f61006a3660046104a9565b6100ea565b005b61006f610128565b60005461008c906001600160a01b031681565b6040516001600160a01b0390911681526020015b60405180910390f35b6100c96100b73660046104c2565b60016020526000908152604090205481565b6040519081526020016100a0565b61006f6100e53660046104a9565b61015d565b3360009081526001602052604081208054839290610109908490610508565b9091555050600054610125906001600160a01b0316338361019c565b50565b6040513381527ffec02445b4dcb9e977f70b2966aab1907694acaa22a61ef1ff7d6ee2cb8ed7809060200160405180910390a1565b600054610175906001600160a01b0316333084610204565b3360009081526001602052604081208054839290610194908490610521565b909155505050565b6040516001600160a01b0383166024820152604481018290526101ff90849063a9059cbb60e01b906064015b60408051601f198184030181529190526020810180516001600160e01b03166001600160e01b031990931692909217909152610242565b505050565b6040516001600160a01b038085166024830152831660448201526064810182905261023c9085906323b872dd60e01b906084016101c8565b50505050565b6000610297826040518060400160405280602081526020017f5361666545524332303a206c6f772d6c6576656c2063616c6c206661696c6564815250856001600160a01b03166103199092919063ffffffff16565b8051909150156101ff57808060200190518101906102b59190610534565b6101ff5760405162461bcd60e51b815260206004820152602a60248201527f5361666545524332303a204552433230206f7065726174696f6e20646964206e6044820152691bdd081cdd58d8d9595960b21b60648201526084015b60405180910390fd5b60606103288484600085610330565b949350505050565b6060824710156103915760405162461bcd60e51b815260206004820152602660248201527f416464726573733a20696e73756666696369656e742062616c616e636520666f6044820152651c8818d85b1b60d21b6064820152608401610310565b600080866001600160a01b031685876040516103ad919061057a565b60006040518083038185875af1925050503d80600081146103ea576040519150601f19603f3d011682016040523d82523d6000602084013e6103ef565b606091505b50915091506104008783838761040b565b979650505050505050565b6060831561047a578251600003610473576001600160a01b0385163b6104735760405162461bcd60e51b815260206004820152601d60248201527f416464726573733a2063616c6c20746f206e6f6e2d636f6e74726163740000006044820152606401610310565b5081610328565b610328838381511561048f5781518083602001fd5b8060405162461bcd60e51b81526004016103109190610596565b6000602082840312156104bb57600080fd5b5035919050565b6000602082840312156104d457600080fd5b81356001600160a01b03811681146104eb57600080fd5b9392505050565b634e487b7160e01b600052601160045260246000fd5b8181038181111561051b5761051b6104f2565b92915050565b8082018082111561051b5761051b6104f2565b60006020828403121561054657600080fd5b815180151581146104eb57600080fd5b60005b83811015610571578181015183820152602001610559565b50506000910152565b6000825161058c818460208701610556565b9190910192915050565b60208152600082518060208401526105b5816040850160208701610556565b601f01601f1916919091016040019291505056fea26469706673582212200082e14ad9085d585a568ea7d146a9bfd4e2c4b8774652831a7ad927bca7456864736f6c63430008130033",
  "bytecodeSha1": "df11d8e37a85b0e548bd1197242f9ff6d81ee8be",
  "compiler": {
    "evm_version": "istanbul",
    "optimizer": {
      "enabled": true,
      "runs": 200
    },
    "version": "0.8.19+commit.7dd6d404"
  },
  "contractName": "YieldContract",
  "language": "Solidity",
  "natspec": {
    "kind": "dev",
    "methods": {},
    "version": 1
  },
  "opcodes": "PUSH1 0x80 PUSH1 0x40 MSTORE CALLVALUE DUP1 ISZERO PUSH2 0x10 JUMPI PUSH1 0x0 DUP1 REVERT JUMPDEST POP PUSH1 0x4 CALLDATASIZE LT PUSH2 0x57 JUMPI PUSH1 0x0 CALLDATALOAD PUSH1 0xE0 SHR DUP1 PUSH4 0x2E1A7D4D EQ PUSH2 0x5C JUMPI DUP1 PUSH4 0x372500AB EQ PUSH2 0x71 JUMPI DUP1 PUSH4 0x6F307DC3 EQ PUSH2 0x79 JUMPI DUP1 PUSH4 0x70A08231 EQ PUSH2 0xA9 JUMPI DUP1 PUSH4 0xB6B55F25 EQ PUSH2 0xD7 JUMPI JUMPDEST PUSH1 0x0 DUP1 REVERT JUMPDEST PUSH2 0x6F PUSH2 0x6A CALLDATASIZE PUSH1 0x4 PUSH2 0x4A9 JUMP JUMPDEST PUSH2 0xEA JUMP JUMPDEST STOP JUMPDEST PUSH2 0x6F PUSH2 0x128 JUMP JUMPDEST PUSH1 0x0 SLOAD PUSH2 0x8C SWAP1 PUSH1 0x1 PUSH1 0x1 PUSH1 0xA0 SHL SUB AND DUP2 JUMP JUMPDEST PUSH1 0x40 MLOAD PUSH1 0x1 PUSH1 0x1 PUSH1 0xA0 SHL SUB SWAP1 SWAP2 AND DUP2 MSTORE PUSH1 0x20 ADD JUMPDEST PUSH1 0x40 MLOAD DUP1 SWAP2 SUB SWAP1 RETURN JUMPDEST PUSH2 0xC9 PUSH2 0xB7 CALLDATASIZE PUSH1 0x4 PUSH2 0x4C2 JUMP JUMPDEST PUSH1 0x1 PUSH1 0x20 MSTORE PUSH1 0x0 SWAP1 DUP2 MSTORE PUSH1 0x40 SWAP1 KECCAK256 SLOAD DUP2 JUMP JUMPDEST PUSH1 0x40 MLOAD SWAP1 DUP2 MSTORE PUSH1 0x20 ADD PUSH2 0xA0 JUMP JUMPDEST PUSH2 0x6F PUSH2 0xE5 CALLDATASIZE PUSH1 0x4 PUSH2 0x4A9 JUMP JUMPDEST PUSH2 0x15D JUMP JUMPDEST CALLER PUSH1 0x0 SWAP1 DUP2 MSTORE PUSH1 0x1 PUSH1 0x20 MSTORE PUSH1 0x40 DUP2 KECCAK256 DUP1 SLOAD DUP4 SWAP3 SWAP1 PUSH2 0x109 SWAP1 DUP5 SWAP1 PUSH2 0x508 JUMP JUMPDEST SWAP1 SWAP2 SSTORE POP POP PUSH1 0x0 SLOAD PUSH2 0x125 SWAP1 PUSH1 0x1 PUSH1 0x1 PUSH1 0xA0 SHL SUB AND CALLER DUP4 PUSH2 0x19C JUMP JUMPDEST POP JUMP JUMPDEST PUSH1 0x40 MLOAD CALLER DUP2 MSTORE PUSH32 0xFEC02445B4DCB9E977F70B2966AAB1907694ACAA22A61EF1FF7D6EE2CB8ED780 SWAP1 PUSH1 0x20 ADD PUSH1 0x40 MLOAD DUP1 SWAP2 SUB SWAP1 LOG1 JUMP JUMPDEST PUSH1 0x0 SLOAD PUSH2 0x175 SWAP1 PUSH1 0x1 PUSH1 0x1 PUSH1 0xA0 SHL SUB AND CALLER ADDRESS DUP5 PUSH2 0x204 JUMP JUMPDEST CALLER PUSH1 0x0 SWAP1 DUP2 MSTORE PUSH1 0x1 PUSH1 0x20 MSTORE PUSH1 0x40 DUP2 KECCAK256 DUP1 SLOAD DUP4 SWAP3 SWAP1 PUSH2 0x194 SWAP1 DUP5 SWAP1 PUSH2 0x521 JUMP JUMPDEST SWAP1 SWAP2 SSTORE POP POP POP JUMP JUMPDEST PUSH1 0x40 MLOAD PUSH1 0x1 PUSH1 0x1 PUSH1 0xA0 SHL SUB DUP4 AND PUSH1 0x24 DUP3 ADD MSTORE PUSH1 0x44 DUP2 ADD DUP3 SWAP1 MSTORE PUSH2 0x1FF SWAP1 DUP5 SWAP1 PUSH4 0xA9059CBB PUSH1 0xE0 SHL SWAP1 PUSH1 0x64 ADD JUMPDEST PUSH1 0x40 DUP1 MLOAD PUSH1 0x1F NOT DUP2 DUP5 SUB ADD DUP2 MSTORE SWAP2 SWAP1 MSTORE PUSH1 0x20 DUP2 ADD DUP1 MLOAD PUSH1 0x1 PUSH1 0x1 PUSH1 0xE0 SHL SUB AND PUSH1 0x1 PUSH1 0x1 PUSH1 0xE0 SHL SUB NOT SWAP1 SWAP4 AND SWAP3 SWAP1 SWAP3 OR SWAP1 SWAP2 MSTORE PUSH2 0x242 JUMP JUMPDEST POP POP POP JUMP JUMPDEST PUSH1 0x40 MLOAD PUSH1 0x1 PUSH1 0x1 PUSH1 0xA0 SHL SUB DUP1 DUP6 AND PUSH1 0x24 DUP4 ADD MSTORE DUP4 AND PUSH1 0x44 DUP3 ADD MSTORE PUSH1 0x64 DUP2 ADD DUP3 SWAP1 MSTORE PUSH2 0x23C SWAP1 DUP6 SWAP1 PUSH4 0x23B872DD PUSH1 0xE0 SHL SWAP1 PUSH1 0x84 ADD PUSH2 0x1C8 JUMP JUMPDEST POP POP POP POP JUMP JUMPDEST PUSH1 0x0 PUSH2 0x297 DUP3 PUSH1 0x40 MLOAD DUP1 PUSH1 0x40 ADD PUSH1 0x40 MSTORE DUP1 PUSH1 0x20 DUP2 MSTORE PUSH1 0x20 ADD PUSH32 0x5361666545524332303A206C6F772D6C6576656C2063616C6C206661696C6564 DUP2 MSTORE POP DUP6 PUSH1 0x1 PUSH1 0x1 PUSH1 0xA0 SHL SUB AND PUSH2 0x319 SWAP1 SWAP3 SWAP2 SWAP1 PUSH4 0xFFFFFFFF AND JUMP JUMPDEST DUP1 MLOAD SWAP1 SWAP2 POP ISZERO PUSH2 0x1FF JUMPI DUP1 DUP1 PUSH1 0x20 ADD SWAP1 MLOAD DUP2 ADD SWAP1 PUSH2 0x2B5 SWAP2 SWAP1 PUSH2 0x534 JUMP JUMPDEST PUSH2 0x1FF JUMPI PUSH1 0x40 MLOAD PUSH3 0x461BCD PUSH1 0xE5 SHL DUP2 MSTORE PUSH1 0x20 PUSH1 0x4 DUP3 ADD MSTORE PUSH1 0x2A PUSH1 0x24 DUP3 ADD MSTORE PUSH32 0x5361666545524332303A204552433230206F7065726174696F6E20646964206E PUSH1 0x44 DUP3 ADD MSTORE PUSH10 0x1BDD081CDD58D8D95959 PUSH1 0xB2 SHL PUSH1 0x64 DUP3 ADD MSTORE PUSH1 0x84 ADD JUMPDEST PUSH1 0x40 MLOAD DUP1 SWAP2 SUB SWAP1 REVERT JUMPDEST PUSH1 0x60 PUSH2 0x328 DUP5 DUP5 PUSH1 0x0 DUP6 PUSH2 0x330 JUMP JUMPDEST SWAP5 SWAP4 POP POP POP POP JUMP JUMPDEST PUSH1 0x60 DUP3 SELFBALANCE LT ISZERO PUSH2 0x391 JUMPI PUSH1 0x40 MLOAD PUSH3 0x461BCD PUSH1 0xE5 SHL DUP2 MSTORE PUSH1 0x20 PUSH1 0x4 DUP3 ADD MSTORE PUSH1 0x26 PUSH1 0x24 DUP3 ADD MSTORE PUSH32 0x416464726573733A20696E73756666696369656E742062616C616E636520666F PUSH1 0x44 DUP3 ADD MSTORE PUSH6 0x1C8818D85B1B PUSH1 0xD2 SHL PUSH1 0x64 DUP3 ADD MSTORE PUSH1 0x84 ADD PUSH2 0x310 JUMP JUMPDEST PUSH1 0x0 DUP1 DUP7 PUSH1 0x1 PUSH1 0x1 PUSH1 0xA0 SHL SUB AND DUP6 DUP8 PUSH1 0x40 MLOAD PUSH2 0x3AD SWAP2 SWAP1 PUSH2 0x57A JUMP JUMPDEST PUSH1 0x0 PUSH1 0x40 MLOAD DUP1 DUP4 SUB DUP2 DUP6 DUP8 GAS CALL SWAP3 POP POP POP RETURNDATASIZE DUP1 PUSH1 0x0 DUP2 EQ PUSH2 0x3EA JUMPI PUSH1 0x40 MLOAD SWAP2 POP PUSH1 0x1F NOT PUSH1 0x3F RETURNDATASIZE ADD AND DUP3 ADD PUSH1 0x40 MSTORE RETURNDATASIZE DUP3 MSTORE RETURNDATASIZE PUSH1 0x0 PUSH1 0x20 DUP5 ADD RETURNDATACOPY PUSH2 0x3EF JUMP JUMPDEST PUSH1 0x60 SWAP2 POP JUMPDEST POP SWAP2 POP SWAP2 POP PUSH2 0x400 DUP8 DUP4 DUP4 DUP8 PUSH2 0x40B JUMP JUMPDEST SWAP8 SWAP7 POP POP POP POP POP POP POP JUMP JUMPDEST PUSH1 0x60 DUP4 ISZERO PUSH2 0x47A JUMPI DUP3 MLOAD PUSH1 0x0 SUB PUSH2 0x473 JUMPI PUSH1 0x1 PUSH1 0x1 PUSH1 0xA0 SHL SUB DUP6 AND EXTCODESIZE PUSH2 0x473 JUMPI PUSH1 0x40 MLOAD PUSH3 0x461BCD PUSH1 0xE5 SHL DUP2 MSTORE PUSH1 0x20 PUSH1 0x4 DUP3 ADD MSTORE PUSH1 0x1D PUSH1 0x24 DUP3 ADD MSTORE PUSH32 0x416464726573733A2063616C6C20746F206E6F6E2D636F6E7472616374000000 PUSH1 0x44 DUP3 ADD MSTORE PUSH1 0x64 ADD PUSH2 0x310 JUMP JUMPDEST POP DUP2 PUSH2 0x328 JUMP JUMPDEST PUSH2 0x328 DUP4 DUP4 DUP2 MLOAD ISZERO PUSH2 0x48F JUMPI DUP2 MLOAD DUP1 DUP4 PUSH1 0x20 ADD REVERT JUMPDEST DUP1 PUSH1 0x40 MLOAD PUSH3 0x461BCD PUSH1 0xE5 SHL DUP2 MSTORE PUSH1 0x4 ADD PUSH2 0x310 SWAP2 SWAP1 PUSH2 0x596 JUMP JUMPDEST PUSH1 0x0 PUSH1 0x20 DUP3 DUP5 SUB SLT ISZERO PUSH2 0x4BB JUMPI PUSH1 0x0 DUP1 REVERT JUMPDEST POP CALLDATALOAD SWAP2 SWAP1 POP JUMP JUMPDEST PUSH1 0x0 PUSH1 0x20 DUP3 DUP5 SUB SLT ISZERO PUSH2 0x4D4 JUMPI PUSH1 0x0 DUP1 REVERT JUMPDEST DUP2 CALLDATALOAD PUSH1 0x1 PUSH1 0x1 PUSH1 0xA0 SHL SUB DUP2 AND DUP2 EQ PUSH2 0x4EB JUMPI PUSH1 0x0 DUP1 REVERT JUMPDEST SWAP4 SWAP3 POP POP POP JUMP JUMPDEST PUSH4 0x4E487B71 PUSH1 0xE0 SHL PUSH1 0x0 MSTORE PUSH1 0x11 PUSH1 0x4 MSTORE PUSH1 0x24 PUSH1 0x0 REVERT JUMPDEST DUP2 DUP2 SUB DUP2 DUP2 GT ISZERO PUSH2 0x51B JUMPI PUSH2 0x51B PUSH2 0x4F2 JUMP JUMPDEST SWAP3 SWAP2 POP POP JUMP JUMPDEST DUP1 DUP3 ADD DUP1 DUP3 GT ISZERO PUSH2 0x51B JUMPI PUSH2 0x51B PUSH2 0x4F2 JUMP JUMPDEST PUSH1 0x0 PUSH1 0x20 DUP3 DUP5 SUB SLT ISZERO PUSH2 0x546 JUMPI PUSH1 0x0 DUP1 REVERT JUMPDEST DUP2 MLOAD DUP1 ISZERO ISZERO DUP2 EQ PUSH2 0x4EB JUMPI PUSH1 0x0 DUP1 REVERT JUMPDEST PUSH1 0x0 JUMPDEST DUP4 DUP2 LT ISZERO PUSH2 0x571 JUMPI DUP2 DUP2 ADD MLOAD DUP4 DUP3 ADD MSTORE PUSH1 0x20 ADD PUSH2 0x559 JUMP JUMPDEST POP POP PUSH1 0x0 SWAP2 ADD MSTORE JUMP JUMPDEST PUSH1 0x0 DUP3 MLOAD PUSH2 0x58C DUP2 DUP5 PUSH1 0x20 DUP8 ADD PUSH2 0x556 JUMP JUMPDEST SWAP2 SWAP1 SWAP2 ADD SWAP3 SWAP2 POP POP JUMP JUMPDEST PUSH1 0x20 DUP2 MSTORE PUSH1 0x0 DUP3 MLOAD DUP1 PUSH1 0x20 DUP5 ADD MSTORE PUSH2 0x5B5 DUP2 PUSH1 0x40 DUP6 ADD PUSH1 0x20 DUP8 ADD PUSH2 0x556 JUMP JUMPDEST PUSH1 0x1F ADD PUSH1 0x1F NOT AND SWAP2 SWAP1 SWAP2 ADD PUSH1 0x40 ADD SWAP3 SWAP2 POP POP JUMP INVALID LOG2 PUSH5 0x6970667358 0x22 SLT KECCAK256 STOP DUP3 0xE1 0x4A 0xD9 ADDMOD 0x5D PC GAS JUMP DUP15 0xA7 0xD1 CHAINID 0xA9 0xBF 0xD4 0xE2 0xC4 0xB8 PUSH24 0x4652831A7AD927BCA7456864736F6C634300081300330000 ",
  "sha1": "da53b193c1227924289038b0fa89c3f9c82d8890",
  "source": "// SCH Course Copyright Policy (C): DO-NOT-SHARE-WITH-ANYONE\n// https://smartcontractshacking.com/#copyright-policy\npragma solidity ^0.8.13;\n\nimport \"@openzeppelin/contracts/token/ERC20/ERC20.sol\";\nimport \"@openzeppelin/contracts/token/ERC20/utils/SafeERC20.sol\";\n\ncontract YieldContract {\n    using SafeERC20 for IERC20;\n\n    event RewardsClaimed(address claimer);\n    address public underlying;\n\n    mapping (address => uint256) public balanceOf;\n\n    constructor(address _underlying) {\n        underlying = _underlying;\n    }\n\n    function deposit(uint256 _amount) external {\n        IERC20(underlying).safeTransferFrom(msg.sender, address(this), _amount);\n        balanceOf[msg.sender] += _amount;\n    }\n\n    function withdraw(uint256 _amount) external {\n        balanceOf[msg.sender] -= _amount;\n        IERC20(underlying).safeTransfer(msg.sender, _amount);\n    }\n\n    function claimRewards() external {\n        // No rewards are accumulated in this stub contract\n        emit RewardsClaimed(msg.sender);\n    }\n\n}\n",
  "sourcePath": "contracts/optimizer-vaults-1/YieldContract.sol",
  "type": "contract"
}